{
  "_format": "hh-sol-artifact-1",
  "contractName": "TestIncentiveId",
  "sourceName": "contracts/test/TestIncentiveId.sol",
  "abi": [
    {
      "inputs": [
        {
          "components": [
            {
              "internalType": "contract IERC20Minimal",
              "name": "rewardToken",
              "type": "address"
            },
            {
              "internalType": "contract IERC20Minimal",
              "name": "bonusRewardToken",
              "type": "address"
            },
            {
              "internalType": "contract IAlgebraPool",
              "name": "pool",
              "type": "address"
            },
            {
              "internalType": "uint256",
              "name": "nonce",
              "type": "uint256"
            }
          ],
          "internalType": "struct IncentiveKey",
          "name": "key",
          "type": "tuple"
        }
      ],
      "name": "compute",
      "outputs": [
        {
          "internalType": "bytes32",
          "name": "",
          "type": "bytes32"
        }
      ],
      "stateMutability": "pure",
      "type": "function"
    }
  ],
  "bytecode": "0x608060405234801561001057600080fd5b506101a3806100206000396000f3fe608060405234801561001057600080fd5b506004361061002b5760003560e01c8063c06be83814610030575b600080fd5b61004361003e3660046100f1565b610055565b60405190815260200160405180910390f35b60006100c68260408051825173ffffffffffffffffffffffffffffffffffffffff90811660208084019190915284015181168284015291830151909116606080830191909152820151608082015260009060a001604051602081830303815290604052805190602001209050919050565b92915050565b73ffffffffffffffffffffffffffffffffffffffff811681146100ee57600080fd5b50565b60006080828403121561010357600080fd5b6040516080810181811067ffffffffffffffff8211171561014d577f4e487b7100000000000000000000000000000000000000000000000000000000600052604160045260246000fd5b604052823561015b816100cc565b8152602083013561016b816100cc565b6020820152604083013561017e816100cc565b6040820152606092830135928101929092525091905056fea164736f6c6343000814000a",
  "linkReferences": {},
  "deployedLinkReferences": {}
}