{
  "_format": "hh-sol-artifact-1",
  "contractName": "TestERC20Reentrant",
  "sourceName": "contracts/test/TestERC20Reentrant.sol",
  "abi": [
    {
      "inputs": [
        {
          "internalType": "uint256",
          "name": "amountToMint",
          "type": "uint256"
        }
      ],
      "stateMutability": "nonpayable",
      "type": "constructor"
    },
    {
      "anonymous": false,
      "inputs": [
        {
          "indexed": true,
          "internalType": "address",
          "name": "owner",
          "type": "address"
        },
        {
          "indexed": true,
          "internalType": "address",
          "name": "spender",
          "type": "address"
        },
        {
          "indexed": false,
          "internalType": "uint256",
          "name": "value",
          "type": "uint256"
        }
      ],
      "name": "Approval",
      "type": "event"
    },
    {
      "anonymous": false,
      "inputs": [
        {
          "indexed": true,
          "internalType": "address",
          "name": "from",
          "type": "address"
        },
        {
          "indexed": true,
          "internalType": "address",
          "name": "to",
          "type": "address"
        },
        {
          "indexed": false,
          "internalType": "uint256",
          "name": "value",
          "type": "uint256"
        }
      ],
      "name": "Transfer",
      "type": "event"
    },
    {
      "inputs": [
        {
          "internalType": "address",
          "name": "",
          "type": "address"
        },
        {
          "internalType": "address",
          "name": "",
          "type": "address"
        }
      ],
      "name": "allowance",
      "outputs": [
        {
          "internalType": "uint256",
          "name": "",
          "type": "uint256"
        }
      ],
      "stateMutability": "view",
      "type": "function"
    },
    {
      "inputs": [
        {
          "internalType": "address",
          "name": "spender",
          "type": "address"
        },
        {
          "internalType": "uint256",
          "name": "amount",
          "type": "uint256"
        }
      ],
      "name": "approve",
      "outputs": [
        {
          "internalType": "bool",
          "name": "",
          "type": "bool"
        }
      ],
      "stateMutability": "nonpayable",
      "type": "function"
    },
    {
      "inputs": [
        {
          "internalType": "address",
          "name": "",
          "type": "address"
        }
      ],
      "name": "balanceOf",
      "outputs": [
        {
          "internalType": "uint256",
          "name": "",
          "type": "uint256"
        }
      ],
      "stateMutability": "view",
      "type": "function"
    },
    {
      "inputs": [],
      "name": "cancelComplexAttack",
      "outputs": [],
      "stateMutability": "nonpayable",
      "type": "function"
    },
    {
      "inputs": [],
      "name": "doComplexReentrancy",
      "outputs": [
        {
          "internalType": "bool",
          "name": "",
          "type": "bool"
        }
      ],
      "stateMutability": "view",
      "type": "function"
    },
    {
      "inputs": [],
      "name": "doReentrancy",
      "outputs": [
        {
          "internalType": "bool",
          "name": "",
          "type": "bool"
        }
      ],
      "stateMutability": "view",
      "type": "function"
    },
    {
      "inputs": [
        {
          "internalType": "address",
          "name": "to",
          "type": "address"
        },
        {
          "internalType": "uint256",
          "name": "amount",
          "type": "uint256"
        }
      ],
      "name": "mint",
      "outputs": [],
      "stateMutability": "nonpayable",
      "type": "function"
    },
    {
      "inputs": [
        {
          "components": [
            {
              "internalType": "contract IERC20Minimal",
              "name": "rewardToken",
              "type": "address"
            },
            {
              "internalType": "contract IERC20Minimal",
              "name": "bonusRewardToken",
              "type": "address"
            },
            {
              "internalType": "contract IAlgebraPool",
              "name": "pool",
              "type": "address"
            },
            {
              "internalType": "uint256",
              "name": "nonce",
              "type": "uint256"
            }
          ],
          "internalType": "struct IncentiveKey",
          "name": "key",
          "type": "tuple"
        },
        {
          "internalType": "uint128",
          "name": "rewardAmount",
          "type": "uint128"
        },
        {
          "internalType": "uint128",
          "name": "bonusRewardAmount",
          "type": "uint128"
        }
      ],
      "name": "prepareAttack",
      "outputs": [],
      "stateMutability": "nonpayable",
      "type": "function"
    },
    {
      "inputs": [
        {
          "internalType": "address",
          "name": "target",
          "type": "address"
        },
        {
          "internalType": "bytes",
          "name": "data",
          "type": "bytes"
        }
      ],
      "name": "prepareComplexAttack",
      "outputs": [],
      "stateMutability": "nonpayable",
      "type": "function"
    },
    {
      "inputs": [
        {
          "internalType": "bool",
          "name": "_isDeflationary",
          "type": "bool"
        },
        {
          "internalType": "uint128",
          "name": "percent",
          "type": "uint128"
        }
      ],
      "name": "setDefl",
      "outputs": [],
      "stateMutability": "nonpayable",
      "type": "function"
    },
    {
      "inputs": [
        {
          "internalType": "uint256",
          "name": "_nextTransferAmount",
          "type": "uint256"
        }
      ],
      "name": "setNextTransferAmount",
      "outputs": [],
      "stateMutability": "nonpayable",
      "type": "function"
    },
    {
      "inputs": [
        {
          "internalType": "address",
          "name": "recipient",
          "type": "address"
        },
        {
          "internalType": "uint256",
          "name": "amount",
          "type": "uint256"
        }
      ],
      "name": "transfer",
      "outputs": [
        {
          "internalType": "bool",
          "name": "",
          "type": "bool"
        }
      ],
      "stateMutability": "nonpayable",
      "type": "function"
    },
    {
      "inputs": [
        {
          "internalType": "address",
          "name": "sender",
          "type": "address"
        },
        {
          "internalType": "address",
          "name": "recipient",
          "type": "address"
        },
        {
          "internalType": "uint256",
          "name": "amount",
          "type": "uint256"
        }
      ],
      "name": "transferFrom",
      "outputs": [
        {
          "internalType": "bool",
          "name": "",
          "type": "bool"
        }
      ],
      "stateMutability": "nonpayable",
      "type": "function"
    }
  ],
  "bytecode": "0x6080604052600280546001600160881b0319166105001790556004805461ffff1916905534801561002f57600080fd5b506040516113c63803806113c683398101604081905261004e916100ee565b806100593382610060565b505061012e565b6001600160a01b038216600090815260208190526040812054610084908390610107565b9050818110156100ce576040805162461bcd60e51b815260206004820152601060248201526f6f766572666c6f772062616c616e636560801b604482015290519081900360640190fd5b6001600160a01b0390921660009081526020819052604090209190915550565b60006020828403121561010057600080fd5b5051919050565b8082018082111561012857634e487b7160e01b600052601160045260246000fd5b92915050565b6112898061013d6000396000f3fe608060405234801561001057600080fd5b50600436106100df5760003560e01c806370a082311161008c578063c33900a911610066578063c33900a9146102c1578063c464bc66146102d4578063dd62ed3e14610301578063e98cd1f21461032c57600080fd5b806370a08231146101a25780637dc41d35146101d0578063a9059cbb146102ae57600080fd5b806323b872dd116100bd57806323b872dd1461016a57806340c10f191461017d57806360c049f81461019057600080fd5b806303aaab6f146100e4578063095ea7b31461010657806321c4d1f614610119575b600080fd5b6004546100f19060ff1681565b60405190151581526020015b60405180910390f35b6100f1610114366004610ce1565b6103aa565b610168610127366004610d0d565b600280547fffffffffffffffffffffffffffff00ffffffffffffffffffffffffffffffffff1671010000000000000000000000000000000000179055600355565b005b6100f1610178366004610d26565b61041e565b61016861018b366004610ce1565b610953565b6004546100f190610100900460ff1681565b6101c26101b0366004610d67565b60006020819052908152604090205481565b6040519081526020016100fd565b6101686101de366004610ddf565b600480547fffffffffffffffffffffffffffffffffffffffffffffffffffffffffffffff0016600117905582516005805473ffffffffffffffffffffffffffffffffffffffff9283167fffffffffffffffffffffffff0000000000000000000000000000000000000000918216179091556020850151600680549184169183169190911790556040850151600780549190931691161790556060909201516008556fffffffffffffffffffffffffffffffff91821670010000000000000000000000000000000002911617600955565b6100f16102bc366004610ce1565b610a22565b6101686102cf366004610e8c565b610c3b565b610168600480547fffffffffffffffffffffffffffffffffffffffffffffffffffffffffffff00ff169055565b6101c261030f366004610f11565b600160209081526000928352604080842090915290825290205481565b61016861033a366004610f4a565b600280547fffffffffffffffffffffffffffffff0000000000000000000000000000000000169215157fffffffffffffffffffffffffffffff00000000000000000000000000000000ff16929092176101006fffffffffffffffffffffffffffffffff9290921691909102179055565b33600081815260016020908152604080832073ffffffffffffffffffffffffffffffffffffffff8716808552908352818420869055815186815291519394909390927f8c5be1e5ebec7d5bd14f71427d1e84f3dd0314c0f7b2291e5b200ac8c7c3b925928290030190a35060015b92915050565b60045460009060ff1615610504576009546040517ff26ebf7a00000000000000000000000000000000000000000000000000000000815260055473ffffffffffffffffffffffffffffffffffffffff90811660048301526006548116602483015260075416604482015260085460648201526fffffffffffffffffffffffffffffffff808316608483015270010000000000000000000000000000000090920490911660a4820152339063f26ebf7a9060c401600060405180830381600087803b1580156104eb57600080fd5b505af11580156104ff573d6000803e3d6000fd5b505050505b600454610100900460ff16156105f457600a5460405160009173ffffffffffffffffffffffffffffffffffffffff169061054090600b90610fd7565b6000604051808303816000865af19150503d806000811461057d576040519150601f19603f3d011682016040523d82523d6000602084013e610582565b606091505b50509050806105f2576040517f08c379a000000000000000000000000000000000000000000000000000000000815260206004820152600d60248201527f41747461636b206661696c65640000000000000000000000000000000000000060448201526064015b60405180910390fd5b505b73ffffffffffffffffffffffffffffffffffffffff841660009081526001602090815260408083203384529091529020548281101561068f576040517f08c379a000000000000000000000000000000000000000000000000000000000815260206004820152601660248201527f616c6c6f77616e636520696e73756666696369656e740000000000000000000060448201526064016105e9565b610699838261109a565b73ffffffffffffffffffffffffffffffffffffffff80871660009081526001602090815260408083203384528252808320949094559187168152908190522054806106e485826110ad565b101561074c576040517f08c379a000000000000000000000000000000000000000000000000000000000815260206004820152601a60248201527f6f766572666c6f772062616c616e636520726563697069656e7400000000000060448201526064016105e9565b60025471010000000000000000000000000000000000900460ff16156107a057600380546000909155600280547fffffffffffffffffffffffffffff00ffffffffffffffffffffffffffffffffff16905593505b60025460ff166107df576107b484826110ad565b73ffffffffffffffffffffffffffffffffffffffff861660009081526020819052604090205561084b565b6002546064906108069061010090046fffffffffffffffffffffffffffffffff16866110c0565b61081091906110d7565b61081a908561109a565b61082490826110ad565b73ffffffffffffffffffffffffffffffffffffffff86166000908152602081905260409020555b73ffffffffffffffffffffffffffffffffffffffff8616600090815260208190526040902054848110156108db576040517f08c379a000000000000000000000000000000000000000000000000000000000815260206004820152601860248201527f756e646572666c6f772062616c616e63652073656e646572000000000000000060448201526064016105e9565b6108e5858261109a565b73ffffffffffffffffffffffffffffffffffffffff8881166000818152602081815260409182902094909455518881529189169290917fddf252ad1be2c89b69c2b068fc378daa952ba7f163c4a11628f55a4df523b3ef910160405180910390a35060019695505050505050565b73ffffffffffffffffffffffffffffffffffffffff82166000908152602081905260408120546109849083906110ad565b9050818110156109f557604080517f08c379a000000000000000000000000000000000000000000000000000000000815260206004820152601060248201527f6f766572666c6f772062616c616e636500000000000000000000000000000000604482015290519081900360640190fd5b73ffffffffffffffffffffffffffffffffffffffff90921660009081526020819052604090209190915550565b3360009081526020819052604081205482811015610aa157604080517f08c379a000000000000000000000000000000000000000000000000000000000815260206004820152601460248201527f696e73756666696369656e742062616c616e6365000000000000000000000000604482015290519081900360640190fd5b610aab838261109a565b336000908152602081905260408082209290925573ffffffffffffffffffffffffffffffffffffffff86168152205480610ae585826110ad565b1015610b5257604080517f08c379a000000000000000000000000000000000000000000000000000000000815260206004820152601a60248201527f726563697069656e742062616c616e6365206f766572666c6f77000000000000604482015290519081900360640190fd5b60025460ff16610b9157610b6684826110ad565b73ffffffffffffffffffffffffffffffffffffffff8616600090815260208190526040902055610be3565b6064610b9e8560056110c0565b610ba891906110d7565b610bb2908561109a565b610bbc90826110ad565b73ffffffffffffffffffffffffffffffffffffffff86166000908152602081905260409020555b60408051858152905173ffffffffffffffffffffffffffffffffffffffff87169133917fddf252ad1be2c89b69c2b068fc378daa952ba7f163c4a11628f55a4df523b3ef9181900360200190a3506001949350505050565b600480547fffffffffffffffffffffffffffffffffffffffffffffffffffffffffffff00ff16610100179055600a805473ffffffffffffffffffffffffffffffffffffffff85167fffffffffffffffffffffffff0000000000000000000000000000000000000000909116179055600b610cb6828483611161565b50505050565b73ffffffffffffffffffffffffffffffffffffffff81168114610cde57600080fd5b50565b60008060408385031215610cf457600080fd5b8235610cff81610cbc565b946020939093013593505050565b600060208284031215610d1f57600080fd5b5035919050565b600080600060608486031215610d3b57600080fd5b8335610d4681610cbc565b92506020840135610d5681610cbc565b929592945050506040919091013590565b600060208284031215610d7957600080fd5b8135610d8481610cbc565b9392505050565b7f4e487b7100000000000000000000000000000000000000000000000000000000600052604160045260246000fd5b80356fffffffffffffffffffffffffffffffff81168114610dda57600080fd5b919050565b600080600083850360c0811215610df557600080fd5b6080811215610e0357600080fd5b506040516080810181811067ffffffffffffffff82111715610e2757610e27610d8b565b6040528435610e3581610cbc565b81526020850135610e4581610cbc565b60208201526040850135610e5881610cbc565b6040820152606085810135908201529250610e7560808501610dba565b9150610e8360a08501610dba565b90509250925092565b600080600060408486031215610ea157600080fd5b8335610eac81610cbc565b9250602084013567ffffffffffffffff80821115610ec957600080fd5b818601915086601f830112610edd57600080fd5b813581811115610eec57600080fd5b876020828501011115610efe57600080fd5b6020830194508093505050509250925092565b60008060408385031215610f2457600080fd5b8235610f2f81610cbc565b91506020830135610f3f81610cbc565b809150509250929050565b60008060408385031215610f5d57600080fd5b82358015158114610f6d57600080fd5b9150610f7b60208401610dba565b90509250929050565b600181811c90821680610f9857607f821691505b602082108103610fd1577f4e487b7100000000000000000000000000000000000000000000000000000000600052602260045260246000fd5b50919050565b6000808354610fe581610f84565b60018281168015610ffd57600181146110305761105f565b7fffffffffffffffffffffffffffffffffffffffffffffffffffffffffffffff008416875282151583028701945061105f565b8760005260208060002060005b858110156110565781548a82015290840190820161103d565b50505082870194505b50929695505050505050565b7f4e487b7100000000000000000000000000000000000000000000000000000000600052601160045260246000fd5b818103818111156104185761041861106b565b808201808211156104185761041861106b565b80820281158282048414176104185761041861106b565b60008261110d577f4e487b7100000000000000000000000000000000000000000000000000000000600052601260045260246000fd5b500490565b601f82111561115c57600081815260208120601f850160051c810160208610156111395750805b601f850160051c820191505b8181101561115857828155600101611145565b5050505b505050565b67ffffffffffffffff83111561117957611179610d8b565b61118d836111878354610f84565b83611112565b6000601f8411600181146111df57600085156111a95750838201355b7fffffffffffffffffffffffffffffffffffffffffffffffffffffffffffffffff600387901b1c1916600186901b178355611275565b6000838152602090207fffffffffffffffffffffffffffffffffffffffffffffffffffffffffffffffe0861690835b8281101561122e578685013582556020948501946001909201910161120e565b5086821015611269577fffffffffffffffffffffffffffffffffffffffffffffffffffffffffffffffff60f88860031b161c19848701351681555b505060018560011b0183555b505050505056fea164736f6c6343000814000a",
  "linkReferences": {},
  "deployedLinkReferences": {}
}