{
  "_format": "hh-sol-artifact-1",
  "contractName": "EternalVirtualPoolEchidnaTest",
  "sourceName": "contracts/test/echidna/EternalVirtualPoolEchidnaTest.sol",
  "abi": [
    {
      "inputs": [],
      "stateMutability": "nonpayable",
      "type": "constructor"
    },
    {
      "inputs": [
        {
          "internalType": "int24",
          "name": "bottomTick",
          "type": "int24"
        },
        {
          "internalType": "int24",
          "name": "topTick",
          "type": "int24"
        },
        {
          "internalType": "int128",
          "name": "liquidityDelta",
          "type": "int128"
        }
      ],
      "name": "applyLiquidityDeltaToPosition",
      "outputs": [],
      "stateMutability": "nonpayable",
      "type": "function"
    },
    {
      "inputs": [
        {
          "internalType": "int24",
          "name": "targetTick",
          "type": "int24"
        }
      ],
      "name": "crossTo",
      "outputs": [],
      "stateMutability": "nonpayable",
      "type": "function"
    }
  ],
  "bytecode": "0x60806040526000805462ffffff60a01b1916905534801561001f57600080fd5b50303060405161002e90610087565b6001600160a01b03928316815291166020820152604001604051809103906000f080158015610061573d6000803e3d6000fd5b50600080546001600160a01b0319166001600160a01b0392909216919091179055610094565b61240c80610a3b83390190565b610998806100a36000396000f3fe608060405234801561001057600080fd5b50600436106100365760003560e01c8063623d32e81461003b578063f7d1c64114610050575b600080fd5b61004e61004936600461076c565b610063565b005b61004e61005e36600461079f565b610269565b61006c81610404565b90506100977ffffffffffffffffffffffffffffffffffffffffffffffffffffffffffff27618610819565b60020b8160020b036100b157806100ad81610857565b9150505b6000546040517f34d33590000000000000000000000000000000000000000000000000000000008152600283810b6004830181905274010000000000000000000000000000000000000000840490910b1215602482018190529173ffffffffffffffffffffffffffffffffffffffff16906334d33590906044016020604051808303816000875af115801561014a573d6000803e3d6000fd5b505050506040513d601f19601f8201168201806040525081019061016e91906108b4565b506000805462ffffff841674010000000000000000000000000000000000000000027fffffffffffffffffff000000ffffffffffffffffffffffffffffffffffffffff82168117909255604080517f556ed30e000000000000000000000000000000000000000000000000000000008152905173ffffffffffffffffffffffffffffffffffffffff93841693909216929092179163556ed30e9160048083019260209291908290030181865afa15801561022c573d6000803e3d6000fd5b505050506040513d601f19601f8201168201806040525081019061025091906108b4565b1561025d5761025d6108d6565b6102656104c2565b5050565b61027283610404565b925061027d82610404565b91508160020b8360020b0361029157505050565b8260020b8260020b12156102a3579091905b6000546040517fd6b83ede000000000000000000000000000000000000000000000000000000008152600285810b600483015284810b6024830152600f84900b6044830152740100000000000000000000000000000000000000008304900b606482015273ffffffffffffffffffffffffffffffffffffffff9091169063d6b83ede90608401600060405180830381600087803b15801561034357600080fd5b505af1158015610357573d6000803e3d6000fd5b5050505060008054906101000a900473ffffffffffffffffffffffffffffffffffffffff1673ffffffffffffffffffffffffffffffffffffffff1663556ed30e6040518163ffffffff1660e01b8152600401602060405180830381865afa1580156103c6573d6000803e3d6000fd5b505050506040513d601f19601f820116820180604052508101906103ea91906108b4565b156103f7576103f76108d6565b6103ff6104c2565b505050565b60007ffffffffffffffffffffffffffffffffffffffffffffffffffffffffffff27618600283900b121561045957507ffffffffffffffffffffffffffffffffffffffffffffffffffffffffffff27618919050565b6104827ffffffffffffffffffffffffffffffffffffffffffffffffffffffffffff27618610819565b60020b8260020b13156104be576104b87ffffffffffffffffffffffffffffffffffffffffffffffffffffffffffff27618610819565b92915050565b5090565b60008060009054906101000a900473ffffffffffffffffffffffffffffffffffffffff1673ffffffffffffffffffffffffffffffffffffffff1663259a51276040518163ffffffff1660e01b8152600401602060405180830381865afa158015610530573d6000803e3d6000fd5b505050506040513d601f19601f820116820180604052508101906105549190610905565b905060008060009054906101000a900473ffffffffffffffffffffffffffffffffffffffff1673ffffffffffffffffffffffffffffffffffffffff166342987e6b6040518163ffffffff1660e01b8152600401602060405180830381865afa1580156105c4573d6000803e3d6000fd5b505050506040513d601f19601f820116820180604052508101906105e89190610905565b600080546040517ff30dba93000000000000000000000000000000000000000000000000000000008152600286900b6004820152929350909173ffffffffffffffffffffffffffffffffffffffff9091169063f30dba939060240160c060405180830381865afa158015610660573d6000803e3d6000fd5b505050506040513d601f19601f820116820180604052508101906106849190610922565b5050600080546040517ff30dba93000000000000000000000000000000000000000000000000000000008152600289900b600482015292965090945073ffffffffffffffffffffffffffffffffffffffff16925063f30dba93915060240160c060405180830381865afa1580156106ff573d6000803e3d6000fd5b505050506040513d601f19601f820116820180604052508101906107239190610922565b505050925050508060020b8460020b1461073f5761073f6108d6565b8160020b8360020b14610754576107546108d6565b50505050565b8060020b811461076957600080fd5b50565b60006020828403121561077e57600080fd5b81356107898161075a565b9392505050565b80600f0b811461076957600080fd5b6000806000606084860312156107b457600080fd5b83356107bf8161075a565b925060208401356107cf8161075a565b915060408401356107df81610790565b809150509250925092565b7f4e487b7100000000000000000000000000000000000000000000000000000000600052601160045260246000fd5b60008160020b7fffffffffffffffffffffffffffffffffffffffffffffffffffffffffff800000810361084e5761084e6107ea565b60000392915050565b60008160020b7fffffffffffffffffffffffffffffffffffffffffffffffffffffffffff800000810361088c5761088c6107ea565b7fffffffffffffffffffffffffffffffffffffffffffffffffffffffffffffffff0192915050565b6000602082840312156108c657600080fd5b8151801515811461078957600080fd5b7f4e487b7100000000000000000000000000000000000000000000000000000000600052600160045260246000fd5b60006020828403121561091757600080fd5b81516107898161075a565b60008060008060008060c0878903121561093b57600080fd5b86519550602087015161094d81610790565b604088015190955061095e8161075a565b606088015190945061096f8161075a565b809350506080870151915060a08701519050929550929550929556fea164736f6c6343000814000a60c0604052600160075560016008553480156200001b57600080fd5b506040516200240c3803806200240c8339810160408190526200003e91620001dd565b81816200004c6000620000ca565b6001600160a01b03828116608052811660a0526004805462ffffff63ffffffff60c81b011916600160c81b4263ffffffff160262ffffff19161762f276181790556200009c620d89e71962000215565b6004805462ffffff9290921663010000000265ffffff00000019909216919091179055506200024692505050565b620d89e719620000da8162000215565b620d89e7196000818152602085905260409020600101805465ffffffffffff60801b1916600160981b62ffffff9485160262ffffff60801b191617600160801b949093169390930291909117909155620001348162000215565b82600062000146620d89e71962000215565b60020b60020b81526020019081526020016000206001016010846000620d89e719620001729062000215565b60020b81526020810191909152604001600020600101805462ffffff948516600160981b0262ffffff60981b1990911617905581549383166101009190910a90810292021990921617905550565b80516001600160a01b0381168114620001d857600080fd5b919050565b60008060408385031215620001f157600080fd5b620001fc83620001c0565b91506200020c60208401620001c0565b90509250929050565b60008160020b627fffff1981036200023d57634e487b7160e01b600052601160045260246000fd5b60000392915050565b60805160a0516121926200027a600039600081816103c90152610738015260008181610297015261127401526121926000f3fe608060405234801561001057600080fd5b506004361061016c5760003560e01c80638a2ade58116100cd578063d6b83ede11610081578063f0de822811610066578063f0de8228146103eb578063f30dba931461041d578063fddf08e5146104c057600080fd5b8063d6b83ede146103b1578063ef01df4f146103c457600080fd5b8063a88a5c16116100b2578063a88a5c1614610305578063ca16ca7e1461035c578063d576dfc01461036f57600080fd5b80638a2ade58146102925780638e76c332146102de57600080fd5b806351b42b00116101245780635e075b53116101095780635e075b531461026c5780636f4a2cd0146102775780637f463bb81461027f57600080fd5b806351b42b0014610234578063556ed30e1461023e57600080fd5b806334d335901161015557806334d33590146101b857806342987e6b146101db57806346caf2ae146101ed57600080fd5b80630bd6f20014610171578063259a51271461019e575b600080fd5b61018461017f366004611f06565b6104d3565b604080519283526020830191909152015b60405180910390f35b60045460020b5b60405160029190910b8152602001610195565b6101cb6101c6366004611f39565b61071e565b6040519015158152602001610195565b6004546301000000900460020b6101a5565b60045461021390660100000000000090046fffffffffffffffffffffffffffffffff1681565b6040516fffffffffffffffffffffffffffffffff9091168152602001610195565b61023c610b67565b005b6004546101cb907d010000000000000000000000000000000000000000000000000000000000900460ff1681565b600754600854610184565b61023c610bb9565b61023c61028d366004611f95565b610bcb565b6102b97f000000000000000000000000000000000000000000000000000000000000000081565b60405173ffffffffffffffffffffffffffffffffffffffff9091168152602001610195565b6004546101a590760100000000000000000000000000000000000000000000900460020b81565b6005546fffffffffffffffffffffffffffffffff808216917001000000000000000000000000000000009004165b604080516fffffffffffffffffffffffffffffffff938416815292909116602083015201610195565b61023c61036a366004611f95565b610c2c565b60045461039c90790100000000000000000000000000000000000000000000000000900463ffffffff1681565b60405163ffffffff9091168152602001610195565b61023c6103bf366004611fbf565b610c44565b6102b97f000000000000000000000000000000000000000000000000000000000000000081565b6006546fffffffffffffffffffffffffffffffff80821691700100000000000000000000000000000000900416610333565b61048961042b36600461201b565b6000602081905290815260409020805460018201546002808401546003909401549293600f83900b937001000000000000000000000000000000008404830b93730100000000000000000000000000000000000000900490920b9186565b60408051968752600f9590950b6020870152600293840b94860194909452910b6060840152608083015260a082015260c001610195565b61023c6104ce366004611f95565b610e5c565b600282810b600090815260208190526040812060010154909182917001000000000000000000000000000000008104820b73010000000000000000000000000000000000000090910490910b14806105705750600283810b6000908152602081905260409020600101547001000000000000000000000000000000008104820b73010000000000000000000000000000000000000090910490910b145b156105a7576040517f0d6e094900000000000000000000000000000000000000000000000000000000815260040160405180910390fd5b60045460075460085463ffffffff79010000000000000000000000000000000000000000000000000084048116420393760100000000000000000000000000000000000000000000900460020b9291908416156106ff57600454660100000000000090046fffffffffffffffffffffffffffffffff1680156106fd5760055460065463ffffffff87166fffffffffffffffffffffffffffffffff8084168202811693700100000000000000000000000000000000908190048216909202811692818116929004168184111561067a578193505b80831115610686578092505b83156106bf576106ba84700100000000000000000000000000000000876fffffffffffffffffffffffffffffffff16610e70565b870196505b82156106f8576106f383700100000000000000000000000000000000876fffffffffffffffffffffffffffffffff16610e70565b860195505b505050505b505b61070e60008989868686610f28565b95509550505050505b9250929050565b60003373ffffffffffffffffffffffffffffffffffffffff7f0000000000000000000000000000000000000000000000000000000000000000161461078f576040517f545acb2400000000000000000000000000000000000000000000000000000000815260040160405180910390fd5b6004546fffffffffffffffffffffffffffffffff6601000000000000820416907601000000000000000000000000000000000000000000008104600290810b9163ffffffff7901000000000000000000000000000000000000000000000000008204169160ff7d0100000000000000000000000000000000000000000000000000000000008304169180820b916301000000909104900b821561083b5760009650505050505050610b61565b600285810b908a900b1380159061086e578260020b8a60020b12610869576001975050505050505050610b61565b61088c565b8160020b8a60020b121561088c576001975050505050505050610b61565b881515811515146108f0575050600480547fffff00ffffffffffffffffffffffffffffffffffffffffffffffffffffffffff167d0100000000000000000000000000000000000000000000000000000000001790555060009450610b619350505050565b61090c85886fffffffffffffffffffffffffffffffff16610fc6565b6007546008548a156109dd575b600288900b7ffffffffffffffffffffffffffffffffffffffffffffffffffffffffffff27618146109d8578460020b8c60020b1215610a8a57600285810b600090815260208190526040812060038101805482850180548803905585039055600101547fffffffffffffffffffffffffffffffffffffffffffffffffffffffffffffffff88019a50700100000000000000000000000000000000810490920b969550600f9190910b906109d0908b90839003611195565b995050610919565b610a8a565b6001610a087ffffffffffffffffffffffffffffffffffffffffffffffffffffffffffff27618612065565b610a1291906120a3565b60020b8860020b14610a8a578360020b8c60020b12610a8a57600284810b600090815260208190526040902060038101805482840180548703905584039055600101549498508895507301000000000000000000000000000000000000008504900b93600f0b610a828a82611195565b9950506109dd565b50506004805462ffffff9384166301000000027fffffffffffffffffffffffffffffffffffffffffffffffffffff000000000000858e16760100000000000000000000000000000000000000000000027fffffffffffffff000000ffffffffffffffffffffffffffffffffffffffffffff6fffffffffffffffffffffffffffffffff909c166601000000000000029b909b167fffffffffffffff00000000000000000000000000000000000000ffffffffffff90931692909217999099171693909216929092179590951790945550600193505050505b92915050565b610b6f61125c565b600480547fffff00ffffffffffffffffffffffffffffffffffffffffffffffffffffffffff167d010000000000000000000000000000000000000000000000000000000000179055565b610bc161125c565b610bc96112cb565b565b610bd361125c565b610bdb6112cb565b6fffffffffffffffffffffffffffffffff9182169116700100000000000000000000000000000000027fffffffffffffffffffffffffffffffff000000000000000000000000000000001617600555565b610c3461125c565b610c4060008383611317565b5050565b610c4c61125c565b6004546fffffffffffffffffffffffffffffffff66010000000000008204169063ffffffff7901000000000000000000000000000000000000000000000000008204169060ff7d0100000000000000000000000000000000000000000000000000000000008204169063010000008104600290810b91900b82610d2557610cd48682846113f7565b610d2557600480547fffff00ffffffffffffffffffffffffffffffffffffffffffffffffffffffffff167d010000000000000000000000000000000000000000000000000000000000179055600192505b50508015610d3557505050610e56565b600480547fffffffffffffff000000ffffffffffffffffffffffffffffffffffffffffffff1676010000000000000000000000000000000000000000000062ffffff87160217905563ffffffff82164263ffffffff161115610dad57610dad82846fffffffffffffffffffffffffffffffff16610fc6565b84600f0b600014610e52576000610dc7888688600061141c565b90506000610dd8888789600161141c565b9050610de5868a8a6113f7565b15610e2d57610df48588611195565b600460066101000a8154816fffffffffffffffffffffffffffffffff02191690836fffffffffffffffffffffffffffffffff1602179055505b8180610e365750805b15610e4f57610e4f898984848a60008d600f0b12611440565b50505b5050505b50505050565b610e6461125c565b610c4060018383611317565b6000838302817fffffffffffffffffffffffffffffffffffffffffffffffffffffffffffffffff85870982811083820303915050808411610eb057600080fd5b80600003610ec357508290049050610f21565b8385870960008581038616958690049560026003880281188089028203028089028203028089028203028089028203028089028203028089029091030291819003819004600101858411909403939093029190930391909104170290505b9392505050565b600285810b60009081526020889052604080822087840b8084529183209293849391929088900b1215610f9e578860020b8760020b12610f7957816002015486039350816003015485039250610f88565b81600201549350816003015492505b6002810154600382015494039390920391610fb9565b81600201548160020154039350816003015481600301540392505b5050965096945050505050565b63ffffffff42839003166000819003610fde57505050565b8115611144576005546006546fffffffffffffffffffffffffffffffff80831684029270010000000000000000000000000000000090819004821685029280831692919004168184111561104257816fffffffffffffffffffffffffffffffff1693505b806fffffffffffffffffffffffffffffffff1683111561107257806fffffffffffffffffffffffffffffffff1692505b8383171561113f576fffffffffffffffffffffffffffffffff918216849003911682900383156110c2576110b88470010000000000000000000000000000000088610e70565b6007805490910190555b82156110ee576110e48370010000000000000000000000000000000088610e70565b6008805490910190555b6fffffffffffffffffffffffffffffffff808316908216700100000000000000000000000000000000027fffffffffffffffffffffffffffffffff0000000000000000000000000000000016176006555b505050505b5050600480547fffffff00000000ffffffffffffffffffffffffffffffffffffffffffffffffff167901000000000000000000000000000000000000000000000000004263ffffffff160217905550565b60008082600f0b12156111f957508082016fffffffffffffffffffffffffffffffff808416908216106111f4576040517f1301f74800000000000000000000000000000000000000000000000000000000815260040160405180910390fd5b610b61565b826fffffffffffffffffffffffffffffffff168284019150816fffffffffffffffffffffffffffffffff161015610b61576040517f997402f200000000000000000000000000000000000000000000000000000000815260040160405180910390fd5b3373ffffffffffffffffffffffffffffffffffffffff7f00000000000000000000000000000000000000000000000000000000000000001614610bc9576040517fae74b17800000000000000000000000000000000000000000000000000000000815260040160405180910390fd5b600454610bc990790100000000000000000000000000000000000000000000000000810463ffffffff1690660100000000000090046fffffffffffffffffffffffffffffffff16610fc6565b61131f6112cb565b6fffffffffffffffffffffffffffffffff82821716156113f2576006546fffffffffffffffffffffffffffffffff8082169170010000000000000000000000000000000090041684156113895761137684836120e4565b915061138283826120e4565b90506113a2565b6113938483612114565b915061139f8382612114565b90505b6fffffffffffffffffffffffffffffffff9182169116700100000000000000000000000000000000027fffffffffffffffffffffffffffffffff0000000000000000000000000000000016176006555b505050565b60008260020b8460020b1215801561141457508160020b8460020b125b949350505050565b6007546008546000916114379183918891889188918861156f565b95945050505050565b600454600154600282810b9263010000009004900b9063ffffffff16828282891561147b576114738c898386868c6116a3565b919450925090505b88156114975761148f8b898386868c6116a3565b919450925090505b8260020b8660020b1415806114b257508160020b8560020b14155b806114c957508363ffffffff168163ffffffff1614155b1561156157600180547fffffffffffffffffffffffffffffffffffffffffffffffffffffffff000000001663ffffffff8316179055600480547fffffffffffffffffffffffffffffffffffffffffffffffffffff00000000000016630100000062ffffff858116919091027fffffffffffffffffffffffffffffffffffffffffffffffffffffffffff00000016919091179085161790555b505050505050505050505050565b600286900b600090815260208890526040812080548261158f8289611195565b6fffffffffffffffffffffffffffffffff1690506d09745258e83de0d0f4e400fce7998111156115eb576040517f25b8364a00000000000000000000000000000000000000000000000000000000815260040160405180910390fd5b6001830154600f0b8561160f5788600f0b81600f0b61160a919061213d565b611621565b88600f0b81600f0b6116219190612165565b6001850180547fffffffffffffffffffffffffffffffff00000000000000000000000000000000166fffffffffffffffffffffffffffffffff9290921691909117905581845581159450600083900361169457841594508960020b8b60020b136116945760038401879055600284018890555b50505050979650505050505050565b600080600083156116ec576000806116bb818c6117a4565b915091508a60020b8860020b036116d4578197506116e5565b8a60020b8760020b036116e5578096505b5050611782565b6000808a60020b8860020b12801561170957508a60020b8760020b135b1561173257508690508560028a810b908c900b131561172a578a9650611772565b8a9750611772565b611740600360028b8e611a1a565b600281810b6000908152602081905260409020600101547001000000000000000000000000000000009004900b925090505b61177f60008c8484611af7565b50505b6000611792600360028a8d611ca3565b969a9599509597509395505050505050565b600281810b60008181526020859052604081206001810180548383557fffffffffffffffffffff0000000000000000000000000000000000000000000081169091558185018390556003909101919091557001000000000000000000000000000000008104830b92730100000000000000000000000000000000000000909104900b907ffffffffffffffffffffffffffffffffffffffffffffffffffffffffffff27618148061188157506118787ffffffffffffffffffffffffffffffffffffffffffffffffffffffffffff27618612065565b60020b8360020b145b1561192657600283900b6000908152602085905260409020600101805462ffffff808516700100000000000000000000000000000000027fffffffffffffffffffffffffff000000ffffffffffffffffffffffffffffffff91851673010000000000000000000000000000000000000002919091167fffffffffffffffffffff000000000000ffffffffffffffffffffffffffffffff90921691909117179055610717565b8060020b8260020b03611965576040517f0d6e094900000000000000000000000000000000000000000000000000000000815260040160405180910390fd5b600282810b6000908152602086905260408082206001908101805462ffffff808816730100000000000000000000000000000000000000027fffffffffffffffffffff000000ffffffffffffffffffffffffffffffffffffff909216919091179091559385900b83529120018054918416700100000000000000000000000000000000027fffffffffffffffffffffffffff000000ffffffffffffffffffffffffffffffff9092169190911790559250929050565b600190810190600090600883811d610d8a01901c90829061ffff83161b851663ffffffff1615611a7d57611a4e8785611d3b565b90945090925090508015611a63575050611414565b611a7486610d8b840160010b611d3b565b90945090925090505b80611ac057611a9b8563ffffffff168360010193508360010b611d6c565b909350905080611ab35750620d89e891506114149050565b611abd8684611ec3565b92505b611aec877ffffffffffffffffffffffffffffffffffffffffffffffffffffffffffffff2768501611ec3565b979650505050505050565b600283900b7ffffffffffffffffffffffffffffffffffffffffffffffffffffffffffff276181480611b565750611b4d7ffffffffffffffffffffffffffffffffffffffffffffffffffffffffffff27618612065565b60020b8360020b145b610e56578260020b8260020b128015611b7457508260020b8160020b135b611baa576040517fe45ac17d00000000000000000000000000000000000000000000000000000000815260040160405180910390fd5b600283810b60009081526020959095526040808620600190810180547fffffffffffffffffffff000000000000ffffffffffffffffffffffffffffffff1673010000000000000000000000000000000000000062ffffff87811682027fffffffffffffffffffffffffff000000ffffffffffffffffffffffffffffffff908116939093177001000000000000000000000000000000008a831681029190911790945597860b8a52848a20840180547fffffffffffffffffffff000000ffffffffffffffffffffffffffffffffffffff1698909916908102979097179097559390920b865290942090930180549092169202919091179055565b81600080611ce08785600881901d600181810b60009081526020949094526040909320805460ff9093169390931b80831890935591811490151891565b915091508115611d3157610d8a01600181810b60081d80820b6000908152602089905260409020805460ff9094169290921b808418909255821591909214818118935014611d31576001811b831892505b5050949350505050565b600881901d600181900b6000908152602084905260408120548190611d609085611d6c565b93969095509293505050565b60008060ff831684811c808303611d88578460ff179350611eba565b7f555555555555555555555555555555555555555555555555555555555555555560008290038216908116156fffffffffffffffffffffffffffffffff82161560071b1777ffffffffffffffff0000000000000000ffffffffffffffff82161560061b177bffffffff00000000ffffffff00000000ffffffff00000000ffffffff82161560051b177dffff0000ffff0000ffff0000ffff0000ffff0000ffff0000ffff0000ffff82161560041b177eff00ff00ff00ff00ff00ff00ff00ff00ff00ff00ff00ff00ff00ff00ff00ff82161560031b177f0f0f0f0f0f0f0f0f0f0f0f0f0f0f0f0f0f0f0f0f0f0f0f0f0f0f0f0f0f0f0f0f82161560021b177f33333333333333333333333333333333333333333333333333333333333333339091161560011b1760ff1685019350600192505b50509250929050565b600181900b600090815260208390526040902054600882901b90611ee79082611d6c565b509392505050565b8035600281900b8114611f0157600080fd5b919050565b60008060408385031215611f1957600080fd5b611f2283611eef565b9150611f3060208401611eef565b90509250929050565b60008060408385031215611f4c57600080fd5b611f5583611eef565b915060208301358015158114611f6a57600080fd5b809150509250929050565b80356fffffffffffffffffffffffffffffffff81168114611f0157600080fd5b60008060408385031215611fa857600080fd5b611fb183611f75565b9150611f3060208401611f75565b60008060008060808587031215611fd557600080fd5b611fde85611eef565b9350611fec60208601611eef565b9250604085013580600f0b811461200257600080fd5b915061201060608601611eef565b905092959194509250565b60006020828403121561202d57600080fd5b610f2182611eef565b7f4e487b7100000000000000000000000000000000000000000000000000000000600052601160045260246000fd5b60008160020b7fffffffffffffffffffffffffffffffffffffffffffffffffffffffffff800000810361209a5761209a612036565b60000392915050565b600282810b9082900b037fffffffffffffffffffffffffffffffffffffffffffffffffffffffffff8000008112627fffff82131715610b6157610b61612036565b6fffffffffffffffffffffffffffffffff81811683821601908082111561210d5761210d612036565b5092915050565b6fffffffffffffffffffffffffffffffff82811682821603908082111561210d5761210d612036565b808201828112600083128015821682158216171561215d5761215d612036565b505092915050565b818103600083128015838313168383128216171561210d5761210d61203656fea164736f6c6343000814000a",
  "linkReferences": {},
  "deployedLinkReferences": {}
}