{
  "_format": "hh-sol-artifact-1",
  "contractName": "TickLensEchidnaTest",
  "sourceName": "contracts/test/echidna/TickLensEchidnaTest.sol",
  "abi": [
    {
      "inputs": [],
      "stateMutability": "nonpayable",
      "type": "constructor"
    },
    {
      "inputs": [],
      "name": "tickInvalidLinks",
      "type": "error"
    },
    {
      "inputs": [],
      "name": "tickIsNotInitialized",
      "type": "error"
    },
    {
      "inputs": [
        {
          "internalType": "int24",
          "name": "targetTick",
          "type": "int24"
        }
      ],
      "name": "checkNextTickAssertions",
      "outputs": [],
      "stateMutability": "view",
      "type": "function"
    },
    {
      "inputs": [
        {
          "internalType": "int16",
          "name": "",
          "type": "int16"
        }
      ],
      "name": "tickTable",
      "outputs": [
        {
          "internalType": "uint256",
          "name": "",
          "type": "uint256"
        }
      ],
      "stateMutability": "view",
      "type": "function"
    },
    {
      "inputs": [],
      "name": "tickTreeRoot",
      "outputs": [
        {
          "internalType": "uint32",
          "name": "",
          "type": "uint32"
        }
      ],
      "stateMutability": "view",
      "type": "function"
    },
    {
      "inputs": [
        {
          "internalType": "int16",
          "name": "",
          "type": "int16"
        }
      ],
      "name": "tickTreeSecondLayer",
      "outputs": [
        {
          "internalType": "uint256",
          "name": "",
          "type": "uint256"
        }
      ],
      "stateMutability": "view",
      "type": "function"
    },
    {
      "inputs": [
        {
          "internalType": "int24",
          "name": "",
          "type": "int24"
        }
      ],
      "name": "ticks",
      "outputs": [
        {
          "internalType": "uint256",
          "name": "liquidityTotal",
          "type": "uint256"
        },
        {
          "internalType": "int128",
          "name": "liquidityDelta",
          "type": "int128"
        },
        {
          "internalType": "int24",
          "name": "prevTick",
          "type": "int24"
        },
        {
          "internalType": "int24",
          "name": "nextTick",
          "type": "int24"
        },
        {
          "internalType": "uint256",
          "name": "outerFeeGrowth0Token",
          "type": "uint256"
        },
        {
          "internalType": "uint256",
          "name": "outerFeeGrowth1Token",
          "type": "uint256"
        }
      ],
      "stateMutability": "view",
      "type": "function"
    },
    {
      "inputs": [
        {
          "internalType": "int24",
          "name": "tick",
          "type": "int24"
        }
      ],
      "name": "toggleTick",
      "outputs": [],
      "stateMutability": "nonpayable",
      "type": "function"
    }
  ],
  "bytecode": "0x60806040523480156200001157600080fd5b50604051620000209062000166565b604051809103906000f0801580156200003d573d6000803e3d6000fd5b50600080546001600160a01b0319166001600160a01b03929092169190911790556200006a600162000070565b620001a5565b620d89e719620000808162000174565b620d89e7196000818152602085905260409020600101805465ffffffffffff60801b1916600160981b62ffffff9485160262ffffff60801b191617600160801b949093169390930291909117909155620000da8162000174565b826000620000ec620d89e71962000174565b60020b60020b81526020019081526020016000206001016010846000620d89e719620001189062000174565b60020b81526020810191909152604001600020600101805462ffffff948516600160981b0262ffffff60981b1990911617905581549383166101009190910a90810292021990921617905550565b610f35806200110f83390190565b60008160020b627fffff1981036200019c57634e487b7160e01b600052601160045260246000fd5b60000392915050565b610f5a80620001b56000396000f3fe608060405234801561001057600080fd5b50600436106100725760003560e01c8063c677e3e011610050578063c677e3e0146100c9578063d8619037146100f7578063f30dba931461011757600080fd5b8063578b9a36146100775780638ce5172e146100a1578063aec551cd146100b6575b600080fd5b6002546100879063ffffffff1681565b60405163ffffffff90911681526020015b60405180910390f35b6100b46100af366004610c9e565b6101bb565b005b6100b46100c4366004610c9e565b6102d0565b6100e96100d7366004610cc2565b60046020526000908152604090205481565b604051908152602001610098565b6100e9610105366004610cc2565b60036020526000908152604090205481565b610184610125366004610c9e565b6001602081905260009182526040909120805491810154600280830154600390930154600f83900b937001000000000000000000000000000000008404830b93730100000000000000000000000000000000000000900490920b919086565b60408051968752600f9590950b6020870152600293840b94860194909452910b6060840152608083015260a082015260c001610098565b6101c481610472565b6002549091506101e09060049060039063ffffffff168461053e565b600280547fffffffffffffffffffffffffffffffffffffffffffffffffffffffff000000001663ffffffff9290921691909117815581810b600090815260016020819052604090912001547301000000000000000000000000000000000000008104820b70010000000000000000000000000000000090910490910b036102c25760025460009061027d9060049060039063ffffffff16856105d6565b600281810b6000908152600160208190526040909120810154929350700100000000000000000000000000000000909204900b906102bd908483856106b5565b505050565b6102bd600182610864565b50565b6102d981610472565b600080546040517fec92d7fa000000000000000000000000000000000000000000000000000000008152306004820152600284900b6024820152929350909173ffffffffffffffffffffffffffffffffffffffff9091169063ec92d7fa9060440160c060405180830381865afa158015610357573d6000803e3d6000fd5b505050506040513d601f19601f8201168201806040525081019061037b9190610d60565b805151909150600283810b91900b131561039757610397610e29565b602081015151600283810b91900b136103b2576103b2610e29565b6002546000906103ce9060049060039063ffffffff16866105d6565b602083015151909150600282810b91900b146103ec576103ec610e29565b815151600290810b600090815260016020819052604090912001547301000000000000000000000000000000000000009004810b9082900b1461043157610431610e29565b815151600282810b600090815260016020819052604090912001547001000000000000000000000000000000009004810b91900b146102bd576102bd610e29565b600061049d7ffffffffffffffffffffffffffffffffffffffffffffffffffffffffffff27618610e87565b60020b8260020b126104e15760016104d47ffffffffffffffffffffffffffffffffffffffffffffffffffffffffffff27618610e87565b6104de9190610ec5565b91505b7ffffffffffffffffffffffffffffffffffffffffffffffffffffffffffff27618600283900b1361053a576105377ffffffffffffffffffffffffffffffffffffffffffffffffffffffffffff276186001610f0c565b91505b5090565b8160008061057b8785600881901d600181810b60009081526020949094526040909320805460ff9093169390931b80831890935591811490151891565b9150915081156105cc57610d8a01600181810b60081d80820b6000908152602089905260409020805460ff9094169290921b8084189092558215919092148181189350146105cc576001811b831892505b5050949350505050565b600190810190600090600883811d610d8a01901c90829061ffff83161b851663ffffffff16156106395761060a8785610adb565b9094509092509050801561061f5750506106ad565b61063086610d8b840160010b610adb565b90945090925090505b8061067c576106578563ffffffff168360010193508360010b610b0c565b90935090508061066f5750620d89e891506106ad9050565b6106798684610c63565b92505b6106a8877ffffffffffffffffffffffffffffffffffffffffffffffffffffffffffffff2768501610c63565b925050505b949350505050565b600283900b7ffffffffffffffffffffffffffffffffffffffffffffffffffffffffffff276181480610714575061070b7ffffffffffffffffffffffffffffffffffffffffffffffffffffffffffff27618610e87565b60020b8360020b145b61085e578260020b8260020b12801561073257508260020b8160020b135b610768576040517fe45ac17d00000000000000000000000000000000000000000000000000000000815260040160405180910390fd5b600283810b600090815260208690526040808220600190810180547fffffffffffffffffffff000000000000ffffffffffffffffffffffffffffffff1673010000000000000000000000000000000000000062ffffff88811682027fffffffffffffffffffffffffff000000ffffffffffffffffffffffffffffffff908116939093177001000000000000000000000000000000008b831681029190911790945589880b8752858720850180547fffffffffffffffffffff000000ffffffffffffffffffffffffffffffffffffff16918c169283029190911790559587900b855292909320018054909116929091029190911790555b50505050565b600281810b60008181526020859052604081206001810180548383557fffffffffffffffffffff0000000000000000000000000000000000000000000081169091558185018390556003909101919091557001000000000000000000000000000000008104830b92730100000000000000000000000000000000000000909104900b907ffffffffffffffffffffffffffffffffffffffffffffffffffffffffffff27618148061094157506109387ffffffffffffffffffffffffffffffffffffffffffffffffffffffffffff27618610e87565b60020b8360020b145b156109e657600283900b6000908152602085905260409020600101805462ffffff808516700100000000000000000000000000000000027fffffffffffffffffffffffffff000000ffffffffffffffffffffffffffffffff91851673010000000000000000000000000000000000000002919091167fffffffffffffffffffff000000000000ffffffffffffffffffffffffffffffff90921691909117179055610ad4565b8060020b8260020b03610a25576040517f0d6e094900000000000000000000000000000000000000000000000000000000815260040160405180910390fd5b600282810b6000908152602086905260408082206001908101805462ffffff808816730100000000000000000000000000000000000000027fffffffffffffffffffff000000ffffffffffffffffffffffffffffffffffffff909216919091179091559385900b83529120018054918416700100000000000000000000000000000000027fffffffffffffffffffffffffff000000ffffffffffffffffffffffffffffffff9092169190911790555b9250929050565b600881901d600181900b6000908152602084905260408120548190610b009085610b0c565b93969095509293505050565b60008060ff831684811c808303610b28578460ff179350610c5a565b7f555555555555555555555555555555555555555555555555555555555555555560008290038216908116156fffffffffffffffffffffffffffffffff82161560071b1777ffffffffffffffff0000000000000000ffffffffffffffff82161560061b177bffffffff00000000ffffffff00000000ffffffff00000000ffffffff82161560051b177dffff0000ffff0000ffff0000ffff0000ffff0000ffff0000ffff0000ffff82161560041b177eff00ff00ff00ff00ff00ff00ff00ff00ff00ff00ff00ff00ff00ff00ff00ff82161560031b177f0f0f0f0f0f0f0f0f0f0f0f0f0f0f0f0f0f0f0f0f0f0f0f0f0f0f0f0f0f0f0f0f82161560021b177f33333333333333333333333333333333333333333333333333333333333333339091161560011b1760ff1685019350600192505b50509250929050565b600181900b600090815260208390526040902054600882901b90610c879082610b0c565b509392505050565b8060020b81146102cd57600080fd5b600060208284031215610cb057600080fd5b8135610cbb81610c8f565b9392505050565b600060208284031215610cd457600080fd5b81358060010b8114610cbb57600080fd5b7f4e487b7100000000000000000000000000000000000000000000000000000000600052604160045260246000fd5b6040805190810167ffffffffffffffff81118282101715610d3757610d37610ce5565b60405290565b6040516060810167ffffffffffffffff81118282101715610d3757610d37610ce5565b600060c08284031215610d7257600080fd5b82601f830112610d8157600080fd5b610d89610d14565b8060c0840185811115610d9b57600080fd5b845b81811015610e1e5760608188031215610db65760008081fd5b610dbe610d3d565b8151610dc981610c8f565b8152602082810151600f81900b8114610de25760008081fd5b828201526040838101516fffffffffffffffffffffffffffffffff81168114610e0b5760008081fd5b9083015290855290930192606001610d9d565b509095945050505050565b7f4e487b7100000000000000000000000000000000000000000000000000000000600052600160045260246000fd5b7f4e487b7100000000000000000000000000000000000000000000000000000000600052601160045260246000fd5b60008160020b7fffffffffffffffffffffffffffffffffffffffffffffffffffffffffff8000008103610ebc57610ebc610e58565b60000392915050565b600282810b9082900b037fffffffffffffffffffffffffffffffffffffffffffffffffffffffffff8000008112627fffff82131715610f0657610f06610e58565b92915050565b600281810b9083900b01627fffff81137fffffffffffffffffffffffffffffffffffffffffffffffffffffffffff80000082121715610f0657610f06610e5856fea164736f6c6343000814000a608060405234801561001057600080fd5b50610f15806100206000396000f3fe608060405234801561001057600080fd5b50600436106100415760003560e01c8063351fb47814610046578063c5493f771461006f578063ec92d7fa14610082575b600080fd5b610059610054366004610b41565b6100a2565b6040516100669190610b7e565b60405180910390f35b61005961007d366004610c04565b61029d565b610095610090366004610c5a565b6104a1565b6040516100669190610c86565b6040517fc677e3e0000000000000000000000000000000000000000000000000000000008152600182900b600482015260609060009073ffffffffffffffffffffffffffffffffffffffff85169063c677e3e090602401602060405180830381865afa158015610116573d6000803e3d6000fd5b505050506040513d601f19601f8201168201806040525081019061013a9190610cdf565b90506000805b610100811015610164576001811b83161561015c576001909101905b600101610140565b508067ffffffffffffffff81111561017e5761017e610cf8565b6040519080825280602002602001820160405280156101e757816020015b60408051606081018252600080825260208083018290529282015282527fffffffffffffffffffffffffffffffffffffffffffffffffffffffffffffffff90920191018161019c5790505b50925060005b610100811015610294576001811b83161561028c57600885901b60020b8101600080610219898461086d565b505091506fffffffffffffffffffffffffffffffff16915060405180606001604052808460020b815260200182600f0b8152602001836fffffffffffffffffffffffffffffffff168152508786600190039650868151811061027d5761027d610d27565b60200260200101819052505050505b6001016101ed565b50505092915050565b60608360008467ffffffffffffffff8111156102bb576102bb610cf8565b6040519080825280602002602001820160405280156102e4578160200160208202803683370190505b506040517ff30dba93000000000000000000000000000000000000000000000000000000008152600284900b600482015290935083915060009081908190819073ffffffffffffffffffffffffffffffffffffffff8c169063f30dba939060240160c060405180830381865afa158015610362573d6000803e3d6000fd5b505050506040513d601f19601f820116820180604052508101906103869190610d56565b505093509350935093508060020b8260020b03610403576040517f08c379a000000000000000000000000000000000000000000000000000000000815260206004820152601460248201527f496e76616c6964207374617274696e675469636b000000000000000000000000604482015260640160405180910390fd5b60405160005b8a81101561048e578782528460208301528560408301528160208a0160208302015260608201915060008a61043e5784610440565b835b90508860020b8160020b0361045b57600182018a525061048e565b8098506104688e8a61086d565b6fffffffffffffffffffffffffffffffff90931699509097509550935050600101610409565b5060405250949998505050505050505050565b6104a9610abb565b60008373ffffffffffffffffffffffffffffffffffffffff1663578b9a366040518163ffffffff1660e01b8152600401602060405180830381865afa1580156104f6573d6000803e3d6000fd5b505050506040513d601f19601f8201168201806040525081019061051a9190610dc5565b905060006008610532610d8a600287900b831d610e21565b60020b901d9050600080600161ffff84161b841663ffffffff16156106245760006105648860088960020b901d6108e4565b90506105708188610924565b90935091508161062257600061058f610d8a60028a900b60081d610e21565b61059a906001610e21565b905060006105af8a60088460010b901d610a7b565b90506000806105c1838560010b610924565b91509150801561060f57600060086105db610d8a85610e68565b60020b901b90506105f78d6105f2610d8a86610e68565b6108e4565b95506106038682610924565b909850965061061d9050565b8761061981610ea9565b9850505b505050505b505b806106d857600061063e8563ffffffff168560010b610924565b509050600061064d8983610a7b565b90506000806106638360088660020b901b610924565b9150915080156106a757600061067f8c6105f2610d8a86610e68565b905061069d816008610693610d8a87610e68565b60020b901b610924565b5096506106d39050565b6106d07ffffffffffffffffffffffffffffffffffffffffffffffffffffffffffff27618610eca565b95505b505050505b8560020b8260020b036107a95760008060006106f48a8a61086d565b93505092506fffffffffffffffffffffffffffffffff16925060405180606001604052808a60020b815260200183600f0b8152602001846fffffffffffffffffffffffffffffffff168152508860006002811061075357610753610d27565b60200201526107628a8261086d565b50506040805160608101825260029490940b8452600f9190910b6020808501919091526fffffffffffffffffffffffffffffffff9290921690830152880152506108639050565b60008060006107b88a8661086d565b50925092506fffffffffffffffffffffffffffffffff16925060405180606001604052808660020b815260200183600f0b8152602001846fffffffffffffffffffffffffffffffff168152508860016002811061081757610817610d27565b60200201526108268a8261086d565b50506040805160608101825260029490940b8452600f9190910b60208401526fffffffffffffffffffffffffffffffff9190911690820152875250505b5050505092915050565b60008060008060405160605160805160a0517ff30dba93000000000000000000000000000000000000000000000000000000006000528860045260c06000602460008d5afa5060005197506020519650604051955060605194508360405282606052816080528060a0525050505092959194509250565b60007fc677e3e000000000000000000000000000000000000000000000000000000000600052816004526020600060246000865afa505060005192915050565b60008060ff831684811c808303610940578460ff179350610a72565b7f555555555555555555555555555555555555555555555555555555555555555560008290038216908116156fffffffffffffffffffffffffffffffff82161560071b1777ffffffffffffffff0000000000000000ffffffffffffffff82161560061b177bffffffff00000000ffffffff00000000ffffffff00000000ffffffff82161560051b177dffff0000ffff0000ffff0000ffff0000ffff0000ffff0000ffff0000ffff82161560041b177eff00ff00ff00ff00ff00ff00ff00ff00ff00ff00ff00ff00ff00ff00ff00ff82161560031b177f0f0f0f0f0f0f0f0f0f0f0f0f0f0f0f0f0f0f0f0f0f0f0f0f0f0f0f0f0f0f0f0f82161560021b177f33333333333333333333333333333333333333333333333333333333333333339091161560011b1760ff1685019350600192505b50509250929050565b60007fd861903700000000000000000000000000000000000000000000000000000000600052816004526020600060246000865afa505060005192915050565b60405180604001604052806002905b60408051606081018252600080825260208083018290529282015282527fffffffffffffffffffffffffffffffffffffffffffffffffffffffffffffffff909201910181610aca5790505090565b803573ffffffffffffffffffffffffffffffffffffffff81168114610b3c57600080fd5b919050565b60008060408385031215610b5457600080fd5b610b5d83610b18565b915060208301358060010b8114610b7357600080fd5b809150509250929050565b6020808252825182820181905260009190848201906040850190845b81811015610be6578351805160020b8452602080820151600f0b908501526040908101516fffffffffffffffffffffffffffffffff169084015260608301938501939250600101610b9a565b50909695505050505050565b8060020b8114610c0157600080fd5b50565b60008060008060808587031215610c1a57600080fd5b610c2385610b18565b93506020850135610c3381610bf2565b92506040850135915060608501358015158114610c4f57600080fd5b939692955090935050565b60008060408385031215610c6d57600080fd5b610c7683610b18565b91506020830135610b7381610bf2565b60c08101818360005b6002811015610294578151805160020b8452602080820151600f0b908501526040908101516fffffffffffffffffffffffffffffffff169084015260608301925060209190910190600101610c8f565b600060208284031215610cf157600080fd5b5051919050565b7f4e487b7100000000000000000000000000000000000000000000000000000000600052604160045260246000fd5b7f4e487b7100000000000000000000000000000000000000000000000000000000600052603260045260246000fd5b60008060008060008060c08789031215610d6f57600080fd5b86519550602087015180600f0b8114610d8757600080fd5b6040880151909550610d9881610bf2565b6060880151909450610da981610bf2565b809350506080870151915060a087015190509295509295509295565b600060208284031215610dd757600080fd5b815163ffffffff81168114610deb57600080fd5b9392505050565b7f4e487b7100000000000000000000000000000000000000000000000000000000600052601160045260246000fd5b600281810b9083900b01627fffff81137fffffffffffffffffffffffffffffffffffffffffffffffffffffffffff80000082121715610e6257610e62610df2565b92915050565b600282810b9082900b037fffffffffffffffffffffffffffffffffffffffffffffffffffffffffff8000008112627fffff82131715610e6257610e62610df2565b600061ffff808316818103610ec057610ec0610df2565b6001019392505050565b60008160020b7fffffffffffffffffffffffffffffffffffffffffffffffffffffffffff8000008103610eff57610eff610df2565b6000039291505056fea164736f6c6343000814000a",
  "linkReferences": {},
  "deployedLinkReferences": {}
}