{
  "_format": "hh-sol-artifact-1",
  "contractName": "SelfPermitTest",
  "sourceName": "contracts/test/SelfPermitTest.sol",
  "abi": [
    {
      "inputs": [
        {
          "internalType": "address",
          "name": "token",
          "type": "address"
        },
        {
          "internalType": "uint256",
          "name": "value",
          "type": "uint256"
        },
        {
          "internalType": "uint256",
          "name": "deadline",
          "type": "uint256"
        },
        {
          "internalType": "uint8",
          "name": "v",
          "type": "uint8"
        },
        {
          "internalType": "bytes32",
          "name": "r",
          "type": "bytes32"
        },
        {
          "internalType": "bytes32",
          "name": "s",
          "type": "bytes32"
        }
      ],
      "name": "selfPermit",
      "outputs": [],
      "stateMutability": "payable",
      "type": "function"
    },
    {
      "inputs": [
        {
          "internalType": "address",
          "name": "token",
          "type": "address"
        },
        {
          "internalType": "uint256",
          "name": "nonce",
          "type": "uint256"
        },
        {
          "internalType": "uint256",
          "name": "expiry",
          "type": "uint256"
        },
        {
          "internalType": "uint8",
          "name": "v",
          "type": "uint8"
        },
        {
          "internalType": "bytes32",
          "name": "r",
          "type": "bytes32"
        },
        {
          "internalType": "bytes32",
          "name": "s",
          "type": "bytes32"
        }
      ],
      "name": "selfPermitAllowed",
      "outputs": [],
      "stateMutability": "payable",
      "type": "function"
    },
    {
      "inputs": [
        {
          "internalType": "address",
          "name": "token",
          "type": "address"
        },
        {
          "internalType": "uint256",
          "name": "nonce",
          "type": "uint256"
        },
        {
          "internalType": "uint256",
          "name": "expiry",
          "type": "uint256"
        },
        {
          "internalType": "uint8",
          "name": "v",
          "type": "uint8"
        },
        {
          "internalType": "bytes32",
          "name": "r",
          "type": "bytes32"
        },
        {
          "internalType": "bytes32",
          "name": "s",
          "type": "bytes32"
        }
      ],
      "name": "selfPermitAllowedIfNecessary",
      "outputs": [],
      "stateMutability": "payable",
      "type": "function"
    },
    {
      "inputs": [
        {
          "internalType": "address",
          "name": "token",
          "type": "address"
        },
        {
          "internalType": "uint256",
          "name": "value",
          "type": "uint256"
        },
        {
          "internalType": "uint256",
          "name": "deadline",
          "type": "uint256"
        },
        {
          "internalType": "uint8",
          "name": "v",
          "type": "uint8"
        },
        {
          "internalType": "bytes32",
          "name": "r",
          "type": "bytes32"
        },
        {
          "internalType": "bytes32",
          "name": "s",
          "type": "bytes32"
        }
      ],
      "name": "selfPermitIfNecessary",
      "outputs": [],
      "stateMutability": "payable",
      "type": "function"
    }
  ],
  "bytecode": "0x608060405234801561001057600080fd5b50610368806100206000396000f3fe60806040526004361061003f5760003560e01c80634659a49414610044578063a4a78f0c14610059578063c2e3140a1461006c578063f3995c671461007f575b600080fd5b6100576100523660046102c7565b610092565b005b6100576100673660046102c7565b61014d565b61005761007a3660046102c7565b610193565b61005761008d3660046102c7565b6101ad565b6040517f8fcbaf0c00000000000000000000000000000000000000000000000000000000815233600482015230602482015260448101869052606481018590526001608482015260ff841660a482015260c4810183905260e4810182905273ffffffffffffffffffffffffffffffffffffffff871690638fcbaf0c90610104015b600060405180830381600087803b15801561012d57600080fd5b505af1158015610141573d6000803e3d6000fd5b50505050505050505050565b7fffffffffffffffffffffffffffffffffffffffffffffffffffffffffffffffff6101778761022a565b101561018b5761018b868686868686610092565b505050505050565b8461019d8761022a565b101561018b5761018b8686868686865b6040517fd505accf000000000000000000000000000000000000000000000000000000008152336004820152306024820152604481018690526064810185905260ff8416608482015260a4810183905260c4810182905273ffffffffffffffffffffffffffffffffffffffff87169063d505accf9060e401610113565b6040517fdd62ed3e00000000000000000000000000000000000000000000000000000000815233600482015230602482015260009073ffffffffffffffffffffffffffffffffffffffff83169063dd62ed3e90604401602060405180830381865afa15801561029d573d6000803e3d6000fd5b505050506040513d601f19601f820116820180604052508101906102c19190610342565b92915050565b60008060008060008060c087890312156102e057600080fd5b863573ffffffffffffffffffffffffffffffffffffffff8116811461030457600080fd5b95506020870135945060408701359350606087013560ff8116811461032857600080fd5b9598949750929560808101359460a0909101359350915050565b60006020828403121561035457600080fd5b505191905056fea164736f6c6343000814000a",
  "linkReferences": {},
  "deployedLinkReferences": {}
}