{
  "_format": "hh-sol-artifact-1",
  "contractName": "MockTimeSwapRouter",
  "sourceName": "contracts/test/MockTimeSwapRouter.sol",
  "abi": [
    {
      "inputs": [
        {
          "internalType": "address",
          "name": "_factory",
          "type": "address"
        },
        {
          "internalType": "address",
          "name": "_WNativeToken",
          "type": "address"
        },
        {
          "internalType": "address",
          "name": "_poolDeployer",
          "type": "address"
        }
      ],
      "stateMutability": "nonpayable",
      "type": "constructor"
    },
    {
      "inputs": [],
      "name": "WNativeToken",
      "outputs": [
        {
          "internalType": "address",
          "name": "",
          "type": "address"
        }
      ],
      "stateMutability": "view",
      "type": "function"
    },
    {
      "inputs": [
        {
          "internalType": "int256",
          "name": "amount0Delta",
          "type": "int256"
        },
        {
          "internalType": "int256",
          "name": "amount1Delta",
          "type": "int256"
        },
        {
          "internalType": "bytes",
          "name": "_data",
          "type": "bytes"
        }
      ],
      "name": "algebraSwapCallback",
      "outputs": [],
      "stateMutability": "nonpayable",
      "type": "function"
    },
    {
      "inputs": [
        {
          "components": [
            {
              "internalType": "bytes",
              "name": "path",
              "type": "bytes"
            },
            {
              "internalType": "address",
              "name": "recipient",
              "type": "address"
            },
            {
              "internalType": "uint256",
              "name": "deadline",
              "type": "uint256"
            },
            {
              "internalType": "uint256",
              "name": "amountIn",
              "type": "uint256"
            },
            {
              "internalType": "uint256",
              "name": "amountOutMinimum",
              "type": "uint256"
            }
          ],
          "internalType": "struct ISwapRouter.ExactInputParams",
          "name": "params",
          "type": "tuple"
        }
      ],
      "name": "exactInput",
      "outputs": [
        {
          "internalType": "uint256",
          "name": "amountOut",
          "type": "uint256"
        }
      ],
      "stateMutability": "payable",
      "type": "function"
    },
    {
      "inputs": [
        {
          "components": [
            {
              "internalType": "address",
              "name": "tokenIn",
              "type": "address"
            },
            {
              "internalType": "address",
              "name": "tokenOut",
              "type": "address"
            },
            {
              "internalType": "address",
              "name": "deployer",
              "type": "address"
            },
            {
              "internalType": "address",
              "name": "recipient",
              "type": "address"
            },
            {
              "internalType": "uint256",
              "name": "deadline",
              "type": "uint256"
            },
            {
              "internalType": "uint256",
              "name": "amountIn",
              "type": "uint256"
            },
            {
              "internalType": "uint256",
              "name": "amountOutMinimum",
              "type": "uint256"
            },
            {
              "internalType": "uint160",
              "name": "limitSqrtPrice",
              "type": "uint160"
            }
          ],
          "internalType": "struct ISwapRouter.ExactInputSingleParams",
          "name": "params",
          "type": "tuple"
        }
      ],
      "name": "exactInputSingle",
      "outputs": [
        {
          "internalType": "uint256",
          "name": "amountOut",
          "type": "uint256"
        }
      ],
      "stateMutability": "payable",
      "type": "function"
    },
    {
      "inputs": [
        {
          "components": [
            {
              "internalType": "address",
              "name": "tokenIn",
              "type": "address"
            },
            {
              "internalType": "address",
              "name": "tokenOut",
              "type": "address"
            },
            {
              "internalType": "address",
              "name": "deployer",
              "type": "address"
            },
            {
              "internalType": "address",
              "name": "recipient",
              "type": "address"
            },
            {
              "internalType": "uint256",
              "name": "deadline",
              "type": "uint256"
            },
            {
              "internalType": "uint256",
              "name": "amountIn",
              "type": "uint256"
            },
            {
              "internalType": "uint256",
              "name": "amountOutMinimum",
              "type": "uint256"
            },
            {
              "internalType": "uint160",
              "name": "limitSqrtPrice",
              "type": "uint160"
            }
          ],
          "internalType": "struct ISwapRouter.ExactInputSingleParams",
          "name": "params",
          "type": "tuple"
        }
      ],
      "name": "exactInputSingleSupportingFeeOnTransferTokens",
      "outputs": [
        {
          "internalType": "uint256",
          "name": "amountOut",
          "type": "uint256"
        }
      ],
      "stateMutability": "payable",
      "type": "function"
    },
    {
      "inputs": [
        {
          "components": [
            {
              "internalType": "bytes",
              "name": "path",
              "type": "bytes"
            },
            {
              "internalType": "address",
              "name": "recipient",
              "type": "address"
            },
            {
              "internalType": "uint256",
              "name": "deadline",
              "type": "uint256"
            },
            {
              "internalType": "uint256",
              "name": "amountOut",
              "type": "uint256"
            },
            {
              "internalType": "uint256",
              "name": "amountInMaximum",
              "type": "uint256"
            }
          ],
          "internalType": "struct ISwapRouter.ExactOutputParams",
          "name": "params",
          "type": "tuple"
        }
      ],
      "name": "exactOutput",
      "outputs": [
        {
          "internalType": "uint256",
          "name": "amountIn",
          "type": "uint256"
        }
      ],
      "stateMutability": "payable",
      "type": "function"
    },
    {
      "inputs": [
        {
          "components": [
            {
              "internalType": "address",
              "name": "tokenIn",
              "type": "address"
            },
            {
              "internalType": "address",
              "name": "tokenOut",
              "type": "address"
            },
            {
              "internalType": "address",
              "name": "deployer",
              "type": "address"
            },
            {
              "internalType": "address",
              "name": "recipient",
              "type": "address"
            },
            {
              "internalType": "uint256",
              "name": "deadline",
              "type": "uint256"
            },
            {
              "internalType": "uint256",
              "name": "amountOut",
              "type": "uint256"
            },
            {
              "internalType": "uint256",
              "name": "amountInMaximum",
              "type": "uint256"
            },
            {
              "internalType": "uint160",
              "name": "limitSqrtPrice",
              "type": "uint160"
            }
          ],
          "internalType": "struct ISwapRouter.ExactOutputSingleParams",
          "name": "params",
          "type": "tuple"
        }
      ],
      "name": "exactOutputSingle",
      "outputs": [
        {
          "internalType": "uint256",
          "name": "amountIn",
          "type": "uint256"
        }
      ],
      "stateMutability": "payable",
      "type": "function"
    },
    {
      "inputs": [],
      "name": "factory",
      "outputs": [
        {
          "internalType": "address",
          "name": "",
          "type": "address"
        }
      ],
      "stateMutability": "view",
      "type": "function"
    },
    {
      "inputs": [
        {
          "internalType": "bytes[]",
          "name": "data",
          "type": "bytes[]"
        }
      ],
      "name": "multicall",
      "outputs": [
        {
          "internalType": "bytes[]",
          "name": "results",
          "type": "bytes[]"
        }
      ],
      "stateMutability": "payable",
      "type": "function"
    },
    {
      "inputs": [],
      "name": "poolDeployer",
      "outputs": [
        {
          "internalType": "address",
          "name": "",
          "type": "address"
        }
      ],
      "stateMutability": "view",
      "type": "function"
    },
    {
      "inputs": [],
      "name": "refundNativeToken",
      "outputs": [],
      "stateMutability": "payable",
      "type": "function"
    },
    {
      "inputs": [
        {
          "internalType": "address",
          "name": "token",
          "type": "address"
        },
        {
          "internalType": "uint256",
          "name": "value",
          "type": "uint256"
        },
        {
          "internalType": "uint256",
          "name": "deadline",
          "type": "uint256"
        },
        {
          "internalType": "uint8",
          "name": "v",
          "type": "uint8"
        },
        {
          "internalType": "bytes32",
          "name": "r",
          "type": "bytes32"
        },
        {
          "internalType": "bytes32",
          "name": "s",
          "type": "bytes32"
        }
      ],
      "name": "selfPermit",
      "outputs": [],
      "stateMutability": "payable",
      "type": "function"
    },
    {
      "inputs": [
        {
          "internalType": "address",
          "name": "token",
          "type": "address"
        },
        {
          "internalType": "uint256",
          "name": "nonce",
          "type": "uint256"
        },
        {
          "internalType": "uint256",
          "name": "expiry",
          "type": "uint256"
        },
        {
          "internalType": "uint8",
          "name": "v",
          "type": "uint8"
        },
        {
          "internalType": "bytes32",
          "name": "r",
          "type": "bytes32"
        },
        {
          "internalType": "bytes32",
          "name": "s",
          "type": "bytes32"
        }
      ],
      "name": "selfPermitAllowed",
      "outputs": [],
      "stateMutability": "payable",
      "type": "function"
    },
    {
      "inputs": [
        {
          "internalType": "address",
          "name": "token",
          "type": "address"
        },
        {
          "internalType": "uint256",
          "name": "nonce",
          "type": "uint256"
        },
        {
          "internalType": "uint256",
          "name": "expiry",
          "type": "uint256"
        },
        {
          "internalType": "uint8",
          "name": "v",
          "type": "uint8"
        },
        {
          "internalType": "bytes32",
          "name": "r",
          "type": "bytes32"
        },
        {
          "internalType": "bytes32",
          "name": "s",
          "type": "bytes32"
        }
      ],
      "name": "selfPermitAllowedIfNecessary",
      "outputs": [],
      "stateMutability": "payable",
      "type": "function"
    },
    {
      "inputs": [
        {
          "internalType": "address",
          "name": "token",
          "type": "address"
        },
        {
          "internalType": "uint256",
          "name": "value",
          "type": "uint256"
        },
        {
          "internalType": "uint256",
          "name": "deadline",
          "type": "uint256"
        },
        {
          "internalType": "uint8",
          "name": "v",
          "type": "uint8"
        },
        {
          "internalType": "bytes32",
          "name": "r",
          "type": "bytes32"
        },
        {
          "internalType": "bytes32",
          "name": "s",
          "type": "bytes32"
        }
      ],
      "name": "selfPermitIfNecessary",
      "outputs": [],
      "stateMutability": "payable",
      "type": "function"
    },
    {
      "inputs": [
        {
          "internalType": "uint256",
          "name": "_time",
          "type": "uint256"
        }
      ],
      "name": "setTime",
      "outputs": [],
      "stateMutability": "nonpayable",
      "type": "function"
    },
    {
      "inputs": [
        {
          "internalType": "address",
          "name": "token",
          "type": "address"
        },
        {
          "internalType": "uint256",
          "name": "amountMinimum",
          "type": "uint256"
        },
        {
          "internalType": "address",
          "name": "recipient",
          "type": "address"
        }
      ],
      "name": "sweepToken",
      "outputs": [],
      "stateMutability": "payable",
      "type": "function"
    },
    {
      "inputs": [
        {
          "internalType": "address",
          "name": "token",
          "type": "address"
        },
        {
          "internalType": "uint256",
          "name": "amountMinimum",
          "type": "uint256"
        },
        {
          "internalType": "address",
          "name": "recipient",
          "type": "address"
        },
        {
          "internalType": "uint256",
          "name": "feeBips",
          "type": "uint256"
        },
        {
          "internalType": "address",
          "name": "feeRecipient",
          "type": "address"
        }
      ],
      "name": "sweepTokenWithFee",
      "outputs": [],
      "stateMutability": "payable",
      "type": "function"
    },
    {
      "inputs": [
        {
          "internalType": "uint256",
          "name": "amountMinimum",
          "type": "uint256"
        },
        {
          "internalType": "address",
          "name": "recipient",
          "type": "address"
        }
      ],
      "name": "unwrapWNativeToken",
      "outputs": [],
      "stateMutability": "payable",
      "type": "function"
    },
    {
      "inputs": [
        {
          "internalType": "uint256",
          "name": "amountMinimum",
          "type": "uint256"
        },
        {
          "internalType": "address",
          "name": "recipient",
          "type": "address"
        },
        {
          "internalType": "uint256",
          "name": "feeBips",
          "type": "uint256"
        },
        {
          "internalType": "address",
          "name": "feeRecipient",
          "type": "address"
        }
      ],
      "name": "unwrapWNativeTokenWithFee",
      "outputs": [],
      "stateMutability": "payable",
      "type": "function"
    },
    {
      "stateMutability": "payable",
      "type": "receive"
    }
  ],
  "bytecode": "0x60e06040526000196000553480156200001757600080fd5b50604051620032a1380380620032a18339810160408190526200003a9162000074565b6001600160a01b03928316608052821660a0521660c052620000be565b80516001600160a01b03811681146200006f57600080fd5b919050565b6000806000606084860312156200008a57600080fd5b620000958462000057565b9250620000a56020850162000057565b9150620000b56040850162000057565b90509250925092565b60805160a05160c05161316d620001346000396000818161018001528181610338015281816109a301528181610a680152818161112d0152818161124e01528181611afd01528181611b5d0152611c2501526000818161027e015281816107cd0152611ebf015260006103c5015261316d6000f3fe6080604052600436106101635760003560e01c8063a4a78f0c116100c0578063c60696ec11610074578063e0e189a011610059578063e0e189a01461040d578063f28c049814610420578063f3995c671461043357600080fd5b8063c60696ec146103e7578063df2ab5bb146103fa57600080fd5b8063c04b8d59116100a5578063c04b8d591461038d578063c2e3140a146103a0578063c45a0155146103b357600080fd5b8063a4a78f0c1461035a578063ac9650d81461036d57600080fd5b8063418652701161011757806369bc35b2116100fc57806369bc35b2146103005780636eb38adc146103135780638af3ac851461032657600080fd5b806341865270146102e55780634659a494146102ed57600080fd5b80632c8958f6116101485780632c8958f61461024c5780633119049a1461026c5780633beb26c4146102c557600080fd5b80631679c792146102135780631764babc1461023957600080fd5b3661020e573373ffffffffffffffffffffffffffffffffffffffff7f0000000000000000000000000000000000000000000000000000000000000000161461020c576040517f08c379a000000000000000000000000000000000000000000000000000000000815260206004820152601060248201527f4e6f7420574e6174697665546f6b656e0000000000000000000000000000000060448201526064015b60405180910390fd5b005b600080fd5b6102266102213660046127b4565b610446565b6040519081526020015b60405180910390f35b6102266102473660046127b4565b6105a5565b34801561025857600080fd5b5061020c6102673660046127d8565b61072b565b34801561027857600080fd5b506102a07f000000000000000000000000000000000000000000000000000000000000000081565b60405173ffffffffffffffffffffffffffffffffffffffff9091168152602001610230565b3480156102d157600080fd5b5061020c6102e0366004612858565b600155565b61020c6108db565b61020c6102fb366004612893565b6108ed565b61020c61030e3660046128f5565b61099c565b6102266103213660046127b4565b610ae8565b34801561033257600080fd5b506102a07f000000000000000000000000000000000000000000000000000000000000000081565b61020c610368366004612893565b610e3b565b61038061037b366004612925565b610e81565b6040516102309190612a08565b61022661039b366004612b8b565b610fa2565b61020c6103ae366004612893565b6110c4565b3480156103bf57600080fd5b506102a07f000000000000000000000000000000000000000000000000000000000000000081565b61020c6103f5366004612c2f565b6110e2565b61020c610408366004612c79565b611306565b61020c61041b366004612cbb565b611394565b61022661042e366004612d1a565b6114fa565b61020c610441366004612893565b6115f1565b600081608001356104568161166e565b61052f60a084013561046e6080860160608701612d55565b61047f610100870160e08801612d55565b604080518082019091528061049760208a018a612d55565b6104a760608b0160408c01612d55565b6104b760408c0160208d01612d55565b6040517fffffffffffffffffffffffffffffffffffffffff000000000000000000000000606094851b8116602083015292841b83166034820152921b166048820152605c0160405160208183030381529060405281526020013373ffffffffffffffffffffffffffffffffffffffff168152506116e3565b91508260c0013582101561059f576040517f08c379a000000000000000000000000000000000000000000000000000000000815260206004820152601360248201527f546f6f206c6974746c65207265636569766564000000000000000000000000006044820152606401610203565b50919050565b600081608001356105b58161166e565b61069160a08401356105cd6080860160608701612d55565b6105de610100870160e08801612d55565b60405180604001604052808860200160208101906105fc9190612d55565b61060c60608b0160408c01612d55565b61061960208c018c612d55565b6040517fffffffffffffffffffffffffffffffffffffffff000000000000000000000000606094851b8116602083015292841b83166034820152921b166048820152605c0160405160208183030381529060405281526020013373ffffffffffffffffffffffffffffffffffffffff16815250611873565b91508260c00135821115610701576040517f08c379a000000000000000000000000000000000000000000000000000000000815260206004820152601260248201527f546f6f206d7563682072657175657374656400000000000000000000000000006044820152606401610203565b507fffffffffffffffffffffffffffffffffffffffffffffffffffffffffffffffff600055919050565b600084138061073a5750600083135b6107a0576040517f08c379a000000000000000000000000000000000000000000000000000000000815260206004820152601360248201527f5a65726f206c69717569646974792073776170000000000000000000000000006044820152606401610203565b60006107ae82840184612d72565b905060008060006107c28460000151611aa2565b9250925092506107f47f0000000000000000000000000000000000000000000000000000000000000000838584611adc565b5060008060008a13610835578473ffffffffffffffffffffffffffffffffffffffff168373ffffffffffffffffffffffffffffffffffffffff161089610866565b8273ffffffffffffffffffffffffffffffffffffffff168573ffffffffffffffffffffffffffffffffffffffff16108a5b915091508115610885576108808587602001513384611afb565b6108cf565b855161089090611cd5565b156108b55785516108a090611d0d565b86526108af8133600089611873565b506108cf565b806000819055508294506108cf8587602001513384611afb565b50505050505050505050565b47156108eb576108eb3347611d42565b565b6040517f8fcbaf0c00000000000000000000000000000000000000000000000000000000815233600482015230602482015260448101869052606481018590526001608482015260ff841660a482015260c4810183905260e4810182905273ffffffffffffffffffffffffffffffffffffffff871690638fcbaf0c90610104015b600060405180830381600087803b15801561098857600080fd5b505af11580156108cf573d6000803e3d6000fd5b60006109c77f0000000000000000000000000000000000000000000000000000000000000000611e26565b905082811015610a33576040517f08c379a000000000000000000000000000000000000000000000000000000000815260206004820152601960248201527f496e73756666696369656e7420574e6174697665546f6b656e000000000000006044820152606401610203565b8015610ae3576040517f2e1a7d4d000000000000000000000000000000000000000000000000000000008152600481018290527f000000000000000000000000000000000000000000000000000000000000000073ffffffffffffffffffffffffffffffffffffffff1690632e1a7d4d90602401600060405180830381600087803b158015610ac157600080fd5b505af1158015610ad5573d6000803e3d6000fd5b50505050610ae38282611d42565b505050565b60008160800135610af88161166e565b6040805180820190915260009080610b136020870187612d55565b610b236060880160408901612d55565b610b336040890160208a01612d55565b6040517fffffffffffffffffffffffffffffffffffffffff000000000000000000000000606094851b8116602083015292841b83166034820152921b166048820152605c01604080518083037fffffffffffffffffffffffffffffffffffffffffffffffffffffffffffffffe00181529190528152336020909101529050600080610bc46080870160608801612d55565b73ffffffffffffffffffffffffffffffffffffffff1614610bf457610bef6080860160608701612d55565b610bf6565b305b90506000610c0a6040870160208801612d55565b73ffffffffffffffffffffffffffffffffffffffff16610c2d6020880188612d55565b73ffffffffffffffffffffffffffffffffffffffff16109050600080610c7e610c5c60608a0160408b01612d55565b610c6960208b018b612d55565b610c7960408c0160208d01612d55565b611eb8565b73ffffffffffffffffffffffffffffffffffffffff16639e4e0227338686610ca98d60a00135611ef6565b8d60e0016020810190610cbc9190612d55565b73ffffffffffffffffffffffffffffffffffffffff1615610cef578d60e0016020810190610cea9190612d55565b610d23565b88610d1357610cea600173fffd8963efd1fc6a506488495d951d5263988d26612e3b565b610d236401000276a36001612e68565b8b604051602001610d349190612e95565b6040516020818303038152906040526040518763ffffffff1660e01b8152600401610d6496959493929190612edd565b60408051808303816000875af1158015610d82573d6000803e3d6000fd5b505050506040513d601f19601f82011682018060405250810190610da69190612f38565b9150915082610db55781610db7565b805b610dc090612f5c565b96508760c00135871015610e30576040517f08c379a000000000000000000000000000000000000000000000000000000000815260206004820152601360248201527f546f6f206c6974746c65207265636569766564000000000000000000000000006044820152606401610203565b505050505050919050565b7fffffffffffffffffffffffffffffffffffffffffffffffffffffffffffffffff610e6587611f0a565b1015610e7957610e798686868686866108ed565b505050505050565b60608167ffffffffffffffff811115610e9c57610e9c612a88565b604051908082528060200260200182016040528015610ecf57816020015b6060815260200190600190039081610eba5790505b50905060005b82811015610f9b5760008030868685818110610ef357610ef3612f94565b9050602002810190610f059190612fc3565b604051610f1392919061302f565b600060405180830381855af49150503d8060008114610f4e576040519150601f19603f3d011682016040523d82523d6000602084013e610f53565b606091505b509150915081610f73576000815111610f6b57600080fd5b805181602001fd5b80848481518110610f8657610f86612f94565b60209081029190910101525050600101610ed5565b5092915050565b60008160400151610fb28161166e565b335b6000610fc38560000151611cd5565b905061101c856060015182610fdc578660200151610fde565b305b60006040518060400160405280610ff88b60000151611f65565b81526020018773ffffffffffffffffffffffffffffffffffffffff168152506116e3565b6060860152801561103c57845130925061103590611d0d565b8552611049565b846060015193505061104f565b50610fb4565b83608001518310156110bd576040517f08c379a000000000000000000000000000000000000000000000000000000000815260206004820152601360248201527f546f6f206c6974746c65207265636569766564000000000000000000000000006044820152606401610203565b5050919050565b846110ce87611f0a565b1015610e7957610e798686868686866115f1565b6000821180156110f3575060648211155b6110fc57600080fd5b6040517f70a082310000000000000000000000000000000000000000000000000000000081523060048201526000907f000000000000000000000000000000000000000000000000000000000000000073ffffffffffffffffffffffffffffffffffffffff16906370a0823190602401602060405180830381865afa158015611189573d6000803e3d6000fd5b505050506040513d601f19601f820116820180604052508101906111ad919061303f565b905084811015611219576040517f08c379a000000000000000000000000000000000000000000000000000000000815260206004820152601960248201527f496e73756666696369656e7420574e6174697665546f6b656e000000000000006044820152606401610203565b80156112ff576040517f2e1a7d4d000000000000000000000000000000000000000000000000000000008152600481018290527f000000000000000000000000000000000000000000000000000000000000000073ffffffffffffffffffffffffffffffffffffffff1690632e1a7d4d90602401600060405180830381600087803b1580156112a757600080fd5b505af11580156112bb573d6000803e3d6000fd5b50505050600061271084836112d09190613058565b6112da919061306f565b905080156112ec576112ec8382611d42565b610e79856112fa83856130aa565b611d42565b5050505050565b600061131184611e26565b90508281101561137d576040517f08c379a000000000000000000000000000000000000000000000000000000000815260206004820152601260248201527f496e73756666696369656e7420746f6b656e00000000000000000000000000006044820152606401610203565b801561138e5761138e848383611f82565b50505050565b6000821180156113a5575060648211155b6113ae57600080fd5b6040517f70a0823100000000000000000000000000000000000000000000000000000000815230600482015260009073ffffffffffffffffffffffffffffffffffffffff8716906370a0823190602401602060405180830381865afa15801561141b573d6000803e3d6000fd5b505050506040513d601f19601f8201168201806040525081019061143f919061303f565b9050848110156114ab576040517f08c379a000000000000000000000000000000000000000000000000000000000815260206004820152601260248201527f496e73756666696369656e7420746f6b656e00000000000000000000000000006044820152606401610203565b8015610e795760006127106114c08584613058565b6114ca919061306f565b905080156114dd576114dd878483611f82565b6114f187866114ec84866130aa565b611f82565b50505050505050565b6000816040013561150a8161166e565b61157d60608401356115226040860160208701612d55565b604080518082019091526000908061153a8980612fc3565b8080601f01602080910402602001604051908101604052809392919081815260200183838082843760009201919091525050509082525033602090910152611873565b5060005491508260800135821115610701576040517f08c379a000000000000000000000000000000000000000000000000000000000815260206004820152601260248201527f546f6f206d7563682072657175657374656400000000000000000000000000006044820152606401610203565b6040517fd505accf000000000000000000000000000000000000000000000000000000008152336004820152306024820152604481018690526064810185905260ff8416608482015260a4810183905260c4810182905273ffffffffffffffffffffffffffffffffffffffff87169063d505accf9060e40161096e565b8061167860015490565b11156116e0576040517f08c379a000000000000000000000000000000000000000000000000000000000815260206004820152601360248201527f5472616e73616374696f6e20746f6f206f6c64000000000000000000000000006044820152606401610203565b50565b600073ffffffffffffffffffffffffffffffffffffffff8416611704573093505b60008060006117168560000151611aa2565b9194509250905073ffffffffffffffffffffffffffffffffffffffff80821690841610600080611747858786611eb8565b73ffffffffffffffffffffffffffffffffffffffff1663128acb088b8561176d8f611ef6565b73ffffffffffffffffffffffffffffffffffffffff8e161561178f578d6117c8565b876117b8576117b3600173fffd8963efd1fc6a506488495d951d5263988d26612e3b565b6117c8565b6117c86401000276a36001612e68565b8d6040516020016117d99190612e95565b6040516020818303038152906040526040518663ffffffff1660e01b81526004016118089594939291906130bd565b60408051808303816000875af1158015611826573d6000803e3d6000fd5b505050506040513d601f19601f8201168201806040525081019061184a9190612f38565b9150915082611859578161185b565b805b61186490612f5c565b9b9a5050505050505050505050565b600073ffffffffffffffffffffffffffffffffffffffff8416611894573093505b60008060006118a68560000151611aa2565b9194509250905073ffffffffffffffffffffffffffffffffffffffff808416908216106000806118d7858588611eb8565b73ffffffffffffffffffffffffffffffffffffffff1663128acb088b856118fd8f611ef6565b61190690612f5c565b73ffffffffffffffffffffffffffffffffffffffff8e1615611928578d611961565b876119515761194c600173fffd8963efd1fc6a506488495d951d5263988d26612e3b565b611961565b6119616401000276a36001612e68565b8d6040516020016119729190612e95565b6040516020818303038152906040526040518663ffffffff1660e01b81526004016119a19594939291906130bd565b60408051808303816000875af11580156119bf573d6000803e3d6000fd5b505050506040513d601f19601f820116820180604052508101906119e39190612f38565b915091506000836119fd57816119f884612f5c565b611a07565b82611a0783612f5c565b909850905073ffffffffffffffffffffffffffffffffffffffff8a16600003611a93578b8114611a93576040517f08c379a000000000000000000000000000000000000000000000000000000000815260206004820152601b60248201527f4e6f742072656365697665642066756c6c20616d6f756e744f757400000000006044820152606401610203565b50505050505050949350505050565b60008080611ab084826120eb565b9250611abd8460146120eb565b9150611ad4611acd60148061310f565b85906120eb565b929491935050565b6000611af285611aed868686612174565b612202565b95945050505050565b7f000000000000000000000000000000000000000000000000000000000000000073ffffffffffffffffffffffffffffffffffffffff168473ffffffffffffffffffffffffffffffffffffffff16148015611b565750804710155b15611c9c577f000000000000000000000000000000000000000000000000000000000000000073ffffffffffffffffffffffffffffffffffffffff1663d0e30db0826040518263ffffffff1660e01b81526004016000604051808303818588803b158015611bc357600080fd5b505af1158015611bd7573d6000803e3d6000fd5b50506040517fa9059cbb00000000000000000000000000000000000000000000000000000000815273ffffffffffffffffffffffffffffffffffffffff8681166004830152602482018690527f000000000000000000000000000000000000000000000000000000000000000016935063a9059cbb925060440190506020604051808303816000875af1158015611c72573d6000803e3d6000fd5b505050506040513d601f19601f82011682018060405250810190611c969190613122565b5061138e565b3073ffffffffffffffffffffffffffffffffffffffff841603611cc957611cc4848383611f82565b61138e565b61138e8484848461228f565b6000611ce260148061310f565b6014611cee818061310f565b611cf8919061310f565b611d02919061310f565b825110159050919050565b6060611d3c611d1d60148061310f565b611d2860148061310f565b8451611d3491906130aa565b849190612400565b92915050565b6040805160008082526020820190925273ffffffffffffffffffffffffffffffffffffffff8416908390604051611d799190613144565b60006040518083038185875af1925050503d8060008114611db6576040519150601f19603f3d011682016040523d82523d6000602084013e611dbb565b606091505b5050905080610ae3576040517f08c379a000000000000000000000000000000000000000000000000000000000815260206004820152600360248201527f53544500000000000000000000000000000000000000000000000000000000006044820152606401610203565b6040517f70a0823100000000000000000000000000000000000000000000000000000000815230600482015260009073ffffffffffffffffffffffffffffffffffffffff8316906370a08231906024015b602060405180830381865afa158015611e94573d6000803e3d6000fd5b505050506040513d601f19601f82011682018060405250810190611d3c919061303f565b6000611eee7f0000000000000000000000000000000000000000000000000000000000000000611ee9868686612174565b61256c565b949350505050565b806000811215611f0557600080fd5b919050565b6040517fdd62ed3e00000000000000000000000000000000000000000000000000000000815233600482015230602482015260009073ffffffffffffffffffffffffffffffffffffffff83169063dd62ed3e90604401611e77565b6060611d3c60006014611f78818061310f565b611d34919061310f565b6040805173ffffffffffffffffffffffffffffffffffffffff8481166024830152604480830185905283518084039091018152606490920183526020820180517bffffffffffffffffffffffffffffffffffffffffffffffffffffffff167fa9059cbb0000000000000000000000000000000000000000000000000000000017905291516000928392908716916120199190613144565b6000604051808303816000865af19150503d8060008114612056576040519150601f19603f3d011682016040523d82523d6000602084013e61205b565b606091505b50915091508180156120855750805115806120855750808060200190518101906120859190613122565b6112ff576040517f08c379a000000000000000000000000000000000000000000000000000000000815260206004820152600260248201527f53540000000000000000000000000000000000000000000000000000000000006044820152606401610203565b6000816014018351101561215b576040517f08c379a000000000000000000000000000000000000000000000000000000000815260206004820152601560248201527f746f416464726573735f6f75744f66426f756e647300000000000000000000006044820152606401610203565b5001602001516c01000000000000000000000000900490565b60408051606081018252600080825260208201819052918101919091528173ffffffffffffffffffffffffffffffffffffffff168373ffffffffffffffffffffffffffffffffffffffff1611156121c9579091905b506040805160608101825273ffffffffffffffffffffffffffffffffffffffff9485168152928416602084015292169181019190915290565b600061220e838361256c565b90503373ffffffffffffffffffffffffffffffffffffffff821614611d3c576040517f08c379a000000000000000000000000000000000000000000000000000000000815260206004820152601a60248201527f496e76616c69642063616c6c6572206f662063616c6c6261636b0000000000006044820152606401610203565b6040805173ffffffffffffffffffffffffffffffffffffffff85811660248301528481166044830152606480830185905283518084039091018152608490920183526020820180517bffffffffffffffffffffffffffffffffffffffffffffffffffffffff167f23b872dd00000000000000000000000000000000000000000000000000000000179052915160009283929088169161232e9190613144565b6000604051808303816000865af19150503d806000811461236b576040519150601f19603f3d011682016040523d82523d6000602084013e612370565b606091505b509150915081801561239a57508051158061239a57508080602001905181019061239a9190613122565b610e79576040517f08c379a000000000000000000000000000000000000000000000000000000000815260206004820152600360248201527f53544600000000000000000000000000000000000000000000000000000000006044820152606401610203565b60608182601f01101561246f576040517f08c379a000000000000000000000000000000000000000000000000000000000815260206004820152600e60248201527f736c6963655f6f766572666c6f770000000000000000000000000000000000006044820152606401610203565b818301845110156124dc576040517f08c379a000000000000000000000000000000000000000000000000000000000815260206004820152601160248201527f736c6963655f6f75744f66426f756e64730000000000000000000000000000006044820152606401610203565b6060821580156124fb5760405191506000825260208201604052612563565b6040519150601f8416801560200281840101858101878315602002848b0101015b8183101561253457805183526020928301920161251c565b5050858452601f017fffffffffffffffffffffffffffffffffffffffffffffffffffffffffffffffe016604052505b50949350505050565b6000816040015173ffffffffffffffffffffffffffffffffffffffff16826020015173ffffffffffffffffffffffffffffffffffffffff161061260b576040517f08c379a000000000000000000000000000000000000000000000000000000000815260206004820152601760248201527f496e76616c6964206f72646572206f6620746f6b656e730000000000000000006044820152606401610203565b8151839073ffffffffffffffffffffffffffffffffffffffff1615612684578251602080850151604080870151905161267094930173ffffffffffffffffffffffffffffffffffffffff93841681529183166020830152909116604082015260600190565b6040516020818303038152906040526126ce565b60208084015160408086015190516126be930173ffffffffffffffffffffffffffffffffffffffff92831681529116602082015260400190565b6040516020818303038152906040525b805160209182012060405161276493927fb3fc09be5eb433d99b1ec89fd8435aaf5ffea75c1879e19028aa2414a14b3c8591017fff00000000000000000000000000000000000000000000000000000000000000815260609390931b7fffffffffffffffffffffffffffffffffffffffff0000000000000000000000001660018401526015830191909152603582015260550190565b604080517fffffffffffffffffffffffffffffffffffffffffffffffffffffffffffffffe081840301815291905280516020909101209392505050565b6000610100828403121561059f57600080fd5b600061010082840312156127c757600080fd5b6127d183836127a1565b9392505050565b600080600080606085870312156127ee57600080fd5b8435935060208501359250604085013567ffffffffffffffff8082111561281457600080fd5b818701915087601f83011261282857600080fd5b81358181111561283757600080fd5b88602082850101111561284957600080fd5b95989497505060200194505050565b60006020828403121561286a57600080fd5b5035919050565b73ffffffffffffffffffffffffffffffffffffffff811681146116e057600080fd5b60008060008060008060c087890312156128ac57600080fd5b86356128b781612871565b95506020870135945060408701359350606087013560ff811681146128db57600080fd5b9598949750929560808101359460a0909101359350915050565b6000806040838503121561290857600080fd5b82359150602083013561291a81612871565b809150509250929050565b6000806020838503121561293857600080fd5b823567ffffffffffffffff8082111561295057600080fd5b818501915085601f83011261296457600080fd5b81358181111561297357600080fd5b8660208260051b850101111561298857600080fd5b60209290920196919550909350505050565b60005b838110156129b557818101518382015260200161299d565b50506000910152565b600081518084526129d681602086016020860161299a565b601f017fffffffffffffffffffffffffffffffffffffffffffffffffffffffffffffffe0169290920160200192915050565b6000602080830181845280855180835260408601915060408160051b870101925083870160005b82811015612a7b577fffffffffffffffffffffffffffffffffffffffffffffffffffffffffffffffc0888603018452612a698583516129be565b94509285019290850190600101612a2f565b5092979650505050505050565b7f4e487b7100000000000000000000000000000000000000000000000000000000600052604160045260246000fd5b60405160a0810167ffffffffffffffff81118282101715612ada57612ada612a88565b60405290565b600082601f830112612af157600080fd5b813567ffffffffffffffff80821115612b0c57612b0c612a88565b604051601f83017fffffffffffffffffffffffffffffffffffffffffffffffffffffffffffffffe0908116603f01168101908282118183101715612b5257612b52612a88565b81604052838152866020858801011115612b6b57600080fd5b836020870160208301376000602085830101528094505050505092915050565b600060208284031215612b9d57600080fd5b813567ffffffffffffffff80821115612bb557600080fd5b9083019060a08286031215612bc957600080fd5b612bd1612ab7565b823582811115612be057600080fd5b612bec87828601612ae0565b82525060208301359150612bff82612871565b81602082015260408301356040820152606083013560608201526080830135608082015280935050505092915050565b60008060008060808587031215612c4557600080fd5b843593506020850135612c5781612871565b9250604085013591506060850135612c6e81612871565b939692955090935050565b600080600060608486031215612c8e57600080fd5b8335612c9981612871565b9250602084013591506040840135612cb081612871565b809150509250925092565b600080600080600060a08688031215612cd357600080fd5b8535612cde81612871565b9450602086013593506040860135612cf581612871565b9250606086013591506080860135612d0c81612871565b809150509295509295909350565b600060208284031215612d2c57600080fd5b813567ffffffffffffffff811115612d4357600080fd5b820160a081850312156127d157600080fd5b600060208284031215612d6757600080fd5b81356127d181612871565b600060208284031215612d8457600080fd5b813567ffffffffffffffff80821115612d9c57600080fd5b9083019060408286031215612db057600080fd5b604051604081018181108382111715612dcb57612dcb612a88565b604052823582811115612ddd57600080fd5b612de987828601612ae0565b82525060208301359250612dfc83612871565b6020810192909252509392505050565b7f4e487b7100000000000000000000000000000000000000000000000000000000600052601160045260246000fd5b73ffffffffffffffffffffffffffffffffffffffff828116828216039080821115610f9b57610f9b612e0c565b73ffffffffffffffffffffffffffffffffffffffff818116838216019080821115610f9b57610f9b612e0c565b602081526000825160406020840152612eb160608401826129be565b905073ffffffffffffffffffffffffffffffffffffffff60208501511660408401528091505092915050565b600073ffffffffffffffffffffffffffffffffffffffff80891683528088166020840152861515604084015285606084015280851660808401525060c060a0830152612f2c60c08301846129be565b98975050505050505050565b60008060408385031215612f4b57600080fd5b505080516020909101519092909150565b60007f80000000000000000000000000000000000000000000000000000000000000008203612f8d57612f8d612e0c565b5060000390565b7f4e487b7100000000000000000000000000000000000000000000000000000000600052603260045260246000fd5b60008083357fffffffffffffffffffffffffffffffffffffffffffffffffffffffffffffffe1843603018112612ff857600080fd5b83018035915067ffffffffffffffff82111561301357600080fd5b60200191503681900382131561302857600080fd5b9250929050565b8183823760009101908152919050565b60006020828403121561305157600080fd5b5051919050565b8082028115828204841417611d3c57611d3c612e0c565b6000826130a5577f4e487b7100000000000000000000000000000000000000000000000000000000600052601260045260246000fd5b500490565b81810381811115611d3c57611d3c612e0c565b600073ffffffffffffffffffffffffffffffffffffffff8088168352861515602084015285604084015280851660608401525060a0608083015261310460a08301846129be565b979650505050505050565b80820180821115611d3c57611d3c612e0c565b60006020828403121561313457600080fd5b815180151581146127d157600080fd5b6000825161315681846020870161299a565b919091019291505056fea164736f6c6343000814000a",
  "linkReferences": {},
  "deployedLinkReferences": {}
}