{
  "_format": "hh-sol-artifact-1",
  "contractName": "PropReservesEchidnaTest",
  "sourceName": "contracts/test/echidna/PoolMockEchidna/PropReservesEchidnaTest.sol",
  "abi": [
    {
      "inputs": [],
      "name": "alreadyInitialized",
      "type": "error"
    },
    {
      "inputs": [],
      "name": "arithmeticError",
      "type": "error"
    },
    {
      "inputs": [],
      "name": "bottomTickLowerThanMIN",
      "type": "error"
    },
    {
      "inputs": [],
      "name": "dynamicFeeActive",
      "type": "error"
    },
    {
      "inputs": [],
      "name": "dynamicFeeDisabled",
      "type": "error"
    },
    {
      "inputs": [],
      "name": "flashInsufficientPaid0",
      "type": "error"
    },
    {
      "inputs": [],
      "name": "flashInsufficientPaid1",
      "type": "error"
    },
    {
      "inputs": [],
      "name": "incorrectPluginFee",
      "type": "error"
    },
    {
      "inputs": [],
      "name": "insufficientInputAmount",
      "type": "error"
    },
    {
      "inputs": [],
      "name": "invalidAmountRequired",
      "type": "error"
    },
    {
      "inputs": [
        {
          "internalType": "bytes4",
          "name": "expectedSelector",
          "type": "bytes4"
        }
      ],
      "name": "invalidHookResponse",
      "type": "error"
    },
    {
      "inputs": [],
      "name": "invalidLimitSqrtPrice",
      "type": "error"
    },
    {
      "inputs": [],
      "name": "invalidNewCommunityFee",
      "type": "error"
    },
    {
      "inputs": [],
      "name": "invalidNewTickSpacing",
      "type": "error"
    },
    {
      "inputs": [],
      "name": "liquidityAdd",
      "type": "error"
    },
    {
      "inputs": [],
      "name": "liquidityOverflow",
      "type": "error"
    },
    {
      "inputs": [],
      "name": "liquiditySub",
      "type": "error"
    },
    {
      "inputs": [],
      "name": "locked",
      "type": "error"
    },
    {
      "inputs": [],
      "name": "notAllowed",
      "type": "error"
    },
    {
      "inputs": [],
      "name": "notInitialized",
      "type": "error"
    },
    {
      "inputs": [],
      "name": "pluginIsNotConnected",
      "type": "error"
    },
    {
      "inputs": [],
      "name": "priceOutOfRange",
      "type": "error"
    },
    {
      "inputs": [],
      "name": "tickInvalidLinks",
      "type": "error"
    },
    {
      "inputs": [],
      "name": "tickIsNotInitialized",
      "type": "error"
    },
    {
      "inputs": [],
      "name": "tickIsNotSpaced",
      "type": "error"
    },
    {
      "inputs": [],
      "name": "tickOutOfRange",
      "type": "error"
    },
    {
      "inputs": [],
      "name": "topTickAboveMAX",
      "type": "error"
    },
    {
      "inputs": [],
      "name": "topTickLowerOrEqBottomTick",
      "type": "error"
    },
    {
      "inputs": [],
      "name": "transferFailed",
      "type": "error"
    },
    {
      "inputs": [],
      "name": "zeroAmountRequired",
      "type": "error"
    },
    {
      "inputs": [],
      "name": "zeroLiquidityActual",
      "type": "error"
    },
    {
      "inputs": [],
      "name": "zeroLiquidityDesired",
      "type": "error"
    },
    {
      "anonymous": false,
      "inputs": [
        {
          "indexed": true,
          "internalType": "address",
          "name": "owner",
          "type": "address"
        },
        {
          "indexed": true,
          "internalType": "int24",
          "name": "bottomTick",
          "type": "int24"
        },
        {
          "indexed": true,
          "internalType": "int24",
          "name": "topTick",
          "type": "int24"
        },
        {
          "indexed": false,
          "internalType": "uint128",
          "name": "liquidityAmount",
          "type": "uint128"
        },
        {
          "indexed": false,
          "internalType": "uint256",
          "name": "amount0",
          "type": "uint256"
        },
        {
          "indexed": false,
          "internalType": "uint256",
          "name": "amount1",
          "type": "uint256"
        },
        {
          "indexed": false,
          "internalType": "uint24",
          "name": "pluginFee",
          "type": "uint24"
        }
      ],
      "name": "Burn",
      "type": "event"
    },
    {
      "anonymous": false,
      "inputs": [
        {
          "indexed": true,
          "internalType": "address",
          "name": "owner",
          "type": "address"
        },
        {
          "indexed": false,
          "internalType": "address",
          "name": "recipient",
          "type": "address"
        },
        {
          "indexed": true,
          "internalType": "int24",
          "name": "bottomTick",
          "type": "int24"
        },
        {
          "indexed": true,
          "internalType": "int24",
          "name": "topTick",
          "type": "int24"
        },
        {
          "indexed": false,
          "internalType": "uint128",
          "name": "amount0",
          "type": "uint128"
        },
        {
          "indexed": false,
          "internalType": "uint128",
          "name": "amount1",
          "type": "uint128"
        }
      ],
      "name": "Collect",
      "type": "event"
    },
    {
      "anonymous": false,
      "inputs": [
        {
          "indexed": false,
          "internalType": "uint16",
          "name": "communityFeeNew",
          "type": "uint16"
        }
      ],
      "name": "CommunityFee",
      "type": "event"
    },
    {
      "anonymous": false,
      "inputs": [
        {
          "indexed": false,
          "internalType": "address",
          "name": "newCommunityVault",
          "type": "address"
        }
      ],
      "name": "CommunityVault",
      "type": "event"
    },
    {
      "anonymous": false,
      "inputs": [
        {
          "indexed": false,
          "internalType": "uint256",
          "name": "amount0",
          "type": "uint256"
        },
        {
          "indexed": false,
          "internalType": "uint256",
          "name": "amount1",
          "type": "uint256"
        }
      ],
      "name": "ExcessTokens",
      "type": "event"
    },
    {
      "anonymous": false,
      "inputs": [
        {
          "indexed": false,
          "internalType": "uint16",
          "name": "fee",
          "type": "uint16"
        }
      ],
      "name": "Fee",
      "type": "event"
    },
    {
      "anonymous": false,
      "inputs": [
        {
          "indexed": true,
          "internalType": "address",
          "name": "sender",
          "type": "address"
        },
        {
          "indexed": true,
          "internalType": "address",
          "name": "recipient",
          "type": "address"
        },
        {
          "indexed": false,
          "internalType": "uint256",
          "name": "amount0",
          "type": "uint256"
        },
        {
          "indexed": false,
          "internalType": "uint256",
          "name": "amount1",
          "type": "uint256"
        },
        {
          "indexed": false,
          "internalType": "uint256",
          "name": "paid0",
          "type": "uint256"
        },
        {
          "indexed": false,
          "internalType": "uint256",
          "name": "paid1",
          "type": "uint256"
        }
      ],
      "name": "Flash",
      "type": "event"
    },
    {
      "anonymous": false,
      "inputs": [
        {
          "indexed": false,
          "internalType": "uint160",
          "name": "price",
          "type": "uint160"
        },
        {
          "indexed": false,
          "internalType": "int24",
          "name": "tick",
          "type": "int24"
        }
      ],
      "name": "Initialize",
      "type": "event"
    },
    {
      "anonymous": false,
      "inputs": [
        {
          "indexed": false,
          "internalType": "address",
          "name": "sender",
          "type": "address"
        },
        {
          "indexed": true,
          "internalType": "address",
          "name": "owner",
          "type": "address"
        },
        {
          "indexed": true,
          "internalType": "int24",
          "name": "bottomTick",
          "type": "int24"
        },
        {
          "indexed": true,
          "internalType": "int24",
          "name": "topTick",
          "type": "int24"
        },
        {
          "indexed": false,
          "internalType": "uint128",
          "name": "liquidityAmount",
          "type": "uint128"
        },
        {
          "indexed": false,
          "internalType": "uint256",
          "name": "amount0",
          "type": "uint256"
        },
        {
          "indexed": false,
          "internalType": "uint256",
          "name": "amount1",
          "type": "uint256"
        }
      ],
      "name": "Mint",
      "type": "event"
    },
    {
      "anonymous": false,
      "inputs": [
        {
          "indexed": false,
          "internalType": "address",
          "name": "newPluginAddress",
          "type": "address"
        }
      ],
      "name": "Plugin",
      "type": "event"
    },
    {
      "anonymous": false,
      "inputs": [
        {
          "indexed": false,
          "internalType": "uint8",
          "name": "newPluginConfig",
          "type": "uint8"
        }
      ],
      "name": "PluginConfig",
      "type": "event"
    },
    {
      "anonymous": false,
      "inputs": [
        {
          "indexed": true,
          "internalType": "address",
          "name": "to",
          "type": "address"
        },
        {
          "indexed": false,
          "internalType": "uint256",
          "name": "amount0",
          "type": "uint256"
        },
        {
          "indexed": false,
          "internalType": "uint256",
          "name": "amount1",
          "type": "uint256"
        }
      ],
      "name": "Skim",
      "type": "event"
    },
    {
      "anonymous": false,
      "inputs": [
        {
          "indexed": true,
          "internalType": "address",
          "name": "sender",
          "type": "address"
        },
        {
          "indexed": true,
          "internalType": "address",
          "name": "recipient",
          "type": "address"
        },
        {
          "indexed": false,
          "internalType": "int256",
          "name": "amount0",
          "type": "int256"
        },
        {
          "indexed": false,
          "internalType": "int256",
          "name": "amount1",
          "type": "int256"
        },
        {
          "indexed": false,
          "internalType": "uint160",
          "name": "price",
          "type": "uint160"
        },
        {
          "indexed": false,
          "internalType": "uint128",
          "name": "liquidity",
          "type": "uint128"
        },
        {
          "indexed": false,
          "internalType": "int24",
          "name": "tick",
          "type": "int24"
        },
        {
          "indexed": false,
          "internalType": "uint24",
          "name": "overrideFee",
          "type": "uint24"
        },
        {
          "indexed": false,
          "internalType": "uint24",
          "name": "pluginFee",
          "type": "uint24"
        }
      ],
      "name": "Swap",
      "type": "event"
    },
    {
      "anonymous": false,
      "inputs": [
        {
          "indexed": false,
          "internalType": "int24",
          "name": "newTickSpacing",
          "type": "int24"
        }
      ],
      "name": "TickSpacing",
      "type": "event"
    },
    {
      "inputs": [
        {
          "internalType": "int24",
          "name": "bottomTick",
          "type": "int24"
        },
        {
          "internalType": "int24",
          "name": "topTick",
          "type": "int24"
        },
        {
          "internalType": "uint128",
          "name": "amount",
          "type": "uint128"
        },
        {
          "internalType": "bytes",
          "name": "data",
          "type": "bytes"
        }
      ],
      "name": "burn",
      "outputs": [
        {
          "internalType": "uint256",
          "name": "amount0",
          "type": "uint256"
        },
        {
          "internalType": "uint256",
          "name": "amount1",
          "type": "uint256"
        }
      ],
      "stateMutability": "nonpayable",
      "type": "function"
    },
    {
      "inputs": [
        {
          "internalType": "uint128",
          "name": "liquidityDelta",
          "type": "uint128"
        }
      ],
      "name": "burnLastMintedPosition",
      "outputs": [],
      "stateMutability": "nonpayable",
      "type": "function"
    },
    {
      "inputs": [
        {
          "internalType": "address",
          "name": "recipient",
          "type": "address"
        },
        {
          "internalType": "int24",
          "name": "bottomTick",
          "type": "int24"
        },
        {
          "internalType": "int24",
          "name": "topTick",
          "type": "int24"
        },
        {
          "internalType": "uint128",
          "name": "amount0Requested",
          "type": "uint128"
        },
        {
          "internalType": "uint128",
          "name": "amount1Requested",
          "type": "uint128"
        }
      ],
      "name": "collect",
      "outputs": [
        {
          "internalType": "uint128",
          "name": "amount0",
          "type": "uint128"
        },
        {
          "internalType": "uint128",
          "name": "amount1",
          "type": "uint128"
        }
      ],
      "stateMutability": "nonpayable",
      "type": "function"
    },
    {
      "inputs": [
        {
          "internalType": "uint128",
          "name": "amount0Requested",
          "type": "uint128"
        },
        {
          "internalType": "uint128",
          "name": "amount1Requested",
          "type": "uint128"
        }
      ],
      "name": "collectLastMintedPosition",
      "outputs": [],
      "stateMutability": "nonpayable",
      "type": "function"
    },
    {
      "inputs": [],
      "name": "communityVault",
      "outputs": [
        {
          "internalType": "address",
          "name": "",
          "type": "address"
        }
      ],
      "stateMutability": "view",
      "type": "function"
    },
    {
      "inputs": [
        {
          "internalType": "uint256",
          "name": "amount0",
          "type": "uint256"
        },
        {
          "internalType": "uint256",
          "name": "amount1",
          "type": "uint256"
        }
      ],
      "name": "donate",
      "outputs": [],
      "stateMutability": "nonpayable",
      "type": "function"
    },
    {
      "inputs": [],
      "name": "echidna_check_balance0_reserve0",
      "outputs": [
        {
          "internalType": "bool",
          "name": "",
          "type": "bool"
        }
      ],
      "stateMutability": "view",
      "type": "function"
    },
    {
      "inputs": [],
      "name": "echidna_check_balance1_reserve1",
      "outputs": [
        {
          "internalType": "bool",
          "name": "",
          "type": "bool"
        }
      ],
      "stateMutability": "view",
      "type": "function"
    },
    {
      "inputs": [],
      "name": "factory",
      "outputs": [
        {
          "internalType": "address",
          "name": "",
          "type": "address"
        }
      ],
      "stateMutability": "view",
      "type": "function"
    },
    {
      "inputs": [],
      "name": "fee",
      "outputs": [
        {
          "internalType": "uint16",
          "name": "currentFee",
          "type": "uint16"
        }
      ],
      "stateMutability": "view",
      "type": "function"
    },
    {
      "inputs": [
        {
          "internalType": "address",
          "name": "recipient",
          "type": "address"
        },
        {
          "internalType": "uint256",
          "name": "amount0",
          "type": "uint256"
        },
        {
          "internalType": "uint256",
          "name": "amount1",
          "type": "uint256"
        },
        {
          "internalType": "bytes",
          "name": "data",
          "type": "bytes"
        }
      ],
      "name": "flash",
      "outputs": [],
      "stateMutability": "nonpayable",
      "type": "function"
    },
    {
      "inputs": [
        {
          "internalType": "address",
          "name": "recipient",
          "type": "address"
        },
        {
          "internalType": "uint256",
          "name": "amount0",
          "type": "uint256"
        },
        {
          "internalType": "uint256",
          "name": "amount1",
          "type": "uint256"
        }
      ],
      "name": "flashWrapped",
      "outputs": [],
      "stateMutability": "nonpayable",
      "type": "function"
    },
    {
      "inputs": [],
      "name": "getCommunityFeePending",
      "outputs": [
        {
          "internalType": "uint128",
          "name": "",
          "type": "uint128"
        },
        {
          "internalType": "uint128",
          "name": "",
          "type": "uint128"
        }
      ],
      "stateMutability": "view",
      "type": "function"
    },
    {
      "inputs": [],
      "name": "getPluginFeePending",
      "outputs": [
        {
          "internalType": "uint128",
          "name": "",
          "type": "uint128"
        },
        {
          "internalType": "uint128",
          "name": "",
          "type": "uint128"
        }
      ],
      "stateMutability": "view",
      "type": "function"
    },
    {
      "inputs": [],
      "name": "getReserves",
      "outputs": [
        {
          "internalType": "uint128",
          "name": "",
          "type": "uint128"
        },
        {
          "internalType": "uint128",
          "name": "",
          "type": "uint128"
        }
      ],
      "stateMutability": "view",
      "type": "function"
    },
    {
      "inputs": [],
      "name": "globalState",
      "outputs": [
        {
          "internalType": "uint160",
          "name": "price",
          "type": "uint160"
        },
        {
          "internalType": "int24",
          "name": "tick",
          "type": "int24"
        },
        {
          "internalType": "uint16",
          "name": "lastFee",
          "type": "uint16"
        },
        {
          "internalType": "uint8",
          "name": "pluginConfig",
          "type": "uint8"
        },
        {
          "internalType": "uint16",
          "name": "communityFee",
          "type": "uint16"
        },
        {
          "internalType": "bool",
          "name": "unlocked",
          "type": "bool"
        }
      ],
      "stateMutability": "view",
      "type": "function"
    },
    {
      "inputs": [
        {
          "internalType": "bytes32",
          "name": "",
          "type": "bytes32"
        },
        {
          "internalType": "address",
          "name": "",
          "type": "address"
        }
      ],
      "name": "hasRoleOrOwner",
      "outputs": [
        {
          "internalType": "bool",
          "name": "",
          "type": "bool"
        }
      ],
      "stateMutability": "pure",
      "type": "function"
    },
    {
      "inputs": [
        {
          "internalType": "uint160",
          "name": "initialPrice",
          "type": "uint160"
        }
      ],
      "name": "initialize",
      "outputs": [],
      "stateMutability": "nonpayable",
      "type": "function"
    },
    {
      "inputs": [],
      "name": "isUnlocked",
      "outputs": [
        {
          "internalType": "bool",
          "name": "unlocked",
          "type": "bool"
        }
      ],
      "stateMutability": "view",
      "type": "function"
    },
    {
      "inputs": [],
      "name": "lastFeeTransferTimestamp",
      "outputs": [
        {
          "internalType": "uint32",
          "name": "",
          "type": "uint32"
        }
      ],
      "stateMutability": "view",
      "type": "function"
    },
    {
      "inputs": [],
      "name": "liquidity",
      "outputs": [
        {
          "internalType": "uint128",
          "name": "",
          "type": "uint128"
        }
      ],
      "stateMutability": "view",
      "type": "function"
    },
    {
      "inputs": [],
      "name": "maxLiquidityPerTick",
      "outputs": [
        {
          "internalType": "uint128",
          "name": "",
          "type": "uint128"
        }
      ],
      "stateMutability": "view",
      "type": "function"
    },
    {
      "inputs": [
        {
          "internalType": "address",
          "name": "leftoversRecipient",
          "type": "address"
        },
        {
          "internalType": "address",
          "name": "recipient",
          "type": "address"
        },
        {
          "internalType": "int24",
          "name": "bottomTick",
          "type": "int24"
        },
        {
          "internalType": "int24",
          "name": "topTick",
          "type": "int24"
        },
        {
          "internalType": "uint128",
          "name": "liquidityDesired",
          "type": "uint128"
        },
        {
          "internalType": "bytes",
          "name": "data",
          "type": "bytes"
        }
      ],
      "name": "mint",
      "outputs": [
        {
          "internalType": "uint256",
          "name": "amount0",
          "type": "uint256"
        },
        {
          "internalType": "uint256",
          "name": "amount1",
          "type": "uint256"
        },
        {
          "internalType": "uint128",
          "name": "liquidityActual",
          "type": "uint128"
        }
      ],
      "stateMutability": "nonpayable",
      "type": "function"
    },
    {
      "inputs": [
        {
          "internalType": "int24",
          "name": "tickDelta",
          "type": "int24"
        },
        {
          "internalType": "uint128",
          "name": "liquidityDesired",
          "type": "uint128"
        },
        {
          "internalType": "uint256",
          "name": "pay0",
          "type": "uint256"
        },
        {
          "internalType": "uint256",
          "name": "pay1",
          "type": "uint256"
        }
      ],
      "name": "mintAroundCurrentTickWrapped",
      "outputs": [],
      "stateMutability": "nonpayable",
      "type": "function"
    },
    {
      "inputs": [
        {
          "internalType": "int24",
          "name": "bottomTick",
          "type": "int24"
        },
        {
          "internalType": "int24",
          "name": "topTick",
          "type": "int24"
        },
        {
          "internalType": "uint128",
          "name": "liquidityDesired",
          "type": "uint128"
        },
        {
          "internalType": "uint256",
          "name": "pay0",
          "type": "uint256"
        },
        {
          "internalType": "uint256",
          "name": "pay1",
          "type": "uint256"
        }
      ],
      "name": "mintWrapped",
      "outputs": [],
      "stateMutability": "nonpayable",
      "type": "function"
    },
    {
      "inputs": [],
      "name": "nextTickGlobal",
      "outputs": [
        {
          "internalType": "int24",
          "name": "",
          "type": "int24"
        }
      ],
      "stateMutability": "view",
      "type": "function"
    },
    {
      "inputs": [],
      "name": "plugin",
      "outputs": [
        {
          "internalType": "address",
          "name": "",
          "type": "address"
        }
      ],
      "stateMutability": "view",
      "type": "function"
    },
    {
      "inputs": [
        {
          "internalType": "bytes32",
          "name": "",
          "type": "bytes32"
        }
      ],
      "name": "positions",
      "outputs": [
        {
          "internalType": "uint256",
          "name": "liquidity",
          "type": "uint256"
        },
        {
          "internalType": "uint256",
          "name": "innerFeeGrowth0Token",
          "type": "uint256"
        },
        {
          "internalType": "uint256",
          "name": "innerFeeGrowth1Token",
          "type": "uint256"
        },
        {
          "internalType": "uint128",
          "name": "fees0",
          "type": "uint128"
        },
        {
          "internalType": "uint128",
          "name": "fees1",
          "type": "uint128"
        }
      ],
      "stateMutability": "view",
      "type": "function"
    },
    {
      "inputs": [],
      "name": "prevTickGlobal",
      "outputs": [
        {
          "internalType": "int24",
          "name": "",
          "type": "int24"
        }
      ],
      "stateMutability": "view",
      "type": "function"
    },
    {
      "inputs": [],
      "name": "safelyGetStateOfAMM",
      "outputs": [
        {
          "internalType": "uint160",
          "name": "sqrtPrice",
          "type": "uint160"
        },
        {
          "internalType": "int24",
          "name": "tick",
          "type": "int24"
        },
        {
          "internalType": "uint16",
          "name": "lastFee",
          "type": "uint16"
        },
        {
          "internalType": "uint8",
          "name": "pluginConfig",
          "type": "uint8"
        },
        {
          "internalType": "uint128",
          "name": "activeLiquidity",
          "type": "uint128"
        },
        {
          "internalType": "int24",
          "name": "nextTick",
          "type": "int24"
        },
        {
          "internalType": "int24",
          "name": "previousTick",
          "type": "int24"
        }
      ],
      "stateMutability": "view",
      "type": "function"
    },
    {
      "inputs": [
        {
          "internalType": "uint16",
          "name": "newCommunityFee",
          "type": "uint16"
        }
      ],
      "name": "setCommunityFee",
      "outputs": [],
      "stateMutability": "nonpayable",
      "type": "function"
    },
    {
      "inputs": [
        {
          "internalType": "address",
          "name": "newCommunityVault",
          "type": "address"
        }
      ],
      "name": "setCommunityVault",
      "outputs": [],
      "stateMutability": "nonpayable",
      "type": "function"
    },
    {
      "inputs": [
        {
          "internalType": "uint16",
          "name": "newFee",
          "type": "uint16"
        }
      ],
      "name": "setFee",
      "outputs": [],
      "stateMutability": "nonpayable",
      "type": "function"
    },
    {
      "inputs": [
        {
          "internalType": "address",
          "name": "newPluginAddress",
          "type": "address"
        }
      ],
      "name": "setPlugin",
      "outputs": [],
      "stateMutability": "nonpayable",
      "type": "function"
    },
    {
      "inputs": [
        {
          "internalType": "uint8",
          "name": "newConfig",
          "type": "uint8"
        }
      ],
      "name": "setPluginConfig",
      "outputs": [],
      "stateMutability": "nonpayable",
      "type": "function"
    },
    {
      "inputs": [
        {
          "internalType": "int24",
          "name": "newTickSpacing",
          "type": "int24"
        }
      ],
      "name": "setTickSpacing",
      "outputs": [],
      "stateMutability": "nonpayable",
      "type": "function"
    },
    {
      "inputs": [],
      "name": "skim",
      "outputs": [],
      "stateMutability": "nonpayable",
      "type": "function"
    },
    {
      "inputs": [
        {
          "internalType": "address",
          "name": "recipient",
          "type": "address"
        },
        {
          "internalType": "bool",
          "name": "zeroToOne",
          "type": "bool"
        },
        {
          "internalType": "int256",
          "name": "amountRequired",
          "type": "int256"
        },
        {
          "internalType": "uint160",
          "name": "limitSqrtPrice",
          "type": "uint160"
        },
        {
          "internalType": "bytes",
          "name": "data",
          "type": "bytes"
        }
      ],
      "name": "swap",
      "outputs": [
        {
          "internalType": "int256",
          "name": "amount0",
          "type": "int256"
        },
        {
          "internalType": "int256",
          "name": "amount1",
          "type": "int256"
        }
      ],
      "stateMutability": "nonpayable",
      "type": "function"
    },
    {
      "inputs": [
        {
          "internalType": "address",
          "name": "leftoversRecipient",
          "type": "address"
        },
        {
          "internalType": "address",
          "name": "recipient",
          "type": "address"
        },
        {
          "internalType": "bool",
          "name": "zeroToOne",
          "type": "bool"
        },
        {
          "internalType": "int256",
          "name": "amountToSell",
          "type": "int256"
        },
        {
          "internalType": "uint160",
          "name": "limitSqrtPrice",
          "type": "uint160"
        },
        {
          "internalType": "bytes",
          "name": "data",
          "type": "bytes"
        }
      ],
      "name": "swapWithPaymentInAdvance",
      "outputs": [
        {
          "internalType": "int256",
          "name": "amount0",
          "type": "int256"
        },
        {
          "internalType": "int256",
          "name": "amount1",
          "type": "int256"
        }
      ],
      "stateMutability": "nonpayable",
      "type": "function"
    },
    {
      "inputs": [
        {
          "internalType": "bool",
          "name": "zeroToOne",
          "type": "bool"
        },
        {
          "internalType": "int256",
          "name": "amountRequired",
          "type": "int256"
        },
        {
          "internalType": "uint160",
          "name": "limitSqrtPrice",
          "type": "uint160"
        },
        {
          "internalType": "uint256",
          "name": "pay0",
          "type": "uint256"
        },
        {
          "internalType": "uint256",
          "name": "pay1",
          "type": "uint256"
        }
      ],
      "name": "swapWithPaymentInAdvanceWrapped",
      "outputs": [],
      "stateMutability": "nonpayable",
      "type": "function"
    },
    {
      "inputs": [],
      "name": "sync",
      "outputs": [],
      "stateMutability": "nonpayable",
      "type": "function"
    },
    {
      "inputs": [],
      "name": "tickSpacing",
      "outputs": [
        {
          "internalType": "int24",
          "name": "",
          "type": "int24"
        }
      ],
      "stateMutability": "view",
      "type": "function"
    },
    {
      "inputs": [
        {
          "internalType": "int16",
          "name": "",
          "type": "int16"
        }
      ],
      "name": "tickTable",
      "outputs": [
        {
          "internalType": "uint256",
          "name": "",
          "type": "uint256"
        }
      ],
      "stateMutability": "view",
      "type": "function"
    },
    {
      "inputs": [],
      "name": "tickTreeRoot",
      "outputs": [
        {
          "internalType": "uint32",
          "name": "",
          "type": "uint32"
        }
      ],
      "stateMutability": "view",
      "type": "function"
    },
    {
      "inputs": [
        {
          "internalType": "int16",
          "name": "",
          "type": "int16"
        }
      ],
      "name": "tickTreeSecondLayer",
      "outputs": [
        {
          "internalType": "uint256",
          "name": "",
          "type": "uint256"
        }
      ],
      "stateMutability": "view",
      "type": "function"
    },
    {
      "inputs": [
        {
          "internalType": "int24",
          "name": "",
          "type": "int24"
        }
      ],
      "name": "ticks",
      "outputs": [
        {
          "internalType": "uint256",
          "name": "liquidityTotal",
          "type": "uint256"
        },
        {
          "internalType": "int128",
          "name": "liquidityDelta",
          "type": "int128"
        },
        {
          "internalType": "int24",
          "name": "prevTick",
          "type": "int24"
        },
        {
          "internalType": "int24",
          "name": "nextTick",
          "type": "int24"
        },
        {
          "internalType": "uint256",
          "name": "outerFeeGrowth0Token",
          "type": "uint256"
        },
        {
          "internalType": "uint256",
          "name": "outerFeeGrowth1Token",
          "type": "uint256"
        }
      ],
      "stateMutability": "view",
      "type": "function"
    },
    {
      "inputs": [],
      "name": "token0",
      "outputs": [
        {
          "internalType": "address",
          "name": "",
          "type": "address"
        }
      ],
      "stateMutability": "view",
      "type": "function"
    },
    {
      "inputs": [],
      "name": "token1",
      "outputs": [
        {
          "internalType": "address",
          "name": "",
          "type": "address"
        }
      ],
      "stateMutability": "view",
      "type": "function"
    },
    {
      "inputs": [],
      "name": "totalFeeGrowth0Token",
      "outputs": [
        {
          "internalType": "uint256",
          "name": "",
          "type": "uint256"
        }
      ],
      "stateMutability": "view",
      "type": "function"
    },
    {
      "inputs": [],
      "name": "totalFeeGrowth1Token",
      "outputs": [
        {
          "internalType": "uint256",
          "name": "",
          "type": "uint256"
        }
      ],
      "stateMutability": "view",
      "type": "function"
    }
  ],
  "bytecode": "0x60e06040523480156200001157600080fd5b50600260c052600160a052306080526000620d89e7196200003281620001e4565b6009805462ffffff93841663010000000265ffffffffffff1990911693909216929092171790556002805460ff60e01b1916600160e01b1790556001600160a01b03811615620000875762000087816200009a565b50620000946003620000ee565b62000215565b600680546001600160a01b0319166001600160a01b0383169081179091556040519081527f27a3944eff2135a57675f17e72501038982b73620d01f794c72e93d61a3932a29060200160405180910390a150565b620d89e719620000fe81620001e4565b620d89e7196000818152602085905260409020600101805465ffffffffffff60801b1916600160981b62ffffff9485160262ffffff60801b191617600160801b9490931693909302919091179091556200015881620001e4565b8260006200016a620d89e719620001e4565b60020b60020b81526020019081526020016000206001016010846000620d89e7196200019690620001e4565b60020b81526020810191909152604001600020600101805462ffffff948516600160981b0262ffffff60981b1990911617905581549383166101009190910a90810292021990921617905550565b60008160020b627fffff1981036200020c57634e487b7160e01b600052601160045260246000fd5b60000392915050565b60805160a05160c05161645b620002d8600039600081816107b101528181610bae0152818161113a0152818161147e015281816118e5015281816119b201528181611daf01528181612f170152818161374401526150850152600081816103f001528181610c3a015281816110f60152818161143b0152818161191d0152818161197a01528181611d6001528181612ebf01528181613087015281816136f601526150500152600081816107300152818161215b0152613857015261645b6000f3fe608060405234801561001057600080fd5b50600436106103365760003560e01c80639e922180116101b2578063d8544cf3116100f9578063ef01df4f116100a2578063f3a016ab1161007c578063f3a016ab1461098c578063f637731d1461099f578063fcbf24f4146109b2578063fff6cae9146109d057600080fd5b8063ef01df4f146108dd578063f085a610146108f0578063f30dba931461090357600080fd5b8063e76c01e4116100d3578063e76c01e41461082e578063e8ae2b69146108c1578063ecdecf42146108d457600080fd5b8063d8544cf3146107e0578063d8619037146107f3578063ddca3f431461081357600080fd5b8063c5390e2d1161015b578063d0c93a7c11610135578063d0c93a7c14610798578063d21220a7146107ac578063d5c35a7e146107d357600080fd5b8063c5390e2d14610752578063c677e3e014610765578063cc1f97cf1461078557600080fd5b8063b563f7421161018c578063b563f74214610705578063bca57f8114610718578063c45a01551461072b57600080fd5b80639e9221801461069f578063a1eded87146106b2578063aafe29c0146106ce57600080fd5b80634f1eb3d81161028157806377f8c3a91161022a5780638e005553116102045780638e005553146106085780639734b5771461061b57806397ce1c511461062e5780639e4e02271461068c57600080fd5b806377f8c3a9146105c35780637bd78025146105da5780638380edb7146105f657600080fd5b8063578b9a361161025b578063578b9a361461056b5780636378ae441461059757806370cf754a146105ae57600080fd5b80634f1eb3d8146104c8578063514ea4bf146104db57806353e978681461055857600080fd5b8063128acb08116102e3578063240a875a116102bd578063240a875a1461048f5780633b3bc70e146104a2578063490e6cbc146104b557600080fd5b8063128acb081461042a5780631a686502146104525780631dd19cb41461048757600080fd5b80630902f1ac116103145780630902f1ac146103a05780630cdd53f6146103d85780630dfe1681146103eb57600080fd5b8063050a4d211461033b5780630606e8551461036757806306f1378d1461037c575b600080fd5b60095461034f906301000000900460020b81565b60405160029190910b81526020015b60405180910390f35b61037a610375366004615aa4565b6109d8565b005b600c54600d546001600160801b0390911611155b604051901515815260200161035e565b600c546001600160801b0380821691600160801b9004165b604080516001600160801b0393841681529290911660208301520161035e565b61037a6103e6366004615afb565b610acd565b6104127f000000000000000000000000000000000000000000000000000000000000000081565b6040516001600160a01b03909116815260200161035e565b61043d610438366004615b84565b610b01565b6040805192835260208301919091520161035e565b60095461046f90660100000000000090046001600160801b031681565b6040516001600160801b03909116815260200161035e565b61037a610d08565b61037a61049d366004615c17565b610d3b565b61043d6104b0366004615c34565b610dba565b61037a6104c3366004615cac565b610fd7565b6103b86104d6366004615cf9565b61138f565b6105246104e9366004615d66565b600b602052600090815260409020805460018201546002830154600390930154919290916001600160801b0380821691600160801b90041685565b604080519586526020860194909452928401919091526001600160801b03908116606084015216608082015260a00161035e565b600754610412906001600160a01b031681565b60095461058290600160c81b900463ffffffff1681565b60405163ffffffff909116815260200161035e565b6105a060005481565b60405190815260200161035e565b61046f6d09745258e83de0d0f4e400fce79981565b60045461058290600160d01b900463ffffffff1681565b6004546001600160681b0380821691600160681b9004166103b8565b600254600160e01b900460ff16610390565b61037a610616366004615c17565b61155b565b61037a610629366004615d7f565b6115fb565b610636611693565b604080516001600160a01b039098168852600296870b602089015261ffff9095169487019490945260ff90921660608601526001600160801b03166080850152820b60a0840152900b60c082015260e00161035e565b61043d61069a366004615db4565b611729565b61037a6106ad366004615e4a565b611a51565b6005546001600160681b0380821691600160681b9004166103b8565b6106e16106dc366004615e67565b611b06565b6040805193845260208401929092526001600160801b03169082015260600161035e565b61037a610713366004615ec9565b611eb8565b61037a610726366004615f0d565b61202c565b6104127f000000000000000000000000000000000000000000000000000000000000000081565b61037a610760366004615f30565b61207f565b6105a0610773366004615f68565b60086020526000908152604090205481565b61037a610793366004615f8b565b612125565b60095461034f90600160b01b900460020b81565b6104127f000000000000000000000000000000000000000000000000000000000000000081565b60095461034f9060020b81565b61037a6107ee366004615f8b565b612148565b6105a0610801366004615f68565b600a6020526000908152604090205481565b61081b6121c3565b60405161ffff909116815260200161035e565b60028054610879916001600160a01b03821691600160a01b810490910b9061ffff600160b81b820481169160ff600160c81b8204811692600160d01b83041691600160e01b90041686565b604080516001600160a01b03909716875260029590950b602087015261ffff9384169486019490945260ff9091166060850152166080830152151560a082015260c00161035e565b6103906108cf366004615fa8565b612267565b6105a060015481565b600654610412906001600160a01b031681565b61037a6108fe366004615fd8565b612270565b610955610911366004615fd8565b60036020819052600091825260409091208054600182015460028084015493909401549193600f82900b93600160801b8304820b93600160981b90930490910b9186565b60408051968752600f9590950b6020870152600293840b94860194909452910b6060840152608083015260a082015260c00161035e565b61037a61099a366004615ff3565b6122d9565b61037a6109ad366004615f8b565b61238f565b600c54600e54600160801b9091046001600160801b03161115610390565b61037a61258e565b60006040518060400160405280848152602001838152506040516020016109ff9190616021565b60408051601f19818403018152908290526302abf8a760e61b82529150309063aafe29c090610a3c90339084908b908b908b90899060040161607e565b6060604051808303816000875af1158015610a5b573d6000803e3d6000fd5b505050506040513d601f19601f82011682018060405250810190610a7f91906160d7565b505060408051808201909152600288810b825287900b6020909101525050600f805462ffffff95861663010000000265ffffffffffff19909116959096169490941794909417909255505050565b81600d6000828254610adf9190616126565b9250508190555080600e6000828254610af89190616126565b90915550505050565b600080600080610b178a8a8a8a60008b8b6125c0565b91509150610b2361270a565b6040805160608101825260008082526020808301829052828401829052835180850190945281845283015290610b5c84848d8d8d612743565b6001600160801b03909116604088015260029190910b60208701526001600160a01b03909116855291975095509050600080610b96612e6b565b915091508c15610c2c576000871215610bd757610bd77f00000000000000000000000000000000000000000000000000000000000000008f89600003613085565b610be388888c8c6130f7565b600d54610bf08984616126565b1115610c0f57604051633ed6d50560e21b815260040160405180910390fd5b610c2788888560000151600087602001516000613197565b610cb3565b6000881215610c6357610c637f00000000000000000000000000000000000000000000000000000000000000008f8a600003613085565b610c6f88888c8c6130f7565b600e54610c7c8883616126565b1115610c9b57604051633ed6d50560e21b815260040160405180910390fd5b610cb388886000866000015160008860200151613197565b610ccf8e89898760000151886040015189602001518c8c6134da565b50505050610ceb6002805460ff60e01b1916600160e01b179055565b610cfb8a8a8a8a88888c8c613560565b5050965096945050505050565b610d1061366f565b610d1861270a565b610d213361369a565b610d396002805460ff60e01b1916600160e01b179055565b565b610d436137e7565b610d4b613811565b6103e861ffff82161180610d6e575060025461ffff828116600160d01b90920416145b80610d90575061ffff811615801590610d9057506007546001600160a01b0316155b15610dae5760405163a709b9af60e01b815260040160405180910390fd5b610db7816138d7565b50565b6000808686610dc98282613948565b6f7fffffffffffffffffffffffffffffff6001600160801b0388161115610e0357604051638995290f60e01b815260040160405180910390fd5b6000610e0e88616139565b90506000610e20338c8c858c8c6139ca565b9050610e2a61270a565b610e32612e6b565b50506000610e41338d8d613b24565b9050610e4f818d8d86613b50565b909750955062ffffff821615610ec5576000808815610e8a57610e7b8962ffffff8616620f4240613c75565b9150610e87828a616168565b98505b8715610eb257610ea38862ffffff8616620f4240613c75565b9050610eaf8189616168565b97505b610ec26000806000808686613197565b50505b86861715610f2a576003810154610ee69088906001600160801b031661617b565b6003820154610f06908890600160801b90046001600160801b031661617b565b6001600160801b039182169116600160801b026001600160801b0319161760038201555b506001600160801b0389168617851715610fa157604080516001600160801b038b1681526020810188905280820187905262ffffff83166060820152905160028c810b92908e900b9133917f932214d4a69c27c086643126ed97c32681da179064c678836c173f99bd13ca01919081900360800190a45b610fb96002805460ff60e01b1916600160e01b179055565b610fc9338c8c858a8a8e8e613d0e565b505050509550959350505050565b600254600160c81b9004601016156110bd576006546040516346f0547760e11b80825233600483018181526001600160a01b038a81166024860152604485018a90526064850189905260a06084860190815260a486018890526110bd9694959190941693638de0a8ee93928c928c928c928c928c929060c401848480828437600081840152601f19601f8201169050808301925050509750505050505050506020604051808303816000875af1158015611095573d6000803e3d6000fd5b505050506040513d60208110156110ab57600080fd5b50516001600160e01b03191690613e1c565b6110c561270a565b6000806000806110d3612e6b565b90925090506000881561111c576110ef896064620f4240613e59565b905061111c7f00000000000000000000000000000000000000000000000000000000000000008b8b613085565b6000881561116057611133896064620f4240613e59565b90506111607f00000000000000000000000000000000000000000000000000000000000000008c8b613085565b61116c82828a8a613ed9565b600d5495508561117c8386616126565b111561119b576040516336de50ff60e11b815260040160405180910390fd5b600e549450846111ab8285616126565b11156111ca5760405163c998149f60e01b815260040160405180910390fd5b60025495849003959483900394600160d01b900461ffff16801561122a5760008715611200576111fd88836103e8613c75565b90505b600087156112185761121588846103e8613c75565b90505b61122782828484600080613197565b50505b604080518c8152602081018c90528082018990526060810188905290516001600160a01b038e169133917fbdbdb71d7860376ba52b25a5028beea23581364a40522f6bcfb86bb1f2dca6339181900360800190a3505050505061129b6002805460ff60e01b1916600160e01b179055565b600254600160c81b9004602016156113865761138663343d37ff60e01b600660009054906101000a90046001600160a01b03166001600160a01b031663343d37ff338b8b8b89898d8d6040518963ffffffff1660e01b815260040180896001600160a01b03168152602001886001600160a01b03168152602001878152602001868152602001858152602001848152602001806020018281038252848482818152602001925080828437600081840152601f19601f82011690508083019250505099505050505050505050506020604051808303816000875af1158015611095573d6000803e3d6000fd5b50505050505050565b60008061139a61270a565b60006113a7338888613b24565b60038101549091506001600160801b0380821691600160801b900481169087168210156113d2578196505b806001600160801b0316866001600160801b031611156113f0578095505b6001600160801b038787171615611536576001600160801b0387830381168783038216600160801b026001600160801b03191617600385015587955086945085161561146a5761146a7f00000000000000000000000000000000000000000000000000000000000000008b876001600160801b0316613085565b6001600160801b038416156114ad576114ad7f00000000000000000000000000000000000000000000000000000000000000008b866001600160801b0316613085565b6114d5856001600160801b0316600003856001600160801b0316600003600080600080613197565b604080516001600160a01b038c1681526001600160801b038088166020830152861681830152905160028a810b92908c900b9133917f70935338e69775456a85ddef226c395fb668b63fa0115f5f20610b388e6ca9c0919081900360600190a45b61154e6002805460ff60e01b1916600160e01b179055565b5050509550959350505050565b600254600160c81b8104608016151590600160e01b900460ff1661159257604051636798480960e11b815260040160405180910390fd5b6006546001600160a01b031633036115c757806115c257604051633a4528ef60e01b815260040160405180910390fd5b6115ee565b80156115e6576040516369cdc70760e11b815260040160405180910390fd5b6115ee613811565b6115f782613f3a565b5050565b60006040518060400160405280848152602001838152506040516020016116229190616021565b60408051601f19818403018152908290526312439b2f60e21b82529150309063490e6cbc9061165b9087908790879087906004016161a2565b600060405180830381600087803b15801561167557600080fd5b505af1158015611689573d6000803e3d6000fd5b5050505050505050565b600280546001600160a01b03811691600160a01b8204900b9061ffff600160b81b8204169060ff600160c81b820481169160009182918291600160e01b90910416806116f257604051636798480960e11b815260040160405180910390fd5b505060095495969495939492936001600160801b03660100000000000082041693600282810b9450630100000090920490910b9150565b600080600086121561174e576040516334cb3a0160e11b815260040160405180910390fd5b61175661270a565b600087156117b1576000611769600d5490565b905061177888600088886130f7565b6000611783600d5490565b90506117976117928383616168565b613fa4565b92506117aa836000806000806000613197565b50506117fb565b60006117bc600e5490565b90506117cb60008988886130f7565b60006117d6600e5490565b90506117e56117928383616168565b92506117f8600084600080600080613197565b50505b868114611806578096505b508560000361182857604051633ed6d50560e21b815260040160405180910390fd5b6118406002805460ff60e01b1916600160e01b179055565b6000806118538a8a8a8a60018b8b6125c0565b9150915061185f61270a565b611867612e6b565b505060408051606081018252600080825260208083018290528284018290528351808501909452818452830152906118a284848d8d8d612743565b6001600160801b03909116604088015260029190910b60208701526001600160a01b039091168552919750955090508a1561196c57600085121561190e5761190e7f00000000000000000000000000000000000000000000000000000000000000008d87600003613085565b858a038a8714611943576119437f00000000000000000000000000000000000000000000000000000000000000008f83613085565b61196661194f82613fa4565b600003878460000151600086602001516000613197565b506119fd565b60008612156119a3576119a37f00000000000000000000000000000000000000000000000000000000000000008d88600003613085565b848a038a86146119d8576119d87f00000000000000000000000000000000000000000000000000000000000000008f83613085565b6119fb876119e583613fa4565b6000036000856000015160008760200151613197565b505b611a198c87878560000151866040015187602001518a8a6134da565b611a316002805460ff60e01b1916600160e01b179055565b611a418c8c8c8c8a8a8e8e613560565b5050505097509795505050505050565b600f5463010000008104600290810b91900b03611a6d57600080fd5b600f54604051631d9de38760e11b8152600282810b6004830152630100000090920490910b60248201526001600160801b038216604482015260806064820152600060848201523090633b3bc70e9060a40160408051808303816000875af1158015611add573d6000803e3d6000fd5b505050506040513d601f19601f82011682018060405250810190611b0191906161d0565b505050565b60008060008787611b178282613948565b876001600160801b0316600003611b415760405163e6ace6df60e01b815260040160405180910390fd5b611b608b8b8b611b598c6001600160801b0316613fb8565b8b8b6139ca565b50611b6961270a565b60028054600160a01b810490910b906001600160a01b03166000819003611ba35760405163812eb65560e01b815260040160405180910390fd5b600954600160b01b9004600290810b9081908d900b81611bc557611bc56161f4565b078160020b8e60020b81611bdb57611bdb6161f4565b071760020b15611bfe57604051635f6e14f360e01b815260040160405180910390fd5b50611c1d8c8c611c168d6001600160801b0316613fb8565b8585613fcb565b50909750955060009150819050611c32612e6b565b91509150611c4287878b8b61407a565b8615611c615781611c52600d5490565b611c5c9190616168565b611c64565b60005b91508515611c855780611c76600e5490565b611c809190616168565b611c88565b60005b905086821015611cad57611ca68a6001600160801b03168389613c75565b9450611cb1565b8994505b85811015611cf1576000611ccf8b6001600160801b03168389613c75565b9050856001600160801b0316816001600160801b03161015611cef578095505b505b846001600160801b0316600003611d1b57604051632fae8a9b60e21b815260040160405180910390fd5b6000611d288e8e8e613b24565b9050611d47818e8e611d428a6001600160801b0316613fb8565b613b50565b9098509650508615611d9c5786821115611d8d57611d887f00000000000000000000000000000000000000000000000000000000000000008f898503613085565b611d9c565b868214611d9c57611d9c61620a565b8515611deb5785811115611ddc57611dd77f00000000000000000000000000000000000000000000000000000000000000008f888403613085565b611deb565b858114611deb57611deb61620a565b611dfb8787600080600080613197565b8a60020b8c60020b8e6001600160a01b03167f7a53080ba414158be7ec69b987b5fb7d07dee101fe85488f0853ae16239d0bde33898c8c60405180856001600160a01b03168152602001846001600160801b0316815260200183815260200182815260200194505050505060405180910390a4611e866002805460ff60e01b1916600160e01b179055565b611ea78d8d8d611e9e896001600160801b0316613fb8565b8b8b8f8f613d0e565b505050509750975097945050505050565b60008460020b1215611ed057611ecd84616220565b93505b611edd620d89e719616220565b611ee8906002616239565b60020b8460020b1315611f1057611f02620d89e719616220565b611f0d906002616239565b93505b60028054600160a01b9004900b6000611f298683616259565b90506000611f37878461627e565b90506000604051806040016040528087815260200186815250604051602001611f609190616021565b60408051601f19818403018152908290526302abf8a760e61b82529150309063aafe29c090611f9d9033908490889088908e90899060040161607e565b6060604051808303816000875af1158015611fbc573d6000803e3d6000fd5b505050506040513d601f19601f82011682018060405250810190611fe091906160d7565b505060408051808201909152600285810b825284900b6020909101525050600f805462ffffff93841665ffffffffffff1990911617630100000093909216929092021790555050505050565b6120346137e7565b6006546001600160a01b03168061205e57604051639e727ce360e01b815260040160405180910390fd5b336001600160a01b0382161461207657612076613811565b6115f7826140b9565b60006040518060400160405280848152602001838152506040516020016120a69190616021565b60408051601f1981840301815290829052639e4e022760e01b825291503090639e4e0227906120e390839081908b908b908b9089906004016162a3565b60408051808303816000875af1158015612101573d6000803e3d6000fd5b505050506040513d601f19601f8201168201806040525081019061168991906161d0565b61212d6137e7565b612135613811565b61213f60006140b9565b610db781614122565b6121506137e7565b336001600160a01b037f0000000000000000000000000000000000000000000000000000000000000000161461218857612188613811565b6001600160a01b0381161580156121ab5750600254600160d01b900461ffff1615155b156121ba576121ba60006138d7565b610db78161417d565b600254600160b81b810461ffff1690600160c81b900460ff8116906080161561226357600660009054906101000a90046001600160a01b03166001600160a01b031663f70d93626040518163ffffffff1660e01b8152600401602060405180830381865afa158015612239573d6000803e3d6000fd5b505050506040513d601f19601f8201168201806040525081019061225d91906162e5565b91505090565b5090565b60015b92915050565b6122786137e7565b612280613811565b60008160020b13158061229857506101f4600282900b135b806122b25750600954600282810b600160b01b909204900b145b156122d057604051632bf827d160e21b815260040160405180910390fd5b610db7816141d8565b600f5463010000008104600290810b91900b036122f557600080fd5b600f546040516309e3d67b60e31b81523060048201819052600283810b6024840152630100000090930490920b60448201526001600160801b03808516606483015283166084820152634f1eb3d89060a40160408051808303816000875af1158015612365573d6000803e3d6000fd5b505050506040513d601f19601f820116820180604052508101906123899190616302565b50505050565b600061239a82614241565b6002549091506001600160a01b0316156123c757604051631499a6b760e21b815260040160405180910390fd5b600280546001600160a01b03841676ffffffffffffffffffffffffffffffffffffffffffffff199091168117600160a01b62ffffff851602178255604080519182529183900b602082015281517f98636036cb66a9c19a37435efc1e90142190214e8abeb821bdba3f2990dd4c95929181900390910190a16006546001600160a01b0316156124b057600654604080516318dbf60160e21b8082523360048301526001600160a01b03868116602484015292516124b09491939091169163636fd80491604480830192602092919082900301816000875af1158015611095573d6000803e3d6000fd5b6000600160646124bf81613f3a565b6124c8826141d8565b61ffff8316158015906124e457506007546001600160a01b0316155b156125025760405163a709b9af60e01b815260040160405180910390fd5b61250b836138d7565b600254600160c81b900460401615612587576006546040805163416eb29160e11b8082523360048301526001600160a01b038981166024840152600289900b60448401529251612587949193909116916382dd652291606480830192602092919082900301816000875af1158015611095573d6000803e3d6000fd5b5050505050565b61259661366f565b61259e61270a565b6125a6612e6b565b5050610d396002805460ff60e01b1916600160e01b179055565b6002546000908190600160c81b9004600116156126fe576006546001600160a01b031633036125f4575060009050806126fe565b60065460405163029c1cb760e01b815233600482018181526001600160a01b038d811660248501528c15156044850152606484018c90528a8116608485015289151560a485015260e060c4850190815260e48501899052600095919091169363029c1cb793928f928f928f928f928f928f928f92909161010401848480828437600081840152601f19601f82011690508083019250505099505050505050505050506060604051808303816000875af11580156126b5573d6000803e3d6000fd5b505050506040513d60608110156126cb57600080fd5b508051602082015160409092015191945090925090506126fc6001600160e01b0319821663029c1cb760e01b613e1c565b505b97509795505050505050565b600254600160e01b900460ff1661273457604051636798480960e11b815260040160405180910390fd5b6002805460ff60e01b19169055565b6000806000806000612768604051806040016040528060008152602001600081525090565b87600003612789576040516301e76e6160e61b815260040160405180910390fd5b600160ff1b88036127ad576040516334cb3a0160e11b815260040160405180910390fd5b6040805161016081018252600060208201819052606082018190526080820181905260a0820181905262ffffff8d16610140830152808b1360c08301529181018a9052600954600281810b61012084015263010000008204810b610100840152805461ffff600160d01b820481168552600160b81b82041660e08501526001600160a01b0381169850600160a01b9004900b9550660100000000000090046001600160801b03169350908590036128775760405163812eb65560e01b815260040160405180910390fd5b62ffffff8c16156128bf5761288c8b8d616331565b62ffffff1660e08201819052620f4240116128ba576040516315b2afa960e01b815260040160405180910390fd5b612911565b62ffffff8b1615612911578a8160e0018181516128dc9190616331565b62ffffff90811690915260e0830151620f42409116109050612911576040516315b2afa960e01b815260040160405180910390fd5b891561297157846001600160a01b0316886001600160a01b031610158061294657506401000276a36001600160a01b03891611155b1561296457604051631662672360e01b815260040160405180910390fd5b60005460808201526129d6565b846001600160a01b0316886001600160a01b03161115806129af575073fffd8963efd1fc6a506488495d951d5263988d266001600160a01b03891610155b156129cd57604051631662672360e01b815260040160405180910390fd5b60015460808201525b612a086040518060a0016040528060008152602001600081526020016000815260200160008152602001600081525090565b60008b612a1a57826101200151612a21565b8261010001515b6001600160a01b03881683529050612a3881614554565b6001600160a01b0390811660208401819052612a75918e918a918e161182151514612a67578460200151612a69565b8c5b888f8860e0015161482f565b60808601526060850152604084015260c084015190975015612acd57612aa48260800151836040015101613fa4565b8b039a50612ac3612ab88360600151613fa4565b6060850151906149fd565b6060840152612b05565b612ada8260600151613fa4565b8b019a50612aff612af48360800151846040015101613fa4565b606085015190614a13565b60608401525b600083610140015162ffffff16118015612b28575060008360e0015162ffffff16115b15612b69576000612b51836080015185610140015162ffffff168660e0015162ffffff16613c75565b60808401805182900390526020860180519091019052505b825115612bab57825160808301516000916103e891612b8791614a29565b81612b9457612b946161f4565b608085018051929091049182900390528551018552505b6001600160801b03851615612be257612bd68260800151600160801b876001600160801b0316613c75565b60808401805190910190525b8160200151876001600160a01b031603612cfe578260200151612c1d57600160208401528b612c1357600054612c17565b6001545b60a08401525b60008c15612c8c5750608083015160a0840151600283810b600081815260036020819052604082209081018054828601805490980390975595909403909455600190920154600160801b810490910b61010087015261012086019190915260001983019750600f0b9003612cec565b5060a08301516080840151600283810b60008181526003602081905260409091209081018054828501805490970390965594909303909355600190910154600160981b810490910b6101208601526101008501919091529095508590600f0b5b612cf68682614a53565b955050612d20565b81516001600160a01b03881614612d2057612d1887614241565b955050612d47565b508915801590612d425750886001600160a01b0316866001600160a01b031614155b612a08575b60008a83604001510390508260c0015115158c151514612d6c57826060015181612d73565b8083606001515b6002805476ffffffffffffffffffffffffffffffffffffffffffffff1916600160a01b62ffffff8b160273ffffffffffffffffffffffffffffffffffffffff1916176001600160a01b038b161790556020850151919a509850159050612e40576101008201516101208301516009805462ffffff92831665ffffffffffff199091161763010000009290931691909102919091177fffffffffffffffffffff00000000000000000000000000000000ffffffffffff1666010000000000006001600160801b038716021790555b8a15612e53576080820151600055612e5c565b60808201516001555b50509550955095509550955095565b600080612e77600d5490565b600e5490925090506001600160801b03821180612e9a57506001600160801b0381115b15612f5d576007546001600160a01b03166001600160801b03831115612f0357612ef87f0000000000000000000000000000000000000000000000000000000000000000826ffffffffffffffffffffffffffffffffe198601613085565b6001600160801b0392505b6001600160801b03821115612f5b57612f507f0000000000000000000000000000000000000000000000000000000000000000826ffffffffffffffffffffffffffffffffe198501613085565b6001600160801b0391505b505b600954660100000000000090046001600160801b03166000819003612f8157509091565b600c546001600160801b0380821691600160801b9004168185118185118180612fa75750805b1561307c578115612fdf57612fd5846001600160801b03168803600160801b876001600160801b0316613c75565b6000805490910190555b801561301257613008836001600160801b03168703600160801b876001600160801b0316613c75565b6001805490910190555b604080516001600160801b038087168a0382528516880360208201527fef10ebb00f0dbc72ad4602e94abbbda6f3d40632714f70e9c8fa30d5d44289c9910160405180910390a16001600160801b03808816908716600160801b026001600160801b03191617600c555b50505050509091565b7f00000000000000000000000000000000000000000000000000000000000000006001600160a01b0316836001600160a01b0316036130db5780600d60008282546130d09190616168565b90915550611b019050565b80600e60008282546130ed9190616168565b9091555050505050565b801561314b57600061310b828401846163aa565b90508060000151600d60008282546131239190616126565b90915550506020810151600e805460009061313f908490616126565b90915550612389915050565b60008413156131715783600d60008282546131669190616126565b909155506123899050565b60008313156123895782600e600082825461318c9190616126565b909155505050505050565b60008411806131a65750600083115b806131b15750600082115b806131bc5750600081115b1561344e5760048054600790600160d01b900463ffffffff166000808080806131e88c8c888a8c614acd565b935093509350935080821760001461322e5761320382613fa4565b61320d908f6163c6565b61321682613fa4565b613220908f6163c6565b909e509c5060019450613294565b6001600160681b03848417161561329457600480547fffffffffffff000000000000000000000000000000000000000000000000000016600160681b6001600160681b03868116919091026cffffffffffffffffffffffffff1916919091179086161790555b60059750600696506132af8a8a8863ffffffff168a8c614acd565b92965090945092509050818117156133a2576132ca82613fa4565b6132d4908f6163c6565b6132dd82613fa4565b6132e7908f6163c6565b809e50819f5050506001945061339d63aa6b14bb60e01b600660009054906101000a90046001600160a01b03166001600160a01b031663aa6b14bb85856040518363ffffffff1660e01b815260040161334a929190918252602082015260400190565b6020604051808303816000875af1158015613369573d6000803e3d6000fd5b505050506040513d601f19601f8201168201806040525081019061338d91906163e6565b6001600160e01b03191690613e1c565b613408565b6001600160681b03848417161561340857600580547fffffffffffff000000000000000000000000000000000000000000000000000016600160681b6001600160681b03868116919091026cffffffffffffffffffffffffff1916919091179086161790555b841561344557600480547fffff00000000ffffffffffffffffffffffffffffffffffffffffffffffffffff16600160d01b4263ffffffff16021790555b50505050505050505b858517156134d257600c546001600160801b0380821691600160801b9004168715613491576134856134808984616410565b614bd9565b6001600160801b031691505b86156134b0576134a46134808883616410565b6001600160801b031690505b6001600160801b039182169116600160801b026001600160801b03191617600c555b505050505050565b60408051888152602081018890526001600160a01b03878116828401526001600160801b0387166060830152600286900b608083015262ffffff80861660a0840152841660c08301529151918a169133917f121cb44ee54098b1a04743c487e7460d8dd429b27f88b1f4d4767396e1a59f79919081900360e00190a35050505050505050565b60028054600160c81b90041615611689576006546001600160a01b0316331461168957611689639cb5a96360e01b600660009054906101000a90046001600160a01b03166001600160a01b0316639cb5a963338c8c8c8c8c8c8c8c6040518a63ffffffff1660e01b8152600401808a6001600160a01b03168152602001896001600160a01b031681526020018815158152602001878152602001866001600160a01b03168152602001858152602001848152602001806020018281038252848482818152602001925080828437600081840152601f19601f8201169050808301925050509a50505050505050505050506020604051808303816000875af1158015611095573d6000803e3d6000fd5b6006546001600160a01b03163314610d3957604051634994c26960e11b815260040160405180910390fd5b6000806136a6600d5490565b600e54600c5491935091506001600160801b0380821691600160801b900416818411806136db5750806001600160801b031683115b1561258757816001600160801b031684111561372e5761372e7f0000000000000000000000000000000000000000000000000000000000000000866137296001600160801b03861688616168565b613085565b806001600160801b0316831115613777576137777f0000000000000000000000000000000000000000000000000000000000000000866137296001600160801b03851687616168565b6001600160a01b0385167fb94331e4420f16b156f53c397a8adcd09481283ee7830f7b688b22858e9db80b6137b56001600160801b03851687616168565b6137c86001600160801b03851687616168565b6040805192835260208301919091520160405180910390a25050505050565b600254600160e01b900460ff16610d3957604051636798480960e11b815260040160405180910390fd5b6040805163e8ae2b6960e01b81527fb73ce166ead2f8e9add217713a7989e4edfba9625f71dfd2516204bb67ad3442600482015233602482015290516001600160a01b037f0000000000000000000000000000000000000000000000000000000000000000169163e8ae2b699160448083019260209291908290030181865afa1580156138a2573d6000803e3d6000fd5b505050506040513d60208110156138b857600080fd5b5051610d3957604051634994c26960e11b815260040160405180910390fd5b600280547fffffffff0000ffffffffffffffffffffffffffffffffffffffffffffffffffff16600160d01b61ffff8416908102919091179091556040519081527f3647dccc990d4941b0b05b32527ef493a98d6187b20639ca2f9743f3b55ca5e1906020015b60405180910390a150565b613955620d89e719616220565b60020b8160020b131561397b57604051631445443d60e01b815260040160405180910390fd5b8160020b8160020b136139a15760405163d9a841a760e01b815260040160405180910390fd5b620d89e719600283900b12156115f757604051631d1ac7f160e21b815260040160405180910390fd5b600254600090600160c81b900460041615613b1a576006546001600160a01b031633036139f957506000613b1a565b600654604051632f1208d960e11b815233600482018181526001600160a01b038b8116602485015260028b810b60448601528a900b6064850152600f89900b608485015260c060a4850190815260c485018890526000959190911693635e2411b293928d928d928d928d928d928d92919060e401848480828437600081840152601f19601f8201169050808301925050509850505050505050505060408051808303816000875af1158015613ab2573d6000803e3d6000fd5b505050506040513d6040811015613ac857600080fd5b50805160209091015192509050620f424062ffffff831610613afd576040516315b2afa960e01b815260040160405180910390fd5b613b186001600160e01b03198216632f1208d960e11b613e1c565b505b9695505050505050565b62ffffff818116908316601885811b91909117901b176000908152600b602052604090205b9392505050565b6002805460008054600154919384936001600160a01b03811693600160a01b90910490910b918491829190600f89900b15613bac57613b9660038c878c86866000614bef565b9350613ba960038b878c86866001614bef565b92505b600080613bbe60038e8e8a8888614ce0565b91509150613bce8e8c8484614d7d565b5050505086600f0b600014613c68578180613be65750805b15613bff57613bff898984848760008d600f0b12614e72565b6000613c0e8a8a8a8789613fcb565b91985096509050600f81900b15613c6657600954613c3f90660100000000000090046001600160801b031689614a53565b600960066101000a8154816001600160801b0302191690836001600160801b031602179055505b505b5050505094509492505050565b60008383028160001985870982811083820303915050808411613c9757600080fd5b80600003613caa57508290049050613b49565b8385870960008581038616958690049560026003880281188089028203028089028203028089028203028089028203028089028203028089029091030291819003819004600101858411909403939093029190930391909104170290509392505050565b6006546001600160a01b0316331461168957600254600160c81b9004600816156116895761168963d685201060e01b600660009054906101000a90046001600160a01b03166001600160a01b031663d6852010338c8c8c8c8c8c8c8c6040518a63ffffffff1660e01b8152600401808a6001600160a01b03168152602001896001600160a01b031681526020018860020b81526020018760020b815260200186600f0b8152602001858152602001848152602001806020018281038252848482818152602001925080828437600081840152601f19601f8201169050808301925050509a50505050505050505050506020604051808303816000875af1158015611095573d6000803e3d6000fd5b6001600160e01b0319828116908216146115f75760405163d3f5153b60e01b81526001600160e01b03198216600482015260240160405180910390fd5b6000831580613e7a57505082820282848281613e7757613e776161f4565b04145b15613e9b5760008211613e8c57600080fd5b81810490829006151501613b49565b613ea6848484613c75565b905060008280613eb857613eb86161f4565b8486091115613b49576000198110613ecf57600080fd5b6001019392505050565b6000613ee7828401846163aa565b8051909150613ef7908690616126565b600d6000828254613f089190616126565b90915550506020810151613f1d908590616126565b600e6000828254613f2e9190616126565b90915550505050505050565b600280547fffffffffffffff0000ffffffffffffffffffffffffffffffffffffffffffffff16600160b81b61ffff8416908102919091179091556040519081527f598b9f043c813aa6be3426ca60d1c65d17256312890be5118dab55b0775ebe2a9060200161393d565b806000811215613fb357600080fd5b919050565b806000600f82900b1215613fb357600080fd5b600080600080613fda89614554565b90506000613fe789614554565b90506000808b60020b8960020b121561400c5761400584848c614f6b565b915061404a565b8a60020b8960020b121561403c5761402588848c614f6b565b915061403284898c614fab565b905089945061404a565b61404784848c614fab565b90505b60008a600f0b1261405c578181614065565b81600003816000035b909d909c50949a509398505050505050505050565b801561408e57600061310b828401846163aa565b83600d60008282546140a09190616126565b9250508190555082600e600082825461318c9190616126565b600280547fffffffffffff00ffffffffffffffffffffffffffffffffffffffffffffffffff16600160c81b60ff8416908102919091179091556040519081527f3a6271b36c1b44bd6a0a0d56230602dc6919b7c17af57254306fadf5fee69dc39060200161393d565b6006805473ffffffffffffffffffffffffffffffffffffffff19166001600160a01b0383169081179091556040519081527f27a3944eff2135a57675f17e72501038982b73620d01f794c72e93d61a3932a29060200161393d565b6007805473ffffffffffffffffffffffffffffffffffffffff19166001600160a01b0383169081179091556040519081527fb0b573c1f636e1f8bd9b415ba6c04d6dd49100bc25493fc6305b65ec0e581df39060200161393d565b600980547fffffffffffffff000000ffffffffffffffffffffffffffffffffffffffffffff16600160b01b62ffffff841602179055604051600282900b81527f01413b1d5d4c359e9a0daa7909ecda165f6e8c51fe2ff529d74b22a5a7c026459060200161393d565b60006401000276a36001600160a01b038316108061427c575073fffd8963efd1fc6a506488495d951d5263988d266001600160a01b03831610155b1561429a576040516355cf1e2360e01b815260040160405180910390fd5b77ffffffffffffffffffffffffffffffffffffffff00000000602083901b166001600160801b03811160071b81811c67ffffffffffffffff811160061b90811c63ffffffff811160051b90811c61ffff811160041b90811c60ff8111600390811b91821c600f811160021b90811c918211600190811b92831c9790881196179094179092171790911717176080811061433b57607f810383901c9150614345565b80607f0383901b91505b908002607f81811c60ff83811c9190911c800280831c81831c1c800280841c81841c1c800280851c81851c1c800280861c81861c1c800280871c81871c1c800280881c81881c1c800280891c81891c1c8002808a1c818a1c1c8002808b1c818b1c1c8002808c1c818c1c1c8002808d1c818d1c1c8002808e1c9c81901c9c909c1c80029c8d901c9e9d607f198f0160401b60c09190911c678000000000000000161760c19b909b1c674000000000000000169a909a1760c29990991c672000000000000000169890981760c39790971c671000000000000000169690961760c49590951c670800000000000000169490941760c59390931c670400000000000000169290921760c69190911c670200000000000000161760c79190911c670100000000000000161760c89190911c6680000000000000161760c99190911c6640000000000000161760ca9190911c6620000000000000161760cb9190911c6610000000000000161760cc9190911c6608000000000000161760cd9190911c66040000000000001617693627a301d71055774c8581026f028f6481ab7f045a5af012a19d003aa9198101608090811d906fdb2df09e81959a81455e260799a0632f8301901d600281810b9083900b1461454557886001600160a01b031661452a82614554565b6001600160a01b0316111561453f5781614547565b80614547565b815b9998505050505050505050565b6000600282900b60171d62ffffff818401821816620d89e881111561458c57604051633c10250f60e01b815260040160405180910390fd5b600160801b60018216156145ad57506ffffcb933bd6fad37aa2d162d1a5940015b60028216156145cc576ffff97272373d413259a46990580e213a0260801c5b60048216156145eb576ffff2e50f5f656932ef12357cf3c7fdcc0260801c5b600882161561460a576fffe5caca7e10e4e61c3624eaa0941cd00260801c5b6010821615614629576fffcb9843d60f6159c9db58835c9266440260801c5b6020821615614648576fff973b41fa98c081472e6896dfb254c00260801c5b6040821615614667576fff2ea16466c96a3843ec78b326b528610260801c5b6080821615614686576ffe5dee046a99a2a811c461f1969c30530260801c5b6101008216156146a6576ffcbe86c7900a88aedcffc83b479aa3a40260801c5b6102008216156146c6576ff987a7253ac413176f2b074cf7815e540260801c5b6104008216156146e6576ff3392b0822b70005940c7a398e4b70f30260801c5b610800821615614706576fe7159475a2c29b7443b29c7fa6e889d90260801c5b611000821615614726576fd097f3bdfd2022b8845ad8f792aa58250260801c5b612000821615614746576fa9f746462d870fdf8a65dc1f90e061e50260801c5b614000821615614766576f70d869a156d2a1b890bb3df62baf32f70260801c5b618000821615614786576f31be135f97d08fd981231505542fcfa60260801c5b620100008216156147a7576f09aa508b5b7a84e1c677de54f3e99bc90260801c5b620200008216156147c7576e5d6af8dedb81196699c329225ee6040260801c5b62040000821061480d57620400008216156147f0576d2216e584f5fa1ea926041bedfe980260801c5b6208000082161561480d576b048a170391f7dc42444e8fa20260801c5b60008560020b131561481e57600019045b63ffffffff0160201c949350505050565b600080600080615a758a61484557614fdb614849565b614fea5b90506000871261491d5760006148728888620f42400362ffffff16620f424062ffffff16613c75565b90506148838a8c8b8563ffffffff16565b94508481106148b0578995506148a9858862ffffff1689620f42400362ffffff16613e59565b92506148f6565b6148bc8b8a838f614ff9565b9550856001600160a01b03168a6001600160a01b0316036148df576148df61620a565b6148ee868c8b8563ffffffff16565b945084880392505b614915868c8b8f6149095761501261490d565b6150215b63ffffffff16565b9350506149ef565b615a758b61492d57615012614931565b6150215b90506149428a8c8b8463ffffffff16565b9350876000039750600088121561496c576040516334cb3a0160e11b815260040160405180910390fd5b83881061497b578995506149c0565b6149878b8a8a8f615030565b9550856001600160a01b03168a6001600160a01b0316146149b4576149b1868c8b8463ffffffff16565b93505b878411156149c0578793505b6149cf868c8b8563ffffffff16565b94506149eb858862ffffff1689620f42400362ffffff16613e59565b9250505b509650965096509692505050565b8082038281131560008312151461226a57600080fd5b8181018281121560008312151461226a57600080fd5b6000821580614a4a57505081810281838281614a4757614a476161f4565b04145b61226a57600080fd5b60008082600f0b1215614a9557508082016001600160801b0380841690821610614a90576040516302603ee960e31b815260040160405180910390fd5b61226a565b826001600160801b03168284019150816001600160801b0316101561226a57604051634cba017960e11b815260040160405180910390fd5b600080808088881715614b7b5784546001600160681b038082169160681c16614af68b83616126565b9150614b028a82616126565b9050617080614b178a63ffffffff4216616168565b101580614b2a57506001600160681b0382115b80614b3b57506001600160681b0381115b15614b6a578754600080614b50858585615040565b6000808d559a508a99509097509550614bcd945050505050565b909450925060009150819050614bcd565b617080614b8e8863ffffffff4216616168565b10614bc05784546001600160681b038082169160681c1680821715614bbd578754600080614b50858585615040565b50505b5060009250829150819050805b95509550955095915050565b806001600160801b0381168114613fb357600080fd5b600286900b6000908152602088905260408120805482614c0f8289614a53565b6001600160801b031690506d09745258e83de0d0f4e400fce799811115614c49576040516312dc1b2560e11b815260040160405180910390fd5b6001830154600f0b85614c6d5788600f0b81600f0b614c689190616410565b614c7f565b88600f0b81600f0b614c7f91906163c6565b6001850180546001600160801b0319166001600160801b0392909216919091179055818455811594506000839003614cd157841594508960020b8b60020b13614cd15760038401879055600284018890555b50505050979650505050505050565b600285810b60009081526020889052604080822087840b8084529183209293849391929088900b1215614d56578860020b8760020b12614d3157816002015486039350816003015485039250614d40565b81600201549350816003015492505b6002810154600382015494039390920391610cfb565b81600201548160020154039350816003015481600301540392505050965096945050505050565b8354600f84900b600003614da757806001600160801b0316600003614da25750612389565b614dbd565b614db18185614a53565b6001600160801b031685555b600185015460028601546000858314614df45760018801869055614df18387036001600160801b038616600160801b613c75565b90505b6000858314614e215760028901869055614e1e8387036001600160801b038716600160801b613c75565b90505b6001600160801b038282171615614e6757600389018054600160801b6001600160801b03808316860181166001600160801b031990931683178290048116850116021790555b505050505050505050565b60095463010000008104600290810b919081900b90600160c81b900463ffffffff168282828915614eb357614eab8c898386868c6150ba565b919450925090505b8815614ecf57614ec78b898386868c6150ba565b919450925090505b8260020b8660020b141580614eea57508160020b8560020b14155b80614f0157508363ffffffff168163ffffffff1614155b15614f5d576009805462ffffff80861663010000000265ffffffffffff1963ffffffff8616600160c81b02167fffffff00000000ffffffffffffffffffffffffffffffffffffff00000000000090931692909217908516171790555b505050505050505050505050565b60008082600f0b1215614f9357614f8b61179285858560000360006151af565b600003614fa3565b614fa361179285858560016151af565b949350505050565b60008082600f0b1215614fcb57614f8b611792858585600003600061525c565b614fa3611792858585600161525c565b6000614fa3838584600161525c565b6000614fa384848460016151af565b60006150098585858560016152c3565b95945050505050565b6000614fa383858460006151af565b6000614fa3848484600061525c565b60006150098585858560006152c3565b6000808080861561507a576150767f00000000000000000000000000000000000000000000000000000000000000008689613085565b8691505b85156150ae576150ab7f00000000000000000000000000000000000000000000000000000000000000008688613085565b50845b90969095509350505050565b60008060008315615104576000806150d360038c6154f3565b915091508a60020b8860020b036150ec578197506150fd565b8a60020b8760020b036150fd578096505b505061518d565b6000808a60020b8860020b12801561512157508a60020b8760020b135b1561514a57508690508560028a810b908c900b1315615142578a965061517d565b8a975061517d565b6151586008600a8b8e615661565b600281810b600090815260036020526040902060010154600160801b9004900b925090505b61518a60038c8484615716565b50505b600061519d6008600a8a8d61580c565b969a9599509597509395505050505050565b60006001600160a01b03858503811690851681106151cc57600080fd5b7bffffffffffffffffffffffffffffffff000000000000000000000000606085901b168361522557866001600160a01b03166152128383896001600160a01b0316613c75565b8161521f5761521f6161f4565b04615251565b61525161523c8383896001600160a01b0316613e59565b886001600160a01b0316808204910615150190565b979650505050505050565b6000846001600160a01b0316846001600160a01b0316101561527d57600080fd5b6001600160a01b0385850316826152ab576152a681856001600160801b0316600160601b613c75565b613b1a565b613b1a81856001600160801b0316600160601b613e59565b6000856001600160a01b03166000036152db57600080fd5b846001600160801b03166000036152f157600080fd5b83600003615300575084615009565b8115158315150361540e577bffffffffffffffffffffffffffffffff000000000000000000000000606086901b1682156153bc576001600160a01b03871685810290868281615351576153516161f4565b04036153815781810182811061537f57615375838a6001600160a01b031683613e59565b9350505050615009565b505b6153b3826153a8888b6001600160a01b031686816153a1576153a16161f4565b04906158a4565b808204910615150190565b92505050615009565b6001600160a01b038716858102908682816153d9576153d96161f4565b04146153e457600080fd5b8082116153f057600080fd5b6153b3615409838a6001600160a01b0316848603613e59565b6158b4565b811561547b576154746154096001600160a01b038611156154465761544186600160601b896001600160801b0316613c75565b615464565b6001600160801b038716606087901b81615462576154626161f4565b045b6001600160a01b038916906158a4565b9050615009565b60006001600160a01b038511156154a9576154a485600160601b886001600160801b0316613e59565b6154c6565b6154c6606086901b6001600160801b038816808204910615150190565b905080876001600160a01b0316116154dd57600080fd5b6001600160a01b03871603905095945050505050565b600281810b60008181526020859052604081206001810180548383557fffffffffffffffffffff000000000000000000000000000000000000000000008116909155818501839055600390910191909155600160801b8104830b92600160981b909104900b90620d89e719148061557b5750615572620d89e719616220565b60020b8360020b145b156155d457600283900b6000908152602085905260409020600101805462ffffff808516600160801b0262ffffff60801b19918516600160981b029190911665ffffffffffff60801b199092169190911717905561565a565b8060020b8260020b036155fa57604051630d6e094960e01b815260040160405180910390fd5b600282810b6000908152602086905260408082206001908101805462ffffff808816600160981b0262ffffff60981b19909216919091179091559385900b83529120018054918416600160801b0262ffffff60801b199092169190911790555b9250929050565b600190810190600090600883811d610d8a01901c90829061ffff83161b851663ffffffff16156156c45761569587856158ca565b909450909250905080156156aa575050614fa3565b6156bb86610d8b840160010b6158ca565b90945090925090505b80615707576156e28563ffffffff168360010193508360010b6158fb565b9093509050806156fa5750620d89e89150614fa39050565b6157048684615a49565b92505b61525187610d89198501615a49565b600283900b620d89e719148061573d5750615734620d89e719616220565b60020b8360020b145b612389578260020b8260020b12801561575b57508260020b8160020b135b6157785760405163e45ac17d60e01b815260040160405180910390fd5b600283810b600090815260209590955260408086206001908101805465ffffffffffff60801b1916600160981b62ffffff878116820262ffffff60801b1990811693909317600160801b8a831681029190911790945597860b8a52848a208401805462ffffff60981b191698909916908102979097179097559390920b865290942090930180549092169202919091179055565b816000806158498785600881901d600181810b60009081526020949094526040909320805460ff9093169390931b80831890935591811490151891565b91509150811561589a57610d8a01600181810b60081d80820b6000908152602089905260409020805460ff9094169290921b80841890925582159190921481811893501461589a576001811b831892505b5050949350505050565b8082018281101561226a57600080fd5b806001600160a01b0381168114613fb357600080fd5b600881901d600181900b60009081526020849052604081205481906158ef90856158fb565b93969095509293505050565b60008060ff831684811c808303615917578460ff179350615a40565b7f555555555555555555555555555555555555555555555555555555555555555560008290038216908116156001600160801b0382161560071b1777ffffffffffffffff0000000000000000ffffffffffffffff82161560061b177bffffffff00000000ffffffff00000000ffffffff00000000ffffffff82161560051b177dffff0000ffff0000ffff0000ffff0000ffff0000ffff0000ffff0000ffff82161560041b177eff00ff00ff00ff00ff00ff00ff00ff00ff00ff00ff00ff00ff00ff00ff00ff82161560031b177f0f0f0f0f0f0f0f0f0f0f0f0f0f0f0f0f0f0f0f0f0f0f0f0f0f0f0f0f0f0f0f0f82161560021b177f33333333333333333333333333333333333333333333333333333333333333339091161560011b1760ff1685019350600192505b50509250929050565b600181900b600090815260208390526040902054600882901b90615a6d90826158fb565b509392505050565b610d39616438565b8035600281900b8114613fb357600080fd5b6001600160801b0381168114610db757600080fd5b600080600080600060a08688031215615abc57600080fd5b615ac586615a7d565b9450615ad360208701615a7d565b93506040860135615ae381615a8f565b94979396509394606081013594506080013592915050565b60008060408385031215615b0e57600080fd5b50508035926020909101359150565b6001600160a01b0381168114610db757600080fd5b80358015158114613fb357600080fd5b60008083601f840112615b5457600080fd5b50813567ffffffffffffffff811115615b6c57600080fd5b60208301915083602082850101111561565a57600080fd5b60008060008060008060a08789031215615b9d57600080fd5b8635615ba881615b1d565b9550615bb660208801615b32565b9450604087013593506060870135615bcd81615b1d565b9250608087013567ffffffffffffffff811115615be957600080fd5b615bf589828a01615b42565b979a9699509497509295939492505050565b61ffff81168114610db757600080fd5b600060208284031215615c2957600080fd5b8135613b4981615c07565b600080600080600060808688031215615c4c57600080fd5b615c5586615a7d565b9450615c6360208701615a7d565b93506040860135615c7381615a8f565b9250606086013567ffffffffffffffff811115615c8f57600080fd5b615c9b88828901615b42565b969995985093965092949392505050565b600080600080600060808688031215615cc457600080fd5b8535615ccf81615b1d565b94506020860135935060408601359250606086013567ffffffffffffffff811115615c8f57600080fd5b600080600080600060a08688031215615d1157600080fd5b8535615d1c81615b1d565b9450615d2a60208701615a7d565b9350615d3860408701615a7d565b92506060860135615d4881615a8f565b91506080860135615d5881615a8f565b809150509295509295909350565b600060208284031215615d7857600080fd5b5035919050565b600080600060608486031215615d9457600080fd5b8335615d9f81615b1d565b95602085013595506040909401359392505050565b600080600080600080600060c0888a031215615dcf57600080fd5b8735615dda81615b1d565b96506020880135615dea81615b1d565b9550615df860408901615b32565b9450606088013593506080880135615e0f81615b1d565b925060a088013567ffffffffffffffff811115615e2b57600080fd5b615e378a828b01615b42565b989b979a50959850939692959293505050565b600060208284031215615e5c57600080fd5b8135613b4981615a8f565b600080600080600080600060c0888a031215615e8257600080fd5b8735615e8d81615b1d565b96506020880135615e9d81615b1d565b9550615eab60408901615a7d565b9450615eb960608901615a7d565b93506080880135615e0f81615a8f565b60008060008060808587031215615edf57600080fd5b615ee885615a7d565b93506020850135615ef881615a8f565b93969395505050506040820135916060013590565b600060208284031215615f1f57600080fd5b813560ff81168114613b4957600080fd5b600080600080600060a08688031215615f4857600080fd5b615f5186615b32565b9450602086013593506040860135615ae381615b1d565b600060208284031215615f7a57600080fd5b81358060010b8114613b4957600080fd5b600060208284031215615f9d57600080fd5b8135613b4981615b1d565b60008060408385031215615fbb57600080fd5b823591506020830135615fcd81615b1d565b809150509250929050565b600060208284031215615fea57600080fd5b613b4982615a7d565b6000806040838503121561600657600080fd5b823561601181615a8f565b91506020830135615fcd81615a8f565b81518152602080830151908201526040810161226a565b6000815180845260005b8181101561605e57602081850181015186830182015201616042565b506000602082860101526020601f19601f83011685010191505092915050565b60006001600160a01b0380891683528088166020840152508560020b60408301528460020b60608301526001600160801b038416608083015260c060a08301526160cb60c0830184616038565b98975050505050505050565b6000806000606084860312156160ec57600080fd5b8351925060208401519150604084015161610581615a8f565b809150509250925092565b634e487b7160e01b600052601160045260246000fd5b8082018082111561226a5761226a616110565b600081600f0b6f7fffffffffffffffffffffffffffffff19810361615f5761615f616110565b60000392915050565b8181038181111561226a5761226a616110565b6001600160801b0381811683821601908082111561619b5761619b616110565b5092915050565b6001600160a01b0385168152836020820152826040820152608060608201526000613b1a6080830184616038565b600080604083850312156161e357600080fd5b505080516020909101519092909150565b634e487b7160e01b600052601260045260246000fd5b634e487b7160e01b600052600160045260246000fd5b60008160020b627fffff19810361615f5761615f616110565b60008260020b8260020b028060020b915080821461619b5761619b616110565b600282810b9082900b03627fffff198112627fffff8213171561226a5761226a616110565b600281810b9083900b01627fffff8113627fffff198212171561226a5761226a616110565b60006001600160a01b0380891683528088166020840152861515604084015285606084015280851660808401525060c060a08301526160cb60c0830184616038565b6000602082840312156162f757600080fd5b8151613b4981615c07565b6000806040838503121561631557600080fd5b825161632081615a8f565b6020840151909250615fcd81615a8f565b62ffffff81811683821601908082111561619b5761619b616110565b60006040828403121561635f57600080fd5b6040516040810181811067ffffffffffffffff8211171561639057634e487b7160e01b600052604160045260246000fd5b604052823581526020928301359281019290925250919050565b6000604082840312156163bc57600080fd5b613b49838361634d565b818103600083128015838313168383128216171561619b5761619b616110565b6000602082840312156163f857600080fd5b81516001600160e01b031981168114613b4957600080fd5b808201828112600083128015821682158216171561643057616430616110565b505092915050565b634e487b7160e01b600052605160045260246000fdfea164736f6c6343000814000a",
  "linkReferences": {},
  "deployedLinkReferences": {}
}