{
  "_format": "hh-sol-artifact-1",
  "contractName": "MockPositionFollower",
  "sourceName": "contracts/test/MockPositionFollower.sol",
  "abi": [
    {
      "inputs": [],
      "stateMutability": "nonpayable",
      "type": "constructor"
    },
    {
      "inputs": [],
      "name": "someCustomError",
      "type": "error"
    },
    {
      "inputs": [
        {
          "internalType": "uint256",
          "name": "tokenId",
          "type": "uint256"
        },
        {
          "internalType": "int256",
          "name": "",
          "type": "int256"
        }
      ],
      "name": "applyLiquidityDelta",
      "outputs": [],
      "stateMutability": "nonpayable",
      "type": "function"
    },
    {
      "inputs": [
        {
          "internalType": "address",
          "name": "posManager",
          "type": "address"
        },
        {
          "internalType": "uint256",
          "name": "tokenId",
          "type": "uint256"
        }
      ],
      "name": "enterToFarming",
      "outputs": [],
      "stateMutability": "nonpayable",
      "type": "function"
    },
    {
      "inputs": [
        {
          "internalType": "address",
          "name": "posManager",
          "type": "address"
        },
        {
          "internalType": "uint256",
          "name": "tokenId",
          "type": "uint256"
        }
      ],
      "name": "exitFromFarming",
      "outputs": [],
      "stateMutability": "nonpayable",
      "type": "function"
    },
    {
      "inputs": [
        {
          "internalType": "uint256",
          "name": "tokenId",
          "type": "uint256"
        },
        {
          "internalType": "enum MockPositionFollower.Failure",
          "name": "value",
          "type": "uint8"
        }
      ],
      "name": "setFailForToken",
      "outputs": [],
      "stateMutability": "nonpayable",
      "type": "function"
    },
    {
      "inputs": [],
      "name": "wasCalled",
      "outputs": [
        {
          "internalType": "bool",
          "name": "",
          "type": "bool"
        }
      ],
      "stateMutability": "view",
      "type": "function"
    }
  ],
  "bytecode": "0x608060405234801561001057600080fd5b5060405161001d90610064565b604051809103906000f080158015610039573d6000803e3d6000fd5b506001806101000a8154816001600160a01b0302191690836001600160a01b03160217905550610070565b60828061060a83390190565b61058b8061007f6000396000f3fe608060405234801561001057600080fd5b50600436106100675760003560e01c80638b0f5539116100505780638b0f553914610094578063c6803622146100a7578063e60a9191146100c857600080fd5b806306e65c901461006c5780635e53b4c614610081575b600080fd5b61007f61007a36600461044a565b6100db565b005b61007f61008f36600461046c565b610312565b61007f6100a23660046104a0565b610364565b6001546100b49060ff1681565b604051901515815260200160405180910390f35b61007f6100d63660046104a0565b6103f0565b600082815260208190526040812054600180547fffffffffffffffffffffffffffffffffffffffffffffffffffffffffffffff00168117905560ff169081600681111561012a5761012a6104e5565b0361013457505050565b6001816006811115610148576101486104e5565b0361015d57600061015a816064610514565b50505b6002816006811115610171576101716104e5565b0361017e5761017e61054f565b6003816006811115610192576101926104e5565b036101fd576040517f08c379a000000000000000000000000000000000000000000000000000000000815260206004820152601260248201527f4572726f722077697468206d6573736167650000000000000000000000000000604482015260640160405180910390fd5b6004816006811115610211576102116104e5565b0361021b57600080fd5b600581600681111561022f5761022f6104e5565b03610266576040517f0b524bd500000000000000000000000000000000000000000000000000000000815260040160405180910390fd5b600681600681111561027a5761027a6104e5565b0361030d576001546040517f2f048afa0000000000000000000000000000000000000000000000000000000081526064600482015261010090910473ffffffffffffffffffffffffffffffffffffffff1690632f048afa9061138890602401600060405180830381600088803b1580156102f357600080fd5b5087f1158015610307573d6000803e3d6000fd5b50505050505b505050565b600082815260208190526040902080548291907fffffffffffffffffffffffffffffffffffffffffffffffffffffffffffffff0016600183600681111561035b5761035b6104e5565b02179055505050565b6040517f70227515000000000000000000000000000000000000000000000000000000008152600481018290526001602482015273ffffffffffffffffffffffffffffffffffffffff8316906370227515906044015b600060405180830381600087803b1580156103d457600080fd5b505af11580156103e8573d6000803e3d6000fd5b505050505050565b6040517f70227515000000000000000000000000000000000000000000000000000000008152600481018290526000602482015273ffffffffffffffffffffffffffffffffffffffff8316906370227515906044016103ba565b6000806040838503121561045d57600080fd5b50508035926020909101359150565b6000806040838503121561047f57600080fd5b8235915060208301356007811061049557600080fd5b809150509250929050565b600080604083850312156104b357600080fd5b823573ffffffffffffffffffffffffffffffffffffffff811681146104d757600080fd5b946020939093013593505050565b7f4e487b7100000000000000000000000000000000000000000000000000000000600052602160045260246000fd5b60008261054a577f4e487b7100000000000000000000000000000000000000000000000000000000600052601260045260246000fd5b500490565b7f4e487b7100000000000000000000000000000000000000000000000000000000600052600160045260246000fdfea164736f6c6343000814000a6080604052348015600f57600080fd5b5060648061001e6000396000f3fe6080604052348015600f57600080fd5b506004361060285760003560e01c80632f048afa14602d575b600080fd5b603d6038366004603f565b600055565b005b600060208284031215605057600080fd5b503591905056fea164736f6c6343000814000a",
  "linkReferences": {},
  "deployedLinkReferences": {}
}