{
  "_format": "hh-sol-artifact-1",
  "contractName": "MockDummyContract",
  "sourceName": "contracts/test/MockPositionFollower.sol",
  "abi": [
    {
      "inputs": [
        {
          "internalType": "uint256",
          "name": "value",
          "type": "uint256"
        }
      ],
      "name": "write",
      "outputs": [],
      "stateMutability": "nonpayable",
      "type": "function"
    }
  ],
  "bytecode": "0x6080604052348015600f57600080fd5b5060648061001e6000396000f3fe6080604052348015600f57600080fd5b506004361060285760003560e01c80632f048afa14602d575b600080fd5b603d6038366004603f565b600055565b005b600060208284031215605057600080fd5b503591905056fea164736f6c6343000814000a",
  "linkReferences": {},
  "deployedLinkReferences": {}
}