{
  "_format": "hh-sol-artifact-1",
  "contractName": "CustomPlugin",
  "sourceName": "contracts/test/CustomPlugin.sol",
  "abi": [
    {
      "inputs": [],
      "name": "ALGEBRA_BASE_PLUGIN_MANAGER",
      "outputs": [
        {
          "internalType": "bytes32",
          "name": "",
          "type": "bytes32"
        }
      ],
      "stateMutability": "view",
      "type": "function"
    },
    {
      "inputs": [
        {
          "internalType": "address",
          "name": "",
          "type": "address"
        },
        {
          "internalType": "address",
          "name": "",
          "type": "address"
        },
        {
          "internalType": "uint256",
          "name": "",
          "type": "uint256"
        },
        {
          "internalType": "uint256",
          "name": "",
          "type": "uint256"
        },
        {
          "internalType": "uint256",
          "name": "",
          "type": "uint256"
        },
        {
          "internalType": "uint256",
          "name": "",
          "type": "uint256"
        },
        {
          "internalType": "bytes",
          "name": "",
          "type": "bytes"
        }
      ],
      "name": "afterFlash",
      "outputs": [
        {
          "internalType": "bytes4",
          "name": "",
          "type": "bytes4"
        }
      ],
      "stateMutability": "nonpayable",
      "type": "function"
    },
    {
      "inputs": [
        {
          "internalType": "address",
          "name": "",
          "type": "address"
        },
        {
          "internalType": "uint160",
          "name": "",
          "type": "uint160"
        },
        {
          "internalType": "int24",
          "name": "",
          "type": "int24"
        }
      ],
      "name": "afterInitialize",
      "outputs": [
        {
          "internalType": "bytes4",
          "name": "",
          "type": "bytes4"
        }
      ],
      "stateMutability": "nonpayable",
      "type": "function"
    },
    {
      "inputs": [
        {
          "internalType": "address",
          "name": "",
          "type": "address"
        },
        {
          "internalType": "address",
          "name": "",
          "type": "address"
        },
        {
          "internalType": "int24",
          "name": "",
          "type": "int24"
        },
        {
          "internalType": "int24",
          "name": "",
          "type": "int24"
        },
        {
          "internalType": "int128",
          "name": "",
          "type": "int128"
        },
        {
          "internalType": "uint256",
          "name": "",
          "type": "uint256"
        },
        {
          "internalType": "uint256",
          "name": "",
          "type": "uint256"
        },
        {
          "internalType": "bytes",
          "name": "",
          "type": "bytes"
        }
      ],
      "name": "afterModifyPosition",
      "outputs": [
        {
          "internalType": "bytes4",
          "name": "",
          "type": "bytes4"
        }
      ],
      "stateMutability": "nonpayable",
      "type": "function"
    },
    {
      "inputs": [
        {
          "internalType": "address",
          "name": "",
          "type": "address"
        },
        {
          "internalType": "address",
          "name": "",
          "type": "address"
        },
        {
          "internalType": "bool",
          "name": "",
          "type": "bool"
        },
        {
          "internalType": "int256",
          "name": "",
          "type": "int256"
        },
        {
          "internalType": "uint160",
          "name": "",
          "type": "uint160"
        },
        {
          "internalType": "int256",
          "name": "",
          "type": "int256"
        },
        {
          "internalType": "int256",
          "name": "",
          "type": "int256"
        },
        {
          "internalType": "bytes",
          "name": "",
          "type": "bytes"
        }
      ],
      "name": "afterSwap",
      "outputs": [
        {
          "internalType": "bytes4",
          "name": "",
          "type": "bytes4"
        }
      ],
      "stateMutability": "nonpayable",
      "type": "function"
    },
    {
      "inputs": [
        {
          "internalType": "address",
          "name": "",
          "type": "address"
        },
        {
          "internalType": "address",
          "name": "",
          "type": "address"
        },
        {
          "internalType": "uint256",
          "name": "",
          "type": "uint256"
        },
        {
          "internalType": "uint256",
          "name": "",
          "type": "uint256"
        },
        {
          "internalType": "bytes",
          "name": "",
          "type": "bytes"
        }
      ],
      "name": "beforeFlash",
      "outputs": [
        {
          "internalType": "bytes4",
          "name": "",
          "type": "bytes4"
        }
      ],
      "stateMutability": "nonpayable",
      "type": "function"
    },
    {
      "inputs": [
        {
          "internalType": "address",
          "name": "",
          "type": "address"
        },
        {
          "internalType": "uint160",
          "name": "",
          "type": "uint160"
        }
      ],
      "name": "beforeInitialize",
      "outputs": [
        {
          "internalType": "bytes4",
          "name": "",
          "type": "bytes4"
        }
      ],
      "stateMutability": "nonpayable",
      "type": "function"
    },
    {
      "inputs": [
        {
          "internalType": "address",
          "name": "",
          "type": "address"
        },
        {
          "internalType": "address",
          "name": "",
          "type": "address"
        },
        {
          "internalType": "int24",
          "name": "",
          "type": "int24"
        },
        {
          "internalType": "int24",
          "name": "",
          "type": "int24"
        },
        {
          "internalType": "int128",
          "name": "",
          "type": "int128"
        },
        {
          "internalType": "bytes",
          "name": "",
          "type": "bytes"
        }
      ],
      "name": "beforeModifyPosition",
      "outputs": [
        {
          "internalType": "bytes4",
          "name": "",
          "type": "bytes4"
        },
        {
          "internalType": "uint24",
          "name": "",
          "type": "uint24"
        }
      ],
      "stateMutability": "nonpayable",
      "type": "function"
    },
    {
      "inputs": [
        {
          "internalType": "address",
          "name": "",
          "type": "address"
        },
        {
          "internalType": "address",
          "name": "",
          "type": "address"
        },
        {
          "internalType": "bool",
          "name": "",
          "type": "bool"
        },
        {
          "internalType": "int256",
          "name": "",
          "type": "int256"
        },
        {
          "internalType": "uint160",
          "name": "",
          "type": "uint160"
        },
        {
          "internalType": "bool",
          "name": "",
          "type": "bool"
        },
        {
          "internalType": "bytes",
          "name": "",
          "type": "bytes"
        }
      ],
      "name": "beforeSwap",
      "outputs": [
        {
          "internalType": "bytes4",
          "name": "",
          "type": "bytes4"
        },
        {
          "internalType": "uint24",
          "name": "",
          "type": "uint24"
        },
        {
          "internalType": "uint24",
          "name": "",
          "type": "uint24"
        }
      ],
      "stateMutability": "nonpayable",
      "type": "function"
    },
    {
      "inputs": [],
      "name": "defaultPluginConfig",
      "outputs": [
        {
          "internalType": "uint8",
          "name": "",
          "type": "uint8"
        }
      ],
      "stateMutability": "view",
      "type": "function"
    },
    {
      "inputs": [
        {
          "internalType": "uint256",
          "name": "",
          "type": "uint256"
        },
        {
          "internalType": "uint256",
          "name": "",
          "type": "uint256"
        }
      ],
      "name": "handlePluginFee",
      "outputs": [
        {
          "internalType": "bytes4",
          "name": "",
          "type": "bytes4"
        }
      ],
      "stateMutability": "pure",
      "type": "function"
    },
    {
      "inputs": [],
      "name": "pool",
      "outputs": [
        {
          "internalType": "address",
          "name": "",
          "type": "address"
        }
      ],
      "stateMutability": "view",
      "type": "function"
    }
  ],
  "bytecode": "0x608060405234801561001057600080fd5b50610c57806100206000396000f3fe608060405234801561001057600080fd5b50600436106100d45760003560e01c8063689ea370116100815780639cb5a9631161005b5780639cb5a96314610295578063aa6b14bb146102a8578063d6852010146102dd57600080fd5b8063689ea3701461025557806382dd65221461026f5780638de0a8ee1461028257600080fd5b8063343d37ff116100b2578063343d37ff146101af5780635e2411b2146101f3578063636fd8041461024257600080fd5b8063029c1cb7146100d957806316f0115b1461013557806331b25d1a1461017a575b600080fd5b6100ec6100e736600461079d565b6102f0565b604080517fffffffff00000000000000000000000000000000000000000000000000000000909416845262ffffff92831660208501529116908201526060015b60405180910390f35b6000546101559073ffffffffffffffffffffffffffffffffffffffff1681565b60405173ffffffffffffffffffffffffffffffffffffffff909116815260200161012c565b6101a17f8e8000aba5b365c0be9685da1153f7f096e76d1ecfb42c050ae1e387aa65b4f581565b60405190815260200161012c565b6101c26101bd366004610847565b6103af565b6040517fffffffff00000000000000000000000000000000000000000000000000000000909116815260200161012c565b6102066102013660046108dc565b6103e7565b604080517fffffffff00000000000000000000000000000000000000000000000000000000909316835262ffffff90911660208301520161012c565b6101c261025036600461097b565b610423565b61025d608381565b60405160ff909116815260200161012c565b6101c261027d3660046109b4565b61047d565b6101c26102903660046109ff565b6104b0565b6101c26102a3366004610a7b565b6104e6565b6101c26102b6366004610b29565b7faa6b14bb0000000000000000000000000000000000000000000000000000000092915050565b6101c26102eb366004610b4b565b61059a565b600080546040517f8e00555300000000000000000000000000000000000000000000000000000000815261271060048201528291829173ffffffffffffffffffffffffffffffffffffffff90911690638e00555390602401600060405180830381600087803b15801561036257600080fd5b505af1158015610376573d6000803e3d6000fd5b507f029c1cb7000000000000000000000000000000000000000000000000000000009e60009e508e9d509b505050505050505050505050565b60006103b96105d3565b507f343d37ff0000000000000000000000000000000000000000000000000000000098975050505050505050565b6000806103f26105d3565b507f5e2411b20000000000000000000000000000000000000000000000000000000098600098509650505050505050565b600080547fffffffffffffffffffffffff000000000000000000000000000000000000000016331781556104556105d3565b507f636fd8040000000000000000000000000000000000000000000000000000000092915050565b60006104876105d3565b507f82dd6522000000000000000000000000000000000000000000000000000000009392505050565b60006104ba6105d3565b507f8de0a8ee000000000000000000000000000000000000000000000000000000009695505050505050565b600080546040517f8e0055530000000000000000000000000000000000000000000000000000000081526064600482015273ffffffffffffffffffffffffffffffffffffffff90911690638e00555390602401600060405180830381600087803b15801561055357600080fd5b505af1158015610567573d6000803e3d6000fd5b507f9cb5a963000000000000000000000000000000000000000000000000000000009d9c50505050505050505050505050565b60006105a46105d3565b507fd6852010000000000000000000000000000000000000000000000000000000009998505050505050505050565b608360006105df61067c565b93505050508160ff168160ff1614610678576000546040517fbca57f8100000000000000000000000000000000000000000000000000000000815260ff8416600482015273ffffffffffffffffffffffffffffffffffffffff9091169063bca57f8190602401600060405180830381600087803b15801561065f57600080fd5b505af1158015610673573d6000803e3d6000fd5b505050505b5050565b60008060008060008054906101000a900473ffffffffffffffffffffffffffffffffffffffff1673ffffffffffffffffffffffffffffffffffffffff1663e76c01e46040518163ffffffff1660e01b815260040160c060405180830381865afa1580156106ed573d6000803e3d6000fd5b505050506040513d601f19601f820116820180604052508101906107119190610bc5565b5093989297509095509350915050565b73ffffffffffffffffffffffffffffffffffffffff8116811461074357600080fd5b50565b801515811461074357600080fd5b60008083601f84011261076657600080fd5b50813567ffffffffffffffff81111561077e57600080fd5b60208301915083602082850101111561079657600080fd5b9250929050565b60008060008060008060008060e0898b0312156107b957600080fd5b88356107c481610721565b975060208901356107d481610721565b965060408901356107e481610746565b95506060890135945060808901356107fb81610721565b935060a089013561080b81610746565b925060c089013567ffffffffffffffff81111561082757600080fd5b6108338b828c01610754565b999c989b5096995094979396929594505050565b60008060008060008060008060e0898b03121561086357600080fd5b883561086e81610721565b9750602089013561087e81610721565b965060408901359550606089013594506080890135935060a0890135925060c089013567ffffffffffffffff81111561082757600080fd5b8060020b811461074357600080fd5b8035600f81900b81146108d757600080fd5b919050565b600080600080600080600060c0888a0312156108f757600080fd5b873561090281610721565b9650602088013561091281610721565b95506040880135610922816108b6565b94506060880135610932816108b6565b9350610940608089016108c5565b925060a088013567ffffffffffffffff81111561095c57600080fd5b6109688a828b01610754565b989b979a50959850939692959293505050565b6000806040838503121561098e57600080fd5b823561099981610721565b915060208301356109a981610721565b809150509250929050565b6000806000606084860312156109c957600080fd5b83356109d481610721565b925060208401356109e481610721565b915060408401356109f4816108b6565b809150509250925092565b60008060008060008060a08789031215610a1857600080fd5b8635610a2381610721565b95506020870135610a3381610721565b94506040870135935060608701359250608087013567ffffffffffffffff811115610a5d57600080fd5b610a6989828a01610754565b979a9699509497509295939492505050565b60008060008060008060008060006101008a8c031215610a9a57600080fd5b8935610aa581610721565b985060208a0135610ab581610721565b975060408a0135610ac581610746565b965060608a0135955060808a0135610adc81610721565b945060a08a0135935060c08a0135925060e08a013567ffffffffffffffff811115610b0657600080fd5b610b128c828d01610754565b915080935050809150509295985092959850929598565b60008060408385031215610b3c57600080fd5b50508035926020909101359150565b60008060008060008060008060006101008a8c031215610b6a57600080fd5b8935610b7581610721565b985060208a0135610b8581610721565b975060408a0135610b95816108b6565b965060608a0135610ba5816108b6565b9550610adc60808b016108c5565b805161ffff811681146108d757600080fd5b60008060008060008060c08789031215610bde57600080fd5b8651610be981610721565b6020880151909650610bfa816108b6565b9450610c0860408801610bb3565b9350606087015160ff81168114610c1e57600080fd5b9250610c2c60808801610bb3565b915060a0870151610c3c81610746565b80915050929550929550929556fea164736f6c6343000814000a",
  "linkReferences": {},
  "deployedLinkReferences": {}
}