{
  "_format": "hh-sol-artifact-1",
  "contractName": "TestERC20PermitAllowed",
  "sourceName": "contracts/test/TestERC20PermitAllowed.sol",
  "abi": [
    {
      "inputs": [
        {
          "internalType": "uint256",
          "name": "amountToMint",
          "type": "uint256"
        }
      ],
      "stateMutability": "nonpayable",
      "type": "constructor"
    },
    {
      "inputs": [],
      "name": "InvalidShortString",
      "type": "error"
    },
    {
      "inputs": [
        {
          "internalType": "string",
          "name": "str",
          "type": "string"
        }
      ],
      "name": "StringTooLong",
      "type": "error"
    },
    {
      "anonymous": false,
      "inputs": [
        {
          "indexed": true,
          "internalType": "address",
          "name": "owner",
          "type": "address"
        },
        {
          "indexed": true,
          "internalType": "address",
          "name": "spender",
          "type": "address"
        },
        {
          "indexed": false,
          "internalType": "uint256",
          "name": "value",
          "type": "uint256"
        }
      ],
      "name": "Approval",
      "type": "event"
    },
    {
      "anonymous": false,
      "inputs": [],
      "name": "EIP712DomainChanged",
      "type": "event"
    },
    {
      "anonymous": false,
      "inputs": [
        {
          "indexed": true,
          "internalType": "address",
          "name": "from",
          "type": "address"
        },
        {
          "indexed": true,
          "internalType": "address",
          "name": "to",
          "type": "address"
        },
        {
          "indexed": false,
          "internalType": "uint256",
          "name": "value",
          "type": "uint256"
        }
      ],
      "name": "Transfer",
      "type": "event"
    },
    {
      "inputs": [],
      "name": "DOMAIN_SEPARATOR",
      "outputs": [
        {
          "internalType": "bytes32",
          "name": "",
          "type": "bytes32"
        }
      ],
      "stateMutability": "view",
      "type": "function"
    },
    {
      "inputs": [
        {
          "internalType": "address",
          "name": "owner",
          "type": "address"
        },
        {
          "internalType": "address",
          "name": "spender",
          "type": "address"
        }
      ],
      "name": "allowance",
      "outputs": [
        {
          "internalType": "uint256",
          "name": "",
          "type": "uint256"
        }
      ],
      "stateMutability": "view",
      "type": "function"
    },
    {
      "inputs": [
        {
          "internalType": "address",
          "name": "spender",
          "type": "address"
        },
        {
          "internalType": "uint256",
          "name": "amount",
          "type": "uint256"
        }
      ],
      "name": "approve",
      "outputs": [
        {
          "internalType": "bool",
          "name": "",
          "type": "bool"
        }
      ],
      "stateMutability": "nonpayable",
      "type": "function"
    },
    {
      "inputs": [
        {
          "internalType": "address",
          "name": "account",
          "type": "address"
        }
      ],
      "name": "balanceOf",
      "outputs": [
        {
          "internalType": "uint256",
          "name": "",
          "type": "uint256"
        }
      ],
      "stateMutability": "view",
      "type": "function"
    },
    {
      "inputs": [],
      "name": "decimals",
      "outputs": [
        {
          "internalType": "uint8",
          "name": "",
          "type": "uint8"
        }
      ],
      "stateMutability": "view",
      "type": "function"
    },
    {
      "inputs": [
        {
          "internalType": "address",
          "name": "spender",
          "type": "address"
        },
        {
          "internalType": "uint256",
          "name": "subtractedValue",
          "type": "uint256"
        }
      ],
      "name": "decreaseAllowance",
      "outputs": [
        {
          "internalType": "bool",
          "name": "",
          "type": "bool"
        }
      ],
      "stateMutability": "nonpayable",
      "type": "function"
    },
    {
      "inputs": [],
      "name": "eip712Domain",
      "outputs": [
        {
          "internalType": "bytes1",
          "name": "fields",
          "type": "bytes1"
        },
        {
          "internalType": "string",
          "name": "name",
          "type": "string"
        },
        {
          "internalType": "string",
          "name": "version",
          "type": "string"
        },
        {
          "internalType": "uint256",
          "name": "chainId",
          "type": "uint256"
        },
        {
          "internalType": "address",
          "name": "verifyingContract",
          "type": "address"
        },
        {
          "internalType": "bytes32",
          "name": "salt",
          "type": "bytes32"
        },
        {
          "internalType": "uint256[]",
          "name": "extensions",
          "type": "uint256[]"
        }
      ],
      "stateMutability": "view",
      "type": "function"
    },
    {
      "inputs": [
        {
          "internalType": "address",
          "name": "spender",
          "type": "address"
        },
        {
          "internalType": "uint256",
          "name": "addedValue",
          "type": "uint256"
        }
      ],
      "name": "increaseAllowance",
      "outputs": [
        {
          "internalType": "bool",
          "name": "",
          "type": "bool"
        }
      ],
      "stateMutability": "nonpayable",
      "type": "function"
    },
    {
      "inputs": [],
      "name": "name",
      "outputs": [
        {
          "internalType": "string",
          "name": "",
          "type": "string"
        }
      ],
      "stateMutability": "view",
      "type": "function"
    },
    {
      "inputs": [
        {
          "internalType": "address",
          "name": "owner",
          "type": "address"
        }
      ],
      "name": "nonces",
      "outputs": [
        {
          "internalType": "uint256",
          "name": "",
          "type": "uint256"
        }
      ],
      "stateMutability": "view",
      "type": "function"
    },
    {
      "inputs": [
        {
          "internalType": "address",
          "name": "holder",
          "type": "address"
        },
        {
          "internalType": "address",
          "name": "spender",
          "type": "address"
        },
        {
          "internalType": "uint256",
          "name": "nonce",
          "type": "uint256"
        },
        {
          "internalType": "uint256",
          "name": "expiry",
          "type": "uint256"
        },
        {
          "internalType": "bool",
          "name": "allowed",
          "type": "bool"
        },
        {
          "internalType": "uint8",
          "name": "v",
          "type": "uint8"
        },
        {
          "internalType": "bytes32",
          "name": "r",
          "type": "bytes32"
        },
        {
          "internalType": "bytes32",
          "name": "s",
          "type": "bytes32"
        }
      ],
      "name": "permit",
      "outputs": [],
      "stateMutability": "nonpayable",
      "type": "function"
    },
    {
      "inputs": [
        {
          "internalType": "address",
          "name": "owner",
          "type": "address"
        },
        {
          "internalType": "address",
          "name": "spender",
          "type": "address"
        },
        {
          "internalType": "uint256",
          "name": "value",
          "type": "uint256"
        },
        {
          "internalType": "uint256",
          "name": "deadline",
          "type": "uint256"
        },
        {
          "internalType": "uint8",
          "name": "v",
          "type": "uint8"
        },
        {
          "internalType": "bytes32",
          "name": "r",
          "type": "bytes32"
        },
        {
          "internalType": "bytes32",
          "name": "s",
          "type": "bytes32"
        }
      ],
      "name": "permit",
      "outputs": [],
      "stateMutability": "nonpayable",
      "type": "function"
    },
    {
      "inputs": [
        {
          "internalType": "uint256",
          "name": "newFee",
          "type": "uint256"
        }
      ],
      "name": "setFee",
      "outputs": [],
      "stateMutability": "nonpayable",
      "type": "function"
    },
    {
      "inputs": [],
      "name": "symbol",
      "outputs": [
        {
          "internalType": "string",
          "name": "",
          "type": "string"
        }
      ],
      "stateMutability": "view",
      "type": "function"
    },
    {
      "inputs": [],
      "name": "totalSupply",
      "outputs": [
        {
          "internalType": "uint256",
          "name": "",
          "type": "uint256"
        }
      ],
      "stateMutability": "view",
      "type": "function"
    },
    {
      "inputs": [
        {
          "internalType": "address",
          "name": "to",
          "type": "address"
        },
        {
          "internalType": "uint256",
          "name": "amount",
          "type": "uint256"
        }
      ],
      "name": "transfer",
      "outputs": [
        {
          "internalType": "bool",
          "name": "",
          "type": "bool"
        }
      ],
      "stateMutability": "nonpayable",
      "type": "function"
    },
    {
      "inputs": [
        {
          "internalType": "address",
          "name": "from",
          "type": "address"
        },
        {
          "internalType": "address",
          "name": "to",
          "type": "address"
        },
        {
          "internalType": "uint256",
          "name": "amount",
          "type": "uint256"
        }
      ],
      "name": "transferFrom",
      "outputs": [
        {
          "internalType": "bool",
          "name": "",
          "type": "bool"
        }
      ],
      "stateMutability": "nonpayable",
      "type": "function"
    }
  ],
  "bytecode": "0x6101606040523480156200001257600080fd5b5060405162001da138038062001da18339810160408190526200003591620002eb565b806040518060400160405280600a8152602001690546573742045524332360b41b81525080604051806040016040528060018152602001603160f81b8152506040518060400160405280600a8152602001690546573742045524332360b41b81525060405180604001604052806004815260200163151154d560e21b8152508160039081620000c59190620003a9565b506004620000d48282620003a9565b50620000e691508390506005620001a3565b61012052620000f7816006620001a3565b61014052815160208084019190912060e052815190820120610100524660a0526200018560e05161010051604080517f8b73c3c69bb8fe3d512ecc4cf759cc79239f7b179b0ffacaa9a75d522b39400f60208201529081019290925260608201524660808201523060a082015260009060c00160405160208183030381529060405280519060200120905090565b60805250503060c052506200019b3382620001dc565b50506200050c565b6000602083511015620001c357620001bb83620002a3565b9050620001d6565b81620001d08482620003a9565b5060ff90505b92915050565b6001600160a01b038216620002385760405162461bcd60e51b815260206004820152601f60248201527f45524332303a206d696e7420746f20746865207a65726f20616464726573730060448201526064015b60405180910390fd5b80600260008282546200024c919062000475565b90915550506001600160a01b038216600081815260208181526040808320805486019055518481527fddf252ad1be2c89b69c2b068fc378daa952ba7f163c4a11628f55a4df523b3ef910160405180910390a35050565b600080829050601f81511115620002d1578260405163305a27a960e01b81526004016200022f919062000497565b8051620002de82620004e7565b179392505050565b505050565b600060208284031215620002fe57600080fd5b5051919050565b634e487b7160e01b600052604160045260246000fd5b600181811c908216806200033057607f821691505b6020821081036200035157634e487b7160e01b600052602260045260246000fd5b50919050565b601f821115620002e657600081815260208120601f850160051c81016020861015620003805750805b601f850160051c820191505b81811015620003a1578281556001016200038c565b505050505050565b81516001600160401b03811115620003c557620003c562000305565b620003dd81620003d684546200031b565b8462000357565b602080601f831160018114620004155760008415620003fc5750858301515b600019600386901b1c1916600185901b178555620003a1565b600085815260208120601f198616915b82811015620004465788860151825594840194600190910190840162000425565b5085821015620004655787850151600019600388901b60f8161c191681555b5050505050600190811b01905550565b80820180821115620001d657634e487b7160e01b600052601160045260246000fd5b600060208083528351808285015260005b81811015620004c657858101830151858201604001528201620004a8565b506000604082860101526040601f19601f8301168501019250505092915050565b80516020808301519190811015620003515760001960209190910360031b1b16919050565b60805160a05160c05160e05161010051610120516101405161183a6200056760003960006104520152600061042701526000610c8c01526000610c6401526000610bbf01526000610be901526000610c13015261183a6000f3fe608060405234801561001057600080fd5b506004361061011b5760003560e01c806370a08231116100b257806395d89b4111610081578063a9059cbb11610066578063a9059cbb14610257578063d505accf1461026a578063dd62ed3e1461027d57600080fd5b806395d89b411461023c578063a457c2d71461024457600080fd5b806370a08231146101c55780637ecebe00146101fb57806384b0196e1461020e5780638fcbaf0c1461022957600080fd5b8063313ce567116100ee578063313ce567146101865780633644e51514610195578063395093511461019d57806369fe0e2d146101b057600080fd5b806306fdde0314610120578063095ea7b31461013e57806318160ddd1461016157806323b872dd14610173575b600080fd5b6101286102c3565b6040516101359190611425565b60405180910390f35b61015161014c366004611468565b610355565b6040519015158152602001610135565b6002545b604051908152602001610135565b610151610181366004611492565b61036f565b60405160128152602001610135565b610165610393565b6101516101ab366004611468565b6103a2565b6101c36101be3660046114ce565b600955565b005b6101656101d33660046114e7565b73ffffffffffffffffffffffffffffffffffffffff1660009081526020819052604090205490565b6101656102093660046114e7565b6103ee565b610216610419565b6040516101359796959493929190611502565b6101c36102373660046115d2565b6104be565b610128610626565b610151610252366004611468565b610635565b610151610265366004611468565b610706565b6101c3610278366004611654565b610714565b61016561028b3660046116be565b73ffffffffffffffffffffffffffffffffffffffff918216600090815260016020908152604080832093909416825291909152205490565b6060600380546102d2906116f1565b80601f01602080910402602001604051908101604052809291908181526020018280546102fe906116f1565b801561034b5780601f106103205761010080835404028352916020019161034b565b820191906000526020600020905b81548152906001019060200180831161032e57829003601f168201915b5050505050905090565b6000336103638185856108d3565b60019150505b92915050565b60003361037d858285610a86565b610388858585610b5d565b506001949350505050565b600061039d610ba5565b905090565b33600081815260016020908152604080832073ffffffffffffffffffffffffffffffffffffffff8716845290915281205490919061036390829086906103e990879061176d565b6108d3565b73ffffffffffffffffffffffffffffffffffffffff8116600090815260076020526040812054610369565b60006060808280808361044d7f00000000000000000000000000000000000000000000000000000000000000006005610cdd565b6104787f00000000000000000000000000000000000000000000000000000000000000006006610cdd565b604080516000808252602082019092527f0f000000000000000000000000000000000000000000000000000000000000009b939a50919850469750309650945092509050565b6040517f7ecebe0000000000000000000000000000000000000000000000000000000000815273ffffffffffffffffffffffffffffffffffffffff8916600482015286903090637ecebe0090602401602060405180830381865afa15801561052a573d6000803e3d6000fd5b505050506040513d601f19601f8201168201806040525081019061054e9190611780565b146105e0576040517f08c379a000000000000000000000000000000000000000000000000000000000815260206004820152602b60248201527f5465737445524332305065726d6974416c6c6f7765643a3a7065726d69743a2060448201527f77726f6e67206e6f6e636500000000000000000000000000000000000000000060648201526084015b60405180910390fd5b61061c8888866105f1576000610613565b7fffffffffffffffffffffffffffffffffffffffffffffffffffffffffffffffff5b88878787610714565b5050505050505050565b6060600480546102d2906116f1565b33600081815260016020908152604080832073ffffffffffffffffffffffffffffffffffffffff87168452909152812054909190838110156106f9576040517f08c379a000000000000000000000000000000000000000000000000000000000815260206004820152602560248201527f45524332303a2064656372656173656420616c6c6f77616e63652062656c6f7760448201527f207a65726f00000000000000000000000000000000000000000000000000000060648201526084016105d7565b61038882868684036108d3565b600033610363818585610b5d565b8342111561077e576040517f08c379a000000000000000000000000000000000000000000000000000000000815260206004820152601d60248201527f45524332305065726d69743a206578706972656420646561646c696e6500000060448201526064016105d7565b60007f6e71edae12b1b97f4d1f60370fef10105fa2faae0126114a169c64845d6126c98888886107ad8c610d88565b60408051602081019690965273ffffffffffffffffffffffffffffffffffffffff94851690860152929091166060840152608083015260a082015260c0810186905260e001604051602081830303815290604052805190602001209050600061081582610dbd565b9050600061082582878787610e05565b90508973ffffffffffffffffffffffffffffffffffffffff168173ffffffffffffffffffffffffffffffffffffffff16146108bc576040517f08c379a000000000000000000000000000000000000000000000000000000000815260206004820152601e60248201527f45524332305065726d69743a20696e76616c6964207369676e6174757265000060448201526064016105d7565b6108c78a8a8a6108d3565b50505050505050505050565b73ffffffffffffffffffffffffffffffffffffffff8316610975576040517f08c379a0000000000000000000000000000000000000000000000000000000008152602060048201526024808201527f45524332303a20617070726f76652066726f6d20746865207a65726f2061646460448201527f726573730000000000000000000000000000000000000000000000000000000060648201526084016105d7565b73ffffffffffffffffffffffffffffffffffffffff8216610a18576040517f08c379a000000000000000000000000000000000000000000000000000000000815260206004820152602260248201527f45524332303a20617070726f766520746f20746865207a65726f20616464726560448201527f737300000000000000000000000000000000000000000000000000000000000060648201526084016105d7565b73ffffffffffffffffffffffffffffffffffffffff83811660008181526001602090815260408083209487168084529482529182902085905590518481527f8c5be1e5ebec7d5bd14f71427d1e84f3dd0314c0f7b2291e5b200ac8c7c3b925910160405180910390a3505050565b73ffffffffffffffffffffffffffffffffffffffff8381166000908152600160209081526040808320938616835292905220547fffffffffffffffffffffffffffffffffffffffffffffffffffffffffffffffff8114610b575781811015610b4a576040517f08c379a000000000000000000000000000000000000000000000000000000000815260206004820152601d60248201527f45524332303a20696e73756666696369656e7420616c6c6f77616e636500000060448201526064016105d7565b610b5784848484036108d3565b50505050565b6009548015610b9a5760006103e8610b758385611799565b610b7f91906117b0565b9050610b8b81846117eb565b9250610b98853083610e2d565b505b610b57848484610e2d565b60003073ffffffffffffffffffffffffffffffffffffffff7f000000000000000000000000000000000000000000000000000000000000000016148015610c0b57507f000000000000000000000000000000000000000000000000000000000000000046145b15610c3557507f000000000000000000000000000000000000000000000000000000000000000090565b61039d604080517f8b73c3c69bb8fe3d512ecc4cf759cc79239f7b179b0ffacaa9a75d522b39400f60208201527f0000000000000000000000000000000000000000000000000000000000000000918101919091527f000000000000000000000000000000000000000000000000000000000000000060608201524660808201523060a082015260009060c00160405160208183030381529060405280519060200120905090565b606060ff8314610cf757610cf08361109c565b9050610369565b818054610d03906116f1565b80601f0160208091040260200160405190810160405280929190818152602001828054610d2f906116f1565b8015610d7c5780601f10610d5157610100808354040283529160200191610d7c565b820191906000526020600020905b815481529060010190602001808311610d5f57829003601f168201915b50505050509050610369565b73ffffffffffffffffffffffffffffffffffffffff811660009081526007602052604090208054600181018255905b50919050565b6000610369610dca610ba5565b836040517f19010000000000000000000000000000000000000000000000000000000000008152600281019290925260228201526042902090565b6000806000610e16878787876110db565b91509150610e23816111ca565b5095945050505050565b73ffffffffffffffffffffffffffffffffffffffff8316610ed0576040517f08c379a000000000000000000000000000000000000000000000000000000000815260206004820152602560248201527f45524332303a207472616e736665722066726f6d20746865207a65726f20616460448201527f647265737300000000000000000000000000000000000000000000000000000060648201526084016105d7565b73ffffffffffffffffffffffffffffffffffffffff8216610f73576040517f08c379a000000000000000000000000000000000000000000000000000000000815260206004820152602360248201527f45524332303a207472616e7366657220746f20746865207a65726f206164647260448201527f657373000000000000000000000000000000000000000000000000000000000060648201526084016105d7565b73ffffffffffffffffffffffffffffffffffffffff831660009081526020819052604090205481811015611029576040517f08c379a000000000000000000000000000000000000000000000000000000000815260206004820152602660248201527f45524332303a207472616e7366657220616d6f756e742065786365656473206260448201527f616c616e6365000000000000000000000000000000000000000000000000000060648201526084016105d7565b73ffffffffffffffffffffffffffffffffffffffff848116600081815260208181526040808320878703905593871680835291849020805487019055925185815290927fddf252ad1be2c89b69c2b068fc378daa952ba7f163c4a11628f55a4df523b3ef910160405180910390a3610b57565b606060006110a983611380565b604080516020808252818301909252919250600091906020820181803683375050509182525060208101929092525090565b6000807f7fffffffffffffffffffffffffffffff5d576e7357a4501ddfe92f46681b20a083111561111257506000905060036111c1565b6040805160008082526020820180845289905260ff881692820192909252606081018690526080810185905260019060a0016020604051602081039080840390855afa158015611166573d6000803e3d6000fd5b50506040517fffffffffffffffffffffffffffffffffffffffffffffffffffffffffffffffe0015191505073ffffffffffffffffffffffffffffffffffffffff81166111ba576000600192509250506111c1565b9150600090505b94509492505050565b60008160048111156111de576111de6117fe565b036111e65750565b60018160048111156111fa576111fa6117fe565b03611261576040517f08c379a000000000000000000000000000000000000000000000000000000000815260206004820152601860248201527f45434453413a20696e76616c6964207369676e6174757265000000000000000060448201526064016105d7565b6002816004811115611275576112756117fe565b036112dc576040517f08c379a000000000000000000000000000000000000000000000000000000000815260206004820152601f60248201527f45434453413a20696e76616c6964207369676e6174757265206c656e6774680060448201526064016105d7565b60038160048111156112f0576112f06117fe565b0361137d576040517f08c379a000000000000000000000000000000000000000000000000000000000815260206004820152602260248201527f45434453413a20696e76616c6964207369676e6174757265202773272076616c60448201527f756500000000000000000000000000000000000000000000000000000000000060648201526084016105d7565b50565b600060ff8216601f811115610369576040517fb3512b0c00000000000000000000000000000000000000000000000000000000815260040160405180910390fd5b6000815180845260005b818110156113e7576020818501810151868301820152016113cb565b5060006020828601015260207fffffffffffffffffffffffffffffffffffffffffffffffffffffffffffffffe0601f83011685010191505092915050565b60208152600061143860208301846113c1565b9392505050565b803573ffffffffffffffffffffffffffffffffffffffff8116811461146357600080fd5b919050565b6000806040838503121561147b57600080fd5b6114848361143f565b946020939093013593505050565b6000806000606084860312156114a757600080fd5b6114b08461143f565b92506114be6020850161143f565b9150604084013590509250925092565b6000602082840312156114e057600080fd5b5035919050565b6000602082840312156114f957600080fd5b6114388261143f565b7fff00000000000000000000000000000000000000000000000000000000000000881681526000602060e08184015261153e60e084018a6113c1565b8381036040850152611550818a6113c1565b6060850189905273ffffffffffffffffffffffffffffffffffffffff8816608086015260a0850187905284810360c0860152855180825283870192509083019060005b818110156115af57835183529284019291840191600101611593565b50909c9b505050505050505050505050565b803560ff8116811461146357600080fd5b600080600080600080600080610100898b0312156115ef57600080fd5b6115f88961143f565b975061160660208a0161143f565b965060408901359550606089013594506080890135801515811461162957600080fd5b935061163760a08a016115c1565b925060c0890135915060e089013590509295985092959890939650565b600080600080600080600060e0888a03121561166f57600080fd5b6116788861143f565b96506116866020890161143f565b955060408801359450606088013593506116a2608089016115c1565b925060a0880135915060c0880135905092959891949750929550565b600080604083850312156116d157600080fd5b6116da8361143f565b91506116e86020840161143f565b90509250929050565b600181811c9082168061170557607f821691505b602082108103610db7577f4e487b7100000000000000000000000000000000000000000000000000000000600052602260045260246000fd5b7f4e487b7100000000000000000000000000000000000000000000000000000000600052601160045260246000fd5b808201808211156103695761036961173e565b60006020828403121561179257600080fd5b5051919050565b80820281158282048414176103695761036961173e565b6000826117e6577f4e487b7100000000000000000000000000000000000000000000000000000000600052601260045260246000fd5b500490565b818103818111156103695761036961173e565b7f4e487b7100000000000000000000000000000000000000000000000000000000600052602160045260246000fdfea164736f6c6343000814000a",
  "linkReferences": {},
  "deployedLinkReferences": {}
}