{
  "_format": "hh-sol-artifact-1",
  "contractName": "FarmingCenter",
  "sourceName": "contracts/FarmingCenter.sol",
  "abi": [
    {
      "inputs": [
        {
          "internalType": "contract IAlgebraEternalFarming",
          "name": "_eternalFarming",
          "type": "address"
        },
        {
          "internalType": "contract INonfungiblePositionManager",
          "name": "_nonfungiblePositionManager",
          "type": "address"
        }
      ],
      "stateMutability": "nonpayable",
      "type": "constructor"
    },
    {
      "inputs": [],
      "name": "algebraPoolDeployer",
      "outputs": [
        {
          "internalType": "address",
          "name": "",
          "type": "address"
        }
      ],
      "stateMutability": "view",
      "type": "function"
    },
    {
      "inputs": [
        {
          "internalType": "uint256",
          "name": "tokenId",
          "type": "uint256"
        },
        {
          "internalType": "int256",
          "name": "",
          "type": "int256"
        }
      ],
      "name": "applyLiquidityDelta",
      "outputs": [],
      "stateMutability": "nonpayable",
      "type": "function"
    },
    {
      "inputs": [
        {
          "internalType": "contract IERC20Minimal",
          "name": "rewardToken",
          "type": "address"
        },
        {
          "internalType": "address",
          "name": "to",
          "type": "address"
        },
        {
          "internalType": "uint256",
          "name": "amountRequested",
          "type": "uint256"
        }
      ],
      "name": "claimReward",
      "outputs": [
        {
          "internalType": "uint256",
          "name": "rewardBalanceBefore",
          "type": "uint256"
        }
      ],
      "stateMutability": "nonpayable",
      "type": "function"
    },
    {
      "inputs": [
        {
          "components": [
            {
              "internalType": "contract IERC20Minimal",
              "name": "rewardToken",
              "type": "address"
            },
            {
              "internalType": "contract IERC20Minimal",
              "name": "bonusRewardToken",
              "type": "address"
            },
            {
              "internalType": "contract IAlgebraPool",
              "name": "pool",
              "type": "address"
            },
            {
              "internalType": "uint256",
              "name": "nonce",
              "type": "uint256"
            }
          ],
          "internalType": "struct IncentiveKey",
          "name": "key",
          "type": "tuple"
        },
        {
          "internalType": "uint256",
          "name": "tokenId",
          "type": "uint256"
        }
      ],
      "name": "collectRewards",
      "outputs": [
        {
          "internalType": "uint256",
          "name": "reward",
          "type": "uint256"
        },
        {
          "internalType": "uint256",
          "name": "bonusReward",
          "type": "uint256"
        }
      ],
      "stateMutability": "nonpayable",
      "type": "function"
    },
    {
      "inputs": [
        {
          "internalType": "address",
          "name": "newVirtualPool",
          "type": "address"
        },
        {
          "internalType": "contract IFarmingPlugin",
          "name": "plugin",
          "type": "address"
        }
      ],
      "name": "connectVirtualPoolToPlugin",
      "outputs": [],
      "stateMutability": "nonpayable",
      "type": "function"
    },
    {
      "inputs": [
        {
          "internalType": "uint256",
          "name": "tokenId",
          "type": "uint256"
        }
      ],
      "name": "deposits",
      "outputs": [
        {
          "internalType": "bytes32",
          "name": "incentiveId",
          "type": "bytes32"
        }
      ],
      "stateMutability": "view",
      "type": "function"
    },
    {
      "inputs": [
        {
          "internalType": "address",
          "name": "virtualPool",
          "type": "address"
        },
        {
          "internalType": "contract IFarmingPlugin",
          "name": "plugin",
          "type": "address"
        }
      ],
      "name": "disconnectVirtualPoolFromPlugin",
      "outputs": [],
      "stateMutability": "nonpayable",
      "type": "function"
    },
    {
      "inputs": [
        {
          "components": [
            {
              "internalType": "contract IERC20Minimal",
              "name": "rewardToken",
              "type": "address"
            },
            {
              "internalType": "contract IERC20Minimal",
              "name": "bonusRewardToken",
              "type": "address"
            },
            {
              "internalType": "contract IAlgebraPool",
              "name": "pool",
              "type": "address"
            },
            {
              "internalType": "uint256",
              "name": "nonce",
              "type": "uint256"
            }
          ],
          "internalType": "struct IncentiveKey",
          "name": "key",
          "type": "tuple"
        },
        {
          "internalType": "uint256",
          "name": "tokenId",
          "type": "uint256"
        }
      ],
      "name": "enterFarming",
      "outputs": [],
      "stateMutability": "nonpayable",
      "type": "function"
    },
    {
      "inputs": [],
      "name": "eternalFarming",
      "outputs": [
        {
          "internalType": "contract IAlgebraEternalFarming",
          "name": "",
          "type": "address"
        }
      ],
      "stateMutability": "view",
      "type": "function"
    },
    {
      "inputs": [
        {
          "components": [
            {
              "internalType": "contract IERC20Minimal",
              "name": "rewardToken",
              "type": "address"
            },
            {
              "internalType": "contract IERC20Minimal",
              "name": "bonusRewardToken",
              "type": "address"
            },
            {
              "internalType": "contract IAlgebraPool",
              "name": "pool",
              "type": "address"
            },
            {
              "internalType": "uint256",
              "name": "nonce",
              "type": "uint256"
            }
          ],
          "internalType": "struct IncentiveKey",
          "name": "key",
          "type": "tuple"
        },
        {
          "internalType": "uint256",
          "name": "tokenId",
          "type": "uint256"
        }
      ],
      "name": "exitFarming",
      "outputs": [],
      "stateMutability": "nonpayable",
      "type": "function"
    },
    {
      "inputs": [
        {
          "internalType": "bytes32",
          "name": "incentiveId",
          "type": "bytes32"
        }
      ],
      "name": "incentiveKeys",
      "outputs": [
        {
          "internalType": "contract IERC20Minimal",
          "name": "rewardToken",
          "type": "address"
        },
        {
          "internalType": "contract IERC20Minimal",
          "name": "bonusRewardToken",
          "type": "address"
        },
        {
          "internalType": "contract IAlgebraPool",
          "name": "pool",
          "type": "address"
        },
        {
          "internalType": "uint256",
          "name": "nonce",
          "type": "uint256"
        }
      ],
      "stateMutability": "view",
      "type": "function"
    },
    {
      "inputs": [
        {
          "internalType": "bytes[]",
          "name": "data",
          "type": "bytes[]"
        }
      ],
      "name": "multicall",
      "outputs": [
        {
          "internalType": "bytes[]",
          "name": "results",
          "type": "bytes[]"
        }
      ],
      "stateMutability": "payable",
      "type": "function"
    },
    {
      "inputs": [],
      "name": "nonfungiblePositionManager",
      "outputs": [
        {
          "internalType": "contract INonfungiblePositionManager",
          "name": "",
          "type": "address"
        }
      ],
      "stateMutability": "view",
      "type": "function"
    },
    {
      "inputs": [
        {
          "internalType": "address",
          "name": "poolAddress",
          "type": "address"
        }
      ],
      "name": "virtualPoolAddresses",
      "outputs": [
        {
          "internalType": "address",
          "name": "virtualPoolAddress",
          "type": "address"
        }
      ],
      "stateMutability": "view",
      "type": "function"
    }
  ],
  "bytecode": "0x60e06040523480156200001157600080fd5b506040516200280d3803806200280d8339810160408190526200003491620000d9565b6001600160a01b03808316608052811660a08190526040805163188c824d60e11b81529051633119049a916004808201926020929091908290030181865afa15801562000085573d6000803e3d6000fd5b505050506040513d601f19601f82011682018060405250810190620000ab919062000118565b6001600160a01b031660c052506200013f9050565b6001600160a01b0381168114620000d657600080fd5b50565b60008060408385031215620000ed57600080fd5b8251620000fa81620000c0565b60208401519092506200010d81620000c0565b809150509250929050565b6000602082840312156200012b57600080fd5b81516200013881620000c0565b9392505050565b60805160a05160c05161260b6200020260003960008181610116015261185d01526000818161036901528181610675015281816107670152818161084201528181610ab001528181610c1e01528181610d2f0152818161115901528181611227015281816112f101528181611c100152611ccc0152600081816103bd015281816105c701528181610b5c01528181610cf101528181611469015281816114d60152818161158001528181611658015281816116e30152611b19015261260b6000f3fe6080604052600436106100dd5760003560e01c80636af00aee1161007f578063b02c43d011610059578063b02c43d01461032a578063b44a272214610357578063d68516bc1461038b578063de2356d1146103ab57600080fd5b80636af00aee146102335780638c27f1f614610268578063ac9650d81461030a57600080fd5b80632f2d783d116100bb5780632f2d783d1461018257806332dc5a25146101b05780634473eca6146101f35780635739f0b91461021357600080fd5b806306e65c90146100e257806314258256146101045780632bd34c4814610162575b600080fd5b3480156100ee57600080fd5b506101026100fd366004611f71565b6103df565b005b34801561011057600080fd5b506101387f000000000000000000000000000000000000000000000000000000000000000081565b60405173ffffffffffffffffffffffffffffffffffffffff90911681526020015b60405180910390f35b34801561016e57600080fd5b5061010261017d366004611fb5565b6103ec565b34801561018e57600080fd5b506101a261019d366004611ffe565b61056a565b604051908152602001610159565b3480156101bc57600080fd5b506101386101cb36600461203f565b60006020819052908152604090205473ffffffffffffffffffffffffffffffffffffffff1681565b3480156101ff57600080fd5b5061010261020e366004612092565b61063e565b34801561021f57600080fd5b5061010261022e366004612092565b61080b565b34801561023f57600080fd5b5061025361024e366004612092565b610bcd565b60408051928352602083019190915201610159565b34801561027457600080fd5b506102c8610283366004612146565b6002602081905260009182526040909120805460018201549282015460039092015473ffffffffffffffffffffffffffffffffffffffff918216938216929091169084565b604051610159949392919073ffffffffffffffffffffffffffffffffffffffff9485168152928416602084015292166040820152606081019190915260800190565b61031d61031836600461215f565b610e35565b60405161015991906121d4565b34801561033657600080fd5b506101a2610345366004612146565b60016020526000908152604090205481565b34801561036357600080fd5b506101387f000000000000000000000000000000000000000000000000000000000000000081565b34801561039757600080fd5b506101026103a6366004611fb5565b610f56565b3480156103b757600080fd5b506101387f000000000000000000000000000000000000000000000000000000000000000081565b6103e882611141565b5050565b60006103f883836116c9565b90508273ffffffffffffffffffffffffffffffffffffffff168273ffffffffffffffffffffffffffffffffffffffff16631d4632ac6040518163ffffffff1660e01b8152600401602060405180830381865afa15801561045c573d6000803e3d6000fd5b505050506040513d601f19601f8201168201806040525081019061048091906122ad565b73ffffffffffffffffffffffffffffffffffffffff160361051c576040517f7c1fe0c80000000000000000000000000000000000000000000000000000000081526000600482015273ffffffffffffffffffffffffffffffffffffffff831690637c1fe0c890602401600060405180830381600087803b15801561050357600080fd5b505af1158015610517573d6000803e3d6000fd5b505050505b73ffffffffffffffffffffffffffffffffffffffff16600090815260208190526040902080547fffffffffffffffffffffffff00000000000000000000000000000000000000001690555050565b6040517f0a53075400000000000000000000000000000000000000000000000000000000815273ffffffffffffffffffffffffffffffffffffffff84811660048301523360248301528381166044830152606482018390526000917f000000000000000000000000000000000000000000000000000000000000000090911690630a530754906084016020604051808303816000875af1158015610612573d6000803e3d6000fd5b505050506040513d601f19601f8201168201806040525081019061063691906122ca565b949350505050565b6040517f430c20810000000000000000000000000000000000000000000000000000000081523360048201526024810182905281907f000000000000000000000000000000000000000000000000000000000000000073ffffffffffffffffffffffffffffffffffffffff169063430c208190604401602060405180830381865afa1580156106d1573d6000803e3d6000fd5b505050506040513d601f19601f820116820180604052508101906106f591906122e3565b610760576040517f08c379a000000000000000000000000000000000000000000000000000000000815260206004820152601660248201527f4e6f7420617070726f76656420666f7220746f6b656e0000000000000000000060448201526064015b60405180910390fd5b61080683837f000000000000000000000000000000000000000000000000000000000000000073ffffffffffffffffffffffffffffffffffffffff16636352211e866040518263ffffffff1660e01b81526004016107c091815260200190565b602060405180830381865afa1580156107dd573d6000803e3d6000fd5b505050506040513d601f19601f8201168201806040525081019061080191906122ad565b611a54565b505050565b6040517f430c20810000000000000000000000000000000000000000000000000000000081523360048201526024810182905281907f000000000000000000000000000000000000000000000000000000000000000073ffffffffffffffffffffffffffffffffffffffff169063430c208190604401602060405180830381865afa15801561089e573d6000803e3d6000fd5b505050506040513d601f19601f820116820180604052508101906108c291906122e3565b610928576040517f08c379a000000000000000000000000000000000000000000000000000000000815260206004820152601660248201527f4e6f7420617070726f76656420666f7220746f6b656e000000000000000000006044820152606401610757565b600061093384611b89565b6000818152600260208190526040909120015490915073ffffffffffffffffffffffffffffffffffffffff166109ef57600081815260026020818152604092839020875181547fffffffffffffffffffffffff000000000000000000000000000000000000000090811673ffffffffffffffffffffffffffffffffffffffff9283161783559289015160018301805485169183169190911790559388015192810180549092169290931691909117905560608501516003909101555b60008381526001602052604090205415610a65576040517f08c379a000000000000000000000000000000000000000000000000000000000815260206004820152601460248201527f546f6b656e20616c7265616479206661726d65640000000000000000000000006044820152606401610757565b60008381526001602081905260409182902083905590517f702275150000000000000000000000000000000000000000000000000000000081526004810185905260248101919091527f000000000000000000000000000000000000000000000000000000000000000073ffffffffffffffffffffffffffffffffffffffff1690637022751590604401600060405180830381600087803b158015610b0957600080fd5b505af1158015610b1d573d6000803e3d6000fd5b50506040517f5739f0b900000000000000000000000000000000000000000000000000000000815273ffffffffffffffffffffffffffffffffffffffff7f0000000000000000000000000000000000000000000000000000000000000000169250635739f0b99150610b959087908790600401612305565b600060405180830381600087803b158015610baf57600080fd5b505af1158015610bc3573d6000803e3d6000fd5b5050505050505050565b6040517f430c2081000000000000000000000000000000000000000000000000000000008152336004820152602481018290526000908190839073ffffffffffffffffffffffffffffffffffffffff7f0000000000000000000000000000000000000000000000000000000000000000169063430c208190604401602060405180830381865afa158015610c65573d6000803e3d6000fd5b505050506040513d601f19601f82011682018060405250810190610c8991906122e3565b610cef576040517f08c379a000000000000000000000000000000000000000000000000000000000815260206004820152601660248201527f4e6f7420617070726f76656420666f7220746f6b656e000000000000000000006044820152606401610757565b7f000000000000000000000000000000000000000000000000000000000000000073ffffffffffffffffffffffffffffffffffffffff1663046ec16686867f000000000000000000000000000000000000000000000000000000000000000073ffffffffffffffffffffffffffffffffffffffff16636352211e896040518263ffffffff1660e01b8152600401610d8891815260200190565b602060405180830381865afa158015610da5573d6000803e3d6000fd5b505050506040513d601f19601f82011682018060405250810190610dc991906122ad565b6040518463ffffffff1660e01b8152600401610de79392919061235d565b60408051808303816000875af1158015610e05573d6000803e3d6000fd5b505050506040513d601f19601f82011682018060405250810190610e2991906123d2565b90969095509350505050565b60608167ffffffffffffffff811115610e5057610e50612063565b604051908082528060200260200182016040528015610e8357816020015b6060815260200190600190039081610e6e5790505b50905060005b82811015610f4f5760008030868685818110610ea757610ea76123f6565b9050602002810190610eb99190612425565b604051610ec7929190612491565b600060405180830381855af49150503d8060008114610f02576040519150601f19603f3d011682016040523d82523d6000602084013e610f07565b606091505b509150915081610f27576000815111610f1f57600080fd5b805181602001fd5b80848481518110610f3a57610f3a6123f6565b60209081029190910101525050600101610e89565b5092915050565b6000610f6283836116c9565b9050600073ffffffffffffffffffffffffffffffffffffffff168273ffffffffffffffffffffffffffffffffffffffff16631d4632ac6040518163ffffffff1660e01b8152600401602060405180830381865afa158015610fc7573d6000803e3d6000fd5b505050506040513d601f19601f82011682018060405250810190610feb91906122ad565b73ffffffffffffffffffffffffffffffffffffffff1614611068576040517f08c379a000000000000000000000000000000000000000000000000000000000815260206004820152601e60248201527f416e6f7468657220696e63656e7469766520697320636f6e6e656374656400006044820152606401610757565b6040517f7c1fe0c800000000000000000000000000000000000000000000000000000000815273ffffffffffffffffffffffffffffffffffffffff8481166004830152831690637c1fe0c890602401600060405180830381600087803b1580156110d157600080fd5b505af11580156110e5573d6000803e3d6000fd5b5050505073ffffffffffffffffffffffffffffffffffffffff908116600090815260208190526040902080547fffffffffffffffffffffffff000000000000000000000000000000000000000016939091169290921790915550565b3373ffffffffffffffffffffffffffffffffffffffff7f000000000000000000000000000000000000000000000000000000000000000016146111e0576040517f08c379a000000000000000000000000000000000000000000000000000000000815260206004820152601a60248201527f4f6e6c79206e6f6e66756e6769626c65506f734d616e616765720000000000006044820152606401610757565b60008181526001602052604090205480156103e8576040517f6352211e000000000000000000000000000000000000000000000000000000008152600481018390526000907f000000000000000000000000000000000000000000000000000000000000000073ffffffffffffffffffffffffffffffffffffffff1690636352211e90602401602060405180830381865afa158015611283573d6000803e3d6000fd5b505050506040513d601f19601f820116820180604052508101906112a791906122ad565b6040517f99fbab880000000000000000000000000000000000000000000000000000000081526004810185905290915060009073ffffffffffffffffffffffffffffffffffffffff7f000000000000000000000000000000000000000000000000000000000000000016906399fbab889060240161018060405180830381865afa158015611339573d6000803e3d6000fd5b505050506040513d601f19601f8201168201806040525081019061135d91906124d3565b50505060008c8152600260208181526040928390208351608081018552815473ffffffffffffffffffffffffffffffffffffffff908116825260018301548116938201939093529281015490911692820192909252600390910154606082015291995090975050506fffffffffffffffffffffffffffffffff871615945084935061141792505050575060408082015173ffffffffffffffffffffffffffffffffffffffff90811660009081526020819052919091205416155b1561142c57611427818685611a54565b6116c2565b6040517f36808b1900000000000000000000000000000000000000000000000000000000815273ffffffffffffffffffffffffffffffffffffffff7f000000000000000000000000000000000000000000000000000000000000000016906336808b19906114a29084908990889060040161235d565b600060405180830381600087803b1580156114bc57600080fd5b505af11580156114d0573d6000803e3d6000fd5b505050507f000000000000000000000000000000000000000000000000000000000000000073ffffffffffffffffffffffffffffffffffffffff1663b5bae00a61151983611b89565b6040518263ffffffff1660e01b815260040161153791815260200190565b602060405180830381865afa158015611554573d6000803e3d6000fd5b505050506040513d601f19601f8201168201806040525081019061157891906122e3565b8061160d57507f000000000000000000000000000000000000000000000000000000000000000073ffffffffffffffffffffffffffffffffffffffff1663f22563196040518163ffffffff1660e01b8152600401602060405180830381865afa1580156115e9573d6000803e3d6000fd5b505050506040513d601f19601f8201168201806040525081019061160d91906122e3565b1561161b5761142785611bb9565b6040517f5739f0b900000000000000000000000000000000000000000000000000000000815273ffffffffffffffffffffffffffffffffffffffff7f00000000000000000000000000000000000000000000000000000000000000001690635739f0b99061168f9084908990600401612305565b600060405180830381600087803b1580156116a957600080fd5b505af11580156116bd573d6000803e3d6000fd5b505050505b5050505050565b60003373ffffffffffffffffffffffffffffffffffffffff7f0000000000000000000000000000000000000000000000000000000000000000161461176a576040517f08c379a000000000000000000000000000000000000000000000000000000000815260206004820152601a60248201527f4f6e6c79206661726d696e672063616e2063616c6c20746869730000000000006044820152606401610757565b73ffffffffffffffffffffffffffffffffffffffff83166117e7576040517f08c379a000000000000000000000000000000000000000000000000000000000815260206004820152601c60248201527f5a65726f2061646472657373206173207669727475616c20706f6f6c000000006044820152606401610757565b8173ffffffffffffffffffffffffffffffffffffffff1663026b1d5f6040518163ffffffff1660e01b8152600401602060405180830381865afa158015611832573d6000803e3d6000fd5b505050506040513d601f19601f8201168201806040525081019061185691906122ad565b90506119ba7f00000000000000000000000000000000000000000000000000000000000000006040518060600160405280600073ffffffffffffffffffffffffffffffffffffffff1681526020018473ffffffffffffffffffffffffffffffffffffffff16630dfe16816040518163ffffffff1660e01b8152600401602060405180830381865afa1580156118ef573d6000803e3d6000fd5b505050506040513d601f19601f8201168201806040525081019061191391906122ad565b73ffffffffffffffffffffffffffffffffffffffff1681526020018473ffffffffffffffffffffffffffffffffffffffff1663d21220a76040518163ffffffff1660e01b8152600401602060405180830381865afa158015611979573d6000803e3d6000fd5b505050506040513d601f19601f8201168201806040525081019061199d91906122ad565b73ffffffffffffffffffffffffffffffffffffffff169052611d3c565b73ffffffffffffffffffffffffffffffffffffffff168173ffffffffffffffffffffffffffffffffffffffff1614611a4e576040517f08c379a000000000000000000000000000000000000000000000000000000000815260206004820152600c60248201527f496e76616c696420706f6f6c00000000000000000000000000000000000000006044820152606401610757565b92915050565b611a5d83611b89565b60008381526001602052604090205414611ad3576040517f08c379a000000000000000000000000000000000000000000000000000000000815260206004820152601360248201527f496e76616c696420696e63656e746976654964000000000000000000000000006044820152606401610757565b611adc82611bb9565b6040517f36808b1900000000000000000000000000000000000000000000000000000000815273ffffffffffffffffffffffffffffffffffffffff7f000000000000000000000000000000000000000000000000000000000000000016906336808b1990611b529086908690869060040161235d565b600060405180830381600087803b158015611b6c57600080fd5b505af1158015611b80573d6000803e3d6000fd5b50505050505050565b600081604051602001611b9c91906125b3565b604051602081830303815290604052805190602001209050919050565b60008181526001602052604080822091909155517fe7ce18a300000000000000000000000000000000000000000000000000000000815260048101829052309073ffffffffffffffffffffffffffffffffffffffff7f0000000000000000000000000000000000000000000000000000000000000000169063e7ce18a390602401602060405180830381865afa158015611c57573d6000803e3d6000fd5b505050506040513d601f19601f82011682018060405250810190611c7b91906122ad565b73ffffffffffffffffffffffffffffffffffffffff1603611d39576040517f7022751500000000000000000000000000000000000000000000000000000000815260048101829052600060248201527f000000000000000000000000000000000000000000000000000000000000000073ffffffffffffffffffffffffffffffffffffffff1690637022751590604401600060405180830381600087803b158015611d2557600080fd5b505af11580156116c2573d6000803e3d6000fd5b50565b6000816040015173ffffffffffffffffffffffffffffffffffffffff16826020015173ffffffffffffffffffffffffffffffffffffffff1610611ddb576040517f08c379a000000000000000000000000000000000000000000000000000000000815260206004820152601760248201527f496e76616c6964206f72646572206f6620746f6b656e730000000000000000006044820152606401610757565b8151839073ffffffffffffffffffffffffffffffffffffffff1615611e545782516020808501516040808701519051611e4094930173ffffffffffffffffffffffffffffffffffffffff93841681529183166020830152909116604082015260600190565b604051602081830303815290604052611e9e565b6020808401516040808601519051611e8e930173ffffffffffffffffffffffffffffffffffffffff92831681529116602082015260400190565b6040516020818303038152906040525b8051602091820120604051611f3493927fb3fc09be5eb433d99b1ec89fd8435aaf5ffea75c1879e19028aa2414a14b3c8591017fff00000000000000000000000000000000000000000000000000000000000000815260609390931b7fffffffffffffffffffffffffffffffffffffffff0000000000000000000000001660018401526015830191909152603582015260550190565b604080517fffffffffffffffffffffffffffffffffffffffffffffffffffffffffffffffe081840301815291905280516020909101209392505050565b60008060408385031215611f8457600080fd5b50508035926020909101359150565b73ffffffffffffffffffffffffffffffffffffffff81168114611d3957600080fd5b60008060408385031215611fc857600080fd5b8235611fd381611f93565b91506020830135611fe381611f93565b809150509250929050565b8035611ff981611f93565b919050565b60008060006060848603121561201357600080fd5b833561201e81611f93565b9250602084013561202e81611f93565b929592945050506040919091013590565b60006020828403121561205157600080fd5b813561205c81611f93565b9392505050565b7f4e487b7100000000000000000000000000000000000000000000000000000000600052604160045260246000fd5b60008082840360a08112156120a657600080fd5b60808112156120b457600080fd5b506040516080810181811067ffffffffffffffff821117156120ff577f4e487b7100000000000000000000000000000000000000000000000000000000600052604160045260246000fd5b60405261210b84611fee565b815261211960208501611fee565b602082015261212a60408501611fee565b6040820152606084810135908201529460809093013593505050565b60006020828403121561215857600080fd5b5035919050565b6000806020838503121561217257600080fd5b823567ffffffffffffffff8082111561218a57600080fd5b818501915085601f83011261219e57600080fd5b8135818111156121ad57600080fd5b8660208260051b85010111156121c257600080fd5b60209290920196919550909350505050565b6000602080830181845280855180835260408601915060408160051b87010192508387016000805b83811015612294577fffffffffffffffffffffffffffffffffffffffffffffffffffffffffffffffc089870301855282518051808852835b8181101561224f578281018a01518982018b01528901612234565b508781018901849052601f017fffffffffffffffffffffffffffffffffffffffffffffffffffffffffffffffe0169096018701955093860193918601916001016121fc565b509398975050505050505050565b8051611ff981611f93565b6000602082840312156122bf57600080fd5b815161205c81611f93565b6000602082840312156122dc57600080fd5b5051919050565b6000602082840312156122f557600080fd5b8151801515811461205c57600080fd5b60a08101612350828573ffffffffffffffffffffffffffffffffffffffff80825116835280602083015116602084015280604083015116604084015250606081015160608301525050565b8260808301529392505050565b60c081016123a8828673ffffffffffffffffffffffffffffffffffffffff80825116835280602083015116602084015280604083015116604084015250606081015160608301525050565b83608083015273ffffffffffffffffffffffffffffffffffffffff831660a0830152949350505050565b600080604083850312156123e557600080fd5b505080516020909101519092909150565b7f4e487b7100000000000000000000000000000000000000000000000000000000600052603260045260246000fd5b60008083357fffffffffffffffffffffffffffffffffffffffffffffffffffffffffffffffe184360301811261245a57600080fd5b83018035915067ffffffffffffffff82111561247557600080fd5b60200191503681900382131561248a57600080fd5b9250929050565b8183823760009101908152919050565b8051600281900b8114611ff957600080fd5b80516fffffffffffffffffffffffffffffffff81168114611ff957600080fd5b6000806000806000806000806000806000806101808d8f0312156124f657600080fd5b8c516affffffffffffffffffffff8116811461251157600080fd5b9b5061251f60208e016122a2565b9a5061252d60408e016122a2565b995061253b60608e016122a2565b985061254960808e016122a2565b975061255760a08e016124a1565b965061256560c08e016124a1565b955061257360e08e016124b3565b94506101008d015193506101208d015192506125926101408e016124b3565b91506125a16101608e016124b3565b90509295989b509295989b509295989b565b60808101611a4e828473ffffffffffffffffffffffffffffffffffffffff8082511683528060208301511660208401528060408301511660408401525060608101516060830152505056fea164736f6c6343000814000a",
  "linkReferences": {},
  "deployedLinkReferences": {}
}