{"contracts/NonfungibleTokenPositionDescriptor.sol":{"NonfungibleTokenPositionDescriptor":{"abi":[{"inputs":[{"internalType":"address","name":"_WNativeToken","type":"address"},{"internalType":"string","name":"_nativeCurrencySymbol_","type":"string"},{"components":[{"internalType":"address","name":"tokenAddress","type":"address"},{"internalType":"int256","name":"tokenRatioSortOrder","type":"int256"}],"internalType":"struct NonfungibleTokenPositionDescriptor.TokenRatioSortData[]","name":"tokenDatas","type":"tuple[]"}],"stateMutability":"nonpayable","type":"constructor"},{"inputs":[],"name":"WNativeToken","outputs":[{"internalType":"address","name":"","type":"address"}],"stateMutability":"view","type":"function"},{"inputs":[],"name":"cachedThis","outputs":[{"internalType":"address","name":"","type":"address"}],"stateMutability":"view","type":"function"},{"inputs":[{"internalType":"address","name":"token0","type":"address"},{"internalType":"address","name":"token1","type":"address"}],"name":"flipRatio","outputs":[{"internalType":"bool","name":"","type":"bool"}],"stateMutability":"view","type":"function"},{"inputs":[],"name":"nativeCurrencySymbol","outputs":[{"internalType":"string","name":"","type":"string"}],"stateMutability":"view","type":"function"},{"inputs":[{"internalType":"address","name":"token","type":"address"}],"name":"tokenRatioPriority","outputs":[{"internalType":"int256","name":"","type":"int256"}],"stateMutability":"view","type":"function"},{"inputs":[{"internalType":"contract INonfungiblePositionManager","name":"positionManager","type":"address"},{"internalType":"uint256","name":"tokenId","type":"uint256"}],"name":"tokenURI","outputs":[{"internalType":"string","name":"","type":"string"}],"stateMutability":"view","type":"function"}],"evm":{"bytecode":{"linkReferences":{"contracts/libraries/NFTDescriptor.sol":{"NFTDescriptor":[{"length":20,"start":2330}]}},"object":"604060c081523462000357576200145d803803806200001e8162000371565b92833981016060828203126200035757620000398262000397565b6020838101519192916001600160401b039081811162000357578501601f8481830112156200035757815196838811620002fb57601f1997620000828382018a16870162000371565b93818552878783830101116200035757869060005b8381106200035c5750506000918501015288810151908482116200035757019480828701121562000357578551848111620002fb57620000dc868260051b0162000371565b96868089848152019260061b82010192808411620003575791908701915b838310620003115750505050856080523060a0528151928311620002fb57600054916001978884811c94168015620002f0575b86851014620002da57838386951162000280575b50859284116001146200021a57506000926200020e575b5050600019600383901b1c191690851b176000555b6001600160a01b039283166000908152848252859020606319905581519283620001c8575b85516110859081620003d882396080518181816102b301526109ae015260a05181818161096a01528181610adc0152610c130152f35b60005b848110620001da575062000192565b8083620001e9889387620003ac565b51015183620001f98388620003ac565b515116600052828552886000205501620001cb565b01519050388062000158565b8894929192169160008052856000209260005b878282106200026957505084116200024f575b505050811b016000556200016d565b015160001960f88460031b161c1916905538808062000240565b8385015186558b979095019493840193016200022d565b909192935060008052856000208480870160051c820192888810620002d0575b9187968c92969594930160051c01915b828110620002c057505062000141565b600081558796508b9101620002b0565b92508192620002a0565b634e487b7160e01b600052602260045260246000fd5b93607f16936200012d565b634e487b7160e01b600052604160045260246000fd5b8b8382031262000357578b518c810181811089821117620002fb578d9384928b9284526200033f8762000397565b815282870151838201528152019301929150620000fa565b600080fd5b81810183015187820184015288920162000097565b6040519190601f01601f191682016001600160401b03811183821017620002fb57604052565b51906001600160a01b03821682036200035757565b8051821015620003c15760209160051b010190565b634e487b7160e01b600052603260045260246000fdfe6080604052600436101561001257600080fd5b60003560e01c80637d4a8689146109d25780638af3ac851461098e5780638ba7888d1461094a578063dee91a2c14610901578063e1e06b9f146108d15763e9dc63751461005e57600080fd5b346105fb5760403660031901126105fb576004356001600160a01b0381168091036105fb576040517f99fbab88000000000000000000000000000000000000000000000000000000008152602435600482015261018081602481855afa9081156105a55760008093600090600093600095610804575b506020600491604051928380927f3119049a0000000000000000000000000000000000000000000000000000000082525afa9081156105a5576000916107ca575b506040519182606081011067ffffffffffffffff6060850111176105b1576001600160a01b0390606084016040521682526001600160a01b0383168060208401526001600160a01b03871690816040850152101561076c5781516001600160a01b03168061072f57506001600160a01b036040816020850151169301511660405192602084015260408301526040825281606081011067ffffffffffffffff6060840111176105b1578160606001600160a01b0393016040525b602081519101206040519060208201926001600160f81b031984526bffffffffffffffffffffffff199060601b16602183015260358201527fb3fc09be5eb433d99b1ec89fd8435aaf5ffea75c1879e19028aa2414a14b3c8560558201526055815261023a81610a5b565b519020169261024882610ad1565b61025186610ad1565b1291821595866000146107285780965b156107205750925b604051927fe76c01e400000000000000000000000000000000000000000000000000000000845260c084600481895afa9384156105a55760009461069d575b506001600160a01b037f00000000000000000000000000000000000000000000000000000000000000001696876001600160a01b0382161460001461068e576102ef610c11565b975b6001600160a01b0387160361068057610308610c11565b6040519663313ce56760e01b88526020886004816001600160a01b0387165afa9788156105a557600098610644575b506040519763313ce56760e01b89526020896004816001600160a01b0386165afa9283156105a557600093610608575b6040517fd0c93a7c000000000000000000000000000000000000000000000000000000008152995060208a6004818e5afa998a156105a55760009a6105c7575b506040519b8c67ffffffffffffffff6101a08281810110920111176105b1578c60406001600160a01b0360ff9896818a986101a08601855260243586521660208501521691015260608d015260808c01521660a08a01521660c088015260e087015260020b61010086015260020b61012085015260020b61014084015260020b61016083015261018082015260006040518080937fc49917d700000000000000000000000000000000000000000000000000000000825260206004830152805160248301526001600160a01b0360208201511660448301526001600160a01b0360408201511660648301526001600160a01b036101806104d16104bb60608501516101a060848801526101c4870190610a36565b60808501518682036023190160a4880152610a36565b9260ff60a08201511660c486015260ff60c08201511660e486015260e0810151151561010486015261010081015160020b61012486015261012081015160020b61014486015261014081015160020b61016486015261016081015160020b6101848601520151166101a4830152038173__$cea9be979eee3d87fb124d6cbb244bb0b5$__5af480156105a55761057e91600091610582575b50604051918291602083526020830190610a36565b0390f35b61059f91503d806000833e6105978183610aaf565b810190610baf565b38610569565b6040513d6000823e3d90fd5b634e487b7160e01b600052604160045260246000fd5b9099506020813d602011610600575b816105e360209383610aaf565b810103126105fb576105f490610d91565b98386103a7565b600080fd5b3d91506105d6565b92506020893d60201161063c575b8161062360209383610aaf565b810103126105fb57610636600499610dcb565b92610367565b3d9150610616565b9097506020813d602011610678575b8161066060209383610aaf565b810103126105fb5761067190610dcb565b9638610337565b3d9150610653565b61068986610dd9565b610308565b61069781610dd9565b976102f1565b90935060c0813d8211610718575b816106b860c09383610aaf565b810103126105fb5780516001600160a01b038116036105fb5760a06106df60208301610d91565b916106ec60408201610dbc565b506106f960608201610dcb565b5061070660808201610dbc565b500151801515036105fb5792386102a8565b3d91506106ab565b905092610269565b8196610261565b826001600160a01b03604081602081970151169201511690604051926020840152604083015260608201526060815261076781610a5b565b6101cf565b60646040517f08c379a000000000000000000000000000000000000000000000000000000000815260206004820152601760248201527f496e76616c6964206f72646572206f6620746f6b656e730000000000000000006044820152fd5b90506020813d6020116107fc575b816107e560209383610aaf565b810103126105fb576107f690610d7d565b38610115565b3d91506107d8565b95509350505050610180823d610180116108c9575b816108276101809383610aaf565b810103126105fb5781516affffffffffffffffffffff8116036105fb5761085060208301610d7d565b5061085d60408301610d7d565b9161086a60608201610d7d565b61087660808301610d7d565b936004602061088760a08601610d91565b926108bc61016061089a60c08901610d91565b976108a760e08201610d9f565b506108b56101408201610d9f565b5001610d9f565b50939692949591506100d4565b3d9150610819565b346105fb5760003660031901126105fb5761057e6108ed610c11565b604051918291602083526020830190610a36565b346105fb5760403660031901126105fb5761091a6109fd565b6024356001600160a01b03811681036105fb5761094161093b602093610ad1565b91610ad1565b12604051908152f35b346105fb5760003660031901126105fb5760206040516001600160a01b037f0000000000000000000000000000000000000000000000000000000000000000168152f35b346105fb5760003660031901126105fb5760206040516001600160a01b037f0000000000000000000000000000000000000000000000000000000000000000168152f35b346105fb5760203660031901126105fb5760206109f56109f06109fd565b610ad1565b604051908152f35b600435906001600160a01b03821682036105fb57565b60005b838110610a265750506000910152565b8181015183820152602001610a16565b90602091610a4f81518092818552858086019101610a13565b601f01601f1916010190565b6080810190811067ffffffffffffffff8211176105b157604052565b6040810190811067ffffffffffffffff8211176105b157604052565b6020810190811067ffffffffffffffff8211176105b157604052565b90601f8019910116810190811067ffffffffffffffff8211176105b157604052565b6001600160a01b03907f00000000000000000000000000000000000000000000000000000000000000008216308103610b17575016600052600160205260406000205490565b91602460209260405194859384927f7d4a86890000000000000000000000000000000000000000000000000000000084521660048301525afa9081156105a557600091610b62575090565b906020823d8211610b8b575b81610b7b60209383610aaf565b81010312610b8857505190565b80fd5b3d9150610b6e565b67ffffffffffffffff81116105b157601f01601f191660200190565b6020818303126105fb5780519067ffffffffffffffff82116105fb570181601f820112156105fb578051610be281610b93565b92610bf06040519485610aaf565b818452602082840101116105fb57610c0e9160208085019101610a13565b90565b7f00000000000000000000000000000000000000000000000000000000000000006001600160a01b0316308103610d2757506040516000805490600182811c90808416938415610d1d575b6020948584108114610d095783875286949392918115610ce95750600114610c8d575b5050610c0e92500382610aaf565b60008080527f290decd9548b62a8d60345a988386fc84ba6bc95484008f6362f93160ef3e56395935091905b818310610cd1575050610c0e93508201013880610c7f565b85548784018501529485019486945091830191610cb9565b915050610c0e94925060ff191682840152151560051b8201013880610c7f565b602485634e487b7160e01b81526022600452fd5b91607f1691610c5c565b6000600491604051928380927fe1e06b9f0000000000000000000000000000000000000000000000000000000082525afa9081156105a557600091610d6a575090565b610c0e913d8091833e6105978183610aaf565b51906001600160a01b03821682036105fb57565b51908160020b82036105fb57565b51906fffffffffffffffffffffffffffffffff821682036105fb57565b519061ffff821682036105fb57565b519060ff821682036105fb57565b610de281610ece565b90815115610dee575090565b9190506001600160a01b0360405192610e0684610a77565b600684526020368186013716600090815b600380821015610e7757908260019282601303901b1c610e70610e3f600f8360041c16610ea4565b91610e66859185831b94891a610e55868d610e7d565b5360f0811660ff9182160316610ea4565b871a920188610e7d565b5301610e17565b50505050565b908151811015610e8e570160200190565b634e487b7160e01b600052603260045260246000fd5b6001600160f81b031990600a60ff82161015610ec45760300160f81b1690565b60370160f81b1690565b604090815190602091828101907f95d89b4100000000000000000000000000000000000000000000000000000000825260048152610f0b81610a77565b6000928392839251915afa3d15611070573d90610f2782610b93565b91610f3486519384610aaf565b82523d838584013e5b158015611067575b611058578051838103611028575082818051810103126110245782015191835190610f6f82610a77565b8082528036818401378293835b828110610feb575050610f9a610f9185610b93565b95519586610aaf565b838552601f19610fa985610b93565b01903690860137815b838110610fc0575050505090565b806001600160f81b0319610fd660019385610e7d565b5116841a610fe48288610e7d565b5301610fb2565b81811a6001600160f81b03198160f81b1661100a575b50600101610f7c565b86600192979161101b849388610e7d565b53019590611001565b5080fd5b848195949293951161104757505050519061104282610a93565b815290565b610c0e945082018101925001610baf565b50919050519061104282610a93565b50805115610f45565b606090610f3d56fea164736f6c6343000814000a","opcodes":"PUSH1 0x40 PUSH1 0xC0 DUP2 MSTORE CALLVALUE PUSH3 0x357 JUMPI PUSH3 0x145D DUP1 CODESIZE SUB DUP1 PUSH3 0x1E DUP2 PUSH3 0x371 JUMP JUMPDEST SWAP3 DUP4 CODECOPY DUP2 ADD PUSH1 0x60 DUP3 DUP3 SUB SLT PUSH3 0x357 JUMPI PUSH3 0x39 DUP3 PUSH3 0x397 JUMP JUMPDEST PUSH1 0x20 DUP4 DUP2 ADD MLOAD SWAP2 SWAP3 SWAP2 PUSH1 0x1 PUSH1 0x1 PUSH1 0x40 SHL SUB SWAP1 DUP2 DUP2 GT PUSH3 0x357 JUMPI DUP6 ADD PUSH1 0x1F DUP5 DUP2 DUP4 ADD SLT ISZERO PUSH3 0x357 JUMPI DUP2 MLOAD SWAP7 DUP4 DUP9 GT PUSH3 0x2FB JUMPI PUSH1 0x1F NOT SWAP8 PUSH3 0x82 DUP4 DUP3 ADD DUP11 AND DUP8 ADD PUSH3 0x371 JUMP JUMPDEST SWAP4 DUP2 DUP6 MSTORE DUP8 DUP8 DUP4 DUP4 ADD ADD GT PUSH3 0x357 JUMPI DUP7 SWAP1 PUSH1 0x0 JUMPDEST DUP4 DUP2 LT PUSH3 0x35C JUMPI POP POP PUSH1 0x0 SWAP2 DUP6 ADD ADD MSTORE DUP9 DUP2 ADD MLOAD SWAP1 DUP5 DUP3 GT PUSH3 0x357 JUMPI ADD SWAP5 DUP1 DUP3 DUP8 ADD SLT ISZERO PUSH3 0x357 JUMPI DUP6 MLOAD DUP5 DUP2 GT PUSH3 0x2FB JUMPI PUSH3 0xDC DUP7 DUP3 PUSH1 0x5 SHL ADD PUSH3 0x371 JUMP JUMPDEST SWAP7 DUP7 DUP1 DUP10 DUP5 DUP2 MSTORE ADD SWAP3 PUSH1 0x6 SHL DUP3 ADD ADD SWAP3 DUP1 DUP5 GT PUSH3 0x357 JUMPI SWAP2 SWAP1 DUP8 ADD SWAP2 JUMPDEST DUP4 DUP4 LT PUSH3 0x311 JUMPI POP POP POP POP DUP6 PUSH1 0x80 MSTORE ADDRESS PUSH1 0xA0 MSTORE DUP2 MLOAD SWAP3 DUP4 GT PUSH3 0x2FB JUMPI PUSH1 0x0 SLOAD SWAP2 PUSH1 0x1 SWAP8 DUP9 DUP5 DUP2 SHR SWAP5 AND DUP1 ISZERO PUSH3 0x2F0 JUMPI JUMPDEST DUP7 DUP6 LT EQ PUSH3 0x2DA JUMPI DUP4 DUP4 DUP7 SWAP6 GT PUSH3 0x280 JUMPI JUMPDEST POP DUP6 SWAP3 DUP5 GT PUSH1 0x1 EQ PUSH3 0x21A JUMPI POP PUSH1 0x0 SWAP3 PUSH3 0x20E JUMPI JUMPDEST POP POP PUSH1 0x0 NOT PUSH1 0x3 DUP4 SWAP1 SHL SHR NOT AND SWAP1 DUP6 SHL OR PUSH1 0x0 SSTORE JUMPDEST PUSH1 0x1 PUSH1 0x1 PUSH1 0xA0 SHL SUB SWAP3 DUP4 AND PUSH1 0x0 SWAP1 DUP2 MSTORE DUP5 DUP3 MSTORE DUP6 SWAP1 KECCAK256 PUSH1 0x63 NOT SWAP1 SSTORE DUP2 MLOAD SWAP3 DUP4 PUSH3 0x1C8 JUMPI JUMPDEST DUP6 MLOAD PUSH2 0x1085 SWAP1 DUP2 PUSH3 0x3D8 DUP3 CODECOPY PUSH1 0x80 MLOAD DUP2 DUP2 DUP2 PUSH2 0x2B3 ADD MSTORE PUSH2 0x9AE ADD MSTORE PUSH1 0xA0 MLOAD DUP2 DUP2 DUP2 PUSH2 0x96A ADD MSTORE DUP2 DUP2 PUSH2 0xADC ADD MSTORE PUSH2 0xC13 ADD MSTORE RETURN JUMPDEST PUSH1 0x0 JUMPDEST DUP5 DUP2 LT PUSH3 0x1DA JUMPI POP PUSH3 0x192 JUMP JUMPDEST DUP1 DUP4 PUSH3 0x1E9 DUP9 SWAP4 DUP8 PUSH3 0x3AC JUMP JUMPDEST MLOAD ADD MLOAD DUP4 PUSH3 0x1F9 DUP4 DUP9 PUSH3 0x3AC JUMP JUMPDEST MLOAD MLOAD AND PUSH1 0x0 MSTORE DUP3 DUP6 MSTORE DUP9 PUSH1 0x0 KECCAK256 SSTORE ADD PUSH3 0x1CB JUMP JUMPDEST ADD MLOAD SWAP1 POP CODESIZE DUP1 PUSH3 0x158 JUMP JUMPDEST DUP9 SWAP5 SWAP3 SWAP2 SWAP3 AND SWAP2 PUSH1 0x0 DUP1 MSTORE DUP6 PUSH1 0x0 KECCAK256 SWAP3 PUSH1 0x0 JUMPDEST DUP8 DUP3 DUP3 LT PUSH3 0x269 JUMPI POP POP DUP5 GT PUSH3 0x24F JUMPI JUMPDEST POP POP POP DUP2 SHL ADD PUSH1 0x0 SSTORE PUSH3 0x16D JUMP JUMPDEST ADD MLOAD PUSH1 0x0 NOT PUSH1 0xF8 DUP5 PUSH1 0x3 SHL AND SHR NOT AND SWAP1 SSTORE CODESIZE DUP1 DUP1 PUSH3 0x240 JUMP JUMPDEST DUP4 DUP6 ADD MLOAD DUP7 SSTORE DUP12 SWAP8 SWAP1 SWAP6 ADD SWAP5 SWAP4 DUP5 ADD SWAP4 ADD PUSH3 0x22D JUMP JUMPDEST SWAP1 SWAP2 SWAP3 SWAP4 POP PUSH1 0x0 DUP1 MSTORE DUP6 PUSH1 0x0 KECCAK256 DUP5 DUP1 DUP8 ADD PUSH1 0x5 SHR DUP3 ADD SWAP3 DUP9 DUP9 LT PUSH3 0x2D0 JUMPI JUMPDEST SWAP2 DUP8 SWAP7 DUP13 SWAP3 SWAP7 SWAP6 SWAP5 SWAP4 ADD PUSH1 0x5 SHR ADD SWAP2 JUMPDEST DUP3 DUP2 LT PUSH3 0x2C0 JUMPI POP POP PUSH3 0x141 JUMP JUMPDEST PUSH1 0x0 DUP2 SSTORE DUP8 SWAP7 POP DUP12 SWAP2 ADD PUSH3 0x2B0 JUMP JUMPDEST SWAP3 POP DUP2 SWAP3 PUSH3 0x2A0 JUMP JUMPDEST PUSH4 0x4E487B71 PUSH1 0xE0 SHL PUSH1 0x0 MSTORE PUSH1 0x22 PUSH1 0x4 MSTORE PUSH1 0x24 PUSH1 0x0 REVERT JUMPDEST SWAP4 PUSH1 0x7F AND SWAP4 PUSH3 0x12D JUMP JUMPDEST PUSH4 0x4E487B71 PUSH1 0xE0 SHL PUSH1 0x0 MSTORE PUSH1 0x41 PUSH1 0x4 MSTORE PUSH1 0x24 PUSH1 0x0 REVERT JUMPDEST DUP12 DUP4 DUP3 SUB SLT PUSH3 0x357 JUMPI DUP12 MLOAD DUP13 DUP2 ADD DUP2 DUP2 LT DUP10 DUP3 GT OR PUSH3 0x2FB JUMPI DUP14 SWAP4 DUP5 SWAP3 DUP12 SWAP3 DUP5 MSTORE PUSH3 0x33F DUP8 PUSH3 0x397 JUMP JUMPDEST DUP2 MSTORE DUP3 DUP8 ADD MLOAD DUP4 DUP3 ADD MSTORE DUP2 MSTORE ADD SWAP4 ADD SWAP3 SWAP2 POP PUSH3 0xFA JUMP JUMPDEST PUSH1 0x0 DUP1 REVERT JUMPDEST DUP2 DUP2 ADD DUP4 ADD MLOAD DUP8 DUP3 ADD DUP5 ADD MSTORE DUP9 SWAP3 ADD PUSH3 0x97 JUMP JUMPDEST PUSH1 0x40 MLOAD SWAP2 SWAP1 PUSH1 0x1F ADD PUSH1 0x1F NOT AND DUP3 ADD PUSH1 0x1 PUSH1 0x1 PUSH1 0x40 SHL SUB DUP2 GT DUP4 DUP3 LT OR PUSH3 0x2FB JUMPI PUSH1 0x40 MSTORE JUMP JUMPDEST MLOAD SWAP1 PUSH1 0x1 PUSH1 0x1 PUSH1 0xA0 SHL SUB DUP3 AND DUP3 SUB PUSH3 0x357 JUMPI JUMP JUMPDEST DUP1 MLOAD DUP3 LT ISZERO PUSH3 0x3C1 JUMPI PUSH1 0x20 SWAP2 PUSH1 0x5 SHL ADD ADD SWAP1 JUMP JUMPDEST PUSH4 0x4E487B71 PUSH1 0xE0 SHL PUSH1 0x0 MSTORE PUSH1 0x32 PUSH1 0x4 MSTORE PUSH1 0x24 PUSH1 0x0 REVERT INVALID PUSH1 0x80 PUSH1 0x40 MSTORE PUSH1 0x4 CALLDATASIZE LT ISZERO PUSH2 0x12 JUMPI PUSH1 0x0 DUP1 REVERT JUMPDEST PUSH1 0x0 CALLDATALOAD PUSH1 0xE0 SHR DUP1 PUSH4 0x7D4A8689 EQ PUSH2 0x9D2 JUMPI DUP1 PUSH4 0x8AF3AC85 EQ PUSH2 0x98E JUMPI DUP1 PUSH4 0x8BA7888D EQ PUSH2 0x94A JUMPI DUP1 PUSH4 0xDEE91A2C EQ PUSH2 0x901 JUMPI DUP1 PUSH4 0xE1E06B9F EQ PUSH2 0x8D1 JUMPI PUSH4 0xE9DC6375 EQ PUSH2 0x5E JUMPI PUSH1 0x0 DUP1 REVERT JUMPDEST CALLVALUE PUSH2 0x5FB JUMPI PUSH1 0x40 CALLDATASIZE PUSH1 0x3 NOT ADD SLT PUSH2 0x5FB JUMPI PUSH1 0x4 CALLDATALOAD PUSH1 0x1 PUSH1 0x1 PUSH1 0xA0 SHL SUB DUP2 AND DUP1 SWAP2 SUB PUSH2 0x5FB JUMPI PUSH1 0x40 MLOAD PUSH32 0x99FBAB8800000000000000000000000000000000000000000000000000000000 DUP2 MSTORE PUSH1 0x24 CALLDATALOAD PUSH1 0x4 DUP3 ADD MSTORE PUSH2 0x180 DUP2 PUSH1 0x24 DUP2 DUP6 GAS STATICCALL SWAP1 DUP2 ISZERO PUSH2 0x5A5 JUMPI PUSH1 0x0 DUP1 SWAP4 PUSH1 0x0 SWAP1 PUSH1 0x0 SWAP4 PUSH1 0x0 SWAP6 PUSH2 0x804 JUMPI JUMPDEST POP PUSH1 0x20 PUSH1 0x4 SWAP2 PUSH1 0x40 MLOAD SWAP3 DUP4 DUP1 SWAP3 PUSH32 0x3119049A00000000000000000000000000000000000000000000000000000000 DUP3 MSTORE GAS STATICCALL SWAP1 DUP2 ISZERO PUSH2 0x5A5 JUMPI PUSH1 0x0 SWAP2 PUSH2 0x7CA JUMPI JUMPDEST POP PUSH1 0x40 MLOAD SWAP2 DUP3 PUSH1 0x60 DUP2 ADD LT PUSH8 0xFFFFFFFFFFFFFFFF PUSH1 0x60 DUP6 ADD GT OR PUSH2 0x5B1 JUMPI PUSH1 0x1 PUSH1 0x1 PUSH1 0xA0 SHL SUB SWAP1 PUSH1 0x60 DUP5 ADD PUSH1 0x40 MSTORE AND DUP3 MSTORE PUSH1 0x1 PUSH1 0x1 PUSH1 0xA0 SHL SUB DUP4 AND DUP1 PUSH1 0x20 DUP5 ADD MSTORE PUSH1 0x1 PUSH1 0x1 PUSH1 0xA0 SHL SUB DUP8 AND SWAP1 DUP2 PUSH1 0x40 DUP6 ADD MSTORE LT ISZERO PUSH2 0x76C JUMPI DUP2 MLOAD PUSH1 0x1 PUSH1 0x1 PUSH1 0xA0 SHL SUB AND DUP1 PUSH2 0x72F JUMPI POP PUSH1 0x1 PUSH1 0x1 PUSH1 0xA0 SHL SUB PUSH1 0x40 DUP2 PUSH1 0x20 DUP6 ADD MLOAD AND SWAP4 ADD MLOAD AND PUSH1 0x40 MLOAD SWAP3 PUSH1 0x20 DUP5 ADD MSTORE PUSH1 0x40 DUP4 ADD MSTORE PUSH1 0x40 DUP3 MSTORE DUP2 PUSH1 0x60 DUP2 ADD LT PUSH8 0xFFFFFFFFFFFFFFFF PUSH1 0x60 DUP5 ADD GT OR PUSH2 0x5B1 JUMPI DUP2 PUSH1 0x60 PUSH1 0x1 PUSH1 0x1 PUSH1 0xA0 SHL SUB SWAP4 ADD PUSH1 0x40 MSTORE JUMPDEST PUSH1 0x20 DUP2 MLOAD SWAP2 ADD KECCAK256 PUSH1 0x40 MLOAD SWAP1 PUSH1 0x20 DUP3 ADD SWAP3 PUSH1 0x1 PUSH1 0x1 PUSH1 0xF8 SHL SUB NOT DUP5 MSTORE PUSH12 0xFFFFFFFFFFFFFFFFFFFFFFFF NOT SWAP1 PUSH1 0x60 SHL AND PUSH1 0x21 DUP4 ADD MSTORE PUSH1 0x35 DUP3 ADD MSTORE PUSH32 0xB3FC09BE5EB433D99B1EC89FD8435AAF5FFEA75C1879E19028AA2414A14B3C85 PUSH1 0x55 DUP3 ADD MSTORE PUSH1 0x55 DUP2 MSTORE PUSH2 0x23A DUP2 PUSH2 0xA5B JUMP JUMPDEST MLOAD SWAP1 KECCAK256 AND SWAP3 PUSH2 0x248 DUP3 PUSH2 0xAD1 JUMP JUMPDEST PUSH2 0x251 DUP7 PUSH2 0xAD1 JUMP JUMPDEST SLT SWAP2 DUP3 ISZERO SWAP6 DUP7 PUSH1 0x0 EQ PUSH2 0x728 JUMPI DUP1 SWAP7 JUMPDEST ISZERO PUSH2 0x720 JUMPI POP SWAP3 JUMPDEST PUSH1 0x40 MLOAD SWAP3 PUSH32 0xE76C01E400000000000000000000000000000000000000000000000000000000 DUP5 MSTORE PUSH1 0xC0 DUP5 PUSH1 0x4 DUP2 DUP10 GAS STATICCALL SWAP4 DUP5 ISZERO PUSH2 0x5A5 JUMPI PUSH1 0x0 SWAP5 PUSH2 0x69D JUMPI JUMPDEST POP PUSH1 0x1 PUSH1 0x1 PUSH1 0xA0 SHL SUB PUSH32 0x0 AND SWAP7 DUP8 PUSH1 0x1 PUSH1 0x1 PUSH1 0xA0 SHL SUB DUP3 AND EQ PUSH1 0x0 EQ PUSH2 0x68E JUMPI PUSH2 0x2EF PUSH2 0xC11 JUMP JUMPDEST SWAP8 JUMPDEST PUSH1 0x1 PUSH1 0x1 PUSH1 0xA0 SHL SUB DUP8 AND SUB PUSH2 0x680 JUMPI PUSH2 0x308 PUSH2 0xC11 JUMP JUMPDEST PUSH1 0x40 MLOAD SWAP7 PUSH4 0x313CE567 PUSH1 0xE0 SHL DUP9 MSTORE PUSH1 0x20 DUP9 PUSH1 0x4 DUP2 PUSH1 0x1 PUSH1 0x1 PUSH1 0xA0 SHL SUB DUP8 AND GAS STATICCALL SWAP8 DUP9 ISZERO PUSH2 0x5A5 JUMPI PUSH1 0x0 SWAP9 PUSH2 0x644 JUMPI JUMPDEST POP PUSH1 0x40 MLOAD SWAP8 PUSH4 0x313CE567 PUSH1 0xE0 SHL DUP10 MSTORE PUSH1 0x20 DUP10 PUSH1 0x4 DUP2 PUSH1 0x1 PUSH1 0x1 PUSH1 0xA0 SHL SUB DUP7 AND GAS STATICCALL SWAP3 DUP4 ISZERO PUSH2 0x5A5 JUMPI PUSH1 0x0 SWAP4 PUSH2 0x608 JUMPI JUMPDEST PUSH1 0x40 MLOAD PUSH32 0xD0C93A7C00000000000000000000000000000000000000000000000000000000 DUP2 MSTORE SWAP10 POP PUSH1 0x20 DUP11 PUSH1 0x4 DUP2 DUP15 GAS STATICCALL SWAP10 DUP11 ISZERO PUSH2 0x5A5 JUMPI PUSH1 0x0 SWAP11 PUSH2 0x5C7 JUMPI JUMPDEST POP PUSH1 0x40 MLOAD SWAP12 DUP13 PUSH8 0xFFFFFFFFFFFFFFFF PUSH2 0x1A0 DUP3 DUP2 DUP2 ADD LT SWAP3 ADD GT OR PUSH2 0x5B1 JUMPI DUP13 PUSH1 0x40 PUSH1 0x1 PUSH1 0x1 PUSH1 0xA0 SHL SUB PUSH1 0xFF SWAP9 SWAP7 DUP2 DUP11 SWAP9 PUSH2 0x1A0 DUP7 ADD DUP6 MSTORE PUSH1 0x24 CALLDATALOAD DUP7 MSTORE AND PUSH1 0x20 DUP6 ADD MSTORE AND SWAP2 ADD MSTORE PUSH1 0x60 DUP14 ADD MSTORE PUSH1 0x80 DUP13 ADD MSTORE AND PUSH1 0xA0 DUP11 ADD MSTORE AND PUSH1 0xC0 DUP9 ADD MSTORE PUSH1 0xE0 DUP8 ADD MSTORE PUSH1 0x2 SIGNEXTEND PUSH2 0x100 DUP7 ADD MSTORE PUSH1 0x2 SIGNEXTEND PUSH2 0x120 DUP6 ADD MSTORE PUSH1 0x2 SIGNEXTEND PUSH2 0x140 DUP5 ADD MSTORE PUSH1 0x2 SIGNEXTEND PUSH2 0x160 DUP4 ADD MSTORE PUSH2 0x180 DUP3 ADD MSTORE PUSH1 0x0 PUSH1 0x40 MLOAD DUP1 DUP1 SWAP4 PUSH32 0xC49917D700000000000000000000000000000000000000000000000000000000 DUP3 MSTORE PUSH1 0x20 PUSH1 0x4 DUP4 ADD MSTORE DUP1 MLOAD PUSH1 0x24 DUP4 ADD MSTORE PUSH1 0x1 PUSH1 0x1 PUSH1 0xA0 SHL SUB PUSH1 0x20 DUP3 ADD MLOAD AND PUSH1 0x44 DUP4 ADD MSTORE PUSH1 0x1 PUSH1 0x1 PUSH1 0xA0 SHL SUB PUSH1 0x40 DUP3 ADD MLOAD AND PUSH1 0x64 DUP4 ADD MSTORE PUSH1 0x1 PUSH1 0x1 PUSH1 0xA0 SHL SUB PUSH2 0x180 PUSH2 0x4D1 PUSH2 0x4BB PUSH1 0x60 DUP6 ADD MLOAD PUSH2 0x1A0 PUSH1 0x84 DUP9 ADD MSTORE PUSH2 0x1C4 DUP8 ADD SWAP1 PUSH2 0xA36 JUMP JUMPDEST PUSH1 0x80 DUP6 ADD MLOAD DUP7 DUP3 SUB PUSH1 0x23 NOT ADD PUSH1 0xA4 DUP9 ADD MSTORE PUSH2 0xA36 JUMP JUMPDEST SWAP3 PUSH1 0xFF PUSH1 0xA0 DUP3 ADD MLOAD AND PUSH1 0xC4 DUP7 ADD MSTORE PUSH1 0xFF PUSH1 0xC0 DUP3 ADD MLOAD AND PUSH1 0xE4 DUP7 ADD MSTORE PUSH1 0xE0 DUP2 ADD MLOAD ISZERO ISZERO PUSH2 0x104 DUP7 ADD MSTORE PUSH2 0x100 DUP2 ADD MLOAD PUSH1 0x2 SIGNEXTEND PUSH2 0x124 DUP7 ADD MSTORE PUSH2 0x120 DUP2 ADD MLOAD PUSH1 0x2 SIGNEXTEND PUSH2 0x144 DUP7 ADD MSTORE PUSH2 0x140 DUP2 ADD MLOAD PUSH1 0x2 SIGNEXTEND PUSH2 0x164 DUP7 ADD MSTORE PUSH2 0x160 DUP2 ADD MLOAD PUSH1 0x2 SIGNEXTEND PUSH2 0x184 DUP7 ADD MSTORE ADD MLOAD AND PUSH2 0x1A4 DUP4 ADD MSTORE SUB DUP2 PUSH20 0x0 GAS DELEGATECALL DUP1 ISZERO PUSH2 0x5A5 JUMPI PUSH2 0x57E SWAP2 PUSH1 0x0 SWAP2 PUSH2 0x582 JUMPI JUMPDEST POP PUSH1 0x40 MLOAD SWAP2 DUP3 SWAP2 PUSH1 0x20 DUP4 MSTORE PUSH1 0x20 DUP4 ADD SWAP1 PUSH2 0xA36 JUMP JUMPDEST SUB SWAP1 RETURN JUMPDEST PUSH2 0x59F SWAP2 POP RETURNDATASIZE DUP1 PUSH1 0x0 DUP4 RETURNDATACOPY PUSH2 0x597 DUP2 DUP4 PUSH2 0xAAF JUMP JUMPDEST DUP2 ADD SWAP1 PUSH2 0xBAF JUMP JUMPDEST CODESIZE PUSH2 0x569 JUMP JUMPDEST PUSH1 0x40 MLOAD RETURNDATASIZE PUSH1 0x0 DUP3 RETURNDATACOPY RETURNDATASIZE SWAP1 REVERT JUMPDEST PUSH4 0x4E487B71 PUSH1 0xE0 SHL PUSH1 0x0 MSTORE PUSH1 0x41 PUSH1 0x4 MSTORE PUSH1 0x24 PUSH1 0x0 REVERT JUMPDEST SWAP1 SWAP10 POP PUSH1 0x20 DUP2 RETURNDATASIZE PUSH1 0x20 GT PUSH2 0x600 JUMPI JUMPDEST DUP2 PUSH2 0x5E3 PUSH1 0x20 SWAP4 DUP4 PUSH2 0xAAF JUMP JUMPDEST DUP2 ADD SUB SLT PUSH2 0x5FB JUMPI PUSH2 0x5F4 SWAP1 PUSH2 0xD91 JUMP JUMPDEST SWAP9 CODESIZE PUSH2 0x3A7 JUMP JUMPDEST PUSH1 0x0 DUP1 REVERT JUMPDEST RETURNDATASIZE SWAP2 POP PUSH2 0x5D6 JUMP JUMPDEST SWAP3 POP PUSH1 0x20 DUP10 RETURNDATASIZE PUSH1 0x20 GT PUSH2 0x63C JUMPI JUMPDEST DUP2 PUSH2 0x623 PUSH1 0x20 SWAP4 DUP4 PUSH2 0xAAF JUMP JUMPDEST DUP2 ADD SUB SLT PUSH2 0x5FB JUMPI PUSH2 0x636 PUSH1 0x4 SWAP10 PUSH2 0xDCB JUMP JUMPDEST SWAP3 PUSH2 0x367 JUMP JUMPDEST RETURNDATASIZE SWAP2 POP PUSH2 0x616 JUMP JUMPDEST SWAP1 SWAP8 POP PUSH1 0x20 DUP2 RETURNDATASIZE PUSH1 0x20 GT PUSH2 0x678 JUMPI JUMPDEST DUP2 PUSH2 0x660 PUSH1 0x20 SWAP4 DUP4 PUSH2 0xAAF JUMP JUMPDEST DUP2 ADD SUB SLT PUSH2 0x5FB JUMPI PUSH2 0x671 SWAP1 PUSH2 0xDCB JUMP JUMPDEST SWAP7 CODESIZE PUSH2 0x337 JUMP JUMPDEST RETURNDATASIZE SWAP2 POP PUSH2 0x653 JUMP JUMPDEST PUSH2 0x689 DUP7 PUSH2 0xDD9 JUMP JUMPDEST PUSH2 0x308 JUMP JUMPDEST PUSH2 0x697 DUP2 PUSH2 0xDD9 JUMP JUMPDEST SWAP8 PUSH2 0x2F1 JUMP JUMPDEST SWAP1 SWAP4 POP PUSH1 0xC0 DUP2 RETURNDATASIZE DUP3 GT PUSH2 0x718 JUMPI JUMPDEST DUP2 PUSH2 0x6B8 PUSH1 0xC0 SWAP4 DUP4 PUSH2 0xAAF JUMP JUMPDEST DUP2 ADD SUB SLT PUSH2 0x5FB JUMPI DUP1 MLOAD PUSH1 0x1 PUSH1 0x1 PUSH1 0xA0 SHL SUB DUP2 AND SUB PUSH2 0x5FB JUMPI PUSH1 0xA0 PUSH2 0x6DF PUSH1 0x20 DUP4 ADD PUSH2 0xD91 JUMP JUMPDEST SWAP2 PUSH2 0x6EC PUSH1 0x40 DUP3 ADD PUSH2 0xDBC JUMP JUMPDEST POP PUSH2 0x6F9 PUSH1 0x60 DUP3 ADD PUSH2 0xDCB JUMP JUMPDEST POP PUSH2 0x706 PUSH1 0x80 DUP3 ADD PUSH2 0xDBC JUMP JUMPDEST POP ADD MLOAD DUP1 ISZERO ISZERO SUB PUSH2 0x5FB JUMPI SWAP3 CODESIZE PUSH2 0x2A8 JUMP JUMPDEST RETURNDATASIZE SWAP2 POP PUSH2 0x6AB JUMP JUMPDEST SWAP1 POP SWAP3 PUSH2 0x269 JUMP JUMPDEST DUP2 SWAP7 PUSH2 0x261 JUMP JUMPDEST DUP3 PUSH1 0x1 PUSH1 0x1 PUSH1 0xA0 SHL SUB PUSH1 0x40 DUP2 PUSH1 0x20 DUP2 SWAP8 ADD MLOAD AND SWAP3 ADD MLOAD AND SWAP1 PUSH1 0x40 MLOAD SWAP3 PUSH1 0x20 DUP5 ADD MSTORE PUSH1 0x40 DUP4 ADD MSTORE PUSH1 0x60 DUP3 ADD MSTORE PUSH1 0x60 DUP2 MSTORE PUSH2 0x767 DUP2 PUSH2 0xA5B JUMP JUMPDEST PUSH2 0x1CF JUMP JUMPDEST PUSH1 0x64 PUSH1 0x40 MLOAD PUSH32 0x8C379A000000000000000000000000000000000000000000000000000000000 DUP2 MSTORE PUSH1 0x20 PUSH1 0x4 DUP3 ADD MSTORE PUSH1 0x17 PUSH1 0x24 DUP3 ADD MSTORE PUSH32 0x496E76616C6964206F72646572206F6620746F6B656E73000000000000000000 PUSH1 0x44 DUP3 ADD MSTORE REVERT JUMPDEST SWAP1 POP PUSH1 0x20 DUP2 RETURNDATASIZE PUSH1 0x20 GT PUSH2 0x7FC JUMPI JUMPDEST DUP2 PUSH2 0x7E5 PUSH1 0x20 SWAP4 DUP4 PUSH2 0xAAF JUMP JUMPDEST DUP2 ADD SUB SLT PUSH2 0x5FB JUMPI PUSH2 0x7F6 SWAP1 PUSH2 0xD7D JUMP JUMPDEST CODESIZE PUSH2 0x115 JUMP JUMPDEST RETURNDATASIZE SWAP2 POP PUSH2 0x7D8 JUMP JUMPDEST SWAP6 POP SWAP4 POP POP POP POP PUSH2 0x180 DUP3 RETURNDATASIZE PUSH2 0x180 GT PUSH2 0x8C9 JUMPI JUMPDEST DUP2 PUSH2 0x827 PUSH2 0x180 SWAP4 DUP4 PUSH2 0xAAF JUMP JUMPDEST DUP2 ADD SUB SLT PUSH2 0x5FB JUMPI DUP2 MLOAD PUSH11 0xFFFFFFFFFFFFFFFFFFFFFF DUP2 AND SUB PUSH2 0x5FB JUMPI PUSH2 0x850 PUSH1 0x20 DUP4 ADD PUSH2 0xD7D JUMP JUMPDEST POP PUSH2 0x85D PUSH1 0x40 DUP4 ADD PUSH2 0xD7D JUMP JUMPDEST SWAP2 PUSH2 0x86A PUSH1 0x60 DUP3 ADD PUSH2 0xD7D JUMP JUMPDEST PUSH2 0x876 PUSH1 0x80 DUP4 ADD PUSH2 0xD7D JUMP JUMPDEST SWAP4 PUSH1 0x4 PUSH1 0x20 PUSH2 0x887 PUSH1 0xA0 DUP7 ADD PUSH2 0xD91 JUMP JUMPDEST SWAP3 PUSH2 0x8BC PUSH2 0x160 PUSH2 0x89A PUSH1 0xC0 DUP10 ADD PUSH2 0xD91 JUMP JUMPDEST SWAP8 PUSH2 0x8A7 PUSH1 0xE0 DUP3 ADD PUSH2 0xD9F JUMP JUMPDEST POP PUSH2 0x8B5 PUSH2 0x140 DUP3 ADD PUSH2 0xD9F JUMP JUMPDEST POP ADD PUSH2 0xD9F JUMP JUMPDEST POP SWAP4 SWAP7 SWAP3 SWAP5 SWAP6 SWAP2 POP PUSH2 0xD4 JUMP JUMPDEST RETURNDATASIZE SWAP2 POP PUSH2 0x819 JUMP JUMPDEST CALLVALUE PUSH2 0x5FB JUMPI PUSH1 0x0 CALLDATASIZE PUSH1 0x3 NOT ADD SLT PUSH2 0x5FB JUMPI PUSH2 0x57E PUSH2 0x8ED PUSH2 0xC11 JUMP JUMPDEST PUSH1 0x40 MLOAD SWAP2 DUP3 SWAP2 PUSH1 0x20 DUP4 MSTORE PUSH1 0x20 DUP4 ADD SWAP1 PUSH2 0xA36 JUMP JUMPDEST CALLVALUE PUSH2 0x5FB JUMPI PUSH1 0x40 CALLDATASIZE PUSH1 0x3 NOT ADD SLT PUSH2 0x5FB JUMPI PUSH2 0x91A PUSH2 0x9FD JUMP JUMPDEST PUSH1 0x24 CALLDATALOAD PUSH1 0x1 PUSH1 0x1 PUSH1 0xA0 SHL SUB DUP2 AND DUP2 SUB PUSH2 0x5FB JUMPI PUSH2 0x941 PUSH2 0x93B PUSH1 0x20 SWAP4 PUSH2 0xAD1 JUMP JUMPDEST SWAP2 PUSH2 0xAD1 JUMP JUMPDEST SLT PUSH1 0x40 MLOAD SWAP1 DUP2 MSTORE RETURN JUMPDEST CALLVALUE PUSH2 0x5FB JUMPI PUSH1 0x0 CALLDATASIZE PUSH1 0x3 NOT ADD SLT PUSH2 0x5FB JUMPI PUSH1 0x20 PUSH1 0x40 MLOAD PUSH1 0x1 PUSH1 0x1 PUSH1 0xA0 SHL SUB PUSH32 0x0 AND DUP2 MSTORE RETURN JUMPDEST CALLVALUE PUSH2 0x5FB JUMPI PUSH1 0x0 CALLDATASIZE PUSH1 0x3 NOT ADD SLT PUSH2 0x5FB JUMPI PUSH1 0x20 PUSH1 0x40 MLOAD PUSH1 0x1 PUSH1 0x1 PUSH1 0xA0 SHL SUB PUSH32 0x0 AND DUP2 MSTORE RETURN JUMPDEST CALLVALUE PUSH2 0x5FB JUMPI PUSH1 0x20 CALLDATASIZE PUSH1 0x3 NOT ADD SLT PUSH2 0x5FB JUMPI PUSH1 0x20 PUSH2 0x9F5 PUSH2 0x9F0 PUSH2 0x9FD JUMP JUMPDEST PUSH2 0xAD1 JUMP JUMPDEST PUSH1 0x40 MLOAD SWAP1 DUP2 MSTORE RETURN JUMPDEST PUSH1 0x4 CALLDATALOAD SWAP1 PUSH1 0x1 PUSH1 0x1 PUSH1 0xA0 SHL SUB DUP3 AND DUP3 SUB PUSH2 0x5FB JUMPI JUMP JUMPDEST PUSH1 0x0 JUMPDEST DUP4 DUP2 LT PUSH2 0xA26 JUMPI POP POP PUSH1 0x0 SWAP2 ADD MSTORE JUMP JUMPDEST DUP2 DUP2 ADD MLOAD DUP4 DUP3 ADD MSTORE PUSH1 0x20 ADD PUSH2 0xA16 JUMP JUMPDEST SWAP1 PUSH1 0x20 SWAP2 PUSH2 0xA4F DUP2 MLOAD DUP1 SWAP3 DUP2 DUP6 MSTORE DUP6 DUP1 DUP7 ADD SWAP2 ADD PUSH2 0xA13 JUMP JUMPDEST PUSH1 0x1F ADD PUSH1 0x1F NOT AND ADD ADD SWAP1 JUMP JUMPDEST PUSH1 0x80 DUP2 ADD SWAP1 DUP2 LT PUSH8 0xFFFFFFFFFFFFFFFF DUP3 GT OR PUSH2 0x5B1 JUMPI PUSH1 0x40 MSTORE JUMP JUMPDEST PUSH1 0x40 DUP2 ADD SWAP1 DUP2 LT PUSH8 0xFFFFFFFFFFFFFFFF DUP3 GT OR PUSH2 0x5B1 JUMPI PUSH1 0x40 MSTORE JUMP JUMPDEST PUSH1 0x20 DUP2 ADD SWAP1 DUP2 LT PUSH8 0xFFFFFFFFFFFFFFFF DUP3 GT OR PUSH2 0x5B1 JUMPI PUSH1 0x40 MSTORE JUMP JUMPDEST SWAP1 PUSH1 0x1F DUP1 NOT SWAP2 ADD AND DUP2 ADD SWAP1 DUP2 LT PUSH8 0xFFFFFFFFFFFFFFFF DUP3 GT OR PUSH2 0x5B1 JUMPI PUSH1 0x40 MSTORE JUMP JUMPDEST PUSH1 0x1 PUSH1 0x1 PUSH1 0xA0 SHL SUB SWAP1 PUSH32 0x0 DUP3 AND ADDRESS DUP2 SUB PUSH2 0xB17 JUMPI POP AND PUSH1 0x0 MSTORE PUSH1 0x1 PUSH1 0x20 MSTORE PUSH1 0x40 PUSH1 0x0 KECCAK256 SLOAD SWAP1 JUMP JUMPDEST SWAP2 PUSH1 0x24 PUSH1 0x20 SWAP3 PUSH1 0x40 MLOAD SWAP5 DUP6 SWAP4 DUP5 SWAP3 PUSH32 0x7D4A868900000000000000000000000000000000000000000000000000000000 DUP5 MSTORE AND PUSH1 0x4 DUP4 ADD MSTORE GAS STATICCALL SWAP1 DUP2 ISZERO PUSH2 0x5A5 JUMPI PUSH1 0x0 SWAP2 PUSH2 0xB62 JUMPI POP SWAP1 JUMP JUMPDEST SWAP1 PUSH1 0x20 DUP3 RETURNDATASIZE DUP3 GT PUSH2 0xB8B JUMPI JUMPDEST DUP2 PUSH2 0xB7B PUSH1 0x20 SWAP4 DUP4 PUSH2 0xAAF JUMP JUMPDEST DUP2 ADD SUB SLT PUSH2 0xB88 JUMPI POP MLOAD SWAP1 JUMP JUMPDEST DUP1 REVERT JUMPDEST RETURNDATASIZE SWAP2 POP PUSH2 0xB6E JUMP JUMPDEST PUSH8 0xFFFFFFFFFFFFFFFF DUP2 GT PUSH2 0x5B1 JUMPI PUSH1 0x1F ADD PUSH1 0x1F NOT AND PUSH1 0x20 ADD SWAP1 JUMP JUMPDEST PUSH1 0x20 DUP2 DUP4 SUB SLT PUSH2 0x5FB JUMPI DUP1 MLOAD SWAP1 PUSH8 0xFFFFFFFFFFFFFFFF DUP3 GT PUSH2 0x5FB JUMPI ADD DUP2 PUSH1 0x1F DUP3 ADD SLT ISZERO PUSH2 0x5FB JUMPI DUP1 MLOAD PUSH2 0xBE2 DUP2 PUSH2 0xB93 JUMP JUMPDEST SWAP3 PUSH2 0xBF0 PUSH1 0x40 MLOAD SWAP5 DUP6 PUSH2 0xAAF JUMP JUMPDEST DUP2 DUP5 MSTORE PUSH1 0x20 DUP3 DUP5 ADD ADD GT PUSH2 0x5FB JUMPI PUSH2 0xC0E SWAP2 PUSH1 0x20 DUP1 DUP6 ADD SWAP2 ADD PUSH2 0xA13 JUMP JUMPDEST SWAP1 JUMP JUMPDEST PUSH32 0x0 PUSH1 0x1 PUSH1 0x1 PUSH1 0xA0 SHL SUB AND ADDRESS DUP2 SUB PUSH2 0xD27 JUMPI POP PUSH1 0x40 MLOAD PUSH1 0x0 DUP1 SLOAD SWAP1 PUSH1 0x1 DUP3 DUP2 SHR SWAP1 DUP1 DUP5 AND SWAP4 DUP5 ISZERO PUSH2 0xD1D JUMPI JUMPDEST PUSH1 0x20 SWAP5 DUP6 DUP5 LT DUP2 EQ PUSH2 0xD09 JUMPI DUP4 DUP8 MSTORE DUP7 SWAP5 SWAP4 SWAP3 SWAP2 DUP2 ISZERO PUSH2 0xCE9 JUMPI POP PUSH1 0x1 EQ PUSH2 0xC8D JUMPI JUMPDEST POP POP PUSH2 0xC0E SWAP3 POP SUB DUP3 PUSH2 0xAAF JUMP JUMPDEST PUSH1 0x0 DUP1 DUP1 MSTORE PUSH32 0x290DECD9548B62A8D60345A988386FC84BA6BC95484008F6362F93160EF3E563 SWAP6 SWAP4 POP SWAP2 SWAP1 JUMPDEST DUP2 DUP4 LT PUSH2 0xCD1 JUMPI POP POP PUSH2 0xC0E SWAP4 POP DUP3 ADD ADD CODESIZE DUP1 PUSH2 0xC7F JUMP JUMPDEST DUP6 SLOAD DUP8 DUP5 ADD DUP6 ADD MSTORE SWAP5 DUP6 ADD SWAP5 DUP7 SWAP5 POP SWAP2 DUP4 ADD SWAP2 PUSH2 0xCB9 JUMP JUMPDEST SWAP2 POP POP PUSH2 0xC0E SWAP5 SWAP3 POP PUSH1 0xFF NOT AND DUP3 DUP5 ADD MSTORE ISZERO ISZERO PUSH1 0x5 SHL DUP3 ADD ADD CODESIZE DUP1 PUSH2 0xC7F JUMP JUMPDEST PUSH1 0x24 DUP6 PUSH4 0x4E487B71 PUSH1 0xE0 SHL DUP2 MSTORE PUSH1 0x22 PUSH1 0x4 MSTORE REVERT JUMPDEST SWAP2 PUSH1 0x7F AND SWAP2 PUSH2 0xC5C JUMP JUMPDEST PUSH1 0x0 PUSH1 0x4 SWAP2 PUSH1 0x40 MLOAD SWAP3 DUP4 DUP1 SWAP3 PUSH32 0xE1E06B9F00000000000000000000000000000000000000000000000000000000 DUP3 MSTORE GAS STATICCALL SWAP1 DUP2 ISZERO PUSH2 0x5A5 JUMPI PUSH1 0x0 SWAP2 PUSH2 0xD6A JUMPI POP SWAP1 JUMP JUMPDEST PUSH2 0xC0E SWAP2 RETURNDATASIZE DUP1 SWAP2 DUP4 RETURNDATACOPY PUSH2 0x597 DUP2 DUP4 PUSH2 0xAAF JUMP JUMPDEST MLOAD SWAP1 PUSH1 0x1 PUSH1 0x1 PUSH1 0xA0 SHL SUB DUP3 AND DUP3 SUB PUSH2 0x5FB JUMPI JUMP JUMPDEST MLOAD SWAP1 DUP2 PUSH1 0x2 SIGNEXTEND DUP3 SUB PUSH2 0x5FB JUMPI JUMP JUMPDEST MLOAD SWAP1 PUSH16 0xFFFFFFFFFFFFFFFFFFFFFFFFFFFFFFFF DUP3 AND DUP3 SUB PUSH2 0x5FB JUMPI JUMP JUMPDEST MLOAD SWAP1 PUSH2 0xFFFF DUP3 AND DUP3 SUB PUSH2 0x5FB JUMPI JUMP JUMPDEST MLOAD SWAP1 PUSH1 0xFF DUP3 AND DUP3 SUB PUSH2 0x5FB JUMPI JUMP JUMPDEST PUSH2 0xDE2 DUP2 PUSH2 0xECE JUMP JUMPDEST SWAP1 DUP2 MLOAD ISZERO PUSH2 0xDEE JUMPI POP SWAP1 JUMP JUMPDEST SWAP2 SWAP1 POP PUSH1 0x1 PUSH1 0x1 PUSH1 0xA0 SHL SUB PUSH1 0x40 MLOAD SWAP3 PUSH2 0xE06 DUP5 PUSH2 0xA77 JUMP JUMPDEST PUSH1 0x6 DUP5 MSTORE PUSH1 0x20 CALLDATASIZE DUP2 DUP7 ADD CALLDATACOPY AND PUSH1 0x0 SWAP1 DUP2 JUMPDEST PUSH1 0x3 DUP1 DUP3 LT ISZERO PUSH2 0xE77 JUMPI SWAP1 DUP3 PUSH1 0x1 SWAP3 DUP3 PUSH1 0x13 SUB SWAP1 SHL SHR PUSH2 0xE70 PUSH2 0xE3F PUSH1 0xF DUP4 PUSH1 0x4 SHR AND PUSH2 0xEA4 JUMP JUMPDEST SWAP2 PUSH2 0xE66 DUP6 SWAP2 DUP6 DUP4 SHL SWAP5 DUP10 BYTE PUSH2 0xE55 DUP7 DUP14 PUSH2 0xE7D JUMP JUMPDEST MSTORE8 PUSH1 0xF0 DUP2 AND PUSH1 0xFF SWAP2 DUP3 AND SUB AND PUSH2 0xEA4 JUMP JUMPDEST DUP8 BYTE SWAP3 ADD DUP9 PUSH2 0xE7D JUMP JUMPDEST MSTORE8 ADD PUSH2 0xE17 JUMP JUMPDEST POP POP POP POP JUMP JUMPDEST SWAP1 DUP2 MLOAD DUP2 LT ISZERO PUSH2 0xE8E JUMPI ADD PUSH1 0x20 ADD SWAP1 JUMP JUMPDEST PUSH4 0x4E487B71 PUSH1 0xE0 SHL PUSH1 0x0 MSTORE PUSH1 0x32 PUSH1 0x4 MSTORE PUSH1 0x24 PUSH1 0x0 REVERT JUMPDEST PUSH1 0x1 PUSH1 0x1 PUSH1 0xF8 SHL SUB NOT SWAP1 PUSH1 0xA PUSH1 0xFF DUP3 AND LT ISZERO PUSH2 0xEC4 JUMPI PUSH1 0x30 ADD PUSH1 0xF8 SHL AND SWAP1 JUMP JUMPDEST PUSH1 0x37 ADD PUSH1 0xF8 SHL AND SWAP1 JUMP JUMPDEST PUSH1 0x40 SWAP1 DUP2 MLOAD SWAP1 PUSH1 0x20 SWAP2 DUP3 DUP2 ADD SWAP1 PUSH32 0x95D89B4100000000000000000000000000000000000000000000000000000000 DUP3 MSTORE PUSH1 0x4 DUP2 MSTORE PUSH2 0xF0B DUP2 PUSH2 0xA77 JUMP JUMPDEST PUSH1 0x0 SWAP3 DUP4 SWAP3 DUP4 SWAP3 MLOAD SWAP2 GAS STATICCALL RETURNDATASIZE ISZERO PUSH2 0x1070 JUMPI RETURNDATASIZE SWAP1 PUSH2 0xF27 DUP3 PUSH2 0xB93 JUMP JUMPDEST SWAP2 PUSH2 0xF34 DUP7 MLOAD SWAP4 DUP5 PUSH2 0xAAF JUMP JUMPDEST DUP3 MSTORE RETURNDATASIZE DUP4 DUP6 DUP5 ADD RETURNDATACOPY JUMPDEST ISZERO DUP1 ISZERO PUSH2 0x1067 JUMPI JUMPDEST PUSH2 0x1058 JUMPI DUP1 MLOAD DUP4 DUP2 SUB PUSH2 0x1028 JUMPI POP DUP3 DUP2 DUP1 MLOAD DUP2 ADD SUB SLT PUSH2 0x1024 JUMPI DUP3 ADD MLOAD SWAP2 DUP4 MLOAD SWAP1 PUSH2 0xF6F DUP3 PUSH2 0xA77 JUMP JUMPDEST DUP1 DUP3 MSTORE DUP1 CALLDATASIZE DUP2 DUP5 ADD CALLDATACOPY DUP3 SWAP4 DUP4 JUMPDEST DUP3 DUP2 LT PUSH2 0xFEB JUMPI POP POP PUSH2 0xF9A PUSH2 0xF91 DUP6 PUSH2 0xB93 JUMP JUMPDEST SWAP6 MLOAD SWAP6 DUP7 PUSH2 0xAAF JUMP JUMPDEST DUP4 DUP6 MSTORE PUSH1 0x1F NOT PUSH2 0xFA9 DUP6 PUSH2 0xB93 JUMP JUMPDEST ADD SWAP1 CALLDATASIZE SWAP1 DUP7 ADD CALLDATACOPY DUP2 JUMPDEST DUP4 DUP2 LT PUSH2 0xFC0 JUMPI POP POP POP POP SWAP1 JUMP JUMPDEST DUP1 PUSH1 0x1 PUSH1 0x1 PUSH1 0xF8 SHL SUB NOT PUSH2 0xFD6 PUSH1 0x1 SWAP4 DUP6 PUSH2 0xE7D JUMP JUMPDEST MLOAD AND DUP5 BYTE PUSH2 0xFE4 DUP3 DUP9 PUSH2 0xE7D JUMP JUMPDEST MSTORE8 ADD PUSH2 0xFB2 JUMP JUMPDEST DUP2 DUP2 BYTE PUSH1 0x1 PUSH1 0x1 PUSH1 0xF8 SHL SUB NOT DUP2 PUSH1 0xF8 SHL AND PUSH2 0x100A JUMPI JUMPDEST POP PUSH1 0x1 ADD PUSH2 0xF7C JUMP JUMPDEST DUP7 PUSH1 0x1 SWAP3 SWAP8 SWAP2 PUSH2 0x101B DUP5 SWAP4 DUP9 PUSH2 0xE7D JUMP JUMPDEST MSTORE8 ADD SWAP6 SWAP1 PUSH2 0x1001 JUMP JUMPDEST POP DUP1 REVERT JUMPDEST DUP5 DUP2 SWAP6 SWAP5 SWAP3 SWAP4 SWAP6 GT PUSH2 0x1047 JUMPI POP POP POP MLOAD SWAP1 PUSH2 0x1042 DUP3 PUSH2 0xA93 JUMP JUMPDEST DUP2 MSTORE SWAP1 JUMP JUMPDEST PUSH2 0xC0E SWAP5 POP DUP3 ADD DUP2 ADD SWAP3 POP ADD PUSH2 0xBAF JUMP JUMPDEST POP SWAP2 SWAP1 POP MLOAD SWAP1 PUSH2 0x1042 DUP3 PUSH2 0xA93 JUMP JUMPDEST POP DUP1 MLOAD ISZERO PUSH2 0xF45 JUMP JUMPDEST PUSH1 0x60 SWAP1 PUSH2 0xF3D JUMP INVALID LOG1 PUSH5 0x736F6C6343 STOP ADDMOD EQ STOP EXP "},"methodIdentifiers":{"WNativeToken()":"8af3ac85","cachedThis()":"8ba7888d","flipRatio(address,address)":"dee91a2c","nativeCurrencySymbol()":"e1e06b9f","tokenRatioPriority(address)":"7d4a8689","tokenURI(address,uint256)":"e9dc6375"}}}}}