{"contracts/libraries/NFTDescriptor.sol":{"NFTDescriptor":{"abi":[{"inputs":[],"name":"tickOutOfRange","type":"error"},{"inputs":[{"components":[{"internalType":"uint256","name":"tokenId","type":"uint256"},{"internalType":"address","name":"quoteTokenAddress","type":"address"},{"internalType":"address","name":"baseTokenAddress","type":"address"},{"internalType":"string","name":"quoteTokenSymbol","type":"string"},{"internalType":"string","name":"baseTokenSymbol","type":"string"},{"internalType":"uint8","name":"quoteTokenDecimals","type":"uint8"},{"internalType":"uint8","name":"baseTokenDecimals","type":"uint8"},{"internalType":"bool","name":"flipRatio","type":"bool"},{"internalType":"int24","name":"tickLower","type":"int24"},{"internalType":"int24","name":"tickUpper","type":"int24"},{"internalType":"int24","name":"tickCurrent","type":"int24"},{"internalType":"int24","name":"tickSpacing","type":"int24"},{"internalType":"address","name":"poolAddress","type":"address"}],"internalType":"struct NFTDescriptor.ConstructTokenURIParams","name":"params","type":"tuple"}],"name":"constructTokenURI","outputs":[{"internalType":"string","name":"","type":"string"}],"stateMutability":"pure","type":"function"}],"evm":{"bytecode":{"linkReferences":{},"object":"6080806040523461001b576155fc908162000021823930815050f35b600080fdfe600436101561000d57600080fd5b60003560e01c63c49917d71461002257600080fd5b600319602036820112613e675767ffffffffffffffff60043511613e67576101a09060043536030112613e67576102606040526004356004013560c05261006d602460043501613eff565b60e05261007e600435604401613eff565b610100526004356064013567ffffffffffffffff8111613e67576100a9906004369181350101613f2f565b610120526004356084013567ffffffffffffffff8111613e67576100d4906004369181350101613f2f565b610140526100e660043560a401613f76565b610160526100f860043560c401613f76565b6101805260043560e401358015159003613e675760043560e48101356101a0526101259061010401613f84565b6101c05261013860043561012401613f84565b6101e05261014b60043561014401613f84565b6102005261015e60043561016401613f84565b6102205261017160043561018401613eff565b610240526101205161018290614322565b6102f76030610195608060c00151614322565b926101d360e060c001511580600014613e5a576101c05160020b905b61022051610180516101605192159360ff938416939091169160020b906144e4565b6101a05161020b90158015613e4e576101e05160020b5b61022051610180516101605193159360ff9081169391169160020b906144e4565b906040519586937f416c6765627261202d2000000000000000000000000000000000000000000000602086015261024c815180926020602a89019101613f92565b602f60f81b602a828701015261026e825180936020602b858a01019101613f92565b8401017f202d200000000000000000000000000000000000000000000000000000000000602b8201526102ab825180936020602e85019101613f92565b017f3c3e000000000000000000000000000000000000000000000000000000000000602e8201526102e58251809360208785019101613f92565b01819003601081019091520182613edd565b6101205161030490614322565b61049260aa610317608060c00151614322565b6102405161032d906001600160a01b0316614f4b565b936040519485927f54686973204e465420726570726573656e74732061206c69717569646974792060208501527f706f736974696f6e20696e206120416c6765627261200000000000000000000060408501528251610393816056870160208701613f92565b8401602d60f81b60568201526103b3825180936020605785019101613f92565b017f20706f6f6c2e200000000000000000000000000000000000000000000000000060578201527f546865206f776e6572206f662074686973204e46542063616e206d6f64696679605e8201527f206f722072656465656d2074686520706f736974696f6e2e5c6e000000000000607e8201527f5c6e506f6f6c20416464726573733a2000000000000000000000000000000000609882015261046082518093602060a885019101613f92565b612e3760f11b60a8838301015261048283518094602088868601019101613f92565b010103608a810184520182613edd565b61049d60c05161417e565b9161068960e46104b1608060c00151614322565b946104c96001600160a01b03602060c0015116614f4b565b906104e16001600160a01b03604060c0015116614f4b565b6040519788936901020b2323932b9b99d160b51b602086015261050e815180926020602a89019101613f92565b612e3760f11b602a8287010152610531825180936020602c858a01019101613f92565b8401016901020b2323932b9b99d160b51b602c82015261055b825180936020603685019101613f92565b017f5c6e546f6b656e2049443a2000000000000000000000000000000000000000006036820152610596825180936020604285019101613f92565b017f5c6e5c6e0000000000000000000000000000000000000000000000000000000060428201527fe29aa0efb88f20444953434c41494d45523a204475652064696c6967656e636560468201527f20697320696d7065726174697665207768656e20617373657373696e6720746860668201527f6973204e46542e204d616b65207375726520746f6b656e20616464726573736560868201527f73206d617463682074686520657870656374656420746f6b656e732c2061732060a68201527f746f6b656e2073796d626f6c73206d617920626520696d6974617465642e000060c68201520360c4810186520184613edd565b60e05161069e906001600160a01b031661507a565b916106b66001600160a01b03604060c001511661507a565b926106ce6001600160a01b03602060c00151166150d5565b610100516106e4906001600160a01b03166150d5565b60ff6106fd602060c001518260c0519160101c16613fdb565b06806101028102046101021481151715613a7f5761072460ff610102610729930204613fb5565b61417e565b60ff610742604060c001518260c0519160101c16613fdb565b06806101808102046101801481151715613a7f5761072460ff610180610769930204613fc3565b60ff610782602060c001518260c0519160201c16613fdb565b06806101028102046101021481151715613a7f5761072460ff6101026107a9930204613fb5565b9060ff6107c3604060c001518260c0519160201c16613fdb565b06806101808102046101801481151715613a7f5761072460ff6101806107ea930204613fc3565b9260ff610804602060c001518260c0519160301c16613fdb565b06806101028102046101021481151715613a7f5761072460ff61010261082b930204613fb5565b9460ff610845604060c001518260c0519160301c16613fdb565b06806101808102046101801481151715613a7f576101800260ff900461086a90613fc3565b6108739061417e565b966040519b6108818d613e6c565b898d5260208d015260408c015260608b015260808a015260a089015260c088015260e08701526101008601526101208501526040518091602082017f3c7376672077696474683d2732393027206865696768743d27353030272076699052604082017f6577426f783d2730203020323930203530302720786d6c6e733d27687474703a9052606082017f2f2f7777772e77332e6f72672f323030302f737667273e3c72656374207769649052608082017f74683d27323930707827206865696768743d273530307078272066696c6c3d27905260a082017f230000000000000000000000000000000000000000000000000000000000000090528051908160a18401916020019161099192613f92565b810160a181016813979f1e17b9bb339f60b91b905203608a8101825260aa016109ba9082613edd565b6109c390614020565b608084015160a085015190602086015160405192839260208401610a63906063907f3c7376672077696474683d2732393027206865696768743d273530302720766981527f6577426f783d2730203020323930203530302720786d6c6e733d27687474703a60208201527f2f2f7777772e77332e6f72672f323030302f737667273e3c636972636c652063604082015262783d2760e81b60608201520190565b808251602081940191610a7592613f92565b81810165272063793d2760d01b9052825192838383016006019160200191610a9c92613f92565b82828201016006017f2720723d273132307078272066696c6c3d27230000000000000000000000000090528351938484848401016019019160200191610ae192613f92565b010101601981016813979f1e17b9bb339f60b91b905203600281018252602201610b0b9082613edd565b610b1490614020565b60c085015160e086015190604087015160405192839260208401610bb4906063907f3c7376672077696474683d2732393027206865696768743d273530302720766981527f6577426f783d2730203020323930203530302720786d6c6e733d27687474703a60208201527f2f2f7777772e77332e6f72672f323030302f737667273e3c636972636c652063604082015262783d2760e81b60608201520190565b808251602081940191610bc692613f92565b0165272063793d2760d01b815281519182600683019160200191610be992613f92565b01600681017f2720723d273132307078272066696c6c3d272300000000000000000000000000905281519182601983019160200191610c2792613f92565b01601981016813979f1e17b9bb339f60b91b905203600281018252602201610c4f9082613edd565b610c5890614020565b9061010086015161012087015190606088015160405192839260208401610cfb906063907f3c7376672077696474683d2732393027206865696768743d273530302720766981527f6577426f783d2730203020323930203530302720786d6c6e733d27687474703a60208201527f2f2f7777772e77332e6f72672f323030302f737667273e3c636972636c652063604082015262783d2760e81b60608201520190565b808251602081940191610d0d92613f92565b0165272063793d2760d01b815281519182600683019160200191610d3092613f92565b01600681017f2720723d273130307078272066696c6c3d272300000000000000000000000000905281519182601983019160200191610d6e92613f92565b01601981016813979f1e17b9bb339f60b91b905203600281018252602201610d969082613edd565b610d9f90614020565b955191604051968794602086017f3c7376672077696474683d2232393022206865696768743d22353030222076699052604086017f6577426f783d2230203020323930203530302220786d6c6e733d22687474703a9052606086017f2f2f7777772e77332e6f72672f323030302f73766722000000000000000000009052607686017f20786d6c6e733a786c696e6b3d27687474703a2f2f7777772e77332e6f72672f9052609686017f313939392f786c696e6b273e0000000000000000000000000000000000000000905260a286017f3c646566733e0000000000000000000000000000000000000000000000000000905260a886017f3c66696c7465722069643d226631223e3c6665496d61676520726573756c743d905260c886017f2270302220786c696e6b3a687265663d22646174613a696d6167652f7376672b905260e886017f786d6c3b6261736536342c00000000000000000000000000000000000000000090528051908160f388019160200191610f1d92613f92565b85019160f383017f222f3e3c6665496d61676520726573756c743d2270312220786c696e6b3a687290527f65663d22646174613a696d6167652f7376672b786d6c3b6261736536342c00008061011385015284519461013190868287019160200191610f8892613f92565b858501017f222f3e3c6665496d61676520726573756c743d2270322220786c696e6b3a6872905284840161015101528051908185850161016f019160200191610fd092613f92565b631110179f60e11b848401820161016f8101919091527f3c6665496d61676520726573756c743d2270332220786c696e6b3a687265663d6101738201527f22646174613a696d6167652f7376672b786d6c3b6261736536342c000000000061019382015282519261104c9184916101ae90910190602001613f92565b7f22202f3e3c6665426c656e64206d6f64653d226f7665726c61792220696e3d22848401820183016101ae8101919091527f70302220696e323d22703122202f3e3c6665426c656e64206d6f64653d2265786101ce8201527f636c7573696f6e2220696e323d22703222202f3e3c6665426c656e64206d6f646101ee8201527f653d226f7665726c61792220696e323d2270332220726573756c743d22626c6561020e8201527f6e644f757422202f3e3c6665476175737369616e426c7572200000000000000061022e8201527f696e3d22626c656e644f75742220737464446576696174696f6e3d22343222206102478201527f2f3e3c2f66696c7465723e203c636c6970506174682069643d22636f726e65726102678201527f73223e3c726563742077696474683d2232393022206865696768743d223530306102878201527f222072783d223432222072793d22343222202f3e3c2f636c6970506174683e006102a78201527f3c706174682069643d22746578742d706174682d612220643d224d34302031326102c68201527f20483235302041323820323820302030203120323738203430205634363020416102e68201527f32382032382030203020312032353020343838204834302041323820323820306103068201527f20302031203132203436302056343020413238203238203020302031203430206103268201527f3132207a22202f3e0000000000000000000000000000000000000000000000006103468201527f3c706174682069643d226d696e696d61702220643d224d32333420343434433261034e8201527f3334203435372e393439203234322e323120343633203235332034363322202f61036e8201527f3e0000000000000000000000000000000000000000000000000000000000000061038e82018190527f3c66696c7465722069643d22746f702d726567696f6e2d626c7572223e3c666561038f8301527f476175737369616e426c757220696e3d22536f757263654772617068696322206103af8301527f737464446576696174696f6e3d22323422202f3e3c2f66696c7465723e0000006103cf8301527f3c6c696e6561724772616469656e742069643d22677261642d7570222078313d6103ec8301527f2231222078323d2230222079313d2231222079323d2230223e3c73746f70206f61040c8301527f66667365743d22302e30222073746f702d636f6c6f723d22776869746522207361042c8301527f746f702d6f7061636974793d223122202f3e000000000000000000000000000061044c8301527f3c73746f70206f66667365743d222e39222073746f702d636f6c6f723d22776861045e8301527f697465222073746f702d6f7061636974793d223022202f3e3c2f6c696e65617261047e8301527f4772616469656e743e000000000000000000000000000000000000000000000061049e8301527f3c6c696e6561724772616469656e742069643d22677261642d646f776e2220786104a78301527f313d2230222078323d2231222079313d2230222079323d2231223e3c73746f706104c78301527f206f66667365743d22302e30222073746f702d636f6c6f723d227768697465226104e78301527f2073746f702d6f7061636974793d223122202f3e3c73746f70206f66667365746105078301527f3d22302e39222073746f702d636f6c6f723d227768697465222073746f702d6f6105278301527f7061636974793d223022202f3e3c2f6c696e6561724772616469656e743e00006105478301527f3c6d61736b2069643d22666164652d757022206d61736b436f6e74656e74556e6105658301527f6974733d226f626a656374426f756e64696e67426f78223e3c726563742077696105858301527f6474683d223122206865696768743d2231222066696c6c3d2275726c282367726105a58301527f61642d75702922202f3e3c2f6d61736b3e0000000000000000000000000000006105c58301527f3c6d61736b2069643d22666164652d646f776e22206d61736b436f6e74656e746105d68301527f556e6974733d226f626a656374426f756e64696e67426f78223e3c72656374206105f68301527f77696474683d223122206865696768743d2231222066696c6c3d2275726c28236106168301527f677261642d646f776e2922202f3e3c2f6d61736b3e00000000000000000000006106368301527f3c6d61736b2069643d226e6f6e6522206d61736b436f6e74656e74556e69747361064b8301527f3d226f626a656374426f756e64696e67426f78223e3c7265637420776964746861066b8301527f3d223122206865696768743d2231222066696c6c3d22776869746522202f3e3c61068b8301527f2f6d61736b3e00000000000000000000000000000000000000000000000000006106ab8301527f3c6c696e6561724772616469656e742069643d22677261642d73796d626f6c226106b18301527f3e3c73746f70206f66667365743d22302e37222073746f702d636f6c6f723d226106d18301527f7768697465222073746f702d6f7061636974793d223122202f3e3c73746f70206106f18301527f6f66667365743d222e3935222073746f702d636f6c6f723d22776869746522206107118301527f73746f702d6f7061636974793d223022202f3e3c2f6c696e65617247726164696107318301527f656e743e000000000000000000000000000000000000000000000000000000006107518301527f3c6d61736b2069643d22666164652d73796d626f6c22206d61736b436f6e74656107558301527f6e74556e6974733d227573657253706163654f6e557365223e3c7265637420776107758301527f696474683d22323930707822206865696768743d223230307078222066696c6c6107958301527f3d2275726c2823677261642d73796d626f6c2922202f3e3c2f6d61736b3e3c2f6107b58301527f646566733e0000000000000000000000000000000000000000000000000000006107d58301527f3c6720636c69702d706174683d2275726c2823636f726e65727329223e0000006107da8301527f3c726563742066696c6c3d2200000000000000000000000000000000000000006107f7830152865161080397919690959092909161194e918791908a0190602001613f92565b7f2220783d223070782220793d22307078222077696474683d22323930707822209101919091019190910191909101928301527f6865696768743d22353030707822202f3e0000000000000000000000000000006108238301527f3c72656374207374796c653d2266696c7465723a2075726c28236631292220786108348301527f3d223070782220793d22307078222077696474683d22323930707822206865696108548301527f6768743d22353030707822202f3e0000000000000000000000000000000000006108748301527f203c67207374796c653d2266696c7465723a75726c2823746f702d726567696f6108828301527f6e2d626c7572293b207472616e73666f726d3a7363616c6528312e35293b20746108a28301527f72616e73666f726d2d6f726967696e3a63656e74657220746f703b223e0000006108c28301527f3c726563742066696c6c3d226e6f6e652220783d223070782220793d223070786108df8301527f222077696474683d22323930707822206865696768743d22353030707822202f6108ff83015261091f8201527f3c656c6c697073652063783d22353025222063793d22307078222072783d22316109208201527f38307078222072793d223132307078222066696c6c3d222330303022206f70616109408201527f636974793d22302e383522202f3e3c2f673e00000000000000000000000000006109608201527f3c7265637420783d22302220793d2230222077696474683d22323930222068656109728201527f696768743d22353030222072783d223432222072793d223432222066696c6c3d6109928201527f227267626128302c302c302c302922207374726f6b653d2272676261283235356109b28201527f2c3235352c3235352c302e322922202f3e3c2f673e00000000000000000000006109d2820152036109c781018452611c0d906109e70184613edd565b60e051611c22906001600160a01b0316614f4b565b9360c0604001516001600160a01b0316611c3b90614f4b565b6102405161012051610140516101c0516101e0516102205161020051949b8c9b979690956001600160a01b0390911693600290810b9392810b92810b91611c84910b8285615051565b928560c051956040519e8f91611c9983613e6c565b8a83528b6020840152604083015260608201526080015260a08d015260c08c015260e08b015260000b6101008a0152610120890152604051988993602085017f3c7465787420746578742d72656e646572696e673d226f7074696d697a6553709052604085017f656564223e0000000000000000000000000000000000000000000000000000009052604585017f3c74657874506174682073746172744f66667365743d222d31303025222066699052606585017f6c6c3d2277686974652220666f6e742d66616d696c793d2227436f75726965729052608585017f204e6577272c206d6f6e6f73706163652220666f6e742d73697a653d22313070905260a585017f782220786c696e6b3a687265663d2223746578742d706174682d61223e0000009052805160c28601816020840191611dd392613f92565b64010714051160dd1b60c2918701918201528351611df88160c7840160208801613f92565b7f203c616e696d6174652061646469746976653d2273756d22206174747269627581830160c78101919091527f74654e616d653d2273746172744f6666736574222066726f6d3d22302522207460e78201527f6f3d22313030252220626567696e3d22307322206475723d22333073222072656101078201527f70656174436f756e743d22696e646566696e69746522202f3e000000000000006101278201527f3c2f74657874506174683e203c74657874506174682073746172744f666673656101408201527f743d223025222066696c6c3d2277686974652220666f6e742d66616d696c793d6101608201527f2227436f7572696572204e6577272c206d6f6e6f73706163652220666f6e742d6101808201527f73697a653d22313070782220786c696e6b3a687265663d2223746578742d70616101a08201527f74682d61223e00000000000000000000000000000000000000000000000000006101c082015283516101c694909391611f75918591870190602001613f92565b010190810164010714051160dd1b90528251906101cb93828583019160200191611f9e92613f92565b7f203c616e696d6174652061646469746976653d2273756d2220617474726962759101928301527f74654e616d653d2273746172744f6666736574222066726f6d3d2230252220746101eb8301527f6f3d22313030252220626567696e3d22307322206475723d223330732220726561020b8301527f70656174436f756e743d22696e646566696e69746522202f3e203c2f7465787461022b8301527f506174683e00000000000000000000000000000000000000000000000000000061024b8301527f3c74657874506174682073746172744f66667365743d22353025222066696c6c6102508301527f3d2277686974652220666f6e742d66616d696c793d2227436f7572696572204e6102708301527f6577272c206d6f6e6f73706163652220666f6e742d73697a653d2231307078226102908301527f20786c696e6b3a687265663d2223746578742d706174682d61223e00000000006102b0830152825160208401926102cb91906121168284830187613f92565b0190810164010714051160dd1b905281519360208301946102d09281848201906121409189613f92565b7f203c616e696d6174652061646469746976653d2273756d2220617474726962759101928301527f74654e616d653d2273746172744f6666736574222066726f6d3d2230252220746102f08301527f6f3d22313030252220626567696e3d22307322206475723d22333073220000006103108301527f20726570656174436f756e743d22696e646566696e69746522202f3e3c2f746561032d8301527f7874506174683e3c74657874506174682073746172744f66667365743d222d3561034d8301527f3025222066696c6c3d2277686974652220666f6e742d66616d696c793d22274361036d8301527f6f7572696572204e6577272c206d6f6e6f73706163652220666f6e742d73697a61038d8301527f653d22313070782220786c696e6b3a687265663d2223746578742d706174682d6103ad8301527f61223e00000000000000000000000000000000000000000000000000000000006103cd830152516103d0939091906122b690839086840190613f92565b0191820164010714051160dd1b905251906103d592828483016122d892613f92565b7f203c616e696d6174652061646469746976653d2273756d2220617474726962759101918201527f74654e616d653d2273746172744f6666736574222066726f6d3d2230252220746103f58201527f6f3d22313030252220626567696e3d22307322206475723d22333073222072656104158201527f70656174436f756e743d22696e646566696e69746522202f3e3c2f74657874506104358201527f6174683e3c2f746578743e00000000000000000000000000000000000000000061045582015203610440810187526123b1906104600187613edd565b606085015193608086015194604051958691602083017f3c67206d61736b3d2275726c2823666164652d73796d626f6c29223e3c7265639052604083017f742066696c6c3d226e6f6e652220783d223070782220793d22307078222077699052606083017f6474683d22323930707822206865696768743d22323030707822202f3e203c749052608083017f65787420793d22373070782220783d2233327078222066696c6c3d2277686974905260a083017f652220666f6e742d66616d696c793d2227436f7572696572204e6577272c206d905260c083017f6f6e6f73706163652220666f6e742d7765696768743d223230302220666f6e74905260e083017f2d73697a653d2233367078223e0000000000000000000000000000000000000090528051908160ed850191602001916124ea92613f92565b820160ed8101602f60f81b90528151918260ee8301916020019161250d92613f92565b0160ee81016a1e17ba32bc3a1f1e17b39f60a91b905260f981017f3c7265637420783d2231362220793d223136222077696474683d223235382220905261011981017f6865696768743d22343638222072783d223236222072793d223236222066696c905261013981017f6c3d227267626128302c302c302c302922207374726f6b653d22726762612832905261015981017f35352c3235352c3235352c302e322922202f3e0000000000000000000000000090520361014c8101865261016c016125d89086613edd565b60a086015160020b9560c081015160020b60e082015160020b9761010083015160000b9860018a14600014613dcd5760405161261381613e89565b600881527f23666164652d75700000000000000000000000000000000000000000000000006020820152915b627fffff81850313627fffff198286031217613a7f578115613a695780840360020b627fffff1914600019831416613a7f57612c79930360020b0560020b6004811315600014613bf4575060405161269681613e89565b601a81527f4d312031433431203431203130352031303520313435203134350000000000006020820152985b6040516126ce81613e89565b60028152602081017f3733000000000000000000000000000000000000000000000000000000000000815260405161270581613e89565b6003815260208101937f313930000000000000000000000000000000000000000000000000000000000085526040519261273e84613e89565b6003845260208401957f323137000000000000000000000000000000000000000000000000000000000087526040519661277788613e89565b6003885260208801917f333334000000000000000000000000000000000000000000000000000000000083526001851460018603613be9575b15613b155750505050916129089391608d93600019149586600014613b0e57835b8715613b075782935b8815613aff5750965b15613af75750905b6040519586936b1e31b4b931b6329031bc1e9160a11b602086015261281a815180926020602c89019101613f92565b84019167383c111031bc9e9160c11b9283602c820152612844825180936020603485019101613f92565b017f70782220723d22347078222066696c6c3d22776869746522202f3e3c6369726360348201527f6c652063783d220000000000000000000000000000000000000000000000000060548201526128a5825180936020605b85019101613f92565b0190605b8201526128c0825180936020606385019101613f92565b017f70782220723d2232347078222066696c6c3d226e6f6e6522207374726f6b653d606382015269113bb434ba329110179f60b11b608382015203606d810184520182613edd565b905b604051998a917f3c67206d61736b3d2275726c28000000000000000000000000000000000000006020840152805161294981602d860160208501613f92565b61149160f11b848201602d8101919091527f207374796c653d227472616e73666f726d3a7472616e736c6174652837327078602f8201527f2c313839707829223e3c7265637420783d222d313670782220793d222d313670604f8201527f78222077696474683d22313830707822206865696768743d2231383070782220606f8201527f66696c6c3d226e6f6e6522202f3e3c7061746820643d22000000000000000000608f82015283519190612a0890839060a60160208701613f92565b7f22207374726f6b653d227267626128302c302c302c302e332922207374726f6b858201830160a68101919091527f652d77696474683d2233327078222066696c6c3d226e6f6e6522207374726f6b60c68201527f652d6c696e656361703d22726f756e6422202f3e00000000000000000000000060e68201527f3c2f673e3c67206d61736b3d2275726c2800000000000000000000000000000060fa820152835193612ac091859161010b90910190602001613f92565b61149160f11b8582018301840161010b8101919091527f207374796c653d227472616e73666f726d3a7472616e736c617465283732707861010d8201527f2c313839707829223e000000000000000000000000000000000000000000000061012d8201527f3c7265637420783d222d313670782220793d222d31367078222077696474683d6101368201527f22313830707822206865696768743d223138307078222066696c6c3d226e6f6e6101568201527f6522202f3e0000000000000000000000000000000000000000000000000000006101768201527f3c7061746820643d22000000000000000000000000000000000000000000000061017b820152845194612bd891869161018490910190602001613f92565b84010101017f22207374726f6b653d2272676261283235352c3235352c3235352c31292220666101848201527f696c6c3d226e6f6e6522207374726f6b652d6c696e656361703d22726f756e646101a48201527f22202f3e3c2f673e0000000000000000000000000000000000000000000000006101c4820152825190612c69826101cc9560208785019101613f92565b01036101ac81018a520188613edd565b612c8761012082015161417e565b60a082015160020b9060c083015160020b90612ca28361512d565b612cab8361512d565b92825190600482018211613a7f57825194600a86018611613a7f5780519687608052600a88018811613a7f57600492612ce3916152b0565b959093600881019384910111613a7f5782600702926007840403613a7f57612d0c600a9361417e565b96600e81019384910111613a7f576007838102048303613a7f57612d34600a9360070261417e565b97600e608051019384910111613a7f576007838102048303613a7f5761331f97604060206130cc60d87f70782c2030707829222063783d22307078222063793d223070782220723d223499836101ee9d612db17f70782c20000000000000000000000000000000000000000000000000000000009b60070261417e565b9287518060a0527f203c67207374796c653d227472616e73666f726d3a7472616e736c617465283293849101527f3970782c20333834707829223e000000000000000000000000000000000000008860a051015261302460d2612ea2605a7f3c726563742077696474683d22000000000000000000000000000000000000009586604d60a0510152612e4d815180928e8560a051019101613f92565b60a0510101603d907f707822206865696768743d2232367078222072783d22387078222072793d223881527f7078222066696c6c3d227267626128302c302c302c302e362922202f3e00000060208201520190565b9a7f3c7465787420783d22313270782220793d22313770782220666f6e742d66616d9c8d8d528c7f696c793d2227436f7572696572204e6577272c206d6f6e6f73706163652220669b8c9101528c7f6f6e742d73697a653d2231327078222066696c6c3d227768697465223e3c74739c8d9101527f70616e2066696c6c3d2272676261283235352c3235352c3235352c302e3629229c8d60608201527f3e49443a203c2f747370616e3e000000000000000000000000000000000000006080820152612f78825180936020608d85019101613f92565b016a1e17ba32bc3a1f1e17b39f60a91b608d8201528660988201527f3970782c20343134707829223e0000000000000000000000000000000000000060b88201528560c5820152612fd28251809360208685019101613f92565b0101603d907f707822206865696768743d2232367078222072783d22387078222072793d223881527f7078222066696c6c3d227267626128302c302c302c302e362922202f3e00000060208201520190565b8a81528760208201528860408201528960608201527f3e4d696e205469636b3a203c2f747370616e3e000000000000000000000000006080820152613073825180936020609385019101613f92565b01916a1e17ba32bc3a1f1e17b39f60a91b6093840152609e8301527f3970782c20343434707829223e0000000000000000000000000000000000000060be83015260cb820152612fd28251809360208685019101613f92565b9384526020840152604083015260608201527f3e4d6178205469636b3a203c2f747370616e3e000000000000000000000000006080820152613118825180936020609385019101613f92565b017f3c2f746578743e3c2f673e3c67207374796c653d227472616e73666f726d3a7460938201527f72616e736c6174652832323670782c20343333707829223e000000000000000060b38201527f3c726563742077696474683d223336707822206865696768743d22333670782260cb8201527f2072783d22387078222072793d22387078222066696c6c3d226e6f6e6522207360eb8201527f74726f6b653d2272676261283235352c3235352c3235352c302e322922202f3e61010b8201527f3c70617468207374726f6b652d6c696e656361703d22726f756e642220643d2261012b8201527f4d38203943382e30303030342032322e393439342031362e323039392032382061014b8201527f3237203238222066696c6c3d226e6f6e6522207374726f6b653d22776869746561016b820152631110179f60e11b61018b8201527f3c636972636c65207374796c653d227472616e73666f726d3a7472616e736c6161018f8201527f74653364280000000000000000000000000000000000000000000000000000006101af8201528251906132c0826101b49560208785019101613f92565b01918201528251906132dc826101b89560208785019101613f92565b01918201527f7078222066696c6c3d227768697465222f3e3c2f673e000000000000000000006101d882015260a051809103906101ce820190520160a051613edd565b604061012082015191015160405160208101918383526bffffffffffffffffffffffff199060601b1660408201526034815261335a81613ea5565b519020908060009160801c80613aeb575b508060401c80613ade575b508060201c80613ad1575b508060101c80613ac4575b508060081c80613ab7575b508060041c80613aaa575b508060021c80613a9d575b5060011c613a95575b8060011b9080820460021490151715613a7f5780600101600111613a7f578060010115613a6957600101600019041115613a3257604051927f3c67207374796c653d227472616e73666f726d3a7472616e736c61746528323260208501527f3670782c20333932707829223e3c726563742077696474683d2233367078222060408501527f6865696768743d2233367078222072783d22387078222072793d22387078222060608501527f66696c6c3d226e6f6e6522207374726f6b653d2272676261283235352c32353560808501527f2c3235352c302e322922202f3e0000000000000000000000000000000000000060a08501527f3c673e3c70617468207374796c653d227472616e73666f726d3a7472616e736c60ad8501527f617465283670782c367078292220643d224d313220304c31322e36353232203960cd8501527f2e35363538374c313820312e363037374c31332e373831392031302e3231383160ed8501527f4c32322e3339323320364c31342e34333431200000000000000000000000000061010d8501527f31312e333437384c32342031324c31342e343334312031322e363532324c32326101208501527f2e333932332031384c31332e373831392031332e373831394c31382032322e336101408501527f3932334c31322e363532322031342e343334314c31322032344c31312e3334376101608501527f382031342e343334314c362032322e33390000000000000000000000000000006101808501527f32334c31302e323138312031332e373831394c312e363037372031384c392e356101918501527f363538372031322e363532324c302031324c392e35363538372031312e3334376101b18501527f384c312e3630373720364c31302e323138312031302e323138314c3620312e366101d18501527f3037374c31312e3334373820392e35363538374c313220305a222066696c6c3d6101f185015269113bb434ba329110179f60b11b6102118501527f3c616e696d6174655472616e73666f726d206174747269627574654e616d653d61021b8501527f227472616e73666f726d2220747970653d22726f74617465222066726f6d3d2261023b8501527f302031382031382220746f3d2233363020313820313822206475723d2231307361025b8501527f2220726570656174436f756e743d22696e646566696e697465222f3e3c2f673e61027b8501527f3c2f673e0000000000000000000000000000000000000000000000000000000061029b85015261027f8452836102a081011067ffffffffffffffff6102a086011117613a1c5761387861383e6138736026606496613a0e9c60409c613816602061399f9e8d6102a06138739f016040525b604051948592846137b9818601998a815193849201613f92565b84016137cd82518093888085019101613f92565b016137e082518093878085019101613f92565b0160a051906137f782518093878085019101613f92565b0161380a82518093868085019101613f92565b01038084520182613edd565b8d51958361382e889551809260208089019101613f92565b8401915180936020840190613f92565b017f3c2f7376673e00000000000000000000000000000000000000000000000000006020820152036006810184520182613edd565b614020565b9087519586937f7b226e616d65223a22000000000000000000000000000000000000000000000060208601526138b8815180926020602989019101613f92565b84017f222c20226465736372697074696f6e223a22000000000000000000000000000060298201526138f4825180936020603b85019101613f92565b01613909825180936020603b85019101613f92565b017f222c2022696d616765223a202200000000000000000000000000000000000000603b8201527f646174613a696d6167652f7376672b786d6c3b6261736536342c000000000000604882015261396a825180936020606285019101613f92565b017f227d0000000000000000000000000000000000000000000000000000000000006062820152036044810184520182613edd565b8151906139f3603d8360208101937f646174613a6170706c69636174696f6e2f6a736f6e3b6261736536342c00000085526139e38151809260208686019101613f92565b810103601d810185520183613edd565b82519384926020845251809281602086015285850190613f92565b601f01601f19168101030190f35b634e487b7160e01b600052604160045260246000fd5b6138739261387861383e6138736026606496613a0e9c60409c61381660208f9e61399f9f51613a6081613ec1565b6000815261379f565b634e487b7160e01b600052601260045260246000fd5b634e487b7160e01b600052601160045260246000fd5b6001016133b6565b60029150910190386133ad565b60049150910190386133a2565b6008915091019038613397565b601091509101903861338c565b6020915091019038613381565b6040915091019038613376565b9150506080903861336b565b9050906127eb565b9050966127e3565b81936127da565b82936127d1565b613be397945097613bce91607e97613bba613b599b602c60409a97989a519d8e809c6b1e31b4b931b6329031bc1e9160a11b9c8d6020840152519384920190613f92565b8a01613b7e67383c111031bc9e9160c11b9889602c8401525180936034840190613f92565b01917f70782220723d22347078222066696c6c3d22776869746522202f3e000000000098896034850152604f840152518093605b840190613f92565b0192605b8401525180936063840190613f92565b0190606382015203605e810184520182613edd565b9061290a565b5060001985146127b0565b60088113613c395750604051613c0981613e89565b601981527f4d312031433333203439203937203131332031343520313435000000000000006020820152986126c2565b60108113613c7e5750604051613c4e81613e89565b601981527f4d312031433333203537203839203131332031343520313435000000000000006020820152986126c2565b60208113613cc35750604051613c9381613e89565b601981527f4d312031433235203635203831203132312031343520313435000000000000006020820152986126c2565b60408113613d085750604051613cd881613e89565b601981527f4d312031433137203733203733203132392031343520313435000000000000006020820152986126c2565b60808113613d4d5750604051613d1d81613e89565b601881527f4d312031433920383120363520313337203134352031343500000000000000006020820152986126c2565b61010012613d9157604051613d6181613e89565b601a81527f4d31203143312038392035372e352031343520313435203134350000000000006020820152986126c2565b604051613d9d81613e89565b601881527f4d312031433120393720343920313435203134352031343500000000000000006020820152986126c2565b6000198a03613e1357604051613de281613e89565b600a81527f23666164652d646f776e0000000000000000000000000000000000000000000060208201525b9161263f565b604051613e1f81613e89565b600581527f236e6f6e650000000000000000000000000000000000000000000000000000006020820152613e0d565b6101c05160020b6101ea565b6101e05160020b906101b1565b600080fd5b610140810190811067ffffffffffffffff821117613a1c57604052565b6040810190811067ffffffffffffffff821117613a1c57604052565b6060810190811067ffffffffffffffff821117613a1c57604052565b6020810190811067ffffffffffffffff821117613a1c57604052565b90601f8019910116810190811067ffffffffffffffff821117613a1c57604052565b35906001600160a01b0382168203613e6757565b67ffffffffffffffff8111613a1c57601f01601f191660200190565b81601f82011215613e6757803590613f4682613f13565b92613f546040519485613edd565b82845260208383010111613e6757816000926020809301838601378301015290565b359060ff82168203613e6757565b35908160020b8203613e6757565b60005b838110613fa55750506000910152565b8181015183820152602001613f95565b9060108201809211613a7f57565b9060648201809211613a7f57565b8115613a69570490565b81810292918115918404141715613a7f57565b90613ff882613f13565b6140056040519182613edd565b8281528092614016601f1991613f13565b0190602036910137565b80511561416a5760405161403381613ea5565b604081527f4142434445464748494a4b4c4d4e4f505152535455565758595a61626364656660208201527f6768696a6b6c6d6e6f707172737475767778797a303132333435363738392b2f60408201528151600292838201809211613a7f5760038092047f3fffffffffffffffffffffffffffffffffffffffffffffffffffffffffffffff81168103613a7f576140cd908594951b613fee565b936020850193829183518401925b8381106141195750505050510680600114614106576002146140fb575090565b603d90600019015390565b50603d9081600019820153600119015390565b85600491979293949701918251600190603f9082828260121c16880101518453828282600c1c16880101518385015382828260061c16880101518885015316850101518782015301959291906140db565b5060405161417781613ec1565b6000815290565b806000917a184f03e93ff9f4daa797ed6e38ed64bf6a1f010000000000000000808210156142b3575b506d04ee2d6d415b85acef8100000000808310156142a4575b50662386f26fc1000080831015614295575b506305f5e10080831015614286575b5061271080831015614277575b506064821015614267575b600a8092101561425d575b600190816021614215828701613fee565b95860101905b614227575b5050505090565b600019019083906f181899199a1a9b1b9c1cb0b131b232b360811b8282061a8353049182156142585791908261421b565b614220565b9160010191614204565b91906064600291049101916141f9565b600491939204910191386141ee565b600891939204910191386141e1565b601091939204910191386141d2565b602091939204910191386141c0565b6040935081049150386141a7565b60ff1660ff8114613a7f5760010190565b9081518110156142e3570160200190565b634e487b7160e01b600052603260045260246000fd5b6040519061430682613e89565b6006825260203681840137565b6000198114613a7f5760010190565b906000805b835160ff821690811015614390577fff00000000000000000000000000000000000000000000000000000000000000614365601160f91b92876142d2565b51161461437b575b614376906142c1565b614327565b90614388614376916142c1565b91905061436d565b50509160ff809316806143a257509150565b8151908101809111613a7f576143b790613fee565b90600093845b8251828216908110156144525790614432916144127fff0000000000000000000000000000000000000000000000000000000000000091601160f91b83614404838a6142d2565b511614614437575b866142d2565b51169661442c61442182614313565b9860001a91876142d2565b536142c1565b6143bd565b605c61444c6144458c614313565b9b8a6142d2565b5361440c565b50929450505050565b9060020b9060020b02908160020b918203613a7f57565b6040519061447f82613e89565b600382527f4d494e00000000000000000000000000000000000000000000000000000000006020830152565b604051906144b882613e89565b600382527f4d415800000000000000000000000000000000000000000000000000000000006020830152565b9192908060020b928315613a69576145028285620d89e7190561445b565b60020b918160020b928314600014614535575050505050501560001461452d5761452a614472565b90565b61452a6144ab565b61454590620d89e895860561445b565b60020b820361456b575050505050156000146145635761452a6144ab565b61452a614472565b8160179692939495961d60020b80910160020b189462ffffff8616948511614d405763ffffffff92600160801b9060018816614d28575b60028816614d0c575b60048816614cf0575b60088816614cd4575b60108816614cb8575b60208816614c9c575b60408816614c80575b608097888116614c65575b61010097888216614c4a575b6102008216614c2f575b6104008216614c14575b6108008216614bf9575b6110008216614bde575b6120008216614bc3575b6140008216614ba8575b6180008216614b8d575b620100008216614b72575b620200008216614b58575b6204000080911015614b0e575b5050600012614b05575b6001600160a01b03930160201c831691614adb575b60ff80911693168084036000821285821281169086831390151617613a7f5760008112614aab57935b84151580614aa0575b15614a96579160019391849311600014614a70576146d3916146cc86851c614f3d565b9116613fdb565b921614614a62575b6146e58180614e61565b600160601b821015614a53576146fa90614eed565b905b816000815b614a3f5761470f9150614d6a565b9360008360ff871660058111614a0e575b5050600a6004818606119404936149fc575b620186a084146149ee575b6149de575b60405193840184811067ffffffffffffffff821117613a1c576040526000845260006020850152600060408501526000606085015283019360008552600060a0850152600060c0850152600060e0850152600160601b82106000146149795760ff16602b039160ff8311613a7f5760ff831660070160ff8111613a7f5760ff16602085015260028552602b8311613a7f5760018301809311613a7f5760ff600160601b931660a085015260ff6147fd81602087015116614d6a565b1660408501525b83521060c0820152600060e082015261482360ff602083015116613fee565b9160e0820151614959575b60c0820151614930575b5160ff165b600160ff60a0840151160160ff8111613a7f5760ff168110156148755780603061486a61487093866142d2565b53614313565b61483d565b50915b82511561492b5760ff606084015116801515908161491a575b506148f4575b7fff00000000000000000000000000000000000000000000000000000000000000600a84510660300160f81b166148e760ff6040860151169160ff600019840116604087015260001a91846142d2565b53600a8351048352614878565b602e61491460ff60408601511660ff6000198201166040870152846142d2565b53614897565b905060ff6040850151161438614891565b915090565b8251156142e357603060208401538251600110156142e35760ff90602e60218501539050614838565b82516000198101908111613a7f57614973602591856142d2565b5361482e565b600160601b929060ff906009828216106149bc578161499a6149aa92614d7d565b1680602088015260058852614d6a565b1660a085015260046040850152614804565b6149d3906006602088015260056040880152614d7d565b166060850152614804565b936149e8906142c1565b93614742565b5091600a900491600161473d565b9260018101809111613a7f5792614732565b919450906004190160ff8111613a7f5760ff1690604d8211613a7f57614a3791600a0a90613fd1565b923880614720565b614a4a600a916142c1565b91049081614701565b614a5c90614ead565b906146fc565b614a6b90614e09565b6146db565b614a8691614a7f86851c614f3d565b9116613fd1565b9216036146db57614a6b90614d90565b50501690506146db565b5060128511156146a9565b7f80000000000000000000000000000000000000000000000000000000000000008114613a7f57600003936146a0565b908015613a6957780100000000000000000000000000000000000000000000000004821690614677565b60001904614662565b8116614b3e575b6208000016614b26575b3880614658565b6b048a170391f7dc42444e8fa2909102871c90614b1f565b6d2216e584f5fa1ea926041bedfe98909202881c91614b15565b926e5d6af8dedb81196699c329225ee60402891c9261464b565b926f09aa508b5b7a84e1c677de54f3e99bc902891c92614640565b926f31be135f97d08fd981231505542fcfa602891c92614635565b926f70d869a156d2a1b890bb3df62baf32f702891c9261462b565b926fa9f746462d870fdf8a65dc1f90e061e502891c92614621565b926fd097f3bdfd2022b8845ad8f792aa582502891c92614617565b926fe7159475a2c29b7443b29c7fa6e889d902891c9261460d565b926ff3392b0822b70005940c7a398e4b70f302891c92614603565b926ff987a7253ac413176f2b074cf7815e5402891c926145f9565b926ffcbe86c7900a88aedcffc83b479aa3a402891c926145ef565b916ffe5dee046a99a2a811c461f1969c305302881c916145e3565b906fff2ea16466c96a3843ec78b326b528610260801c906145d8565b906fff973b41fa98c081472e6896dfb254c00260801c906145cf565b906fffcb9843d60f6159c9db58835c9266440260801c906145c6565b906fffe5caca7e10e4e61c3624eaa0941cd00260801c906145bd565b906ffff2e50f5f656932ef12357cf3c7fdcc0260801c906145b4565b906ffff97272373d413259a46990580e213a0260801c906145ab565b6ffffcb933bd6fad37aa2d162d1a59400191506145a2565b60046040517f3c10250f000000000000000000000000000000000000000000000000000000008152fd5b60ff6000199116019060ff8211613a7f57565b60ff6003199116019060ff8211613a7f57565b8060801b600160801b6000198184099082808310920390828203927003298b075b4b6a5240945790619b37fd4a9284841115613e675714614e01577f1f514b8ee5362595de309a65c03ce543f7e851e1625ea646b8fe88b81023b92d940990828211900360ff1b910360011c170290565b509250500490565b7003298b075b4b6a5240945790619b37fd4a81810291600019828209918380841093039183830393600160801b9385851115613e675714614e57570990828211900360801b910360801c1790565b5050505060801c90565b8181029190600019828209918380841093039183830393680100000000000000009385851115613e675714614ea3570990828211900360c01b910360401c1790565b5050505060401c90565b620186a081810291600019828209918380841093039183830393600160801b9385851115613e675714614e57570990828211900360801b910360801c1790565b72047bf19673df52e37f2410011d10000000000081810291600019828209918380841093039183830393600160801b9385851115613e675714614e57570990828211900360801b910360801c1790565b604d8111613a7f57600a0a90565b6001600160a01b031660405190614f6182613ea5565b602a82526020820160403682378251156142e3576030905381516001908110156142e357607860218401536029905b808211614ffe575050614fa05790565b60646040517f08c379a000000000000000000000000000000000000000000000000000000000815260206004820152602060248201527f537472696e67733a20686578206c656e67746820696e73756666696369656e746044820152fd5b9091600f8116601081101561503c576f181899199a1a9b1b9c1cb0b131b232b360811b901a61502d84866142d2565b5360041c916000190190614f90565b60246000634e487b7160e01b81526032600452fd5b600292830b920b82121561506757505060001990565b60020b121561507557600190565b600090565b60881c6150856142f9565b90815190815b61509457505090565b600f8116601081101561503c576f181899199a1a9b1b9c1cb0b131b232b360811b901a6150c56000198401856142d2565b5360041c9060001901908161508b565b6150dd6142f9565b90815190815b6150ec57505090565b600f8116601081101561503c576f181899199a1a9b1b9c1cb0b131b232b360811b901a61511d6000198401856142d2565b5360041c906000190190816150e3565b60405161513981613ec1565b60008152908060020b6000811261518c575b50602061515f62ffffff61452a931661417e565b9260405193816151788693518092868087019101613f92565b820161380a82518093868085019101613f92565b9150506000038060020b908103613a7f5761452a602061515f62ffffff6040516151b581613e89565b60018152602d60f81b84820152949350505061514b565b604051906151d982613e89565b600282527f32370000000000000000000000000000000000000000000000000000000000006020830152565b6040519061521282613e89565b600282527f32310000000000000000000000000000000000000000000000000000000000006020830152565b6040519061524b82613e89565b600282527f31380000000000000000000000000000000000000000000000000000000000006020830152565b6040519061528482613e89565b600182527f38000000000000000000000000000000000000000000000000000000000000006020830152565b600291820b90820b01627fffff198112627fffff821317613a7f57810b819005810b6201e847198112156153225750506152e8615277565b906040516152f581613e89565b600181527f3700000000000000000000000000000000000000000000000000000000000000602082015290565b620124f719811215615372575050615338615277565b9060405161534581613e89565b600481527f31302e3500000000000000000000000000000000000000000000000000000000602082015290565b6161a7198112156153c1575050615387615277565b9060405161539481613e89565b600581527f31342e3235000000000000000000000000000000000000000000000000000000602082015290565b6113871981121561540b5750604051906153da82613e89565b81527f313000000000000000000000000000000000000000000000000000000000000060208201529061452a61523e565b600081121561545357506040519061542282613e89565b81527f313100000000000000000000000000000000000000000000000000000000000060208201529061452a615205565b6113888112156154cd57509060405161546b81613e89565b8281527f3133000000000000000000000000000000000000000000000000000000000000602082015291604051906154a282613e89565b81527f3233000000000000000000000000000000000000000000000000000000000000602082015290565b6161a88112156155475750906040516154e581613e89565b8281527f31350000000000000000000000000000000000000000000000000000000000006020820152916040519061551c82613e89565b81527f3235000000000000000000000000000000000000000000000000000000000000602082015290565b620124f881121561559557509061555c61523e565b916040519061556a82613e89565b81527f3236000000000000000000000000000000000000000000000000000000000000602082015290565b6201e84813156155b157506155a8615205565b9061452a6151cc565b604051906155be82613e89565b81527f323400000000000000000000000000000000000000000000000000000000000060208201529061452a6151cc56fea164736f6c6343000814000a","opcodes":"PUSH1 0x80 DUP1 PUSH1 0x40 MSTORE CALLVALUE PUSH2 0x1B JUMPI PUSH2 0x55FC SWAP1 DUP2 PUSH3 0x21 DUP3 CODECOPY ADDRESS DUP2 POP POP RETURN JUMPDEST PUSH1 0x0 DUP1 REVERT INVALID PUSH1 0x4 CALLDATASIZE LT ISZERO PUSH2 0xD JUMPI PUSH1 0x0 DUP1 REVERT JUMPDEST PUSH1 0x0 CALLDATALOAD PUSH1 0xE0 SHR PUSH4 0xC49917D7 EQ PUSH2 0x22 JUMPI PUSH1 0x0 DUP1 REVERT JUMPDEST PUSH1 0x3 NOT PUSH1 0x20 CALLDATASIZE DUP3 ADD SLT PUSH2 0x3E67 JUMPI PUSH8 0xFFFFFFFFFFFFFFFF PUSH1 0x4 CALLDATALOAD GT PUSH2 0x3E67 JUMPI PUSH2 0x1A0 SWAP1 PUSH1 0x4 CALLDATALOAD CALLDATASIZE SUB ADD SLT PUSH2 0x3E67 JUMPI PUSH2 0x260 PUSH1 0x40 MSTORE PUSH1 0x4 CALLDATALOAD PUSH1 0x4 ADD CALLDATALOAD PUSH1 0xC0 MSTORE PUSH2 0x6D PUSH1 0x24 PUSH1 0x4 CALLDATALOAD ADD PUSH2 0x3EFF JUMP JUMPDEST PUSH1 0xE0 MSTORE PUSH2 0x7E PUSH1 0x4 CALLDATALOAD PUSH1 0x44 ADD PUSH2 0x3EFF JUMP JUMPDEST PUSH2 0x100 MSTORE PUSH1 0x4 CALLDATALOAD PUSH1 0x64 ADD CALLDATALOAD PUSH8 0xFFFFFFFFFFFFFFFF DUP2 GT PUSH2 0x3E67 JUMPI PUSH2 0xA9 SWAP1 PUSH1 0x4 CALLDATASIZE SWAP2 DUP2 CALLDATALOAD ADD ADD PUSH2 0x3F2F JUMP JUMPDEST PUSH2 0x120 MSTORE PUSH1 0x4 CALLDATALOAD PUSH1 0x84 ADD CALLDATALOAD PUSH8 0xFFFFFFFFFFFFFFFF DUP2 GT PUSH2 0x3E67 JUMPI PUSH2 0xD4 SWAP1 PUSH1 0x4 CALLDATASIZE SWAP2 DUP2 CALLDATALOAD ADD ADD PUSH2 0x3F2F JUMP JUMPDEST PUSH2 0x140 MSTORE PUSH2 0xE6 PUSH1 0x4 CALLDATALOAD PUSH1 0xA4 ADD PUSH2 0x3F76 JUMP JUMPDEST PUSH2 0x160 MSTORE PUSH2 0xF8 PUSH1 0x4 CALLDATALOAD PUSH1 0xC4 ADD PUSH2 0x3F76 JUMP JUMPDEST PUSH2 0x180 MSTORE PUSH1 0x4 CALLDATALOAD PUSH1 0xE4 ADD CALLDATALOAD DUP1 ISZERO ISZERO SWAP1 SUB PUSH2 0x3E67 JUMPI PUSH1 0x4 CALLDATALOAD PUSH1 0xE4 DUP2 ADD CALLDATALOAD PUSH2 0x1A0 MSTORE PUSH2 0x125 SWAP1 PUSH2 0x104 ADD PUSH2 0x3F84 JUMP JUMPDEST PUSH2 0x1C0 MSTORE PUSH2 0x138 PUSH1 0x4 CALLDATALOAD PUSH2 0x124 ADD PUSH2 0x3F84 JUMP JUMPDEST PUSH2 0x1E0 MSTORE PUSH2 0x14B PUSH1 0x4 CALLDATALOAD PUSH2 0x144 ADD PUSH2 0x3F84 JUMP JUMPDEST PUSH2 0x200 MSTORE PUSH2 0x15E PUSH1 0x4 CALLDATALOAD PUSH2 0x164 ADD PUSH2 0x3F84 JUMP JUMPDEST PUSH2 0x220 MSTORE PUSH2 0x171 PUSH1 0x4 CALLDATALOAD PUSH2 0x184 ADD PUSH2 0x3EFF JUMP JUMPDEST PUSH2 0x240 MSTORE PUSH2 0x120 MLOAD PUSH2 0x182 SWAP1 PUSH2 0x4322 JUMP JUMPDEST PUSH2 0x2F7 PUSH1 0x30 PUSH2 0x195 PUSH1 0x80 PUSH1 0xC0 ADD MLOAD PUSH2 0x4322 JUMP JUMPDEST SWAP3 PUSH2 0x1D3 PUSH1 0xE0 PUSH1 0xC0 ADD MLOAD ISZERO DUP1 PUSH1 0x0 EQ PUSH2 0x3E5A JUMPI PUSH2 0x1C0 MLOAD PUSH1 0x2 SIGNEXTEND SWAP1 JUMPDEST PUSH2 0x220 MLOAD PUSH2 0x180 MLOAD PUSH2 0x160 MLOAD SWAP3 ISZERO SWAP4 PUSH1 0xFF SWAP4 DUP5 AND SWAP4 SWAP1 SWAP2 AND SWAP2 PUSH1 0x2 SIGNEXTEND SWAP1 PUSH2 0x44E4 JUMP JUMPDEST PUSH2 0x1A0 MLOAD PUSH2 0x20B SWAP1 ISZERO DUP1 ISZERO PUSH2 0x3E4E JUMPI PUSH2 0x1E0 MLOAD PUSH1 0x2 SIGNEXTEND JUMPDEST PUSH2 0x220 MLOAD PUSH2 0x180 MLOAD PUSH2 0x160 MLOAD SWAP4 ISZERO SWAP4 PUSH1 0xFF SWAP1 DUP2 AND SWAP4 SWAP2 AND SWAP2 PUSH1 0x2 SIGNEXTEND SWAP1 PUSH2 0x44E4 JUMP JUMPDEST SWAP1 PUSH1 0x40 MLOAD SWAP6 DUP7 SWAP4 PUSH32 0x416C6765627261202D2000000000000000000000000000000000000000000000 PUSH1 0x20 DUP7 ADD MSTORE PUSH2 0x24C DUP2 MLOAD DUP1 SWAP3 PUSH1 0x20 PUSH1 0x2A DUP10 ADD SWAP2 ADD PUSH2 0x3F92 JUMP JUMPDEST PUSH1 0x2F PUSH1 0xF8 SHL PUSH1 0x2A DUP3 DUP8 ADD ADD MSTORE PUSH2 0x26E DUP3 MLOAD DUP1 SWAP4 PUSH1 0x20 PUSH1 0x2B DUP6 DUP11 ADD ADD SWAP2 ADD PUSH2 0x3F92 JUMP JUMPDEST DUP5 ADD ADD PUSH32 0x202D200000000000000000000000000000000000000000000000000000000000 PUSH1 0x2B DUP3 ADD MSTORE PUSH2 0x2AB DUP3 MLOAD DUP1 SWAP4 PUSH1 0x20 PUSH1 0x2E DUP6 ADD SWAP2 ADD PUSH2 0x3F92 JUMP JUMPDEST ADD PUSH32 0x3C3E000000000000000000000000000000000000000000000000000000000000 PUSH1 0x2E DUP3 ADD MSTORE PUSH2 0x2E5 DUP3 MLOAD DUP1 SWAP4 PUSH1 0x20 DUP8 DUP6 ADD SWAP2 ADD PUSH2 0x3F92 JUMP JUMPDEST ADD DUP2 SWAP1 SUB PUSH1 0x10 DUP2 ADD SWAP1 SWAP2 MSTORE ADD DUP3 PUSH2 0x3EDD JUMP JUMPDEST PUSH2 0x120 MLOAD PUSH2 0x304 SWAP1 PUSH2 0x4322 JUMP JUMPDEST PUSH2 0x492 PUSH1 0xAA PUSH2 0x317 PUSH1 0x80 PUSH1 0xC0 ADD MLOAD PUSH2 0x4322 JUMP JUMPDEST PUSH2 0x240 MLOAD PUSH2 0x32D SWAP1 PUSH1 0x1 PUSH1 0x1 PUSH1 0xA0 SHL SUB AND PUSH2 0x4F4B JUMP JUMPDEST SWAP4 PUSH1 0x40 MLOAD SWAP5 DUP6 SWAP3 PUSH32 0x54686973204E465420726570726573656E74732061206C697175696469747920 PUSH1 0x20 DUP6 ADD MSTORE PUSH32 0x706F736974696F6E20696E206120416C67656272612000000000000000000000 PUSH1 0x40 DUP6 ADD MSTORE DUP3 MLOAD PUSH2 0x393 DUP2 PUSH1 0x56 DUP8 ADD PUSH1 0x20 DUP8 ADD PUSH2 0x3F92 JUMP JUMPDEST DUP5 ADD PUSH1 0x2D PUSH1 0xF8 SHL PUSH1 0x56 DUP3 ADD MSTORE PUSH2 0x3B3 DUP3 MLOAD DUP1 SWAP4 PUSH1 0x20 PUSH1 0x57 DUP6 ADD SWAP2 ADD PUSH2 0x3F92 JUMP JUMPDEST ADD PUSH32 0x20706F6F6C2E2000000000000000000000000000000000000000000000000000 PUSH1 0x57 DUP3 ADD MSTORE PUSH32 0x546865206F776E6572206F662074686973204E46542063616E206D6F64696679 PUSH1 0x5E DUP3 ADD MSTORE PUSH32 0x206F722072656465656D2074686520706F736974696F6E2E5C6E000000000000 PUSH1 0x7E DUP3 ADD MSTORE PUSH32 0x5C6E506F6F6C20416464726573733A2000000000000000000000000000000000 PUSH1 0x98 DUP3 ADD MSTORE PUSH2 0x460 DUP3 MLOAD DUP1 SWAP4 PUSH1 0x20 PUSH1 0xA8 DUP6 ADD SWAP2 ADD PUSH2 0x3F92 JUMP JUMPDEST PUSH2 0x2E37 PUSH1 0xF1 SHL PUSH1 0xA8 DUP4 DUP4 ADD ADD MSTORE PUSH2 0x482 DUP4 MLOAD DUP1 SWAP5 PUSH1 0x20 DUP9 DUP7 DUP7 ADD ADD SWAP2 ADD PUSH2 0x3F92 JUMP JUMPDEST ADD ADD SUB PUSH1 0x8A DUP2 ADD DUP5 MSTORE ADD DUP3 PUSH2 0x3EDD JUMP JUMPDEST PUSH2 0x49D PUSH1 0xC0 MLOAD PUSH2 0x417E JUMP JUMPDEST SWAP2 PUSH2 0x689 PUSH1 0xE4 PUSH2 0x4B1 PUSH1 0x80 PUSH1 0xC0 ADD MLOAD PUSH2 0x4322 JUMP JUMPDEST SWAP5 PUSH2 0x4C9 PUSH1 0x1 PUSH1 0x1 PUSH1 0xA0 SHL SUB PUSH1 0x20 PUSH1 0xC0 ADD MLOAD AND PUSH2 0x4F4B JUMP JUMPDEST SWAP1 PUSH2 0x4E1 PUSH1 0x1 PUSH1 0x1 PUSH1 0xA0 SHL SUB PUSH1 0x40 PUSH1 0xC0 ADD MLOAD AND PUSH2 0x4F4B JUMP JUMPDEST PUSH1 0x40 MLOAD SWAP8 DUP9 SWAP4 PUSH10 0x1020B2323932B9B99D1 PUSH1 0xB5 SHL PUSH1 0x20 DUP7 ADD MSTORE PUSH2 0x50E DUP2 MLOAD DUP1 SWAP3 PUSH1 0x20 PUSH1 0x2A DUP10 ADD SWAP2 ADD PUSH2 0x3F92 JUMP JUMPDEST PUSH2 0x2E37 PUSH1 0xF1 SHL PUSH1 0x2A DUP3 DUP8 ADD ADD MSTORE PUSH2 0x531 DUP3 MLOAD DUP1 SWAP4 PUSH1 0x20 PUSH1 0x2C DUP6 DUP11 ADD ADD SWAP2 ADD PUSH2 0x3F92 JUMP JUMPDEST DUP5 ADD ADD PUSH10 0x1020B2323932B9B99D1 PUSH1 0xB5 SHL PUSH1 0x2C DUP3 ADD MSTORE PUSH2 0x55B DUP3 MLOAD DUP1 SWAP4 PUSH1 0x20 PUSH1 0x36 DUP6 ADD SWAP2 ADD PUSH2 0x3F92 JUMP JUMPDEST ADD PUSH32 0x5C6E546F6B656E2049443A200000000000000000000000000000000000000000 PUSH1 0x36 DUP3 ADD MSTORE PUSH2 0x596 DUP3 MLOAD DUP1 SWAP4 PUSH1 0x20 PUSH1 0x42 DUP6 ADD SWAP2 ADD PUSH2 0x3F92 JUMP JUMPDEST ADD PUSH32 0x5C6E5C6E00000000000000000000000000000000000000000000000000000000 PUSH1 0x42 DUP3 ADD MSTORE PUSH32 0xE29AA0EFB88F20444953434C41494D45523A204475652064696C6967656E6365 PUSH1 0x46 DUP3 ADD MSTORE PUSH32 0x20697320696D7065726174697665207768656E20617373657373696E67207468 PUSH1 0x66 DUP3 ADD MSTORE PUSH32 0x6973204E46542E204D616B65207375726520746F6B656E206164647265737365 PUSH1 0x86 DUP3 ADD MSTORE PUSH32 0x73206D617463682074686520657870656374656420746F6B656E732C20617320 PUSH1 0xA6 DUP3 ADD MSTORE PUSH32 0x746F6B656E2073796D626F6C73206D617920626520696D6974617465642E0000 PUSH1 0xC6 DUP3 ADD MSTORE SUB PUSH1 0xC4 DUP2 ADD DUP7 MSTORE ADD DUP5 PUSH2 0x3EDD JUMP JUMPDEST PUSH1 0xE0 MLOAD PUSH2 0x69E SWAP1 PUSH1 0x1 PUSH1 0x1 PUSH1 0xA0 SHL SUB AND PUSH2 0x507A JUMP JUMPDEST SWAP2 PUSH2 0x6B6 PUSH1 0x1 PUSH1 0x1 PUSH1 0xA0 SHL SUB PUSH1 0x40 PUSH1 0xC0 ADD MLOAD AND PUSH2 0x507A JUMP JUMPDEST SWAP3 PUSH2 0x6CE PUSH1 0x1 PUSH1 0x1 PUSH1 0xA0 SHL SUB PUSH1 0x20 PUSH1 0xC0 ADD MLOAD AND PUSH2 0x50D5 JUMP JUMPDEST PUSH2 0x100 MLOAD PUSH2 0x6E4 SWAP1 PUSH1 0x1 PUSH1 0x1 PUSH1 0xA0 SHL SUB AND PUSH2 0x50D5 JUMP JUMPDEST PUSH1 0xFF PUSH2 0x6FD PUSH1 0x20 PUSH1 0xC0 ADD MLOAD DUP3 PUSH1 0xC0 MLOAD SWAP2 PUSH1 0x10 SHR AND PUSH2 0x3FDB JUMP JUMPDEST MOD DUP1 PUSH2 0x102 DUP2 MUL DIV PUSH2 0x102 EQ DUP2 ISZERO OR ISZERO PUSH2 0x3A7F JUMPI PUSH2 0x724 PUSH1 0xFF PUSH2 0x102 PUSH2 0x729 SWAP4 MUL DIV PUSH2 0x3FB5 JUMP JUMPDEST PUSH2 0x417E JUMP JUMPDEST PUSH1 0xFF PUSH2 0x742 PUSH1 0x40 PUSH1 0xC0 ADD MLOAD DUP3 PUSH1 0xC0 MLOAD SWAP2 PUSH1 0x10 SHR AND PUSH2 0x3FDB JUMP JUMPDEST MOD DUP1 PUSH2 0x180 DUP2 MUL DIV PUSH2 0x180 EQ DUP2 ISZERO OR ISZERO PUSH2 0x3A7F JUMPI PUSH2 0x724 PUSH1 0xFF PUSH2 0x180 PUSH2 0x769 SWAP4 MUL DIV PUSH2 0x3FC3 JUMP JUMPDEST PUSH1 0xFF PUSH2 0x782 PUSH1 0x20 PUSH1 0xC0 ADD MLOAD DUP3 PUSH1 0xC0 MLOAD SWAP2 PUSH1 0x20 SHR AND PUSH2 0x3FDB JUMP JUMPDEST MOD DUP1 PUSH2 0x102 DUP2 MUL DIV PUSH2 0x102 EQ DUP2 ISZERO OR ISZERO PUSH2 0x3A7F JUMPI PUSH2 0x724 PUSH1 0xFF PUSH2 0x102 PUSH2 0x7A9 SWAP4 MUL DIV PUSH2 0x3FB5 JUMP JUMPDEST SWAP1 PUSH1 0xFF PUSH2 0x7C3 PUSH1 0x40 PUSH1 0xC0 ADD MLOAD DUP3 PUSH1 0xC0 MLOAD SWAP2 PUSH1 0x20 SHR AND PUSH2 0x3FDB JUMP JUMPDEST MOD DUP1 PUSH2 0x180 DUP2 MUL DIV PUSH2 0x180 EQ DUP2 ISZERO OR ISZERO PUSH2 0x3A7F JUMPI PUSH2 0x724 PUSH1 0xFF PUSH2 0x180 PUSH2 0x7EA SWAP4 MUL DIV PUSH2 0x3FC3 JUMP JUMPDEST SWAP3 PUSH1 0xFF PUSH2 0x804 PUSH1 0x20 PUSH1 0xC0 ADD MLOAD DUP3 PUSH1 0xC0 MLOAD SWAP2 PUSH1 0x30 SHR AND PUSH2 0x3FDB JUMP JUMPDEST MOD DUP1 PUSH2 0x102 DUP2 MUL DIV PUSH2 0x102 EQ DUP2 ISZERO OR ISZERO PUSH2 0x3A7F JUMPI PUSH2 0x724 PUSH1 0xFF PUSH2 0x102 PUSH2 0x82B SWAP4 MUL DIV PUSH2 0x3FB5 JUMP JUMPDEST SWAP5 PUSH1 0xFF PUSH2 0x845 PUSH1 0x40 PUSH1 0xC0 ADD MLOAD DUP3 PUSH1 0xC0 MLOAD SWAP2 PUSH1 0x30 SHR AND PUSH2 0x3FDB JUMP JUMPDEST MOD DUP1 PUSH2 0x180 DUP2 MUL DIV PUSH2 0x180 EQ DUP2 ISZERO OR ISZERO PUSH2 0x3A7F JUMPI PUSH2 0x180 MUL PUSH1 0xFF SWAP1 DIV PUSH2 0x86A SWAP1 PUSH2 0x3FC3 JUMP JUMPDEST PUSH2 0x873 SWAP1 PUSH2 0x417E JUMP JUMPDEST SWAP7 PUSH1 0x40 MLOAD SWAP12 PUSH2 0x881 DUP14 PUSH2 0x3E6C JUMP JUMPDEST DUP10 DUP14 MSTORE PUSH1 0x20 DUP14 ADD MSTORE PUSH1 0x40 DUP13 ADD MSTORE PUSH1 0x60 DUP12 ADD MSTORE PUSH1 0x80 DUP11 ADD MSTORE PUSH1 0xA0 DUP10 ADD MSTORE PUSH1 0xC0 DUP9 ADD MSTORE PUSH1 0xE0 DUP8 ADD MSTORE PUSH2 0x100 DUP7 ADD MSTORE PUSH2 0x120 DUP6 ADD MSTORE PUSH1 0x40 MLOAD DUP1 SWAP2 PUSH1 0x20 DUP3 ADD PUSH32 0x3C7376672077696474683D2732393027206865696768743D2735303027207669 SWAP1 MSTORE PUSH1 0x40 DUP3 ADD PUSH32 0x6577426F783D2730203020323930203530302720786D6C6E733D27687474703A SWAP1 MSTORE PUSH1 0x60 DUP3 ADD PUSH32 0x2F2F7777772E77332E6F72672F323030302F737667273E3C7265637420776964 SWAP1 MSTORE PUSH1 0x80 DUP3 ADD PUSH32 0x74683D27323930707827206865696768743D273530307078272066696C6C3D27 SWAP1 MSTORE PUSH1 0xA0 DUP3 ADD PUSH32 0x2300000000000000000000000000000000000000000000000000000000000000 SWAP1 MSTORE DUP1 MLOAD SWAP1 DUP2 PUSH1 0xA1 DUP5 ADD SWAP2 PUSH1 0x20 ADD SWAP2 PUSH2 0x991 SWAP3 PUSH2 0x3F92 JUMP JUMPDEST DUP2 ADD PUSH1 0xA1 DUP2 ADD PUSH9 0x13979F1E17B9BB339F PUSH1 0xB9 SHL SWAP1 MSTORE SUB PUSH1 0x8A DUP2 ADD DUP3 MSTORE PUSH1 0xAA ADD PUSH2 0x9BA SWAP1 DUP3 PUSH2 0x3EDD JUMP JUMPDEST PUSH2 0x9C3 SWAP1 PUSH2 0x4020 JUMP JUMPDEST PUSH1 0x80 DUP5 ADD MLOAD PUSH1 0xA0 DUP6 ADD MLOAD SWAP1 PUSH1 0x20 DUP7 ADD MLOAD PUSH1 0x40 MLOAD SWAP3 DUP4 SWAP3 PUSH1 0x20 DUP5 ADD PUSH2 0xA63 SWAP1 PUSH1 0x63 SWAP1 PUSH32 0x3C7376672077696474683D2732393027206865696768743D2735303027207669 DUP2 MSTORE PUSH32 0x6577426F783D2730203020323930203530302720786D6C6E733D27687474703A PUSH1 0x20 DUP3 ADD MSTORE PUSH32 0x2F2F7777772E77332E6F72672F323030302F737667273E3C636972636C652063 PUSH1 0x40 DUP3 ADD MSTORE PUSH3 0x783D27 PUSH1 0xE8 SHL PUSH1 0x60 DUP3 ADD MSTORE ADD SWAP1 JUMP JUMPDEST DUP1 DUP3 MLOAD PUSH1 0x20 DUP2 SWAP5 ADD SWAP2 PUSH2 0xA75 SWAP3 PUSH2 0x3F92 JUMP JUMPDEST DUP2 DUP2 ADD PUSH6 0x272063793D27 PUSH1 0xD0 SHL SWAP1 MSTORE DUP3 MLOAD SWAP3 DUP4 DUP4 DUP4 ADD PUSH1 0x6 ADD SWAP2 PUSH1 0x20 ADD SWAP2 PUSH2 0xA9C SWAP3 PUSH2 0x3F92 JUMP JUMPDEST DUP3 DUP3 DUP3 ADD ADD PUSH1 0x6 ADD PUSH32 0x2720723D273132307078272066696C6C3D272300000000000000000000000000 SWAP1 MSTORE DUP4 MLOAD SWAP4 DUP5 DUP5 DUP5 DUP5 ADD ADD PUSH1 0x19 ADD SWAP2 PUSH1 0x20 ADD SWAP2 PUSH2 0xAE1 SWAP3 PUSH2 0x3F92 JUMP JUMPDEST ADD ADD ADD PUSH1 0x19 DUP2 ADD PUSH9 0x13979F1E17B9BB339F PUSH1 0xB9 SHL SWAP1 MSTORE SUB PUSH1 0x2 DUP2 ADD DUP3 MSTORE PUSH1 0x22 ADD PUSH2 0xB0B SWAP1 DUP3 PUSH2 0x3EDD JUMP JUMPDEST PUSH2 0xB14 SWAP1 PUSH2 0x4020 JUMP JUMPDEST PUSH1 0xC0 DUP6 ADD MLOAD PUSH1 0xE0 DUP7 ADD MLOAD SWAP1 PUSH1 0x40 DUP8 ADD MLOAD PUSH1 0x40 MLOAD SWAP3 DUP4 SWAP3 PUSH1 0x20 DUP5 ADD PUSH2 0xBB4 SWAP1 PUSH1 0x63 SWAP1 PUSH32 0x3C7376672077696474683D2732393027206865696768743D2735303027207669 DUP2 MSTORE PUSH32 0x6577426F783D2730203020323930203530302720786D6C6E733D27687474703A PUSH1 0x20 DUP3 ADD MSTORE PUSH32 0x2F2F7777772E77332E6F72672F323030302F737667273E3C636972636C652063 PUSH1 0x40 DUP3 ADD MSTORE PUSH3 0x783D27 PUSH1 0xE8 SHL PUSH1 0x60 DUP3 ADD MSTORE ADD SWAP1 JUMP JUMPDEST DUP1 DUP3 MLOAD PUSH1 0x20 DUP2 SWAP5 ADD SWAP2 PUSH2 0xBC6 SWAP3 PUSH2 0x3F92 JUMP JUMPDEST ADD PUSH6 0x272063793D27 PUSH1 0xD0 SHL DUP2 MSTORE DUP2 MLOAD SWAP2 DUP3 PUSH1 0x6 DUP4 ADD SWAP2 PUSH1 0x20 ADD SWAP2 PUSH2 0xBE9 SWAP3 PUSH2 0x3F92 JUMP JUMPDEST ADD PUSH1 0x6 DUP2 ADD PUSH32 0x2720723D273132307078272066696C6C3D272300000000000000000000000000 SWAP1 MSTORE DUP2 MLOAD SWAP2 DUP3 PUSH1 0x19 DUP4 ADD SWAP2 PUSH1 0x20 ADD SWAP2 PUSH2 0xC27 SWAP3 PUSH2 0x3F92 JUMP JUMPDEST ADD PUSH1 0x19 DUP2 ADD PUSH9 0x13979F1E17B9BB339F PUSH1 0xB9 SHL SWAP1 MSTORE SUB PUSH1 0x2 DUP2 ADD DUP3 MSTORE PUSH1 0x22 ADD PUSH2 0xC4F SWAP1 DUP3 PUSH2 0x3EDD JUMP JUMPDEST PUSH2 0xC58 SWAP1 PUSH2 0x4020 JUMP JUMPDEST SWAP1 PUSH2 0x100 DUP7 ADD MLOAD PUSH2 0x120 DUP8 ADD MLOAD SWAP1 PUSH1 0x60 DUP9 ADD MLOAD PUSH1 0x40 MLOAD SWAP3 DUP4 SWAP3 PUSH1 0x20 DUP5 ADD PUSH2 0xCFB SWAP1 PUSH1 0x63 SWAP1 PUSH32 0x3C7376672077696474683D2732393027206865696768743D2735303027207669 DUP2 MSTORE PUSH32 0x6577426F783D2730203020323930203530302720786D6C6E733D27687474703A PUSH1 0x20 DUP3 ADD MSTORE PUSH32 0x2F2F7777772E77332E6F72672F323030302F737667273E3C636972636C652063 PUSH1 0x40 DUP3 ADD MSTORE PUSH3 0x783D27 PUSH1 0xE8 SHL PUSH1 0x60 DUP3 ADD MSTORE ADD SWAP1 JUMP JUMPDEST DUP1 DUP3 MLOAD PUSH1 0x20 DUP2 SWAP5 ADD SWAP2 PUSH2 0xD0D SWAP3 PUSH2 0x3F92 JUMP JUMPDEST ADD PUSH6 0x272063793D27 PUSH1 0xD0 SHL DUP2 MSTORE DUP2 MLOAD SWAP2 DUP3 PUSH1 0x6 DUP4 ADD SWAP2 PUSH1 0x20 ADD SWAP2 PUSH2 0xD30 SWAP3 PUSH2 0x3F92 JUMP JUMPDEST ADD PUSH1 0x6 DUP2 ADD PUSH32 0x2720723D273130307078272066696C6C3D272300000000000000000000000000 SWAP1 MSTORE DUP2 MLOAD SWAP2 DUP3 PUSH1 0x19 DUP4 ADD SWAP2 PUSH1 0x20 ADD SWAP2 PUSH2 0xD6E SWAP3 PUSH2 0x3F92 JUMP JUMPDEST ADD PUSH1 0x19 DUP2 ADD PUSH9 0x13979F1E17B9BB339F PUSH1 0xB9 SHL SWAP1 MSTORE SUB PUSH1 0x2 DUP2 ADD DUP3 MSTORE PUSH1 0x22 ADD PUSH2 0xD96 SWAP1 DUP3 PUSH2 0x3EDD JUMP JUMPDEST PUSH2 0xD9F SWAP1 PUSH2 0x4020 JUMP JUMPDEST SWAP6 MLOAD SWAP2 PUSH1 0x40 MLOAD SWAP7 DUP8 SWAP5 PUSH1 0x20 DUP7 ADD PUSH32 0x3C7376672077696474683D2232393022206865696768743D2235303022207669 SWAP1 MSTORE PUSH1 0x40 DUP7 ADD PUSH32 0x6577426F783D2230203020323930203530302220786D6C6E733D22687474703A SWAP1 MSTORE PUSH1 0x60 DUP7 ADD PUSH32 0x2F2F7777772E77332E6F72672F323030302F7376672200000000000000000000 SWAP1 MSTORE PUSH1 0x76 DUP7 ADD PUSH32 0x20786D6C6E733A786C696E6B3D27687474703A2F2F7777772E77332E6F72672F SWAP1 MSTORE PUSH1 0x96 DUP7 ADD PUSH32 0x313939392F786C696E6B273E0000000000000000000000000000000000000000 SWAP1 MSTORE PUSH1 0xA2 DUP7 ADD PUSH32 0x3C646566733E0000000000000000000000000000000000000000000000000000 SWAP1 MSTORE PUSH1 0xA8 DUP7 ADD PUSH32 0x3C66696C7465722069643D226631223E3C6665496D61676520726573756C743D SWAP1 MSTORE PUSH1 0xC8 DUP7 ADD PUSH32 0x2270302220786C696E6B3A687265663D22646174613A696D6167652F7376672B SWAP1 MSTORE PUSH1 0xE8 DUP7 ADD PUSH32 0x786D6C3B6261736536342C000000000000000000000000000000000000000000 SWAP1 MSTORE DUP1 MLOAD SWAP1 DUP2 PUSH1 0xF3 DUP9 ADD SWAP2 PUSH1 0x20 ADD SWAP2 PUSH2 0xF1D SWAP3 PUSH2 0x3F92 JUMP JUMPDEST DUP6 ADD SWAP2 PUSH1 0xF3 DUP4 ADD PUSH32 0x222F3E3C6665496D61676520726573756C743D2270312220786C696E6B3A6872 SWAP1 MSTORE PUSH32 0x65663D22646174613A696D6167652F7376672B786D6C3B6261736536342C0000 DUP1 PUSH2 0x113 DUP6 ADD MSTORE DUP5 MLOAD SWAP5 PUSH2 0x131 SWAP1 DUP7 DUP3 DUP8 ADD SWAP2 PUSH1 0x20 ADD SWAP2 PUSH2 0xF88 SWAP3 PUSH2 0x3F92 JUMP JUMPDEST DUP6 DUP6 ADD ADD PUSH32 0x222F3E3C6665496D61676520726573756C743D2270322220786C696E6B3A6872 SWAP1 MSTORE DUP5 DUP5 ADD PUSH2 0x151 ADD MSTORE DUP1 MLOAD SWAP1 DUP2 DUP6 DUP6 ADD PUSH2 0x16F ADD SWAP2 PUSH1 0x20 ADD SWAP2 PUSH2 0xFD0 SWAP3 PUSH2 0x3F92 JUMP JUMPDEST PUSH4 0x1110179F PUSH1 0xE1 SHL DUP5 DUP5 ADD DUP3 ADD PUSH2 0x16F DUP2 ADD SWAP2 SWAP1 SWAP2 MSTORE PUSH32 0x3C6665496D61676520726573756C743D2270332220786C696E6B3A687265663D PUSH2 0x173 DUP3 ADD MSTORE PUSH32 0x22646174613A696D6167652F7376672B786D6C3B6261736536342C0000000000 PUSH2 0x193 DUP3 ADD MSTORE DUP3 MLOAD SWAP3 PUSH2 0x104C SWAP2 DUP5 SWAP2 PUSH2 0x1AE SWAP1 SWAP2 ADD SWAP1 PUSH1 0x20 ADD PUSH2 0x3F92 JUMP JUMPDEST PUSH32 0x22202F3E3C6665426C656E64206D6F64653D226F7665726C61792220696E3D22 DUP5 DUP5 ADD DUP3 ADD DUP4 ADD PUSH2 0x1AE DUP2 ADD SWAP2 SWAP1 SWAP2 MSTORE PUSH32 0x70302220696E323D22703122202F3E3C6665426C656E64206D6F64653D226578 PUSH2 0x1CE DUP3 ADD MSTORE PUSH32 0x636C7573696F6E2220696E323D22703222202F3E3C6665426C656E64206D6F64 PUSH2 0x1EE DUP3 ADD MSTORE PUSH32 0x653D226F7665726C61792220696E323D2270332220726573756C743D22626C65 PUSH2 0x20E DUP3 ADD MSTORE PUSH32 0x6E644F757422202F3E3C6665476175737369616E426C75722000000000000000 PUSH2 0x22E DUP3 ADD MSTORE PUSH32 0x696E3D22626C656E644F75742220737464446576696174696F6E3D2234322220 PUSH2 0x247 DUP3 ADD MSTORE PUSH32 0x2F3E3C2F66696C7465723E203C636C6970506174682069643D22636F726E6572 PUSH2 0x267 DUP3 ADD MSTORE PUSH32 0x73223E3C726563742077696474683D2232393022206865696768743D22353030 PUSH2 0x287 DUP3 ADD MSTORE PUSH32 0x222072783D223432222072793D22343222202F3E3C2F636C6970506174683E00 PUSH2 0x2A7 DUP3 ADD MSTORE PUSH32 0x3C706174682069643D22746578742D706174682D612220643D224D3430203132 PUSH2 0x2C6 DUP3 ADD MSTORE PUSH32 0x2048323530204132382032382030203020312032373820343020563436302041 PUSH2 0x2E6 DUP3 ADD MSTORE PUSH32 0x3238203238203020302031203235302034383820483430204132382032382030 PUSH2 0x306 DUP3 ADD MSTORE PUSH32 0x2030203120313220343630205634302041323820323820302030203120343020 PUSH2 0x326 DUP3 ADD MSTORE PUSH32 0x3132207A22202F3E000000000000000000000000000000000000000000000000 PUSH2 0x346 DUP3 ADD MSTORE PUSH32 0x3C706174682069643D226D696E696D61702220643D224D323334203434344332 PUSH2 0x34E DUP3 ADD MSTORE PUSH32 0x3334203435372E393439203234322E323120343633203235332034363322202F PUSH2 0x36E DUP3 ADD MSTORE PUSH32 0x3E00000000000000000000000000000000000000000000000000000000000000 PUSH2 0x38E DUP3 ADD DUP2 SWAP1 MSTORE PUSH32 0x3C66696C7465722069643D22746F702D726567696F6E2D626C7572223E3C6665 PUSH2 0x38F DUP4 ADD MSTORE PUSH32 0x476175737369616E426C757220696E3D22536F75726365477261706869632220 PUSH2 0x3AF DUP4 ADD MSTORE PUSH32 0x737464446576696174696F6E3D22323422202F3E3C2F66696C7465723E000000 PUSH2 0x3CF DUP4 ADD MSTORE PUSH32 0x3C6C696E6561724772616469656E742069643D22677261642D7570222078313D PUSH2 0x3EC DUP4 ADD MSTORE PUSH32 0x2231222078323D2230222079313D2231222079323D2230223E3C73746F70206F PUSH2 0x40C DUP4 ADD MSTORE PUSH32 0x66667365743D22302E30222073746F702D636F6C6F723D227768697465222073 PUSH2 0x42C DUP4 ADD MSTORE PUSH32 0x746F702D6F7061636974793D223122202F3E0000000000000000000000000000 PUSH2 0x44C DUP4 ADD MSTORE PUSH32 0x3C73746F70206F66667365743D222E39222073746F702D636F6C6F723D227768 PUSH2 0x45E DUP4 ADD MSTORE PUSH32 0x697465222073746F702D6F7061636974793D223022202F3E3C2F6C696E656172 PUSH2 0x47E DUP4 ADD MSTORE PUSH32 0x4772616469656E743E0000000000000000000000000000000000000000000000 PUSH2 0x49E DUP4 ADD MSTORE PUSH32 0x3C6C696E6561724772616469656E742069643D22677261642D646F776E222078 PUSH2 0x4A7 DUP4 ADD MSTORE PUSH32 0x313D2230222078323D2231222079313D2230222079323D2231223E3C73746F70 PUSH2 0x4C7 DUP4 ADD MSTORE PUSH32 0x206F66667365743D22302E30222073746F702D636F6C6F723D22776869746522 PUSH2 0x4E7 DUP4 ADD MSTORE PUSH32 0x2073746F702D6F7061636974793D223122202F3E3C73746F70206F6666736574 PUSH2 0x507 DUP4 ADD MSTORE PUSH32 0x3D22302E39222073746F702D636F6C6F723D227768697465222073746F702D6F PUSH2 0x527 DUP4 ADD MSTORE PUSH32 0x7061636974793D223022202F3E3C2F6C696E6561724772616469656E743E0000 PUSH2 0x547 DUP4 ADD MSTORE PUSH32 0x3C6D61736B2069643D22666164652D757022206D61736B436F6E74656E74556E PUSH2 0x565 DUP4 ADD MSTORE PUSH32 0x6974733D226F626A656374426F756E64696E67426F78223E3C72656374207769 PUSH2 0x585 DUP4 ADD MSTORE PUSH32 0x6474683D223122206865696768743D2231222066696C6C3D2275726C28236772 PUSH2 0x5A5 DUP4 ADD MSTORE PUSH32 0x61642D75702922202F3E3C2F6D61736B3E000000000000000000000000000000 PUSH2 0x5C5 DUP4 ADD MSTORE PUSH32 0x3C6D61736B2069643D22666164652D646F776E22206D61736B436F6E74656E74 PUSH2 0x5D6 DUP4 ADD MSTORE PUSH32 0x556E6974733D226F626A656374426F756E64696E67426F78223E3C7265637420 PUSH2 0x5F6 DUP4 ADD MSTORE PUSH32 0x77696474683D223122206865696768743D2231222066696C6C3D2275726C2823 PUSH2 0x616 DUP4 ADD MSTORE PUSH32 0x677261642D646F776E2922202F3E3C2F6D61736B3E0000000000000000000000 PUSH2 0x636 DUP4 ADD MSTORE PUSH32 0x3C6D61736B2069643D226E6F6E6522206D61736B436F6E74656E74556E697473 PUSH2 0x64B DUP4 ADD MSTORE PUSH32 0x3D226F626A656374426F756E64696E67426F78223E3C72656374207769647468 PUSH2 0x66B DUP4 ADD MSTORE PUSH32 0x3D223122206865696768743D2231222066696C6C3D22776869746522202F3E3C PUSH2 0x68B DUP4 ADD MSTORE PUSH32 0x2F6D61736B3E0000000000000000000000000000000000000000000000000000 PUSH2 0x6AB DUP4 ADD MSTORE PUSH32 0x3C6C696E6561724772616469656E742069643D22677261642D73796D626F6C22 PUSH2 0x6B1 DUP4 ADD MSTORE PUSH32 0x3E3C73746F70206F66667365743D22302E37222073746F702D636F6C6F723D22 PUSH2 0x6D1 DUP4 ADD MSTORE PUSH32 0x7768697465222073746F702D6F7061636974793D223122202F3E3C73746F7020 PUSH2 0x6F1 DUP4 ADD MSTORE PUSH32 0x6F66667365743D222E3935222073746F702D636F6C6F723D2277686974652220 PUSH2 0x711 DUP4 ADD MSTORE PUSH32 0x73746F702D6F7061636974793D223022202F3E3C2F6C696E6561724772616469 PUSH2 0x731 DUP4 ADD MSTORE PUSH32 0x656E743E00000000000000000000000000000000000000000000000000000000 PUSH2 0x751 DUP4 ADD MSTORE PUSH32 0x3C6D61736B2069643D22666164652D73796D626F6C22206D61736B436F6E7465 PUSH2 0x755 DUP4 ADD MSTORE PUSH32 0x6E74556E6974733D227573657253706163654F6E557365223E3C726563742077 PUSH2 0x775 DUP4 ADD MSTORE PUSH32 0x696474683D22323930707822206865696768743D223230307078222066696C6C PUSH2 0x795 DUP4 ADD MSTORE PUSH32 0x3D2275726C2823677261642D73796D626F6C2922202F3E3C2F6D61736B3E3C2F PUSH2 0x7B5 DUP4 ADD MSTORE PUSH32 0x646566733E000000000000000000000000000000000000000000000000000000 PUSH2 0x7D5 DUP4 ADD MSTORE PUSH32 0x3C6720636C69702D706174683D2275726C2823636F726E65727329223E000000 PUSH2 0x7DA DUP4 ADD MSTORE PUSH32 0x3C726563742066696C6C3D220000000000000000000000000000000000000000 PUSH2 0x7F7 DUP4 ADD MSTORE DUP7 MLOAD PUSH2 0x803 SWAP8 SWAP2 SWAP7 SWAP1 SWAP6 SWAP1 SWAP3 SWAP1 SWAP2 PUSH2 0x194E SWAP2 DUP8 SWAP2 SWAP1 DUP11 ADD SWAP1 PUSH1 0x20 ADD PUSH2 0x3F92 JUMP JUMPDEST PUSH32 0x2220783D223070782220793D22307078222077696474683D2232393070782220 SWAP2 ADD SWAP2 SWAP1 SWAP2 ADD SWAP2 SWAP1 SWAP2 ADD SWAP2 SWAP1 SWAP2 ADD SWAP3 DUP4 ADD MSTORE PUSH32 0x6865696768743D22353030707822202F3E000000000000000000000000000000 PUSH2 0x823 DUP4 ADD MSTORE PUSH32 0x3C72656374207374796C653D2266696C7465723A2075726C2823663129222078 PUSH2 0x834 DUP4 ADD MSTORE PUSH32 0x3D223070782220793D22307078222077696474683D2232393070782220686569 PUSH2 0x854 DUP4 ADD MSTORE PUSH32 0x6768743D22353030707822202F3E000000000000000000000000000000000000 PUSH2 0x874 DUP4 ADD MSTORE PUSH32 0x203C67207374796C653D2266696C7465723A75726C2823746F702D726567696F PUSH2 0x882 DUP4 ADD MSTORE PUSH32 0x6E2D626C7572293B207472616E73666F726D3A7363616C6528312E35293B2074 PUSH2 0x8A2 DUP4 ADD MSTORE PUSH32 0x72616E73666F726D2D6F726967696E3A63656E74657220746F703B223E000000 PUSH2 0x8C2 DUP4 ADD MSTORE PUSH32 0x3C726563742066696C6C3D226E6F6E652220783D223070782220793D22307078 PUSH2 0x8DF DUP4 ADD MSTORE PUSH32 0x222077696474683D22323930707822206865696768743D22353030707822202F PUSH2 0x8FF DUP4 ADD MSTORE PUSH2 0x91F DUP3 ADD MSTORE PUSH32 0x3C656C6C697073652063783D22353025222063793D22307078222072783D2231 PUSH2 0x920 DUP3 ADD MSTORE PUSH32 0x38307078222072793D223132307078222066696C6C3D222330303022206F7061 PUSH2 0x940 DUP3 ADD MSTORE PUSH32 0x636974793D22302E383522202F3E3C2F673E0000000000000000000000000000 PUSH2 0x960 DUP3 ADD MSTORE PUSH32 0x3C7265637420783D22302220793D2230222077696474683D2232393022206865 PUSH2 0x972 DUP3 ADD MSTORE PUSH32 0x696768743D22353030222072783D223432222072793D223432222066696C6C3D PUSH2 0x992 DUP3 ADD MSTORE PUSH32 0x227267626128302C302C302C302922207374726F6B653D227267626128323535 PUSH2 0x9B2 DUP3 ADD MSTORE PUSH32 0x2C3235352C3235352C302E322922202F3E3C2F673E0000000000000000000000 PUSH2 0x9D2 DUP3 ADD MSTORE SUB PUSH2 0x9C7 DUP2 ADD DUP5 MSTORE PUSH2 0x1C0D SWAP1 PUSH2 0x9E7 ADD DUP5 PUSH2 0x3EDD JUMP JUMPDEST PUSH1 0xE0 MLOAD PUSH2 0x1C22 SWAP1 PUSH1 0x1 PUSH1 0x1 PUSH1 0xA0 SHL SUB AND PUSH2 0x4F4B JUMP JUMPDEST SWAP4 PUSH1 0xC0 PUSH1 0x40 ADD MLOAD PUSH1 0x1 PUSH1 0x1 PUSH1 0xA0 SHL SUB AND PUSH2 0x1C3B SWAP1 PUSH2 0x4F4B JUMP JUMPDEST PUSH2 0x240 MLOAD PUSH2 0x120 MLOAD PUSH2 0x140 MLOAD PUSH2 0x1C0 MLOAD PUSH2 0x1E0 MLOAD PUSH2 0x220 MLOAD PUSH2 0x200 MLOAD SWAP5 SWAP12 DUP13 SWAP12 SWAP8 SWAP7 SWAP1 SWAP6 PUSH1 0x1 PUSH1 0x1 PUSH1 0xA0 SHL SUB SWAP1 SWAP2 AND SWAP4 PUSH1 0x2 SWAP1 DUP2 SIGNEXTEND SWAP4 SWAP3 DUP2 SIGNEXTEND SWAP3 DUP2 SIGNEXTEND SWAP2 PUSH2 0x1C84 SWAP2 SIGNEXTEND DUP3 DUP6 PUSH2 0x5051 JUMP JUMPDEST SWAP3 DUP6 PUSH1 0xC0 MLOAD SWAP6 PUSH1 0x40 MLOAD SWAP15 DUP16 SWAP2 PUSH2 0x1C99 DUP4 PUSH2 0x3E6C JUMP JUMPDEST DUP11 DUP4 MSTORE DUP12 PUSH1 0x20 DUP5 ADD MSTORE PUSH1 0x40 DUP4 ADD MSTORE PUSH1 0x60 DUP3 ADD MSTORE PUSH1 0x80 ADD MSTORE PUSH1 0xA0 DUP14 ADD MSTORE PUSH1 0xC0 DUP13 ADD MSTORE PUSH1 0xE0 DUP12 ADD MSTORE PUSH1 0x0 SIGNEXTEND PUSH2 0x100 DUP11 ADD MSTORE PUSH2 0x120 DUP10 ADD MSTORE PUSH1 0x40 MLOAD SWAP9 DUP10 SWAP4 PUSH1 0x20 DUP6 ADD PUSH32 0x3C7465787420746578742D72656E646572696E673D226F7074696D697A655370 SWAP1 MSTORE PUSH1 0x40 DUP6 ADD PUSH32 0x656564223E000000000000000000000000000000000000000000000000000000 SWAP1 MSTORE PUSH1 0x45 DUP6 ADD PUSH32 0x3C74657874506174682073746172744F66667365743D222D3130302522206669 SWAP1 MSTORE PUSH1 0x65 DUP6 ADD PUSH32 0x6C6C3D2277686974652220666F6E742D66616D696C793D2227436F7572696572 SWAP1 MSTORE PUSH1 0x85 DUP6 ADD PUSH32 0x204E6577272C206D6F6E6F73706163652220666F6E742D73697A653D22313070 SWAP1 MSTORE PUSH1 0xA5 DUP6 ADD PUSH32 0x782220786C696E6B3A687265663D2223746578742D706174682D61223E000000 SWAP1 MSTORE DUP1 MLOAD PUSH1 0xC2 DUP7 ADD DUP2 PUSH1 0x20 DUP5 ADD SWAP2 PUSH2 0x1DD3 SWAP3 PUSH2 0x3F92 JUMP JUMPDEST PUSH5 0x107140511 PUSH1 0xDD SHL PUSH1 0xC2 SWAP2 DUP8 ADD SWAP2 DUP3 ADD MSTORE DUP4 MLOAD PUSH2 0x1DF8 DUP2 PUSH1 0xC7 DUP5 ADD PUSH1 0x20 DUP9 ADD PUSH2 0x3F92 JUMP JUMPDEST PUSH32 0x203C616E696D6174652061646469746976653D2273756D222061747472696275 DUP2 DUP4 ADD PUSH1 0xC7 DUP2 ADD SWAP2 SWAP1 SWAP2 MSTORE PUSH32 0x74654E616D653D2273746172744F6666736574222066726F6D3D223025222074 PUSH1 0xE7 DUP3 ADD MSTORE PUSH32 0x6F3D22313030252220626567696E3D22307322206475723D2233307322207265 PUSH2 0x107 DUP3 ADD MSTORE PUSH32 0x70656174436F756E743D22696E646566696E69746522202F3E00000000000000 PUSH2 0x127 DUP3 ADD MSTORE PUSH32 0x3C2F74657874506174683E203C74657874506174682073746172744F66667365 PUSH2 0x140 DUP3 ADD MSTORE PUSH32 0x743D223025222066696C6C3D2277686974652220666F6E742D66616D696C793D PUSH2 0x160 DUP3 ADD MSTORE PUSH32 0x2227436F7572696572204E6577272C206D6F6E6F73706163652220666F6E742D PUSH2 0x180 DUP3 ADD MSTORE PUSH32 0x73697A653D22313070782220786C696E6B3A687265663D2223746578742D7061 PUSH2 0x1A0 DUP3 ADD MSTORE PUSH32 0x74682D61223E0000000000000000000000000000000000000000000000000000 PUSH2 0x1C0 DUP3 ADD MSTORE DUP4 MLOAD PUSH2 0x1C6 SWAP5 SWAP1 SWAP4 SWAP2 PUSH2 0x1F75 SWAP2 DUP6 SWAP2 DUP8 ADD SWAP1 PUSH1 0x20 ADD PUSH2 0x3F92 JUMP JUMPDEST ADD ADD SWAP1 DUP2 ADD PUSH5 0x107140511 PUSH1 0xDD SHL SWAP1 MSTORE DUP3 MLOAD SWAP1 PUSH2 0x1CB SWAP4 DUP3 DUP6 DUP4 ADD SWAP2 PUSH1 0x20 ADD SWAP2 PUSH2 0x1F9E SWAP3 PUSH2 0x3F92 JUMP JUMPDEST PUSH32 0x203C616E696D6174652061646469746976653D2273756D222061747472696275 SWAP2 ADD SWAP3 DUP4 ADD MSTORE PUSH32 0x74654E616D653D2273746172744F6666736574222066726F6D3D223025222074 PUSH2 0x1EB DUP4 ADD MSTORE PUSH32 0x6F3D22313030252220626567696E3D22307322206475723D2233307322207265 PUSH2 0x20B DUP4 ADD MSTORE PUSH32 0x70656174436F756E743D22696E646566696E69746522202F3E203C2F74657874 PUSH2 0x22B DUP4 ADD MSTORE PUSH32 0x506174683E000000000000000000000000000000000000000000000000000000 PUSH2 0x24B DUP4 ADD MSTORE PUSH32 0x3C74657874506174682073746172744F66667365743D22353025222066696C6C PUSH2 0x250 DUP4 ADD MSTORE PUSH32 0x3D2277686974652220666F6E742D66616D696C793D2227436F7572696572204E PUSH2 0x270 DUP4 ADD MSTORE PUSH32 0x6577272C206D6F6E6F73706163652220666F6E742D73697A653D223130707822 PUSH2 0x290 DUP4 ADD MSTORE PUSH32 0x20786C696E6B3A687265663D2223746578742D706174682D61223E0000000000 PUSH2 0x2B0 DUP4 ADD MSTORE DUP3 MLOAD PUSH1 0x20 DUP5 ADD SWAP3 PUSH2 0x2CB SWAP2 SWAP1 PUSH2 0x2116 DUP3 DUP5 DUP4 ADD DUP8 PUSH2 0x3F92 JUMP JUMPDEST ADD SWAP1 DUP2 ADD PUSH5 0x107140511 PUSH1 0xDD SHL SWAP1 MSTORE DUP2 MLOAD SWAP4 PUSH1 0x20 DUP4 ADD SWAP5 PUSH2 0x2D0 SWAP3 DUP2 DUP5 DUP3 ADD SWAP1 PUSH2 0x2140 SWAP2 DUP10 PUSH2 0x3F92 JUMP JUMPDEST PUSH32 0x203C616E696D6174652061646469746976653D2273756D222061747472696275 SWAP2 ADD SWAP3 DUP4 ADD MSTORE PUSH32 0x74654E616D653D2273746172744F6666736574222066726F6D3D223025222074 PUSH2 0x2F0 DUP4 ADD MSTORE PUSH32 0x6F3D22313030252220626567696E3D22307322206475723D2233307322000000 PUSH2 0x310 DUP4 ADD MSTORE PUSH32 0x20726570656174436F756E743D22696E646566696E69746522202F3E3C2F7465 PUSH2 0x32D DUP4 ADD MSTORE PUSH32 0x7874506174683E3C74657874506174682073746172744F66667365743D222D35 PUSH2 0x34D DUP4 ADD MSTORE PUSH32 0x3025222066696C6C3D2277686974652220666F6E742D66616D696C793D222743 PUSH2 0x36D DUP4 ADD MSTORE PUSH32 0x6F7572696572204E6577272C206D6F6E6F73706163652220666F6E742D73697A PUSH2 0x38D DUP4 ADD MSTORE PUSH32 0x653D22313070782220786C696E6B3A687265663D2223746578742D706174682D PUSH2 0x3AD DUP4 ADD MSTORE PUSH32 0x61223E0000000000000000000000000000000000000000000000000000000000 PUSH2 0x3CD DUP4 ADD MSTORE MLOAD PUSH2 0x3D0 SWAP4 SWAP1 SWAP2 SWAP1 PUSH2 0x22B6 SWAP1 DUP4 SWAP1 DUP7 DUP5 ADD SWAP1 PUSH2 0x3F92 JUMP JUMPDEST ADD SWAP2 DUP3 ADD PUSH5 0x107140511 PUSH1 0xDD SHL SWAP1 MSTORE MLOAD SWAP1 PUSH2 0x3D5 SWAP3 DUP3 DUP5 DUP4 ADD PUSH2 0x22D8 SWAP3 PUSH2 0x3F92 JUMP JUMPDEST PUSH32 0x203C616E696D6174652061646469746976653D2273756D222061747472696275 SWAP2 ADD SWAP2 DUP3 ADD MSTORE PUSH32 0x74654E616D653D2273746172744F6666736574222066726F6D3D223025222074 PUSH2 0x3F5 DUP3 ADD MSTORE PUSH32 0x6F3D22313030252220626567696E3D22307322206475723D2233307322207265 PUSH2 0x415 DUP3 ADD MSTORE PUSH32 0x70656174436F756E743D22696E646566696E69746522202F3E3C2F7465787450 PUSH2 0x435 DUP3 ADD MSTORE PUSH32 0x6174683E3C2F746578743E000000000000000000000000000000000000000000 PUSH2 0x455 DUP3 ADD MSTORE SUB PUSH2 0x440 DUP2 ADD DUP8 MSTORE PUSH2 0x23B1 SWAP1 PUSH2 0x460 ADD DUP8 PUSH2 0x3EDD JUMP JUMPDEST PUSH1 0x60 DUP6 ADD MLOAD SWAP4 PUSH1 0x80 DUP7 ADD MLOAD SWAP5 PUSH1 0x40 MLOAD SWAP6 DUP7 SWAP2 PUSH1 0x20 DUP4 ADD PUSH32 0x3C67206D61736B3D2275726C2823666164652D73796D626F6C29223E3C726563 SWAP1 MSTORE PUSH1 0x40 DUP4 ADD PUSH32 0x742066696C6C3D226E6F6E652220783D223070782220793D2230707822207769 SWAP1 MSTORE PUSH1 0x60 DUP4 ADD PUSH32 0x6474683D22323930707822206865696768743D22323030707822202F3E203C74 SWAP1 MSTORE PUSH1 0x80 DUP4 ADD PUSH32 0x65787420793D22373070782220783D2233327078222066696C6C3D2277686974 SWAP1 MSTORE PUSH1 0xA0 DUP4 ADD PUSH32 0x652220666F6E742D66616D696C793D2227436F7572696572204E6577272C206D SWAP1 MSTORE PUSH1 0xC0 DUP4 ADD PUSH32 0x6F6E6F73706163652220666F6E742D7765696768743D223230302220666F6E74 SWAP1 MSTORE PUSH1 0xE0 DUP4 ADD PUSH32 0x2D73697A653D2233367078223E00000000000000000000000000000000000000 SWAP1 MSTORE DUP1 MLOAD SWAP1 DUP2 PUSH1 0xED DUP6 ADD SWAP2 PUSH1 0x20 ADD SWAP2 PUSH2 0x24EA SWAP3 PUSH2 0x3F92 JUMP JUMPDEST DUP3 ADD PUSH1 0xED DUP2 ADD PUSH1 0x2F PUSH1 0xF8 SHL SWAP1 MSTORE DUP2 MLOAD SWAP2 DUP3 PUSH1 0xEE DUP4 ADD SWAP2 PUSH1 0x20 ADD SWAP2 PUSH2 0x250D SWAP3 PUSH2 0x3F92 JUMP JUMPDEST ADD PUSH1 0xEE DUP2 ADD PUSH11 0x1E17BA32BC3A1F1E17B39F PUSH1 0xA9 SHL SWAP1 MSTORE PUSH1 0xF9 DUP2 ADD PUSH32 0x3C7265637420783D2231362220793D223136222077696474683D223235382220 SWAP1 MSTORE PUSH2 0x119 DUP2 ADD PUSH32 0x6865696768743D22343638222072783D223236222072793D223236222066696C SWAP1 MSTORE PUSH2 0x139 DUP2 ADD PUSH32 0x6C3D227267626128302C302C302C302922207374726F6B653D22726762612832 SWAP1 MSTORE PUSH2 0x159 DUP2 ADD PUSH32 0x35352C3235352C3235352C302E322922202F3E00000000000000000000000000 SWAP1 MSTORE SUB PUSH2 0x14C DUP2 ADD DUP7 MSTORE PUSH2 0x16C ADD PUSH2 0x25D8 SWAP1 DUP7 PUSH2 0x3EDD JUMP JUMPDEST PUSH1 0xA0 DUP7 ADD MLOAD PUSH1 0x2 SIGNEXTEND SWAP6 PUSH1 0xC0 DUP2 ADD MLOAD PUSH1 0x2 SIGNEXTEND PUSH1 0xE0 DUP3 ADD MLOAD PUSH1 0x2 SIGNEXTEND SWAP8 PUSH2 0x100 DUP4 ADD MLOAD PUSH1 0x0 SIGNEXTEND SWAP9 PUSH1 0x1 DUP11 EQ PUSH1 0x0 EQ PUSH2 0x3DCD JUMPI PUSH1 0x40 MLOAD PUSH2 0x2613 DUP2 PUSH2 0x3E89 JUMP JUMPDEST PUSH1 0x8 DUP2 MSTORE PUSH32 0x23666164652D7570000000000000000000000000000000000000000000000000 PUSH1 0x20 DUP3 ADD MSTORE SWAP2 JUMPDEST PUSH3 0x7FFFFF DUP2 DUP6 SUB SGT PUSH3 0x7FFFFF NOT DUP3 DUP7 SUB SLT OR PUSH2 0x3A7F JUMPI DUP2 ISZERO PUSH2 0x3A69 JUMPI DUP1 DUP5 SUB PUSH1 0x2 SIGNEXTEND PUSH3 0x7FFFFF NOT EQ PUSH1 0x0 NOT DUP4 EQ AND PUSH2 0x3A7F JUMPI PUSH2 0x2C79 SWAP4 SUB PUSH1 0x2 SIGNEXTEND SDIV PUSH1 0x2 SIGNEXTEND PUSH1 0x4 DUP2 SGT ISZERO PUSH1 0x0 EQ PUSH2 0x3BF4 JUMPI POP PUSH1 0x40 MLOAD PUSH2 0x2696 DUP2 PUSH2 0x3E89 JUMP JUMPDEST PUSH1 0x1A DUP2 MSTORE PUSH32 0x4D31203143343120343120313035203130352031343520313435000000000000 PUSH1 0x20 DUP3 ADD MSTORE SWAP9 JUMPDEST PUSH1 0x40 MLOAD PUSH2 0x26CE DUP2 PUSH2 0x3E89 JUMP JUMPDEST PUSH1 0x2 DUP2 MSTORE PUSH1 0x20 DUP2 ADD PUSH32 0x3733000000000000000000000000000000000000000000000000000000000000 DUP2 MSTORE PUSH1 0x40 MLOAD PUSH2 0x2705 DUP2 PUSH2 0x3E89 JUMP JUMPDEST PUSH1 0x3 DUP2 MSTORE PUSH1 0x20 DUP2 ADD SWAP4 PUSH32 0x3139300000000000000000000000000000000000000000000000000000000000 DUP6 MSTORE PUSH1 0x40 MLOAD SWAP3 PUSH2 0x273E DUP5 PUSH2 0x3E89 JUMP JUMPDEST PUSH1 0x3 DUP5 MSTORE PUSH1 0x20 DUP5 ADD SWAP6 PUSH32 0x3231370000000000000000000000000000000000000000000000000000000000 DUP8 MSTORE PUSH1 0x40 MLOAD SWAP7 PUSH2 0x2777 DUP9 PUSH2 0x3E89 JUMP JUMPDEST PUSH1 0x3 DUP9 MSTORE PUSH1 0x20 DUP9 ADD SWAP2 PUSH32 0x3333340000000000000000000000000000000000000000000000000000000000 DUP4 MSTORE PUSH1 0x1 DUP6 EQ PUSH1 0x1 DUP7 SUB PUSH2 0x3BE9 JUMPI JUMPDEST ISZERO PUSH2 0x3B15 JUMPI POP POP POP POP SWAP2 PUSH2 0x2908 SWAP4 SWAP2 PUSH1 0x8D SWAP4 PUSH1 0x0 NOT EQ SWAP6 DUP7 PUSH1 0x0 EQ PUSH2 0x3B0E JUMPI DUP4 JUMPDEST DUP8 ISZERO PUSH2 0x3B07 JUMPI DUP3 SWAP4 JUMPDEST DUP9 ISZERO PUSH2 0x3AFF JUMPI POP SWAP7 JUMPDEST ISZERO PUSH2 0x3AF7 JUMPI POP SWAP1 JUMPDEST PUSH1 0x40 MLOAD SWAP6 DUP7 SWAP4 PUSH12 0x1E31B4B931B6329031BC1E91 PUSH1 0xA1 SHL PUSH1 0x20 DUP7 ADD MSTORE PUSH2 0x281A DUP2 MLOAD DUP1 SWAP3 PUSH1 0x20 PUSH1 0x2C DUP10 ADD SWAP2 ADD PUSH2 0x3F92 JUMP JUMPDEST DUP5 ADD SWAP2 PUSH8 0x383C111031BC9E91 PUSH1 0xC1 SHL SWAP3 DUP4 PUSH1 0x2C DUP3 ADD MSTORE PUSH2 0x2844 DUP3 MLOAD DUP1 SWAP4 PUSH1 0x20 PUSH1 0x34 DUP6 ADD SWAP2 ADD PUSH2 0x3F92 JUMP JUMPDEST ADD PUSH32 0x70782220723D22347078222066696C6C3D22776869746522202F3E3C63697263 PUSH1 0x34 DUP3 ADD MSTORE PUSH32 0x6C652063783D2200000000000000000000000000000000000000000000000000 PUSH1 0x54 DUP3 ADD MSTORE PUSH2 0x28A5 DUP3 MLOAD DUP1 SWAP4 PUSH1 0x20 PUSH1 0x5B DUP6 ADD SWAP2 ADD PUSH2 0x3F92 JUMP JUMPDEST ADD SWAP1 PUSH1 0x5B DUP3 ADD MSTORE PUSH2 0x28C0 DUP3 MLOAD DUP1 SWAP4 PUSH1 0x20 PUSH1 0x63 DUP6 ADD SWAP2 ADD PUSH2 0x3F92 JUMP JUMPDEST ADD PUSH32 0x70782220723D2232347078222066696C6C3D226E6F6E6522207374726F6B653D PUSH1 0x63 DUP3 ADD MSTORE PUSH10 0x113BB434BA329110179F PUSH1 0xB1 SHL PUSH1 0x83 DUP3 ADD MSTORE SUB PUSH1 0x6D DUP2 ADD DUP5 MSTORE ADD DUP3 PUSH2 0x3EDD JUMP JUMPDEST SWAP1 JUMPDEST PUSH1 0x40 MLOAD SWAP10 DUP11 SWAP2 PUSH32 0x3C67206D61736B3D2275726C2800000000000000000000000000000000000000 PUSH1 0x20 DUP5 ADD MSTORE DUP1 MLOAD PUSH2 0x2949 DUP2 PUSH1 0x2D DUP7 ADD PUSH1 0x20 DUP6 ADD PUSH2 0x3F92 JUMP JUMPDEST PUSH2 0x1491 PUSH1 0xF1 SHL DUP5 DUP3 ADD PUSH1 0x2D DUP2 ADD SWAP2 SWAP1 SWAP2 MSTORE PUSH32 0x207374796C653D227472616E73666F726D3A7472616E736C6174652837327078 PUSH1 0x2F DUP3 ADD MSTORE PUSH32 0x2C313839707829223E3C7265637420783D222D313670782220793D222D313670 PUSH1 0x4F DUP3 ADD MSTORE PUSH32 0x78222077696474683D22313830707822206865696768743D2231383070782220 PUSH1 0x6F DUP3 ADD MSTORE PUSH32 0x66696C6C3D226E6F6E6522202F3E3C7061746820643D22000000000000000000 PUSH1 0x8F DUP3 ADD MSTORE DUP4 MLOAD SWAP2 SWAP1 PUSH2 0x2A08 SWAP1 DUP4 SWAP1 PUSH1 0xA6 ADD PUSH1 0x20 DUP8 ADD PUSH2 0x3F92 JUMP JUMPDEST PUSH32 0x22207374726F6B653D227267626128302C302C302C302E332922207374726F6B DUP6 DUP3 ADD DUP4 ADD PUSH1 0xA6 DUP2 ADD SWAP2 SWAP1 SWAP2 MSTORE PUSH32 0x652D77696474683D2233327078222066696C6C3D226E6F6E6522207374726F6B PUSH1 0xC6 DUP3 ADD MSTORE PUSH32 0x652D6C696E656361703D22726F756E6422202F3E000000000000000000000000 PUSH1 0xE6 DUP3 ADD MSTORE PUSH32 0x3C2F673E3C67206D61736B3D2275726C28000000000000000000000000000000 PUSH1 0xFA DUP3 ADD MSTORE DUP4 MLOAD SWAP4 PUSH2 0x2AC0 SWAP2 DUP6 SWAP2 PUSH2 0x10B SWAP1 SWAP2 ADD SWAP1 PUSH1 0x20 ADD PUSH2 0x3F92 JUMP JUMPDEST PUSH2 0x1491 PUSH1 0xF1 SHL DUP6 DUP3 ADD DUP4 ADD DUP5 ADD PUSH2 0x10B DUP2 ADD SWAP2 SWAP1 SWAP2 MSTORE PUSH32 0x207374796C653D227472616E73666F726D3A7472616E736C6174652837327078 PUSH2 0x10D DUP3 ADD MSTORE PUSH32 0x2C313839707829223E0000000000000000000000000000000000000000000000 PUSH2 0x12D DUP3 ADD MSTORE PUSH32 0x3C7265637420783D222D313670782220793D222D31367078222077696474683D PUSH2 0x136 DUP3 ADD MSTORE PUSH32 0x22313830707822206865696768743D223138307078222066696C6C3D226E6F6E PUSH2 0x156 DUP3 ADD MSTORE PUSH32 0x6522202F3E000000000000000000000000000000000000000000000000000000 PUSH2 0x176 DUP3 ADD MSTORE PUSH32 0x3C7061746820643D220000000000000000000000000000000000000000000000 PUSH2 0x17B DUP3 ADD MSTORE DUP5 MLOAD SWAP5 PUSH2 0x2BD8 SWAP2 DUP7 SWAP2 PUSH2 0x184 SWAP1 SWAP2 ADD SWAP1 PUSH1 0x20 ADD PUSH2 0x3F92 JUMP JUMPDEST DUP5 ADD ADD ADD ADD PUSH32 0x22207374726F6B653D2272676261283235352C3235352C3235352C3129222066 PUSH2 0x184 DUP3 ADD MSTORE PUSH32 0x696C6C3D226E6F6E6522207374726F6B652D6C696E656361703D22726F756E64 PUSH2 0x1A4 DUP3 ADD MSTORE PUSH32 0x22202F3E3C2F673E000000000000000000000000000000000000000000000000 PUSH2 0x1C4 DUP3 ADD MSTORE DUP3 MLOAD SWAP1 PUSH2 0x2C69 DUP3 PUSH2 0x1CC SWAP6 PUSH1 0x20 DUP8 DUP6 ADD SWAP2 ADD PUSH2 0x3F92 JUMP JUMPDEST ADD SUB PUSH2 0x1AC DUP2 ADD DUP11 MSTORE ADD DUP9 PUSH2 0x3EDD JUMP JUMPDEST PUSH2 0x2C87 PUSH2 0x120 DUP3 ADD MLOAD PUSH2 0x417E JUMP JUMPDEST PUSH1 0xA0 DUP3 ADD MLOAD PUSH1 0x2 SIGNEXTEND SWAP1 PUSH1 0xC0 DUP4 ADD MLOAD PUSH1 0x2 SIGNEXTEND SWAP1 PUSH2 0x2CA2 DUP4 PUSH2 0x512D JUMP JUMPDEST PUSH2 0x2CAB DUP4 PUSH2 0x512D JUMP JUMPDEST SWAP3 DUP3 MLOAD SWAP1 PUSH1 0x4 DUP3 ADD DUP3 GT PUSH2 0x3A7F JUMPI DUP3 MLOAD SWAP5 PUSH1 0xA DUP7 ADD DUP7 GT PUSH2 0x3A7F JUMPI DUP1 MLOAD SWAP7 DUP8 PUSH1 0x80 MSTORE PUSH1 0xA DUP9 ADD DUP9 GT PUSH2 0x3A7F JUMPI PUSH1 0x4 SWAP3 PUSH2 0x2CE3 SWAP2 PUSH2 0x52B0 JUMP JUMPDEST SWAP6 SWAP1 SWAP4 PUSH1 0x8 DUP2 ADD SWAP4 DUP5 SWAP2 ADD GT PUSH2 0x3A7F JUMPI DUP3 PUSH1 0x7 MUL SWAP3 PUSH1 0x7 DUP5 DIV SUB PUSH2 0x3A7F JUMPI PUSH2 0x2D0C PUSH1 0xA SWAP4 PUSH2 0x417E JUMP JUMPDEST SWAP7 PUSH1 0xE DUP2 ADD SWAP4 DUP5 SWAP2 ADD GT PUSH2 0x3A7F JUMPI PUSH1 0x7 DUP4 DUP2 MUL DIV DUP4 SUB PUSH2 0x3A7F JUMPI PUSH2 0x2D34 PUSH1 0xA SWAP4 PUSH1 0x7 MUL PUSH2 0x417E JUMP JUMPDEST SWAP8 PUSH1 0xE PUSH1 0x80 MLOAD ADD SWAP4 DUP5 SWAP2 ADD GT PUSH2 0x3A7F JUMPI PUSH1 0x7 DUP4 DUP2 MUL DIV DUP4 SUB PUSH2 0x3A7F JUMPI PUSH2 0x331F SWAP8 PUSH1 0x40 PUSH1 0x20 PUSH2 0x30CC PUSH1 0xD8 PUSH32 0x70782C2030707829222063783D22307078222063793D223070782220723D2234 SWAP10 DUP4 PUSH2 0x1EE SWAP14 PUSH2 0x2DB1 PUSH32 0x70782C2000000000000000000000000000000000000000000000000000000000 SWAP12 PUSH1 0x7 MUL PUSH2 0x417E JUMP JUMPDEST SWAP3 DUP8 MLOAD DUP1 PUSH1 0xA0 MSTORE PUSH32 0x203C67207374796C653D227472616E73666F726D3A7472616E736C6174652832 SWAP4 DUP5 SWAP2 ADD MSTORE PUSH32 0x3970782C20333834707829223E00000000000000000000000000000000000000 DUP9 PUSH1 0xA0 MLOAD ADD MSTORE PUSH2 0x3024 PUSH1 0xD2 PUSH2 0x2EA2 PUSH1 0x5A PUSH32 0x3C726563742077696474683D2200000000000000000000000000000000000000 SWAP6 DUP7 PUSH1 0x4D PUSH1 0xA0 MLOAD ADD MSTORE PUSH2 0x2E4D DUP2 MLOAD DUP1 SWAP3 DUP15 DUP6 PUSH1 0xA0 MLOAD ADD SWAP2 ADD PUSH2 0x3F92 JUMP JUMPDEST PUSH1 0xA0 MLOAD ADD ADD PUSH1 0x3D SWAP1 PUSH32 0x707822206865696768743D2232367078222072783D22387078222072793D2238 DUP2 MSTORE PUSH32 0x7078222066696C6C3D227267626128302C302C302C302E362922202F3E000000 PUSH1 0x20 DUP3 ADD MSTORE ADD SWAP1 JUMP JUMPDEST SWAP11 PUSH32 0x3C7465787420783D22313270782220793D22313770782220666F6E742D66616D SWAP13 DUP14 DUP14 MSTORE DUP13 PUSH32 0x696C793D2227436F7572696572204E6577272C206D6F6E6F7370616365222066 SWAP12 DUP13 SWAP2 ADD MSTORE DUP13 PUSH32 0x6F6E742D73697A653D2231327078222066696C6C3D227768697465223E3C7473 SWAP13 DUP14 SWAP2 ADD MSTORE PUSH32 0x70616E2066696C6C3D2272676261283235352C3235352C3235352C302E362922 SWAP13 DUP14 PUSH1 0x60 DUP3 ADD MSTORE PUSH32 0x3E49443A203C2F747370616E3E00000000000000000000000000000000000000 PUSH1 0x80 DUP3 ADD MSTORE PUSH2 0x2F78 DUP3 MLOAD DUP1 SWAP4 PUSH1 0x20 PUSH1 0x8D DUP6 ADD SWAP2 ADD PUSH2 0x3F92 JUMP JUMPDEST ADD PUSH11 0x1E17BA32BC3A1F1E17B39F PUSH1 0xA9 SHL PUSH1 0x8D DUP3 ADD MSTORE DUP7 PUSH1 0x98 DUP3 ADD MSTORE PUSH32 0x3970782C20343134707829223E00000000000000000000000000000000000000 PUSH1 0xB8 DUP3 ADD MSTORE DUP6 PUSH1 0xC5 DUP3 ADD MSTORE PUSH2 0x2FD2 DUP3 MLOAD DUP1 SWAP4 PUSH1 0x20 DUP7 DUP6 ADD SWAP2 ADD PUSH2 0x3F92 JUMP JUMPDEST ADD ADD PUSH1 0x3D SWAP1 PUSH32 0x707822206865696768743D2232367078222072783D22387078222072793D2238 DUP2 MSTORE PUSH32 0x7078222066696C6C3D227267626128302C302C302C302E362922202F3E000000 PUSH1 0x20 DUP3 ADD MSTORE ADD SWAP1 JUMP JUMPDEST DUP11 DUP2 MSTORE DUP8 PUSH1 0x20 DUP3 ADD MSTORE DUP9 PUSH1 0x40 DUP3 ADD MSTORE DUP10 PUSH1 0x60 DUP3 ADD MSTORE PUSH32 0x3E4D696E205469636B3A203C2F747370616E3E00000000000000000000000000 PUSH1 0x80 DUP3 ADD MSTORE PUSH2 0x3073 DUP3 MLOAD DUP1 SWAP4 PUSH1 0x20 PUSH1 0x93 DUP6 ADD SWAP2 ADD PUSH2 0x3F92 JUMP JUMPDEST ADD SWAP2 PUSH11 0x1E17BA32BC3A1F1E17B39F PUSH1 0xA9 SHL PUSH1 0x93 DUP5 ADD MSTORE PUSH1 0x9E DUP4 ADD MSTORE PUSH32 0x3970782C20343434707829223E00000000000000000000000000000000000000 PUSH1 0xBE DUP4 ADD MSTORE PUSH1 0xCB DUP3 ADD MSTORE PUSH2 0x2FD2 DUP3 MLOAD DUP1 SWAP4 PUSH1 0x20 DUP7 DUP6 ADD SWAP2 ADD PUSH2 0x3F92 JUMP JUMPDEST SWAP4 DUP5 MSTORE PUSH1 0x20 DUP5 ADD MSTORE PUSH1 0x40 DUP4 ADD MSTORE PUSH1 0x60 DUP3 ADD MSTORE PUSH32 0x3E4D6178205469636B3A203C2F747370616E3E00000000000000000000000000 PUSH1 0x80 DUP3 ADD MSTORE PUSH2 0x3118 DUP3 MLOAD DUP1 SWAP4 PUSH1 0x20 PUSH1 0x93 DUP6 ADD SWAP2 ADD PUSH2 0x3F92 JUMP JUMPDEST ADD PUSH32 0x3C2F746578743E3C2F673E3C67207374796C653D227472616E73666F726D3A74 PUSH1 0x93 DUP3 ADD MSTORE PUSH32 0x72616E736C6174652832323670782C20343333707829223E0000000000000000 PUSH1 0xB3 DUP3 ADD MSTORE PUSH32 0x3C726563742077696474683D223336707822206865696768743D223336707822 PUSH1 0xCB DUP3 ADD MSTORE PUSH32 0x2072783D22387078222072793D22387078222066696C6C3D226E6F6E65222073 PUSH1 0xEB DUP3 ADD MSTORE PUSH32 0x74726F6B653D2272676261283235352C3235352C3235352C302E322922202F3E PUSH2 0x10B DUP3 ADD MSTORE PUSH32 0x3C70617468207374726F6B652D6C696E656361703D22726F756E642220643D22 PUSH2 0x12B DUP3 ADD MSTORE PUSH32 0x4D38203943382E30303030342032322E393439342031362E3230393920323820 PUSH2 0x14B DUP3 ADD MSTORE PUSH32 0x3237203238222066696C6C3D226E6F6E6522207374726F6B653D227768697465 PUSH2 0x16B DUP3 ADD MSTORE PUSH4 0x1110179F PUSH1 0xE1 SHL PUSH2 0x18B DUP3 ADD MSTORE PUSH32 0x3C636972636C65207374796C653D227472616E73666F726D3A7472616E736C61 PUSH2 0x18F DUP3 ADD MSTORE PUSH32 0x7465336428000000000000000000000000000000000000000000000000000000 PUSH2 0x1AF DUP3 ADD MSTORE DUP3 MLOAD SWAP1 PUSH2 0x32C0 DUP3 PUSH2 0x1B4 SWAP6 PUSH1 0x20 DUP8 DUP6 ADD SWAP2 ADD PUSH2 0x3F92 JUMP JUMPDEST ADD SWAP2 DUP3 ADD MSTORE DUP3 MLOAD SWAP1 PUSH2 0x32DC DUP3 PUSH2 0x1B8 SWAP6 PUSH1 0x20 DUP8 DUP6 ADD SWAP2 ADD PUSH2 0x3F92 JUMP JUMPDEST ADD SWAP2 DUP3 ADD MSTORE PUSH32 0x7078222066696C6C3D227768697465222F3E3C2F673E00000000000000000000 PUSH2 0x1D8 DUP3 ADD MSTORE PUSH1 0xA0 MLOAD DUP1 SWAP2 SUB SWAP1 PUSH2 0x1CE DUP3 ADD SWAP1 MSTORE ADD PUSH1 0xA0 MLOAD PUSH2 0x3EDD JUMP JUMPDEST PUSH1 0x40 PUSH2 0x120 DUP3 ADD MLOAD SWAP2 ADD MLOAD PUSH1 0x40 MLOAD PUSH1 0x20 DUP2 ADD SWAP2 DUP4 DUP4 MSTORE PUSH12 0xFFFFFFFFFFFFFFFFFFFFFFFF NOT SWAP1 PUSH1 0x60 SHL AND PUSH1 0x40 DUP3 ADD MSTORE PUSH1 0x34 DUP2 MSTORE PUSH2 0x335A DUP2 PUSH2 0x3EA5 JUMP JUMPDEST MLOAD SWAP1 KECCAK256 SWAP1 DUP1 PUSH1 0x0 SWAP2 PUSH1 0x80 SHR DUP1 PUSH2 0x3AEB JUMPI JUMPDEST POP DUP1 PUSH1 0x40 SHR DUP1 PUSH2 0x3ADE JUMPI JUMPDEST POP DUP1 PUSH1 0x20 SHR DUP1 PUSH2 0x3AD1 JUMPI JUMPDEST POP DUP1 PUSH1 0x10 SHR DUP1 PUSH2 0x3AC4 JUMPI JUMPDEST POP DUP1 PUSH1 0x8 SHR DUP1 PUSH2 0x3AB7 JUMPI JUMPDEST POP DUP1 PUSH1 0x4 SHR DUP1 PUSH2 0x3AAA JUMPI JUMPDEST POP DUP1 PUSH1 0x2 SHR DUP1 PUSH2 0x3A9D JUMPI JUMPDEST POP PUSH1 0x1 SHR PUSH2 0x3A95 JUMPI JUMPDEST DUP1 PUSH1 0x1 SHL SWAP1 DUP1 DUP3 DIV PUSH1 0x2 EQ SWAP1 ISZERO OR ISZERO PUSH2 0x3A7F JUMPI DUP1 PUSH1 0x1 ADD PUSH1 0x1 GT PUSH2 0x3A7F JUMPI DUP1 PUSH1 0x1 ADD ISZERO PUSH2 0x3A69 JUMPI PUSH1 0x1 ADD PUSH1 0x0 NOT DIV GT ISZERO PUSH2 0x3A32 JUMPI PUSH1 0x40 MLOAD SWAP3 PUSH32 0x3C67207374796C653D227472616E73666F726D3A7472616E736C617465283232 PUSH1 0x20 DUP6 ADD MSTORE PUSH32 0x3670782C20333932707829223E3C726563742077696474683D22333670782220 PUSH1 0x40 DUP6 ADD MSTORE PUSH32 0x6865696768743D2233367078222072783D22387078222072793D223870782220 PUSH1 0x60 DUP6 ADD MSTORE PUSH32 0x66696C6C3D226E6F6E6522207374726F6B653D2272676261283235352C323535 PUSH1 0x80 DUP6 ADD MSTORE PUSH32 0x2C3235352C302E322922202F3E00000000000000000000000000000000000000 PUSH1 0xA0 DUP6 ADD MSTORE PUSH32 0x3C673E3C70617468207374796C653D227472616E73666F726D3A7472616E736C PUSH1 0xAD DUP6 ADD MSTORE PUSH32 0x617465283670782C367078292220643D224D313220304C31322E363532322039 PUSH1 0xCD DUP6 ADD MSTORE PUSH32 0x2E35363538374C313820312E363037374C31332E373831392031302E32313831 PUSH1 0xED DUP6 ADD MSTORE PUSH32 0x4C32322E3339323320364C31342E343334312000000000000000000000000000 PUSH2 0x10D DUP6 ADD MSTORE PUSH32 0x31312E333437384C32342031324C31342E343334312031322E363532324C3232 PUSH2 0x120 DUP6 ADD MSTORE PUSH32 0x2E333932332031384C31332E373831392031332E373831394C31382032322E33 PUSH2 0x140 DUP6 ADD MSTORE PUSH32 0x3932334C31322E363532322031342E343334314C31322032344C31312E333437 PUSH2 0x160 DUP6 ADD MSTORE PUSH32 0x382031342E343334314C362032322E3339000000000000000000000000000000 PUSH2 0x180 DUP6 ADD MSTORE PUSH32 0x32334C31302E323138312031332E373831394C312E363037372031384C392E35 PUSH2 0x191 DUP6 ADD MSTORE PUSH32 0x363538372031322E363532324C302031324C392E35363538372031312E333437 PUSH2 0x1B1 DUP6 ADD MSTORE PUSH32 0x384C312E3630373720364C31302E323138312031302E323138314C3620312E36 PUSH2 0x1D1 DUP6 ADD MSTORE PUSH32 0x3037374C31312E3334373820392E35363538374C313220305A222066696C6C3D PUSH2 0x1F1 DUP6 ADD MSTORE PUSH10 0x113BB434BA329110179F PUSH1 0xB1 SHL PUSH2 0x211 DUP6 ADD MSTORE PUSH32 0x3C616E696D6174655472616E73666F726D206174747269627574654E616D653D PUSH2 0x21B DUP6 ADD MSTORE PUSH32 0x227472616E73666F726D2220747970653D22726F74617465222066726F6D3D22 PUSH2 0x23B DUP6 ADD MSTORE PUSH32 0x302031382031382220746F3D2233363020313820313822206475723D22313073 PUSH2 0x25B DUP6 ADD MSTORE PUSH32 0x2220726570656174436F756E743D22696E646566696E697465222F3E3C2F673E PUSH2 0x27B DUP6 ADD MSTORE PUSH32 0x3C2F673E00000000000000000000000000000000000000000000000000000000 PUSH2 0x29B DUP6 ADD MSTORE PUSH2 0x27F DUP5 MSTORE DUP4 PUSH2 0x2A0 DUP2 ADD LT PUSH8 0xFFFFFFFFFFFFFFFF PUSH2 0x2A0 DUP7 ADD GT OR PUSH2 0x3A1C JUMPI PUSH2 0x3878 PUSH2 0x383E PUSH2 0x3873 PUSH1 0x26 PUSH1 0x64 SWAP7 PUSH2 0x3A0E SWAP13 PUSH1 0x40 SWAP13 PUSH2 0x3816 PUSH1 0x20 PUSH2 0x399F SWAP15 DUP14 PUSH2 0x2A0 PUSH2 0x3873 SWAP16 ADD PUSH1 0x40 MSTORE JUMPDEST PUSH1 0x40 MLOAD SWAP5 DUP6 SWAP3 DUP5 PUSH2 0x37B9 DUP2 DUP7 ADD SWAP10 DUP11 DUP2 MLOAD SWAP4 DUP5 SWAP3 ADD PUSH2 0x3F92 JUMP JUMPDEST DUP5 ADD PUSH2 0x37CD DUP3 MLOAD DUP1 SWAP4 DUP9 DUP1 DUP6 ADD SWAP2 ADD PUSH2 0x3F92 JUMP JUMPDEST ADD PUSH2 0x37E0 DUP3 MLOAD DUP1 SWAP4 DUP8 DUP1 DUP6 ADD SWAP2 ADD PUSH2 0x3F92 JUMP JUMPDEST ADD PUSH1 0xA0 MLOAD SWAP1 PUSH2 0x37F7 DUP3 MLOAD DUP1 SWAP4 DUP8 DUP1 DUP6 ADD SWAP2 ADD PUSH2 0x3F92 JUMP JUMPDEST ADD PUSH2 0x380A DUP3 MLOAD DUP1 SWAP4 DUP7 DUP1 DUP6 ADD SWAP2 ADD PUSH2 0x3F92 JUMP JUMPDEST ADD SUB DUP1 DUP5 MSTORE ADD DUP3 PUSH2 0x3EDD JUMP JUMPDEST DUP14 MLOAD SWAP6 DUP4 PUSH2 0x382E DUP9 SWAP6 MLOAD DUP1 SWAP3 PUSH1 0x20 DUP1 DUP10 ADD SWAP2 ADD PUSH2 0x3F92 JUMP JUMPDEST DUP5 ADD SWAP2 MLOAD DUP1 SWAP4 PUSH1 0x20 DUP5 ADD SWAP1 PUSH2 0x3F92 JUMP JUMPDEST ADD PUSH32 0x3C2F7376673E0000000000000000000000000000000000000000000000000000 PUSH1 0x20 DUP3 ADD MSTORE SUB PUSH1 0x6 DUP2 ADD DUP5 MSTORE ADD DUP3 PUSH2 0x3EDD JUMP JUMPDEST PUSH2 0x4020 JUMP JUMPDEST SWAP1 DUP8 MLOAD SWAP6 DUP7 SWAP4 PUSH32 0x7B226E616D65223A220000000000000000000000000000000000000000000000 PUSH1 0x20 DUP7 ADD MSTORE PUSH2 0x38B8 DUP2 MLOAD DUP1 SWAP3 PUSH1 0x20 PUSH1 0x29 DUP10 ADD SWAP2 ADD PUSH2 0x3F92 JUMP JUMPDEST DUP5 ADD PUSH32 0x222C20226465736372697074696F6E223A220000000000000000000000000000 PUSH1 0x29 DUP3 ADD MSTORE PUSH2 0x38F4 DUP3 MLOAD DUP1 SWAP4 PUSH1 0x20 PUSH1 0x3B DUP6 ADD SWAP2 ADD PUSH2 0x3F92 JUMP JUMPDEST ADD PUSH2 0x3909 DUP3 MLOAD DUP1 SWAP4 PUSH1 0x20 PUSH1 0x3B DUP6 ADD SWAP2 ADD PUSH2 0x3F92 JUMP JUMPDEST ADD PUSH32 0x222C2022696D616765223A202200000000000000000000000000000000000000 PUSH1 0x3B DUP3 ADD MSTORE PUSH32 0x646174613A696D6167652F7376672B786D6C3B6261736536342C000000000000 PUSH1 0x48 DUP3 ADD MSTORE PUSH2 0x396A DUP3 MLOAD DUP1 SWAP4 PUSH1 0x20 PUSH1 0x62 DUP6 ADD SWAP2 ADD PUSH2 0x3F92 JUMP JUMPDEST ADD PUSH32 0x227D000000000000000000000000000000000000000000000000000000000000 PUSH1 0x62 DUP3 ADD MSTORE SUB PUSH1 0x44 DUP2 ADD DUP5 MSTORE ADD DUP3 PUSH2 0x3EDD JUMP JUMPDEST DUP2 MLOAD SWAP1 PUSH2 0x39F3 PUSH1 0x3D DUP4 PUSH1 0x20 DUP2 ADD SWAP4 PUSH32 0x646174613A6170706C69636174696F6E2F6A736F6E3B6261736536342C000000 DUP6 MSTORE PUSH2 0x39E3 DUP2 MLOAD DUP1 SWAP3 PUSH1 0x20 DUP7 DUP7 ADD SWAP2 ADD PUSH2 0x3F92 JUMP JUMPDEST DUP2 ADD SUB PUSH1 0x1D DUP2 ADD DUP6 MSTORE ADD DUP4 PUSH2 0x3EDD JUMP JUMPDEST DUP3 MLOAD SWAP4 DUP5 SWAP3 PUSH1 0x20 DUP5 MSTORE MLOAD DUP1 SWAP3 DUP2 PUSH1 0x20 DUP7 ADD MSTORE DUP6 DUP6 ADD SWAP1 PUSH2 0x3F92 JUMP JUMPDEST PUSH1 0x1F ADD PUSH1 0x1F NOT AND DUP2 ADD SUB ADD SWAP1 RETURN JUMPDEST PUSH4 0x4E487B71 PUSH1 0xE0 SHL PUSH1 0x0 MSTORE PUSH1 0x41 PUSH1 0x4 MSTORE PUSH1 0x24 PUSH1 0x0 REVERT JUMPDEST PUSH2 0x3873 SWAP3 PUSH2 0x3878 PUSH2 0x383E PUSH2 0x3873 PUSH1 0x26 PUSH1 0x64 SWAP7 PUSH2 0x3A0E SWAP13 PUSH1 0x40 SWAP13 PUSH2 0x3816 PUSH1 0x20 DUP16 SWAP15 PUSH2 0x399F SWAP16 MLOAD PUSH2 0x3A60 DUP2 PUSH2 0x3EC1 JUMP JUMPDEST PUSH1 0x0 DUP2 MSTORE PUSH2 0x379F JUMP JUMPDEST PUSH4 0x4E487B71 PUSH1 0xE0 SHL PUSH1 0x0 MSTORE PUSH1 0x12 PUSH1 0x4 MSTORE PUSH1 0x24 PUSH1 0x0 REVERT JUMPDEST PUSH4 0x4E487B71 PUSH1 0xE0 SHL PUSH1 0x0 MSTORE PUSH1 0x11 PUSH1 0x4 MSTORE PUSH1 0x24 PUSH1 0x0 REVERT JUMPDEST PUSH1 0x1 ADD PUSH2 0x33B6 JUMP JUMPDEST PUSH1 0x2 SWAP2 POP SWAP2 ADD SWAP1 CODESIZE PUSH2 0x33AD JUMP JUMPDEST PUSH1 0x4 SWAP2 POP SWAP2 ADD SWAP1 CODESIZE PUSH2 0x33A2 JUMP JUMPDEST PUSH1 0x8 SWAP2 POP SWAP2 ADD SWAP1 CODESIZE PUSH2 0x3397 JUMP JUMPDEST PUSH1 0x10 SWAP2 POP SWAP2 ADD SWAP1 CODESIZE PUSH2 0x338C JUMP JUMPDEST PUSH1 0x20 SWAP2 POP SWAP2 ADD SWAP1 CODESIZE PUSH2 0x3381 JUMP JUMPDEST PUSH1 0x40 SWAP2 POP SWAP2 ADD SWAP1 CODESIZE PUSH2 0x3376 JUMP JUMPDEST SWAP2 POP POP PUSH1 0x80 SWAP1 CODESIZE PUSH2 0x336B JUMP JUMPDEST SWAP1 POP SWAP1 PUSH2 0x27EB JUMP JUMPDEST SWAP1 POP SWAP7 PUSH2 0x27E3 JUMP JUMPDEST DUP2 SWAP4 PUSH2 0x27DA JUMP JUMPDEST DUP3 SWAP4 PUSH2 0x27D1 JUMP JUMPDEST PUSH2 0x3BE3 SWAP8 SWAP5 POP SWAP8 PUSH2 0x3BCE SWAP2 PUSH1 0x7E SWAP8 PUSH2 0x3BBA PUSH2 0x3B59 SWAP12 PUSH1 0x2C PUSH1 0x40 SWAP11 SWAP8 SWAP9 SWAP11 MLOAD SWAP14 DUP15 DUP1 SWAP13 PUSH12 0x1E31B4B931B6329031BC1E91 PUSH1 0xA1 SHL SWAP13 DUP14 PUSH1 0x20 DUP5 ADD MSTORE MLOAD SWAP4 DUP5 SWAP3 ADD SWAP1 PUSH2 0x3F92 JUMP JUMPDEST DUP11 ADD PUSH2 0x3B7E PUSH8 0x383C111031BC9E91 PUSH1 0xC1 SHL SWAP9 DUP10 PUSH1 0x2C DUP5 ADD MSTORE MLOAD DUP1 SWAP4 PUSH1 0x34 DUP5 ADD SWAP1 PUSH2 0x3F92 JUMP JUMPDEST ADD SWAP2 PUSH32 0x70782220723D22347078222066696C6C3D22776869746522202F3E0000000000 SWAP9 DUP10 PUSH1 0x34 DUP6 ADD MSTORE PUSH1 0x4F DUP5 ADD MSTORE MLOAD DUP1 SWAP4 PUSH1 0x5B DUP5 ADD SWAP1 PUSH2 0x3F92 JUMP JUMPDEST ADD SWAP3 PUSH1 0x5B DUP5 ADD MSTORE MLOAD DUP1 SWAP4 PUSH1 0x63 DUP5 ADD SWAP1 PUSH2 0x3F92 JUMP JUMPDEST ADD SWAP1 PUSH1 0x63 DUP3 ADD MSTORE SUB PUSH1 0x5E DUP2 ADD DUP5 MSTORE ADD DUP3 PUSH2 0x3EDD JUMP JUMPDEST SWAP1 PUSH2 0x290A JUMP JUMPDEST POP PUSH1 0x0 NOT DUP6 EQ PUSH2 0x27B0 JUMP JUMPDEST PUSH1 0x8 DUP2 SGT PUSH2 0x3C39 JUMPI POP PUSH1 0x40 MLOAD PUSH2 0x3C09 DUP2 PUSH2 0x3E89 JUMP JUMPDEST PUSH1 0x19 DUP2 MSTORE PUSH32 0x4D31203143333320343920393720313133203134352031343500000000000000 PUSH1 0x20 DUP3 ADD MSTORE SWAP9 PUSH2 0x26C2 JUMP JUMPDEST PUSH1 0x10 DUP2 SGT PUSH2 0x3C7E JUMPI POP PUSH1 0x40 MLOAD PUSH2 0x3C4E DUP2 PUSH2 0x3E89 JUMP JUMPDEST PUSH1 0x19 DUP2 MSTORE PUSH32 0x4D31203143333320353720383920313133203134352031343500000000000000 PUSH1 0x20 DUP3 ADD MSTORE SWAP9 PUSH2 0x26C2 JUMP JUMPDEST PUSH1 0x20 DUP2 SGT PUSH2 0x3CC3 JUMPI POP PUSH1 0x40 MLOAD PUSH2 0x3C93 DUP2 PUSH2 0x3E89 JUMP JUMPDEST PUSH1 0x19 DUP2 MSTORE PUSH32 0x4D31203143323520363520383120313231203134352031343500000000000000 PUSH1 0x20 DUP3 ADD MSTORE SWAP9 PUSH2 0x26C2 JUMP JUMPDEST PUSH1 0x40 DUP2 SGT PUSH2 0x3D08 JUMPI POP PUSH1 0x40 MLOAD PUSH2 0x3CD8 DUP2 PUSH2 0x3E89 JUMP JUMPDEST PUSH1 0x19 DUP2 MSTORE PUSH32 0x4D31203143313720373320373320313239203134352031343500000000000000 PUSH1 0x20 DUP3 ADD MSTORE SWAP9 PUSH2 0x26C2 JUMP JUMPDEST PUSH1 0x80 DUP2 SGT PUSH2 0x3D4D JUMPI POP PUSH1 0x40 MLOAD PUSH2 0x3D1D DUP2 PUSH2 0x3E89 JUMP JUMPDEST PUSH1 0x18 DUP2 MSTORE PUSH32 0x4D31203143392038312036352031333720313435203134350000000000000000 PUSH1 0x20 DUP3 ADD MSTORE SWAP9 PUSH2 0x26C2 JUMP JUMPDEST PUSH2 0x100 SLT PUSH2 0x3D91 JUMPI PUSH1 0x40 MLOAD PUSH2 0x3D61 DUP2 PUSH2 0x3E89 JUMP JUMPDEST PUSH1 0x1A DUP2 MSTORE PUSH32 0x4D31203143312038392035372E35203134352031343520313435000000000000 PUSH1 0x20 DUP3 ADD MSTORE SWAP9 PUSH2 0x26C2 JUMP JUMPDEST PUSH1 0x40 MLOAD PUSH2 0x3D9D DUP2 PUSH2 0x3E89 JUMP JUMPDEST PUSH1 0x18 DUP2 MSTORE PUSH32 0x4D31203143312039372034392031343520313435203134350000000000000000 PUSH1 0x20 DUP3 ADD MSTORE SWAP9 PUSH2 0x26C2 JUMP JUMPDEST PUSH1 0x0 NOT DUP11 SUB PUSH2 0x3E13 JUMPI PUSH1 0x40 MLOAD PUSH2 0x3DE2 DUP2 PUSH2 0x3E89 JUMP JUMPDEST PUSH1 0xA DUP2 MSTORE PUSH32 0x23666164652D646F776E00000000000000000000000000000000000000000000 PUSH1 0x20 DUP3 ADD MSTORE JUMPDEST SWAP2 PUSH2 0x263F JUMP JUMPDEST PUSH1 0x40 MLOAD PUSH2 0x3E1F DUP2 PUSH2 0x3E89 JUMP JUMPDEST PUSH1 0x5 DUP2 MSTORE PUSH32 0x236E6F6E65000000000000000000000000000000000000000000000000000000 PUSH1 0x20 DUP3 ADD MSTORE PUSH2 0x3E0D JUMP JUMPDEST PUSH2 0x1C0 MLOAD PUSH1 0x2 SIGNEXTEND PUSH2 0x1EA JUMP JUMPDEST PUSH2 0x1E0 MLOAD PUSH1 0x2 SIGNEXTEND SWAP1 PUSH2 0x1B1 JUMP JUMPDEST PUSH1 0x0 DUP1 REVERT JUMPDEST PUSH2 0x140 DUP2 ADD SWAP1 DUP2 LT PUSH8 0xFFFFFFFFFFFFFFFF DUP3 GT OR PUSH2 0x3A1C JUMPI PUSH1 0x40 MSTORE JUMP JUMPDEST PUSH1 0x40 DUP2 ADD SWAP1 DUP2 LT PUSH8 0xFFFFFFFFFFFFFFFF DUP3 GT OR PUSH2 0x3A1C JUMPI PUSH1 0x40 MSTORE JUMP JUMPDEST PUSH1 0x60 DUP2 ADD SWAP1 DUP2 LT PUSH8 0xFFFFFFFFFFFFFFFF DUP3 GT OR PUSH2 0x3A1C JUMPI PUSH1 0x40 MSTORE JUMP JUMPDEST PUSH1 0x20 DUP2 ADD SWAP1 DUP2 LT PUSH8 0xFFFFFFFFFFFFFFFF DUP3 GT OR PUSH2 0x3A1C JUMPI PUSH1 0x40 MSTORE JUMP JUMPDEST SWAP1 PUSH1 0x1F DUP1 NOT SWAP2 ADD AND DUP2 ADD SWAP1 DUP2 LT PUSH8 0xFFFFFFFFFFFFFFFF DUP3 GT OR PUSH2 0x3A1C JUMPI PUSH1 0x40 MSTORE JUMP JUMPDEST CALLDATALOAD SWAP1 PUSH1 0x1 PUSH1 0x1 PUSH1 0xA0 SHL SUB DUP3 AND DUP3 SUB PUSH2 0x3E67 JUMPI JUMP JUMPDEST PUSH8 0xFFFFFFFFFFFFFFFF DUP2 GT PUSH2 0x3A1C JUMPI PUSH1 0x1F ADD PUSH1 0x1F NOT AND PUSH1 0x20 ADD SWAP1 JUMP JUMPDEST DUP2 PUSH1 0x1F DUP3 ADD SLT ISZERO PUSH2 0x3E67 JUMPI DUP1 CALLDATALOAD SWAP1 PUSH2 0x3F46 DUP3 PUSH2 0x3F13 JUMP JUMPDEST SWAP3 PUSH2 0x3F54 PUSH1 0x40 MLOAD SWAP5 DUP6 PUSH2 0x3EDD JUMP JUMPDEST DUP3 DUP5 MSTORE PUSH1 0x20 DUP4 DUP4 ADD ADD GT PUSH2 0x3E67 JUMPI DUP2 PUSH1 0x0 SWAP3 PUSH1 0x20 DUP1 SWAP4 ADD DUP4 DUP7 ADD CALLDATACOPY DUP4 ADD ADD MSTORE SWAP1 JUMP JUMPDEST CALLDATALOAD SWAP1 PUSH1 0xFF DUP3 AND DUP3 SUB PUSH2 0x3E67 JUMPI JUMP JUMPDEST CALLDATALOAD SWAP1 DUP2 PUSH1 0x2 SIGNEXTEND DUP3 SUB PUSH2 0x3E67 JUMPI JUMP JUMPDEST PUSH1 0x0 JUMPDEST DUP4 DUP2 LT PUSH2 0x3FA5 JUMPI POP POP PUSH1 0x0 SWAP2 ADD MSTORE JUMP JUMPDEST DUP2 DUP2 ADD MLOAD DUP4 DUP3 ADD MSTORE PUSH1 0x20 ADD PUSH2 0x3F95 JUMP JUMPDEST SWAP1 PUSH1 0x10 DUP3 ADD DUP1 SWAP3 GT PUSH2 0x3A7F JUMPI JUMP JUMPDEST SWAP1 PUSH1 0x64 DUP3 ADD DUP1 SWAP3 GT PUSH2 0x3A7F JUMPI JUMP JUMPDEST DUP2 ISZERO PUSH2 0x3A69 JUMPI DIV SWAP1 JUMP JUMPDEST DUP2 DUP2 MUL SWAP3 SWAP2 DUP2 ISZERO SWAP2 DUP5 DIV EQ OR ISZERO PUSH2 0x3A7F JUMPI JUMP JUMPDEST SWAP1 PUSH2 0x3FF8 DUP3 PUSH2 0x3F13 JUMP JUMPDEST PUSH2 0x4005 PUSH1 0x40 MLOAD SWAP2 DUP3 PUSH2 0x3EDD JUMP JUMPDEST DUP3 DUP2 MSTORE DUP1 SWAP3 PUSH2 0x4016 PUSH1 0x1F NOT SWAP2 PUSH2 0x3F13 JUMP JUMPDEST ADD SWAP1 PUSH1 0x20 CALLDATASIZE SWAP2 ADD CALLDATACOPY JUMP JUMPDEST DUP1 MLOAD ISZERO PUSH2 0x416A JUMPI PUSH1 0x40 MLOAD PUSH2 0x4033 DUP2 PUSH2 0x3EA5 JUMP JUMPDEST PUSH1 0x40 DUP2 MSTORE PUSH32 0x4142434445464748494A4B4C4D4E4F505152535455565758595A616263646566 PUSH1 0x20 DUP3 ADD MSTORE PUSH32 0x6768696A6B6C6D6E6F707172737475767778797A303132333435363738392B2F PUSH1 0x40 DUP3 ADD MSTORE DUP2 MLOAD PUSH1 0x2 SWAP3 DUP4 DUP3 ADD DUP1 SWAP3 GT PUSH2 0x3A7F JUMPI PUSH1 0x3 DUP1 SWAP3 DIV PUSH32 0x3FFFFFFFFFFFFFFFFFFFFFFFFFFFFFFFFFFFFFFFFFFFFFFFFFFFFFFFFFFFFFFF DUP2 AND DUP2 SUB PUSH2 0x3A7F JUMPI PUSH2 0x40CD SWAP1 DUP6 SWAP5 SWAP6 SHL PUSH2 0x3FEE JUMP JUMPDEST SWAP4 PUSH1 0x20 DUP6 ADD SWAP4 DUP3 SWAP2 DUP4 MLOAD DUP5 ADD SWAP3 JUMPDEST DUP4 DUP2 LT PUSH2 0x4119 JUMPI POP POP POP POP MLOAD MOD DUP1 PUSH1 0x1 EQ PUSH2 0x4106 JUMPI PUSH1 0x2 EQ PUSH2 0x40FB JUMPI POP SWAP1 JUMP JUMPDEST PUSH1 0x3D SWAP1 PUSH1 0x0 NOT ADD MSTORE8 SWAP1 JUMP JUMPDEST POP PUSH1 0x3D SWAP1 DUP2 PUSH1 0x0 NOT DUP3 ADD MSTORE8 PUSH1 0x1 NOT ADD MSTORE8 SWAP1 JUMP JUMPDEST DUP6 PUSH1 0x4 SWAP2 SWAP8 SWAP3 SWAP4 SWAP5 SWAP8 ADD SWAP2 DUP3 MLOAD PUSH1 0x1 SWAP1 PUSH1 0x3F SWAP1 DUP3 DUP3 DUP3 PUSH1 0x12 SHR AND DUP9 ADD ADD MLOAD DUP5 MSTORE8 DUP3 DUP3 DUP3 PUSH1 0xC SHR AND DUP9 ADD ADD MLOAD DUP4 DUP6 ADD MSTORE8 DUP3 DUP3 DUP3 PUSH1 0x6 SHR AND DUP9 ADD ADD MLOAD DUP9 DUP6 ADD MSTORE8 AND DUP6 ADD ADD MLOAD DUP8 DUP3 ADD MSTORE8 ADD SWAP6 SWAP3 SWAP2 SWAP1 PUSH2 0x40DB JUMP JUMPDEST POP PUSH1 0x40 MLOAD PUSH2 0x4177 DUP2 PUSH2 0x3EC1 JUMP JUMPDEST PUSH1 0x0 DUP2 MSTORE SWAP1 JUMP JUMPDEST DUP1 PUSH1 0x0 SWAP2 PUSH27 0x184F03E93FF9F4DAA797ED6E38ED64BF6A1F010000000000000000 DUP1 DUP3 LT ISZERO PUSH2 0x42B3 JUMPI JUMPDEST POP PUSH14 0x4EE2D6D415B85ACEF8100000000 DUP1 DUP4 LT ISZERO PUSH2 0x42A4 JUMPI JUMPDEST POP PUSH7 0x2386F26FC10000 DUP1 DUP4 LT ISZERO PUSH2 0x4295 JUMPI JUMPDEST POP PUSH4 0x5F5E100 DUP1 DUP4 LT ISZERO PUSH2 0x4286 JUMPI JUMPDEST POP PUSH2 0x2710 DUP1 DUP4 LT ISZERO PUSH2 0x4277 JUMPI JUMPDEST POP PUSH1 0x64 DUP3 LT ISZERO PUSH2 0x4267 JUMPI JUMPDEST PUSH1 0xA DUP1 SWAP3 LT ISZERO PUSH2 0x425D JUMPI JUMPDEST PUSH1 0x1 SWAP1 DUP2 PUSH1 0x21 PUSH2 0x4215 DUP3 DUP8 ADD PUSH2 0x3FEE JUMP JUMPDEST SWAP6 DUP7 ADD ADD SWAP1 JUMPDEST PUSH2 0x4227 JUMPI JUMPDEST POP POP POP POP SWAP1 JUMP JUMPDEST PUSH1 0x0 NOT ADD SWAP1 DUP4 SWAP1 PUSH16 0x181899199A1A9B1B9C1CB0B131B232B3 PUSH1 0x81 SHL DUP3 DUP3 MOD BYTE DUP4 MSTORE8 DIV SWAP2 DUP3 ISZERO PUSH2 0x4258 JUMPI SWAP2 SWAP1 DUP3 PUSH2 0x421B JUMP JUMPDEST PUSH2 0x4220 JUMP JUMPDEST SWAP2 PUSH1 0x1 ADD SWAP2 PUSH2 0x4204 JUMP JUMPDEST SWAP2 SWAP1 PUSH1 0x64 PUSH1 0x2 SWAP2 DIV SWAP2 ADD SWAP2 PUSH2 0x41F9 JUMP JUMPDEST PUSH1 0x4 SWAP2 SWAP4 SWAP3 DIV SWAP2 ADD SWAP2 CODESIZE PUSH2 0x41EE JUMP JUMPDEST PUSH1 0x8 SWAP2 SWAP4 SWAP3 DIV SWAP2 ADD SWAP2 CODESIZE PUSH2 0x41E1 JUMP JUMPDEST PUSH1 0x10 SWAP2 SWAP4 SWAP3 DIV SWAP2 ADD SWAP2 CODESIZE PUSH2 0x41D2 JUMP JUMPDEST PUSH1 0x20 SWAP2 SWAP4 SWAP3 DIV SWAP2 ADD SWAP2 CODESIZE PUSH2 0x41C0 JUMP JUMPDEST PUSH1 0x40 SWAP4 POP DUP2 DIV SWAP2 POP CODESIZE PUSH2 0x41A7 JUMP JUMPDEST PUSH1 0xFF AND PUSH1 0xFF DUP2 EQ PUSH2 0x3A7F JUMPI PUSH1 0x1 ADD SWAP1 JUMP JUMPDEST SWAP1 DUP2 MLOAD DUP2 LT ISZERO PUSH2 0x42E3 JUMPI ADD PUSH1 0x20 ADD SWAP1 JUMP JUMPDEST PUSH4 0x4E487B71 PUSH1 0xE0 SHL PUSH1 0x0 MSTORE PUSH1 0x32 PUSH1 0x4 MSTORE PUSH1 0x24 PUSH1 0x0 REVERT JUMPDEST PUSH1 0x40 MLOAD SWAP1 PUSH2 0x4306 DUP3 PUSH2 0x3E89 JUMP JUMPDEST PUSH1 0x6 DUP3 MSTORE PUSH1 0x20 CALLDATASIZE DUP2 DUP5 ADD CALLDATACOPY JUMP JUMPDEST PUSH1 0x0 NOT DUP2 EQ PUSH2 0x3A7F JUMPI PUSH1 0x1 ADD SWAP1 JUMP JUMPDEST SWAP1 PUSH1 0x0 DUP1 JUMPDEST DUP4 MLOAD PUSH1 0xFF DUP3 AND SWAP1 DUP2 LT ISZERO PUSH2 0x4390 JUMPI PUSH32 0xFF00000000000000000000000000000000000000000000000000000000000000 PUSH2 0x4365 PUSH1 0x11 PUSH1 0xF9 SHL SWAP3 DUP8 PUSH2 0x42D2 JUMP JUMPDEST MLOAD AND EQ PUSH2 0x437B JUMPI JUMPDEST PUSH2 0x4376 SWAP1 PUSH2 0x42C1 JUMP JUMPDEST PUSH2 0x4327 JUMP JUMPDEST SWAP1 PUSH2 0x4388 PUSH2 0x4376 SWAP2 PUSH2 0x42C1 JUMP JUMPDEST SWAP2 SWAP1 POP PUSH2 0x436D JUMP JUMPDEST POP POP SWAP2 PUSH1 0xFF DUP1 SWAP4 AND DUP1 PUSH2 0x43A2 JUMPI POP SWAP2 POP JUMP JUMPDEST DUP2 MLOAD SWAP1 DUP2 ADD DUP1 SWAP2 GT PUSH2 0x3A7F JUMPI PUSH2 0x43B7 SWAP1 PUSH2 0x3FEE JUMP JUMPDEST SWAP1 PUSH1 0x0 SWAP4 DUP5 JUMPDEST DUP3 MLOAD DUP3 DUP3 AND SWAP1 DUP2 LT ISZERO PUSH2 0x4452 JUMPI SWAP1 PUSH2 0x4432 SWAP2 PUSH2 0x4412 PUSH32 0xFF00000000000000000000000000000000000000000000000000000000000000 SWAP2 PUSH1 0x11 PUSH1 0xF9 SHL DUP4 PUSH2 0x4404 DUP4 DUP11 PUSH2 0x42D2 JUMP JUMPDEST MLOAD AND EQ PUSH2 0x4437 JUMPI JUMPDEST DUP7 PUSH2 0x42D2 JUMP JUMPDEST MLOAD AND SWAP7 PUSH2 0x442C PUSH2 0x4421 DUP3 PUSH2 0x4313 JUMP JUMPDEST SWAP9 PUSH1 0x0 BYTE SWAP2 DUP8 PUSH2 0x42D2 JUMP JUMPDEST MSTORE8 PUSH2 0x42C1 JUMP JUMPDEST PUSH2 0x43BD JUMP JUMPDEST PUSH1 0x5C PUSH2 0x444C PUSH2 0x4445 DUP13 PUSH2 0x4313 JUMP JUMPDEST SWAP12 DUP11 PUSH2 0x42D2 JUMP JUMPDEST MSTORE8 PUSH2 0x440C JUMP JUMPDEST POP SWAP3 SWAP5 POP POP POP POP JUMP JUMPDEST SWAP1 PUSH1 0x2 SIGNEXTEND SWAP1 PUSH1 0x2 SIGNEXTEND MUL SWAP1 DUP2 PUSH1 0x2 SIGNEXTEND SWAP2 DUP3 SUB PUSH2 0x3A7F JUMPI JUMP JUMPDEST PUSH1 0x40 MLOAD SWAP1 PUSH2 0x447F DUP3 PUSH2 0x3E89 JUMP JUMPDEST PUSH1 0x3 DUP3 MSTORE PUSH32 0x4D494E0000000000000000000000000000000000000000000000000000000000 PUSH1 0x20 DUP4 ADD MSTORE JUMP JUMPDEST PUSH1 0x40 MLOAD SWAP1 PUSH2 0x44B8 DUP3 PUSH2 0x3E89 JUMP JUMPDEST PUSH1 0x3 DUP3 MSTORE PUSH32 0x4D41580000000000000000000000000000000000000000000000000000000000 PUSH1 0x20 DUP4 ADD MSTORE JUMP JUMPDEST SWAP2 SWAP3 SWAP1 DUP1 PUSH1 0x2 SIGNEXTEND SWAP3 DUP4 ISZERO PUSH2 0x3A69 JUMPI PUSH2 0x4502 DUP3 DUP6 PUSH3 0xD89E7 NOT SDIV PUSH2 0x445B JUMP JUMPDEST PUSH1 0x2 SIGNEXTEND SWAP2 DUP2 PUSH1 0x2 SIGNEXTEND SWAP3 DUP4 EQ PUSH1 0x0 EQ PUSH2 0x4535 JUMPI POP POP POP POP POP POP ISZERO PUSH1 0x0 EQ PUSH2 0x452D JUMPI PUSH2 0x452A PUSH2 0x4472 JUMP JUMPDEST SWAP1 JUMP JUMPDEST PUSH2 0x452A PUSH2 0x44AB JUMP JUMPDEST PUSH2 0x4545 SWAP1 PUSH3 0xD89E8 SWAP6 DUP7 SDIV PUSH2 0x445B JUMP JUMPDEST PUSH1 0x2 SIGNEXTEND DUP3 SUB PUSH2 0x456B JUMPI POP POP POP POP POP ISZERO PUSH1 0x0 EQ PUSH2 0x4563 JUMPI PUSH2 0x452A PUSH2 0x44AB JUMP JUMPDEST PUSH2 0x452A PUSH2 0x4472 JUMP JUMPDEST DUP2 PUSH1 0x17 SWAP7 SWAP3 SWAP4 SWAP5 SWAP6 SWAP7 SAR PUSH1 0x2 SIGNEXTEND DUP1 SWAP2 ADD PUSH1 0x2 SIGNEXTEND XOR SWAP5 PUSH3 0xFFFFFF DUP7 AND SWAP5 DUP6 GT PUSH2 0x4D40 JUMPI PUSH4 0xFFFFFFFF SWAP3 PUSH1 0x1 PUSH1 0x80 SHL SWAP1 PUSH1 0x1 DUP9 AND PUSH2 0x4D28 JUMPI JUMPDEST PUSH1 0x2 DUP9 AND PUSH2 0x4D0C JUMPI JUMPDEST PUSH1 0x4 DUP9 AND PUSH2 0x4CF0 JUMPI JUMPDEST PUSH1 0x8 DUP9 AND PUSH2 0x4CD4 JUMPI JUMPDEST PUSH1 0x10 DUP9 AND PUSH2 0x4CB8 JUMPI JUMPDEST PUSH1 0x20 DUP9 AND PUSH2 0x4C9C JUMPI JUMPDEST PUSH1 0x40 DUP9 AND PUSH2 0x4C80 JUMPI JUMPDEST PUSH1 0x80 SWAP8 DUP9 DUP2 AND PUSH2 0x4C65 JUMPI JUMPDEST PUSH2 0x100 SWAP8 DUP9 DUP3 AND PUSH2 0x4C4A JUMPI JUMPDEST PUSH2 0x200 DUP3 AND PUSH2 0x4C2F JUMPI JUMPDEST PUSH2 0x400 DUP3 AND PUSH2 0x4C14 JUMPI JUMPDEST PUSH2 0x800 DUP3 AND PUSH2 0x4BF9 JUMPI JUMPDEST PUSH2 0x1000 DUP3 AND PUSH2 0x4BDE JUMPI JUMPDEST PUSH2 0x2000 DUP3 AND PUSH2 0x4BC3 JUMPI JUMPDEST PUSH2 0x4000 DUP3 AND PUSH2 0x4BA8 JUMPI JUMPDEST PUSH2 0x8000 DUP3 AND PUSH2 0x4B8D JUMPI JUMPDEST PUSH3 0x10000 DUP3 AND PUSH2 0x4B72 JUMPI JUMPDEST PUSH3 0x20000 DUP3 AND PUSH2 0x4B58 JUMPI JUMPDEST PUSH3 0x40000 DUP1 SWAP2 LT ISZERO PUSH2 0x4B0E JUMPI JUMPDEST POP POP PUSH1 0x0 SLT PUSH2 0x4B05 JUMPI JUMPDEST PUSH1 0x1 PUSH1 0x1 PUSH1 0xA0 SHL SUB SWAP4 ADD PUSH1 0x20 SHR DUP4 AND SWAP2 PUSH2 0x4ADB JUMPI JUMPDEST PUSH1 0xFF DUP1 SWAP2 AND SWAP4 AND DUP1 DUP5 SUB PUSH1 0x0 DUP3 SLT DUP6 DUP3 SLT DUP2 AND SWAP1 DUP7 DUP4 SGT SWAP1 ISZERO AND OR PUSH2 0x3A7F JUMPI PUSH1 0x0 DUP2 SLT PUSH2 0x4AAB JUMPI SWAP4 JUMPDEST DUP5 ISZERO ISZERO DUP1 PUSH2 0x4AA0 JUMPI JUMPDEST ISZERO PUSH2 0x4A96 JUMPI SWAP2 PUSH1 0x1 SWAP4 SWAP2 DUP5 SWAP4 GT PUSH1 0x0 EQ PUSH2 0x4A70 JUMPI PUSH2 0x46D3 SWAP2 PUSH2 0x46CC DUP7 DUP6 SHR PUSH2 0x4F3D JUMP JUMPDEST SWAP2 AND PUSH2 0x3FDB JUMP JUMPDEST SWAP3 AND EQ PUSH2 0x4A62 JUMPI JUMPDEST PUSH2 0x46E5 DUP2 DUP1 PUSH2 0x4E61 JUMP JUMPDEST PUSH1 0x1 PUSH1 0x60 SHL DUP3 LT ISZERO PUSH2 0x4A53 JUMPI PUSH2 0x46FA SWAP1 PUSH2 0x4EED JUMP JUMPDEST SWAP1 JUMPDEST DUP2 PUSH1 0x0 DUP2 JUMPDEST PUSH2 0x4A3F JUMPI PUSH2 0x470F SWAP2 POP PUSH2 0x4D6A JUMP JUMPDEST SWAP4 PUSH1 0x0 DUP4 PUSH1 0xFF DUP8 AND PUSH1 0x5 DUP2 GT PUSH2 0x4A0E JUMPI JUMPDEST POP POP PUSH1 0xA PUSH1 0x4 DUP2 DUP7 MOD GT SWAP5 DIV SWAP4 PUSH2 0x49FC JUMPI JUMPDEST PUSH3 0x186A0 DUP5 EQ PUSH2 0x49EE JUMPI JUMPDEST PUSH2 0x49DE JUMPI JUMPDEST PUSH1 0x40 MLOAD SWAP4 DUP5 ADD DUP5 DUP2 LT PUSH8 0xFFFFFFFFFFFFFFFF DUP3 GT OR PUSH2 0x3A1C JUMPI PUSH1 0x40 MSTORE PUSH1 0x0 DUP5 MSTORE PUSH1 0x0 PUSH1 0x20 DUP6 ADD MSTORE PUSH1 0x0 PUSH1 0x40 DUP6 ADD MSTORE PUSH1 0x0 PUSH1 0x60 DUP6 ADD MSTORE DUP4 ADD SWAP4 PUSH1 0x0 DUP6 MSTORE PUSH1 0x0 PUSH1 0xA0 DUP6 ADD MSTORE PUSH1 0x0 PUSH1 0xC0 DUP6 ADD MSTORE PUSH1 0x0 PUSH1 0xE0 DUP6 ADD MSTORE PUSH1 0x1 PUSH1 0x60 SHL DUP3 LT PUSH1 0x0 EQ PUSH2 0x4979 JUMPI PUSH1 0xFF AND PUSH1 0x2B SUB SWAP2 PUSH1 0xFF DUP4 GT PUSH2 0x3A7F JUMPI PUSH1 0xFF DUP4 AND PUSH1 0x7 ADD PUSH1 0xFF DUP2 GT PUSH2 0x3A7F JUMPI PUSH1 0xFF AND PUSH1 0x20 DUP6 ADD MSTORE PUSH1 0x2 DUP6 MSTORE PUSH1 0x2B DUP4 GT PUSH2 0x3A7F JUMPI PUSH1 0x1 DUP4 ADD DUP1 SWAP4 GT PUSH2 0x3A7F JUMPI PUSH1 0xFF PUSH1 0x1 PUSH1 0x60 SHL SWAP4 AND PUSH1 0xA0 DUP6 ADD MSTORE PUSH1 0xFF PUSH2 0x47FD DUP2 PUSH1 0x20 DUP8 ADD MLOAD AND PUSH2 0x4D6A JUMP JUMPDEST AND PUSH1 0x40 DUP6 ADD MSTORE JUMPDEST DUP4 MSTORE LT PUSH1 0xC0 DUP3 ADD MSTORE PUSH1 0x0 PUSH1 0xE0 DUP3 ADD MSTORE PUSH2 0x4823 PUSH1 0xFF PUSH1 0x20 DUP4 ADD MLOAD AND PUSH2 0x3FEE JUMP JUMPDEST SWAP2 PUSH1 0xE0 DUP3 ADD MLOAD PUSH2 0x4959 JUMPI JUMPDEST PUSH1 0xC0 DUP3 ADD MLOAD PUSH2 0x4930 JUMPI JUMPDEST MLOAD PUSH1 0xFF AND JUMPDEST PUSH1 0x1 PUSH1 0xFF PUSH1 0xA0 DUP5 ADD MLOAD AND ADD PUSH1 0xFF DUP2 GT PUSH2 0x3A7F JUMPI PUSH1 0xFF AND DUP2 LT ISZERO PUSH2 0x4875 JUMPI DUP1 PUSH1 0x30 PUSH2 0x486A PUSH2 0x4870 SWAP4 DUP7 PUSH2 0x42D2 JUMP JUMPDEST MSTORE8 PUSH2 0x4313 JUMP JUMPDEST PUSH2 0x483D JUMP JUMPDEST POP SWAP2 JUMPDEST DUP3 MLOAD ISZERO PUSH2 0x492B JUMPI PUSH1 0xFF PUSH1 0x60 DUP5 ADD MLOAD AND DUP1 ISZERO ISZERO SWAP1 DUP2 PUSH2 0x491A JUMPI JUMPDEST POP PUSH2 0x48F4 JUMPI JUMPDEST PUSH32 0xFF00000000000000000000000000000000000000000000000000000000000000 PUSH1 0xA DUP5 MLOAD MOD PUSH1 0x30 ADD PUSH1 0xF8 SHL AND PUSH2 0x48E7 PUSH1 0xFF PUSH1 0x40 DUP7 ADD MLOAD AND SWAP2 PUSH1 0xFF PUSH1 0x0 NOT DUP5 ADD AND PUSH1 0x40 DUP8 ADD MSTORE PUSH1 0x0 BYTE SWAP2 DUP5 PUSH2 0x42D2 JUMP JUMPDEST MSTORE8 PUSH1 0xA DUP4 MLOAD DIV DUP4 MSTORE PUSH2 0x4878 JUMP JUMPDEST PUSH1 0x2E PUSH2 0x4914 PUSH1 0xFF PUSH1 0x40 DUP7 ADD MLOAD AND PUSH1 0xFF PUSH1 0x0 NOT DUP3 ADD AND PUSH1 0x40 DUP8 ADD MSTORE DUP5 PUSH2 0x42D2 JUMP JUMPDEST MSTORE8 PUSH2 0x4897 JUMP JUMPDEST SWAP1 POP PUSH1 0xFF PUSH1 0x40 DUP6 ADD MLOAD AND EQ CODESIZE PUSH2 0x4891 JUMP JUMPDEST SWAP2 POP SWAP1 JUMP JUMPDEST DUP3 MLOAD ISZERO PUSH2 0x42E3 JUMPI PUSH1 0x30 PUSH1 0x20 DUP5 ADD MSTORE8 DUP3 MLOAD PUSH1 0x1 LT ISZERO PUSH2 0x42E3 JUMPI PUSH1 0xFF SWAP1 PUSH1 0x2E PUSH1 0x21 DUP6 ADD MSTORE8 SWAP1 POP PUSH2 0x4838 JUMP JUMPDEST DUP3 MLOAD PUSH1 0x0 NOT DUP2 ADD SWAP1 DUP2 GT PUSH2 0x3A7F JUMPI PUSH2 0x4973 PUSH1 0x25 SWAP2 DUP6 PUSH2 0x42D2 JUMP JUMPDEST MSTORE8 PUSH2 0x482E JUMP JUMPDEST PUSH1 0x1 PUSH1 0x60 SHL SWAP3 SWAP1 PUSH1 0xFF SWAP1 PUSH1 0x9 DUP3 DUP3 AND LT PUSH2 0x49BC JUMPI DUP2 PUSH2 0x499A PUSH2 0x49AA SWAP3 PUSH2 0x4D7D JUMP JUMPDEST AND DUP1 PUSH1 0x20 DUP9 ADD MSTORE PUSH1 0x5 DUP9 MSTORE PUSH2 0x4D6A JUMP JUMPDEST AND PUSH1 0xA0 DUP6 ADD MSTORE PUSH1 0x4 PUSH1 0x40 DUP6 ADD MSTORE PUSH2 0x4804 JUMP JUMPDEST PUSH2 0x49D3 SWAP1 PUSH1 0x6 PUSH1 0x20 DUP9 ADD MSTORE PUSH1 0x5 PUSH1 0x40 DUP9 ADD MSTORE PUSH2 0x4D7D JUMP JUMPDEST AND PUSH1 0x60 DUP6 ADD MSTORE PUSH2 0x4804 JUMP JUMPDEST SWAP4 PUSH2 0x49E8 SWAP1 PUSH2 0x42C1 JUMP JUMPDEST SWAP4 PUSH2 0x4742 JUMP JUMPDEST POP SWAP2 PUSH1 0xA SWAP1 DIV SWAP2 PUSH1 0x1 PUSH2 0x473D JUMP JUMPDEST SWAP3 PUSH1 0x1 DUP2 ADD DUP1 SWAP2 GT PUSH2 0x3A7F JUMPI SWAP3 PUSH2 0x4732 JUMP JUMPDEST SWAP2 SWAP5 POP SWAP1 PUSH1 0x4 NOT ADD PUSH1 0xFF DUP2 GT PUSH2 0x3A7F JUMPI PUSH1 0xFF AND SWAP1 PUSH1 0x4D DUP3 GT PUSH2 0x3A7F JUMPI PUSH2 0x4A37 SWAP2 PUSH1 0xA EXP SWAP1 PUSH2 0x3FD1 JUMP JUMPDEST SWAP3 CODESIZE DUP1 PUSH2 0x4720 JUMP JUMPDEST PUSH2 0x4A4A PUSH1 0xA SWAP2 PUSH2 0x42C1 JUMP JUMPDEST SWAP2 DIV SWAP1 DUP2 PUSH2 0x4701 JUMP JUMPDEST PUSH2 0x4A5C SWAP1 PUSH2 0x4EAD JUMP JUMPDEST SWAP1 PUSH2 0x46FC JUMP JUMPDEST PUSH2 0x4A6B SWAP1 PUSH2 0x4E09 JUMP JUMPDEST PUSH2 0x46DB JUMP JUMPDEST PUSH2 0x4A86 SWAP2 PUSH2 0x4A7F DUP7 DUP6 SHR PUSH2 0x4F3D JUMP JUMPDEST SWAP2 AND PUSH2 0x3FD1 JUMP JUMPDEST SWAP3 AND SUB PUSH2 0x46DB JUMPI PUSH2 0x4A6B SWAP1 PUSH2 0x4D90 JUMP JUMPDEST POP POP AND SWAP1 POP PUSH2 0x46DB JUMP JUMPDEST POP PUSH1 0x12 DUP6 GT ISZERO PUSH2 0x46A9 JUMP JUMPDEST PUSH32 0x8000000000000000000000000000000000000000000000000000000000000000 DUP2 EQ PUSH2 0x3A7F JUMPI PUSH1 0x0 SUB SWAP4 PUSH2 0x46A0 JUMP JUMPDEST SWAP1 DUP1 ISZERO PUSH2 0x3A69 JUMPI PUSH25 0x1000000000000000000000000000000000000000000000000 DIV DUP3 AND SWAP1 PUSH2 0x4677 JUMP JUMPDEST PUSH1 0x0 NOT DIV PUSH2 0x4662 JUMP JUMPDEST DUP2 AND PUSH2 0x4B3E JUMPI JUMPDEST PUSH3 0x80000 AND PUSH2 0x4B26 JUMPI JUMPDEST CODESIZE DUP1 PUSH2 0x4658 JUMP JUMPDEST PUSH12 0x48A170391F7DC42444E8FA2 SWAP1 SWAP2 MUL DUP8 SHR SWAP1 PUSH2 0x4B1F JUMP JUMPDEST PUSH14 0x2216E584F5FA1EA926041BEDFE98 SWAP1 SWAP3 MUL DUP9 SHR SWAP2 PUSH2 0x4B15 JUMP JUMPDEST SWAP3 PUSH15 0x5D6AF8DEDB81196699C329225EE604 MUL DUP10 SHR SWAP3 PUSH2 0x464B JUMP JUMPDEST SWAP3 PUSH16 0x9AA508B5B7A84E1C677DE54F3E99BC9 MUL DUP10 SHR SWAP3 PUSH2 0x4640 JUMP JUMPDEST SWAP3 PUSH16 0x31BE135F97D08FD981231505542FCFA6 MUL DUP10 SHR SWAP3 PUSH2 0x4635 JUMP JUMPDEST SWAP3 PUSH16 0x70D869A156D2A1B890BB3DF62BAF32F7 MUL DUP10 SHR SWAP3 PUSH2 0x462B JUMP JUMPDEST SWAP3 PUSH16 0xA9F746462D870FDF8A65DC1F90E061E5 MUL DUP10 SHR SWAP3 PUSH2 0x4621 JUMP JUMPDEST SWAP3 PUSH16 0xD097F3BDFD2022B8845AD8F792AA5825 MUL DUP10 SHR SWAP3 PUSH2 0x4617 JUMP JUMPDEST SWAP3 PUSH16 0xE7159475A2C29B7443B29C7FA6E889D9 MUL DUP10 SHR SWAP3 PUSH2 0x460D JUMP JUMPDEST SWAP3 PUSH16 0xF3392B0822B70005940C7A398E4B70F3 MUL DUP10 SHR SWAP3 PUSH2 0x4603 JUMP JUMPDEST SWAP3 PUSH16 0xF987A7253AC413176F2B074CF7815E54 MUL DUP10 SHR SWAP3 PUSH2 0x45F9 JUMP JUMPDEST SWAP3 PUSH16 0xFCBE86C7900A88AEDCFFC83B479AA3A4 MUL DUP10 SHR SWAP3 PUSH2 0x45EF JUMP JUMPDEST SWAP2 PUSH16 0xFE5DEE046A99A2A811C461F1969C3053 MUL DUP9 SHR SWAP2 PUSH2 0x45E3 JUMP JUMPDEST SWAP1 PUSH16 0xFF2EA16466C96A3843EC78B326B52861 MUL PUSH1 0x80 SHR SWAP1 PUSH2 0x45D8 JUMP JUMPDEST SWAP1 PUSH16 0xFF973B41FA98C081472E6896DFB254C0 MUL PUSH1 0x80 SHR SWAP1 PUSH2 0x45CF JUMP JUMPDEST SWAP1 PUSH16 0xFFCB9843D60F6159C9DB58835C926644 MUL PUSH1 0x80 SHR SWAP1 PUSH2 0x45C6 JUMP JUMPDEST SWAP1 PUSH16 0xFFE5CACA7E10E4E61C3624EAA0941CD0 MUL PUSH1 0x80 SHR SWAP1 PUSH2 0x45BD JUMP JUMPDEST SWAP1 PUSH16 0xFFF2E50F5F656932EF12357CF3C7FDCC MUL PUSH1 0x80 SHR SWAP1 PUSH2 0x45B4 JUMP JUMPDEST SWAP1 PUSH16 0xFFF97272373D413259A46990580E213A MUL PUSH1 0x80 SHR SWAP1 PUSH2 0x45AB JUMP JUMPDEST PUSH16 0xFFFCB933BD6FAD37AA2D162D1A594001 SWAP2 POP PUSH2 0x45A2 JUMP JUMPDEST PUSH1 0x4 PUSH1 0x40 MLOAD PUSH32 0x3C10250F00000000000000000000000000000000000000000000000000000000 DUP2 MSTORE REVERT JUMPDEST PUSH1 0xFF PUSH1 0x0 NOT SWAP2 AND ADD SWAP1 PUSH1 0xFF DUP3 GT PUSH2 0x3A7F JUMPI JUMP JUMPDEST PUSH1 0xFF PUSH1 0x3 NOT SWAP2 AND ADD SWAP1 PUSH1 0xFF DUP3 GT PUSH2 0x3A7F JUMPI JUMP JUMPDEST DUP1 PUSH1 0x80 SHL PUSH1 0x1 PUSH1 0x80 SHL PUSH1 0x0 NOT DUP2 DUP5 MULMOD SWAP1 DUP3 DUP1 DUP4 LT SWAP3 SUB SWAP1 DUP3 DUP3 SUB SWAP3 PUSH17 0x3298B075B4B6A5240945790619B37FD4A SWAP3 DUP5 DUP5 GT ISZERO PUSH2 0x3E67 JUMPI EQ PUSH2 0x4E01 JUMPI PUSH32 0x1F514B8EE5362595DE309A65C03CE543F7E851E1625EA646B8FE88B81023B92D SWAP5 MULMOD SWAP1 DUP3 DUP3 GT SWAP1 SUB PUSH1 0xFF SHL SWAP2 SUB PUSH1 0x1 SHR OR MUL SWAP1 JUMP JUMPDEST POP SWAP3 POP POP DIV SWAP1 JUMP JUMPDEST PUSH17 0x3298B075B4B6A5240945790619B37FD4A DUP2 DUP2 MUL SWAP2 PUSH1 0x0 NOT DUP3 DUP3 MULMOD SWAP2 DUP4 DUP1 DUP5 LT SWAP4 SUB SWAP2 DUP4 DUP4 SUB SWAP4 PUSH1 0x1 PUSH1 0x80 SHL SWAP4 DUP6 DUP6 GT ISZERO PUSH2 0x3E67 JUMPI EQ PUSH2 0x4E57 JUMPI MULMOD SWAP1 DUP3 DUP3 GT SWAP1 SUB PUSH1 0x80 SHL SWAP2 SUB PUSH1 0x80 SHR OR SWAP1 JUMP JUMPDEST POP POP POP POP PUSH1 0x80 SHR SWAP1 JUMP JUMPDEST DUP2 DUP2 MUL SWAP2 SWAP1 PUSH1 0x0 NOT DUP3 DUP3 MULMOD SWAP2 DUP4 DUP1 DUP5 LT SWAP4 SUB SWAP2 DUP4 DUP4 SUB SWAP4 PUSH9 0x10000000000000000 SWAP4 DUP6 DUP6 GT ISZERO PUSH2 0x3E67 JUMPI EQ PUSH2 0x4EA3 JUMPI MULMOD SWAP1 DUP3 DUP3 GT SWAP1 SUB PUSH1 0xC0 SHL SWAP2 SUB PUSH1 0x40 SHR OR SWAP1 JUMP JUMPDEST POP POP POP POP PUSH1 0x40 SHR SWAP1 JUMP JUMPDEST PUSH3 0x186A0 DUP2 DUP2 MUL SWAP2 PUSH1 0x0 NOT DUP3 DUP3 MULMOD SWAP2 DUP4 DUP1 DUP5 LT SWAP4 SUB SWAP2 DUP4 DUP4 SUB SWAP4 PUSH1 0x1 PUSH1 0x80 SHL SWAP4 DUP6 DUP6 GT ISZERO PUSH2 0x3E67 JUMPI EQ PUSH2 0x4E57 JUMPI MULMOD SWAP1 DUP3 DUP3 GT SWAP1 SUB PUSH1 0x80 SHL SWAP2 SUB PUSH1 0x80 SHR OR SWAP1 JUMP JUMPDEST PUSH19 0x47BF19673DF52E37F2410011D100000000000 DUP2 DUP2 MUL SWAP2 PUSH1 0x0 NOT DUP3 DUP3 MULMOD SWAP2 DUP4 DUP1 DUP5 LT SWAP4 SUB SWAP2 DUP4 DUP4 SUB SWAP4 PUSH1 0x1 PUSH1 0x80 SHL SWAP4 DUP6 DUP6 GT ISZERO PUSH2 0x3E67 JUMPI EQ PUSH2 0x4E57 JUMPI MULMOD SWAP1 DUP3 DUP3 GT SWAP1 SUB PUSH1 0x80 SHL SWAP2 SUB PUSH1 0x80 SHR OR SWAP1 JUMP JUMPDEST PUSH1 0x4D DUP2 GT PUSH2 0x3A7F JUMPI PUSH1 0xA EXP SWAP1 JUMP JUMPDEST PUSH1 0x1 PUSH1 0x1 PUSH1 0xA0 SHL SUB AND PUSH1 0x40 MLOAD SWAP1 PUSH2 0x4F61 DUP3 PUSH2 0x3EA5 JUMP JUMPDEST PUSH1 0x2A DUP3 MSTORE PUSH1 0x20 DUP3 ADD PUSH1 0x40 CALLDATASIZE DUP3 CALLDATACOPY DUP3 MLOAD ISZERO PUSH2 0x42E3 JUMPI PUSH1 0x30 SWAP1 MSTORE8 DUP2 MLOAD PUSH1 0x1 SWAP1 DUP2 LT ISZERO PUSH2 0x42E3 JUMPI PUSH1 0x78 PUSH1 0x21 DUP5 ADD MSTORE8 PUSH1 0x29 SWAP1 JUMPDEST DUP1 DUP3 GT PUSH2 0x4FFE JUMPI POP POP PUSH2 0x4FA0 JUMPI SWAP1 JUMP JUMPDEST PUSH1 0x64 PUSH1 0x40 MLOAD PUSH32 0x8C379A000000000000000000000000000000000000000000000000000000000 DUP2 MSTORE PUSH1 0x20 PUSH1 0x4 DUP3 ADD MSTORE PUSH1 0x20 PUSH1 0x24 DUP3 ADD MSTORE PUSH32 0x537472696E67733A20686578206C656E67746820696E73756666696369656E74 PUSH1 0x44 DUP3 ADD MSTORE REVERT JUMPDEST SWAP1 SWAP2 PUSH1 0xF DUP2 AND PUSH1 0x10 DUP2 LT ISZERO PUSH2 0x503C JUMPI PUSH16 0x181899199A1A9B1B9C1CB0B131B232B3 PUSH1 0x81 SHL SWAP1 BYTE PUSH2 0x502D DUP5 DUP7 PUSH2 0x42D2 JUMP JUMPDEST MSTORE8 PUSH1 0x4 SHR SWAP2 PUSH1 0x0 NOT ADD SWAP1 PUSH2 0x4F90 JUMP JUMPDEST PUSH1 0x24 PUSH1 0x0 PUSH4 0x4E487B71 PUSH1 0xE0 SHL DUP2 MSTORE PUSH1 0x32 PUSH1 0x4 MSTORE REVERT JUMPDEST PUSH1 0x2 SWAP3 DUP4 SIGNEXTEND SWAP3 SIGNEXTEND DUP3 SLT ISZERO PUSH2 0x5067 JUMPI POP POP PUSH1 0x0 NOT SWAP1 JUMP JUMPDEST PUSH1 0x2 SIGNEXTEND SLT ISZERO PUSH2 0x5075 JUMPI PUSH1 0x1 SWAP1 JUMP JUMPDEST PUSH1 0x0 SWAP1 JUMP JUMPDEST PUSH1 0x88 SHR PUSH2 0x5085 PUSH2 0x42F9 JUMP JUMPDEST SWAP1 DUP2 MLOAD SWAP1 DUP2 JUMPDEST PUSH2 0x5094 JUMPI POP POP SWAP1 JUMP JUMPDEST PUSH1 0xF DUP2 AND PUSH1 0x10 DUP2 LT ISZERO PUSH2 0x503C JUMPI PUSH16 0x181899199A1A9B1B9C1CB0B131B232B3 PUSH1 0x81 SHL SWAP1 BYTE PUSH2 0x50C5 PUSH1 0x0 NOT DUP5 ADD DUP6 PUSH2 0x42D2 JUMP JUMPDEST MSTORE8 PUSH1 0x4 SHR SWAP1 PUSH1 0x0 NOT ADD SWAP1 DUP2 PUSH2 0x508B JUMP JUMPDEST PUSH2 0x50DD PUSH2 0x42F9 JUMP JUMPDEST SWAP1 DUP2 MLOAD SWAP1 DUP2 JUMPDEST PUSH2 0x50EC JUMPI POP POP SWAP1 JUMP JUMPDEST PUSH1 0xF DUP2 AND PUSH1 0x10 DUP2 LT ISZERO PUSH2 0x503C JUMPI PUSH16 0x181899199A1A9B1B9C1CB0B131B232B3 PUSH1 0x81 SHL SWAP1 BYTE PUSH2 0x511D PUSH1 0x0 NOT DUP5 ADD DUP6 PUSH2 0x42D2 JUMP JUMPDEST MSTORE8 PUSH1 0x4 SHR SWAP1 PUSH1 0x0 NOT ADD SWAP1 DUP2 PUSH2 0x50E3 JUMP JUMPDEST PUSH1 0x40 MLOAD PUSH2 0x5139 DUP2 PUSH2 0x3EC1 JUMP JUMPDEST PUSH1 0x0 DUP2 MSTORE SWAP1 DUP1 PUSH1 0x2 SIGNEXTEND PUSH1 0x0 DUP2 SLT PUSH2 0x518C JUMPI JUMPDEST POP PUSH1 0x20 PUSH2 0x515F PUSH3 0xFFFFFF PUSH2 0x452A SWAP4 AND PUSH2 0x417E JUMP JUMPDEST SWAP3 PUSH1 0x40 MLOAD SWAP4 DUP2 PUSH2 0x5178 DUP7 SWAP4 MLOAD DUP1 SWAP3 DUP7 DUP1 DUP8 ADD SWAP2 ADD PUSH2 0x3F92 JUMP JUMPDEST DUP3 ADD PUSH2 0x380A DUP3 MLOAD DUP1 SWAP4 DUP7 DUP1 DUP6 ADD SWAP2 ADD PUSH2 0x3F92 JUMP JUMPDEST SWAP2 POP POP PUSH1 0x0 SUB DUP1 PUSH1 0x2 SIGNEXTEND SWAP1 DUP2 SUB PUSH2 0x3A7F JUMPI PUSH2 0x452A PUSH1 0x20 PUSH2 0x515F PUSH3 0xFFFFFF PUSH1 0x40 MLOAD PUSH2 0x51B5 DUP2 PUSH2 0x3E89 JUMP JUMPDEST PUSH1 0x1 DUP2 MSTORE PUSH1 0x2D PUSH1 0xF8 SHL DUP5 DUP3 ADD MSTORE SWAP5 SWAP4 POP POP POP PUSH2 0x514B JUMP JUMPDEST PUSH1 0x40 MLOAD SWAP1 PUSH2 0x51D9 DUP3 PUSH2 0x3E89 JUMP JUMPDEST PUSH1 0x2 DUP3 MSTORE PUSH32 0x3237000000000000000000000000000000000000000000000000000000000000 PUSH1 0x20 DUP4 ADD MSTORE JUMP JUMPDEST PUSH1 0x40 MLOAD SWAP1 PUSH2 0x5212 DUP3 PUSH2 0x3E89 JUMP JUMPDEST PUSH1 0x2 DUP3 MSTORE PUSH32 0x3231000000000000000000000000000000000000000000000000000000000000 PUSH1 0x20 DUP4 ADD MSTORE JUMP JUMPDEST PUSH1 0x40 MLOAD SWAP1 PUSH2 0x524B DUP3 PUSH2 0x3E89 JUMP JUMPDEST PUSH1 0x2 DUP3 MSTORE PUSH32 0x3138000000000000000000000000000000000000000000000000000000000000 PUSH1 0x20 DUP4 ADD MSTORE JUMP JUMPDEST PUSH1 0x40 MLOAD SWAP1 PUSH2 0x5284 DUP3 PUSH2 0x3E89 JUMP JUMPDEST PUSH1 0x1 DUP3 MSTORE PUSH32 0x3800000000000000000000000000000000000000000000000000000000000000 PUSH1 0x20 DUP4 ADD MSTORE JUMP JUMPDEST PUSH1 0x2 SWAP2 DUP3 SIGNEXTEND SWAP1 DUP3 SIGNEXTEND ADD PUSH3 0x7FFFFF NOT DUP2 SLT PUSH3 0x7FFFFF DUP3 SGT OR PUSH2 0x3A7F JUMPI DUP2 SIGNEXTEND DUP2 SWAP1 SDIV DUP2 SIGNEXTEND PUSH3 0x1E847 NOT DUP2 SLT ISZERO PUSH2 0x5322 JUMPI POP POP PUSH2 0x52E8 PUSH2 0x5277 JUMP JUMPDEST SWAP1 PUSH1 0x40 MLOAD PUSH2 0x52F5 DUP2 PUSH2 0x3E89 JUMP JUMPDEST PUSH1 0x1 DUP2 MSTORE PUSH32 0x3700000000000000000000000000000000000000000000000000000000000000 PUSH1 0x20 DUP3 ADD MSTORE SWAP1 JUMP JUMPDEST PUSH3 0x124F7 NOT DUP2 SLT ISZERO PUSH2 0x5372 JUMPI POP POP PUSH2 0x5338 PUSH2 0x5277 JUMP JUMPDEST SWAP1 PUSH1 0x40 MLOAD PUSH2 0x5345 DUP2 PUSH2 0x3E89 JUMP JUMPDEST PUSH1 0x4 DUP2 MSTORE PUSH32 0x31302E3500000000000000000000000000000000000000000000000000000000 PUSH1 0x20 DUP3 ADD MSTORE SWAP1 JUMP JUMPDEST PUSH2 0x61A7 NOT DUP2 SLT ISZERO PUSH2 0x53C1 JUMPI POP POP PUSH2 0x5387 PUSH2 0x5277 JUMP JUMPDEST SWAP1 PUSH1 0x40 MLOAD PUSH2 0x5394 DUP2 PUSH2 0x3E89 JUMP JUMPDEST PUSH1 0x5 DUP2 MSTORE PUSH32 0x31342E3235000000000000000000000000000000000000000000000000000000 PUSH1 0x20 DUP3 ADD MSTORE SWAP1 JUMP JUMPDEST PUSH2 0x1387 NOT DUP2 SLT ISZERO PUSH2 0x540B JUMPI POP PUSH1 0x40 MLOAD SWAP1 PUSH2 0x53DA DUP3 PUSH2 0x3E89 JUMP JUMPDEST DUP2 MSTORE PUSH32 0x3130000000000000000000000000000000000000000000000000000000000000 PUSH1 0x20 DUP3 ADD MSTORE SWAP1 PUSH2 0x452A PUSH2 0x523E JUMP JUMPDEST PUSH1 0x0 DUP2 SLT ISZERO PUSH2 0x5453 JUMPI POP PUSH1 0x40 MLOAD SWAP1 PUSH2 0x5422 DUP3 PUSH2 0x3E89 JUMP JUMPDEST DUP2 MSTORE PUSH32 0x3131000000000000000000000000000000000000000000000000000000000000 PUSH1 0x20 DUP3 ADD MSTORE SWAP1 PUSH2 0x452A PUSH2 0x5205 JUMP JUMPDEST PUSH2 0x1388 DUP2 SLT ISZERO PUSH2 0x54CD JUMPI POP SWAP1 PUSH1 0x40 MLOAD PUSH2 0x546B DUP2 PUSH2 0x3E89 JUMP JUMPDEST DUP3 DUP2 MSTORE PUSH32 0x3133000000000000000000000000000000000000000000000000000000000000 PUSH1 0x20 DUP3 ADD MSTORE SWAP2 PUSH1 0x40 MLOAD SWAP1 PUSH2 0x54A2 DUP3 PUSH2 0x3E89 JUMP JUMPDEST DUP2 MSTORE PUSH32 0x3233000000000000000000000000000000000000000000000000000000000000 PUSH1 0x20 DUP3 ADD MSTORE SWAP1 JUMP JUMPDEST PUSH2 0x61A8 DUP2 SLT ISZERO PUSH2 0x5547 JUMPI POP SWAP1 PUSH1 0x40 MLOAD PUSH2 0x54E5 DUP2 PUSH2 0x3E89 JUMP JUMPDEST DUP3 DUP2 MSTORE PUSH32 0x3135000000000000000000000000000000000000000000000000000000000000 PUSH1 0x20 DUP3 ADD MSTORE SWAP2 PUSH1 0x40 MLOAD SWAP1 PUSH2 0x551C DUP3 PUSH2 0x3E89 JUMP JUMPDEST DUP2 MSTORE PUSH32 0x3235000000000000000000000000000000000000000000000000000000000000 PUSH1 0x20 DUP3 ADD MSTORE SWAP1 JUMP JUMPDEST PUSH3 0x124F8 DUP2 SLT ISZERO PUSH2 0x5595 JUMPI POP SWAP1 PUSH2 0x555C PUSH2 0x523E JUMP JUMPDEST SWAP2 PUSH1 0x40 MLOAD SWAP1 PUSH2 0x556A DUP3 PUSH2 0x3E89 JUMP JUMPDEST DUP2 MSTORE PUSH32 0x3236000000000000000000000000000000000000000000000000000000000000 PUSH1 0x20 DUP3 ADD MSTORE SWAP1 JUMP JUMPDEST PUSH3 0x1E848 SGT ISZERO PUSH2 0x55B1 JUMPI POP PUSH2 0x55A8 PUSH2 0x5205 JUMP JUMPDEST SWAP1 PUSH2 0x452A PUSH2 0x51CC JUMP JUMPDEST PUSH1 0x40 MLOAD SWAP1 PUSH2 0x55BE DUP3 PUSH2 0x3E89 JUMP JUMPDEST DUP2 MSTORE PUSH32 0x3234000000000000000000000000000000000000000000000000000000000000 PUSH1 0x20 DUP3 ADD MSTORE SWAP1 PUSH2 0x452A PUSH2 0x51CC JUMP INVALID LOG1 PUSH5 0x736F6C6343 STOP ADDMOD EQ STOP EXP "},"methodIdentifiers":{"constructTokenURI(NFTDescriptor.ConstructTokenURIParams)":"c49917d7"}}}}}