{
  "_format": "hh-sol-artifact-1",
  "contractName": "TestPositionNFTOwner",
  "sourceName": "contracts/test/TestPositionNFTOwner.sol",
  "abi": [
    {
      "inputs": [
        {
          "internalType": "bytes32",
          "name": "hash",
          "type": "bytes32"
        },
        {
          "internalType": "bytes",
          "name": "signature",
          "type": "bytes"
        }
      ],
      "name": "isValidSignature",
      "outputs": [
        {
          "internalType": "bytes4",
          "name": "magicValue",
          "type": "bytes4"
        }
      ],
      "stateMutability": "view",
      "type": "function"
    },
    {
      "inputs": [],
      "name": "owner",
      "outputs": [
        {
          "internalType": "address",
          "name": "",
          "type": "address"
        }
      ],
      "stateMutability": "view",
      "type": "function"
    },
    {
      "inputs": [
        {
          "internalType": "address",
          "name": "_owner",
          "type": "address"
        }
      ],
      "name": "setOwner",
      "outputs": [],
      "stateMutability": "nonpayable",
      "type": "function"
    }
  ],
  "bytecode": "0x608060405234801561001057600080fd5b50610361806100206000396000f3fe608060405234801561001057600080fd5b50600436106100415760003560e01c806313af4035146100465780631626ba7e1461009d5780638da5cb5b146100e6575b600080fd5b61009b61005436600461020f565b600080547fffffffffffffffffffffffff00000000000000000000000000000000000000001673ffffffffffffffffffffffffffffffffffffffff92909216919091179055565b005b6100b06100ab36600461027b565b61012b565b6040517fffffffff0000000000000000000000000000000000000000000000000000000090911681526020015b60405180910390f35b6000546101069073ffffffffffffffffffffffffffffffffffffffff1681565b60405173ffffffffffffffffffffffffffffffffffffffff90911681526020016100dd565b6020818101516040808401516060808601516000805485518281529788018087528a905291811a94870185905291860185905260808601839052909491929173ffffffffffffffffffffffffffffffffffffffff9091169060019060a0016020604051602081039080840390855afa1580156101ab573d6000803e3d6000fd5b5050506020604051035173ffffffffffffffffffffffffffffffffffffffff16036101fc57507f1626ba7e000000000000000000000000000000000000000000000000000000009250610209915050565b5060009250610209915050565b92915050565b60006020828403121561022157600080fd5b813573ffffffffffffffffffffffffffffffffffffffff8116811461024557600080fd5b9392505050565b7f4e487b7100000000000000000000000000000000000000000000000000000000600052604160045260246000fd5b6000806040838503121561028e57600080fd5b82359150602083013567ffffffffffffffff808211156102ad57600080fd5b818501915085601f8301126102c157600080fd5b8135818111156102d3576102d361024c565b604051601f82017fffffffffffffffffffffffffffffffffffffffffffffffffffffffffffffffe0908116603f011681019083821181831017156103195761031961024c565b8160405282815288602084870101111561033257600080fd5b826020860160208301376000602084830101528095505050505050925092905056fea164736f6c6343000814000a",
  "linkReferences": {},
  "deployedLinkReferences": {}
}