{
  "_format": "hh-sol-artifact-1",
  "contractName": "EternalVirtualPool",
  "sourceName": "contracts/farmings/EternalVirtualPool.sol",
  "abi": [
    {
      "inputs": [
        {
          "internalType": "address",
          "name": "_farmingAddress",
          "type": "address"
        },
        {
          "internalType": "address",
          "name": "_plugin",
          "type": "address"
        }
      ],
      "stateMutability": "nonpayable",
      "type": "constructor"
    },
    {
      "inputs": [],
      "name": "liquidityAdd",
      "type": "error"
    },
    {
      "inputs": [],
      "name": "liquidityOverflow",
      "type": "error"
    },
    {
      "inputs": [],
      "name": "liquiditySub",
      "type": "error"
    },
    {
      "inputs": [],
      "name": "onlyFarming",
      "type": "error"
    },
    {
      "inputs": [],
      "name": "onlyPlugin",
      "type": "error"
    },
    {
      "inputs": [],
      "name": "tickInvalidLinks",
      "type": "error"
    },
    {
      "inputs": [],
      "name": "tickIsNotInitialized",
      "type": "error"
    },
    {
      "inputs": [
        {
          "internalType": "uint128",
          "name": "token0Amount",
          "type": "uint128"
        },
        {
          "internalType": "uint128",
          "name": "token1Amount",
          "type": "uint128"
        }
      ],
      "name": "addRewards",
      "outputs": [],
      "stateMutability": "nonpayable",
      "type": "function"
    },
    {
      "inputs": [
        {
          "internalType": "int24",
          "name": "bottomTick",
          "type": "int24"
        },
        {
          "internalType": "int24",
          "name": "topTick",
          "type": "int24"
        },
        {
          "internalType": "int128",
          "name": "liquidityDelta",
          "type": "int128"
        },
        {
          "internalType": "int24",
          "name": "currentTick",
          "type": "int24"
        }
      ],
      "name": "applyLiquidityDeltaToPosition",
      "outputs": [],
      "stateMutability": "nonpayable",
      "type": "function"
    },
    {
      "inputs": [
        {
          "internalType": "int24",
          "name": "targetTick",
          "type": "int24"
        },
        {
          "internalType": "bool",
          "name": "zeroToOne",
          "type": "bool"
        }
      ],
      "name": "crossTo",
      "outputs": [
        {
          "internalType": "bool",
          "name": "",
          "type": "bool"
        }
      ],
      "stateMutability": "nonpayable",
      "type": "function"
    },
    {
      "inputs": [],
      "name": "currentLiquidity",
      "outputs": [
        {
          "internalType": "uint128",
          "name": "",
          "type": "uint128"
        }
      ],
      "stateMutability": "view",
      "type": "function"
    },
    {
      "inputs": [],
      "name": "deactivate",
      "outputs": [],
      "stateMutability": "nonpayable",
      "type": "function"
    },
    {
      "inputs": [],
      "name": "deactivated",
      "outputs": [
        {
          "internalType": "bool",
          "name": "",
          "type": "bool"
        }
      ],
      "stateMutability": "view",
      "type": "function"
    },
    {
      "inputs": [
        {
          "internalType": "uint128",
          "name": "token0Amount",
          "type": "uint128"
        },
        {
          "internalType": "uint128",
          "name": "token1Amount",
          "type": "uint128"
        }
      ],
      "name": "decreaseRewards",
      "outputs": [],
      "stateMutability": "nonpayable",
      "type": "function"
    },
    {
      "inputs": [],
      "name": "distributeRewards",
      "outputs": [],
      "stateMutability": "nonpayable",
      "type": "function"
    },
    {
      "inputs": [],
      "name": "farmingAddress",
      "outputs": [
        {
          "internalType": "address",
          "name": "",
          "type": "address"
        }
      ],
      "stateMutability": "view",
      "type": "function"
    },
    {
      "inputs": [
        {
          "internalType": "int24",
          "name": "bottomTick",
          "type": "int24"
        },
        {
          "internalType": "int24",
          "name": "topTick",
          "type": "int24"
        }
      ],
      "name": "getInnerRewardsGrowth",
      "outputs": [
        {
          "internalType": "uint256",
          "name": "rewardGrowthInside0",
          "type": "uint256"
        },
        {
          "internalType": "uint256",
          "name": "rewardGrowthInside1",
          "type": "uint256"
        }
      ],
      "stateMutability": "view",
      "type": "function"
    },
    {
      "inputs": [],
      "name": "globalTick",
      "outputs": [
        {
          "internalType": "int24",
          "name": "",
          "type": "int24"
        }
      ],
      "stateMutability": "view",
      "type": "function"
    },
    {
      "inputs": [],
      "name": "plugin",
      "outputs": [
        {
          "internalType": "address",
          "name": "",
          "type": "address"
        }
      ],
      "stateMutability": "view",
      "type": "function"
    },
    {
      "inputs": [],
      "name": "prevTimestamp",
      "outputs": [
        {
          "internalType": "uint32",
          "name": "",
          "type": "uint32"
        }
      ],
      "stateMutability": "view",
      "type": "function"
    },
    {
      "inputs": [],
      "name": "rewardRates",
      "outputs": [
        {
          "internalType": "uint128",
          "name": "rate0",
          "type": "uint128"
        },
        {
          "internalType": "uint128",
          "name": "rate1",
          "type": "uint128"
        }
      ],
      "stateMutability": "view",
      "type": "function"
    },
    {
      "inputs": [],
      "name": "rewardReserves",
      "outputs": [
        {
          "internalType": "uint128",
          "name": "reserve0",
          "type": "uint128"
        },
        {
          "internalType": "uint128",
          "name": "reserve1",
          "type": "uint128"
        }
      ],
      "stateMutability": "view",
      "type": "function"
    },
    {
      "inputs": [
        {
          "internalType": "uint128",
          "name": "rate0",
          "type": "uint128"
        },
        {
          "internalType": "uint128",
          "name": "rate1",
          "type": "uint128"
        }
      ],
      "name": "setRates",
      "outputs": [],
      "stateMutability": "nonpayable",
      "type": "function"
    },
    {
      "inputs": [
        {
          "internalType": "int24",
          "name": "tickId",
          "type": "int24"
        }
      ],
      "name": "ticks",
      "outputs": [
        {
          "internalType": "uint256",
          "name": "liquidityTotal",
          "type": "uint256"
        },
        {
          "internalType": "int128",
          "name": "liquidityDelta",
          "type": "int128"
        },
        {
          "internalType": "int24",
          "name": "prevTick",
          "type": "int24"
        },
        {
          "internalType": "int24",
          "name": "nextTick",
          "type": "int24"
        },
        {
          "internalType": "uint256",
          "name": "outerFeeGrowth0Token",
          "type": "uint256"
        },
        {
          "internalType": "uint256",
          "name": "outerFeeGrowth1Token",
          "type": "uint256"
        }
      ],
      "stateMutability": "view",
      "type": "function"
    },
    {
      "inputs": [],
      "name": "totalRewardGrowth",
      "outputs": [
        {
          "internalType": "uint256",
          "name": "rewardGrowth0",
          "type": "uint256"
        },
        {
          "internalType": "uint256",
          "name": "rewardGrowth1",
          "type": "uint256"
        }
      ],
      "stateMutability": "view",
      "type": "function"
    }
  ],
  "bytecode": "0x60c0604052600160075560016008553480156200001b57600080fd5b506040516200232838038062002328833981810160405260408110156200004157600080fd5b508051602090910151620000566000620000d2565b6001600160a01b03828116608052811660a0526004805462ffffff63ffffffff60c81b011916600160c81b4263ffffffff160262ffffff19161762f27618179055620000a6620d89e719620001c8565b6004805462ffffff9290921663010000000265ffffff0000001990921691909117905550620001f99050565b620d89e719620000e281620001c8565b620d89e7196000818152602085905260409020600101805465ffffffffffff60801b1916600160981b62ffffff9485160262ffffff60801b191617600160801b9490931693909302919091179091556200013c81620001c8565b8260006200014e620d89e719620001c8565b60020b60020b81526020019081526020016000206001016010846000620d89e7196200017a90620001c8565b60020b81526020810191909152604001600020600101805462ffffff948516600160981b0262ffffff60981b1990911617905581549383166101009190910a90810292021990921617905550565b60008160020b627fffff198103620001f057634e487b7160e01b600052601160045260246000fd5b60000392915050565b60805160a0516120fb6200022d6000396000818161044101526107e801526000818161028c015261132401526120fb6000f3fe608060405234801561001057600080fd5b50600436106101365760003560e01c80638e76c332116100b2578063d6b83ede11610081578063f0de822811610066578063f0de822814610463578063f30dba9314610495578063fddf08e51461054c57600080fd5b8063d6b83ede14610401578063ef01df4f1461043c57600080fd5b80638e76c332146102d7578063a88a5c1614610315578063ca16ca7e14610384578063d576dfc0146103bb57600080fd5b8063556ed30e116101095780636f4a2cd0116100ee5780636f4a2cd0146102485780637f463bb8146102505780638a2ade581461028757600080fd5b8063556ed30e1461020f5780635e075b531461023d57600080fd5b80630bd6f2001461013b57806334d335901461017e57806346caf2ae146101ba57806351b42b0014610205575b600080fd5b6101656004803603604081101561015157600080fd5b508035600290810b9160200135900b610583565b6040805192835260208301919091528051918290030190f35b6101a66004803603604081101561019457600080fd5b50803560020b906020013515156107ce565b604080519115158252519081900360200190f35b6004546101e090660100000000000090046fffffffffffffffffffffffffffffffff1681565b604080516fffffffffffffffffffffffffffffffff9092168252519081900360200190f35b61020d610c17565b005b6004546101a6907d010000000000000000000000000000000000000000000000000000000000900460ff1681565b600754600854610165565b61020d610c69565b61020d6004803603604081101561026657600080fd5b506fffffffffffffffffffffffffffffffff81358116916020013516610c7b565b6102ae7f000000000000000000000000000000000000000000000000000000000000000081565b6040805173ffffffffffffffffffffffffffffffffffffffff9092168252519081900360200190f35b6004546102fe90760100000000000000000000000000000000000000000000900460020b81565b6040805160029290920b8252519081900360200190f35b6005546fffffffffffffffffffffffffffffffff808216917001000000000000000000000000000000009004165b60405180836fffffffffffffffffffffffffffffffff168152602001826fffffffffffffffffffffffffffffffff1681526020019250505060405180910390f35b61020d6004803603604081101561039a57600080fd5b506fffffffffffffffffffffffffffffffff81358116916020013516610cdc565b6004546103e890790100000000000000000000000000000000000000000000000000900463ffffffff1681565b6040805163ffffffff9092168252519081900360200190f35b61020d6004803603608081101561041757600080fd5b508035600290810b916020810135820b916040820135600f0b9160600135900b610cf4565b6102ae7f000000000000000000000000000000000000000000000000000000000000000081565b6006546fffffffffffffffffffffffffffffffff80821691700100000000000000000000000000000000900416610343565b610510600480360360208110156104ab57600080fd5b50600060208190529035600290810b8252604090912080546001820154828401546003909301549193600f82900b937001000000000000000000000000000000008304820b9373010000000000000000000000000000000000000090930490910b9186565b60408051968752600f9590950b6020870152600293840b868601529190920b6060850152608084019190915260a0830152519081900360c00190f35b61020d6004803603604081101561056257600080fd5b506fffffffffffffffffffffffffffffffff81358116916020013516610f0c565b600282810b600090815260208190526040812060010154909182917001000000000000000000000000000000008104820b73010000000000000000000000000000000000000090910490910b14806106205750600283810b6000908152602081905260409020600101547001000000000000000000000000000000008104820b73010000000000000000000000000000000000000090910490910b145b15610657576040517f0d6e094900000000000000000000000000000000000000000000000000000000815260040160405180910390fd5b60045460075460085463ffffffff79010000000000000000000000000000000000000000000000000084048116420393760100000000000000000000000000000000000000000000900460020b9291908416156107af57600454660100000000000090046fffffffffffffffffffffffffffffffff1680156107ad5760055460065463ffffffff87166fffffffffffffffffffffffffffffffff8084168202811693700100000000000000000000000000000000908190048216909202811692818116929004168184111561072a578193505b80831115610736578092505b831561076f5761076a84700100000000000000000000000000000000876fffffffffffffffffffffffffffffffff16610f20565b870196505b82156107a8576107a383700100000000000000000000000000000000876fffffffffffffffffffffffffffffffff16610f20565b860195505b505050505b505b6107be60008989868686610fd8565b95509550505050505b9250929050565b60003373ffffffffffffffffffffffffffffffffffffffff7f0000000000000000000000000000000000000000000000000000000000000000161461083f576040517f545acb2400000000000000000000000000000000000000000000000000000000815260040160405180910390fd5b6004546fffffffffffffffffffffffffffffffff6601000000000000820416907601000000000000000000000000000000000000000000008104600290810b9163ffffffff7901000000000000000000000000000000000000000000000000008204169160ff7d0100000000000000000000000000000000000000000000000000000000008304169180820b916301000000909104900b82156108eb5760009650505050505050610c11565b600285810b908a900b1380159061091e578260020b8a60020b12610919576001975050505050505050610c11565b61093c565b8160020b8a60020b121561093c576001975050505050505050610c11565b881515811515146109a0575050600480547fffff00ffffffffffffffffffffffffffffffffffffffffffffffffffffffffff167d0100000000000000000000000000000000000000000000000000000000001790555060009450610c119350505050565b6109bc85886fffffffffffffffffffffffffffffffff16611076565b6007546008548a15610a8d575b600288900b7ffffffffffffffffffffffffffffffffffffffffffffffffffffffffffff2761814610a88578460020b8c60020b1215610b3a57600285810b600090815260208190526040812060038101805482850180548803905585039055600101547fffffffffffffffffffffffffffffffffffffffffffffffffffffffffffffffff88019a50700100000000000000000000000000000000810490920b969550600f9190910b90610a80908b90839003611245565b9950506109c9565b610b3a565b6001610ab87ffffffffffffffffffffffffffffffffffffffffffffffffffffffffffff27618611fce565b610ac2919061200c565b60020b8860020b14610b3a578360020b8c60020b12610b3a57600284810b600090815260208190526040902060038101805482840180548703905584039055600101549498508895507301000000000000000000000000000000000000008504900b93600f0b610b328a82611245565b995050610a8d565b50506004805462ffffff9384166301000000027fffffffffffffffffffffffffffffffffffffffffffffffffffff000000000000858e16760100000000000000000000000000000000000000000000027fffffffffffffff000000ffffffffffffffffffffffffffffffffffffffffffff6fffffffffffffffffffffffffffffffff909c166601000000000000029b909b167fffffffffffffff00000000000000000000000000000000000000ffffffffffff90931692909217999099171693909216929092179590951790945550600193505050505b92915050565b610c1f61130c565b600480547fffff00ffffffffffffffffffffffffffffffffffffffffffffffffffffffffff167d010000000000000000000000000000000000000000000000000000000000179055565b610c7161130c565b610c7961137b565b565b610c8361130c565b610c8b61137b565b6fffffffffffffffffffffffffffffffff9182169116700100000000000000000000000000000000027fffffffffffffffffffffffffffffffff000000000000000000000000000000001617600555565b610ce461130c565b610cf0600083836113c7565b5050565b610cfc61130c565b6004546fffffffffffffffffffffffffffffffff66010000000000008204169063ffffffff7901000000000000000000000000000000000000000000000000008204169060ff7d0100000000000000000000000000000000000000000000000000000000008204169063010000008104600290810b91900b82610dd557610d848682846114a7565b610dd557600480547fffff00ffffffffffffffffffffffffffffffffffffffffffffffffffffffffff167d010000000000000000000000000000000000000000000000000000000000179055600192505b50508015610de557505050610f06565b600480547fffffffffffffff000000ffffffffffffffffffffffffffffffffffffffffffff1676010000000000000000000000000000000000000000000062ffffff87160217905563ffffffff82164263ffffffff161115610e5d57610e5d82846fffffffffffffffffffffffffffffffff16611076565b84600f0b600014610f02576000610e7788868860006114cc565b90506000610e8888878960016114cc565b9050610e95868a8a6114a7565b15610edd57610ea48588611245565b600460066101000a8154816fffffffffffffffffffffffffffffffff02191690836fffffffffffffffffffffffffffffffff1602179055505b8180610ee65750805b15610eff57610eff898984848a60008d600f0b126114f0565b50505b5050505b50505050565b610f1461130c565b610cf0600183836113c7565b6000838302817fffffffffffffffffffffffffffffffffffffffffffffffffffffffffffffffff85870982811083820303915050808411610f6057600080fd5b80600003610f7357508290049050610fd1565b8385870960008581038616958690049560026003880281188089028203028089028203028089028203028089028203028089028203028089029091030291819003819004600101858411909403939093029190930391909104170290505b9392505050565b600285810b60009081526020889052604080822087840b8084529183209293849391929088900b121561104e578860020b8760020b1261102957816002015486039350816003015485039250611038565b81600201549350816003015492505b6002810154600382015494039390920391611069565b81600201548160020154039350816003015481600301540392505b5050965096945050505050565b63ffffffff4283900316600081900361108e57505050565b81156111f4576005546006546fffffffffffffffffffffffffffffffff8083168402927001000000000000000000000000000000009081900482168502928083169291900416818411156110f257816fffffffffffffffffffffffffffffffff1693505b806fffffffffffffffffffffffffffffffff1683111561112257806fffffffffffffffffffffffffffffffff1692505b838317156111ef576fffffffffffffffffffffffffffffffff91821684900391168290038315611172576111688470010000000000000000000000000000000088610f20565b6007805490910190555b821561119e576111948370010000000000000000000000000000000088610f20565b6008805490910190555b6fffffffffffffffffffffffffffffffff808316908216700100000000000000000000000000000000027fffffffffffffffffffffffffffffffff0000000000000000000000000000000016176006555b505050505b5050600480547fffffff00000000ffffffffffffffffffffffffffffffffffffffffffffffffff167901000000000000000000000000000000000000000000000000004263ffffffff160217905550565b60008082600f0b12156112a957508082016fffffffffffffffffffffffffffffffff808416908216106112a4576040517f1301f74800000000000000000000000000000000000000000000000000000000815260040160405180910390fd5b610c11565b826fffffffffffffffffffffffffffffffff168284019150816fffffffffffffffffffffffffffffffff161015610c11576040517f997402f200000000000000000000000000000000000000000000000000000000815260040160405180910390fd5b3373ffffffffffffffffffffffffffffffffffffffff7f00000000000000000000000000000000000000000000000000000000000000001614610c79576040517fae74b17800000000000000000000000000000000000000000000000000000000815260040160405180910390fd5b600454610c7990790100000000000000000000000000000000000000000000000000810463ffffffff1690660100000000000090046fffffffffffffffffffffffffffffffff16611076565b6113cf61137b565b6fffffffffffffffffffffffffffffffff82821716156114a2576006546fffffffffffffffffffffffffffffffff80821691700100000000000000000000000000000000900416841561143957611426848361204d565b9150611432838261204d565b9050611452565b611443848361207d565b915061144f838261207d565b90505b6fffffffffffffffffffffffffffffffff9182169116700100000000000000000000000000000000027fffffffffffffffffffffffffffffffff0000000000000000000000000000000016176006555b505050565b60008260020b8460020b121580156114c457508160020b8460020b125b949350505050565b6007546008546000916114e79183918891889188918861161f565b95945050505050565b600454600154600282810b9263010000009004900b9063ffffffff16828282891561152b576115238c898386868c611753565b919450925090505b88156115475761153f8b898386868c611753565b919450925090505b8260020b8660020b14158061156257508160020b8560020b14155b8061157957508363ffffffff168163ffffffff1614155b1561161157600180547fffffffffffffffffffffffffffffffffffffffffffffffffffffffff000000001663ffffffff8316179055600480547fffffffffffffffffffffffffffffffffffffffffffffffffffff00000000000016630100000062ffffff858116919091027fffffffffffffffffffffffffffffffffffffffffffffffffffffffffff00000016919091179085161790555b505050505050505050505050565b600286900b600090815260208890526040812080548261163f8289611245565b6fffffffffffffffffffffffffffffffff1690506d09745258e83de0d0f4e400fce79981111561169b576040517f25b8364a00000000000000000000000000000000000000000000000000000000815260040160405180910390fd5b6001830154600f0b856116bf5788600f0b81600f0b6116ba91906120a6565b6116d1565b88600f0b81600f0b6116d191906120ce565b6001850180547fffffffffffffffffffffffffffffffff00000000000000000000000000000000166fffffffffffffffffffffffffffffffff9290921691909117905581845581159450600083900361174457841594508960020b8b60020b136117445760038401879055600284018890555b50505050979650505050505050565b6000806000831561179c5760008061176b818c611854565b915091508a60020b8860020b0361178457819750611795565b8a60020b8760020b03611795578096505b5050611832565b6000808a60020b8860020b1280156117b957508a60020b8760020b135b156117e257508690508560028a810b908c900b13156117da578a9650611822565b8a9750611822565b6117f0600360028b8e611aca565b600281810b6000908152602081905260409020600101547001000000000000000000000000000000009004900b925090505b61182f60008c8484611ba7565b50505b6000611842600360028a8d611d53565b969a9599509597509395505050505050565b600281810b60008181526020859052604081206001810180548383557fffffffffffffffffffff0000000000000000000000000000000000000000000081169091558185018390556003909101919091557001000000000000000000000000000000008104830b92730100000000000000000000000000000000000000909104900b907ffffffffffffffffffffffffffffffffffffffffffffffffffffffffffff27618148061193157506119287ffffffffffffffffffffffffffffffffffffffffffffffffffffffffffff27618611fce565b60020b8360020b145b156119d657600283900b6000908152602085905260409020600101805462ffffff808516700100000000000000000000000000000000027fffffffffffffffffffffffffff000000ffffffffffffffffffffffffffffffff91851673010000000000000000000000000000000000000002919091167fffffffffffffffffffff000000000000ffffffffffffffffffffffffffffffff909216919091171790556107c7565b8060020b8260020b03611a15576040517f0d6e094900000000000000000000000000000000000000000000000000000000815260040160405180910390fd5b600282810b6000908152602086905260408082206001908101805462ffffff808816730100000000000000000000000000000000000000027fffffffffffffffffffff000000ffffffffffffffffffffffffffffffffffffff909216919091179091559385900b83529120018054918416700100000000000000000000000000000000027fffffffffffffffffffffffffff000000ffffffffffffffffffffffffffffffff9092169190911790559250929050565b600190810190600090600883811d610d8a01901c90829061ffff83161b851663ffffffff1615611b2d57611afe8785611deb565b90945090925090508015611b135750506114c4565b611b2486610d8b840160010b611deb565b90945090925090505b80611b7057611b4b8563ffffffff168360010193508360010b611e1c565b909350905080611b635750620d89e891506114c49050565b611b6d8684611f73565b92505b611b9c877ffffffffffffffffffffffffffffffffffffffffffffffffffffffffffffff2768501611f73565b979650505050505050565b600283900b7ffffffffffffffffffffffffffffffffffffffffffffffffffffffffffff276181480611c065750611bfd7ffffffffffffffffffffffffffffffffffffffffffffffffffffffffffff27618611fce565b60020b8360020b145b610f06578260020b8260020b128015611c2457508260020b8160020b135b611c5a576040517fe45ac17d00000000000000000000000000000000000000000000000000000000815260040160405180910390fd5b600283810b60009081526020959095526040808620600190810180547fffffffffffffffffffff000000000000ffffffffffffffffffffffffffffffff1673010000000000000000000000000000000000000062ffffff87811682027fffffffffffffffffffffffffff000000ffffffffffffffffffffffffffffffff908116939093177001000000000000000000000000000000008a831681029190911790945597860b8a52848a20840180547fffffffffffffffffffff000000ffffffffffffffffffffffffffffffffffffff1698909916908102979097179097559390920b865290942090930180549092169202919091179055565b81600080611d908785600881901d600181810b60009081526020949094526040909320805460ff9093169390931b80831890935591811490151891565b915091508115611de157610d8a01600181810b60081d80820b6000908152602089905260409020805460ff9094169290921b808418909255821591909214818118935014611de1576001811b831892505b5050949350505050565b600881901d600181900b6000908152602084905260408120548190611e109085611e1c565b93969095509293505050565b60008060ff831684811c808303611e38578460ff179350611f6a565b7f555555555555555555555555555555555555555555555555555555555555555560008290038216908116156fffffffffffffffffffffffffffffffff82161560071b1777ffffffffffffffff0000000000000000ffffffffffffffff82161560061b177bffffffff00000000ffffffff00000000ffffffff00000000ffffffff82161560051b177dffff0000ffff0000ffff0000ffff0000ffff0000ffff0000ffff0000ffff82161560041b177eff00ff00ff00ff00ff00ff00ff00ff00ff00ff00ff00ff00ff00ff00ff00ff82161560031b177f0f0f0f0f0f0f0f0f0f0f0f0f0f0f0f0f0f0f0f0f0f0f0f0f0f0f0f0f0f0f0f0f82161560021b177f33333333333333333333333333333333333333333333333333333333333333339091161560011b1760ff1685019350600192505b50509250929050565b600181900b600090815260208390526040902054600882901b90611f979082611e1c565b509392505050565b7f4e487b7100000000000000000000000000000000000000000000000000000000600052601160045260246000fd5b60008160020b7fffffffffffffffffffffffffffffffffffffffffffffffffffffffffff800000810361200357612003611f9f565b60000392915050565b600282810b9082900b037fffffffffffffffffffffffffffffffffffffffffffffffffffffffffff8000008112627fffff82131715610c1157610c11611f9f565b6fffffffffffffffffffffffffffffffff81811683821601908082111561207657612076611f9f565b5092915050565b6fffffffffffffffffffffffffffffffff82811682821603908082111561207657612076611f9f565b80820182811260008312801582168215821617156120c6576120c6611f9f565b505092915050565b818103600083128015838313168383128216171561207657612076611f9f56fea164736f6c6343000814000a",
  "linkReferences": {},
  "deployedLinkReferences": {}
}