{
  "_format": "hh-sol-artifact-1",
  "contractName": "TestERC20",
  "sourceName": "contracts/test/TestERC20.sol",
  "abi": [
    {
      "inputs": [
        {
          "internalType": "uint256",
          "name": "amountToMint",
          "type": "uint256"
        }
      ],
      "stateMutability": "nonpayable",
      "type": "constructor"
    },
    {
      "anonymous": false,
      "inputs": [
        {
          "indexed": true,
          "internalType": "address",
          "name": "owner",
          "type": "address"
        },
        {
          "indexed": true,
          "internalType": "address",
          "name": "spender",
          "type": "address"
        },
        {
          "indexed": false,
          "internalType": "uint256",
          "name": "value",
          "type": "uint256"
        }
      ],
      "name": "Approval",
      "type": "event"
    },
    {
      "anonymous": false,
      "inputs": [
        {
          "indexed": true,
          "internalType": "address",
          "name": "from",
          "type": "address"
        },
        {
          "indexed": true,
          "internalType": "address",
          "name": "to",
          "type": "address"
        },
        {
          "indexed": false,
          "internalType": "uint256",
          "name": "value",
          "type": "uint256"
        }
      ],
      "name": "Transfer",
      "type": "event"
    },
    {
      "inputs": [
        {
          "internalType": "address",
          "name": "",
          "type": "address"
        },
        {
          "internalType": "address",
          "name": "",
          "type": "address"
        }
      ],
      "name": "allowance",
      "outputs": [
        {
          "internalType": "uint256",
          "name": "",
          "type": "uint256"
        }
      ],
      "stateMutability": "view",
      "type": "function"
    },
    {
      "inputs": [
        {
          "internalType": "address",
          "name": "spender",
          "type": "address"
        },
        {
          "internalType": "uint256",
          "name": "amount",
          "type": "uint256"
        }
      ],
      "name": "approve",
      "outputs": [
        {
          "internalType": "bool",
          "name": "",
          "type": "bool"
        }
      ],
      "stateMutability": "nonpayable",
      "type": "function"
    },
    {
      "inputs": [
        {
          "internalType": "address",
          "name": "",
          "type": "address"
        }
      ],
      "name": "balanceOf",
      "outputs": [
        {
          "internalType": "uint256",
          "name": "",
          "type": "uint256"
        }
      ],
      "stateMutability": "view",
      "type": "function"
    },
    {
      "inputs": [
        {
          "internalType": "address",
          "name": "to",
          "type": "address"
        },
        {
          "internalType": "uint256",
          "name": "amount",
          "type": "uint256"
        }
      ],
      "name": "mint",
      "outputs": [],
      "stateMutability": "nonpayable",
      "type": "function"
    },
    {
      "inputs": [
        {
          "internalType": "bool",
          "name": "_isDeflationary",
          "type": "bool"
        },
        {
          "internalType": "uint128",
          "name": "percent",
          "type": "uint128"
        }
      ],
      "name": "setDefl",
      "outputs": [],
      "stateMutability": "nonpayable",
      "type": "function"
    },
    {
      "inputs": [
        {
          "internalType": "uint256",
          "name": "_nextTransferAmount",
          "type": "uint256"
        }
      ],
      "name": "setNextTransferAmount",
      "outputs": [],
      "stateMutability": "nonpayable",
      "type": "function"
    },
    {
      "inputs": [
        {
          "internalType": "address",
          "name": "recipient",
          "type": "address"
        },
        {
          "internalType": "uint256",
          "name": "amount",
          "type": "uint256"
        }
      ],
      "name": "transfer",
      "outputs": [
        {
          "internalType": "bool",
          "name": "",
          "type": "bool"
        }
      ],
      "stateMutability": "nonpayable",
      "type": "function"
    },
    {
      "inputs": [
        {
          "internalType": "address",
          "name": "sender",
          "type": "address"
        },
        {
          "internalType": "address",
          "name": "recipient",
          "type": "address"
        },
        {
          "internalType": "uint256",
          "name": "amount",
          "type": "uint256"
        }
      ],
      "name": "transferFrom",
      "outputs": [
        {
          "internalType": "bool",
          "name": "",
          "type": "bool"
        }
      ],
      "stateMutability": "nonpayable",
      "type": "function"
    }
  ],
  "bytecode": "0x6080604052600280546001600160881b03191661050017905534801561002457600080fd5b50604051610bb4380380610bb48339818101604052602081101561004757600080fd5b50516100533382610059565b5061010e565b6001600160a01b03821660009081526020819052604081205461007d9083906100e7565b9050818110156100c7576040805162461bcd60e51b815260206004820152601060248201526f6f766572666c6f772062616c616e636560801b604482015290519081900360640190fd5b6001600160a01b0390921660009081526020819052604090209190915550565b8082018082111561010857634e487b7160e01b600052601160045260246000fd5b92915050565b610a978061011d6000396000f3fe608060405234801561001057600080fd5b50600436106100885760003560e01c806370a082311161005b57806370a08231146101b1578063a9059cbb14610203578063dd62ed3e1461023c578063e98cd1f21461028d57600080fd5b8063095ea7b31461008d57806321c4d1f6146100da57806323b872dd1461013557806340c10f1914610178575b600080fd5b6100c6600480360360408110156100a357600080fd5b5073ffffffffffffffffffffffffffffffffffffffff8135169060200135610316565b604080519115158252519081900360200190f35b610133600480360360208110156100f057600080fd5b5035600280547fffffffffffffffffffffffffffff00ffffffffffffffffffffffffffffffffff1671010000000000000000000000000000000000179055600355565b005b6100c66004803603606081101561014b57600080fd5b5073ffffffffffffffffffffffffffffffffffffffff81358116916020810135909116906040013561038a565b6101336004803603604081101561018e57600080fd5b5073ffffffffffffffffffffffffffffffffffffffff81351690602001356106fb565b6101f1600480360360208110156101c757600080fd5b5060006020819052903573ffffffffffffffffffffffffffffffffffffffff168152604090205481565b60408051918252519081900360200190f35b6100c66004803603604081101561021957600080fd5b5073ffffffffffffffffffffffffffffffffffffffff81351690602001356107ca565b6101f16004803603604081101561025257600080fd5b506001602090815273ffffffffffffffffffffffffffffffffffffffff82358116600090815260408082208452929093013516825290205481565b610133600480360360408110156102a357600080fd5b50600280546fffffffffffffffffffffffffffffffff60208401351661010002923515157fffffffffffffffffffffffffffffff00000000000000000000000000000000ff167fffffffffffffffffffffffffffffff000000000000000000000000000000000090911617919091179055565b33600081815260016020908152604080832073ffffffffffffffffffffffffffffffffffffffff8716808552908352818420869055815186815291519394909390927f8c5be1e5ebec7d5bd14f71427d1e84f3dd0314c0f7b2291e5b200ac8c7c3b925928290030190a35060015b92915050565b73ffffffffffffffffffffffffffffffffffffffff831660009081526001602090815260408083203384529091528120548281101561042a57604080517f08c379a000000000000000000000000000000000000000000000000000000000815260206004820152601660248201527f616c6c6f77616e636520696e73756666696369656e7400000000000000000000604482015290519081900360640190fd5b6104348382610a12565b73ffffffffffffffffffffffffffffffffffffffff808716600090815260016020908152604080832033845282528083209490945591871681529081905220548061047f8582610a25565b10156104ec57604080517f08c379a000000000000000000000000000000000000000000000000000000000815260206004820152601a60248201527f6f766572666c6f772062616c616e636520726563697069656e74000000000000604482015290519081900360640190fd5b60025471010000000000000000000000000000000000900460ff161561054057600380546000909155600280547fffffffffffffffffffffffffffff00ffffffffffffffffffffffffffffffffff16905593505b60025460ff1661057f576105548482610a25565b73ffffffffffffffffffffffffffffffffffffffff86166000908152602081905260409020556105eb565b6002546064906105a69061010090046fffffffffffffffffffffffffffffffff1686610a38565b6105b09190610a4f565b6105ba9085610a12565b6105c49082610a25565b73ffffffffffffffffffffffffffffffffffffffff86166000908152602081905260409020555b73ffffffffffffffffffffffffffffffffffffffff86166000908152602081905260409020548481101561068057604080517f08c379a000000000000000000000000000000000000000000000000000000000815260206004820152601860248201527f756e646572666c6f772062616c616e63652073656e6465720000000000000000604482015290519081900360640190fd5b61068a8582610a12565b73ffffffffffffffffffffffffffffffffffffffff808916600081815260208181526040918290209490945580518981529051928a169391927fddf252ad1be2c89b69c2b068fc378daa952ba7f163c4a11628f55a4df523b3ef929181900390910190a35060019695505050505050565b73ffffffffffffffffffffffffffffffffffffffff821660009081526020819052604081205461072c908390610a25565b90508181101561079d57604080517f08c379a000000000000000000000000000000000000000000000000000000000815260206004820152601060248201527f6f766572666c6f772062616c616e636500000000000000000000000000000000604482015290519081900360640190fd5b73ffffffffffffffffffffffffffffffffffffffff90921660009081526020819052604090209190915550565b336000908152602081905260408120548281101561084957604080517f08c379a000000000000000000000000000000000000000000000000000000000815260206004820152601460248201527f696e73756666696369656e742062616c616e6365000000000000000000000000604482015290519081900360640190fd5b6108538382610a12565b336000908152602081905260408082209290925573ffffffffffffffffffffffffffffffffffffffff8616815220548061088d8582610a25565b10156108fa57604080517f08c379a000000000000000000000000000000000000000000000000000000000815260206004820152601a60248201527f726563697069656e742062616c616e6365206f766572666c6f77000000000000604482015290519081900360640190fd5b60025460ff166109395761090e8482610a25565b73ffffffffffffffffffffffffffffffffffffffff861660009081526020819052604090205561098b565b6064610946856005610a38565b6109509190610a4f565b61095a9085610a12565b6109649082610a25565b73ffffffffffffffffffffffffffffffffffffffff86166000908152602081905260409020555b60408051858152905173ffffffffffffffffffffffffffffffffffffffff87169133917fddf252ad1be2c89b69c2b068fc378daa952ba7f163c4a11628f55a4df523b3ef9181900360200190a3506001949350505050565b7f4e487b7100000000000000000000000000000000000000000000000000000000600052601160045260246000fd5b81810381811115610384576103846109e3565b80820180821115610384576103846109e3565b8082028115828204841417610384576103846109e3565b600082610a85577f4e487b7100000000000000000000000000000000000000000000000000000000600052601260045260246000fd5b50049056fea164736f6c6343000814000a",
  "linkReferences": {},
  "deployedLinkReferences": {}
}