{
  "_format": "hh-sol-artifact-1",
  "contractName": "PropBalancesEchidnaTest",
  "sourceName": "contracts/test/echidna/PoolMockEchidna/PropBalancesEchidnaTest.sol",
  "abi": [
    {
      "inputs": [],
      "name": "alreadyInitialized",
      "type": "error"
    },
    {
      "inputs": [],
      "name": "arithmeticError",
      "type": "error"
    },
    {
      "inputs": [],
      "name": "bottomTickLowerThanMIN",
      "type": "error"
    },
    {
      "inputs": [],
      "name": "dynamicFeeActive",
      "type": "error"
    },
    {
      "inputs": [],
      "name": "dynamicFeeDisabled",
      "type": "error"
    },
    {
      "inputs": [],
      "name": "flashInsufficientPaid0",
      "type": "error"
    },
    {
      "inputs": [],
      "name": "flashInsufficientPaid1",
      "type": "error"
    },
    {
      "inputs": [],
      "name": "incorrectPluginFee",
      "type": "error"
    },
    {
      "inputs": [],
      "name": "insufficientInputAmount",
      "type": "error"
    },
    {
      "inputs": [],
      "name": "invalidAmountRequired",
      "type": "error"
    },
    {
      "inputs": [
        {
          "internalType": "bytes4",
          "name": "expectedSelector",
          "type": "bytes4"
        }
      ],
      "name": "invalidHookResponse",
      "type": "error"
    },
    {
      "inputs": [],
      "name": "invalidLimitSqrtPrice",
      "type": "error"
    },
    {
      "inputs": [],
      "name": "invalidNewCommunityFee",
      "type": "error"
    },
    {
      "inputs": [],
      "name": "invalidNewTickSpacing",
      "type": "error"
    },
    {
      "inputs": [],
      "name": "liquidityAdd",
      "type": "error"
    },
    {
      "inputs": [],
      "name": "liquidityOverflow",
      "type": "error"
    },
    {
      "inputs": [],
      "name": "liquiditySub",
      "type": "error"
    },
    {
      "inputs": [],
      "name": "locked",
      "type": "error"
    },
    {
      "inputs": [],
      "name": "notAllowed",
      "type": "error"
    },
    {
      "inputs": [],
      "name": "notInitialized",
      "type": "error"
    },
    {
      "inputs": [],
      "name": "pluginIsNotConnected",
      "type": "error"
    },
    {
      "inputs": [],
      "name": "priceOutOfRange",
      "type": "error"
    },
    {
      "inputs": [],
      "name": "tickInvalidLinks",
      "type": "error"
    },
    {
      "inputs": [],
      "name": "tickIsNotInitialized",
      "type": "error"
    },
    {
      "inputs": [],
      "name": "tickIsNotSpaced",
      "type": "error"
    },
    {
      "inputs": [],
      "name": "tickOutOfRange",
      "type": "error"
    },
    {
      "inputs": [],
      "name": "topTickAboveMAX",
      "type": "error"
    },
    {
      "inputs": [],
      "name": "topTickLowerOrEqBottomTick",
      "type": "error"
    },
    {
      "inputs": [],
      "name": "transferFailed",
      "type": "error"
    },
    {
      "inputs": [],
      "name": "zeroAmountRequired",
      "type": "error"
    },
    {
      "inputs": [],
      "name": "zeroLiquidityActual",
      "type": "error"
    },
    {
      "inputs": [],
      "name": "zeroLiquidityDesired",
      "type": "error"
    },
    {
      "anonymous": false,
      "inputs": [
        {
          "indexed": true,
          "internalType": "address",
          "name": "owner",
          "type": "address"
        },
        {
          "indexed": true,
          "internalType": "int24",
          "name": "bottomTick",
          "type": "int24"
        },
        {
          "indexed": true,
          "internalType": "int24",
          "name": "topTick",
          "type": "int24"
        },
        {
          "indexed": false,
          "internalType": "uint128",
          "name": "liquidityAmount",
          "type": "uint128"
        },
        {
          "indexed": false,
          "internalType": "uint256",
          "name": "amount0",
          "type": "uint256"
        },
        {
          "indexed": false,
          "internalType": "uint256",
          "name": "amount1",
          "type": "uint256"
        },
        {
          "indexed": false,
          "internalType": "uint24",
          "name": "pluginFee",
          "type": "uint24"
        }
      ],
      "name": "Burn",
      "type": "event"
    },
    {
      "anonymous": false,
      "inputs": [
        {
          "indexed": true,
          "internalType": "address",
          "name": "owner",
          "type": "address"
        },
        {
          "indexed": false,
          "internalType": "address",
          "name": "recipient",
          "type": "address"
        },
        {
          "indexed": true,
          "internalType": "int24",
          "name": "bottomTick",
          "type": "int24"
        },
        {
          "indexed": true,
          "internalType": "int24",
          "name": "topTick",
          "type": "int24"
        },
        {
          "indexed": false,
          "internalType": "uint128",
          "name": "amount0",
          "type": "uint128"
        },
        {
          "indexed": false,
          "internalType": "uint128",
          "name": "amount1",
          "type": "uint128"
        }
      ],
      "name": "Collect",
      "type": "event"
    },
    {
      "anonymous": false,
      "inputs": [
        {
          "indexed": false,
          "internalType": "uint16",
          "name": "communityFeeNew",
          "type": "uint16"
        }
      ],
      "name": "CommunityFee",
      "type": "event"
    },
    {
      "anonymous": false,
      "inputs": [
        {
          "indexed": false,
          "internalType": "address",
          "name": "newCommunityVault",
          "type": "address"
        }
      ],
      "name": "CommunityVault",
      "type": "event"
    },
    {
      "anonymous": false,
      "inputs": [
        {
          "indexed": false,
          "internalType": "uint256",
          "name": "amount0",
          "type": "uint256"
        },
        {
          "indexed": false,
          "internalType": "uint256",
          "name": "amount1",
          "type": "uint256"
        }
      ],
      "name": "ExcessTokens",
      "type": "event"
    },
    {
      "anonymous": false,
      "inputs": [
        {
          "indexed": false,
          "internalType": "uint16",
          "name": "fee",
          "type": "uint16"
        }
      ],
      "name": "Fee",
      "type": "event"
    },
    {
      "anonymous": false,
      "inputs": [
        {
          "indexed": true,
          "internalType": "address",
          "name": "sender",
          "type": "address"
        },
        {
          "indexed": true,
          "internalType": "address",
          "name": "recipient",
          "type": "address"
        },
        {
          "indexed": false,
          "internalType": "uint256",
          "name": "amount0",
          "type": "uint256"
        },
        {
          "indexed": false,
          "internalType": "uint256",
          "name": "amount1",
          "type": "uint256"
        },
        {
          "indexed": false,
          "internalType": "uint256",
          "name": "paid0",
          "type": "uint256"
        },
        {
          "indexed": false,
          "internalType": "uint256",
          "name": "paid1",
          "type": "uint256"
        }
      ],
      "name": "Flash",
      "type": "event"
    },
    {
      "anonymous": false,
      "inputs": [
        {
          "indexed": false,
          "internalType": "uint160",
          "name": "price",
          "type": "uint160"
        },
        {
          "indexed": false,
          "internalType": "int24",
          "name": "tick",
          "type": "int24"
        }
      ],
      "name": "Initialize",
      "type": "event"
    },
    {
      "anonymous": false,
      "inputs": [
        {
          "indexed": false,
          "internalType": "address",
          "name": "sender",
          "type": "address"
        },
        {
          "indexed": true,
          "internalType": "address",
          "name": "owner",
          "type": "address"
        },
        {
          "indexed": true,
          "internalType": "int24",
          "name": "bottomTick",
          "type": "int24"
        },
        {
          "indexed": true,
          "internalType": "int24",
          "name": "topTick",
          "type": "int24"
        },
        {
          "indexed": false,
          "internalType": "uint128",
          "name": "liquidityAmount",
          "type": "uint128"
        },
        {
          "indexed": false,
          "internalType": "uint256",
          "name": "amount0",
          "type": "uint256"
        },
        {
          "indexed": false,
          "internalType": "uint256",
          "name": "amount1",
          "type": "uint256"
        }
      ],
      "name": "Mint",
      "type": "event"
    },
    {
      "anonymous": false,
      "inputs": [
        {
          "indexed": false,
          "internalType": "address",
          "name": "newPluginAddress",
          "type": "address"
        }
      ],
      "name": "Plugin",
      "type": "event"
    },
    {
      "anonymous": false,
      "inputs": [
        {
          "indexed": false,
          "internalType": "uint8",
          "name": "newPluginConfig",
          "type": "uint8"
        }
      ],
      "name": "PluginConfig",
      "type": "event"
    },
    {
      "anonymous": false,
      "inputs": [
        {
          "indexed": true,
          "internalType": "address",
          "name": "to",
          "type": "address"
        },
        {
          "indexed": false,
          "internalType": "uint256",
          "name": "amount0",
          "type": "uint256"
        },
        {
          "indexed": false,
          "internalType": "uint256",
          "name": "amount1",
          "type": "uint256"
        }
      ],
      "name": "Skim",
      "type": "event"
    },
    {
      "anonymous": false,
      "inputs": [
        {
          "indexed": true,
          "internalType": "address",
          "name": "sender",
          "type": "address"
        },
        {
          "indexed": true,
          "internalType": "address",
          "name": "recipient",
          "type": "address"
        },
        {
          "indexed": false,
          "internalType": "int256",
          "name": "amount0",
          "type": "int256"
        },
        {
          "indexed": false,
          "internalType": "int256",
          "name": "amount1",
          "type": "int256"
        },
        {
          "indexed": false,
          "internalType": "uint160",
          "name": "price",
          "type": "uint160"
        },
        {
          "indexed": false,
          "internalType": "uint128",
          "name": "liquidity",
          "type": "uint128"
        },
        {
          "indexed": false,
          "internalType": "int24",
          "name": "tick",
          "type": "int24"
        },
        {
          "indexed": false,
          "internalType": "uint24",
          "name": "overrideFee",
          "type": "uint24"
        },
        {
          "indexed": false,
          "internalType": "uint24",
          "name": "pluginFee",
          "type": "uint24"
        }
      ],
      "name": "Swap",
      "type": "event"
    },
    {
      "anonymous": false,
      "inputs": [
        {
          "indexed": false,
          "internalType": "int24",
          "name": "newTickSpacing",
          "type": "int24"
        }
      ],
      "name": "TickSpacing",
      "type": "event"
    },
    {
      "inputs": [
        {
          "internalType": "int24",
          "name": "bottomTick",
          "type": "int24"
        },
        {
          "internalType": "int24",
          "name": "topTick",
          "type": "int24"
        },
        {
          "internalType": "uint128",
          "name": "amount",
          "type": "uint128"
        },
        {
          "internalType": "bytes",
          "name": "data",
          "type": "bytes"
        }
      ],
      "name": "burn",
      "outputs": [
        {
          "internalType": "uint256",
          "name": "amount0",
          "type": "uint256"
        },
        {
          "internalType": "uint256",
          "name": "amount1",
          "type": "uint256"
        }
      ],
      "stateMutability": "nonpayable",
      "type": "function"
    },
    {
      "inputs": [
        {
          "internalType": "uint128",
          "name": "liquidityDelta",
          "type": "uint128"
        }
      ],
      "name": "burnLastMintedPosition",
      "outputs": [],
      "stateMutability": "nonpayable",
      "type": "function"
    },
    {
      "inputs": [
        {
          "internalType": "address",
          "name": "recipient",
          "type": "address"
        },
        {
          "internalType": "int24",
          "name": "bottomTick",
          "type": "int24"
        },
        {
          "internalType": "int24",
          "name": "topTick",
          "type": "int24"
        },
        {
          "internalType": "uint128",
          "name": "amount0Requested",
          "type": "uint128"
        },
        {
          "internalType": "uint128",
          "name": "amount1Requested",
          "type": "uint128"
        }
      ],
      "name": "collect",
      "outputs": [
        {
          "internalType": "uint128",
          "name": "amount0",
          "type": "uint128"
        },
        {
          "internalType": "uint128",
          "name": "amount1",
          "type": "uint128"
        }
      ],
      "stateMutability": "nonpayable",
      "type": "function"
    },
    {
      "inputs": [
        {
          "internalType": "uint128",
          "name": "amount0Requested",
          "type": "uint128"
        },
        {
          "internalType": "uint128",
          "name": "amount1Requested",
          "type": "uint128"
        }
      ],
      "name": "collectLastMintedPosition",
      "outputs": [],
      "stateMutability": "nonpayable",
      "type": "function"
    },
    {
      "inputs": [],
      "name": "communityVault",
      "outputs": [
        {
          "internalType": "address",
          "name": "",
          "type": "address"
        }
      ],
      "stateMutability": "view",
      "type": "function"
    },
    {
      "inputs": [
        {
          "internalType": "uint256",
          "name": "amount0",
          "type": "uint256"
        },
        {
          "internalType": "uint256",
          "name": "amount1",
          "type": "uint256"
        }
      ],
      "name": "donate",
      "outputs": [],
      "stateMutability": "nonpayable",
      "type": "function"
    },
    {
      "inputs": [],
      "name": "echidna_check_balances_not_zero",
      "outputs": [
        {
          "internalType": "bool",
          "name": "",
          "type": "bool"
        }
      ],
      "stateMutability": "view",
      "type": "function"
    },
    {
      "inputs": [],
      "name": "factory",
      "outputs": [
        {
          "internalType": "address",
          "name": "",
          "type": "address"
        }
      ],
      "stateMutability": "view",
      "type": "function"
    },
    {
      "inputs": [],
      "name": "fee",
      "outputs": [
        {
          "internalType": "uint16",
          "name": "currentFee",
          "type": "uint16"
        }
      ],
      "stateMutability": "view",
      "type": "function"
    },
    {
      "inputs": [
        {
          "internalType": "address",
          "name": "recipient",
          "type": "address"
        },
        {
          "internalType": "uint256",
          "name": "amount0",
          "type": "uint256"
        },
        {
          "internalType": "uint256",
          "name": "amount1",
          "type": "uint256"
        },
        {
          "internalType": "bytes",
          "name": "data",
          "type": "bytes"
        }
      ],
      "name": "flash",
      "outputs": [],
      "stateMutability": "nonpayable",
      "type": "function"
    },
    {
      "inputs": [
        {
          "internalType": "address",
          "name": "recipient",
          "type": "address"
        },
        {
          "internalType": "uint256",
          "name": "amount0",
          "type": "uint256"
        },
        {
          "internalType": "uint256",
          "name": "amount1",
          "type": "uint256"
        }
      ],
      "name": "flashWrapped",
      "outputs": [],
      "stateMutability": "nonpayable",
      "type": "function"
    },
    {
      "inputs": [],
      "name": "getCommunityFeePending",
      "outputs": [
        {
          "internalType": "uint128",
          "name": "",
          "type": "uint128"
        },
        {
          "internalType": "uint128",
          "name": "",
          "type": "uint128"
        }
      ],
      "stateMutability": "view",
      "type": "function"
    },
    {
      "inputs": [],
      "name": "getPluginFeePending",
      "outputs": [
        {
          "internalType": "uint128",
          "name": "",
          "type": "uint128"
        },
        {
          "internalType": "uint128",
          "name": "",
          "type": "uint128"
        }
      ],
      "stateMutability": "view",
      "type": "function"
    },
    {
      "inputs": [],
      "name": "getReserves",
      "outputs": [
        {
          "internalType": "uint128",
          "name": "",
          "type": "uint128"
        },
        {
          "internalType": "uint128",
          "name": "",
          "type": "uint128"
        }
      ],
      "stateMutability": "view",
      "type": "function"
    },
    {
      "inputs": [],
      "name": "globalState",
      "outputs": [
        {
          "internalType": "uint160",
          "name": "price",
          "type": "uint160"
        },
        {
          "internalType": "int24",
          "name": "tick",
          "type": "int24"
        },
        {
          "internalType": "uint16",
          "name": "lastFee",
          "type": "uint16"
        },
        {
          "internalType": "uint8",
          "name": "pluginConfig",
          "type": "uint8"
        },
        {
          "internalType": "uint16",
          "name": "communityFee",
          "type": "uint16"
        },
        {
          "internalType": "bool",
          "name": "unlocked",
          "type": "bool"
        }
      ],
      "stateMutability": "view",
      "type": "function"
    },
    {
      "inputs": [
        {
          "internalType": "bytes32",
          "name": "",
          "type": "bytes32"
        },
        {
          "internalType": "address",
          "name": "",
          "type": "address"
        }
      ],
      "name": "hasRoleOrOwner",
      "outputs": [
        {
          "internalType": "bool",
          "name": "",
          "type": "bool"
        }
      ],
      "stateMutability": "pure",
      "type": "function"
    },
    {
      "inputs": [
        {
          "internalType": "uint160",
          "name": "initialPrice",
          "type": "uint160"
        }
      ],
      "name": "initialize",
      "outputs": [],
      "stateMutability": "nonpayable",
      "type": "function"
    },
    {
      "inputs": [],
      "name": "isUnlocked",
      "outputs": [
        {
          "internalType": "bool",
          "name": "unlocked",
          "type": "bool"
        }
      ],
      "stateMutability": "view",
      "type": "function"
    },
    {
      "inputs": [],
      "name": "lastFeeTransferTimestamp",
      "outputs": [
        {
          "internalType": "uint32",
          "name": "",
          "type": "uint32"
        }
      ],
      "stateMutability": "view",
      "type": "function"
    },
    {
      "inputs": [],
      "name": "liquidity",
      "outputs": [
        {
          "internalType": "uint128",
          "name": "",
          "type": "uint128"
        }
      ],
      "stateMutability": "view",
      "type": "function"
    },
    {
      "inputs": [],
      "name": "maxLiquidityPerTick",
      "outputs": [
        {
          "internalType": "uint128",
          "name": "",
          "type": "uint128"
        }
      ],
      "stateMutability": "view",
      "type": "function"
    },
    {
      "inputs": [
        {
          "internalType": "address",
          "name": "leftoversRecipient",
          "type": "address"
        },
        {
          "internalType": "address",
          "name": "recipient",
          "type": "address"
        },
        {
          "internalType": "int24",
          "name": "bottomTick",
          "type": "int24"
        },
        {
          "internalType": "int24",
          "name": "topTick",
          "type": "int24"
        },
        {
          "internalType": "uint128",
          "name": "liquidityDesired",
          "type": "uint128"
        },
        {
          "internalType": "bytes",
          "name": "data",
          "type": "bytes"
        }
      ],
      "name": "mint",
      "outputs": [
        {
          "internalType": "uint256",
          "name": "amount0",
          "type": "uint256"
        },
        {
          "internalType": "uint256",
          "name": "amount1",
          "type": "uint256"
        },
        {
          "internalType": "uint128",
          "name": "liquidityActual",
          "type": "uint128"
        }
      ],
      "stateMutability": "nonpayable",
      "type": "function"
    },
    {
      "inputs": [
        {
          "internalType": "int24",
          "name": "tickDelta",
          "type": "int24"
        },
        {
          "internalType": "uint128",
          "name": "liquidityDesired",
          "type": "uint128"
        },
        {
          "internalType": "uint256",
          "name": "pay0",
          "type": "uint256"
        },
        {
          "internalType": "uint256",
          "name": "pay1",
          "type": "uint256"
        }
      ],
      "name": "mintAroundCurrentTickWrapped",
      "outputs": [],
      "stateMutability": "nonpayable",
      "type": "function"
    },
    {
      "inputs": [
        {
          "internalType": "int24",
          "name": "bottomTick",
          "type": "int24"
        },
        {
          "internalType": "int24",
          "name": "topTick",
          "type": "int24"
        },
        {
          "internalType": "uint128",
          "name": "liquidityDesired",
          "type": "uint128"
        },
        {
          "internalType": "uint256",
          "name": "pay0",
          "type": "uint256"
        },
        {
          "internalType": "uint256",
          "name": "pay1",
          "type": "uint256"
        }
      ],
      "name": "mintWrapped",
      "outputs": [],
      "stateMutability": "nonpayable",
      "type": "function"
    },
    {
      "inputs": [],
      "name": "nextTickGlobal",
      "outputs": [
        {
          "internalType": "int24",
          "name": "",
          "type": "int24"
        }
      ],
      "stateMutability": "view",
      "type": "function"
    },
    {
      "inputs": [],
      "name": "plugin",
      "outputs": [
        {
          "internalType": "address",
          "name": "",
          "type": "address"
        }
      ],
      "stateMutability": "view",
      "type": "function"
    },
    {
      "inputs": [
        {
          "internalType": "bytes32",
          "name": "",
          "type": "bytes32"
        }
      ],
      "name": "positions",
      "outputs": [
        {
          "internalType": "uint256",
          "name": "liquidity",
          "type": "uint256"
        },
        {
          "internalType": "uint256",
          "name": "innerFeeGrowth0Token",
          "type": "uint256"
        },
        {
          "internalType": "uint256",
          "name": "innerFeeGrowth1Token",
          "type": "uint256"
        },
        {
          "internalType": "uint128",
          "name": "fees0",
          "type": "uint128"
        },
        {
          "internalType": "uint128",
          "name": "fees1",
          "type": "uint128"
        }
      ],
      "stateMutability": "view",
      "type": "function"
    },
    {
      "inputs": [],
      "name": "prevTickGlobal",
      "outputs": [
        {
          "internalType": "int24",
          "name": "",
          "type": "int24"
        }
      ],
      "stateMutability": "view",
      "type": "function"
    },
    {
      "inputs": [],
      "name": "safelyGetStateOfAMM",
      "outputs": [
        {
          "internalType": "uint160",
          "name": "sqrtPrice",
          "type": "uint160"
        },
        {
          "internalType": "int24",
          "name": "tick",
          "type": "int24"
        },
        {
          "internalType": "uint16",
          "name": "lastFee",
          "type": "uint16"
        },
        {
          "internalType": "uint8",
          "name": "pluginConfig",
          "type": "uint8"
        },
        {
          "internalType": "uint128",
          "name": "activeLiquidity",
          "type": "uint128"
        },
        {
          "internalType": "int24",
          "name": "nextTick",
          "type": "int24"
        },
        {
          "internalType": "int24",
          "name": "previousTick",
          "type": "int24"
        }
      ],
      "stateMutability": "view",
      "type": "function"
    },
    {
      "inputs": [
        {
          "internalType": "uint16",
          "name": "newCommunityFee",
          "type": "uint16"
        }
      ],
      "name": "setCommunityFee",
      "outputs": [],
      "stateMutability": "nonpayable",
      "type": "function"
    },
    {
      "inputs": [
        {
          "internalType": "address",
          "name": "newCommunityVault",
          "type": "address"
        }
      ],
      "name": "setCommunityVault",
      "outputs": [],
      "stateMutability": "nonpayable",
      "type": "function"
    },
    {
      "inputs": [
        {
          "internalType": "uint16",
          "name": "newFee",
          "type": "uint16"
        }
      ],
      "name": "setFee",
      "outputs": [],
      "stateMutability": "nonpayable",
      "type": "function"
    },
    {
      "inputs": [
        {
          "internalType": "address",
          "name": "newPluginAddress",
          "type": "address"
        }
      ],
      "name": "setPlugin",
      "outputs": [],
      "stateMutability": "nonpayable",
      "type": "function"
    },
    {
      "inputs": [
        {
          "internalType": "uint8",
          "name": "newConfig",
          "type": "uint8"
        }
      ],
      "name": "setPluginConfig",
      "outputs": [],
      "stateMutability": "nonpayable",
      "type": "function"
    },
    {
      "inputs": [
        {
          "internalType": "int24",
          "name": "newTickSpacing",
          "type": "int24"
        }
      ],
      "name": "setTickSpacing",
      "outputs": [],
      "stateMutability": "nonpayable",
      "type": "function"
    },
    {
      "inputs": [],
      "name": "skim",
      "outputs": [],
      "stateMutability": "nonpayable",
      "type": "function"
    },
    {
      "inputs": [
        {
          "internalType": "address",
          "name": "recipient",
          "type": "address"
        },
        {
          "internalType": "bool",
          "name": "zeroToOne",
          "type": "bool"
        },
        {
          "internalType": "int256",
          "name": "amountRequired",
          "type": "int256"
        },
        {
          "internalType": "uint160",
          "name": "limitSqrtPrice",
          "type": "uint160"
        },
        {
          "internalType": "bytes",
          "name": "data",
          "type": "bytes"
        }
      ],
      "name": "swap",
      "outputs": [
        {
          "internalType": "int256",
          "name": "amount0",
          "type": "int256"
        },
        {
          "internalType": "int256",
          "name": "amount1",
          "type": "int256"
        }
      ],
      "stateMutability": "nonpayable",
      "type": "function"
    },
    {
      "inputs": [
        {
          "internalType": "address",
          "name": "leftoversRecipient",
          "type": "address"
        },
        {
          "internalType": "address",
          "name": "recipient",
          "type": "address"
        },
        {
          "internalType": "bool",
          "name": "zeroToOne",
          "type": "bool"
        },
        {
          "internalType": "int256",
          "name": "amountToSell",
          "type": "int256"
        },
        {
          "internalType": "uint160",
          "name": "limitSqrtPrice",
          "type": "uint160"
        },
        {
          "internalType": "bytes",
          "name": "data",
          "type": "bytes"
        }
      ],
      "name": "swapWithPaymentInAdvance",
      "outputs": [
        {
          "internalType": "int256",
          "name": "amount0",
          "type": "int256"
        },
        {
          "internalType": "int256",
          "name": "amount1",
          "type": "int256"
        }
      ],
      "stateMutability": "nonpayable",
      "type": "function"
    },
    {
      "inputs": [
        {
          "internalType": "bool",
          "name": "zeroToOne",
          "type": "bool"
        },
        {
          "internalType": "int256",
          "name": "amountRequired",
          "type": "int256"
        },
        {
          "internalType": "uint160",
          "name": "limitSqrtPrice",
          "type": "uint160"
        },
        {
          "internalType": "uint256",
          "name": "pay0",
          "type": "uint256"
        },
        {
          "internalType": "uint256",
          "name": "pay1",
          "type": "uint256"
        }
      ],
      "name": "swapWithPaymentInAdvanceWrapped",
      "outputs": [],
      "stateMutability": "nonpayable",
      "type": "function"
    },
    {
      "inputs": [],
      "name": "sync",
      "outputs": [],
      "stateMutability": "nonpayable",
      "type": "function"
    },
    {
      "inputs": [],
      "name": "tickSpacing",
      "outputs": [
        {
          "internalType": "int24",
          "name": "",
          "type": "int24"
        }
      ],
      "stateMutability": "view",
      "type": "function"
    },
    {
      "inputs": [
        {
          "internalType": "int16",
          "name": "",
          "type": "int16"
        }
      ],
      "name": "tickTable",
      "outputs": [
        {
          "internalType": "uint256",
          "name": "",
          "type": "uint256"
        }
      ],
      "stateMutability": "view",
      "type": "function"
    },
    {
      "inputs": [],
      "name": "tickTreeRoot",
      "outputs": [
        {
          "internalType": "uint32",
          "name": "",
          "type": "uint32"
        }
      ],
      "stateMutability": "view",
      "type": "function"
    },
    {
      "inputs": [
        {
          "internalType": "int16",
          "name": "",
          "type": "int16"
        }
      ],
      "name": "tickTreeSecondLayer",
      "outputs": [
        {
          "internalType": "uint256",
          "name": "",
          "type": "uint256"
        }
      ],
      "stateMutability": "view",
      "type": "function"
    },
    {
      "inputs": [
        {
          "internalType": "int24",
          "name": "",
          "type": "int24"
        }
      ],
      "name": "ticks",
      "outputs": [
        {
          "internalType": "uint256",
          "name": "liquidityTotal",
          "type": "uint256"
        },
        {
          "internalType": "int128",
          "name": "liquidityDelta",
          "type": "int128"
        },
        {
          "internalType": "int24",
          "name": "prevTick",
          "type": "int24"
        },
        {
          "internalType": "int24",
          "name": "nextTick",
          "type": "int24"
        },
        {
          "internalType": "uint256",
          "name": "outerFeeGrowth0Token",
          "type": "uint256"
        },
        {
          "internalType": "uint256",
          "name": "outerFeeGrowth1Token",
          "type": "uint256"
        }
      ],
      "stateMutability": "view",
      "type": "function"
    },
    {
      "inputs": [],
      "name": "token0",
      "outputs": [
        {
          "internalType": "address",
          "name": "",
          "type": "address"
        }
      ],
      "stateMutability": "view",
      "type": "function"
    },
    {
      "inputs": [],
      "name": "token1",
      "outputs": [
        {
          "internalType": "address",
          "name": "",
          "type": "address"
        }
      ],
      "stateMutability": "view",
      "type": "function"
    },
    {
      "inputs": [],
      "name": "totalFeeGrowth0Token",
      "outputs": [
        {
          "internalType": "uint256",
          "name": "",
          "type": "uint256"
        }
      ],
      "stateMutability": "view",
      "type": "function"
    },
    {
      "inputs": [],
      "name": "totalFeeGrowth1Token",
      "outputs": [
        {
          "internalType": "uint256",
          "name": "",
          "type": "uint256"
        }
      ],
      "stateMutability": "view",
      "type": "function"
    }
  ],
  "bytecode": "0x60e06040523480156200001157600080fd5b50600260c052600160a052306080526000620d89e7196200003281620001e4565b6009805462ffffff93841663010000000265ffffffffffff1990911693909216929092171790556002805460ff60e01b1916600160e01b1790556001600160a01b03811615620000875762000087816200009a565b50620000946003620000ee565b62000215565b600680546001600160a01b0319166001600160a01b0383169081179091556040519081527f27a3944eff2135a57675f17e72501038982b73620d01f794c72e93d61a3932a29060200160405180910390a150565b620d89e719620000fe81620001e4565b620d89e7196000818152602085905260409020600101805465ffffffffffff60801b1916600160981b62ffffff9485160262ffffff60801b191617600160801b9490931693909302919091179091556200015881620001e4565b8260006200016a620d89e719620001e4565b60020b60020b81526020019081526020016000206001016010846000620d89e7196200019690620001e4565b60020b81526020810191909152604001600020600101805462ffffff948516600160981b0262ffffff60981b1990911617905581549383166101009190910a90810292021990921617905550565b60008160020b627fffff1981036200020c57634e487b7160e01b600052601160045260246000fd5b60000392915050565b60805160a05160c051616458620002d86000396000818161078e01528181610b750152818161110101528181611445015281816118ac0152818161197901528181611d7601528181612f140152818161374101526150820152600081816103c101528181610c01015281816110bd01528181611402015281816118e40152818161194101528181611d2701528181612ebc01528181613084015281816136f3015261504d01526000818161070d01528181612158015261385401526164586000f3fe608060405234801561001057600080fd5b506004361061032b5760003560e01c80639e922180116101b2578063d5c35a7e116100f9578063ecdecf42116100a2578063f30dba931161007c578063f30dba93146108e8578063f3a016ab14610971578063f637731d14610984578063fff6cae91461099757600080fd5b8063ecdecf42146108b9578063ef01df4f146108c2578063f085a610146108d557600080fd5b8063ddca3f43116100d3578063ddca3f43146107f8578063e76c01e414610813578063e8ae2b69146108a657600080fd5b8063d5c35a7e146107b8578063d8544cf3146107c5578063d8619037146107d857600080fd5b8063c5390e2d1161015b578063d0c93a7c11610135578063d0c93a7c14610775578063d21220a714610789578063d21c2577146107b057600080fd5b8063c5390e2d1461072f578063c677e3e014610742578063cc1f97cf1461076257600080fd5b8063b563f7421161018c578063b563f742146106e2578063bca57f81146106f5578063c45a01551461070857600080fd5b80639e9221801461067c578063a1eded871461068f578063aafe29c0146106ab57600080fd5b8063514ea4bf116102765780637bd780251161021f5780639734b577116101f95780639734b577146105f857806397ce1c511461060b5780639e4e02271461066957600080fd5b80637bd78025146105ab5780638380edb7146105c75780638e005553146105e557600080fd5b80636378ae44116102505780636378ae441461056857806370cf754a1461057f57806377f8c3a91461059457600080fd5b8063514ea4bf146104ac57806353e9786814610529578063578b9a361461053c57600080fd5b80631a686502116102d85780633b3bc70e116102b25780633b3bc70e14610473578063490e6cbc146104865780634f1eb3d81461049957600080fd5b80631a686502146104235780631dd19cb414610458578063240a875a1461046057600080fd5b80630cdd53f6116103095780630cdd53f6146103a95780630dfe1681146103bc578063128acb08146103fb57600080fd5b8063050a4d21146103305780630606e8551461035c5780630902f1ac14610371575b600080fd5b600954610344906301000000900460020b81565b60405160029190910b81526020015b60405180910390f35b61036f61036a366004615aa1565b61099f565b005b600c546001600160801b0380821691600160801b9004165b604080516001600160801b03938416815292909116602083015201610353565b61036f6103b7366004615af8565b610a94565b6103e37f000000000000000000000000000000000000000000000000000000000000000081565b6040516001600160a01b039091168152602001610353565b61040e610409366004615b81565b610ac8565b60408051928352602083019190915201610353565b60095461044090660100000000000090046001600160801b031681565b6040516001600160801b039091168152602001610353565b61036f610ccf565b61036f61046e366004615c14565b610d02565b61040e610481366004615c31565b610d81565b61036f610494366004615ca9565b610f9e565b6103896104a7366004615cf6565b611356565b6104f56104ba366004615d63565b600b602052600090815260409020805460018201546002830154600390930154919290916001600160801b0380821691600160801b90041685565b604080519586526020860194909452928401919091526001600160801b03908116606084015216608082015260a001610353565b6007546103e3906001600160a01b031681565b60095461055390600160c81b900463ffffffff1681565b60405163ffffffff9091168152602001610353565b61057160005481565b604051908152602001610353565b6104406d09745258e83de0d0f4e400fce79981565b60045461055390600160d01b900463ffffffff1681565b6004546001600160681b0380821691600160681b900416610389565b600254600160e01b900460ff165b6040519015158152602001610353565b61036f6105f3366004615c14565b611522565b61036f610606366004615d7c565b6115c2565b61061361165a565b604080516001600160a01b039098168852600296870b602089015261ffff9095169487019490945260ff90921660608601526001600160801b03166080850152820b60a0840152900b60c082015260e001610353565b61040e610677366004615db1565b6116f0565b61036f61068a366004615e47565b611a18565b6005546001600160681b0380821691600160681b900416610389565b6106be6106b9366004615e64565b611acd565b6040805193845260208401929092526001600160801b031690820152606001610353565b61036f6106f0366004615ec6565b611e7f565b61036f610703366004615f0a565b611ff3565b6103e37f000000000000000000000000000000000000000000000000000000000000000081565b61036f61073d366004615f2d565b612046565b610571610750366004615f65565b60086020526000908152604090205481565b61036f610770366004615f88565b6120ec565b60095461034490600160b01b900460020b81565b6103e37f000000000000000000000000000000000000000000000000000000000000000081565b6105d561210f565b6009546103449060020b81565b61036f6107d3366004615f88565b612145565b6105716107e6366004615f65565b600a6020526000908152604090205481565b6108006121c0565b60405161ffff9091168152602001610353565b6002805461085e916001600160a01b03821691600160a01b810490910b9061ffff600160b81b820481169160ff600160c81b8204811692600160d01b83041691600160e01b90041686565b604080516001600160a01b03909716875260029590950b602087015261ffff9384169486019490945260ff9091166060850152166080830152151560a082015260c001610353565b6105d56108b4366004615fa5565b612264565b61057160015481565b6006546103e3906001600160a01b031681565b61036f6108e3366004615fd5565b61226d565b61093a6108f6366004615fd5565b60036020819052600091825260409091208054600182015460028084015493909401549193600f82900b93600160801b8304820b93600160981b90930490910b9186565b60408051968752600f9590950b6020870152600293840b94860194909452910b6060840152608083015260a082015260c001610353565b61036f61097f366004615ff0565b6122d6565b61036f610992366004615f88565b61238c565b61036f61258b565b60006040518060400160405280848152602001838152506040516020016109c6919061601e565b60408051601f19818403018152908290526302abf8a760e61b82529150309063aafe29c090610a0390339084908b908b908b90899060040161607b565b6060604051808303816000875af1158015610a22573d6000803e3d6000fd5b505050506040513d601f19601f82011682018060405250810190610a4691906160d4565b505060408051808201909152600288810b825287900b6020909101525050600f805462ffffff95861663010000000265ffffffffffff19909116959096169490941794909417909255505050565b81600d6000828254610aa69190616123565b9250508190555080600e6000828254610abf9190616123565b90915550505050565b600080600080610ade8a8a8a8a60008b8b6125bd565b91509150610aea612707565b6040805160608101825260008082526020808301829052828401829052835180850190945281845283015290610b2384848d8d8d612740565b6001600160801b03909116604088015260029190910b60208701526001600160a01b03909116855291975095509050600080610b5d612e68565b915091508c15610bf3576000871215610b9e57610b9e7f00000000000000000000000000000000000000000000000000000000000000008f89600003613082565b610baa88888c8c6130f4565b600d54610bb78984616123565b1115610bd657604051633ed6d50560e21b815260040160405180910390fd5b610bee88888560000151600087602001516000613194565b610c7a565b6000881215610c2a57610c2a7f00000000000000000000000000000000000000000000000000000000000000008f8a600003613082565b610c3688888c8c6130f4565b600e54610c438883616123565b1115610c6257604051633ed6d50560e21b815260040160405180910390fd5b610c7a88886000866000015160008860200151613194565b610c968e89898760000151886040015189602001518c8c6134d7565b50505050610cb26002805460ff60e01b1916600160e01b179055565b610cc28a8a8a8a88888c8c61355d565b5050965096945050505050565b610cd761366c565b610cdf612707565b610ce833613697565b610d006002805460ff60e01b1916600160e01b179055565b565b610d0a6137e4565b610d1261380e565b6103e861ffff82161180610d35575060025461ffff828116600160d01b90920416145b80610d57575061ffff811615801590610d5757506007546001600160a01b0316155b15610d755760405163a709b9af60e01b815260040160405180910390fd5b610d7e816138d4565b50565b6000808686610d908282613945565b6f7fffffffffffffffffffffffffffffff6001600160801b0388161115610dca57604051638995290f60e01b815260040160405180910390fd5b6000610dd588616136565b90506000610de7338c8c858c8c6139c7565b9050610df1612707565b610df9612e68565b50506000610e08338d8d613b21565b9050610e16818d8d86613b4d565b909750955062ffffff821615610e8c576000808815610e5157610e428962ffffff8616620f4240613c72565b9150610e4e828a616165565b98505b8715610e7957610e6a8862ffffff8616620f4240613c72565b9050610e768189616165565b97505b610e896000806000808686613194565b50505b86861715610ef1576003810154610ead9088906001600160801b0316616178565b6003820154610ecd908890600160801b90046001600160801b0316616178565b6001600160801b039182169116600160801b026001600160801b0319161760038201555b506001600160801b0389168617851715610f6857604080516001600160801b038b1681526020810188905280820187905262ffffff83166060820152905160028c810b92908e900b9133917f932214d4a69c27c086643126ed97c32681da179064c678836c173f99bd13ca01919081900360800190a45b610f806002805460ff60e01b1916600160e01b179055565b610f90338c8c858a8a8e8e613d0b565b505050509550959350505050565b600254600160c81b900460101615611084576006546040516346f0547760e11b80825233600483018181526001600160a01b038a81166024860152604485018a90526064850189905260a06084860190815260a486018890526110849694959190941693638de0a8ee93928c928c928c928c928c929060c401848480828437600081840152601f19601f8201169050808301925050509750505050505050506020604051808303816000875af115801561105c573d6000803e3d6000fd5b505050506040513d602081101561107257600080fd5b50516001600160e01b03191690613e19565b61108c612707565b60008060008061109a612e68565b9092509050600088156110e3576110b6896064620f4240613e56565b90506110e37f00000000000000000000000000000000000000000000000000000000000000008b8b613082565b60008815611127576110fa896064620f4240613e56565b90506111277f00000000000000000000000000000000000000000000000000000000000000008c8b613082565b61113382828a8a613ed6565b600d549550856111438386616123565b1115611162576040516336de50ff60e11b815260040160405180910390fd5b600e549450846111728285616123565b11156111915760405163c998149f60e01b815260040160405180910390fd5b60025495849003959483900394600160d01b900461ffff1680156111f157600087156111c7576111c488836103e8613c72565b90505b600087156111df576111dc88846103e8613c72565b90505b6111ee82828484600080613194565b50505b604080518c8152602081018c90528082018990526060810188905290516001600160a01b038e169133917fbdbdb71d7860376ba52b25a5028beea23581364a40522f6bcfb86bb1f2dca6339181900360800190a350505050506112626002805460ff60e01b1916600160e01b179055565b600254600160c81b90046020161561134d5761134d63343d37ff60e01b600660009054906101000a90046001600160a01b03166001600160a01b031663343d37ff338b8b8b89898d8d6040518963ffffffff1660e01b815260040180896001600160a01b03168152602001886001600160a01b03168152602001878152602001868152602001858152602001848152602001806020018281038252848482818152602001925080828437600081840152601f19601f82011690508083019250505099505050505050505050506020604051808303816000875af115801561105c573d6000803e3d6000fd5b50505050505050565b600080611361612707565b600061136e338888613b21565b60038101549091506001600160801b0380821691600160801b90048116908716821015611399578196505b806001600160801b0316866001600160801b031611156113b7578095505b6001600160801b0387871716156114fd576001600160801b0387830381168783038216600160801b026001600160801b031916176003850155879550869450851615611431576114317f00000000000000000000000000000000000000000000000000000000000000008b876001600160801b0316613082565b6001600160801b03841615611474576114747f00000000000000000000000000000000000000000000000000000000000000008b866001600160801b0316613082565b61149c856001600160801b0316600003856001600160801b0316600003600080600080613194565b604080516001600160a01b038c1681526001600160801b038088166020830152861681830152905160028a810b92908c900b9133917f70935338e69775456a85ddef226c395fb668b63fa0115f5f20610b388e6ca9c0919081900360600190a45b6115156002805460ff60e01b1916600160e01b179055565b5050509550959350505050565b600254600160c81b8104608016151590600160e01b900460ff1661155957604051636798480960e11b815260040160405180910390fd5b6006546001600160a01b0316330361158e578061158957604051633a4528ef60e01b815260040160405180910390fd5b6115b5565b80156115ad576040516369cdc70760e11b815260040160405180910390fd5b6115b561380e565b6115be82613f37565b5050565b60006040518060400160405280848152602001838152506040516020016115e9919061601e565b60408051601f19818403018152908290526312439b2f60e21b82529150309063490e6cbc9061162290879087908790879060040161619f565b600060405180830381600087803b15801561163c57600080fd5b505af1158015611650573d6000803e3d6000fd5b5050505050505050565b600280546001600160a01b03811691600160a01b8204900b9061ffff600160b81b8204169060ff600160c81b820481169160009182918291600160e01b90910416806116b957604051636798480960e11b815260040160405180910390fd5b505060095495969495939492936001600160801b03660100000000000082041693600282810b9450630100000090920490910b9150565b6000806000861215611715576040516334cb3a0160e11b815260040160405180910390fd5b61171d612707565b60008715611778576000611730600d5490565b905061173f88600088886130f4565b600061174a600d5490565b905061175e6117598383616165565b613fa1565b9250611771836000806000806000613194565b50506117c2565b6000611783600e5490565b905061179260008988886130f4565b600061179d600e5490565b90506117ac6117598383616165565b92506117bf600084600080600080613194565b50505b8681146117cd578096505b50856000036117ef57604051633ed6d50560e21b815260040160405180910390fd5b6118076002805460ff60e01b1916600160e01b179055565b60008061181a8a8a8a8a60018b8b6125bd565b91509150611826612707565b61182e612e68565b5050604080516060810182526000808252602080830182905282840182905283518085019094528184528301529061186984848d8d8d612740565b6001600160801b03909116604088015260029190910b60208701526001600160a01b039091168552919750955090508a156119335760008512156118d5576118d57f00000000000000000000000000000000000000000000000000000000000000008d87600003613082565b858a038a871461190a5761190a7f00000000000000000000000000000000000000000000000000000000000000008f83613082565b61192d61191682613fa1565b600003878460000151600086602001516000613194565b506119c4565b600086121561196a5761196a7f00000000000000000000000000000000000000000000000000000000000000008d88600003613082565b848a038a861461199f5761199f7f00000000000000000000000000000000000000000000000000000000000000008f83613082565b6119c2876119ac83613fa1565b6000036000856000015160008760200151613194565b505b6119e08c87878560000151866040015187602001518a8a6134d7565b6119f86002805460ff60e01b1916600160e01b179055565b611a088c8c8c8c8a8a8e8e61355d565b5050505097509795505050505050565b600f5463010000008104600290810b91900b03611a3457600080fd5b600f54604051631d9de38760e11b8152600282810b6004830152630100000090920490910b60248201526001600160801b038216604482015260806064820152600060848201523090633b3bc70e9060a40160408051808303816000875af1158015611aa4573d6000803e3d6000fd5b505050506040513d601f19601f82011682018060405250810190611ac891906161cd565b505050565b60008060008787611ade8282613945565b876001600160801b0316600003611b085760405163e6ace6df60e01b815260040160405180910390fd5b611b278b8b8b611b208c6001600160801b0316613fb5565b8b8b6139c7565b50611b30612707565b60028054600160a01b810490910b906001600160a01b03166000819003611b6a5760405163812eb65560e01b815260040160405180910390fd5b600954600160b01b9004600290810b9081908d900b81611b8c57611b8c6161f1565b078160020b8e60020b81611ba257611ba26161f1565b071760020b15611bc557604051635f6e14f360e01b815260040160405180910390fd5b50611be48c8c611bdd8d6001600160801b0316613fb5565b8585613fc8565b50909750955060009150819050611bf9612e68565b91509150611c0987878b8b614077565b8615611c285781611c19600d5490565b611c239190616165565b611c2b565b60005b91508515611c4c5780611c3d600e5490565b611c479190616165565b611c4f565b60005b905086821015611c7457611c6d8a6001600160801b03168389613c72565b9450611c78565b8994505b85811015611cb8576000611c968b6001600160801b03168389613c72565b9050856001600160801b0316816001600160801b03161015611cb6578095505b505b846001600160801b0316600003611ce257604051632fae8a9b60e21b815260040160405180910390fd5b6000611cef8e8e8e613b21565b9050611d0e818e8e611d098a6001600160801b0316613fb5565b613b4d565b9098509650508615611d635786821115611d5457611d4f7f00000000000000000000000000000000000000000000000000000000000000008f898503613082565b611d63565b868214611d6357611d63616207565b8515611db25785811115611da357611d9e7f00000000000000000000000000000000000000000000000000000000000000008f888403613082565b611db2565b858114611db257611db2616207565b611dc28787600080600080613194565b8a60020b8c60020b8e6001600160a01b03167f7a53080ba414158be7ec69b987b5fb7d07dee101fe85488f0853ae16239d0bde33898c8c60405180856001600160a01b03168152602001846001600160801b0316815260200183815260200182815260200194505050505060405180910390a4611e4d6002805460ff60e01b1916600160e01b179055565b611e6e8d8d8d611e65896001600160801b0316613fb5565b8b8b8f8f613d0b565b505050509750975097945050505050565b60008460020b1215611e9757611e948461621d565b93505b611ea4620d89e71961621d565b611eaf906002616236565b60020b8460020b1315611ed757611ec9620d89e71961621d565b611ed4906002616236565b93505b60028054600160a01b9004900b6000611ef08683616256565b90506000611efe878461627b565b90506000604051806040016040528087815260200186815250604051602001611f27919061601e565b60408051601f19818403018152908290526302abf8a760e61b82529150309063aafe29c090611f649033908490889088908e90899060040161607b565b6060604051808303816000875af1158015611f83573d6000803e3d6000fd5b505050506040513d601f19601f82011682018060405250810190611fa791906160d4565b505060408051808201909152600285810b825284900b6020909101525050600f805462ffffff93841665ffffffffffff1990911617630100000093909216929092021790555050505050565b611ffb6137e4565b6006546001600160a01b03168061202557604051639e727ce360e01b815260040160405180910390fd5b336001600160a01b0382161461203d5761203d61380e565b6115be826140b6565b600060405180604001604052808481526020018381525060405160200161206d919061601e565b60408051601f1981840301815290829052639e4e022760e01b825291503090639e4e0227906120aa90839081908b908b908b9089906004016162a0565b60408051808303816000875af11580156120c8573d6000803e3d6000fd5b505050506040513d601f19601f8201168201806040525081019061165091906161cd565b6120f46137e4565b6120fc61380e565b61210660006140b6565b610d7e8161411f565b600954600090600160c81b900463ffffffff161561213f576000600d54118061213a57506000600e54115b905090565b50600190565b61214d6137e4565b336001600160a01b037f000000000000000000000000000000000000000000000000000000000000000016146121855761218561380e565b6001600160a01b0381161580156121a85750600254600160d01b900461ffff1615155b156121b7576121b760006138d4565b610d7e8161417a565b600254600160b81b810461ffff1690600160c81b900460ff8116906080161561226057600660009054906101000a90046001600160a01b03166001600160a01b031663f70d93626040518163ffffffff1660e01b8152600401602060405180830381865afa158015612236573d6000803e3d6000fd5b505050506040513d601f19601f8201168201806040525081019061225a91906162e2565b91505090565b5090565b60015b92915050565b6122756137e4565b61227d61380e565b60008160020b13158061229557506101f4600282900b135b806122af5750600954600282810b600160b01b909204900b145b156122cd57604051632bf827d160e21b815260040160405180910390fd5b610d7e816141d5565b600f5463010000008104600290810b91900b036122f257600080fd5b600f546040516309e3d67b60e31b81523060048201819052600283810b6024840152630100000090930490920b60448201526001600160801b03808516606483015283166084820152634f1eb3d89060a40160408051808303816000875af1158015612362573d6000803e3d6000fd5b505050506040513d601f19601f8201168201806040525081019061238691906162ff565b50505050565b60006123978261423e565b6002549091506001600160a01b0316156123c457604051631499a6b760e21b815260040160405180910390fd5b600280546001600160a01b03841676ffffffffffffffffffffffffffffffffffffffffffffff199091168117600160a01b62ffffff851602178255604080519182529183900b602082015281517f98636036cb66a9c19a37435efc1e90142190214e8abeb821bdba3f2990dd4c95929181900390910190a16006546001600160a01b0316156124ad57600654604080516318dbf60160e21b8082523360048301526001600160a01b03868116602484015292516124ad9491939091169163636fd80491604480830192602092919082900301816000875af115801561105c573d6000803e3d6000fd5b6000600160646124bc81613f37565b6124c5826141d5565b61ffff8316158015906124e157506007546001600160a01b0316155b156124ff5760405163a709b9af60e01b815260040160405180910390fd5b612508836138d4565b600254600160c81b900460401615612584576006546040805163416eb29160e11b8082523360048301526001600160a01b038981166024840152600289900b60448401529251612584949193909116916382dd652291606480830192602092919082900301816000875af115801561105c573d6000803e3d6000fd5b5050505050565b61259361366c565b61259b612707565b6125a3612e68565b5050610d006002805460ff60e01b1916600160e01b179055565b6002546000908190600160c81b9004600116156126fb576006546001600160a01b031633036125f1575060009050806126fb565b60065460405163029c1cb760e01b815233600482018181526001600160a01b038d811660248501528c15156044850152606484018c90528a8116608485015289151560a485015260e060c4850190815260e48501899052600095919091169363029c1cb793928f928f928f928f928f928f928f92909161010401848480828437600081840152601f19601f82011690508083019250505099505050505050505050506060604051808303816000875af11580156126b2573d6000803e3d6000fd5b505050506040513d60608110156126c857600080fd5b508051602082015160409092015191945090925090506126f96001600160e01b0319821663029c1cb760e01b613e19565b505b97509795505050505050565b600254600160e01b900460ff1661273157604051636798480960e11b815260040160405180910390fd5b6002805460ff60e01b19169055565b6000806000806000612765604051806040016040528060008152602001600081525090565b87600003612786576040516301e76e6160e61b815260040160405180910390fd5b600160ff1b88036127aa576040516334cb3a0160e11b815260040160405180910390fd5b6040805161016081018252600060208201819052606082018190526080820181905260a0820181905262ffffff8d16610140830152808b1360c08301529181018a9052600954600281810b61012084015263010000008204810b610100840152805461ffff600160d01b820481168552600160b81b82041660e08501526001600160a01b0381169850600160a01b9004900b9550660100000000000090046001600160801b03169350908590036128745760405163812eb65560e01b815260040160405180910390fd5b62ffffff8c16156128bc576128898b8d61632e565b62ffffff1660e08201819052620f4240116128b7576040516315b2afa960e01b815260040160405180910390fd5b61290e565b62ffffff8b161561290e578a8160e0018181516128d9919061632e565b62ffffff90811690915260e0830151620f4240911610905061290e576040516315b2afa960e01b815260040160405180910390fd5b891561296e57846001600160a01b0316886001600160a01b031610158061294357506401000276a36001600160a01b03891611155b1561296157604051631662672360e01b815260040160405180910390fd5b60005460808201526129d3565b846001600160a01b0316886001600160a01b03161115806129ac575073fffd8963efd1fc6a506488495d951d5263988d266001600160a01b03891610155b156129ca57604051631662672360e01b815260040160405180910390fd5b60015460808201525b612a056040518060a0016040528060008152602001600081526020016000815260200160008152602001600081525090565b60008b612a1757826101200151612a1e565b8261010001515b6001600160a01b03881683529050612a3581614551565b6001600160a01b0390811660208401819052612a72918e918a918e161182151514612a64578460200151612a66565b8c5b888f8860e0015161482c565b60808601526060850152604084015260c084015190975015612aca57612aa18260800151836040015101613fa1565b8b039a50612ac0612ab58360600151613fa1565b6060850151906149fa565b6060840152612b02565b612ad78260600151613fa1565b8b019a50612afc612af18360800151846040015101613fa1565b606085015190614a10565b60608401525b600083610140015162ffffff16118015612b25575060008360e0015162ffffff16115b15612b66576000612b4e836080015185610140015162ffffff168660e0015162ffffff16613c72565b60808401805182900390526020860180519091019052505b825115612ba857825160808301516000916103e891612b8491614a26565b81612b9157612b916161f1565b608085018051929091049182900390528551018552505b6001600160801b03851615612bdf57612bd38260800151600160801b876001600160801b0316613c72565b60808401805190910190525b8160200151876001600160a01b031603612cfb578260200151612c1a57600160208401528b612c1057600054612c14565b6001545b60a08401525b60008c15612c895750608083015160a0840151600283810b600081815260036020819052604082209081018054828601805490980390975595909403909455600190920154600160801b810490910b61010087015261012086019190915260001983019750600f0b9003612ce9565b5060a08301516080840151600283810b60008181526003602081905260409091209081018054828501805490970390965594909303909355600190910154600160981b810490910b6101208601526101008501919091529095508590600f0b5b612cf38682614a50565b955050612d1d565b81516001600160a01b03881614612d1d57612d158761423e565b955050612d44565b508915801590612d3f5750886001600160a01b0316866001600160a01b031614155b612a05575b60008a83604001510390508260c0015115158c151514612d6957826060015181612d70565b8083606001515b6002805476ffffffffffffffffffffffffffffffffffffffffffffff1916600160a01b62ffffff8b160273ffffffffffffffffffffffffffffffffffffffff1916176001600160a01b038b161790556020850151919a509850159050612e3d576101008201516101208301516009805462ffffff92831665ffffffffffff199091161763010000009290931691909102919091177fffffffffffffffffffff00000000000000000000000000000000ffffffffffff1666010000000000006001600160801b038716021790555b8a15612e50576080820151600055612e59565b60808201516001555b50509550955095509550955095565b600080612e74600d5490565b600e5490925090506001600160801b03821180612e9757506001600160801b0381115b15612f5a576007546001600160a01b03166001600160801b03831115612f0057612ef57f0000000000000000000000000000000000000000000000000000000000000000826ffffffffffffffffffffffffffffffffe198601613082565b6001600160801b0392505b6001600160801b03821115612f5857612f4d7f0000000000000000000000000000000000000000000000000000000000000000826ffffffffffffffffffffffffffffffffe198501613082565b6001600160801b0391505b505b600954660100000000000090046001600160801b03166000819003612f7e57509091565b600c546001600160801b0380821691600160801b9004168185118185118180612fa45750805b15613079578115612fdc57612fd2846001600160801b03168803600160801b876001600160801b0316613c72565b6000805490910190555b801561300f57613005836001600160801b03168703600160801b876001600160801b0316613c72565b6001805490910190555b604080516001600160801b038087168a0382528516880360208201527fef10ebb00f0dbc72ad4602e94abbbda6f3d40632714f70e9c8fa30d5d44289c9910160405180910390a16001600160801b03808816908716600160801b026001600160801b03191617600c555b50505050509091565b7f00000000000000000000000000000000000000000000000000000000000000006001600160a01b0316836001600160a01b0316036130d85780600d60008282546130cd9190616165565b90915550611ac89050565b80600e60008282546130ea9190616165565b9091555050505050565b8015613148576000613108828401846163a7565b90508060000151600d60008282546131209190616123565b90915550506020810151600e805460009061313c908490616123565b90915550612386915050565b600084131561316e5783600d60008282546131639190616123565b909155506123869050565b60008313156123865782600e60008282546131899190616123565b909155505050505050565b60008411806131a35750600083115b806131ae5750600082115b806131b95750600081115b1561344b5760048054600790600160d01b900463ffffffff166000808080806131e58c8c888a8c614aca565b935093509350935080821760001461322b5761320082613fa1565b61320a908f6163c3565b61321382613fa1565b61321d908f6163c3565b909e509c5060019450613291565b6001600160681b03848417161561329157600480547fffffffffffff000000000000000000000000000000000000000000000000000016600160681b6001600160681b03868116919091026cffffffffffffffffffffffffff1916919091179086161790555b60059750600696506132ac8a8a8863ffffffff168a8c614aca565b929650909450925090508181171561339f576132c782613fa1565b6132d1908f6163c3565b6132da82613fa1565b6132e4908f6163c3565b809e50819f5050506001945061339a63aa6b14bb60e01b600660009054906101000a90046001600160a01b03166001600160a01b031663aa6b14bb85856040518363ffffffff1660e01b8152600401613347929190918252602082015260400190565b6020604051808303816000875af1158015613366573d6000803e3d6000fd5b505050506040513d601f19601f8201168201806040525081019061338a91906163e3565b6001600160e01b03191690613e19565b613405565b6001600160681b03848417161561340557600580547fffffffffffff000000000000000000000000000000000000000000000000000016600160681b6001600160681b03868116919091026cffffffffffffffffffffffffff1916919091179086161790555b841561344257600480547fffff00000000ffffffffffffffffffffffffffffffffffffffffffffffffffff16600160d01b4263ffffffff16021790555b50505050505050505b858517156134cf57600c546001600160801b0380821691600160801b900416871561348e5761348261347d898461640d565b614bd6565b6001600160801b031691505b86156134ad576134a161347d888361640d565b6001600160801b031690505b6001600160801b039182169116600160801b026001600160801b03191617600c555b505050505050565b60408051888152602081018890526001600160a01b03878116828401526001600160801b0387166060830152600286900b608083015262ffffff80861660a0840152841660c08301529151918a169133917f121cb44ee54098b1a04743c487e7460d8dd429b27f88b1f4d4767396e1a59f79919081900360e00190a35050505050505050565b60028054600160c81b90041615611650576006546001600160a01b0316331461165057611650639cb5a96360e01b600660009054906101000a90046001600160a01b03166001600160a01b0316639cb5a963338c8c8c8c8c8c8c8c6040518a63ffffffff1660e01b8152600401808a6001600160a01b03168152602001896001600160a01b031681526020018815158152602001878152602001866001600160a01b03168152602001858152602001848152602001806020018281038252848482818152602001925080828437600081840152601f19601f8201169050808301925050509a50505050505050505050506020604051808303816000875af115801561105c573d6000803e3d6000fd5b6006546001600160a01b03163314610d0057604051634994c26960e11b815260040160405180910390fd5b6000806136a3600d5490565b600e54600c5491935091506001600160801b0380821691600160801b900416818411806136d85750806001600160801b031683115b1561258457816001600160801b031684111561372b5761372b7f0000000000000000000000000000000000000000000000000000000000000000866137266001600160801b03861688616165565b613082565b806001600160801b0316831115613774576137747f0000000000000000000000000000000000000000000000000000000000000000866137266001600160801b03851687616165565b6001600160a01b0385167fb94331e4420f16b156f53c397a8adcd09481283ee7830f7b688b22858e9db80b6137b26001600160801b03851687616165565b6137c56001600160801b03851687616165565b6040805192835260208301919091520160405180910390a25050505050565b600254600160e01b900460ff16610d0057604051636798480960e11b815260040160405180910390fd5b6040805163e8ae2b6960e01b81527fb73ce166ead2f8e9add217713a7989e4edfba9625f71dfd2516204bb67ad3442600482015233602482015290516001600160a01b037f0000000000000000000000000000000000000000000000000000000000000000169163e8ae2b699160448083019260209291908290030181865afa15801561389f573d6000803e3d6000fd5b505050506040513d60208110156138b557600080fd5b5051610d0057604051634994c26960e11b815260040160405180910390fd5b600280547fffffffff0000ffffffffffffffffffffffffffffffffffffffffffffffffffff16600160d01b61ffff8416908102919091179091556040519081527f3647dccc990d4941b0b05b32527ef493a98d6187b20639ca2f9743f3b55ca5e1906020015b60405180910390a150565b613952620d89e71961621d565b60020b8160020b131561397857604051631445443d60e01b815260040160405180910390fd5b8160020b8160020b1361399e5760405163d9a841a760e01b815260040160405180910390fd5b620d89e719600283900b12156115be57604051631d1ac7f160e21b815260040160405180910390fd5b600254600090600160c81b900460041615613b17576006546001600160a01b031633036139f657506000613b17565b600654604051632f1208d960e11b815233600482018181526001600160a01b038b8116602485015260028b810b60448601528a900b6064850152600f89900b608485015260c060a4850190815260c485018890526000959190911693635e2411b293928d928d928d928d928d928d92919060e401848480828437600081840152601f19601f8201169050808301925050509850505050505050505060408051808303816000875af1158015613aaf573d6000803e3d6000fd5b505050506040513d6040811015613ac557600080fd5b50805160209091015192509050620f424062ffffff831610613afa576040516315b2afa960e01b815260040160405180910390fd5b613b156001600160e01b03198216632f1208d960e11b613e19565b505b9695505050505050565b62ffffff818116908316601885811b91909117901b176000908152600b602052604090205b9392505050565b6002805460008054600154919384936001600160a01b03811693600160a01b90910490910b918491829190600f89900b15613ba957613b9360038c878c86866000614bec565b9350613ba660038b878c86866001614bec565b92505b600080613bbb60038e8e8a8888614cdd565b91509150613bcb8e8c8484614d7a565b5050505086600f0b600014613c65578180613be35750805b15613bfc57613bfc898984848760008d600f0b12614e6f565b6000613c0b8a8a8a8789613fc8565b91985096509050600f81900b15613c6357600954613c3c90660100000000000090046001600160801b031689614a50565b600960066101000a8154816001600160801b0302191690836001600160801b031602179055505b505b5050505094509492505050565b60008383028160001985870982811083820303915050808411613c9457600080fd5b80600003613ca757508290049050613b46565b8385870960008581038616958690049560026003880281188089028203028089028203028089028203028089028203028089028203028089029091030291819003819004600101858411909403939093029190930391909104170290509392505050565b6006546001600160a01b0316331461165057600254600160c81b9004600816156116505761165063d685201060e01b600660009054906101000a90046001600160a01b03166001600160a01b031663d6852010338c8c8c8c8c8c8c8c6040518a63ffffffff1660e01b8152600401808a6001600160a01b03168152602001896001600160a01b031681526020018860020b81526020018760020b815260200186600f0b8152602001858152602001848152602001806020018281038252848482818152602001925080828437600081840152601f19601f8201169050808301925050509a50505050505050505050506020604051808303816000875af115801561105c573d6000803e3d6000fd5b6001600160e01b0319828116908216146115be5760405163d3f5153b60e01b81526001600160e01b03198216600482015260240160405180910390fd5b6000831580613e7757505082820282848281613e7457613e746161f1565b04145b15613e985760008211613e8957600080fd5b81810490829006151501613b46565b613ea3848484613c72565b905060008280613eb557613eb56161f1565b8486091115613b46576000198110613ecc57600080fd5b6001019392505050565b6000613ee4828401846163a7565b8051909150613ef4908690616123565b600d6000828254613f059190616123565b90915550506020810151613f1a908590616123565b600e6000828254613f2b9190616123565b90915550505050505050565b600280547fffffffffffffff0000ffffffffffffffffffffffffffffffffffffffffffffff16600160b81b61ffff8416908102919091179091556040519081527f598b9f043c813aa6be3426ca60d1c65d17256312890be5118dab55b0775ebe2a9060200161393a565b806000811215613fb057600080fd5b919050565b806000600f82900b1215613fb057600080fd5b600080600080613fd789614551565b90506000613fe489614551565b90506000808b60020b8960020b12156140095761400284848c614f68565b9150614047565b8a60020b8960020b12156140395761402288848c614f68565b915061402f84898c614fa8565b9050899450614047565b61404484848c614fa8565b90505b60008a600f0b12614059578181614062565b81600003816000035b909d909c50949a509398505050505050505050565b801561408b576000613108828401846163a7565b83600d600082825461409d9190616123565b9250508190555082600e60008282546131899190616123565b600280547fffffffffffff00ffffffffffffffffffffffffffffffffffffffffffffffffff16600160c81b60ff8416908102919091179091556040519081527f3a6271b36c1b44bd6a0a0d56230602dc6919b7c17af57254306fadf5fee69dc39060200161393a565b6006805473ffffffffffffffffffffffffffffffffffffffff19166001600160a01b0383169081179091556040519081527f27a3944eff2135a57675f17e72501038982b73620d01f794c72e93d61a3932a29060200161393a565b6007805473ffffffffffffffffffffffffffffffffffffffff19166001600160a01b0383169081179091556040519081527fb0b573c1f636e1f8bd9b415ba6c04d6dd49100bc25493fc6305b65ec0e581df39060200161393a565b600980547fffffffffffffff000000ffffffffffffffffffffffffffffffffffffffffffff16600160b01b62ffffff841602179055604051600282900b81527f01413b1d5d4c359e9a0daa7909ecda165f6e8c51fe2ff529d74b22a5a7c026459060200161393a565b60006401000276a36001600160a01b0383161080614279575073fffd8963efd1fc6a506488495d951d5263988d266001600160a01b03831610155b15614297576040516355cf1e2360e01b815260040160405180910390fd5b77ffffffffffffffffffffffffffffffffffffffff00000000602083901b166001600160801b03811160071b81811c67ffffffffffffffff811160061b90811c63ffffffff811160051b90811c61ffff811160041b90811c60ff8111600390811b91821c600f811160021b90811c918211600190811b92831c9790881196179094179092171790911717176080811061433857607f810383901c9150614342565b80607f0383901b91505b908002607f81811c60ff83811c9190911c800280831c81831c1c800280841c81841c1c800280851c81851c1c800280861c81861c1c800280871c81871c1c800280881c81881c1c800280891c81891c1c8002808a1c818a1c1c8002808b1c818b1c1c8002808c1c818c1c1c8002808d1c818d1c1c8002808e1c9c81901c9c909c1c80029c8d901c9e9d607f198f0160401b60c09190911c678000000000000000161760c19b909b1c674000000000000000169a909a1760c29990991c672000000000000000169890981760c39790971c671000000000000000169690961760c49590951c670800000000000000169490941760c59390931c670400000000000000169290921760c69190911c670200000000000000161760c79190911c670100000000000000161760c89190911c6680000000000000161760c99190911c6640000000000000161760ca9190911c6620000000000000161760cb9190911c6610000000000000161760cc9190911c6608000000000000161760cd9190911c66040000000000001617693627a301d71055774c8581026f028f6481ab7f045a5af012a19d003aa9198101608090811d906fdb2df09e81959a81455e260799a0632f8301901d600281810b9083900b1461454257886001600160a01b031661452782614551565b6001600160a01b0316111561453c5781614544565b80614544565b815b9998505050505050505050565b6000600282900b60171d62ffffff818401821816620d89e881111561458957604051633c10250f60e01b815260040160405180910390fd5b600160801b60018216156145aa57506ffffcb933bd6fad37aa2d162d1a5940015b60028216156145c9576ffff97272373d413259a46990580e213a0260801c5b60048216156145e8576ffff2e50f5f656932ef12357cf3c7fdcc0260801c5b6008821615614607576fffe5caca7e10e4e61c3624eaa0941cd00260801c5b6010821615614626576fffcb9843d60f6159c9db58835c9266440260801c5b6020821615614645576fff973b41fa98c081472e6896dfb254c00260801c5b6040821615614664576fff2ea16466c96a3843ec78b326b528610260801c5b6080821615614683576ffe5dee046a99a2a811c461f1969c30530260801c5b6101008216156146a3576ffcbe86c7900a88aedcffc83b479aa3a40260801c5b6102008216156146c3576ff987a7253ac413176f2b074cf7815e540260801c5b6104008216156146e3576ff3392b0822b70005940c7a398e4b70f30260801c5b610800821615614703576fe7159475a2c29b7443b29c7fa6e889d90260801c5b611000821615614723576fd097f3bdfd2022b8845ad8f792aa58250260801c5b612000821615614743576fa9f746462d870fdf8a65dc1f90e061e50260801c5b614000821615614763576f70d869a156d2a1b890bb3df62baf32f70260801c5b618000821615614783576f31be135f97d08fd981231505542fcfa60260801c5b620100008216156147a4576f09aa508b5b7a84e1c677de54f3e99bc90260801c5b620200008216156147c4576e5d6af8dedb81196699c329225ee6040260801c5b62040000821061480a57620400008216156147ed576d2216e584f5fa1ea926041bedfe980260801c5b6208000082161561480a576b048a170391f7dc42444e8fa20260801c5b60008560020b131561481b57600019045b63ffffffff0160201c949350505050565b600080600080615a728a61484257614fd8614846565b614fe75b90506000871261491a57600061486f8888620f42400362ffffff16620f424062ffffff16613c72565b90506148808a8c8b8563ffffffff16565b94508481106148ad578995506148a6858862ffffff1689620f42400362ffffff16613e56565b92506148f3565b6148b98b8a838f614ff6565b9550856001600160a01b03168a6001600160a01b0316036148dc576148dc616207565b6148eb868c8b8563ffffffff16565b945084880392505b614912868c8b8f6149065761500f61490a565b61501e5b63ffffffff16565b9350506149ec565b615a728b61492a5761500f61492e565b61501e5b905061493f8a8c8b8463ffffffff16565b93508760000397506000881215614969576040516334cb3a0160e11b815260040160405180910390fd5b838810614978578995506149bd565b6149848b8a8a8f61502d565b9550856001600160a01b03168a6001600160a01b0316146149b1576149ae868c8b8463ffffffff16565b93505b878411156149bd578793505b6149cc868c8b8563ffffffff16565b94506149e8858862ffffff1689620f42400362ffffff16613e56565b9250505b509650965096509692505050565b8082038281131560008312151461226757600080fd5b8181018281121560008312151461226757600080fd5b6000821580614a4757505081810281838281614a4457614a446161f1565b04145b61226757600080fd5b60008082600f0b1215614a9257508082016001600160801b0380841690821610614a8d576040516302603ee960e31b815260040160405180910390fd5b612267565b826001600160801b03168284019150816001600160801b0316101561226757604051634cba017960e11b815260040160405180910390fd5b600080808088881715614b785784546001600160681b038082169160681c16614af38b83616123565b9150614aff8a82616123565b9050617080614b148a63ffffffff4216616165565b101580614b2757506001600160681b0382115b80614b3857506001600160681b0381115b15614b67578754600080614b4d85858561503d565b6000808d559a508a99509097509550614bca945050505050565b909450925060009150819050614bca565b617080614b8b8863ffffffff4216616165565b10614bbd5784546001600160681b038082169160681c1680821715614bba578754600080614b4d85858561503d565b50505b5060009250829150819050805b95509550955095915050565b806001600160801b0381168114613fb057600080fd5b600286900b6000908152602088905260408120805482614c0c8289614a50565b6001600160801b031690506d09745258e83de0d0f4e400fce799811115614c46576040516312dc1b2560e11b815260040160405180910390fd5b6001830154600f0b85614c6a5788600f0b81600f0b614c65919061640d565b614c7c565b88600f0b81600f0b614c7c91906163c3565b6001850180546001600160801b0319166001600160801b0392909216919091179055818455811594506000839003614cce57841594508960020b8b60020b13614cce5760038401879055600284018890555b50505050979650505050505050565b600285810b60009081526020889052604080822087840b8084529183209293849391929088900b1215614d53578860020b8760020b12614d2e57816002015486039350816003015485039250614d3d565b81600201549350816003015492505b6002810154600382015494039390920391610cc2565b81600201548160020154039350816003015481600301540392505050965096945050505050565b8354600f84900b600003614da457806001600160801b0316600003614d9f5750612386565b614dba565b614dae8185614a50565b6001600160801b031685555b600185015460028601546000858314614df15760018801869055614dee8387036001600160801b038616600160801b613c72565b90505b6000858314614e1e5760028901869055614e1b8387036001600160801b038716600160801b613c72565b90505b6001600160801b038282171615614e6457600389018054600160801b6001600160801b03808316860181166001600160801b031990931683178290048116850116021790555b505050505050505050565b60095463010000008104600290810b919081900b90600160c81b900463ffffffff168282828915614eb057614ea88c898386868c6150b7565b919450925090505b8815614ecc57614ec48b898386868c6150b7565b919450925090505b8260020b8660020b141580614ee757508160020b8560020b14155b80614efe57508363ffffffff168163ffffffff1614155b15614f5a576009805462ffffff80861663010000000265ffffffffffff1963ffffffff8616600160c81b02167fffffff00000000ffffffffffffffffffffffffffffffffffffff00000000000090931692909217908516171790555b505050505050505050505050565b60008082600f0b1215614f9057614f8861175985858560000360006151ac565b600003614fa0565b614fa061175985858560016151ac565b949350505050565b60008082600f0b1215614fc857614f886117598585856000036000615259565b614fa06117598585856001615259565b6000614fa08385846001615259565b6000614fa084848460016151ac565b60006150068585858560016152c0565b95945050505050565b6000614fa083858460006151ac565b6000614fa08484846000615259565b60006150068585858560006152c0565b60008080808615615077576150737f00000000000000000000000000000000000000000000000000000000000000008689613082565b8691505b85156150ab576150a87f00000000000000000000000000000000000000000000000000000000000000008688613082565b50845b90969095509350505050565b60008060008315615101576000806150d060038c6154f0565b915091508a60020b8860020b036150e9578197506150fa565b8a60020b8760020b036150fa578096505b505061518a565b6000808a60020b8860020b12801561511e57508a60020b8760020b135b1561514757508690508560028a810b908c900b131561513f578a965061517a565b8a975061517a565b6151556008600a8b8e61565e565b600281810b600090815260036020526040902060010154600160801b9004900b925090505b61518760038c8484615713565b50505b600061519a6008600a8a8d615809565b969a9599509597509395505050505050565b60006001600160a01b03858503811690851681106151c957600080fd5b7bffffffffffffffffffffffffffffffff000000000000000000000000606085901b168361522257866001600160a01b031661520f8383896001600160a01b0316613c72565b8161521c5761521c6161f1565b0461524e565b61524e6152398383896001600160a01b0316613e56565b886001600160a01b0316808204910615150190565b979650505050505050565b6000846001600160a01b0316846001600160a01b0316101561527a57600080fd5b6001600160a01b0385850316826152a8576152a381856001600160801b0316600160601b613c72565b613b17565b613b1781856001600160801b0316600160601b613e56565b6000856001600160a01b03166000036152d857600080fd5b846001600160801b03166000036152ee57600080fd5b836000036152fd575084615006565b8115158315150361540b577bffffffffffffffffffffffffffffffff000000000000000000000000606086901b1682156153b9576001600160a01b0387168581029086828161534e5761534e6161f1565b040361537e5781810182811061537c57615372838a6001600160a01b031683613e56565b9350505050615006565b505b6153b0826153a5888b6001600160a01b0316868161539e5761539e6161f1565b04906158a1565b808204910615150190565b92505050615006565b6001600160a01b038716858102908682816153d6576153d66161f1565b04146153e157600080fd5b8082116153ed57600080fd5b6153b0615406838a6001600160a01b0316848603613e56565b6158b1565b8115615478576154716154066001600160a01b038611156154435761543e86600160601b896001600160801b0316613c72565b615461565b6001600160801b038716606087901b8161545f5761545f6161f1565b045b6001600160a01b038916906158a1565b9050615006565b60006001600160a01b038511156154a6576154a185600160601b886001600160801b0316613e56565b6154c3565b6154c3606086901b6001600160801b038816808204910615150190565b905080876001600160a01b0316116154da57600080fd5b6001600160a01b03871603905095945050505050565b600281810b60008181526020859052604081206001810180548383557fffffffffffffffffffff000000000000000000000000000000000000000000008116909155818501839055600390910191909155600160801b8104830b92600160981b909104900b90620d89e7191480615578575061556f620d89e71961621d565b60020b8360020b145b156155d157600283900b6000908152602085905260409020600101805462ffffff808516600160801b0262ffffff60801b19918516600160981b029190911665ffffffffffff60801b1990921691909117179055615657565b8060020b8260020b036155f757604051630d6e094960e01b815260040160405180910390fd5b600282810b6000908152602086905260408082206001908101805462ffffff808816600160981b0262ffffff60981b19909216919091179091559385900b83529120018054918416600160801b0262ffffff60801b199092169190911790555b9250929050565b600190810190600090600883811d610d8a01901c90829061ffff83161b851663ffffffff16156156c15761569287856158c7565b909450909250905080156156a7575050614fa0565b6156b886610d8b840160010b6158c7565b90945090925090505b80615704576156df8563ffffffff168360010193508360010b6158f8565b9093509050806156f75750620d89e89150614fa09050565b6157018684615a46565b92505b61524e87610d89198501615a46565b600283900b620d89e719148061573a5750615731620d89e71961621d565b60020b8360020b145b612386578260020b8260020b12801561575857508260020b8160020b135b6157755760405163e45ac17d60e01b815260040160405180910390fd5b600283810b600090815260209590955260408086206001908101805465ffffffffffff60801b1916600160981b62ffffff878116820262ffffff60801b1990811693909317600160801b8a831681029190911790945597860b8a52848a208401805462ffffff60981b191698909916908102979097179097559390920b865290942090930180549092169202919091179055565b816000806158468785600881901d600181810b60009081526020949094526040909320805460ff9093169390931b80831890935591811490151891565b91509150811561589757610d8a01600181810b60081d80820b6000908152602089905260409020805460ff9094169290921b808418909255821591909214818118935014615897576001811b831892505b5050949350505050565b8082018281101561226757600080fd5b806001600160a01b0381168114613fb057600080fd5b600881901d600181900b60009081526020849052604081205481906158ec90856158f8565b93969095509293505050565b60008060ff831684811c808303615914578460ff179350615a3d565b7f555555555555555555555555555555555555555555555555555555555555555560008290038216908116156001600160801b0382161560071b1777ffffffffffffffff0000000000000000ffffffffffffffff82161560061b177bffffffff00000000ffffffff00000000ffffffff00000000ffffffff82161560051b177dffff0000ffff0000ffff0000ffff0000ffff0000ffff0000ffff0000ffff82161560041b177eff00ff00ff00ff00ff00ff00ff00ff00ff00ff00ff00ff00ff00ff00ff00ff82161560031b177f0f0f0f0f0f0f0f0f0f0f0f0f0f0f0f0f0f0f0f0f0f0f0f0f0f0f0f0f0f0f0f0f82161560021b177f33333333333333333333333333333333333333333333333333333333333333339091161560011b1760ff1685019350600192505b50509250929050565b600181900b600090815260208390526040902054600882901b90615a6a90826158f8565b509392505050565b610d00616435565b8035600281900b8114613fb057600080fd5b6001600160801b0381168114610d7e57600080fd5b600080600080600060a08688031215615ab957600080fd5b615ac286615a7a565b9450615ad060208701615a7a565b93506040860135615ae081615a8c565b94979396509394606081013594506080013592915050565b60008060408385031215615b0b57600080fd5b50508035926020909101359150565b6001600160a01b0381168114610d7e57600080fd5b80358015158114613fb057600080fd5b60008083601f840112615b5157600080fd5b50813567ffffffffffffffff811115615b6957600080fd5b60208301915083602082850101111561565757600080fd5b60008060008060008060a08789031215615b9a57600080fd5b8635615ba581615b1a565b9550615bb360208801615b2f565b9450604087013593506060870135615bca81615b1a565b9250608087013567ffffffffffffffff811115615be657600080fd5b615bf289828a01615b3f565b979a9699509497509295939492505050565b61ffff81168114610d7e57600080fd5b600060208284031215615c2657600080fd5b8135613b4681615c04565b600080600080600060808688031215615c4957600080fd5b615c5286615a7a565b9450615c6060208701615a7a565b93506040860135615c7081615a8c565b9250606086013567ffffffffffffffff811115615c8c57600080fd5b615c9888828901615b3f565b969995985093965092949392505050565b600080600080600060808688031215615cc157600080fd5b8535615ccc81615b1a565b94506020860135935060408601359250606086013567ffffffffffffffff811115615c8c57600080fd5b600080600080600060a08688031215615d0e57600080fd5b8535615d1981615b1a565b9450615d2760208701615a7a565b9350615d3560408701615a7a565b92506060860135615d4581615a8c565b91506080860135615d5581615a8c565b809150509295509295909350565b600060208284031215615d7557600080fd5b5035919050565b600080600060608486031215615d9157600080fd5b8335615d9c81615b1a565b95602085013595506040909401359392505050565b600080600080600080600060c0888a031215615dcc57600080fd5b8735615dd781615b1a565b96506020880135615de781615b1a565b9550615df560408901615b2f565b9450606088013593506080880135615e0c81615b1a565b925060a088013567ffffffffffffffff811115615e2857600080fd5b615e348a828b01615b3f565b989b979a50959850939692959293505050565b600060208284031215615e5957600080fd5b8135613b4681615a8c565b600080600080600080600060c0888a031215615e7f57600080fd5b8735615e8a81615b1a565b96506020880135615e9a81615b1a565b9550615ea860408901615a7a565b9450615eb660608901615a7a565b93506080880135615e0c81615a8c565b60008060008060808587031215615edc57600080fd5b615ee585615a7a565b93506020850135615ef581615a8c565b93969395505050506040820135916060013590565b600060208284031215615f1c57600080fd5b813560ff81168114613b4657600080fd5b600080600080600060a08688031215615f4557600080fd5b615f4e86615b2f565b9450602086013593506040860135615ae081615b1a565b600060208284031215615f7757600080fd5b81358060010b8114613b4657600080fd5b600060208284031215615f9a57600080fd5b8135613b4681615b1a565b60008060408385031215615fb857600080fd5b823591506020830135615fca81615b1a565b809150509250929050565b600060208284031215615fe757600080fd5b613b4682615a7a565b6000806040838503121561600357600080fd5b823561600e81615a8c565b91506020830135615fca81615a8c565b815181526020808301519082015260408101612267565b6000815180845260005b8181101561605b5760208185018101518683018201520161603f565b506000602082860101526020601f19601f83011685010191505092915050565b60006001600160a01b0380891683528088166020840152508560020b60408301528460020b60608301526001600160801b038416608083015260c060a08301526160c860c0830184616035565b98975050505050505050565b6000806000606084860312156160e957600080fd5b8351925060208401519150604084015161610281615a8c565b809150509250925092565b634e487b7160e01b600052601160045260246000fd5b808201808211156122675761226761610d565b600081600f0b6f7fffffffffffffffffffffffffffffff19810361615c5761615c61610d565b60000392915050565b818103818111156122675761226761610d565b6001600160801b038181168382160190808211156161985761619861610d565b5092915050565b6001600160a01b0385168152836020820152826040820152608060608201526000613b176080830184616035565b600080604083850312156161e057600080fd5b505080516020909101519092909150565b634e487b7160e01b600052601260045260246000fd5b634e487b7160e01b600052600160045260246000fd5b60008160020b627fffff19810361615c5761615c61610d565b60008260020b8260020b028060020b91508082146161985761619861610d565b600282810b9082900b03627fffff198112627fffff821317156122675761226761610d565b600281810b9083900b01627fffff8113627fffff19821217156122675761226761610d565b60006001600160a01b0380891683528088166020840152861515604084015285606084015280851660808401525060c060a08301526160c860c0830184616035565b6000602082840312156162f457600080fd5b8151613b4681615c04565b6000806040838503121561631257600080fd5b825161631d81615a8c565b6020840151909250615fca81615a8c565b62ffffff8181168382160190808211156161985761619861610d565b60006040828403121561635c57600080fd5b6040516040810181811067ffffffffffffffff8211171561638d57634e487b7160e01b600052604160045260246000fd5b604052823581526020928301359281019290925250919050565b6000604082840312156163b957600080fd5b613b46838361634a565b81810360008312801583831316838312821617156161985761619861610d565b6000602082840312156163f557600080fd5b81516001600160e01b031981168114613b4657600080fd5b808201828112600083128015821682158216171561642d5761642d61610d565b505092915050565b634e487b7160e01b600052605160045260246000fdfea164736f6c6343000814000a",
  "linkReferences": {},
  "deployedLinkReferences": {}
}