{
  "_format": "hh-sol-artifact-1",
  "contractName": "PoolAddressTest",
  "sourceName": "contracts/test/PoolAddressTest.sol",
  "abi": [
    {
      "inputs": [],
      "name": "POOL_INIT_CODE_HASH",
      "outputs": [
        {
          "internalType": "bytes32",
          "name": "",
          "type": "bytes32"
        }
      ],
      "stateMutability": "pure",
      "type": "function"
    },
    {
      "inputs": [
        {
          "internalType": "address",
          "name": "factory",
          "type": "address"
        },
        {
          "internalType": "address",
          "name": "token0",
          "type": "address"
        },
        {
          "internalType": "address",
          "name": "token1",
          "type": "address"
        },
        {
          "internalType": "address",
          "name": "deployer",
          "type": "address"
        },
        {
          "internalType": "uint24",
          "name": "fee",
          "type": "uint24"
        }
      ],
      "name": "computeAddress",
      "outputs": [
        {
          "internalType": "address",
          "name": "",
          "type": "address"
        }
      ],
      "stateMutability": "pure",
      "type": "function"
    },
    {
      "inputs": [
        {
          "internalType": "address",
          "name": "factory",
          "type": "address"
        },
        {
          "internalType": "address",
          "name": "token0",
          "type": "address"
        },
        {
          "internalType": "address",
          "name": "token1",
          "type": "address"
        },
        {
          "internalType": "address",
          "name": "deployer",
          "type": "address"
        },
        {
          "internalType": "uint24",
          "name": "fee",
          "type": "uint24"
        }
      ],
      "name": "getGasCostOfComputeAddress",
      "outputs": [
        {
          "internalType": "uint256",
          "name": "",
          "type": "uint256"
        }
      ],
      "stateMutability": "view",
      "type": "function"
    }
  ],
  "bytecode": "0x608060405234801561001057600080fd5b506104df806100206000396000f3fe608060405234801561001057600080fd5b50600436106100415760003560e01c80631683afab1461004657806326ed10b81461006c578063dc6fd8ab146100a4575b600080fd5b610059610054366004610421565b6100ca565b6040519081526020015b60405180910390f35b61007f61007a366004610421565b61014d565b60405173ffffffffffffffffffffffffffffffffffffffff9091168152602001610063565b7fb3fc09be5eb433d99b1ec89fd8435aaf5ffea75c1879e19028aa2414a14b3c85610059565b6000805a90506101368760405180606001604052808773ffffffffffffffffffffffffffffffffffffffff1681526020018973ffffffffffffffffffffffffffffffffffffffff1681526020018873ffffffffffffffffffffffffffffffffffffffff168152506101bf565b505a6101429082610492565b979650505050505050565b60006101b58660405180606001604052808673ffffffffffffffffffffffffffffffffffffffff1681526020018873ffffffffffffffffffffffffffffffffffffffff1681526020018773ffffffffffffffffffffffffffffffffffffffff168152506101bf565b9695505050505050565b6000816040015173ffffffffffffffffffffffffffffffffffffffff16826020015173ffffffffffffffffffffffffffffffffffffffff1610610262576040517f08c379a000000000000000000000000000000000000000000000000000000000815260206004820152601760248201527f496e76616c6964206f72646572206f6620746f6b656e73000000000000000000604482015260640160405180910390fd5b8151839073ffffffffffffffffffffffffffffffffffffffff16156102db57825160208085015160408087015190516102c794930173ffffffffffffffffffffffffffffffffffffffff93841681529183166020830152909116604082015260600190565b604051602081830303815290604052610325565b6020808401516040808601519051610315930173ffffffffffffffffffffffffffffffffffffffff92831681529116602082015260400190565b6040516020818303038152906040525b80516020918201206040516103bb93927fb3fc09be5eb433d99b1ec89fd8435aaf5ffea75c1879e19028aa2414a14b3c8591017fff00000000000000000000000000000000000000000000000000000000000000815260609390931b7fffffffffffffffffffffffffffffffffffffffff0000000000000000000000001660018401526015830191909152603582015260550190565b604080517fffffffffffffffffffffffffffffffffffffffffffffffffffffffffffffffe081840301815291905280516020909101209392505050565b803573ffffffffffffffffffffffffffffffffffffffff8116811461041c57600080fd5b919050565b600080600080600060a0868803121561043957600080fd5b610442866103f8565b9450610450602087016103f8565b935061045e604087016103f8565b925061046c606087016103f8565b9150608086013562ffffff8116811461048457600080fd5b809150509295509295909350565b818103818111156104cc577f4e487b7100000000000000000000000000000000000000000000000000000000600052601160045260246000fd5b9291505056fea164736f6c6343000814000a",
  "linkReferences": {},
  "deployedLinkReferences": {}
}