{
  "_format": "hh-sol-artifact-1",
  "contractName": "CustomPoolDeployerTest",
  "sourceName": "contracts/test/CustomPoolDeployerTest.sol",
  "abi": [
    {
      "inputs": [
        {
          "internalType": "address",
          "name": "_entryPoint",
          "type": "address"
        },
        {
          "internalType": "address",
          "name": "_plugin",
          "type": "address"
        }
      ],
      "stateMutability": "nonpayable",
      "type": "constructor"
    },
    {
      "inputs": [
        {
          "internalType": "address",
          "name": "",
          "type": "address"
        },
        {
          "internalType": "address",
          "name": "",
          "type": "address"
        },
        {
          "internalType": "address",
          "name": "",
          "type": "address"
        }
      ],
      "name": "afterCreatePoolHook",
      "outputs": [],
      "stateMutability": "pure",
      "type": "function"
    },
    {
      "inputs": [
        {
          "internalType": "address",
          "name": "",
          "type": "address"
        },
        {
          "internalType": "address",
          "name": "",
          "type": "address"
        },
        {
          "internalType": "address",
          "name": "",
          "type": "address"
        },
        {
          "internalType": "address",
          "name": "",
          "type": "address"
        },
        {
          "internalType": "address",
          "name": "",
          "type": "address"
        },
        {
          "internalType": "bytes",
          "name": "",
          "type": "bytes"
        }
      ],
      "name": "beforeCreatePoolHook",
      "outputs": [
        {
          "internalType": "address",
          "name": "",
          "type": "address"
        }
      ],
      "stateMutability": "view",
      "type": "function"
    },
    {
      "inputs": [
        {
          "internalType": "address",
          "name": "deployer",
          "type": "address"
        },
        {
          "internalType": "address",
          "name": "creator",
          "type": "address"
        },
        {
          "internalType": "address",
          "name": "tokenA",
          "type": "address"
        },
        {
          "internalType": "address",
          "name": "tokenB",
          "type": "address"
        },
        {
          "internalType": "bytes",
          "name": "data",
          "type": "bytes"
        }
      ],
      "name": "createCustomPool",
      "outputs": [
        {
          "internalType": "address",
          "name": "customPool",
          "type": "address"
        }
      ],
      "stateMutability": "nonpayable",
      "type": "function"
    },
    {
      "inputs": [],
      "name": "entryPoint",
      "outputs": [
        {
          "internalType": "address",
          "name": "",
          "type": "address"
        }
      ],
      "stateMutability": "view",
      "type": "function"
    },
    {
      "inputs": [],
      "name": "plugin",
      "outputs": [
        {
          "internalType": "address",
          "name": "",
          "type": "address"
        }
      ],
      "stateMutability": "view",
      "type": "function"
    },
    {
      "inputs": [
        {
          "internalType": "address",
          "name": "",
          "type": "address"
        }
      ],
      "name": "poolToPlugin",
      "outputs": [
        {
          "internalType": "address",
          "name": "",
          "type": "address"
        }
      ],
      "stateMutability": "view",
      "type": "function"
    },
    {
      "inputs": [
        {
          "internalType": "address",
          "name": "pool",
          "type": "address"
        },
        {
          "internalType": "uint16",
          "name": "newFee",
          "type": "uint16"
        }
      ],
      "name": "setFee",
      "outputs": [],
      "stateMutability": "nonpayable",
      "type": "function"
    },
    {
      "inputs": [
        {
          "internalType": "address",
          "name": "pool",
          "type": "address"
        },
        {
          "internalType": "address",
          "name": "newPluginAddress",
          "type": "address"
        }
      ],
      "name": "setPlugin",
      "outputs": [],
      "stateMutability": "nonpayable",
      "type": "function"
    },
    {
      "inputs": [
        {
          "internalType": "address",
          "name": "pool",
          "type": "address"
        },
        {
          "internalType": "uint8",
          "name": "newConfig",
          "type": "uint8"
        }
      ],
      "name": "setPluginConfig",
      "outputs": [],
      "stateMutability": "nonpayable",
      "type": "function"
    },
    {
      "inputs": [
        {
          "internalType": "address",
          "name": "pool",
          "type": "address"
        },
        {
          "internalType": "address",
          "name": "_plugin",
          "type": "address"
        }
      ],
      "name": "setPluginForPool",
      "outputs": [],
      "stateMutability": "nonpayable",
      "type": "function"
    },
    {
      "inputs": [
        {
          "internalType": "address",
          "name": "pool",
          "type": "address"
        },
        {
          "internalType": "int24",
          "name": "newTickSpacing",
          "type": "int24"
        }
      ],
      "name": "setTickSpacing",
      "outputs": [],
      "stateMutability": "nonpayable",
      "type": "function"
    }
  ],
  "bytecode": "0x60c060405234801561001057600080fd5b50604051610aab380380610aab83398101604081905261002f91610062565b6001600160a01b039182166080521660a052610095565b80516001600160a01b038116811461005d57600080fd5b919050565b6000806040838503121561007557600080fd5b61007e83610046565b915061008c60208401610046565b90509250929050565b60805160a0516109c06100eb6000396000818161022e01526103ba015260008181610193015281816102b10152818161032c01528181610433015281816104b10152818161052001526105fa01526109c06000f3fe608060405234801561001057600080fd5b50600436106100c95760003560e01c80638d5ef8d111610081578063dbbf3db41161005b578063dbbf3db414610216578063ef01df4f14610229578063f9f4c09a1461025057600080fd5b80638d5ef8d11461017b578063b0d691fe1461018e578063b6ba5d5e146101b557600080fd5b8063337f3a31116100b2578063337f3a311461011f5780634bf092cd146101325780638c5f6a261461014557600080fd5b8063054bee3d146100ce5780631d0338d9146100e3575b600080fd5b6100e16100dc36600461064e565b610263565b005b6100f66100f13660046106d6565b610312565b60405173ffffffffffffffffffffffffffffffffffffffff909116815260200160405180910390f35b6100e161012d366004610777565b6103e4565b6100e16101403660046107ac565b610462565b6100f66101533660046107e1565b60006020819052908152604090205473ffffffffffffffffffffffffffffffffffffffff1681565b6100e1610189366004610805565b505050565b6100f67f000000000000000000000000000000000000000000000000000000000000000081565b6100e16101c3366004610850565b73ffffffffffffffffffffffffffffffffffffffff918216600090815260208190526040902080547fffffffffffffffffffffffff00000000000000000000000000000000000000001691909216179055565b6100f661022436600461087e565b6104e0565b6100f67f000000000000000000000000000000000000000000000000000000000000000081565b6100e161025e366004610850565b6105ad565b6040517f054bee3d00000000000000000000000000000000000000000000000000000000815273ffffffffffffffffffffffffffffffffffffffff838116600483015260ff831660248301527f0000000000000000000000000000000000000000000000000000000000000000169063054bee3d906044015b600060405180830381600087803b1580156102f657600080fd5b505af115801561030a573d6000803e3d6000fd5b505050505050565b60003373ffffffffffffffffffffffffffffffffffffffff7f000000000000000000000000000000000000000000000000000000000000000016146103b7576040517f08c379a000000000000000000000000000000000000000000000000000000000815260206004820152600f60248201527f4f6e6c7920656e747279506f696e740000000000000000000000000000000000604482015260640160405180910390fd5b507f0000000000000000000000000000000000000000000000000000000000000000979650505050505050565b6040517f337f3a3100000000000000000000000000000000000000000000000000000000815273ffffffffffffffffffffffffffffffffffffffff838116600483015261ffff831660248301527f0000000000000000000000000000000000000000000000000000000000000000169063337f3a31906044016102dc565b6040517f4bf092cd00000000000000000000000000000000000000000000000000000000815273ffffffffffffffffffffffffffffffffffffffff8381166004830152600283900b60248301527f00000000000000000000000000000000000000000000000000000000000000001690634bf092cd906044016102dc565b6040517fdbbf3db400000000000000000000000000000000000000000000000000000000815260009073ffffffffffffffffffffffffffffffffffffffff7f0000000000000000000000000000000000000000000000000000000000000000169063dbbf3db49061055f908a908a908a908a908a908a9060040161090c565b6020604051808303816000875af115801561057e573d6000803e3d6000fd5b505050506040513d601f19601f820116820180604052508101906105a29190610996565b979650505050505050565b6040517ff9f4c09a00000000000000000000000000000000000000000000000000000000815273ffffffffffffffffffffffffffffffffffffffff838116600483015282811660248301527f0000000000000000000000000000000000000000000000000000000000000000169063f9f4c09a906044016102dc565b73ffffffffffffffffffffffffffffffffffffffff8116811461064b57600080fd5b50565b6000806040838503121561066157600080fd5b823561066c81610629565b9150602083013560ff8116811461068257600080fd5b809150509250929050565b60008083601f84011261069f57600080fd5b50813567ffffffffffffffff8111156106b757600080fd5b6020830191508360208285010111156106cf57600080fd5b9250929050565b600080600080600080600060c0888a0312156106f157600080fd5b87356106fc81610629565b9650602088013561070c81610629565b9550604088013561071c81610629565b9450606088013561072c81610629565b9350608088013561073c81610629565b925060a088013567ffffffffffffffff81111561075857600080fd5b6107648a828b0161068d565b989b979a50959850939692959293505050565b6000806040838503121561078a57600080fd5b823561079581610629565b9150602083013561ffff8116811461068257600080fd5b600080604083850312156107bf57600080fd5b82356107ca81610629565b91506020830135600281900b811461068257600080fd5b6000602082840312156107f357600080fd5b81356107fe81610629565b9392505050565b60008060006060848603121561081a57600080fd5b833561082581610629565b9250602084013561083581610629565b9150604084013561084581610629565b809150509250925092565b6000806040838503121561086357600080fd5b823561086e81610629565b9150602083013561068281610629565b60008060008060008060a0878903121561089757600080fd5b86356108a281610629565b955060208701356108b281610629565b945060408701356108c281610629565b935060608701356108d281610629565b9250608087013567ffffffffffffffff8111156108ee57600080fd5b6108fa89828a0161068d565b979a9699509497509295939492505050565b600073ffffffffffffffffffffffffffffffffffffffff80891683528088166020840152808716604084015280861660608401525060a060808301528260a0830152828460c0840137600060c0848401015260c07fffffffffffffffffffffffffffffffffffffffffffffffffffffffffffffffe0601f8501168301019050979650505050505050565b6000602082840312156109a857600080fd5b81516107fe8161062956fea164736f6c6343000814000a",
  "linkReferences": {},
  "deployedLinkReferences": {}
}