{
  "_format": "hh-sol-artifact-1",
  "contractName": "MockPlugin",
  "sourceName": "contracts/test/MockPlugin.sol",
  "abi": [
    {
      "inputs": [
        {
          "internalType": "address",
          "name": "",
          "type": "address"
        },
        {
          "internalType": "address",
          "name": "",
          "type": "address"
        },
        {
          "internalType": "uint256",
          "name": "",
          "type": "uint256"
        },
        {
          "internalType": "uint256",
          "name": "",
          "type": "uint256"
        },
        {
          "internalType": "uint256",
          "name": "",
          "type": "uint256"
        },
        {
          "internalType": "uint256",
          "name": "",
          "type": "uint256"
        },
        {
          "internalType": "bytes",
          "name": "",
          "type": "bytes"
        }
      ],
      "name": "afterFlash",
      "outputs": [
        {
          "internalType": "bytes4",
          "name": "",
          "type": "bytes4"
        }
      ],
      "stateMutability": "pure",
      "type": "function"
    },
    {
      "inputs": [
        {
          "internalType": "address",
          "name": "",
          "type": "address"
        },
        {
          "internalType": "uint160",
          "name": "",
          "type": "uint160"
        },
        {
          "internalType": "int24",
          "name": "",
          "type": "int24"
        }
      ],
      "name": "afterInitialize",
      "outputs": [
        {
          "internalType": "bytes4",
          "name": "",
          "type": "bytes4"
        }
      ],
      "stateMutability": "pure",
      "type": "function"
    },
    {
      "inputs": [
        {
          "internalType": "address",
          "name": "",
          "type": "address"
        },
        {
          "internalType": "address",
          "name": "",
          "type": "address"
        },
        {
          "internalType": "int24",
          "name": "",
          "type": "int24"
        },
        {
          "internalType": "int24",
          "name": "",
          "type": "int24"
        },
        {
          "internalType": "int128",
          "name": "",
          "type": "int128"
        },
        {
          "internalType": "uint256",
          "name": "",
          "type": "uint256"
        },
        {
          "internalType": "uint256",
          "name": "",
          "type": "uint256"
        },
        {
          "internalType": "bytes",
          "name": "",
          "type": "bytes"
        }
      ],
      "name": "afterModifyPosition",
      "outputs": [
        {
          "internalType": "bytes4",
          "name": "",
          "type": "bytes4"
        }
      ],
      "stateMutability": "pure",
      "type": "function"
    },
    {
      "inputs": [
        {
          "internalType": "address",
          "name": "",
          "type": "address"
        },
        {
          "internalType": "address",
          "name": "",
          "type": "address"
        },
        {
          "internalType": "bool",
          "name": "",
          "type": "bool"
        },
        {
          "internalType": "int256",
          "name": "",
          "type": "int256"
        },
        {
          "internalType": "uint160",
          "name": "",
          "type": "uint160"
        },
        {
          "internalType": "int256",
          "name": "",
          "type": "int256"
        },
        {
          "internalType": "int256",
          "name": "",
          "type": "int256"
        },
        {
          "internalType": "bytes",
          "name": "",
          "type": "bytes"
        }
      ],
      "name": "afterSwap",
      "outputs": [
        {
          "internalType": "bytes4",
          "name": "",
          "type": "bytes4"
        }
      ],
      "stateMutability": "pure",
      "type": "function"
    },
    {
      "inputs": [
        {
          "internalType": "address",
          "name": "",
          "type": "address"
        },
        {
          "internalType": "address",
          "name": "",
          "type": "address"
        },
        {
          "internalType": "uint256",
          "name": "",
          "type": "uint256"
        },
        {
          "internalType": "uint256",
          "name": "",
          "type": "uint256"
        },
        {
          "internalType": "bytes",
          "name": "",
          "type": "bytes"
        }
      ],
      "name": "beforeFlash",
      "outputs": [
        {
          "internalType": "bytes4",
          "name": "",
          "type": "bytes4"
        }
      ],
      "stateMutability": "pure",
      "type": "function"
    },
    {
      "inputs": [
        {
          "internalType": "address",
          "name": "",
          "type": "address"
        },
        {
          "internalType": "uint160",
          "name": "",
          "type": "uint160"
        }
      ],
      "name": "beforeInitialize",
      "outputs": [
        {
          "internalType": "bytes4",
          "name": "",
          "type": "bytes4"
        }
      ],
      "stateMutability": "pure",
      "type": "function"
    },
    {
      "inputs": [
        {
          "internalType": "address",
          "name": "",
          "type": "address"
        },
        {
          "internalType": "address",
          "name": "",
          "type": "address"
        },
        {
          "internalType": "int24",
          "name": "",
          "type": "int24"
        },
        {
          "internalType": "int24",
          "name": "",
          "type": "int24"
        },
        {
          "internalType": "int128",
          "name": "",
          "type": "int128"
        },
        {
          "internalType": "bytes",
          "name": "",
          "type": "bytes"
        }
      ],
      "name": "beforeModifyPosition",
      "outputs": [
        {
          "internalType": "bytes4",
          "name": "",
          "type": "bytes4"
        },
        {
          "internalType": "uint24",
          "name": "",
          "type": "uint24"
        }
      ],
      "stateMutability": "pure",
      "type": "function"
    },
    {
      "inputs": [
        {
          "internalType": "address",
          "name": "",
          "type": "address"
        },
        {
          "internalType": "address",
          "name": "",
          "type": "address"
        },
        {
          "internalType": "bool",
          "name": "",
          "type": "bool"
        },
        {
          "internalType": "int256",
          "name": "",
          "type": "int256"
        },
        {
          "internalType": "uint160",
          "name": "",
          "type": "uint160"
        },
        {
          "internalType": "bool",
          "name": "",
          "type": "bool"
        },
        {
          "internalType": "bytes",
          "name": "",
          "type": "bytes"
        }
      ],
      "name": "beforeSwap",
      "outputs": [
        {
          "internalType": "bytes4",
          "name": "",
          "type": "bytes4"
        },
        {
          "internalType": "uint24",
          "name": "",
          "type": "uint24"
        },
        {
          "internalType": "uint24",
          "name": "",
          "type": "uint24"
        }
      ],
      "stateMutability": "pure",
      "type": "function"
    },
    {
      "inputs": [],
      "name": "defaultPluginConfig",
      "outputs": [
        {
          "internalType": "uint8",
          "name": "",
          "type": "uint8"
        }
      ],
      "stateMutability": "pure",
      "type": "function"
    },
    {
      "inputs": [
        {
          "internalType": "uint256",
          "name": "",
          "type": "uint256"
        },
        {
          "internalType": "uint256",
          "name": "",
          "type": "uint256"
        }
      ],
      "name": "handlePluginFee",
      "outputs": [
        {
          "internalType": "bytes4",
          "name": "",
          "type": "bytes4"
        }
      ],
      "stateMutability": "pure",
      "type": "function"
    }
  ],
  "bytecode": "0x608060405234801561001057600080fd5b50610823806100206000396000f3fe608060405234801561001057600080fd5b50600436106100be5760003560e01c806382dd6522116100765780639cb5a9631161005b5780639cb5a963146102e4578063aa6b14bb14610320578063d68520101461035557600080fd5b806382dd6522146102755780638de0a8ee146102ab57600080fd5b80635e2411b2116100a75780635e2411b2146101b8578063636fd80414610231578063689ea3701461026657600080fd5b8063029c1cb7146100c3578063343d37ff1461014c575b600080fd5b6101036100d1366004610414565b7f029c1cb700000000000000000000000000000000000000000000000000000000600080985098509895505050505050565b604080517fffffffff00000000000000000000000000000000000000000000000000000000909416845262ffffff92831660208501529116908201526060015b60405180910390f35b61018761015a3660046104ba565b7f343d37ff0000000000000000000000000000000000000000000000000000000098975050505050505050565b6040517fffffffff000000000000000000000000000000000000000000000000000000009091168152602001610143565b6101f56101c636600461054d565b7f5e2411b200000000000000000000000000000000000000000000000000000000600097509795505050505050565b604080517fffffffff00000000000000000000000000000000000000000000000000000000909316835262ffffff909116602083015201610143565b61018761023f3660046105e8565b7f636fd8040000000000000000000000000000000000000000000000000000000092915050565b60405160008152602001610143565b610187610283366004610621565b7f82dd6522000000000000000000000000000000000000000000000000000000009392505050565b6101876102b9366004610668565b7f8de0a8ee000000000000000000000000000000000000000000000000000000009695505050505050565b6101876102f23660046106e4565b7f9cb5a963000000000000000000000000000000000000000000000000000000009998505050505050505050565b61018761032e366004610790565b7faa6b14bb0000000000000000000000000000000000000000000000000000000092915050565b6101876103633660046107b2565b7fd6852010000000000000000000000000000000000000000000000000000000009998505050505050505050565b73ffffffffffffffffffffffffffffffffffffffff811681146103b357600080fd5b50565b803580151581146103c657600080fd5b919050565b60008083601f8401126103dd57600080fd5b50813567ffffffffffffffff8111156103f557600080fd5b60208301915083602082850101111561040d57600080fd5b9250929050565b60008060008060008060008060e0898b03121561043057600080fd5b883561043b81610391565b9750602089013561044b81610391565b965061045960408a016103b6565b955060608901359450608089013561047081610391565b935061047e60a08a016103b6565b925060c089013567ffffffffffffffff81111561049a57600080fd5b6104a68b828c016103cb565b999c989b5096995094979396929594505050565b60008060008060008060008060e0898b0312156104d657600080fd5b88356104e181610391565b975060208901356104f181610391565b965060408901359550606089013594506080890135935060a0890135925060c089013567ffffffffffffffff81111561049a57600080fd5b8035600281900b81146103c657600080fd5b8035600f81900b81146103c657600080fd5b600080600080600080600060c0888a03121561056857600080fd5b873561057381610391565b9650602088013561058381610391565b955061059160408901610529565b945061059f60608901610529565b93506105ad6080890161053b565b925060a088013567ffffffffffffffff8111156105c957600080fd5b6105d58a828b016103cb565b989b979a50959850939692959293505050565b600080604083850312156105fb57600080fd5b823561060681610391565b9150602083013561061681610391565b809150509250929050565b60008060006060848603121561063657600080fd5b833561064181610391565b9250602084013561065181610391565b915061065f60408501610529565b90509250925092565b60008060008060008060a0878903121561068157600080fd5b863561068c81610391565b9550602087013561069c81610391565b94506040870135935060608701359250608087013567ffffffffffffffff8111156106c657600080fd5b6106d289828a016103cb565b979a9699509497509295939492505050565b60008060008060008060008060006101008a8c03121561070357600080fd5b893561070e81610391565b985060208a013561071e81610391565b975061072c60408b016103b6565b965060608a0135955060808a013561074381610391565b945060a08a0135935060c08a0135925060e08a013567ffffffffffffffff81111561076d57600080fd5b6107798c828d016103cb565b915080935050809150509295985092959850929598565b600080604083850312156107a357600080fd5b50508035926020909101359150565b60008060008060008060008060006101008a8c0312156107d157600080fd5b89356107dc81610391565b985060208a01356107ec81610391565b97506107fa60408b01610529565b965061080860608b01610529565b955061074360808b0161053b56fea164736f6c6343000814000a",
  "linkReferences": {},
  "deployedLinkReferences": {}
}