{
  "_format": "hh-sol-artifact-1",
  "contractName": "TickLensTest",
  "sourceName": "contracts/test/TickLensTest.sol",
  "abi": [
    {
      "inputs": [
        {
          "internalType": "address",
          "name": "pool",
          "type": "address"
        },
        {
          "internalType": "int24",
          "name": "targetTick",
          "type": "int24"
        }
      ],
      "name": "getClosestActiveTicks",
      "outputs": [
        {
          "components": [
            {
              "internalType": "int24",
              "name": "tick",
              "type": "int24"
            },
            {
              "internalType": "int128",
              "name": "liquidityNet",
              "type": "int128"
            },
            {
              "internalType": "uint128",
              "name": "liquidityGross",
              "type": "uint128"
            }
          ],
          "internalType": "struct ITickLens.PopulatedTick[2]",
          "name": "populatedTicks",
          "type": "tuple[2]"
        }
      ],
      "stateMutability": "view",
      "type": "function"
    },
    {
      "inputs": [
        {
          "internalType": "address",
          "name": "pool",
          "type": "address"
        },
        {
          "internalType": "int24",
          "name": "targetTick",
          "type": "int24"
        }
      ],
      "name": "getGasCostOfGetClosestActiveTicks",
      "outputs": [
        {
          "internalType": "uint256",
          "name": "",
          "type": "uint256"
        }
      ],
      "stateMutability": "view",
      "type": "function"
    },
    {
      "inputs": [
        {
          "internalType": "address",
          "name": "pool",
          "type": "address"
        },
        {
          "internalType": "int24",
          "name": "startingTick",
          "type": "int24"
        },
        {
          "internalType": "uint256",
          "name": "amount",
          "type": "uint256"
        },
        {
          "internalType": "bool",
          "name": "upperDirection",
          "type": "bool"
        }
      ],
      "name": "getGasCostOfGetNextActiveTicks",
      "outputs": [
        {
          "internalType": "uint256",
          "name": "",
          "type": "uint256"
        }
      ],
      "stateMutability": "view",
      "type": "function"
    },
    {
      "inputs": [
        {
          "internalType": "address",
          "name": "pool",
          "type": "address"
        },
        {
          "internalType": "int16",
          "name": "tickTableIndex",
          "type": "int16"
        }
      ],
      "name": "getGasCostOfGetPopulatedTicksInWord",
      "outputs": [
        {
          "internalType": "uint256",
          "name": "",
          "type": "uint256"
        }
      ],
      "stateMutability": "view",
      "type": "function"
    },
    {
      "inputs": [
        {
          "internalType": "address",
          "name": "pool",
          "type": "address"
        },
        {
          "internalType": "int24",
          "name": "startingTick",
          "type": "int24"
        },
        {
          "internalType": "uint256",
          "name": "amount",
          "type": "uint256"
        },
        {
          "internalType": "bool",
          "name": "upperDirection",
          "type": "bool"
        }
      ],
      "name": "getNextActiveTicks",
      "outputs": [
        {
          "components": [
            {
              "internalType": "int24",
              "name": "tick",
              "type": "int24"
            },
            {
              "internalType": "int128",
              "name": "liquidityNet",
              "type": "int128"
            },
            {
              "internalType": "uint128",
              "name": "liquidityGross",
              "type": "uint128"
            }
          ],
          "internalType": "struct ITickLens.PopulatedTick[]",
          "name": "populatedTicks",
          "type": "tuple[]"
        }
      ],
      "stateMutability": "view",
      "type": "function"
    },
    {
      "inputs": [
        {
          "internalType": "address",
          "name": "pool",
          "type": "address"
        },
        {
          "internalType": "int16",
          "name": "tickTableIndex",
          "type": "int16"
        }
      ],
      "name": "getPopulatedTicksInWord",
      "outputs": [
        {
          "components": [
            {
              "internalType": "int24",
              "name": "tick",
              "type": "int24"
            },
            {
              "internalType": "int128",
              "name": "liquidityNet",
              "type": "int128"
            },
            {
              "internalType": "uint128",
              "name": "liquidityGross",
              "type": "uint128"
            }
          ],
          "internalType": "struct ITickLens.PopulatedTick[]",
          "name": "populatedTicks",
          "type": "tuple[]"
        }
      ],
      "stateMutability": "view",
      "type": "function"
    }
  ],
  "bytecode": "0x608060405234801561001057600080fd5b50610ff4806100206000396000f3fe608060405234801561001057600080fd5b50600436106100725760003560e01c8063c5493f7711610050578063c5493f77146100d0578063ec92d7fa146100e3578063f0c2e7bc1461010357600080fd5b80632995b40d14610077578063351fb4781461009d57806336fe8020146100bd575b600080fd5b61008a610085366004610c25565b610116565b6040519081526020015b60405180910390f35b6100b06100ab366004610c7b565b61013e565b6040516100949190610cb8565b61008a6100cb366004610d2c565b610339565b6100b06100de366004610c25565b61035f565b6100f66100f1366004610d2c565b610563565b6040516100949190610d58565b61008a610111366004610c7b565b61092f565b6000805a90506101288686868661035f565b505a6101349082610de0565b9695505050505050565b6040517fc677e3e0000000000000000000000000000000000000000000000000000000008152600182900b600482015260609060009073ffffffffffffffffffffffffffffffffffffffff85169063c677e3e090602401602060405180830381865afa1580156101b2573d6000803e3d6000fd5b505050506040513d601f19601f820116820180604052508101906101d69190610df3565b90506000805b610100811015610200576001811b8316156101f8576001909101905b6001016101dc565b508067ffffffffffffffff81111561021a5761021a610e0c565b60405190808252806020026020018201604052801561028357816020015b60408051606081018252600080825260208083018290529282015282527fffffffffffffffffffffffffffffffffffffffffffffffffffffffffffffffff9092019101816102385790505b50925060005b610100811015610330576001811b83161561032857600885901b60020b81016000806102b5898461093f565b505091506fffffffffffffffffffffffffffffffff16915060405180606001604052808460020b815260200182600f0b8152602001836fffffffffffffffffffffffffffffffff168152508786600190039650868151811061031957610319610e3b565b60200260200101819052505050505b600101610289565b50505092915050565b6000805a90506103498484610563565b505a6103559082610de0565b9150505b92915050565b60608360008467ffffffffffffffff81111561037d5761037d610e0c565b6040519080825280602002602001820160405280156103a6578160200160208202803683370190505b506040517ff30dba93000000000000000000000000000000000000000000000000000000008152600284900b600482015290935083915060009081908190819073ffffffffffffffffffffffffffffffffffffffff8c169063f30dba939060240160c060405180830381865afa158015610424573d6000803e3d6000fd5b505050506040513d601f19601f820116820180604052508101906104489190610e6a565b505093509350935093508060020b8260020b036104c5576040517f08c379a000000000000000000000000000000000000000000000000000000000815260206004820152601460248201527f496e76616c6964207374617274696e675469636b000000000000000000000000604482015260640160405180910390fd5b60405160005b8a811015610550578782528460208301528560408301528160208a0160208302015260608201915060008a6105005784610502565b835b90508860020b8160020b0361051d57600182018a5250610550565b80985061052a8e8a61093f565b6fffffffffffffffffffffffffffffffff909316995090975095509350506001016104cb565b5060405250949998505050505050505050565b61056b610b8d565b60008373ffffffffffffffffffffffffffffffffffffffff1663578b9a366040518163ffffffff1660e01b8152600401602060405180830381865afa1580156105b8573d6000803e3d6000fd5b505050506040513d601f19601f820116820180604052508101906105dc9190610ed9565b9050600060086105f4610d8a600287900b831d610f06565b60020b901d9050600080600161ffff84161b841663ffffffff16156106e65760006106268860088960020b901d6109b6565b905061063281886109f6565b9093509150816106e4576000610651610d8a60028a900b60081d610f06565b61065c906001610f06565b905060006106718a60088460010b901d610b4d565b9050600080610683838560010b6109f6565b9150915080156106d1576000600861069d610d8a85610f47565b60020b901b90506106b98d6106b4610d8a86610f47565b6109b6565b95506106c586826109f6565b90985096506106df9050565b876106db81610f88565b9850505b505050505b505b8061079a5760006107008563ffffffff168560010b6109f6565b509050600061070f8983610b4d565b90506000806107258360088660020b901b6109f6565b9150915080156107695760006107418c6106b4610d8a86610f47565b905061075f816008610755610d8a87610f47565b60020b901b6109f6565b5096506107959050565b6107927ffffffffffffffffffffffffffffffffffffffffffffffffffffffffffff27618610fa9565b95505b505050505b8560020b8260020b0361086b5760008060006107b68a8a61093f565b93505092506fffffffffffffffffffffffffffffffff16925060405180606001604052808a60020b815260200183600f0b8152602001846fffffffffffffffffffffffffffffffff168152508860006002811061081557610815610e3b565b60200201526108248a8261093f565b50506040805160608101825260029490940b8452600f9190910b6020808501919091526fffffffffffffffffffffffffffffffff9290921690830152880152506109259050565b600080600061087a8a8661093f565b50925092506fffffffffffffffffffffffffffffffff16925060405180606001604052808660020b815260200183600f0b8152602001846fffffffffffffffffffffffffffffffff16815250886001600281106108d9576108d9610e3b565b60200201526108e88a8261093f565b50506040805160608101825260029490940b8452600f9190910b60208401526fffffffffffffffffffffffffffffffff9190911690820152875250505b5050505092915050565b6000805a9050610349848461013e565b60008060008060405160605160805160a0517ff30dba93000000000000000000000000000000000000000000000000000000006000528860045260c06000602460008d5afa5060005197506020519650604051955060605194508360405282606052816080528060a0525050505092959194509250565b60007fc677e3e000000000000000000000000000000000000000000000000000000000600052816004526020600060246000865afa505060005192915050565b60008060ff831684811c808303610a12578460ff179350610b44565b7f555555555555555555555555555555555555555555555555555555555555555560008290038216908116156fffffffffffffffffffffffffffffffff82161560071b1777ffffffffffffffff0000000000000000ffffffffffffffff82161560061b177bffffffff00000000ffffffff00000000ffffffff00000000ffffffff82161560051b177dffff0000ffff0000ffff0000ffff0000ffff0000ffff0000ffff0000ffff82161560041b177eff00ff00ff00ff00ff00ff00ff00ff00ff00ff00ff00ff00ff00ff00ff00ff82161560031b177f0f0f0f0f0f0f0f0f0f0f0f0f0f0f0f0f0f0f0f0f0f0f0f0f0f0f0f0f0f0f0f0f82161560021b177f33333333333333333333333333333333333333333333333333333333333333339091161560011b1760ff1685019350600192505b50509250929050565b60007fd861903700000000000000000000000000000000000000000000000000000000600052816004526020600060246000865afa505060005192915050565b60405180604001604052806002905b60408051606081018252600080825260208083018290529282015282527fffffffffffffffffffffffffffffffffffffffffffffffffffffffffffffffff909201910181610b9c5790505090565b803573ffffffffffffffffffffffffffffffffffffffff81168114610c0e57600080fd5b919050565b8060020b8114610c2257600080fd5b50565b60008060008060808587031215610c3b57600080fd5b610c4485610bea565b93506020850135610c5481610c13565b92506040850135915060608501358015158114610c7057600080fd5b939692955090935050565b60008060408385031215610c8e57600080fd5b610c9783610bea565b915060208301358060010b8114610cad57600080fd5b809150509250929050565b6020808252825182820181905260009190848201906040850190845b81811015610d20578351805160020b8452602080820151600f0b908501526040908101516fffffffffffffffffffffffffffffffff169084015260608301938501939250600101610cd4565b50909695505050505050565b60008060408385031215610d3f57600080fd5b610d4883610bea565b91506020830135610cad81610c13565b60c08101818360005b6002811015610330578151805160020b8452602080820151600f0b908501526040908101516fffffffffffffffffffffffffffffffff169084015260608301925060209190910190600101610d61565b7f4e487b7100000000000000000000000000000000000000000000000000000000600052601160045260246000fd5b8181038181111561035957610359610db1565b600060208284031215610e0557600080fd5b5051919050565b7f4e487b7100000000000000000000000000000000000000000000000000000000600052604160045260246000fd5b7f4e487b7100000000000000000000000000000000000000000000000000000000600052603260045260246000fd5b60008060008060008060c08789031215610e8357600080fd5b86519550602087015180600f0b8114610e9b57600080fd5b6040880151909550610eac81610c13565b6060880151909450610ebd81610c13565b809350506080870151915060a087015190509295509295509295565b600060208284031215610eeb57600080fd5b815163ffffffff81168114610eff57600080fd5b9392505050565b600281810b9083900b01627fffff81137fffffffffffffffffffffffffffffffffffffffffffffffffffffffffff8000008212171561035957610359610db1565b600282810b9082900b037fffffffffffffffffffffffffffffffffffffffffffffffffffffffffff8000008112627fffff8213171561035957610359610db1565b600061ffff808316818103610f9f57610f9f610db1565b6001019392505050565b60008160020b7fffffffffffffffffffffffffffffffffffffffffffffffffffffffffff8000008103610fde57610fde610db1565b6000039291505056fea164736f6c6343000814000a",
  "linkReferences": {},
  "deployedLinkReferences": {}
}