{
  "_format": "hh-sol-artifact-1",
  "contractName": "TestMulticall",
  "sourceName": "contracts/test/TestMulticall.sol",
  "abi": [
    {
      "inputs": [],
      "name": "CustomError",
      "type": "error"
    },
    {
      "inputs": [
        {
          "internalType": "uint256",
          "name": "a",
          "type": "uint256"
        },
        {
          "internalType": "uint256",
          "name": "b",
          "type": "uint256"
        }
      ],
      "name": "functionThatReturnsTuple",
      "outputs": [
        {
          "components": [
            {
              "internalType": "uint256",
              "name": "a",
              "type": "uint256"
            },
            {
              "internalType": "uint256",
              "name": "b",
              "type": "uint256"
            }
          ],
          "internalType": "struct TestMulticall.Tuple",
          "name": "tuple",
          "type": "tuple"
        }
      ],
      "stateMutability": "pure",
      "type": "function"
    },
    {
      "inputs": [],
      "name": "functionThatRevertsSilently",
      "outputs": [],
      "stateMutability": "pure",
      "type": "function"
    },
    {
      "inputs": [],
      "name": "functionThatRevertsWithCustomError",
      "outputs": [],
      "stateMutability": "pure",
      "type": "function"
    },
    {
      "inputs": [
        {
          "internalType": "string",
          "name": "error",
          "type": "string"
        }
      ],
      "name": "functionThatRevertsWithError",
      "outputs": [],
      "stateMutability": "pure",
      "type": "function"
    },
    {
      "inputs": [],
      "name": "functionThatRevertsWithPanic",
      "outputs": [
        {
          "internalType": "uint256",
          "name": "",
          "type": "uint256"
        }
      ],
      "stateMutability": "pure",
      "type": "function"
    },
    {
      "inputs": [
        {
          "internalType": "bytes[]",
          "name": "data",
          "type": "bytes[]"
        }
      ],
      "name": "multicall",
      "outputs": [
        {
          "internalType": "bytes[]",
          "name": "results",
          "type": "bytes[]"
        }
      ],
      "stateMutability": "payable",
      "type": "function"
    },
    {
      "inputs": [],
      "name": "paid",
      "outputs": [
        {
          "internalType": "uint256",
          "name": "",
          "type": "uint256"
        }
      ],
      "stateMutability": "view",
      "type": "function"
    },
    {
      "inputs": [],
      "name": "pays",
      "outputs": [],
      "stateMutability": "payable",
      "type": "function"
    },
    {
      "inputs": [],
      "name": "returnSender",
      "outputs": [
        {
          "internalType": "address",
          "name": "",
          "type": "address"
        }
      ],
      "stateMutability": "view",
      "type": "function"
    }
  ],
  "bytecode": "0x608060405234801561001057600080fd5b5061072a806100206000396000f3fe6080604052600436106100965760003560e01c80635c3b8c4a11610069578063ac9650d81161004e578063ac9650d81461018a578063df37897f146101aa578063f3e22297146101bf57600080fd5b80635c3b8c4a1461016057806373c8ded61461017557600080fd5b8063295b4e171461009b57806334621235146100c45780633b16a6a3146100e65780635170a9d014610145575b600080fd5b3480156100a757600080fd5b506100b160005481565b6040519081526020015b60405180910390f35b3480156100d057600080fd5b506100e46100df3660046103b3565b6101c7565b005b3480156100f257600080fd5b5061012a610101366004610482565b604080518082018252600080825260209182015281518083019092529181529081019190915290565b604080518251815260209283015192810192909252016100bb565b34801561015157600080fd5b506040513381526020016100bb565b34801561016c57600080fd5b506100b1610204565b34801561018157600080fd5b506100e4600080fd5b61019d6101983660046104a4565b610219565b6040516100bb919061057d565b3480156101b657600080fd5b506100e461033a565b6100e461036c565b806040517f08c379a00000000000000000000000000000000000000000000000000000000081526004016101fb91906105fd565b60405180910390fd5b60006005610213600a82610646565b91505090565b60608167ffffffffffffffff81111561023457610234610384565b60405190808252806020026020018201604052801561026757816020015b60608152602001906001900390816102525790505b50905060005b82811015610333576000803086868581811061028b5761028b61065f565b905060200281019061029d919061068e565b6040516102ab9291906106fa565b600060405180830381855af49150503d80600081146102e6576040519150601f19603f3d011682016040523d82523d6000602084013e6102eb565b606091505b50915091508161030b57600081511161030357600080fd5b805181602001fd5b8084848151811061031e5761031e61065f565b6020908102919091010152505060010161026d565b5092915050565b6040517f09caebf300000000000000000000000000000000000000000000000000000000815260040160405180910390fd5b3460008082825461037d919061070a565b9091555050565b7f4e487b7100000000000000000000000000000000000000000000000000000000600052604160045260246000fd5b6000602082840312156103c557600080fd5b813567ffffffffffffffff808211156103dd57600080fd5b818401915084601f8301126103f157600080fd5b81358181111561040357610403610384565b604051601f82017fffffffffffffffffffffffffffffffffffffffffffffffffffffffffffffffe0908116603f0116810190838211818310171561044957610449610384565b8160405282815287602084870101111561046257600080fd5b826020860160208301376000928101602001929092525095945050505050565b6000806040838503121561049557600080fd5b50508035926020909101359150565b600080602083850312156104b757600080fd5b823567ffffffffffffffff808211156104cf57600080fd5b818501915085601f8301126104e357600080fd5b8135818111156104f257600080fd5b8660208260051b850101111561050757600080fd5b60209290920196919550909350505050565b6000815180845260005b8181101561053f57602081850181015186830182015201610523565b5060006020828601015260207fffffffffffffffffffffffffffffffffffffffffffffffffffffffffffffffe0601f83011685010191505092915050565b6000602080830181845280855180835260408601915060408160051b870101925083870160005b828110156105f0577fffffffffffffffffffffffffffffffffffffffffffffffffffffffffffffffc08886030184526105de858351610519565b945092850192908501906001016105a4565b5092979650505050505050565b6020815260006106106020830184610519565b9392505050565b7f4e487b7100000000000000000000000000000000000000000000000000000000600052601160045260246000fd5b8181038181111561065957610659610617565b92915050565b7f4e487b7100000000000000000000000000000000000000000000000000000000600052603260045260246000fd5b60008083357fffffffffffffffffffffffffffffffffffffffffffffffffffffffffffffffe18436030181126106c357600080fd5b83018035915067ffffffffffffffff8211156106de57600080fd5b6020019150368190038213156106f357600080fd5b9250929050565b8183823760009101908152919050565b808201808211156106595761065961061756fea164736f6c6343000814000a",
  "linkReferences": {},
  "deployedLinkReferences": {}
}