{"contracts/AlgebraCommunityVault.sol":{"AlgebraCommunityVault":{"abi":[{"inputs":[{"internalType":"address","name":"_factory","type":"address"},{"internalType":"address","name":"_algebraFeeManager","type":"address"}],"stateMutability":"nonpayable","type":"constructor"},{"inputs":[],"name":"transferFailed","type":"error"},{"anonymous":false,"inputs":[{"indexed":false,"internalType":"uint16","name":"newAlgebraFee","type":"uint16"}],"name":"AlgebraFee","type":"event"},{"anonymous":false,"inputs":[{"indexed":false,"internalType":"address","name":"newAlgebraFeeManager","type":"address"}],"name":"AlgebraFeeManager","type":"event"},{"anonymous":false,"inputs":[{"indexed":false,"internalType":"uint16","name":"proposedNewAlgebraFee","type":"uint16"}],"name":"AlgebraFeeProposal","type":"event"},{"anonymous":false,"inputs":[{"indexed":false,"internalType":"address","name":"newAlgebraFeeReceiver","type":"address"}],"name":"AlgebraFeeReceiver","type":"event"},{"anonymous":false,"inputs":[{"indexed":true,"internalType":"address","name":"token","type":"address"},{"indexed":true,"internalType":"address","name":"to","type":"address"},{"indexed":false,"internalType":"uint256","name":"amount","type":"uint256"}],"name":"AlgebraTokensWithdrawal","type":"event"},{"anonymous":false,"inputs":[],"name":"CancelAlgebraFeeProposal","type":"event"},{"anonymous":false,"inputs":[{"indexed":false,"internalType":"address","name":"newCommunityFeeReceiver","type":"address"}],"name":"CommunityFeeReceiver","type":"event"},{"anonymous":false,"inputs":[{"indexed":false,"internalType":"address","name":"pendingAlgebraFeeManager","type":"address"}],"name":"PendingAlgebraFeeManager","type":"event"},{"anonymous":false,"inputs":[{"indexed":true,"internalType":"address","name":"token","type":"address"},{"indexed":true,"internalType":"address","name":"to","type":"address"},{"indexed":false,"internalType":"uint256","name":"amount","type":"uint256"}],"name":"TokensWithdrawal","type":"event"},{"inputs":[],"name":"COMMUNITY_FEE_VAULT_ADMINISTRATOR","outputs":[{"internalType":"bytes32","name":"","type":"bytes32"}],"stateMutability":"view","type":"function"},{"inputs":[],"name":"COMMUNITY_FEE_WITHDRAWER_ROLE","outputs":[{"internalType":"bytes32","name":"","type":"bytes32"}],"stateMutability":"view","type":"function"},{"inputs":[{"internalType":"uint16","name":"newAlgebraFee","type":"uint16"}],"name":"acceptAlgebraFeeChangeProposal","outputs":[],"stateMutability":"nonpayable","type":"function"},{"inputs":[],"name":"acceptAlgebraFeeManagerRole","outputs":[],"stateMutability":"nonpayable","type":"function"},{"inputs":[],"name":"algebraFee","outputs":[{"internalType":"uint16","name":"","type":"uint16"}],"stateMutability":"view","type":"function"},{"inputs":[],"name":"algebraFeeManager","outputs":[{"internalType":"address","name":"","type":"address"}],"stateMutability":"view","type":"function"},{"inputs":[],"name":"algebraFeeReceiver","outputs":[{"internalType":"address","name":"","type":"address"}],"stateMutability":"view","type":"function"},{"inputs":[],"name":"cancelAlgebraFeeChangeProposal","outputs":[],"stateMutability":"nonpayable","type":"function"},{"inputs":[{"internalType":"address","name":"newAlgebraFeeReceiver","type":"address"}],"name":"changeAlgebraFeeReceiver","outputs":[],"stateMutability":"nonpayable","type":"function"},{"inputs":[{"internalType":"address","name":"newCommunityFeeReceiver","type":"address"}],"name":"changeCommunityFeeReceiver","outputs":[],"stateMutability":"nonpayable","type":"function"},{"inputs":[],"name":"communityFeeReceiver","outputs":[{"internalType":"address","name":"","type":"address"}],"stateMutability":"view","type":"function"},{"inputs":[],"name":"hasNewAlgebraFeeProposal","outputs":[{"internalType":"bool","name":"","type":"bool"}],"stateMutability":"view","type":"function"},{"inputs":[{"internalType":"uint16","name":"newAlgebraFee","type":"uint16"}],"name":"proposeAlgebraFeeChange","outputs":[],"stateMutability":"nonpayable","type":"function"},{"inputs":[],"name":"proposedNewAlgebraFee","outputs":[{"internalType":"uint16","name":"","type":"uint16"}],"stateMutability":"view","type":"function"},{"inputs":[{"internalType":"address","name":"_newAlgebraFeeManager","type":"address"}],"name":"transferAlgebraFeeManagerRole","outputs":[],"stateMutability":"nonpayable","type":"function"},{"inputs":[{"internalType":"address","name":"token","type":"address"},{"internalType":"uint256","name":"amount","type":"uint256"}],"name":"withdraw","outputs":[],"stateMutability":"nonpayable","type":"function"},{"inputs":[{"components":[{"internalType":"address","name":"token","type":"address"},{"internalType":"uint256","name":"amount","type":"uint256"}],"internalType":"struct IAlgebraCommunityVault.WithdrawTokensParams[]","name":"params","type":"tuple[]"}],"name":"withdrawTokens","outputs":[],"stateMutability":"nonpayable","type":"function"}],"evm":{"bytecode":{"linkReferences":{},"object":"60a060405234801561001057600080fd5b50604051620017a2380380620017a283398101604081905261003191610072565b600280546001600160a01b0319166001600160a01b03928316179055166080526100a5565b80516001600160a01b038116811461006d57600080fd5b919050565b6000806040838503121561008557600080fd5b61008e83610056565b915061009c60208401610056565b90509250929050565b6080516116cc620000d66000396000818161065601528181610acd01528181610ca60152610e0701526116cc6000f3fe608060405234801561001057600080fd5b506004361061011b5760003560e01c8063ad6129ac116100b2578063d17bc78311610081578063dfadc79411610066578063dfadc794146102fd578063f3fef3a314610310578063ff3c43e11461032357600080fd5b8063d17bc783146102e2578063d9fb4353146102ea57600080fd5b8063ad6129ac14610269578063b5f680ae14610271578063bbac3b8d14610284578063c53b3fbe146102ab57600080fd5b806350eea0c8116100ee57806350eea0c8146101d457806362744405146101e75780639d754dde146102235780639f856b8d1461024357600080fd5b80631de4161314610120578063371abc951461015a5780634738761c1461019f57806348a50fcf146101bf575b600080fd5b6101477fb77a63f119f4dc2174dc6c76fc1a1565fa4f2b0dde50ed5c0465471cd9b331f681565b6040519081526020015b60405180910390f35b60005461017a9073ffffffffffffffffffffffffffffffffffffffff1681565b60405173ffffffffffffffffffffffffffffffffffffffff9091168152602001610151565b60015461017a9073ffffffffffffffffffffffffffffffffffffffff1681565b6101d26101cd366004611521565b610336565b005b6101d26101e2366004611521565b61047e565b6000546102109077010000000000000000000000000000000000000000000000900461ffff1681565b60405161ffff9091168152602001610151565b60025461017a9073ffffffffffffffffffffffffffffffffffffffff1681565b6000546102109074010000000000000000000000000000000000000000900461ffff1681565b6101d2610572565b6101d261027f366004611521565b610602565b6101477f63e58c34d94475ba3fc063e19800b940485850d84d09cd3c1f2c14192c559a6881565b6000546102d290760100000000000000000000000000000000000000000000900460ff1681565b6040519015158152602001610151565b6101d26107f7565b6101d26102f836600461153c565b6108c9565b6101d261030b366004611560565b610a58565b6101d261031e3660046115d5565b610c31565b6101d261033136600461153c565b610db3565b60025473ffffffffffffffffffffffffffffffffffffffff1633146103bc576040517f08c379a000000000000000000000000000000000000000000000000000000000815260206004820152601860248201527f6f6e6c7920616c676562726120666565206d616e61676572000000000000000060448201526064015b60405180910390fd5b73ffffffffffffffffffffffffffffffffffffffff81166103dc57600080fd5b60015473ffffffffffffffffffffffffffffffffffffffff9081169082160361040457600080fd5b600180547fffffffffffffffffffffffff00000000000000000000000000000000000000001673ffffffffffffffffffffffffffffffffffffffff83169081179091556040519081527f34d1b5ef1c1c2c03a5000b91bef5c465790244c6751c794e5b45bed7657c38fd906020015b60405180910390a150565b60025473ffffffffffffffffffffffffffffffffffffffff1633146104ff576040517f08c379a000000000000000000000000000000000000000000000000000000000815260206004820152601860248201527f6f6e6c7920616c676562726120666565206d616e61676572000000000000000060448201526064016103b3565b600380547fffffffffffffffffffffffff00000000000000000000000000000000000000001673ffffffffffffffffffffffffffffffffffffffff83169081179091556040519081527fab6918ba7303f2f81e46e324b5f34af4bda562577c1da710e2034980fee1e82a90602001610473565b60035473ffffffffffffffffffffffffffffffffffffffff16331461059657600080fd5b60028054337fffffffffffffffffffffffff000000000000000000000000000000000000000091821681179092556003805490911690556040519081527fecf97a11fb2f2bcc38d1b6881865ecc04405af2d8b953004c79b3ab398732d029060200160405180910390a1565b6040517fe8ae2b690000000000000000000000000000000000000000000000000000000081527f63e58c34d94475ba3fc063e19800b940485850d84d09cd3c1f2c14192c559a6860048201523360248201527f000000000000000000000000000000000000000000000000000000000000000073ffffffffffffffffffffffffffffffffffffffff169063e8ae2b6990604401602060405180830381865afa1580156106b2573d6000803e3d6000fd5b505050506040513d601f19601f820116820180604052508101906106d691906115ff565b61073c576040517f08c379a000000000000000000000000000000000000000000000000000000000815260206004820152601260248201527f6f6e6c792061646d696e6973747261746f72000000000000000000000000000060448201526064016103b3565b73ffffffffffffffffffffffffffffffffffffffff811661075c57600080fd5b60005473ffffffffffffffffffffffffffffffffffffffff9081169082160361078457600080fd5b600080547fffffffffffffffffffffffff00000000000000000000000000000000000000001673ffffffffffffffffffffffffffffffffffffffff83169081179091556040519081527f2f4db788b994a5908051d68a2340153f49870447185a244d2326861e60cc418690602001610473565b60025473ffffffffffffffffffffffffffffffffffffffff163314610878576040517f08c379a000000000000000000000000000000000000000000000000000000000815260206004820152601860248201527f6f6e6c7920616c676562726120666565206d616e61676572000000000000000060448201526064016103b3565b600080547fffffffffffffff000000ffffffffffffffffffffffffffffffffffffffffffff1681556040517f9f4bbade0736edbd2ec12c598bdac4573af13a3b57820ae4c7da5c61703eaaff9190a1565b60025473ffffffffffffffffffffffffffffffffffffffff16331461094a576040517f08c379a000000000000000000000000000000000000000000000000000000000815260206004820152601860248201527f6f6e6c7920616c676562726120666565206d616e61676572000000000000000060448201526064016103b3565b6103e861ffff8216111561095d57600080fd5b60005461ffff8281167701000000000000000000000000000000000000000000000090920416148015906109b2575060005461ffff828116740100000000000000000000000000000000000000009092041614155b6109bb57600080fd5b6000805461ffff831677010000000000000000000000000000000000000000000000027fffffffffffffff000000ffffffffffffffffffffffffffffffffffffffffffff909116177601000000000000000000000000000000000000000000001790556040517f2d6ac59d6da98f80c7ea481d17c670ea310b000fff5cf1732d94d93652dd25b79061047390839061ffff91909116815260200190565b60025473ffffffffffffffffffffffffffffffffffffffff16331480610b4d57506040517fe8ae2b690000000000000000000000000000000000000000000000000000000081527fb77a63f119f4dc2174dc6c76fc1a1565fa4f2b0dde50ed5c0465471cd9b331f660048201523360248201527f000000000000000000000000000000000000000000000000000000000000000073ffffffffffffffffffffffffffffffffffffffff169063e8ae2b6990604401602060405180830381865afa158015610b29573d6000803e3d6000fd5b505050506040513d601f19601f82011682018060405250810190610b4d91906115ff565b610bb3576040517f08c379a000000000000000000000000000000000000000000000000000000000815260206004820152600f60248201527f6f6e6c792077697468647261776572000000000000000000000000000000000060448201526064016103b3565b8060008080610bc061109d565b92509250925060005b84811015610c2857610c20878783818110610be657610be6611621565b610bfc9260206040909202019081019150611521565b83898985818110610c0f57610c0f611621565b9050604002016020013587876111df565b600101610bc9565b50505050505050565b60025473ffffffffffffffffffffffffffffffffffffffff16331480610d2657506040517fe8ae2b690000000000000000000000000000000000000000000000000000000081527fb77a63f119f4dc2174dc6c76fc1a1565fa4f2b0dde50ed5c0465471cd9b331f660048201523360248201527f000000000000000000000000000000000000000000000000000000000000000073ffffffffffffffffffffffffffffffffffffffff169063e8ae2b6990604401602060405180830381865afa158015610d02573d6000803e3d6000fd5b505050506040513d601f19601f82011682018060405250810190610d2691906115ff565b610d8c576040517f08c379a000000000000000000000000000000000000000000000000000000000815260206004820152600f60248201527f6f6e6c792077697468647261776572000000000000000000000000000000000060448201526064016103b3565b6000806000610d9961109d565b925092509250610dac85828686866111df565b5050505050565b6040517fe8ae2b690000000000000000000000000000000000000000000000000000000081527f63e58c34d94475ba3fc063e19800b940485850d84d09cd3c1f2c14192c559a6860048201523360248201527f000000000000000000000000000000000000000000000000000000000000000073ffffffffffffffffffffffffffffffffffffffff169063e8ae2b6990604401602060405180830381865afa158015610e63573d6000803e3d6000fd5b505050506040513d601f19601f82011682018060405250810190610e8791906115ff565b610eed576040517f08c379a000000000000000000000000000000000000000000000000000000000815260206004820152601260248201527f6f6e6c792061646d696e6973747261746f72000000000000000000000000000060448201526064016103b3565b600054760100000000000000000000000000000000000000000000900460ff16610f73576040517f08c379a000000000000000000000000000000000000000000000000000000000815260206004820152600c60248201527f6e6f742070726f706f736564000000000000000000000000000000000000000060448201526064016103b3565b60005461ffff828116770100000000000000000000000000000000000000000000009092041614611000576040517f08c379a000000000000000000000000000000000000000000000000000000000815260206004820152600f60248201527f696e76616c6964206e657720666565000000000000000000000000000000000060448201526064016103b3565b600080547fffffffffffffff0000000000ffffffffffffffffffffffffffffffffffffffff167401000000000000000000000000000000000000000061ffff84169081027fffffffffffffff000000ffffffffffffffffffffffffffffffffffffffffffff16919091179091556040519081527fda1e1a9a6410acc0398b3b64e0c0110b8df57e29bfe69a419cdd9ae12718c30790602001610473565b60005460015461ffff740100000000000000000000000000000000000000008304169173ffffffffffffffffffffffffffffffffffffffff9182169116821561115d5773ffffffffffffffffffffffffffffffffffffffff821661115d576040517f08c379a000000000000000000000000000000000000000000000000000000000815260206004820152601c60248201527f696e76616c696420616c6765627261206665652072656365697665720000000060448201526064016103b3565b73ffffffffffffffffffffffffffffffffffffffff81166111da576040517f08c379a000000000000000000000000000000000000000000000000000000000815260206004820152601060248201527f696e76616c69642072656365697665720000000000000000000000000000000060448201526064016103b3565b909192565b8261ffff83161561127f5760006111fd8261ffff86166103e86112f9565b90506112098183611650565b9150611216878483611398565b8273ffffffffffffffffffffffffffffffffffffffff168773ffffffffffffffffffffffffffffffffffffffff167fb7ee7fc9dacb957cfa93faeb8ca1826292de295e18e287a347dddfde7ab48b408360405161127591815260200190565b60405180910390a3505b61128a868683611398565b8473ffffffffffffffffffffffffffffffffffffffff168673ffffffffffffffffffffffffffffffffffffffff167f7a629b77ef27ad337abe438773206187960a90abfb43607826bef77d650e84b9836040516112e991815260200190565b60405180910390a3505050505050565b600083158061131a5750508282028284828161131757611317611690565b04145b1561133b576000821161132c57600080fd5b81810490829006151501611391565b611346848484611441565b90506000828061135857611358611690565b8486091115611391577fffffffffffffffffffffffffffffffffffffffffffffffffffffffffffffffff811061138d57600080fd5b6001015b9392505050565b60006040517fa9059cbb0000000000000000000000000000000000000000000000000000000060005273ffffffffffffffffffffffffffffffffffffffff841660045282602452602060006044600080895af19150813d1560203d14600160005114161716915080604052508061143b576040517fe465903e00000000000000000000000000000000000000000000000000000000815260040160405180910390fd5b50505050565b6000838302817fffffffffffffffffffffffffffffffffffffffffffffffffffffffffffffffff8587098281108382030391505080841161148157600080fd5b8060000361149457508290049050611391565b8385870960008581038616958690049560026003880281188089028203028089028203028089028203028089028203028089028203028089029091030291819003819004600101858411909403939093029190930391909104170290509392505050565b803573ffffffffffffffffffffffffffffffffffffffff8116811461151c57600080fd5b919050565b60006020828403121561153357600080fd5b611391826114f8565b60006020828403121561154e57600080fd5b813561ffff8116811461139157600080fd5b6000806020838503121561157357600080fd5b823567ffffffffffffffff8082111561158b57600080fd5b818501915085601f83011261159f57600080fd5b8135818111156115ae57600080fd5b8660208260061b85010111156115c357600080fd5b60209290920196919550909350505050565b600080604083850312156115e857600080fd5b6115f1836114f8565b946020939093013593505050565b60006020828403121561161157600080fd5b8151801515811461139157600080fd5b7f4e487b7100000000000000000000000000000000000000000000000000000000600052603260045260246000fd5b8181038181111561168a577f4e487b7100000000000000000000000000000000000000000000000000000000600052601160045260246000fd5b92915050565b7f4e487b7100000000000000000000000000000000000000000000000000000000600052601260045260246000fdfea164736f6c6343000814000a","opcodes":"PUSH1 0xA0 PUSH1 0x40 MSTORE CALLVALUE DUP1 ISZERO PUSH2 0x10 JUMPI PUSH1 0x0 DUP1 REVERT JUMPDEST POP PUSH1 0x40 MLOAD PUSH3 0x17A2 CODESIZE SUB DUP1 PUSH3 0x17A2 DUP4 CODECOPY DUP2 ADD PUSH1 0x40 DUP2 SWAP1 MSTORE PUSH2 0x31 SWAP2 PUSH2 0x72 JUMP JUMPDEST PUSH1 0x2 DUP1 SLOAD PUSH1 0x1 PUSH1 0x1 PUSH1 0xA0 SHL SUB NOT AND PUSH1 0x1 PUSH1 0x1 PUSH1 0xA0 SHL SUB SWAP3 DUP4 AND OR SWAP1 SSTORE AND PUSH1 0x80 MSTORE PUSH2 0xA5 JUMP JUMPDEST DUP1 MLOAD PUSH1 0x1 PUSH1 0x1 PUSH1 0xA0 SHL SUB DUP2 AND DUP2 EQ PUSH2 0x6D JUMPI PUSH1 0x0 DUP1 REVERT JUMPDEST SWAP2 SWAP1 POP JUMP JUMPDEST PUSH1 0x0 DUP1 PUSH1 0x40 DUP4 DUP6 SUB SLT ISZERO PUSH2 0x85 JUMPI PUSH1 0x0 DUP1 REVERT JUMPDEST PUSH2 0x8E DUP4 PUSH2 0x56 JUMP JUMPDEST SWAP2 POP PUSH2 0x9C PUSH1 0x20 DUP5 ADD PUSH2 0x56 JUMP JUMPDEST SWAP1 POP SWAP3 POP SWAP3 SWAP1 POP JUMP JUMPDEST PUSH1 0x80 MLOAD PUSH2 0x16CC PUSH3 0xD6 PUSH1 0x0 CODECOPY PUSH1 0x0 DUP2 DUP2 PUSH2 0x656 ADD MSTORE DUP2 DUP2 PUSH2 0xACD ADD MSTORE DUP2 DUP2 PUSH2 0xCA6 ADD MSTORE PUSH2 0xE07 ADD MSTORE PUSH2 0x16CC PUSH1 0x0 RETURN INVALID PUSH1 0x80 PUSH1 0x40 MSTORE CALLVALUE DUP1 ISZERO PUSH2 0x10 JUMPI PUSH1 0x0 DUP1 REVERT JUMPDEST POP PUSH1 0x4 CALLDATASIZE LT PUSH2 0x11B JUMPI PUSH1 0x0 CALLDATALOAD PUSH1 0xE0 SHR DUP1 PUSH4 0xAD6129AC GT PUSH2 0xB2 JUMPI DUP1 PUSH4 0xD17BC783 GT PUSH2 0x81 JUMPI DUP1 PUSH4 0xDFADC794 GT PUSH2 0x66 JUMPI DUP1 PUSH4 0xDFADC794 EQ PUSH2 0x2FD JUMPI DUP1 PUSH4 0xF3FEF3A3 EQ PUSH2 0x310 JUMPI DUP1 PUSH4 0xFF3C43E1 EQ PUSH2 0x323 JUMPI PUSH1 0x0 DUP1 REVERT JUMPDEST DUP1 PUSH4 0xD17BC783 EQ PUSH2 0x2E2 JUMPI DUP1 PUSH4 0xD9FB4353 EQ PUSH2 0x2EA JUMPI PUSH1 0x0 DUP1 REVERT JUMPDEST DUP1 PUSH4 0xAD6129AC EQ PUSH2 0x269 JUMPI DUP1 PUSH4 0xB5F680AE EQ PUSH2 0x271 JUMPI DUP1 PUSH4 0xBBAC3B8D EQ PUSH2 0x284 JUMPI DUP1 PUSH4 0xC53B3FBE EQ PUSH2 0x2AB JUMPI PUSH1 0x0 DUP1 REVERT JUMPDEST DUP1 PUSH4 0x50EEA0C8 GT PUSH2 0xEE JUMPI DUP1 PUSH4 0x50EEA0C8 EQ PUSH2 0x1D4 JUMPI DUP1 PUSH4 0x62744405 EQ PUSH2 0x1E7 JUMPI DUP1 PUSH4 0x9D754DDE EQ PUSH2 0x223 JUMPI DUP1 PUSH4 0x9F856B8D EQ PUSH2 0x243 JUMPI PUSH1 0x0 DUP1 REVERT JUMPDEST DUP1 PUSH4 0x1DE41613 EQ PUSH2 0x120 JUMPI DUP1 PUSH4 0x371ABC95 EQ PUSH2 0x15A JUMPI DUP1 PUSH4 0x4738761C EQ PUSH2 0x19F JUMPI DUP1 PUSH4 0x48A50FCF EQ PUSH2 0x1BF JUMPI JUMPDEST PUSH1 0x0 DUP1 REVERT JUMPDEST PUSH2 0x147 PUSH32 0xB77A63F119F4DC2174DC6C76FC1A1565FA4F2B0DDE50ED5C0465471CD9B331F6 DUP2 JUMP JUMPDEST PUSH1 0x40 MLOAD SWAP1 DUP2 MSTORE PUSH1 0x20 ADD JUMPDEST PUSH1 0x40 MLOAD DUP1 SWAP2 SUB SWAP1 RETURN JUMPDEST PUSH1 0x0 SLOAD PUSH2 0x17A SWAP1 PUSH20 0xFFFFFFFFFFFFFFFFFFFFFFFFFFFFFFFFFFFFFFFF AND DUP2 JUMP JUMPDEST PUSH1 0x40 MLOAD PUSH20 0xFFFFFFFFFFFFFFFFFFFFFFFFFFFFFFFFFFFFFFFF SWAP1 SWAP2 AND DUP2 MSTORE PUSH1 0x20 ADD PUSH2 0x151 JUMP JUMPDEST PUSH1 0x1 SLOAD PUSH2 0x17A SWAP1 PUSH20 0xFFFFFFFFFFFFFFFFFFFFFFFFFFFFFFFFFFFFFFFF AND DUP2 JUMP JUMPDEST PUSH2 0x1D2 PUSH2 0x1CD CALLDATASIZE PUSH1 0x4 PUSH2 0x1521 JUMP JUMPDEST PUSH2 0x336 JUMP JUMPDEST STOP JUMPDEST PUSH2 0x1D2 PUSH2 0x1E2 CALLDATASIZE PUSH1 0x4 PUSH2 0x1521 JUMP JUMPDEST PUSH2 0x47E JUMP JUMPDEST PUSH1 0x0 SLOAD PUSH2 0x210 SWAP1 PUSH24 0x10000000000000000000000000000000000000000000000 SWAP1 DIV PUSH2 0xFFFF AND DUP2 JUMP JUMPDEST PUSH1 0x40 MLOAD PUSH2 0xFFFF SWAP1 SWAP2 AND DUP2 MSTORE PUSH1 0x20 ADD PUSH2 0x151 JUMP JUMPDEST PUSH1 0x2 SLOAD PUSH2 0x17A SWAP1 PUSH20 0xFFFFFFFFFFFFFFFFFFFFFFFFFFFFFFFFFFFFFFFF AND DUP2 JUMP JUMPDEST PUSH1 0x0 SLOAD PUSH2 0x210 SWAP1 PUSH21 0x10000000000000000000000000000000000000000 SWAP1 DIV PUSH2 0xFFFF AND DUP2 JUMP JUMPDEST PUSH2 0x1D2 PUSH2 0x572 JUMP JUMPDEST PUSH2 0x1D2 PUSH2 0x27F CALLDATASIZE PUSH1 0x4 PUSH2 0x1521 JUMP JUMPDEST PUSH2 0x602 JUMP JUMPDEST PUSH2 0x147 PUSH32 0x63E58C34D94475BA3FC063E19800B940485850D84D09CD3C1F2C14192C559A68 DUP2 JUMP JUMPDEST PUSH1 0x0 SLOAD PUSH2 0x2D2 SWAP1 PUSH23 0x100000000000000000000000000000000000000000000 SWAP1 DIV PUSH1 0xFF AND DUP2 JUMP JUMPDEST PUSH1 0x40 MLOAD SWAP1 ISZERO ISZERO DUP2 MSTORE PUSH1 0x20 ADD PUSH2 0x151 JUMP JUMPDEST PUSH2 0x1D2 PUSH2 0x7F7 JUMP JUMPDEST PUSH2 0x1D2 PUSH2 0x2F8 CALLDATASIZE PUSH1 0x4 PUSH2 0x153C JUMP JUMPDEST PUSH2 0x8C9 JUMP JUMPDEST PUSH2 0x1D2 PUSH2 0x30B CALLDATASIZE PUSH1 0x4 PUSH2 0x1560 JUMP JUMPDEST PUSH2 0xA58 JUMP JUMPDEST PUSH2 0x1D2 PUSH2 0x31E CALLDATASIZE PUSH1 0x4 PUSH2 0x15D5 JUMP JUMPDEST PUSH2 0xC31 JUMP JUMPDEST PUSH2 0x1D2 PUSH2 0x331 CALLDATASIZE PUSH1 0x4 PUSH2 0x153C JUMP JUMPDEST PUSH2 0xDB3 JUMP JUMPDEST PUSH1 0x2 SLOAD PUSH20 0xFFFFFFFFFFFFFFFFFFFFFFFFFFFFFFFFFFFFFFFF AND CALLER EQ PUSH2 0x3BC JUMPI PUSH1 0x40 MLOAD PUSH32 0x8C379A000000000000000000000000000000000000000000000000000000000 DUP2 MSTORE PUSH1 0x20 PUSH1 0x4 DUP3 ADD MSTORE PUSH1 0x18 PUSH1 0x24 DUP3 ADD MSTORE PUSH32 0x6F6E6C7920616C676562726120666565206D616E616765720000000000000000 PUSH1 0x44 DUP3 ADD MSTORE PUSH1 0x64 ADD JUMPDEST PUSH1 0x40 MLOAD DUP1 SWAP2 SUB SWAP1 REVERT JUMPDEST PUSH20 0xFFFFFFFFFFFFFFFFFFFFFFFFFFFFFFFFFFFFFFFF DUP2 AND PUSH2 0x3DC JUMPI PUSH1 0x0 DUP1 REVERT JUMPDEST PUSH1 0x1 SLOAD PUSH20 0xFFFFFFFFFFFFFFFFFFFFFFFFFFFFFFFFFFFFFFFF SWAP1 DUP2 AND SWAP1 DUP3 AND SUB PUSH2 0x404 JUMPI PUSH1 0x0 DUP1 REVERT JUMPDEST PUSH1 0x1 DUP1 SLOAD PUSH32 0xFFFFFFFFFFFFFFFFFFFFFFFF0000000000000000000000000000000000000000 AND PUSH20 0xFFFFFFFFFFFFFFFFFFFFFFFFFFFFFFFFFFFFFFFF DUP4 AND SWAP1 DUP2 OR SWAP1 SWAP2 SSTORE PUSH1 0x40 MLOAD SWAP1 DUP2 MSTORE PUSH32 0x34D1B5EF1C1C2C03A5000B91BEF5C465790244C6751C794E5B45BED7657C38FD SWAP1 PUSH1 0x20 ADD JUMPDEST PUSH1 0x40 MLOAD DUP1 SWAP2 SUB SWAP1 LOG1 POP JUMP JUMPDEST PUSH1 0x2 SLOAD PUSH20 0xFFFFFFFFFFFFFFFFFFFFFFFFFFFFFFFFFFFFFFFF AND CALLER EQ PUSH2 0x4FF JUMPI PUSH1 0x40 MLOAD PUSH32 0x8C379A000000000000000000000000000000000000000000000000000000000 DUP2 MSTORE PUSH1 0x20 PUSH1 0x4 DUP3 ADD MSTORE PUSH1 0x18 PUSH1 0x24 DUP3 ADD MSTORE PUSH32 0x6F6E6C7920616C676562726120666565206D616E616765720000000000000000 PUSH1 0x44 DUP3 ADD MSTORE PUSH1 0x64 ADD PUSH2 0x3B3 JUMP JUMPDEST PUSH1 0x3 DUP1 SLOAD PUSH32 0xFFFFFFFFFFFFFFFFFFFFFFFF0000000000000000000000000000000000000000 AND PUSH20 0xFFFFFFFFFFFFFFFFFFFFFFFFFFFFFFFFFFFFFFFF DUP4 AND SWAP1 DUP2 OR SWAP1 SWAP2 SSTORE PUSH1 0x40 MLOAD SWAP1 DUP2 MSTORE PUSH32 0xAB6918BA7303F2F81E46E324B5F34AF4BDA562577C1DA710E2034980FEE1E82A SWAP1 PUSH1 0x20 ADD PUSH2 0x473 JUMP JUMPDEST PUSH1 0x3 SLOAD PUSH20 0xFFFFFFFFFFFFFFFFFFFFFFFFFFFFFFFFFFFFFFFF AND CALLER EQ PUSH2 0x596 JUMPI PUSH1 0x0 DUP1 REVERT JUMPDEST PUSH1 0x2 DUP1 SLOAD CALLER PUSH32 0xFFFFFFFFFFFFFFFFFFFFFFFF0000000000000000000000000000000000000000 SWAP2 DUP3 AND DUP2 OR SWAP1 SWAP3 SSTORE PUSH1 0x3 DUP1 SLOAD SWAP1 SWAP2 AND SWAP1 SSTORE PUSH1 0x40 MLOAD SWAP1 DUP2 MSTORE PUSH32 0xECF97A11FB2F2BCC38D1B6881865ECC04405AF2D8B953004C79B3AB398732D02 SWAP1 PUSH1 0x20 ADD PUSH1 0x40 MLOAD DUP1 SWAP2 SUB SWAP1 LOG1 JUMP JUMPDEST PUSH1 0x40 MLOAD PUSH32 0xE8AE2B6900000000000000000000000000000000000000000000000000000000 DUP2 MSTORE PUSH32 0x63E58C34D94475BA3FC063E19800B940485850D84D09CD3C1F2C14192C559A68 PUSH1 0x4 DUP3 ADD MSTORE CALLER PUSH1 0x24 DUP3 ADD MSTORE PUSH32 0x0 PUSH20 0xFFFFFFFFFFFFFFFFFFFFFFFFFFFFFFFFFFFFFFFF AND SWAP1 PUSH4 0xE8AE2B69 SWAP1 PUSH1 0x44 ADD PUSH1 0x20 PUSH1 0x40 MLOAD DUP1 DUP4 SUB DUP2 DUP7 GAS STATICCALL ISZERO DUP1 ISZERO PUSH2 0x6B2 JUMPI RETURNDATASIZE PUSH1 0x0 DUP1 RETURNDATACOPY RETURNDATASIZE PUSH1 0x0 REVERT JUMPDEST POP POP POP POP PUSH1 0x40 MLOAD RETURNDATASIZE PUSH1 0x1F NOT PUSH1 0x1F DUP3 ADD AND DUP3 ADD DUP1 PUSH1 0x40 MSTORE POP DUP2 ADD SWAP1 PUSH2 0x6D6 SWAP2 SWAP1 PUSH2 0x15FF JUMP JUMPDEST PUSH2 0x73C JUMPI PUSH1 0x40 MLOAD PUSH32 0x8C379A000000000000000000000000000000000000000000000000000000000 DUP2 MSTORE PUSH1 0x20 PUSH1 0x4 DUP3 ADD MSTORE PUSH1 0x12 PUSH1 0x24 DUP3 ADD MSTORE PUSH32 0x6F6E6C792061646D696E6973747261746F720000000000000000000000000000 PUSH1 0x44 DUP3 ADD MSTORE PUSH1 0x64 ADD PUSH2 0x3B3 JUMP JUMPDEST PUSH20 0xFFFFFFFFFFFFFFFFFFFFFFFFFFFFFFFFFFFFFFFF DUP2 AND PUSH2 0x75C JUMPI PUSH1 0x0 DUP1 REVERT JUMPDEST PUSH1 0x0 SLOAD PUSH20 0xFFFFFFFFFFFFFFFFFFFFFFFFFFFFFFFFFFFFFFFF SWAP1 DUP2 AND SWAP1 DUP3 AND SUB PUSH2 0x784 JUMPI PUSH1 0x0 DUP1 REVERT JUMPDEST PUSH1 0x0 DUP1 SLOAD PUSH32 0xFFFFFFFFFFFFFFFFFFFFFFFF0000000000000000000000000000000000000000 AND PUSH20 0xFFFFFFFFFFFFFFFFFFFFFFFFFFFFFFFFFFFFFFFF DUP4 AND SWAP1 DUP2 OR SWAP1 SWAP2 SSTORE PUSH1 0x40 MLOAD SWAP1 DUP2 MSTORE PUSH32 0x2F4DB788B994A5908051D68A2340153F49870447185A244D2326861E60CC4186 SWAP1 PUSH1 0x20 ADD PUSH2 0x473 JUMP JUMPDEST PUSH1 0x2 SLOAD PUSH20 0xFFFFFFFFFFFFFFFFFFFFFFFFFFFFFFFFFFFFFFFF AND CALLER EQ PUSH2 0x878 JUMPI PUSH1 0x40 MLOAD PUSH32 0x8C379A000000000000000000000000000000000000000000000000000000000 DUP2 MSTORE PUSH1 0x20 PUSH1 0x4 DUP3 ADD MSTORE PUSH1 0x18 PUSH1 0x24 DUP3 ADD MSTORE PUSH32 0x6F6E6C7920616C676562726120666565206D616E616765720000000000000000 PUSH1 0x44 DUP3 ADD MSTORE PUSH1 0x64 ADD PUSH2 0x3B3 JUMP JUMPDEST PUSH1 0x0 DUP1 SLOAD PUSH32 0xFFFFFFFFFFFFFF000000FFFFFFFFFFFFFFFFFFFFFFFFFFFFFFFFFFFFFFFFFFFF AND DUP2 SSTORE PUSH1 0x40 MLOAD PUSH32 0x9F4BBADE0736EDBD2EC12C598BDAC4573AF13A3B57820AE4C7DA5C61703EAAFF SWAP2 SWAP1 LOG1 JUMP JUMPDEST PUSH1 0x2 SLOAD PUSH20 0xFFFFFFFFFFFFFFFFFFFFFFFFFFFFFFFFFFFFFFFF AND CALLER EQ PUSH2 0x94A JUMPI PUSH1 0x40 MLOAD PUSH32 0x8C379A000000000000000000000000000000000000000000000000000000000 DUP2 MSTORE PUSH1 0x20 PUSH1 0x4 DUP3 ADD MSTORE PUSH1 0x18 PUSH1 0x24 DUP3 ADD MSTORE PUSH32 0x6F6E6C7920616C676562726120666565206D616E616765720000000000000000 PUSH1 0x44 DUP3 ADD MSTORE PUSH1 0x64 ADD PUSH2 0x3B3 JUMP JUMPDEST PUSH2 0x3E8 PUSH2 0xFFFF DUP3 AND GT ISZERO PUSH2 0x95D JUMPI PUSH1 0x0 DUP1 REVERT JUMPDEST PUSH1 0x0 SLOAD PUSH2 0xFFFF DUP3 DUP2 AND PUSH24 0x10000000000000000000000000000000000000000000000 SWAP1 SWAP3 DIV AND EQ DUP1 ISZERO SWAP1 PUSH2 0x9B2 JUMPI POP PUSH1 0x0 SLOAD PUSH2 0xFFFF DUP3 DUP2 AND PUSH21 0x10000000000000000000000000000000000000000 SWAP1 SWAP3 DIV AND EQ ISZERO JUMPDEST PUSH2 0x9BB JUMPI PUSH1 0x0 DUP1 REVERT JUMPDEST PUSH1 0x0 DUP1 SLOAD PUSH2 0xFFFF DUP4 AND PUSH24 0x10000000000000000000000000000000000000000000000 MUL PUSH32 0xFFFFFFFFFFFFFF000000FFFFFFFFFFFFFFFFFFFFFFFFFFFFFFFFFFFFFFFFFFFF SWAP1 SWAP2 AND OR PUSH23 0x100000000000000000000000000000000000000000000 OR SWAP1 SSTORE PUSH1 0x40 MLOAD PUSH32 0x2D6AC59D6DA98F80C7EA481D17C670EA310B000FFF5CF1732D94D93652DD25B7 SWAP1 PUSH2 0x473 SWAP1 DUP4 SWAP1 PUSH2 0xFFFF SWAP2 SWAP1 SWAP2 AND DUP2 MSTORE PUSH1 0x20 ADD SWAP1 JUMP JUMPDEST PUSH1 0x2 SLOAD PUSH20 0xFFFFFFFFFFFFFFFFFFFFFFFFFFFFFFFFFFFFFFFF AND CALLER EQ DUP1 PUSH2 0xB4D JUMPI POP PUSH1 0x40 MLOAD PUSH32 0xE8AE2B6900000000000000000000000000000000000000000000000000000000 DUP2 MSTORE PUSH32 0xB77A63F119F4DC2174DC6C76FC1A1565FA4F2B0DDE50ED5C0465471CD9B331F6 PUSH1 0x4 DUP3 ADD MSTORE CALLER PUSH1 0x24 DUP3 ADD MSTORE PUSH32 0x0 PUSH20 0xFFFFFFFFFFFFFFFFFFFFFFFFFFFFFFFFFFFFFFFF AND SWAP1 PUSH4 0xE8AE2B69 SWAP1 PUSH1 0x44 ADD PUSH1 0x20 PUSH1 0x40 MLOAD DUP1 DUP4 SUB DUP2 DUP7 GAS STATICCALL ISZERO DUP1 ISZERO PUSH2 0xB29 JUMPI RETURNDATASIZE PUSH1 0x0 DUP1 RETURNDATACOPY RETURNDATASIZE PUSH1 0x0 REVERT JUMPDEST POP POP POP POP PUSH1 0x40 MLOAD RETURNDATASIZE PUSH1 0x1F NOT PUSH1 0x1F DUP3 ADD AND DUP3 ADD DUP1 PUSH1 0x40 MSTORE POP DUP2 ADD SWAP1 PUSH2 0xB4D SWAP2 SWAP1 PUSH2 0x15FF JUMP JUMPDEST PUSH2 0xBB3 JUMPI PUSH1 0x40 MLOAD PUSH32 0x8C379A000000000000000000000000000000000000000000000000000000000 DUP2 MSTORE PUSH1 0x20 PUSH1 0x4 DUP3 ADD MSTORE PUSH1 0xF PUSH1 0x24 DUP3 ADD MSTORE PUSH32 0x6F6E6C7920776974686472617765720000000000000000000000000000000000 PUSH1 0x44 DUP3 ADD MSTORE PUSH1 0x64 ADD PUSH2 0x3B3 JUMP JUMPDEST DUP1 PUSH1 0x0 DUP1 DUP1 PUSH2 0xBC0 PUSH2 0x109D JUMP JUMPDEST SWAP3 POP SWAP3 POP SWAP3 POP PUSH1 0x0 JUMPDEST DUP5 DUP2 LT ISZERO PUSH2 0xC28 JUMPI PUSH2 0xC20 DUP8 DUP8 DUP4 DUP2 DUP2 LT PUSH2 0xBE6 JUMPI PUSH2 0xBE6 PUSH2 0x1621 JUMP JUMPDEST PUSH2 0xBFC SWAP3 PUSH1 0x20 PUSH1 0x40 SWAP1 SWAP3 MUL ADD SWAP1 DUP2 ADD SWAP2 POP PUSH2 0x1521 JUMP JUMPDEST DUP4 DUP10 DUP10 DUP6 DUP2 DUP2 LT PUSH2 0xC0F JUMPI PUSH2 0xC0F PUSH2 0x1621 JUMP JUMPDEST SWAP1 POP PUSH1 0x40 MUL ADD PUSH1 0x20 ADD CALLDATALOAD DUP8 DUP8 PUSH2 0x11DF JUMP JUMPDEST PUSH1 0x1 ADD PUSH2 0xBC9 JUMP JUMPDEST POP POP POP POP POP POP POP JUMP JUMPDEST PUSH1 0x2 SLOAD PUSH20 0xFFFFFFFFFFFFFFFFFFFFFFFFFFFFFFFFFFFFFFFF AND CALLER EQ DUP1 PUSH2 0xD26 JUMPI POP PUSH1 0x40 MLOAD PUSH32 0xE8AE2B6900000000000000000000000000000000000000000000000000000000 DUP2 MSTORE PUSH32 0xB77A63F119F4DC2174DC6C76FC1A1565FA4F2B0DDE50ED5C0465471CD9B331F6 PUSH1 0x4 DUP3 ADD MSTORE CALLER PUSH1 0x24 DUP3 ADD MSTORE PUSH32 0x0 PUSH20 0xFFFFFFFFFFFFFFFFFFFFFFFFFFFFFFFFFFFFFFFF AND SWAP1 PUSH4 0xE8AE2B69 SWAP1 PUSH1 0x44 ADD PUSH1 0x20 PUSH1 0x40 MLOAD DUP1 DUP4 SUB DUP2 DUP7 GAS STATICCALL ISZERO DUP1 ISZERO PUSH2 0xD02 JUMPI RETURNDATASIZE PUSH1 0x0 DUP1 RETURNDATACOPY RETURNDATASIZE PUSH1 0x0 REVERT JUMPDEST POP POP POP POP PUSH1 0x40 MLOAD RETURNDATASIZE PUSH1 0x1F NOT PUSH1 0x1F DUP3 ADD AND DUP3 ADD DUP1 PUSH1 0x40 MSTORE POP DUP2 ADD SWAP1 PUSH2 0xD26 SWAP2 SWAP1 PUSH2 0x15FF JUMP JUMPDEST PUSH2 0xD8C JUMPI PUSH1 0x40 MLOAD PUSH32 0x8C379A000000000000000000000000000000000000000000000000000000000 DUP2 MSTORE PUSH1 0x20 PUSH1 0x4 DUP3 ADD MSTORE PUSH1 0xF PUSH1 0x24 DUP3 ADD MSTORE PUSH32 0x6F6E6C7920776974686472617765720000000000000000000000000000000000 PUSH1 0x44 DUP3 ADD MSTORE PUSH1 0x64 ADD PUSH2 0x3B3 JUMP JUMPDEST PUSH1 0x0 DUP1 PUSH1 0x0 PUSH2 0xD99 PUSH2 0x109D JUMP JUMPDEST SWAP3 POP SWAP3 POP SWAP3 POP PUSH2 0xDAC DUP6 DUP3 DUP7 DUP7 DUP7 PUSH2 0x11DF JUMP JUMPDEST POP POP POP POP POP JUMP JUMPDEST PUSH1 0x40 MLOAD PUSH32 0xE8AE2B6900000000000000000000000000000000000000000000000000000000 DUP2 MSTORE PUSH32 0x63E58C34D94475BA3FC063E19800B940485850D84D09CD3C1F2C14192C559A68 PUSH1 0x4 DUP3 ADD MSTORE CALLER PUSH1 0x24 DUP3 ADD MSTORE PUSH32 0x0 PUSH20 0xFFFFFFFFFFFFFFFFFFFFFFFFFFFFFFFFFFFFFFFF AND SWAP1 PUSH4 0xE8AE2B69 SWAP1 PUSH1 0x44 ADD PUSH1 0x20 PUSH1 0x40 MLOAD DUP1 DUP4 SUB DUP2 DUP7 GAS STATICCALL ISZERO DUP1 ISZERO PUSH2 0xE63 JUMPI RETURNDATASIZE PUSH1 0x0 DUP1 RETURNDATACOPY RETURNDATASIZE PUSH1 0x0 REVERT JUMPDEST POP POP POP POP PUSH1 0x40 MLOAD RETURNDATASIZE PUSH1 0x1F NOT PUSH1 0x1F DUP3 ADD AND DUP3 ADD DUP1 PUSH1 0x40 MSTORE POP DUP2 ADD SWAP1 PUSH2 0xE87 SWAP2 SWAP1 PUSH2 0x15FF JUMP JUMPDEST PUSH2 0xEED JUMPI PUSH1 0x40 MLOAD PUSH32 0x8C379A000000000000000000000000000000000000000000000000000000000 DUP2 MSTORE PUSH1 0x20 PUSH1 0x4 DUP3 ADD MSTORE PUSH1 0x12 PUSH1 0x24 DUP3 ADD MSTORE PUSH32 0x6F6E6C792061646D696E6973747261746F720000000000000000000000000000 PUSH1 0x44 DUP3 ADD MSTORE PUSH1 0x64 ADD PUSH2 0x3B3 JUMP JUMPDEST PUSH1 0x0 SLOAD PUSH23 0x100000000000000000000000000000000000000000000 SWAP1 DIV PUSH1 0xFF AND PUSH2 0xF73 JUMPI PUSH1 0x40 MLOAD PUSH32 0x8C379A000000000000000000000000000000000000000000000000000000000 DUP2 MSTORE PUSH1 0x20 PUSH1 0x4 DUP3 ADD MSTORE PUSH1 0xC PUSH1 0x24 DUP3 ADD MSTORE PUSH32 0x6E6F742070726F706F7365640000000000000000000000000000000000000000 PUSH1 0x44 DUP3 ADD MSTORE PUSH1 0x64 ADD PUSH2 0x3B3 JUMP JUMPDEST PUSH1 0x0 SLOAD PUSH2 0xFFFF DUP3 DUP2 AND PUSH24 0x10000000000000000000000000000000000000000000000 SWAP1 SWAP3 DIV AND EQ PUSH2 0x1000 JUMPI PUSH1 0x40 MLOAD PUSH32 0x8C379A000000000000000000000000000000000000000000000000000000000 DUP2 MSTORE PUSH1 0x20 PUSH1 0x4 DUP3 ADD MSTORE PUSH1 0xF PUSH1 0x24 DUP3 ADD MSTORE PUSH32 0x696E76616C6964206E6577206665650000000000000000000000000000000000 PUSH1 0x44 DUP3 ADD MSTORE PUSH1 0x64 ADD PUSH2 0x3B3 JUMP JUMPDEST PUSH1 0x0 DUP1 SLOAD PUSH32 0xFFFFFFFFFFFFFF0000000000FFFFFFFFFFFFFFFFFFFFFFFFFFFFFFFFFFFFFFFF AND PUSH21 0x10000000000000000000000000000000000000000 PUSH2 0xFFFF DUP5 AND SWAP1 DUP2 MUL PUSH32 0xFFFFFFFFFFFFFF000000FFFFFFFFFFFFFFFFFFFFFFFFFFFFFFFFFFFFFFFFFFFF AND SWAP2 SWAP1 SWAP2 OR SWAP1 SWAP2 SSTORE PUSH1 0x40 MLOAD SWAP1 DUP2 MSTORE PUSH32 0xDA1E1A9A6410ACC0398B3B64E0C0110B8DF57E29BFE69A419CDD9AE12718C307 SWAP1 PUSH1 0x20 ADD PUSH2 0x473 JUMP JUMPDEST PUSH1 0x0 SLOAD PUSH1 0x1 SLOAD PUSH2 0xFFFF PUSH21 0x10000000000000000000000000000000000000000 DUP4 DIV AND SWAP2 PUSH20 0xFFFFFFFFFFFFFFFFFFFFFFFFFFFFFFFFFFFFFFFF SWAP2 DUP3 AND SWAP2 AND DUP3 ISZERO PUSH2 0x115D JUMPI PUSH20 0xFFFFFFFFFFFFFFFFFFFFFFFFFFFFFFFFFFFFFFFF DUP3 AND PUSH2 0x115D JUMPI PUSH1 0x40 MLOAD PUSH32 0x8C379A000000000000000000000000000000000000000000000000000000000 DUP2 MSTORE PUSH1 0x20 PUSH1 0x4 DUP3 ADD MSTORE PUSH1 0x1C PUSH1 0x24 DUP3 ADD MSTORE PUSH32 0x696E76616C696420616C67656272612066656520726563656976657200000000 PUSH1 0x44 DUP3 ADD MSTORE PUSH1 0x64 ADD PUSH2 0x3B3 JUMP JUMPDEST PUSH20 0xFFFFFFFFFFFFFFFFFFFFFFFFFFFFFFFFFFFFFFFF DUP2 AND PUSH2 0x11DA JUMPI PUSH1 0x40 MLOAD PUSH32 0x8C379A000000000000000000000000000000000000000000000000000000000 DUP2 MSTORE PUSH1 0x20 PUSH1 0x4 DUP3 ADD MSTORE PUSH1 0x10 PUSH1 0x24 DUP3 ADD MSTORE PUSH32 0x696E76616C696420726563656976657200000000000000000000000000000000 PUSH1 0x44 DUP3 ADD MSTORE PUSH1 0x64 ADD PUSH2 0x3B3 JUMP JUMPDEST SWAP1 SWAP2 SWAP3 JUMP JUMPDEST DUP3 PUSH2 0xFFFF DUP4 AND ISZERO PUSH2 0x127F JUMPI PUSH1 0x0 PUSH2 0x11FD DUP3 PUSH2 0xFFFF DUP7 AND PUSH2 0x3E8 PUSH2 0x12F9 JUMP JUMPDEST SWAP1 POP PUSH2 0x1209 DUP2 DUP4 PUSH2 0x1650 JUMP JUMPDEST SWAP2 POP PUSH2 0x1216 DUP8 DUP5 DUP4 PUSH2 0x1398 JUMP JUMPDEST DUP3 PUSH20 0xFFFFFFFFFFFFFFFFFFFFFFFFFFFFFFFFFFFFFFFF AND DUP8 PUSH20 0xFFFFFFFFFFFFFFFFFFFFFFFFFFFFFFFFFFFFFFFF AND PUSH32 0xB7EE7FC9DACB957CFA93FAEB8CA1826292DE295E18E287A347DDDFDE7AB48B40 DUP4 PUSH1 0x40 MLOAD PUSH2 0x1275 SWAP2 DUP2 MSTORE PUSH1 0x20 ADD SWAP1 JUMP JUMPDEST PUSH1 0x40 MLOAD DUP1 SWAP2 SUB SWAP1 LOG3 POP JUMPDEST PUSH2 0x128A DUP7 DUP7 DUP4 PUSH2 0x1398 JUMP JUMPDEST DUP5 PUSH20 0xFFFFFFFFFFFFFFFFFFFFFFFFFFFFFFFFFFFFFFFF AND DUP7 PUSH20 0xFFFFFFFFFFFFFFFFFFFFFFFFFFFFFFFFFFFFFFFF AND PUSH32 0x7A629B77EF27AD337ABE438773206187960A90ABFB43607826BEF77D650E84B9 DUP4 PUSH1 0x40 MLOAD PUSH2 0x12E9 SWAP2 DUP2 MSTORE PUSH1 0x20 ADD SWAP1 JUMP JUMPDEST PUSH1 0x40 MLOAD DUP1 SWAP2 SUB SWAP1 LOG3 POP POP POP POP POP POP JUMP JUMPDEST PUSH1 0x0 DUP4 ISZERO DUP1 PUSH2 0x131A JUMPI POP POP DUP3 DUP3 MUL DUP3 DUP5 DUP3 DUP2 PUSH2 0x1317 JUMPI PUSH2 0x1317 PUSH2 0x1690 JUMP JUMPDEST DIV EQ JUMPDEST ISZERO PUSH2 0x133B JUMPI PUSH1 0x0 DUP3 GT PUSH2 0x132C JUMPI PUSH1 0x0 DUP1 REVERT JUMPDEST DUP2 DUP2 DIV SWAP1 DUP3 SWAP1 MOD ISZERO ISZERO ADD PUSH2 0x1391 JUMP JUMPDEST PUSH2 0x1346 DUP5 DUP5 DUP5 PUSH2 0x1441 JUMP JUMPDEST SWAP1 POP PUSH1 0x0 DUP3 DUP1 PUSH2 0x1358 JUMPI PUSH2 0x1358 PUSH2 0x1690 JUMP JUMPDEST DUP5 DUP7 MULMOD GT ISZERO PUSH2 0x1391 JUMPI PUSH32 0xFFFFFFFFFFFFFFFFFFFFFFFFFFFFFFFFFFFFFFFFFFFFFFFFFFFFFFFFFFFFFFFF DUP2 LT PUSH2 0x138D JUMPI PUSH1 0x0 DUP1 REVERT JUMPDEST PUSH1 0x1 ADD JUMPDEST SWAP4 SWAP3 POP POP POP JUMP JUMPDEST PUSH1 0x0 PUSH1 0x40 MLOAD PUSH32 0xA9059CBB00000000000000000000000000000000000000000000000000000000 PUSH1 0x0 MSTORE PUSH20 0xFFFFFFFFFFFFFFFFFFFFFFFFFFFFFFFFFFFFFFFF DUP5 AND PUSH1 0x4 MSTORE DUP3 PUSH1 0x24 MSTORE PUSH1 0x20 PUSH1 0x0 PUSH1 0x44 PUSH1 0x0 DUP1 DUP10 GAS CALL SWAP2 POP DUP2 RETURNDATASIZE ISZERO PUSH1 0x20 RETURNDATASIZE EQ PUSH1 0x1 PUSH1 0x0 MLOAD EQ AND OR AND SWAP2 POP DUP1 PUSH1 0x40 MSTORE POP DUP1 PUSH2 0x143B JUMPI PUSH1 0x40 MLOAD PUSH32 0xE465903E00000000000000000000000000000000000000000000000000000000 DUP2 MSTORE PUSH1 0x4 ADD PUSH1 0x40 MLOAD DUP1 SWAP2 SUB SWAP1 REVERT JUMPDEST POP POP POP POP JUMP JUMPDEST PUSH1 0x0 DUP4 DUP4 MUL DUP2 PUSH32 0xFFFFFFFFFFFFFFFFFFFFFFFFFFFFFFFFFFFFFFFFFFFFFFFFFFFFFFFFFFFFFFFF DUP6 DUP8 MULMOD DUP3 DUP2 LT DUP4 DUP3 SUB SUB SWAP2 POP POP DUP1 DUP5 GT PUSH2 0x1481 JUMPI PUSH1 0x0 DUP1 REVERT JUMPDEST DUP1 PUSH1 0x0 SUB PUSH2 0x1494 JUMPI POP DUP3 SWAP1 DIV SWAP1 POP PUSH2 0x1391 JUMP JUMPDEST DUP4 DUP6 DUP8 MULMOD PUSH1 0x0 DUP6 DUP2 SUB DUP7 AND SWAP6 DUP7 SWAP1 DIV SWAP6 PUSH1 0x2 PUSH1 0x3 DUP9 MUL DUP2 XOR DUP1 DUP10 MUL DUP3 SUB MUL DUP1 DUP10 MUL DUP3 SUB MUL DUP1 DUP10 MUL DUP3 SUB MUL DUP1 DUP10 MUL DUP3 SUB MUL DUP1 DUP10 MUL DUP3 SUB MUL DUP1 DUP10 MUL SWAP1 SWAP2 SUB MUL SWAP2 DUP2 SWAP1 SUB DUP2 SWAP1 DIV PUSH1 0x1 ADD DUP6 DUP5 GT SWAP1 SWAP5 SUB SWAP4 SWAP1 SWAP4 MUL SWAP2 SWAP1 SWAP4 SUB SWAP2 SWAP1 SWAP2 DIV OR MUL SWAP1 POP SWAP4 SWAP3 POP POP POP JUMP JUMPDEST DUP1 CALLDATALOAD PUSH20 0xFFFFFFFFFFFFFFFFFFFFFFFFFFFFFFFFFFFFFFFF DUP2 AND DUP2 EQ PUSH2 0x151C JUMPI PUSH1 0x0 DUP1 REVERT JUMPDEST SWAP2 SWAP1 POP JUMP JUMPDEST PUSH1 0x0 PUSH1 0x20 DUP3 DUP5 SUB SLT ISZERO PUSH2 0x1533 JUMPI PUSH1 0x0 DUP1 REVERT JUMPDEST PUSH2 0x1391 DUP3 PUSH2 0x14F8 JUMP JUMPDEST PUSH1 0x0 PUSH1 0x20 DUP3 DUP5 SUB SLT ISZERO PUSH2 0x154E JUMPI PUSH1 0x0 DUP1 REVERT JUMPDEST DUP2 CALLDATALOAD PUSH2 0xFFFF DUP2 AND DUP2 EQ PUSH2 0x1391 JUMPI PUSH1 0x0 DUP1 REVERT JUMPDEST PUSH1 0x0 DUP1 PUSH1 0x20 DUP4 DUP6 SUB SLT ISZERO PUSH2 0x1573 JUMPI PUSH1 0x0 DUP1 REVERT JUMPDEST DUP3 CALLDATALOAD PUSH8 0xFFFFFFFFFFFFFFFF DUP1 DUP3 GT ISZERO PUSH2 0x158B JUMPI PUSH1 0x0 DUP1 REVERT JUMPDEST DUP2 DUP6 ADD SWAP2 POP DUP6 PUSH1 0x1F DUP4 ADD SLT PUSH2 0x159F JUMPI PUSH1 0x0 DUP1 REVERT JUMPDEST DUP2 CALLDATALOAD DUP2 DUP2 GT ISZERO PUSH2 0x15AE JUMPI PUSH1 0x0 DUP1 REVERT JUMPDEST DUP7 PUSH1 0x20 DUP3 PUSH1 0x6 SHL DUP6 ADD ADD GT ISZERO PUSH2 0x15C3 JUMPI PUSH1 0x0 DUP1 REVERT JUMPDEST PUSH1 0x20 SWAP3 SWAP1 SWAP3 ADD SWAP7 SWAP2 SWAP6 POP SWAP1 SWAP4 POP POP POP POP JUMP JUMPDEST PUSH1 0x0 DUP1 PUSH1 0x40 DUP4 DUP6 SUB SLT ISZERO PUSH2 0x15E8 JUMPI PUSH1 0x0 DUP1 REVERT JUMPDEST PUSH2 0x15F1 DUP4 PUSH2 0x14F8 JUMP JUMPDEST SWAP5 PUSH1 0x20 SWAP4 SWAP1 SWAP4 ADD CALLDATALOAD SWAP4 POP POP POP JUMP JUMPDEST PUSH1 0x0 PUSH1 0x20 DUP3 DUP5 SUB SLT ISZERO PUSH2 0x1611 JUMPI PUSH1 0x0 DUP1 REVERT JUMPDEST DUP2 MLOAD DUP1 ISZERO ISZERO DUP2 EQ PUSH2 0x1391 JUMPI PUSH1 0x0 DUP1 REVERT JUMPDEST PUSH32 0x4E487B7100000000000000000000000000000000000000000000000000000000 PUSH1 0x0 MSTORE PUSH1 0x32 PUSH1 0x4 MSTORE PUSH1 0x24 PUSH1 0x0 REVERT JUMPDEST DUP2 DUP2 SUB DUP2 DUP2 GT ISZERO PUSH2 0x168A JUMPI PUSH32 0x4E487B7100000000000000000000000000000000000000000000000000000000 PUSH1 0x0 MSTORE PUSH1 0x11 PUSH1 0x4 MSTORE PUSH1 0x24 PUSH1 0x0 REVERT JUMPDEST SWAP3 SWAP2 POP POP JUMP JUMPDEST PUSH32 0x4E487B7100000000000000000000000000000000000000000000000000000000 PUSH1 0x0 MSTORE PUSH1 0x12 PUSH1 0x4 MSTORE PUSH1 0x24 PUSH1 0x0 REVERT INVALID LOG1 PUSH5 0x736F6C6343 STOP ADDMOD EQ STOP EXP "},"methodIdentifiers":{"COMMUNITY_FEE_VAULT_ADMINISTRATOR()":"bbac3b8d","COMMUNITY_FEE_WITHDRAWER_ROLE()":"1de41613","acceptAlgebraFeeChangeProposal(uint16)":"ff3c43e1","acceptAlgebraFeeManagerRole()":"ad6129ac","algebraFee()":"9f856b8d","algebraFeeManager()":"9d754dde","algebraFeeReceiver()":"4738761c","cancelAlgebraFeeChangeProposal()":"d17bc783","changeAlgebraFeeReceiver(address)":"48a50fcf","changeCommunityFeeReceiver(address)":"b5f680ae","communityFeeReceiver()":"371abc95","hasNewAlgebraFeeProposal()":"c53b3fbe","proposeAlgebraFeeChange(uint16)":"d9fb4353","proposedNewAlgebraFee()":"62744405","transferAlgebraFeeManagerRole(address)":"50eea0c8","withdraw(address,uint256)":"f3fef3a3","withdrawTokens((address,uint256)[])":"dfadc794"}}}}}