{"contracts/AlgebraPoolDeployer.sol":{"AlgebraPoolDeployer":{"abi":[{"inputs":[{"internalType":"address","name":"_factory","type":"address"}],"stateMutability":"nonpayable","type":"constructor"},{"inputs":[{"internalType":"address","name":"plugin","type":"address"},{"internalType":"address","name":"token0","type":"address"},{"internalType":"address","name":"token1","type":"address"},{"internalType":"address","name":"deployer","type":"address"}],"name":"deploy","outputs":[{"internalType":"address","name":"pool","type":"address"}],"stateMutability":"nonpayable","type":"function"},{"inputs":[],"name":"getDeployParameters","outputs":[{"internalType":"address","name":"_plugin","type":"address"},{"internalType":"address","name":"_factory","type":"address"},{"internalType":"address","name":"_token0","type":"address"},{"internalType":"address","name":"_token1","type":"address"}],"stateMutability":"view","type":"function"}],"evm":{"bytecode":{"linkReferences":{},"object":"60a060405234801561001057600080fd5b50604051615e85380380615e858339818101604052602081101561003357600080fd5b50516001600160a01b03811661004857600080fd5b6001600160a01b0316608052608051615e0f61007660003960008181610114015261014c0152615e0f6000f3fe608060405234801561001057600080fd5b50600436106100365760003560e01c806304889e261461003b578063fd82b73a14610077575b600080fd5b6100436100d1565b604080516001600160a01b039586168152938516602085015291841683830152909216606082015290519081900360800190f35b6100b56004803603608081101561008d57600080fd5b506001600160a01b03813581169160208101358216916040820135811691606001351661013f565b604080516001600160a01b039092168252519081900360200190f35b600080600080610110600054600154606082901c92600160401b600160a01b0360409390931b9290921660a082901c17916001600160a01b0390911690565b91967f000000000000000000000000000000000000000000000000000000000000000096509094509092509050565b6000336001600160a01b037f0000000000000000000000000000000000000000000000000000000000000000161461017657600080fd5b606085811b604086901c6001600160601b0316176000556001600160a01b0384811660a087901b6001600160a01b0319161760015583166101e25750604080516001600160a01b038087166020830152851681830152815180820383018152606090910190915261021c565b50604080516001600160a01b0380851660208301528087168284015285166060808301919091528251808303909101815260809091019091525b8051602082012060405161022f90610263565b8190604051809103906000f590508015801561024f573d6000803e3d6000fd5b506000600181905580559695505050505050565b615b92806102718339019056fe60e06040523480156200001157600080fd5b5060006200001e620000b0565b6001600160a01b0390811660c05290811660a052166080529050620d89e719620000488162000273565b6009805462ffffff93841663010000000265ffffffffffff1990911693909216929092171790556002805460ff60e01b1916600160e01b1790556001600160a01b038116156200009d576200009d8162000129565b50620000aa60036200017d565b6200031e565b600080600080336001600160a01b03166304889e266040518163ffffffff1660e01b8152600401608060405180830381865afa158015620000f5573d6000803e3d6000fd5b505050506040513d601f19601f820116820180604052508101906200011b9190620002c1565b935093509350935090919293565b600680546001600160a01b0319166001600160a01b0383169081179091556040519081527f27a3944eff2135a57675f17e72501038982b73620d01f794c72e93d61a3932a29060200160405180910390a150565b620d89e7196200018d8162000273565b620d89e7196000818152602085905260409020600101805465ffffffffffff60801b1916600160981b62ffffff9485160262ffffff60801b191617600160801b949093169390930291909117909155620001e78162000273565b826000620001f9620d89e71962000273565b60020b60020b81526020019081526020016000206001016010846000620d89e719620002259062000273565b60020b81526020810191909152604001600020600101805462ffffff948516600160981b0262ffffff60981b1990911617905581549383166101009190910a90810292021990921617905550565b60008160020b627fffff1981036200029b57634e487b7160e01b600052601160045260246000fd5b60000392915050565b80516001600160a01b0381168114620002bc57600080fd5b919050565b60008060008060808587031215620002d857600080fd5b620002e385620002a4565b9350620002f360208601620002a4565b92506200030360408601620002a4565b91506200031360608601620002a4565b905092959194509250565b60805160a05160c0516157a3620003ef6000396000818161091e01528181610be9015281816111460152818161148401528181611810015281816118dd01528181611c13015281816129d601528181612f47015281816131f90152614b6501526000818161025401528181610c7a015281816111020152818161144101528181611848015281816118a501528181611bc40152818161298701528181612bc3015281816131ab0152614b3001526000818161089001528181611d950152818161330c0152613eeb01526157a36000f3fe608060405234801561001057600080fd5b50600436106101d85760003560e01c8063050a4d21146101dd5780630902f1ac146102085780630dfe16811461024f578063128acb08146102925780631a6865021461033f5780631dd19cb414610375578063240a875a1461037f5780633b3bc70e146103a0578063490e6cbc146104325780634f1eb3d8146104bc578063514ea4bf1461050d57806353e9786814610597578063578b9a36146105aa5780636378ae44146105da57806370cf754a146105f557806377f8c3a91461060a5780637bd78025146106215780638380edb71461063d5780638e0055531461065e57806397ce1c511461067f5780639e4e0227146106e0578063a1eded871461077d578063aafe29c014610799578063bca57f811461086b578063c45a01551461088b578063c677e3e0146108b2578063cc1f97cf146108df578063d0c93a7c14610905578063d21220a714610919578063d5c35a7e14610940578063d8544cf31461094d578063d861903714610973578063ddca3f43146109a0578063e76c01e4146109bf578063ecdecf4214610a54578063ef01df4f14610a5d578063f085a61014610a70578063f30dba9314610a90578063f637731d14610b2a578063fff6cae914610b50575b600080fd5b6009546101f1906301000000900460020b81565b6040805160029290920b8252519081900360200190f35b600c546001600160801b0380821691600160801b9004165b60405180836001600160801b03168152602001826001600160801b031681526020019250505060405180910390f35b6102767f000000000000000000000000000000000000000000000000000000000000000081565b604080516001600160a01b039092168252519081900360200190f35b610326600480360360a08110156102a857600080fd5b6001600160a01b0382358116926020810135151592604082013592606083013516919081019060a081016080820135600160201b8111156102e857600080fd5b8201836020820111156102fa57600080fd5b803590602001918460018302840111600160201b8311171561031b57600080fd5b509092509050610b58565b6040805192835260208301919091528051918290030190f35b60095461035990600160301b90046001600160801b031681565b604080516001600160801b039092168252519081900360200190f35b61037d610d3d565b005b61037d6004803603602081101561039557600080fd5b503561ffff16610d60565b610326600480360360808110156103b657600080fd5b8135600290810b92602081013590910b916001600160801b036040830135169190810190608081016060820135600160201b8111156103f457600080fd5b82018360208201111561040657600080fd5b803590602001918460018302840111600160201b8311171561042757600080fd5b509092509050610ddf565b61037d6004803603608081101561044857600080fd5b6001600160a01b038235169160208101359160408201359190810190608081016060820135600160201b81111561047e57600080fd5b82018360208201111561049057600080fd5b803590602001918460018302840111600160201b831117156104b157600080fd5b509092509050610fe3565b610220600480360360a08110156104d257600080fd5b506001600160a01b03813516906020810135600290810b91604081013590910b906001600160801b0360608201358116916080013516611395565b6105606004803603602081101561052357600080fd5b50600b60205235600090815260409020805460018201546002830154600390930154919290916001600160801b0380821691600160801b90041685565b604080519586526020860194909452848401929092526001600160801b039081166060850152166080830152519081900360a00190f35b600754610276906001600160a01b031681565b6009546105c190600160c81b900463ffffffff1681565b6040805163ffffffff9092168252519081900360200190f35b6105e360005481565b60408051918252519081900360200190f35b6103596d09745258e83de0d0f4e400fce79981565b6004546105c190600160d01b900463ffffffff1681565b6004546001600160681b0380821691600160681b900416610220565b600254600160e01b900460ff16604080519115158252519081900360200190f35b61037d6004803603602081101561067457600080fd5b503561ffff16611551565b6106876115f1565b604080516001600160a01b039098168852600296870b602089015261ffff9095168786015260ff90931660608701526001600160801b039091166080860152830b60a085015290910b60c0830152519081900360e00190f35b610326600480360360c08110156106f657600080fd5b6001600160a01b0382358116926020810135821692604082013515159260608301359260808101359091169181019060c0810160a0820135600160201b81111561073f57600080fd5b82018360208201111561075157600080fd5b803590602001918460018302840111600160201b8311171561077257600080fd5b509092509050611684565b6005546001600160681b0380821691600160681b900416610220565b610844600480360360c08110156107af57600080fd5b6001600160a01b0382358116926020810135909116916040820135600290810b92606081013590910b916001600160801b03608083013516919081019060c0810160a0820135600160201b81111561080657600080fd5b82018360208201111561081857600080fd5b803590602001918460018302840111600160201b8311171561083957600080fd5b50909250905061196c565b6040805193845260208401929092526001600160801b031682820152519081900360600190f35b61037d6004803603602081101561088157600080fd5b503560ff16611d0c565b6102767f000000000000000000000000000000000000000000000000000000000000000081565b6105e3600480360360208110156108c857600080fd5b5060086020523560010b6000908152604090205481565b61037d600480360360208110156108f557600080fd5b50356001600160a01b0316611d5f565b6009546101f190600160b01b900460020b81565b6102767f000000000000000000000000000000000000000000000000000000000000000081565b6009546101f19060020b81565b61037d6004803603602081101561096357600080fd5b50356001600160a01b0316611d82565b6105e36004803603602081101561098957600080fd5b50600a6020523560010b6000908152604090205481565b6109a8611dfd565b6040805161ffff9092168252519081900360200190f35b60028054610a0a916001600160a01b03821691600160a01b810490910b9061ffff600160b81b820481169160ff600160c81b8204811692600160d01b83041691600160e01b90041686565b604080516001600160a01b03909716875260029590950b602087015261ffff9384168686015260ff90921660608601529091166080840152151560a0830152519081900360c00190f35b6105e360015481565b600654610276906001600160a01b031681565b61037d60048036036020811015610a8657600080fd5b503560020b611ea1565b610aee60048036036020811015610aa657600080fd5b50600360208190529035600290810b600090815260409020805460018201548284015492909401549093600f81900b93600160801b8204810b93600160981b909204900b9186565b60408051968752600f9590950b6020870152600293840b868601529190920b6060850152608084019190915260a0830152519081900360c00190f35b61037d60048036036020811015610b4057600080fd5b50356001600160a01b0316611f0a565b61037d612106565b600080600080610b6e8a8a8a8a60008b8b612128565b91509150610b7a61226d565b610b826154f7565b610b8a615517565b610b9784848d8d8d6122a6565b6001600160801b03909116604088015260029190910b60208701526001600160a01b03909116855291975095509050600080610bd161292f565b915091508c15610c6c576000871215610c1257610c127f00000000000000000000000000000000000000000000000000000000000000008f89600003612b38565b610c1e88888c8c612b48565b610c26612ba9565b610c30898461554f565b1115610c4f57604051633ed6d50560e21b815260040160405180910390fd5b610c6788888560000151600087602001516000612c3e565b610cf8565b6000881215610ca357610ca37f00000000000000000000000000000000000000000000000000000000000000008f8a600003612b38565b610caf88888c8c612b48565b610cb7612f2d565b610cc1888361554f565b1115610ce057604051633ed6d50560e21b815260040160405180910390fd5b610cf888886000866000015160008860200151612c3e565b610d148e89898760000151886040015189602001518c8c612f7c565b50505050610d20613002565b610d308a8a8a8a88888c8c613017565b5050965096945050505050565b610d45613120565b610d4d61226d565b610d563361314b565b610d5e613002565b565b610d6861329c565b610d706132c6565b6103e861ffff82161180610d93575060025461ffff828116600160d01b90920416145b80610db5575061ffff811615801590610db557506007546001600160a01b0316155b15610dd35760405163a709b9af60e01b815260040160405180910390fd5b610ddc8161338c565b50565b6000808686610dee82826133e3565b60016001607f1b036001600160801b0388161115610e1f57604051638995290f60e01b815260040160405180910390fd5b6000610e2a88615562565b90506000610e3c338c8c858c8c613465565b9050610e4661226d565b610e4e61292f565b50506000610e5d338d8d6135ba565b9050610e6b818d8d866135e6565b909750955062ffffff821615610ee1576000808815610ea657610e978962ffffff8616620f4240613708565b9150610ea3828a615585565b98505b8715610ece57610ebf8862ffffff8616620f4240613708565b9050610ecb8189615585565b97505b610ede6000806000808686612c3e565b50505b86861715610f46576003810154610f029088906001600160801b0316615598565b6003820154610f22908890600160801b90046001600160801b0316615598565b6001600160801b039182169116600160801b026001600160801b0319161760038201555b506001600160801b0389168617851715610fbd57604080516001600160801b038b1681526020810188905280820187905262ffffff83166060820152905160028c810b92908e900b9133917f932214d4a69c27c086643126ed97c32681da179064c678836c173f99bd13ca01919081900360800190a45b610fc5613002565b610fd5338c8c858a8a8e8e6137a1565b505050509550959350505050565b600254600160c81b9004601016156110c9576006546040516346f0547760e11b80825233600483018181526001600160a01b038a81166024860152604485018a90526064850189905260a06084860190815260a486018890526110c99694959190941693638de0a8ee93928c928c928c928c928c929060c401848480828437600081840152601f19601f8201169050808301925050509750505050505050506020604051808303816000875af11580156110a1573d6000803e3d6000fd5b505050506040513d60208110156110b757600080fd5b50516001600160e01b031916906138a9565b6110d161226d565b6000806000806110df61292f565b909250905060008815611128576110fb896064620f42406138e6565b90506111287f00000000000000000000000000000000000000000000000000000000000000008b8b612b38565b6000881561116c5761113f896064620f42406138e6565b905061116c7f00000000000000000000000000000000000000000000000000000000000000008c8b612b38565b61117882828a8a613966565b611180612ba9565b95508561118d838661554f565b11156111ac576040516336de50ff60e11b815260040160405180910390fd5b6111b4612f2d565b9450846111c1828561554f565b11156111e05760405163c998149f60e01b815260040160405180910390fd5b60025495849003959483900394600160d01b900461ffff16801561124057600087156112165761121388836103e8613708565b90505b6000871561122e5761122b88846103e8613708565b90505b61123d82828484600080612c3e565b50505b604080518c8152602081018c90528082018990526060810188905290516001600160a01b038e169133917fbdbdb71d7860376ba52b25a5028beea23581364a40522f6bcfb86bb1f2dca6339181900360800190a350505050506112a1613002565b600254600160c81b90046020161561138c5761138c63343d37ff60e01b600660009054906101000a90046001600160a01b03166001600160a01b031663343d37ff338b8b8b89898d8d6040518963ffffffff1660e01b815260040180896001600160a01b03168152602001886001600160a01b03168152602001878152602001868152602001858152602001848152602001806020018281038252848482818152602001925080828437600081840152601f19601f82011690508083019250505099505050505050505050506020604051808303816000875af11580156110a1573d6000803e3d6000fd5b50505050505050565b6000806113a061226d565b60006113ad3388886135ba565b60038101549091506001600160801b0380821691600160801b900481169087168210156113d8578196505b806001600160801b0316866001600160801b031611156113f6578095505b6001600160801b03878717161561153c576001600160801b0387830381168783038216600160801b026001600160801b031916176003850155879550869450851615611470576114707f00000000000000000000000000000000000000000000000000000000000000008b876001600160801b0316612b38565b6001600160801b038416156114b3576114b37f00000000000000000000000000000000000000000000000000000000000000008b866001600160801b0316612b38565b6114db856001600160801b0316600003856001600160801b0316600003600080600080612c3e565b604080516001600160a01b038c1681526001600160801b038088166020830152861681830152905160028a810b92908c900b9133917f70935338e69775456a85ddef226c395fb668b63fa0115f5f20610b388e6ca9c0919081900360600190a45b611544613002565b5050509550959350505050565b600254600160c81b8104608016151590600160e01b900460ff1661158857604051636798480960e11b815260040160405180910390fd5b6006546001600160a01b031633036115bd57806115b857604051633a4528ef60e01b815260040160405180910390fd5b6115e4565b80156115dc576040516369cdc70760e11b815260040160405180910390fd5b6115e46132c6565b6115ed8261398f565b5050565b600280546001600160a01b03811691600160a01b8204900b9061ffff600160b81b8204169060ff600160c81b820481169160009182918291600160e01b909104168061165057604051636798480960e11b815260040160405180910390fd5b505060095495969495939492936001600160801b03600160301b82041693600282810b9450630100000090920490910b9150565b60008060008612156116a9576040516334cb3a0160e11b815260040160405180910390fd5b6116b161226d565b6000871561170a5760006116c3612ba9565b90506116d28860008888612b48565b60006116dc612ba9565b90506116f06116eb8383615585565b6139df565b9250611703836000806000806000612c3e565b5050611752565b6000611714612f2d565b90506117236000898888612b48565b600061172d612f2d565b905061173c6116eb8383615585565b925061174f600084600080600080612c3e565b50505b86811461175d578096505b508560000361177f57604051633ed6d50560e21b815260040160405180910390fd5b611787613002565b60008061179a8a8a8a8a60018b8b612128565b915091506117a661226d565b6117ae61292f565b50506117b86154f7565b6117c0615517565b6117cd84848d8d8d6122a6565b6001600160801b03909116604088015260029190910b60208701526001600160a01b039091168552919750955090508a15611897576000851215611839576118397f00000000000000000000000000000000000000000000000000000000000000008d87600003612b38565b858a038a871461186e5761186e7f00000000000000000000000000000000000000000000000000000000000000008f83612b38565b61189161187a826139df565b600003878460000151600086602001516000612c3e565b50611928565b60008612156118ce576118ce7f00000000000000000000000000000000000000000000000000000000000000008d88600003612b38565b848a038a8614611903576119037f00000000000000000000000000000000000000000000000000000000000000008f83612b38565b61192687611910836139df565b6000036000856000015160008760200151612c3e565b505b6119448c87878560000151866040015187602001518a8a612f7c565b61194c613002565b61195c8c8c8c8c8a8a8e8e613017565b5050505097509795505050505050565b6000806000878761197d82826133e3565b876001600160801b03166000036119a75760405163e6ace6df60e01b815260040160405180910390fd5b6119c68b8b8b6119bf8c6001600160801b03166139f3565b8b8b613465565b506119cf61226d565b60028054600160a01b810490910b906001600160a01b03166000819003611a095760405163812eb65560e01b815260040160405180910390fd5b600954600160b01b9004600290810b9081908d900b81611a2b57611a2b6155bf565b078160020b8e60020b81611a4157611a416155bf565b071760020b15611a6457604051635f6e14f360e01b815260040160405180910390fd5b50611a838c8c611a7c8d6001600160801b03166139f3565b8585613a06565b50909750955060009150819050611a9861292f565b91509150611aa887878b8b613ab5565b8615611ac65781611ab7612ba9565b611ac19190615585565b611ac9565b60005b91508515611ae95780611ada612f2d565b611ae49190615585565b611aec565b60005b905086821015611b1157611b0a8a6001600160801b03168389613708565b9450611b15565b8994505b85811015611b55576000611b338b6001600160801b03168389613708565b9050856001600160801b0316816001600160801b03161015611b53578095505b505b846001600160801b0316600003611b7f57604051632fae8a9b60e21b815260040160405180910390fd5b6000611b8c8e8e8e6135ba565b9050611bab818e8e611ba68a6001600160801b03166139f3565b6135e6565b9098509650508615611c005786821115611bf157611bec7f00000000000000000000000000000000000000000000000000000000000000008f898503612b38565b611c00565b868214611c0057611c006155d5565b8515611c4f5785811115611c4057611c3b7f00000000000000000000000000000000000000000000000000000000000000008f888403612b38565b611c4f565b858114611c4f57611c4f6155d5565b611c5f8787600080600080612c3e565b8a60020b8c60020b8e6001600160a01b03167f7a53080ba414158be7ec69b987b5fb7d07dee101fe85488f0853ae16239d0bde33898c8c60405180856001600160a01b03168152602001846001600160801b0316815260200183815260200182815260200194505050505060405180910390a4611cda613002565b611cfb8d8d8d611cf2896001600160801b03166139f3565b8b8b8f8f6137a1565b505050509750975097945050505050565b611d1461329c565b6006546001600160a01b031680611d3e57604051639e727ce360e01b815260040160405180910390fd5b336001600160a01b03821614611d5657611d566132c6565b6115ed82613ade565b611d6761329c565b611d6f6132c6565b611d796000613ade565b610ddc81613b2c565b611d8a61329c565b336001600160a01b037f00000000000000000000000000000000000000000000000000000000000000001614611dc257611dc26132c6565b6001600160a01b038116158015611de55750600254600160d01b900461ffff1615155b15611df457611df4600061338c565b610ddc81613b77565b600254600160b81b810461ffff1690600160c81b900460ff81169060801615611e9d57600660009054906101000a90046001600160a01b03166001600160a01b031663f70d93626040518163ffffffff1660e01b8152600401602060405180830381865afa158015611e73573d6000803e3d6000fd5b505050506040513d601f19601f82011682018060405250810190611e9791906155fd565b91505090565b5090565b611ea961329c565b611eb16132c6565b60008160020b131580611ec957506101f4600282900b135b80611ee35750600954600282810b600160b01b909204900b145b15611f0157604051632bf827d160e21b815260040160405180910390fd5b610ddc81613bc2565b6000611f1582613c12565b6002549091506001600160a01b031615611f4257604051631499a6b760e21b815260040160405180910390fd5b600280546001600160a01b0384166001600160b81b03199091168117600160a01b62ffffff851602178255604080519182529183900b602082015281517f98636036cb66a9c19a37435efc1e90142190214e8abeb821bdba3f2990dd4c95929181900390910190a16006546001600160a01b03161561201b57600654604080516318dbf60160e21b8082523360048301526001600160a01b038681166024840152925161201b9491939091169163636fd80491604480830192602092919082900301816000875af11580156110a1573d6000803e3d6000fd5b6000806000612028613ee4565b9250925092506120378161398f565b61204082613bc2565b61ffff83161580159061205c57506007546001600160a01b0316155b1561207a5760405163a709b9af60e01b815260040160405180910390fd5b6120838361338c565b600254600160c81b9004604016156120ff576006546040805163416eb29160e11b8082523360048301526001600160a01b038981166024840152600289900b604484015292516120ff949193909116916382dd652291606480830192602092919082900301816000875af11580156110a1573d6000803e3d6000fd5b5050505050565b61210e613120565b61211661226d565b61211e61292f565b5050610d5e613002565b6002546000908190600160c81b90046001161561226157612147613f76565b1561215757506000905080612261565b60065460405163029c1cb760e01b815233600482018181526001600160a01b038d811660248501528c15156044850152606484018c90528a8116608485015289151560a485015260e060c4850190815260e48501899052600095919091169363029c1cb793928f928f928f928f928f928f928f92909161010401848480828437600081840152601f19601f82011690508083019250505099505050505050505050506060604051808303816000875af1158015612218573d6000803e3d6000fd5b505050506040513d606081101561222e57600080fd5b5080516020820151604090920151919450909250905061225f6001600160e01b0319821663029c1cb760e01b6138a9565b505b97509795505050505050565b600254600160e01b900460ff1661229757604051636798480960e11b815260040160405180910390fd5b6002805460ff60e01b19169055565b60008060008060006122b6615517565b876000036122d7576040516301e76e6160e61b815260040160405180910390fd5b600160ff1b88036122fb576040516334cb3a0160e11b815260040160405180910390fd5b6040805161016081018252600060208201819052606082018190526080820181905260a0820181905262ffffff8d16610140830152808b1360c08301529181018a9052600954600281810b61012084015263010000008204810b610100840152805461ffff600160d01b820481168552600160b81b82041660e08501526001600160a01b0381169850600160a01b9004900b9550600160301b90046001600160801b03169350908590036123c25760405163812eb65560e01b815260040160405180910390fd5b62ffffff8c161561240a576123d78b8d615618565b62ffffff1660e08201819052620f424011612405576040516315b2afa960e01b815260040160405180910390fd5b61245c565b62ffffff8b161561245c578a8160e0018181516124279190615618565b62ffffff90811690915260e0830151620f4240911610905061245c576040516315b2afa960e01b815260040160405180910390fd5b89156124bc57846001600160a01b0316886001600160a01b031610158061249157506401000276a36001600160a01b03891611155b156124af57604051631662672360e01b815260040160405180910390fd5b6000546080820152612521565b846001600160a01b0316886001600160a01b03161115806124fa575073fffd8963efd1fc6a506488495d951d5263988d266001600160a01b03891610155b1561251857604051631662672360e01b815260040160405180910390fd5b60015460808201525b6125536040518060a0016040528060008152602001600081526020016000815260200160008152602001600081525090565b60008b6125655782610120015161256c565b8261010001515b6001600160a01b0388168352905061258381613f87565b6001600160a01b03908116602084018190526125c0918e918a918e1611821515146125b25784602001516125b4565b8c5b888f8860e00151614262565b60808601526060850152604084015260c084015190975015612618576125ef82608001518360400151016139df565b8b039a5061260e61260383606001516139df565b606085015190614430565b6060840152612650565b61262582606001516139df565b8b019a5061264a61263f83608001518460400151016139df565b60608501519061444c565b60608401525b600083610140015162ffffff16118015612673575060008360e0015162ffffff16115b156126b457600061269c836080015185610140015162ffffff168660e0015162ffffff16613708565b60808401805182900390526020860180519091019052505b8251156126f657825160808301516000916103e8916126d291614462565b816126df576126df6155bf565b608085018051929091049182900390528551018552505b6001600160801b0385161561272d576127218260800151600160801b876001600160801b0316613708565b60808401805190910190525b8160200151876001600160a01b0316036127f757826020015161276857600160208401528b61275e57600054612762565b6001545b60a08401525b60008c156127af57608084015160a08501516127899160039185919061448c565b50600290810b61010087015283900b6101208601526000198301975060000390506127e5565b60a084015160808501516127c89160039185919061448c565b600290810b61012088015284900b61010087015250919650869190505b6127ef86826144d9565b955050612819565b81516001600160a01b038816146128195761281187613c12565b955050612840565b50891580159061283b5750886001600160a01b0316866001600160a01b031614155b612553575b60008a83604001510390508260c0015115158c1515146128655782606001518161286c565b8083606001515b600280546001600160b81b031916600160a01b62ffffff8b16026001600160a01b031916176001600160a01b038b161790556020850151919a509850159050612904576101008201516101208301516009805462ffffff92831665ffffffffffff19909116176301000000929093169190910291909117600160301b600160b01b031916600160301b6001600160801b038716021790555b8a15612917576080820151600055612920565b60808201516001555b50509550955095509550955095565b60008061293a612ba9565b612942612f2d565b90925090506001600160801b0382118061296257506001600160801b0381115b15612a13576007546001600160a01b03166001600160801b038311156129c2576129b77f0000000000000000000000000000000000000000000000000000000000000000826002600160801b03198601612b38565b6001600160801b0392505b6001600160801b03821115612a1157612a067f0000000000000000000000000000000000000000000000000000000000000000826002600160801b03198501612b38565b6001600160801b0391505b505b600954600160301b90046001600160801b03166000819003612a3457509091565b600c546001600160801b0380821691600160801b9004168185118185118180612a5a5750805b15612b2f578115612a9257612a88846001600160801b03168803600160801b876001600160801b0316613708565b6000805490910190555b8015612ac557612abb836001600160801b03168703600160801b876001600160801b0316613708565b6001805490910190555b604080516001600160801b038087168a0382528516880360208201527fef10ebb00f0dbc72ad4602e94abbbda6f3d40632714f70e9c8fa30d5d44289c9910160405180910390a16001600160801b03808816908716600160801b026001600160801b03191617600c555b50505050509091565b612b43838383614553565b505050565b604051631644ac7b60e11b81523390632c8958f690612b7190879087908790879060040161565d565b600060405180830381600087803b158015612b8b57600080fd5b505af1158015612b9f573d6000803e3d6000fd5b5050505050505050565b6040516370a0823160e01b81526000906001600160a01b037f000000000000000000000000000000000000000000000000000000000000000016906370a0823190612bf890309060040161567d565b602060405180830381865afa158015612c15573d6000803e3d6000fd5b505050506040513d601f19601f82011682018060405250810190612c399190615691565b905090565b6000841180612c4d5750600083115b80612c585750600082115b80612c635750600081115b15612ea15760048054600790600160d01b900463ffffffff16600080808080612c8f8c8c888a8c6145bd565b9350935093509350808217600014612cd557612caa826139df565b612cb4908f6156aa565b612cbd826139df565b612cc7908f6156aa565b909e509c5060019450612d1d565b6001600160681b038484171615612d1d57600480546001600160d01b031916600160681b6001600160681b03868116919091026001600160681b031916919091179086161790555b6005975060069650612d388a8a8863ffffffff168a8c6145bd565b9296509094509250905081811715612e2b57612d53826139df565b612d5d908f6156aa565b612d66826139df565b612d70908f6156aa565b809e50819f50505060019450612e2663aa6b14bb60e01b600660009054906101000a90046001600160a01b03166001600160a01b031663aa6b14bb85856040518363ffffffff1660e01b8152600401612dd3929190918252602082015260400190565b6020604051808303816000875af1158015612df2573d6000803e3d6000fd5b505050506040513d601f19601f82011682018060405250810190612e1691906156ca565b6001600160e01b031916906138a9565b612e73565b6001600160681b038484171615612e7357600580546001600160d01b031916600160681b6001600160681b03868116919091026001600160681b031916919091179086161790555b8415612e98576004805463ffffffff60d01b1916600160d01b4263ffffffff16021790555b50505050505050505b85851715612f2557600c546001600160801b0380821691600160801b9004168715612ee457612ed8612ed389846156f4565b6146c9565b6001600160801b031691505b8615612f0357612ef7612ed388836156f4565b6001600160801b031690505b6001600160801b039182169116600160801b026001600160801b03191617600c555b505050505050565b6040516370a0823160e01b81526000906001600160a01b037f000000000000000000000000000000000000000000000000000000000000000016906370a0823190612bf890309060040161567d565b60408051888152602081018890526001600160a01b03878116828401526001600160801b0387166060830152600286900b608083015262ffffff80861660a0840152841660c08301529151918a169133917f121cb44ee54098b1a04743c487e7460d8dd429b27f88b1f4d4767396e1a59f79919081900360e00190a35050505050505050565b6002805460ff60e01b1916600160e01b179055565b60028054600160c81b90041615612b9f57613030613f76565b612b9f57612b9f639cb5a96360e01b600660009054906101000a90046001600160a01b03166001600160a01b0316639cb5a963338c8c8c8c8c8c8c8c6040518a63ffffffff1660e01b8152600401808a6001600160a01b03168152602001896001600160a01b031681526020018815158152602001878152602001866001600160a01b03168152602001858152602001848152602001806020018281038252848482818152602001925080828437600081840152601f19601f8201169050808301925050509a50505050505050505050506020604051808303816000875af11580156110a1573d6000803e3d6000fd5b6006546001600160a01b03163314610d5e57604051634994c26960e11b815260040160405180910390fd5b600080613156612ba9565b61315e612f2d565b600c5491935091506001600160801b0380821691600160801b900416818411806131905750806001600160801b031683115b156120ff57816001600160801b03168411156131e3576131e37f0000000000000000000000000000000000000000000000000000000000000000866131de6001600160801b03861688615585565b612b38565b806001600160801b031683111561322c5761322c7f0000000000000000000000000000000000000000000000000000000000000000866131de6001600160801b03851687615585565b6001600160a01b0385167fb94331e4420f16b156f53c397a8adcd09481283ee7830f7b688b22858e9db80b61326a6001600160801b03851687615585565b61327d6001600160801b03851687615585565b6040805192835260208301919091520160405180910390a25050505050565b600254600160e01b900460ff16610d5e57604051636798480960e11b815260040160405180910390fd5b6040805163e8ae2b6960e01b81527fb73ce166ead2f8e9add217713a7989e4edfba9625f71dfd2516204bb67ad3442600482015233602482015290516001600160a01b037f0000000000000000000000000000000000000000000000000000000000000000169163e8ae2b699160448083019260209291908290030181865afa158015613357573d6000803e3d6000fd5b505050506040513d602081101561336d57600080fd5b5051610d5e57604051634994c26960e11b815260040160405180910390fd5b6002805461ffff60d01b1916600160d01b61ffff8416908102919091179091556040519081527f3647dccc990d4941b0b05b32527ef493a98d6187b20639ca2f9743f3b55ca5e1906020015b60405180910390a150565b6133f0620d89e71961571c565b60020b8160020b131561341657604051631445443d60e01b815260040160405180910390fd5b8160020b8160020b1361343c5760405163d9a841a760e01b815260040160405180910390fd5b620d89e719600283900b12156115ed57604051631d1ac7f160e21b815260040160405180910390fd5b600254600090600160c81b9004600416156135b057613482613f76565b1561348f575060006135b0565b600654604051632f1208d960e11b815233600482018181526001600160a01b038b8116602485015260028b810b60448601528a900b6064850152600f89900b608485015260c060a4850190815260c485018890526000959190911693635e2411b293928d928d928d928d928d928d92919060e401848480828437600081840152601f19601f8201169050808301925050509850505050505050505060408051808303816000875af1158015613548573d6000803e3d6000fd5b505050506040513d604081101561355e57600080fd5b50805160209091015192509050620f424062ffffff831610613593576040516315b2afa960e01b815260040160405180910390fd5b6135ae6001600160e01b03198216632f1208d960e11b6138a9565b505b9695505050505050565b62ffffff818116908316601885811b91909117901b176000908152600b602052604090205b9392505050565b6002805460008054600154919384936001600160a01b03811693600160a01b90910490910b918491829190600f89900b156136425761362c60038c878c868660006146df565b935061363f60038b878c868660016146df565b92505b60008061365460038e8e8a88886147d0565b915091506136648e8c848461486d565b5050505086600f0b6000146136fb57818061367c5750805b1561369557613695898984848760008d600f0b12614962565b60006136a48a8a8a8789613a06565b91985096509050600f81900b156136f9576009546136d290600160301b90046001600160801b0316896144d9565b600960066101000a8154816001600160801b0302191690836001600160801b031602179055505b505b5050505094509492505050565b6000838302816000198587098281108382030391505080841161372a57600080fd5b8060000361373d575082900490506135df565b8385870960008581038616958690049560026003880281188089028203028089028203028089028203028089028203028089028203028089029091030291819003819004600101858411909403939093029190930391909104170290509392505050565b6137a9613f76565b612b9f57600254600160c81b900460081615612b9f57612b9f63d685201060e01b600660009054906101000a90046001600160a01b03166001600160a01b031663d6852010338c8c8c8c8c8c8c8c6040518a63ffffffff1660e01b8152600401808a6001600160a01b03168152602001896001600160a01b031681526020018860020b81526020018760020b815260200186600f0b8152602001858152602001848152602001806020018281038252848482818152602001925080828437600081840152601f19601f8201169050808301925050509a50505050505050505050506020604051808303816000875af11580156110a1573d6000803e3d6000fd5b6001600160e01b0319828116908216146115ed5760405163d3f5153b60e01b81526001600160e01b03198216600482015260240160405180910390fd5b600083158061390757505082820282848281613904576139046155bf565b04145b15613928576000821161391957600080fd5b818104908290061515016135df565b613933848484613708565b905060008280613945576139456155bf565b84860911156135df57600019811061395c57600080fd5b6001019392505050565b604051632982c34f60e21b8152339063a60b0d3c90612b7190879087908790879060040161565d565b6002805461ffff60b81b1916600160b81b61ffff8416908102919091179091556040519081527f598b9f043c813aa6be3426ca60d1c65d17256312890be5118dab55b0775ebe2a906020016133d8565b8060008112156139ee57600080fd5b919050565b806000600f82900b12156139ee57600080fd5b600080600080613a1589613f87565b90506000613a2289613f87565b90506000808b60020b8960020b1215613a4757613a4084848c614a4b565b9150613a85565b8a60020b8960020b1215613a7757613a6088848c614a4b565b9150613a6d84898c614a8b565b9050899450613a85565b613a8284848c614a8b565b90505b60008a600f0b12613a97578181613aa0565b81600003816000035b909d909c50949a509398505050505050505050565b604051633dd657c560e01b81523390633dd657c590612b7190879087908790879060040161565d565b6002805460ff60c81b1916600160c81b60ff8416908102919091179091556040519081527f3a6271b36c1b44bd6a0a0d56230602dc6919b7c17af57254306fadf5fee69dc3906020016133d8565b600680546001600160a01b0319166001600160a01b0383161790556040517f27a3944eff2135a57675f17e72501038982b73620d01f794c72e93d61a3932a2906133d890839061567d565b600780546001600160a01b0319166001600160a01b0383161790556040517fb0b573c1f636e1f8bd9b415ba6c04d6dd49100bc25493fc6305b65ec0e581df3906133d890839061567d565b6009805462ffffff60b01b1916600160b01b62ffffff841602179055604051600282900b81527f01413b1d5d4c359e9a0daa7909ecda165f6e8c51fe2ff529d74b22a5a7c02645906020016133d8565b60006401000276a36001600160a01b0383161080613c4d575073fffd8963efd1fc6a506488495d951d5263988d266001600160a01b03831610155b15613c6b576040516355cf1e2360e01b815260040160405180910390fd5b600160201b600160c01b03602083901b166001600160801b03811160071b81811c6001600160401b03811160061b90811c63ffffffff811160051b90811c61ffff811160041b90811c60ff8111600390811b91821c600f811160021b90811c918211600190811b92831c97908811961790941790921717909117171760808110613cfd57607f810383901c9150613d07565b80607f0383901b91505b908002607f81811c60ff83811c9190911c800280831c81831c1c800280841c81841c1c800280851c81851c1c800280861c81861c1c800280871c81871c1c800280881c81881c1c800280891c81891c1c8002808a1c818a1c1c8002808b1c818b1c1c8002808c1c818c1c1c8002808d1c818d1c1c8002808e1c9c81901c9c909c1c80029c8d901c9e9d607f198f0160401b60c09190911c6001603f1b161760c19b909b1c6001603e1b169a909a1760c29990991c6001603d1b169890981760c39790971c6001603c1b169690961760c49590951c6001603b1b169490941760c59390931c6001603a1b169290921760c69190911c600160391b161760c79190911c600160381b161760c89190911c600160371b161760c99190911c600160361b161760ca9190911c600160351b161760cb9190911c600160341b161760cc9190911c600160331b161760cd9190911c600160321b1617693627a301d71055774c8581026f028f6481ab7f045a5af012a19d003aa9198101608090811d906fdb2df09e81959a81455e260799a0632f8301901d600281810b9083900b14613ed557886001600160a01b0316613eba82613f87565b6001600160a01b03161115613ecf5781613ed7565b80613ed7565b815b9998505050505050505050565b60008060007f00000000000000000000000000000000000000000000000000000000000000006001600160a01b03166325b355d66040518163ffffffff1660e01b8152600401606060405180830381865afa158015613f47573d6000803e3d6000fd5b505050506040513d601f19601f82011682018060405250810190613f6b9190615735565b925092509250909192565b6006546001600160a01b0316331490565b6000600282900b60171d62ffffff818401821816620d89e8811115613fbf57604051633c10250f60e01b815260040160405180910390fd5b600160801b6001821615613fe057506ffffcb933bd6fad37aa2d162d1a5940015b6002821615613fff576ffff97272373d413259a46990580e213a0260801c5b600482161561401e576ffff2e50f5f656932ef12357cf3c7fdcc0260801c5b600882161561403d576fffe5caca7e10e4e61c3624eaa0941cd00260801c5b601082161561405c576fffcb9843d60f6159c9db58835c9266440260801c5b602082161561407b576fff973b41fa98c081472e6896dfb254c00260801c5b604082161561409a576fff2ea16466c96a3843ec78b326b528610260801c5b60808216156140b9576ffe5dee046a99a2a811c461f1969c30530260801c5b6101008216156140d9576ffcbe86c7900a88aedcffc83b479aa3a40260801c5b6102008216156140f9576ff987a7253ac413176f2b074cf7815e540260801c5b610400821615614119576ff3392b0822b70005940c7a398e4b70f30260801c5b610800821615614139576fe7159475a2c29b7443b29c7fa6e889d90260801c5b611000821615614159576fd097f3bdfd2022b8845ad8f792aa58250260801c5b612000821615614179576fa9f746462d870fdf8a65dc1f90e061e50260801c5b614000821615614199576f70d869a156d2a1b890bb3df62baf32f70260801c5b6180008216156141b9576f31be135f97d08fd981231505542fcfa60260801c5b620100008216156141da576f09aa508b5b7a84e1c677de54f3e99bc90260801c5b620200008216156141fa576e5d6af8dedb81196699c329225ee6040260801c5b6204000082106142405762040000821615614223576d2216e584f5fa1ea926041bedfe980260801c5b62080000821615614240576b048a170391f7dc42444e8fa20260801c5b60008560020b131561425157600019045b63ffffffff0160201c949350505050565b6000806000806155318a61427857614abb61427c565b614aca5b9050600087126143505760006142a58888620f42400362ffffff16620f424062ffffff16613708565b90506142b68a8c8b8563ffffffff16565b94508481106142e3578995506142dc858862ffffff1689620f42400362ffffff166138e6565b9250614329565b6142ef8b8a838f614ad9565b9550856001600160a01b03168a6001600160a01b031603614312576143126155d5565b614321868c8b8563ffffffff16565b945084880392505b614348868c8b8f61433c57614af2614340565b614b015b63ffffffff16565b935050614422565b6155318b61436057614af2614364565b614b015b90506143758a8c8b8463ffffffff16565b9350876000039750600088121561439f576040516334cb3a0160e11b815260040160405180910390fd5b8388106143ae578995506143f3565b6143ba8b8a8a8f614b10565b9550856001600160a01b03168a6001600160a01b0316146143e7576143e4868c8b8463ffffffff16565b93505b878411156143f3578793505b614402868c8b8563ffffffff16565b945061441e858862ffffff1689620f42400362ffffff166138e6565b9250505b509650965096509692505050565b8082038281131560008312151461444657600080fd5b92915050565b8181018281121560008312151461444657600080fd5b600082158061448357505081810281838281614480576144806155bf565b04145b61444657600080fd5b600283810b60009081526020869052604090206003810180548284018054870390558403905560010154600f81900b91600160801b8204810b91600160981b9004900b9450945094915050565b60008082600f0b121561451b57508082016001600160801b0380841690821610614516576040516302603ee960e31b815260040160405180910390fd5b614446565b826001600160801b03168284019150816001600160801b0316101561444657604051634cba017960e11b815260040160405180910390fd5b600060405163a9059cbb60e01b6000526001600160a01b03841660045282602452602060006044600080895af19150813d1560203d1460016000511416171691508060405250806145b757604051637232c81f60e11b815260040160405180910390fd5b50505050565b60008080808888171561466b5784546001600160681b038082169160681c166145e68b8361554f565b91506145f28a8261554f565b90506170806146078a63ffffffff4216615585565b10158061461a57506001600160681b0382115b8061462b57506001600160681b0381115b1561465a578754600080614640858585614b20565b6000808d559a508a995090975095506146bd945050505050565b9094509250600091508190506146bd565b61708061467e8863ffffffff4216615585565b106146b05784546001600160681b038082169160681c16808217156146ad578754600080614640858585614b20565b50505b5060009250829150819050805b95509550955095915050565b806001600160801b03811681146139ee57600080fd5b600286900b60009081526020889052604081208054826146ff82896144d9565b6001600160801b031690506d09745258e83de0d0f4e400fce799811115614739576040516312dc1b2560e11b815260040160405180910390fd5b6001830154600f0b8561475d5788600f0b81600f0b61475891906156f4565b61476f565b88600f0b81600f0b61476f91906156aa565b6001850180546001600160801b0319166001600160801b03929092169190911790558184558115945060008390036147c157841594508960020b8b60020b136147c15760038401879055600284018890555b50505050979650505050505050565b600285810b60009081526020889052604080822087840b8084529183209293849391929088900b1215614846578860020b8760020b1261482157816002015486039350816003015485039250614830565b81600201549350816003015492505b6002810154600382015494039390920391610d30565b81600201548160020154039350816003015481600301540392505050965096945050505050565b8354600f84900b60000361489757806001600160801b031660000361489257506145b7565b6148ad565b6148a181856144d9565b6001600160801b031685555b6001850154600286015460008583146148e457600188018690556148e18387036001600160801b038616600160801b613708565b90505b6000858314614911576002890186905561490e8387036001600160801b038716600160801b613708565b90505b6001600160801b03828217161561495757600389018054600160801b6001600160801b03808316860181166001600160801b031990931683178290048116850116021790555b505050505050505050565b60095463010000008104600290810b919081900b90600160c81b900463ffffffff1682828289156149a35761499b8c898386868c614b9a565b919450925090505b88156149bf576149b78b898386868c614b9a565b919450925090505b8260020b8660020b1415806149da57508160020b8560020b14155b806149f157508363ffffffff168163ffffffff1614155b15614a3d576009805462ffffff80861663010000000265ffffffffffff1963ffffffff8616600160c81b021665ffffffffffff63ffffffff60c81b011990931692909217908516171790555b505050505050505050505050565b60008082600f0b1215614a7357614a6b6116eb8585856000036000614c8f565b600003614a83565b614a836116eb8585856001614c8f565b949350505050565b60008082600f0b1215614aab57614a6b6116eb8585856000036000614d2a565b614a836116eb8585856001614d2a565b6000614a838385846001614d2a565b6000614a838484846001614c8f565b6000614ae9858585856001614d91565b95945050505050565b6000614a838385846000614c8f565b6000614a838484846000614d2a565b6000614ae9858585856000614d91565b60008080808615614b5a57614b567f00000000000000000000000000000000000000000000000000000000000000008689612b38565b8691505b8515614b8e57614b8b7f00000000000000000000000000000000000000000000000000000000000000008688612b38565b50845b90969095509350505050565b60008060008315614be457600080614bb360038c614faf565b915091508a60020b8860020b03614bcc57819750614bdd565b8a60020b8760020b03614bdd578096505b5050614c6d565b6000808a60020b8860020b128015614c0157508a60020b8760020b135b15614c2a57508690508560028a810b908c900b1315614c22578a9650614c5d565b8a9750614c5d565b614c386008600a8b8e615105565b600281810b600090815260036020526040902060010154600160801b9004900b925090505b614c6a60038c84846151ba565b50505b6000614c7d6008600a8a8d6152b0565b969a9599509597509395505050505050565b60006001600160a01b0385850381169085168110614cac57600080fd5b600160601b600160e01b03606085901b1683614cf357866001600160a01b0316614ce08383896001600160a01b0316613708565b81614ced57614ced6155bf565b04614d1f565b614d1f614d0a8383896001600160a01b03166138e6565b886001600160a01b0316808204910615150190565b979650505050505050565b6000846001600160a01b0316846001600160a01b03161015614d4b57600080fd5b6001600160a01b038585031682614d7957614d7481856001600160801b0316600160601b613708565b6135b0565b6135b081856001600160801b0316600160601b6138e6565b6000856001600160a01b0316600003614da957600080fd5b846001600160801b0316600003614dbf57600080fd5b83600003614dce575084614ae9565b81151583151503614eca57600160601b600160e01b03606086901b168215614e78576001600160a01b03871685810290868281614e0d57614e0d6155bf565b0403614e3d57818101828110614e3b57614e31838a6001600160a01b0316836138e6565b9350505050614ae9565b505b614e6f82614e64888b6001600160a01b03168681614e5d57614e5d6155bf565b04906152f7565b808204910615150190565b92505050614ae9565b6001600160a01b03871685810290868281614e9557614e956155bf565b0414614ea057600080fd5b808211614eac57600080fd5b614e6f614ec5838a6001600160a01b03168486036138e6565b615307565b8115614f3757614f30614ec56001600160a01b03861115614f0257614efd86600160601b896001600160801b0316613708565b614f20565b6001600160801b038716606087901b81614f1e57614f1e6155bf565b045b6001600160a01b038916906152f7565b9050614ae9565b60006001600160a01b03851115614f6557614f6085600160601b886001600160801b03166138e6565b614f82565b614f82606086901b6001600160801b038816808204910615150190565b905080876001600160a01b031611614f9957600080fd5b6001600160a01b03871603905095945050505050565b600281810b60008181526020859052604081206001810180548383556001600160b01b03198116909155818501839055600390910191909155600160801b8104830b92600160981b909104900b90620d89e719148061501f5750615016620d89e71961571c565b60020b8360020b145b1561507857600283900b6000908152602085905260409020600101805462ffffff808516600160801b0262ffffff60801b19918516600160981b029190911665ffffffffffff60801b19909216919091171790556150fe565b8060020b8260020b0361509e57604051630d6e094960e01b815260040160405180910390fd5b600282810b6000908152602086905260408082206001908101805462ffffff808816600160981b0262ffffff60981b19909216919091179091559385900b83529120018054918416600160801b0262ffffff60801b199092169190911790555b9250929050565b600190810190600090600883811d610d8a01901c90829061ffff83161b851663ffffffff161561516857615139878561531d565b9094509092509050801561514e575050614a83565b61515f86610d8b840160010b61531d565b90945090925090505b806151ab576151868563ffffffff168360010193508360010b61534e565b90935090508061519e5750620d89e89150614a839050565b6151a88684615497565b92505b614d1f87610d89198501615497565b600283900b620d89e71914806151e157506151d8620d89e71961571c565b60020b8360020b145b6145b7578260020b8260020b1280156151ff57508260020b8160020b135b61521c5760405163e45ac17d60e01b815260040160405180910390fd5b600283810b600090815260209590955260408086206001908101805465ffffffffffff60801b1916600160981b62ffffff878116820262ffffff60801b1990811693909317600160801b8a831681029190911790945597860b8a52848a208401805462ffffff60981b191698909916908102979097179097559390920b865290942090930180549092169202919091179055565b816000806152be87856154c3565b9150915081156152ed576152d986610d8a830160010b6154c3565b909250905081156152ed576001811b831892505b5050949350505050565b8082018281101561444657600080fd5b806001600160a01b03811681146139ee57600080fd5b600881901d600181900b6000908152602084905260408120548190615342908561534e565b93969095509293505050565b60008060ff831684811c80830361536a578460ff17935061548e565b7f555555555555555555555555555555555555555555555555555555555555555560008290038216908116156001600160801b0382161560071b176001600160401b03600160801b03600160c01b0382161560061b177bffffffff00000000ffffffff00000000ffffffff00000000ffffffff82161560051b177dffff0000ffff0000ffff0000ffff0000ffff0000ffff0000ffff0000ffff82161560041b177eff00ff00ff00ff00ff00ff00ff00ff00ff00ff00ff00ff00ff00ff00ff00ff82161560031b177f0f0f0f0f0f0f0f0f0f0f0f0f0f0f0f0f0f0f0f0f0f0f0f0f0f0f0f0f0f0f0f0f82161560021b177f33333333333333333333333333333333333333333333333333333333333333339091161560011b1760ff1685019350600192505b50509250929050565b600181900b600090815260208390526040902054600882901b906154bb908261534e565b509392505050565b600881901d600181810b60009081526020949094526040909320805460ff9093169390931b80831890935591811490151891565b604080516060810182526000808252602082018190529181019190915290565b604051806040016040528060008152602001600081525090565b610d5e615780565b634e487b7160e01b600052601160045260246000fd5b8082018082111561444657614446615539565b6000600f82900b6001607f1b810161557c5761557c615539565b60000392915050565b8181038181111561444657614446615539565b6001600160801b038181168382160190808211156155b8576155b8615539565b5092915050565b634e487b7160e01b600052601260045260246000fd5b634e487b7160e01b600052600160045260246000fd5b805161ffff811681146139ee57600080fd5b60006020828403121561560f57600080fd5b6135df826155eb565b62ffffff8181168382160190808211156155b8576155b8615539565b81835281816020850137506000828201602090810191909152601f909101601f19169091010190565b8481528360208201526060604082015260006135b0606083018486615634565b6001600160a01b0391909116815260200190565b6000602082840312156156a357600080fd5b5051919050565b81810360008312801583831316838312821617156155b8576155b8615539565b6000602082840312156156dc57600080fd5b81516001600160e01b0319811681146135df57600080fd5b808201828112600083128015821682158216171561571457615714615539565b505092915050565b60008160020b627fffff19810361557c5761557c615539565b60008060006060848603121561574a57600080fd5b615753846155eb565b925060208401518060020b811461576957600080fd5b9150615777604085016155eb565b90509250925092565b634e487b7160e01b600052605160045260246000fdfea164736f6c6343000814000aa164736f6c6343000814000a","opcodes":"PUSH1 0xA0 PUSH1 0x40 MSTORE CALLVALUE DUP1 ISZERO PUSH2 0x10 JUMPI PUSH1 0x0 DUP1 REVERT JUMPDEST POP PUSH1 0x40 MLOAD PUSH2 0x5E85 CODESIZE SUB DUP1 PUSH2 0x5E85 DUP4 CODECOPY DUP2 DUP2 ADD PUSH1 0x40 MSTORE PUSH1 0x20 DUP2 LT ISZERO PUSH2 0x33 JUMPI PUSH1 0x0 DUP1 REVERT JUMPDEST POP MLOAD PUSH1 0x1 PUSH1 0x1 PUSH1 0xA0 SHL SUB DUP2 AND PUSH2 0x48 JUMPI PUSH1 0x0 DUP1 REVERT JUMPDEST PUSH1 0x1 PUSH1 0x1 PUSH1 0xA0 SHL SUB AND PUSH1 0x80 MSTORE PUSH1 0x80 MLOAD PUSH2 0x5E0F PUSH2 0x76 PUSH1 0x0 CODECOPY PUSH1 0x0 DUP2 DUP2 PUSH2 0x114 ADD MSTORE PUSH2 0x14C ADD MSTORE PUSH2 0x5E0F PUSH1 0x0 RETURN INVALID PUSH1 0x80 PUSH1 0x40 MSTORE CALLVALUE DUP1 ISZERO PUSH2 0x10 JUMPI PUSH1 0x0 DUP1 REVERT JUMPDEST POP PUSH1 0x4 CALLDATASIZE LT PUSH2 0x36 JUMPI PUSH1 0x0 CALLDATALOAD PUSH1 0xE0 SHR DUP1 PUSH4 0x4889E26 EQ PUSH2 0x3B JUMPI DUP1 PUSH4 0xFD82B73A EQ PUSH2 0x77 JUMPI JUMPDEST PUSH1 0x0 DUP1 REVERT JUMPDEST PUSH2 0x43 PUSH2 0xD1 JUMP JUMPDEST PUSH1 0x40 DUP1 MLOAD PUSH1 0x1 PUSH1 0x1 PUSH1 0xA0 SHL SUB SWAP6 DUP7 AND DUP2 MSTORE SWAP4 DUP6 AND PUSH1 0x20 DUP6 ADD MSTORE SWAP2 DUP5 AND DUP4 DUP4 ADD MSTORE SWAP1 SWAP3 AND PUSH1 0x60 DUP3 ADD MSTORE SWAP1 MLOAD SWAP1 DUP2 SWAP1 SUB PUSH1 0x80 ADD SWAP1 RETURN JUMPDEST PUSH2 0xB5 PUSH1 0x4 DUP1 CALLDATASIZE SUB PUSH1 0x80 DUP2 LT ISZERO PUSH2 0x8D JUMPI PUSH1 0x0 DUP1 REVERT JUMPDEST POP PUSH1 0x1 PUSH1 0x1 PUSH1 0xA0 SHL SUB DUP2 CALLDATALOAD DUP2 AND SWAP2 PUSH1 0x20 DUP2 ADD CALLDATALOAD DUP3 AND SWAP2 PUSH1 0x40 DUP3 ADD CALLDATALOAD DUP2 AND SWAP2 PUSH1 0x60 ADD CALLDATALOAD AND PUSH2 0x13F JUMP JUMPDEST PUSH1 0x40 DUP1 MLOAD PUSH1 0x1 PUSH1 0x1 PUSH1 0xA0 SHL SUB SWAP1 SWAP3 AND DUP3 MSTORE MLOAD SWAP1 DUP2 SWAP1 SUB PUSH1 0x20 ADD SWAP1 RETURN JUMPDEST PUSH1 0x0 DUP1 PUSH1 0x0 DUP1 PUSH2 0x110 PUSH1 0x0 SLOAD PUSH1 0x1 SLOAD PUSH1 0x60 DUP3 SWAP1 SHR SWAP3 PUSH1 0x1 PUSH1 0x40 SHL PUSH1 0x1 PUSH1 0xA0 SHL SUB PUSH1 0x40 SWAP4 SWAP1 SWAP4 SHL SWAP3 SWAP1 SWAP3 AND PUSH1 0xA0 DUP3 SWAP1 SHR OR SWAP2 PUSH1 0x1 PUSH1 0x1 PUSH1 0xA0 SHL SUB SWAP1 SWAP2 AND SWAP1 JUMP JUMPDEST SWAP2 SWAP7 PUSH32 0x0 SWAP7 POP SWAP1 SWAP5 POP SWAP1 SWAP3 POP SWAP1 POP JUMP JUMPDEST PUSH1 0x0 CALLER PUSH1 0x1 PUSH1 0x1 PUSH1 0xA0 SHL SUB PUSH32 0x0 AND EQ PUSH2 0x176 JUMPI PUSH1 0x0 DUP1 REVERT JUMPDEST PUSH1 0x60 DUP6 DUP2 SHL PUSH1 0x40 DUP7 SWAP1 SHR PUSH1 0x1 PUSH1 0x1 PUSH1 0x60 SHL SUB AND OR PUSH1 0x0 SSTORE PUSH1 0x1 PUSH1 0x1 PUSH1 0xA0 SHL SUB DUP5 DUP2 AND PUSH1 0xA0 DUP8 SWAP1 SHL PUSH1 0x1 PUSH1 0x1 PUSH1 0xA0 SHL SUB NOT AND OR PUSH1 0x1 SSTORE DUP4 AND PUSH2 0x1E2 JUMPI POP PUSH1 0x40 DUP1 MLOAD PUSH1 0x1 PUSH1 0x1 PUSH1 0xA0 SHL SUB DUP1 DUP8 AND PUSH1 0x20 DUP4 ADD MSTORE DUP6 AND DUP2 DUP4 ADD MSTORE DUP2 MLOAD DUP1 DUP3 SUB DUP4 ADD DUP2 MSTORE PUSH1 0x60 SWAP1 SWAP2 ADD SWAP1 SWAP2 MSTORE PUSH2 0x21C JUMP JUMPDEST POP PUSH1 0x40 DUP1 MLOAD PUSH1 0x1 PUSH1 0x1 PUSH1 0xA0 SHL SUB DUP1 DUP6 AND PUSH1 0x20 DUP4 ADD MSTORE DUP1 DUP8 AND DUP3 DUP5 ADD MSTORE DUP6 AND PUSH1 0x60 DUP1 DUP4 ADD SWAP2 SWAP1 SWAP2 MSTORE DUP3 MLOAD DUP1 DUP4 SUB SWAP1 SWAP2 ADD DUP2 MSTORE PUSH1 0x80 SWAP1 SWAP2 ADD SWAP1 SWAP2 MSTORE JUMPDEST DUP1 MLOAD PUSH1 0x20 DUP3 ADD KECCAK256 PUSH1 0x40 MLOAD PUSH2 0x22F SWAP1 PUSH2 0x263 JUMP JUMPDEST DUP2 SWAP1 PUSH1 0x40 MLOAD DUP1 SWAP2 SUB SWAP1 PUSH1 0x0 CREATE2 SWAP1 POP DUP1 ISZERO DUP1 ISZERO PUSH2 0x24F JUMPI RETURNDATASIZE PUSH1 0x0 DUP1 RETURNDATACOPY RETURNDATASIZE PUSH1 0x0 REVERT JUMPDEST POP PUSH1 0x0 PUSH1 0x1 DUP2 SWAP1 SSTORE DUP1 SSTORE SWAP7 SWAP6 POP POP POP POP POP POP JUMP JUMPDEST PUSH2 0x5B92 DUP1 PUSH2 0x271 DUP4 CODECOPY ADD SWAP1 JUMP INVALID PUSH1 0xE0 PUSH1 0x40 MSTORE CALLVALUE DUP1 ISZERO PUSH3 0x11 JUMPI PUSH1 0x0 DUP1 REVERT JUMPDEST POP PUSH1 0x0 PUSH3 0x1E PUSH3 0xB0 JUMP JUMPDEST PUSH1 0x1 PUSH1 0x1 PUSH1 0xA0 SHL SUB SWAP1 DUP2 AND PUSH1 0xC0 MSTORE SWAP1 DUP2 AND PUSH1 0xA0 MSTORE AND PUSH1 0x80 MSTORE SWAP1 POP PUSH3 0xD89E7 NOT PUSH3 0x48 DUP2 PUSH3 0x273 JUMP JUMPDEST PUSH1 0x9 DUP1 SLOAD PUSH3 0xFFFFFF SWAP4 DUP5 AND PUSH4 0x1000000 MUL PUSH6 0xFFFFFFFFFFFF NOT SWAP1 SWAP2 AND SWAP4 SWAP1 SWAP3 AND SWAP3 SWAP1 SWAP3 OR OR SWAP1 SSTORE PUSH1 0x2 DUP1 SLOAD PUSH1 0xFF PUSH1 0xE0 SHL NOT AND PUSH1 0x1 PUSH1 0xE0 SHL OR SWAP1 SSTORE PUSH1 0x1 PUSH1 0x1 PUSH1 0xA0 SHL SUB DUP2 AND ISZERO PUSH3 0x9D JUMPI PUSH3 0x9D DUP2 PUSH3 0x129 JUMP JUMPDEST POP PUSH3 0xAA PUSH1 0x3 PUSH3 0x17D JUMP JUMPDEST PUSH3 0x31E JUMP JUMPDEST PUSH1 0x0 DUP1 PUSH1 0x0 DUP1 CALLER PUSH1 0x1 PUSH1 0x1 PUSH1 0xA0 SHL SUB AND PUSH4 0x4889E26 PUSH1 0x40 MLOAD DUP2 PUSH4 0xFFFFFFFF AND PUSH1 0xE0 SHL DUP2 MSTORE PUSH1 0x4 ADD PUSH1 0x80 PUSH1 0x40 MLOAD DUP1 DUP4 SUB DUP2 DUP7 GAS STATICCALL ISZERO DUP1 ISZERO PUSH3 0xF5 JUMPI RETURNDATASIZE PUSH1 0x0 DUP1 RETURNDATACOPY RETURNDATASIZE PUSH1 0x0 REVERT JUMPDEST POP POP POP POP PUSH1 0x40 MLOAD RETURNDATASIZE PUSH1 0x1F NOT PUSH1 0x1F DUP3 ADD AND DUP3 ADD DUP1 PUSH1 0x40 MSTORE POP DUP2 ADD SWAP1 PUSH3 0x11B SWAP2 SWAP1 PUSH3 0x2C1 JUMP JUMPDEST SWAP4 POP SWAP4 POP SWAP4 POP SWAP4 POP SWAP1 SWAP2 SWAP3 SWAP4 JUMP JUMPDEST PUSH1 0x6 DUP1 SLOAD PUSH1 0x1 PUSH1 0x1 PUSH1 0xA0 SHL SUB NOT AND PUSH1 0x1 PUSH1 0x1 PUSH1 0xA0 SHL SUB DUP4 AND SWAP1 DUP2 OR SWAP1 SWAP2 SSTORE PUSH1 0x40 MLOAD SWAP1 DUP2 MSTORE PUSH32 0x27A3944EFF2135A57675F17E72501038982B73620D01F794C72E93D61A3932A2 SWAP1 PUSH1 0x20 ADD PUSH1 0x40 MLOAD DUP1 SWAP2 SUB SWAP1 LOG1 POP JUMP JUMPDEST PUSH3 0xD89E7 NOT PUSH3 0x18D DUP2 PUSH3 0x273 JUMP JUMPDEST PUSH3 0xD89E7 NOT PUSH1 0x0 DUP2 DUP2 MSTORE PUSH1 0x20 DUP6 SWAP1 MSTORE PUSH1 0x40 SWAP1 KECCAK256 PUSH1 0x1 ADD DUP1 SLOAD PUSH6 0xFFFFFFFFFFFF PUSH1 0x80 SHL NOT AND PUSH1 0x1 PUSH1 0x98 SHL PUSH3 0xFFFFFF SWAP5 DUP6 AND MUL PUSH3 0xFFFFFF PUSH1 0x80 SHL NOT AND OR PUSH1 0x1 PUSH1 0x80 SHL SWAP5 SWAP1 SWAP4 AND SWAP4 SWAP1 SWAP4 MUL SWAP2 SWAP1 SWAP2 OR SWAP1 SWAP2 SSTORE PUSH3 0x1E7 DUP2 PUSH3 0x273 JUMP JUMPDEST DUP3 PUSH1 0x0 PUSH3 0x1F9 PUSH3 0xD89E7 NOT PUSH3 0x273 JUMP JUMPDEST PUSH1 0x2 SIGNEXTEND PUSH1 0x2 SIGNEXTEND DUP2 MSTORE PUSH1 0x20 ADD SWAP1 DUP2 MSTORE PUSH1 0x20 ADD PUSH1 0x0 KECCAK256 PUSH1 0x1 ADD PUSH1 0x10 DUP5 PUSH1 0x0 PUSH3 0xD89E7 NOT PUSH3 0x225 SWAP1 PUSH3 0x273 JUMP JUMPDEST PUSH1 0x2 SIGNEXTEND DUP2 MSTORE PUSH1 0x20 DUP2 ADD SWAP2 SWAP1 SWAP2 MSTORE PUSH1 0x40 ADD PUSH1 0x0 KECCAK256 PUSH1 0x1 ADD DUP1 SLOAD PUSH3 0xFFFFFF SWAP5 DUP6 AND PUSH1 0x1 PUSH1 0x98 SHL MUL PUSH3 0xFFFFFF PUSH1 0x98 SHL NOT SWAP1 SWAP2 AND OR SWAP1 SSTORE DUP2 SLOAD SWAP4 DUP4 AND PUSH2 0x100 SWAP2 SWAP1 SWAP2 EXP SWAP1 DUP2 MUL SWAP3 MUL NOT SWAP1 SWAP3 AND OR SWAP1 SSTORE POP JUMP JUMPDEST PUSH1 0x0 DUP2 PUSH1 0x2 SIGNEXTEND PUSH3 0x7FFFFF NOT DUP2 SUB PUSH3 0x29B JUMPI PUSH4 0x4E487B71 PUSH1 0xE0 SHL PUSH1 0x0 MSTORE PUSH1 0x11 PUSH1 0x4 MSTORE PUSH1 0x24 PUSH1 0x0 REVERT JUMPDEST PUSH1 0x0 SUB SWAP3 SWAP2 POP POP JUMP JUMPDEST DUP1 MLOAD PUSH1 0x1 PUSH1 0x1 PUSH1 0xA0 SHL SUB DUP2 AND DUP2 EQ PUSH3 0x2BC JUMPI PUSH1 0x0 DUP1 REVERT JUMPDEST SWAP2 SWAP1 POP JUMP JUMPDEST PUSH1 0x0 DUP1 PUSH1 0x0 DUP1 PUSH1 0x80 DUP6 DUP8 SUB SLT ISZERO PUSH3 0x2D8 JUMPI PUSH1 0x0 DUP1 REVERT JUMPDEST PUSH3 0x2E3 DUP6 PUSH3 0x2A4 JUMP JUMPDEST SWAP4 POP PUSH3 0x2F3 PUSH1 0x20 DUP7 ADD PUSH3 0x2A4 JUMP JUMPDEST SWAP3 POP PUSH3 0x303 PUSH1 0x40 DUP7 ADD PUSH3 0x2A4 JUMP JUMPDEST SWAP2 POP PUSH3 0x313 PUSH1 0x60 DUP7 ADD PUSH3 0x2A4 JUMP JUMPDEST SWAP1 POP SWAP3 SWAP6 SWAP2 SWAP5 POP SWAP3 POP JUMP JUMPDEST PUSH1 0x80 MLOAD PUSH1 0xA0 MLOAD PUSH1 0xC0 MLOAD PUSH2 0x57A3 PUSH3 0x3EF PUSH1 0x0 CODECOPY PUSH1 0x0 DUP2 DUP2 PUSH2 0x91E ADD MSTORE DUP2 DUP2 PUSH2 0xBE9 ADD MSTORE DUP2 DUP2 PUSH2 0x1146 ADD MSTORE DUP2 DUP2 PUSH2 0x1484 ADD MSTORE DUP2 DUP2 PUSH2 0x1810 ADD MSTORE DUP2 DUP2 PUSH2 0x18DD ADD MSTORE DUP2 DUP2 PUSH2 0x1C13 ADD MSTORE DUP2 DUP2 PUSH2 0x29D6 ADD MSTORE DUP2 DUP2 PUSH2 0x2F47 ADD MSTORE DUP2 DUP2 PUSH2 0x31F9 ADD MSTORE PUSH2 0x4B65 ADD MSTORE PUSH1 0x0 DUP2 DUP2 PUSH2 0x254 ADD MSTORE DUP2 DUP2 PUSH2 0xC7A ADD MSTORE DUP2 DUP2 PUSH2 0x1102 ADD MSTORE DUP2 DUP2 PUSH2 0x1441 ADD MSTORE DUP2 DUP2 PUSH2 0x1848 ADD MSTORE DUP2 DUP2 PUSH2 0x18A5 ADD MSTORE DUP2 DUP2 PUSH2 0x1BC4 ADD MSTORE DUP2 DUP2 PUSH2 0x2987 ADD MSTORE DUP2 DUP2 PUSH2 0x2BC3 ADD MSTORE DUP2 DUP2 PUSH2 0x31AB ADD MSTORE PUSH2 0x4B30 ADD MSTORE PUSH1 0x0 DUP2 DUP2 PUSH2 0x890 ADD MSTORE DUP2 DUP2 PUSH2 0x1D95 ADD MSTORE DUP2 DUP2 PUSH2 0x330C ADD MSTORE PUSH2 0x3EEB ADD MSTORE PUSH2 0x57A3 PUSH1 0x0 RETURN INVALID PUSH1 0x80 PUSH1 0x40 MSTORE CALLVALUE DUP1 ISZERO PUSH2 0x10 JUMPI PUSH1 0x0 DUP1 REVERT JUMPDEST POP PUSH1 0x4 CALLDATASIZE LT PUSH2 0x1D8 JUMPI PUSH1 0x0 CALLDATALOAD PUSH1 0xE0 SHR DUP1 PUSH4 0x50A4D21 EQ PUSH2 0x1DD JUMPI DUP1 PUSH4 0x902F1AC EQ PUSH2 0x208 JUMPI DUP1 PUSH4 0xDFE1681 EQ PUSH2 0x24F JUMPI DUP1 PUSH4 0x128ACB08 EQ PUSH2 0x292 JUMPI DUP1 PUSH4 0x1A686502 EQ PUSH2 0x33F JUMPI DUP1 PUSH4 0x1DD19CB4 EQ PUSH2 0x375 JUMPI DUP1 PUSH4 0x240A875A EQ PUSH2 0x37F JUMPI DUP1 PUSH4 0x3B3BC70E EQ PUSH2 0x3A0 JUMPI DUP1 PUSH4 0x490E6CBC EQ PUSH2 0x432 JUMPI DUP1 PUSH4 0x4F1EB3D8 EQ PUSH2 0x4BC JUMPI DUP1 PUSH4 0x514EA4BF EQ PUSH2 0x50D JUMPI DUP1 PUSH4 0x53E97868 EQ PUSH2 0x597 JUMPI DUP1 PUSH4 0x578B9A36 EQ PUSH2 0x5AA JUMPI DUP1 PUSH4 0x6378AE44 EQ PUSH2 0x5DA JUMPI DUP1 PUSH4 0x70CF754A EQ PUSH2 0x5F5 JUMPI DUP1 PUSH4 0x77F8C3A9 EQ PUSH2 0x60A JUMPI DUP1 PUSH4 0x7BD78025 EQ PUSH2 0x621 JUMPI DUP1 PUSH4 0x8380EDB7 EQ PUSH2 0x63D JUMPI DUP1 PUSH4 0x8E005553 EQ PUSH2 0x65E JUMPI DUP1 PUSH4 0x97CE1C51 EQ PUSH2 0x67F JUMPI DUP1 PUSH4 0x9E4E0227 EQ PUSH2 0x6E0 JUMPI DUP1 PUSH4 0xA1EDED87 EQ PUSH2 0x77D JUMPI DUP1 PUSH4 0xAAFE29C0 EQ PUSH2 0x799 JUMPI DUP1 PUSH4 0xBCA57F81 EQ PUSH2 0x86B JUMPI DUP1 PUSH4 0xC45A0155 EQ PUSH2 0x88B JUMPI DUP1 PUSH4 0xC677E3E0 EQ PUSH2 0x8B2 JUMPI DUP1 PUSH4 0xCC1F97CF EQ PUSH2 0x8DF JUMPI DUP1 PUSH4 0xD0C93A7C EQ PUSH2 0x905 JUMPI DUP1 PUSH4 0xD21220A7 EQ PUSH2 0x919 JUMPI DUP1 PUSH4 0xD5C35A7E EQ PUSH2 0x940 JUMPI DUP1 PUSH4 0xD8544CF3 EQ PUSH2 0x94D JUMPI DUP1 PUSH4 0xD8619037 EQ PUSH2 0x973 JUMPI DUP1 PUSH4 0xDDCA3F43 EQ PUSH2 0x9A0 JUMPI DUP1 PUSH4 0xE76C01E4 EQ PUSH2 0x9BF JUMPI DUP1 PUSH4 0xECDECF42 EQ PUSH2 0xA54 JUMPI DUP1 PUSH4 0xEF01DF4F EQ PUSH2 0xA5D JUMPI DUP1 PUSH4 0xF085A610 EQ PUSH2 0xA70 JUMPI DUP1 PUSH4 0xF30DBA93 EQ PUSH2 0xA90 JUMPI DUP1 PUSH4 0xF637731D EQ PUSH2 0xB2A JUMPI DUP1 PUSH4 0xFFF6CAE9 EQ PUSH2 0xB50 JUMPI JUMPDEST PUSH1 0x0 DUP1 REVERT JUMPDEST PUSH1 0x9 SLOAD PUSH2 0x1F1 SWAP1 PUSH4 0x1000000 SWAP1 DIV PUSH1 0x2 SIGNEXTEND DUP2 JUMP JUMPDEST PUSH1 0x40 DUP1 MLOAD PUSH1 0x2 SWAP3 SWAP1 SWAP3 SIGNEXTEND DUP3 MSTORE MLOAD SWAP1 DUP2 SWAP1 SUB PUSH1 0x20 ADD SWAP1 RETURN JUMPDEST PUSH1 0xC SLOAD PUSH1 0x1 PUSH1 0x1 PUSH1 0x80 SHL SUB DUP1 DUP3 AND SWAP2 PUSH1 0x1 PUSH1 0x80 SHL SWAP1 DIV AND JUMPDEST PUSH1 0x40 MLOAD DUP1 DUP4 PUSH1 0x1 PUSH1 0x1 PUSH1 0x80 SHL SUB AND DUP2 MSTORE PUSH1 0x20 ADD DUP3 PUSH1 0x1 PUSH1 0x1 PUSH1 0x80 SHL SUB AND DUP2 MSTORE PUSH1 0x20 ADD SWAP3 POP POP POP PUSH1 0x40 MLOAD DUP1 SWAP2 SUB SWAP1 RETURN JUMPDEST PUSH2 0x276 PUSH32 0x0 DUP2 JUMP JUMPDEST PUSH1 0x40 DUP1 MLOAD PUSH1 0x1 PUSH1 0x1 PUSH1 0xA0 SHL SUB SWAP1 SWAP3 AND DUP3 MSTORE MLOAD SWAP1 DUP2 SWAP1 SUB PUSH1 0x20 ADD SWAP1 RETURN JUMPDEST PUSH2 0x326 PUSH1 0x4 DUP1 CALLDATASIZE SUB PUSH1 0xA0 DUP2 LT ISZERO PUSH2 0x2A8 JUMPI PUSH1 0x0 DUP1 REVERT JUMPDEST PUSH1 0x1 PUSH1 0x1 PUSH1 0xA0 SHL SUB DUP3 CALLDATALOAD DUP2 AND SWAP3 PUSH1 0x20 DUP2 ADD CALLDATALOAD ISZERO ISZERO SWAP3 PUSH1 0x40 DUP3 ADD CALLDATALOAD SWAP3 PUSH1 0x60 DUP4 ADD CALLDATALOAD AND SWAP2 SWAP1 DUP2 ADD SWAP1 PUSH1 0xA0 DUP2 ADD PUSH1 0x80 DUP3 ADD CALLDATALOAD PUSH1 0x1 PUSH1 0x20 SHL DUP2 GT ISZERO PUSH2 0x2E8 JUMPI PUSH1 0x0 DUP1 REVERT JUMPDEST DUP3 ADD DUP4 PUSH1 0x20 DUP3 ADD GT ISZERO PUSH2 0x2FA JUMPI PUSH1 0x0 DUP1 REVERT JUMPDEST DUP1 CALLDATALOAD SWAP1 PUSH1 0x20 ADD SWAP2 DUP5 PUSH1 0x1 DUP4 MUL DUP5 ADD GT PUSH1 0x1 PUSH1 0x20 SHL DUP4 GT OR ISZERO PUSH2 0x31B JUMPI PUSH1 0x0 DUP1 REVERT JUMPDEST POP SWAP1 SWAP3 POP SWAP1 POP PUSH2 0xB58 JUMP JUMPDEST PUSH1 0x40 DUP1 MLOAD SWAP3 DUP4 MSTORE PUSH1 0x20 DUP4 ADD SWAP2 SWAP1 SWAP2 MSTORE DUP1 MLOAD SWAP2 DUP3 SWAP1 SUB ADD SWAP1 RETURN JUMPDEST PUSH1 0x9 SLOAD PUSH2 0x359 SWAP1 PUSH1 0x1 PUSH1 0x30 SHL SWAP1 DIV PUSH1 0x1 PUSH1 0x1 PUSH1 0x80 SHL SUB AND DUP2 JUMP JUMPDEST PUSH1 0x40 DUP1 MLOAD PUSH1 0x1 PUSH1 0x1 PUSH1 0x80 SHL SUB SWAP1 SWAP3 AND DUP3 MSTORE MLOAD SWAP1 DUP2 SWAP1 SUB PUSH1 0x20 ADD SWAP1 RETURN JUMPDEST PUSH2 0x37D PUSH2 0xD3D JUMP JUMPDEST STOP JUMPDEST PUSH2 0x37D PUSH1 0x4 DUP1 CALLDATASIZE SUB PUSH1 0x20 DUP2 LT ISZERO PUSH2 0x395 JUMPI PUSH1 0x0 DUP1 REVERT JUMPDEST POP CALLDATALOAD PUSH2 0xFFFF AND PUSH2 0xD60 JUMP JUMPDEST PUSH2 0x326 PUSH1 0x4 DUP1 CALLDATASIZE SUB PUSH1 0x80 DUP2 LT ISZERO PUSH2 0x3B6 JUMPI PUSH1 0x0 DUP1 REVERT JUMPDEST DUP2 CALLDATALOAD PUSH1 0x2 SWAP1 DUP2 SIGNEXTEND SWAP3 PUSH1 0x20 DUP2 ADD CALLDATALOAD SWAP1 SWAP2 SIGNEXTEND SWAP2 PUSH1 0x1 PUSH1 0x1 PUSH1 0x80 SHL SUB PUSH1 0x40 DUP4 ADD CALLDATALOAD AND SWAP2 SWAP1 DUP2 ADD SWAP1 PUSH1 0x80 DUP2 ADD PUSH1 0x60 DUP3 ADD CALLDATALOAD PUSH1 0x1 PUSH1 0x20 SHL DUP2 GT ISZERO PUSH2 0x3F4 JUMPI PUSH1 0x0 DUP1 REVERT JUMPDEST DUP3 ADD DUP4 PUSH1 0x20 DUP3 ADD GT ISZERO PUSH2 0x406 JUMPI PUSH1 0x0 DUP1 REVERT JUMPDEST DUP1 CALLDATALOAD SWAP1 PUSH1 0x20 ADD SWAP2 DUP5 PUSH1 0x1 DUP4 MUL DUP5 ADD GT PUSH1 0x1 PUSH1 0x20 SHL DUP4 GT OR ISZERO PUSH2 0x427 JUMPI PUSH1 0x0 DUP1 REVERT JUMPDEST POP SWAP1 SWAP3 POP SWAP1 POP PUSH2 0xDDF JUMP JUMPDEST PUSH2 0x37D PUSH1 0x4 DUP1 CALLDATASIZE SUB PUSH1 0x80 DUP2 LT ISZERO PUSH2 0x448 JUMPI PUSH1 0x0 DUP1 REVERT JUMPDEST PUSH1 0x1 PUSH1 0x1 PUSH1 0xA0 SHL SUB DUP3 CALLDATALOAD AND SWAP2 PUSH1 0x20 DUP2 ADD CALLDATALOAD SWAP2 PUSH1 0x40 DUP3 ADD CALLDATALOAD SWAP2 SWAP1 DUP2 ADD SWAP1 PUSH1 0x80 DUP2 ADD PUSH1 0x60 DUP3 ADD CALLDATALOAD PUSH1 0x1 PUSH1 0x20 SHL DUP2 GT ISZERO PUSH2 0x47E JUMPI PUSH1 0x0 DUP1 REVERT JUMPDEST DUP3 ADD DUP4 PUSH1 0x20 DUP3 ADD GT ISZERO PUSH2 0x490 JUMPI PUSH1 0x0 DUP1 REVERT JUMPDEST DUP1 CALLDATALOAD SWAP1 PUSH1 0x20 ADD SWAP2 DUP5 PUSH1 0x1 DUP4 MUL DUP5 ADD GT PUSH1 0x1 PUSH1 0x20 SHL DUP4 GT OR ISZERO PUSH2 0x4B1 JUMPI PUSH1 0x0 DUP1 REVERT JUMPDEST POP SWAP1 SWAP3 POP SWAP1 POP PUSH2 0xFE3 JUMP JUMPDEST PUSH2 0x220 PUSH1 0x4 DUP1 CALLDATASIZE SUB PUSH1 0xA0 DUP2 LT ISZERO PUSH2 0x4D2 JUMPI PUSH1 0x0 DUP1 REVERT JUMPDEST POP PUSH1 0x1 PUSH1 0x1 PUSH1 0xA0 SHL SUB DUP2 CALLDATALOAD AND SWAP1 PUSH1 0x20 DUP2 ADD CALLDATALOAD PUSH1 0x2 SWAP1 DUP2 SIGNEXTEND SWAP2 PUSH1 0x40 DUP2 ADD CALLDATALOAD SWAP1 SWAP2 SIGNEXTEND SWAP1 PUSH1 0x1 PUSH1 0x1 PUSH1 0x80 SHL SUB PUSH1 0x60 DUP3 ADD CALLDATALOAD DUP2 AND SWAP2 PUSH1 0x80 ADD CALLDATALOAD AND PUSH2 0x1395 JUMP JUMPDEST PUSH2 0x560 PUSH1 0x4 DUP1 CALLDATASIZE SUB PUSH1 0x20 DUP2 LT ISZERO PUSH2 0x523 JUMPI PUSH1 0x0 DUP1 REVERT JUMPDEST POP PUSH1 0xB PUSH1 0x20 MSTORE CALLDATALOAD PUSH1 0x0 SWAP1 DUP2 MSTORE PUSH1 0x40 SWAP1 KECCAK256 DUP1 SLOAD PUSH1 0x1 DUP3 ADD SLOAD PUSH1 0x2 DUP4 ADD SLOAD PUSH1 0x3 SWAP1 SWAP4 ADD SLOAD SWAP2 SWAP3 SWAP1 SWAP2 PUSH1 0x1 PUSH1 0x1 PUSH1 0x80 SHL SUB DUP1 DUP3 AND SWAP2 PUSH1 0x1 PUSH1 0x80 SHL SWAP1 DIV AND DUP6 JUMP JUMPDEST PUSH1 0x40 DUP1 MLOAD SWAP6 DUP7 MSTORE PUSH1 0x20 DUP7 ADD SWAP5 SWAP1 SWAP5 MSTORE DUP5 DUP5 ADD SWAP3 SWAP1 SWAP3 MSTORE PUSH1 0x1 PUSH1 0x1 PUSH1 0x80 SHL SUB SWAP1 DUP2 AND PUSH1 0x60 DUP6 ADD MSTORE AND PUSH1 0x80 DUP4 ADD MSTORE MLOAD SWAP1 DUP2 SWAP1 SUB PUSH1 0xA0 ADD SWAP1 RETURN JUMPDEST PUSH1 0x7 SLOAD PUSH2 0x276 SWAP1 PUSH1 0x1 PUSH1 0x1 PUSH1 0xA0 SHL SUB AND DUP2 JUMP JUMPDEST PUSH1 0x9 SLOAD PUSH2 0x5C1 SWAP1 PUSH1 0x1 PUSH1 0xC8 SHL SWAP1 DIV PUSH4 0xFFFFFFFF AND DUP2 JUMP JUMPDEST PUSH1 0x40 DUP1 MLOAD PUSH4 0xFFFFFFFF SWAP1 SWAP3 AND DUP3 MSTORE MLOAD SWAP1 DUP2 SWAP1 SUB PUSH1 0x20 ADD SWAP1 RETURN JUMPDEST PUSH2 0x5E3 PUSH1 0x0 SLOAD DUP2 JUMP JUMPDEST PUSH1 0x40 DUP1 MLOAD SWAP2 DUP3 MSTORE MLOAD SWAP1 DUP2 SWAP1 SUB PUSH1 0x20 ADD SWAP1 RETURN JUMPDEST PUSH2 0x359 PUSH14 0x9745258E83DE0D0F4E400FCE799 DUP2 JUMP JUMPDEST PUSH1 0x4 SLOAD PUSH2 0x5C1 SWAP1 PUSH1 0x1 PUSH1 0xD0 SHL SWAP1 DIV PUSH4 0xFFFFFFFF AND DUP2 JUMP JUMPDEST PUSH1 0x4 SLOAD PUSH1 0x1 PUSH1 0x1 PUSH1 0x68 SHL SUB DUP1 DUP3 AND SWAP2 PUSH1 0x1 PUSH1 0x68 SHL SWAP1 DIV AND PUSH2 0x220 JUMP JUMPDEST PUSH1 0x2 SLOAD PUSH1 0x1 PUSH1 0xE0 SHL SWAP1 DIV PUSH1 0xFF AND PUSH1 0x40 DUP1 MLOAD SWAP2 ISZERO ISZERO DUP3 MSTORE MLOAD SWAP1 DUP2 SWAP1 SUB PUSH1 0x20 ADD SWAP1 RETURN JUMPDEST PUSH2 0x37D PUSH1 0x4 DUP1 CALLDATASIZE SUB PUSH1 0x20 DUP2 LT ISZERO PUSH2 0x674 JUMPI PUSH1 0x0 DUP1 REVERT JUMPDEST POP CALLDATALOAD PUSH2 0xFFFF AND PUSH2 0x1551 JUMP JUMPDEST PUSH2 0x687 PUSH2 0x15F1 JUMP JUMPDEST PUSH1 0x40 DUP1 MLOAD PUSH1 0x1 PUSH1 0x1 PUSH1 0xA0 SHL SUB SWAP1 SWAP9 AND DUP9 MSTORE PUSH1 0x2 SWAP7 DUP8 SIGNEXTEND PUSH1 0x20 DUP10 ADD MSTORE PUSH2 0xFFFF SWAP1 SWAP6 AND DUP8 DUP7 ADD MSTORE PUSH1 0xFF SWAP1 SWAP4 AND PUSH1 0x60 DUP8 ADD MSTORE PUSH1 0x1 PUSH1 0x1 PUSH1 0x80 SHL SUB SWAP1 SWAP2 AND PUSH1 0x80 DUP7 ADD MSTORE DUP4 SIGNEXTEND PUSH1 0xA0 DUP6 ADD MSTORE SWAP1 SWAP2 SIGNEXTEND PUSH1 0xC0 DUP4 ADD MSTORE MLOAD SWAP1 DUP2 SWAP1 SUB PUSH1 0xE0 ADD SWAP1 RETURN JUMPDEST PUSH2 0x326 PUSH1 0x4 DUP1 CALLDATASIZE SUB PUSH1 0xC0 DUP2 LT ISZERO PUSH2 0x6F6 JUMPI PUSH1 0x0 DUP1 REVERT JUMPDEST PUSH1 0x1 PUSH1 0x1 PUSH1 0xA0 SHL SUB DUP3 CALLDATALOAD DUP2 AND SWAP3 PUSH1 0x20 DUP2 ADD CALLDATALOAD DUP3 AND SWAP3 PUSH1 0x40 DUP3 ADD CALLDATALOAD ISZERO ISZERO SWAP3 PUSH1 0x60 DUP4 ADD CALLDATALOAD SWAP3 PUSH1 0x80 DUP2 ADD CALLDATALOAD SWAP1 SWAP2 AND SWAP2 DUP2 ADD SWAP1 PUSH1 0xC0 DUP2 ADD PUSH1 0xA0 DUP3 ADD CALLDATALOAD PUSH1 0x1 PUSH1 0x20 SHL DUP2 GT ISZERO PUSH2 0x73F JUMPI PUSH1 0x0 DUP1 REVERT JUMPDEST DUP3 ADD DUP4 PUSH1 0x20 DUP3 ADD GT ISZERO PUSH2 0x751 JUMPI PUSH1 0x0 DUP1 REVERT JUMPDEST DUP1 CALLDATALOAD SWAP1 PUSH1 0x20 ADD SWAP2 DUP5 PUSH1 0x1 DUP4 MUL DUP5 ADD GT PUSH1 0x1 PUSH1 0x20 SHL DUP4 GT OR ISZERO PUSH2 0x772 JUMPI PUSH1 0x0 DUP1 REVERT JUMPDEST POP SWAP1 SWAP3 POP SWAP1 POP PUSH2 0x1684 JUMP JUMPDEST PUSH1 0x5 SLOAD PUSH1 0x1 PUSH1 0x1 PUSH1 0x68 SHL SUB DUP1 DUP3 AND SWAP2 PUSH1 0x1 PUSH1 0x68 SHL SWAP1 DIV AND PUSH2 0x220 JUMP JUMPDEST PUSH2 0x844 PUSH1 0x4 DUP1 CALLDATASIZE SUB PUSH1 0xC0 DUP2 LT ISZERO PUSH2 0x7AF JUMPI PUSH1 0x0 DUP1 REVERT JUMPDEST PUSH1 0x1 PUSH1 0x1 PUSH1 0xA0 SHL SUB DUP3 CALLDATALOAD DUP2 AND SWAP3 PUSH1 0x20 DUP2 ADD CALLDATALOAD SWAP1 SWAP2 AND SWAP2 PUSH1 0x40 DUP3 ADD CALLDATALOAD PUSH1 0x2 SWAP1 DUP2 SIGNEXTEND SWAP3 PUSH1 0x60 DUP2 ADD CALLDATALOAD SWAP1 SWAP2 SIGNEXTEND SWAP2 PUSH1 0x1 PUSH1 0x1 PUSH1 0x80 SHL SUB PUSH1 0x80 DUP4 ADD CALLDATALOAD AND SWAP2 SWAP1 DUP2 ADD SWAP1 PUSH1 0xC0 DUP2 ADD PUSH1 0xA0 DUP3 ADD CALLDATALOAD PUSH1 0x1 PUSH1 0x20 SHL DUP2 GT ISZERO PUSH2 0x806 JUMPI PUSH1 0x0 DUP1 REVERT JUMPDEST DUP3 ADD DUP4 PUSH1 0x20 DUP3 ADD GT ISZERO PUSH2 0x818 JUMPI PUSH1 0x0 DUP1 REVERT JUMPDEST DUP1 CALLDATALOAD SWAP1 PUSH1 0x20 ADD SWAP2 DUP5 PUSH1 0x1 DUP4 MUL DUP5 ADD GT PUSH1 0x1 PUSH1 0x20 SHL DUP4 GT OR ISZERO PUSH2 0x839 JUMPI PUSH1 0x0 DUP1 REVERT JUMPDEST POP SWAP1 SWAP3 POP SWAP1 POP PUSH2 0x196C JUMP JUMPDEST PUSH1 0x40 DUP1 MLOAD SWAP4 DUP5 MSTORE PUSH1 0x20 DUP5 ADD SWAP3 SWAP1 SWAP3 MSTORE PUSH1 0x1 PUSH1 0x1 PUSH1 0x80 SHL SUB AND DUP3 DUP3 ADD MSTORE MLOAD SWAP1 DUP2 SWAP1 SUB PUSH1 0x60 ADD SWAP1 RETURN JUMPDEST PUSH2 0x37D PUSH1 0x4 DUP1 CALLDATASIZE SUB PUSH1 0x20 DUP2 LT ISZERO PUSH2 0x881 JUMPI PUSH1 0x0 DUP1 REVERT JUMPDEST POP CALLDATALOAD PUSH1 0xFF AND PUSH2 0x1D0C JUMP JUMPDEST PUSH2 0x276 PUSH32 0x0 DUP2 JUMP JUMPDEST PUSH2 0x5E3 PUSH1 0x4 DUP1 CALLDATASIZE SUB PUSH1 0x20 DUP2 LT ISZERO PUSH2 0x8C8 JUMPI PUSH1 0x0 DUP1 REVERT JUMPDEST POP PUSH1 0x8 PUSH1 0x20 MSTORE CALLDATALOAD PUSH1 0x1 SIGNEXTEND PUSH1 0x0 SWAP1 DUP2 MSTORE PUSH1 0x40 SWAP1 KECCAK256 SLOAD DUP2 JUMP JUMPDEST PUSH2 0x37D PUSH1 0x4 DUP1 CALLDATASIZE SUB PUSH1 0x20 DUP2 LT ISZERO PUSH2 0x8F5 JUMPI PUSH1 0x0 DUP1 REVERT JUMPDEST POP CALLDATALOAD PUSH1 0x1 PUSH1 0x1 PUSH1 0xA0 SHL SUB AND PUSH2 0x1D5F JUMP JUMPDEST PUSH1 0x9 SLOAD PUSH2 0x1F1 SWAP1 PUSH1 0x1 PUSH1 0xB0 SHL SWAP1 DIV PUSH1 0x2 SIGNEXTEND DUP2 JUMP JUMPDEST PUSH2 0x276 PUSH32 0x0 DUP2 JUMP JUMPDEST PUSH1 0x9 SLOAD PUSH2 0x1F1 SWAP1 PUSH1 0x2 SIGNEXTEND DUP2 JUMP JUMPDEST PUSH2 0x37D PUSH1 0x4 DUP1 CALLDATASIZE SUB PUSH1 0x20 DUP2 LT ISZERO PUSH2 0x963 JUMPI PUSH1 0x0 DUP1 REVERT JUMPDEST POP CALLDATALOAD PUSH1 0x1 PUSH1 0x1 PUSH1 0xA0 SHL SUB AND PUSH2 0x1D82 JUMP JUMPDEST PUSH2 0x5E3 PUSH1 0x4 DUP1 CALLDATASIZE SUB PUSH1 0x20 DUP2 LT ISZERO PUSH2 0x989 JUMPI PUSH1 0x0 DUP1 REVERT JUMPDEST POP PUSH1 0xA PUSH1 0x20 MSTORE CALLDATALOAD PUSH1 0x1 SIGNEXTEND PUSH1 0x0 SWAP1 DUP2 MSTORE PUSH1 0x40 SWAP1 KECCAK256 SLOAD DUP2 JUMP JUMPDEST PUSH2 0x9A8 PUSH2 0x1DFD JUMP JUMPDEST PUSH1 0x40 DUP1 MLOAD PUSH2 0xFFFF SWAP1 SWAP3 AND DUP3 MSTORE MLOAD SWAP1 DUP2 SWAP1 SUB PUSH1 0x20 ADD SWAP1 RETURN JUMPDEST PUSH1 0x2 DUP1 SLOAD PUSH2 0xA0A SWAP2 PUSH1 0x1 PUSH1 0x1 PUSH1 0xA0 SHL SUB DUP3 AND SWAP2 PUSH1 0x1 PUSH1 0xA0 SHL DUP2 DIV SWAP1 SWAP2 SIGNEXTEND SWAP1 PUSH2 0xFFFF PUSH1 0x1 PUSH1 0xB8 SHL DUP3 DIV DUP2 AND SWAP2 PUSH1 0xFF PUSH1 0x1 PUSH1 0xC8 SHL DUP3 DIV DUP2 AND SWAP3 PUSH1 0x1 PUSH1 0xD0 SHL DUP4 DIV AND SWAP2 PUSH1 0x1 PUSH1 0xE0 SHL SWAP1 DIV AND DUP7 JUMP JUMPDEST PUSH1 0x40 DUP1 MLOAD PUSH1 0x1 PUSH1 0x1 PUSH1 0xA0 SHL SUB SWAP1 SWAP8 AND DUP8 MSTORE PUSH1 0x2 SWAP6 SWAP1 SWAP6 SIGNEXTEND PUSH1 0x20 DUP8 ADD MSTORE PUSH2 0xFFFF SWAP4 DUP5 AND DUP7 DUP7 ADD MSTORE PUSH1 0xFF SWAP1 SWAP3 AND PUSH1 0x60 DUP7 ADD MSTORE SWAP1 SWAP2 AND PUSH1 0x80 DUP5 ADD MSTORE ISZERO ISZERO PUSH1 0xA0 DUP4 ADD MSTORE MLOAD SWAP1 DUP2 SWAP1 SUB PUSH1 0xC0 ADD SWAP1 RETURN JUMPDEST PUSH2 0x5E3 PUSH1 0x1 SLOAD DUP2 JUMP JUMPDEST PUSH1 0x6 SLOAD PUSH2 0x276 SWAP1 PUSH1 0x1 PUSH1 0x1 PUSH1 0xA0 SHL SUB AND DUP2 JUMP JUMPDEST PUSH2 0x37D PUSH1 0x4 DUP1 CALLDATASIZE SUB PUSH1 0x20 DUP2 LT ISZERO PUSH2 0xA86 JUMPI PUSH1 0x0 DUP1 REVERT JUMPDEST POP CALLDATALOAD PUSH1 0x2 SIGNEXTEND PUSH2 0x1EA1 JUMP JUMPDEST PUSH2 0xAEE PUSH1 0x4 DUP1 CALLDATASIZE SUB PUSH1 0x20 DUP2 LT ISZERO PUSH2 0xAA6 JUMPI PUSH1 0x0 DUP1 REVERT JUMPDEST POP PUSH1 0x3 PUSH1 0x20 DUP2 SWAP1 MSTORE SWAP1 CALLDATALOAD PUSH1 0x2 SWAP1 DUP2 SIGNEXTEND PUSH1 0x0 SWAP1 DUP2 MSTORE PUSH1 0x40 SWAP1 KECCAK256 DUP1 SLOAD PUSH1 0x1 DUP3 ADD SLOAD DUP3 DUP5 ADD SLOAD SWAP3 SWAP1 SWAP5 ADD SLOAD SWAP1 SWAP4 PUSH1 0xF DUP2 SWAP1 SIGNEXTEND SWAP4 PUSH1 0x1 PUSH1 0x80 SHL DUP3 DIV DUP2 SIGNEXTEND SWAP4 PUSH1 0x1 PUSH1 0x98 SHL SWAP1 SWAP3 DIV SWAP1 SIGNEXTEND SWAP2 DUP7 JUMP JUMPDEST PUSH1 0x40 DUP1 MLOAD SWAP7 DUP8 MSTORE PUSH1 0xF SWAP6 SWAP1 SWAP6 SIGNEXTEND PUSH1 0x20 DUP8 ADD MSTORE PUSH1 0x2 SWAP4 DUP5 SIGNEXTEND DUP7 DUP7 ADD MSTORE SWAP2 SWAP1 SWAP3 SIGNEXTEND PUSH1 0x60 DUP6 ADD MSTORE PUSH1 0x80 DUP5 ADD SWAP2 SWAP1 SWAP2 MSTORE PUSH1 0xA0 DUP4 ADD MSTORE MLOAD SWAP1 DUP2 SWAP1 SUB PUSH1 0xC0 ADD SWAP1 RETURN JUMPDEST PUSH2 0x37D PUSH1 0x4 DUP1 CALLDATASIZE SUB PUSH1 0x20 DUP2 LT ISZERO PUSH2 0xB40 JUMPI PUSH1 0x0 DUP1 REVERT JUMPDEST POP CALLDATALOAD PUSH1 0x1 PUSH1 0x1 PUSH1 0xA0 SHL SUB AND PUSH2 0x1F0A JUMP JUMPDEST PUSH2 0x37D PUSH2 0x2106 JUMP JUMPDEST PUSH1 0x0 DUP1 PUSH1 0x0 DUP1 PUSH2 0xB6E DUP11 DUP11 DUP11 DUP11 PUSH1 0x0 DUP12 DUP12 PUSH2 0x2128 JUMP JUMPDEST SWAP2 POP SWAP2 POP PUSH2 0xB7A PUSH2 0x226D JUMP JUMPDEST PUSH2 0xB82 PUSH2 0x54F7 JUMP JUMPDEST PUSH2 0xB8A PUSH2 0x5517 JUMP JUMPDEST PUSH2 0xB97 DUP5 DUP5 DUP14 DUP14 DUP14 PUSH2 0x22A6 JUMP JUMPDEST PUSH1 0x1 PUSH1 0x1 PUSH1 0x80 SHL SUB SWAP1 SWAP2 AND PUSH1 0x40 DUP9 ADD MSTORE PUSH1 0x2 SWAP2 SWAP1 SWAP2 SIGNEXTEND PUSH1 0x20 DUP8 ADD MSTORE PUSH1 0x1 PUSH1 0x1 PUSH1 0xA0 SHL SUB SWAP1 SWAP2 AND DUP6 MSTORE SWAP2 SWAP8 POP SWAP6 POP SWAP1 POP PUSH1 0x0 DUP1 PUSH2 0xBD1 PUSH2 0x292F JUMP JUMPDEST SWAP2 POP SWAP2 POP DUP13 ISZERO PUSH2 0xC6C JUMPI PUSH1 0x0 DUP8 SLT ISZERO PUSH2 0xC12 JUMPI PUSH2 0xC12 PUSH32 0x0 DUP16 DUP10 PUSH1 0x0 SUB PUSH2 0x2B38 JUMP JUMPDEST PUSH2 0xC1E DUP9 DUP9 DUP13 DUP13 PUSH2 0x2B48 JUMP JUMPDEST PUSH2 0xC26 PUSH2 0x2BA9 JUMP JUMPDEST PUSH2 0xC30 DUP10 DUP5 PUSH2 0x554F JUMP JUMPDEST GT ISZERO PUSH2 0xC4F JUMPI PUSH1 0x40 MLOAD PUSH4 0x3ED6D505 PUSH1 0xE2 SHL DUP2 MSTORE PUSH1 0x4 ADD PUSH1 0x40 MLOAD DUP1 SWAP2 SUB SWAP1 REVERT JUMPDEST PUSH2 0xC67 DUP9 DUP9 DUP6 PUSH1 0x0 ADD MLOAD PUSH1 0x0 DUP8 PUSH1 0x20 ADD MLOAD PUSH1 0x0 PUSH2 0x2C3E JUMP JUMPDEST PUSH2 0xCF8 JUMP JUMPDEST PUSH1 0x0 DUP9 SLT ISZERO PUSH2 0xCA3 JUMPI PUSH2 0xCA3 PUSH32 0x0 DUP16 DUP11 PUSH1 0x0 SUB PUSH2 0x2B38 JUMP JUMPDEST PUSH2 0xCAF DUP9 DUP9 DUP13 DUP13 PUSH2 0x2B48 JUMP JUMPDEST PUSH2 0xCB7 PUSH2 0x2F2D JUMP JUMPDEST PUSH2 0xCC1 DUP9 DUP4 PUSH2 0x554F JUMP JUMPDEST GT ISZERO PUSH2 0xCE0 JUMPI PUSH1 0x40 MLOAD PUSH4 0x3ED6D505 PUSH1 0xE2 SHL DUP2 MSTORE PUSH1 0x4 ADD PUSH1 0x40 MLOAD DUP1 SWAP2 SUB SWAP1 REVERT JUMPDEST PUSH2 0xCF8 DUP9 DUP9 PUSH1 0x0 DUP7 PUSH1 0x0 ADD MLOAD PUSH1 0x0 DUP9 PUSH1 0x20 ADD MLOAD PUSH2 0x2C3E JUMP JUMPDEST PUSH2 0xD14 DUP15 DUP10 DUP10 DUP8 PUSH1 0x0 ADD MLOAD DUP9 PUSH1 0x40 ADD MLOAD DUP10 PUSH1 0x20 ADD MLOAD DUP13 DUP13 PUSH2 0x2F7C JUMP JUMPDEST POP POP POP POP PUSH2 0xD20 PUSH2 0x3002 JUMP JUMPDEST PUSH2 0xD30 DUP11 DUP11 DUP11 DUP11 DUP9 DUP9 DUP13 DUP13 PUSH2 0x3017 JUMP JUMPDEST POP POP SWAP7 POP SWAP7 SWAP5 POP POP POP POP POP JUMP JUMPDEST PUSH2 0xD45 PUSH2 0x3120 JUMP JUMPDEST PUSH2 0xD4D PUSH2 0x226D JUMP JUMPDEST PUSH2 0xD56 CALLER PUSH2 0x314B JUMP JUMPDEST PUSH2 0xD5E PUSH2 0x3002 JUMP JUMPDEST JUMP JUMPDEST PUSH2 0xD68 PUSH2 0x329C JUMP JUMPDEST PUSH2 0xD70 PUSH2 0x32C6 JUMP JUMPDEST PUSH2 0x3E8 PUSH2 0xFFFF DUP3 AND GT DUP1 PUSH2 0xD93 JUMPI POP PUSH1 0x2 SLOAD PUSH2 0xFFFF DUP3 DUP2 AND PUSH1 0x1 PUSH1 0xD0 SHL SWAP1 SWAP3 DIV AND EQ JUMPDEST DUP1 PUSH2 0xDB5 JUMPI POP PUSH2 0xFFFF DUP2 AND ISZERO DUP1 ISZERO SWAP1 PUSH2 0xDB5 JUMPI POP PUSH1 0x7 SLOAD PUSH1 0x1 PUSH1 0x1 PUSH1 0xA0 SHL SUB AND ISZERO JUMPDEST ISZERO PUSH2 0xDD3 JUMPI PUSH1 0x40 MLOAD PUSH4 0xA709B9AF PUSH1 0xE0 SHL DUP2 MSTORE PUSH1 0x4 ADD PUSH1 0x40 MLOAD DUP1 SWAP2 SUB SWAP1 REVERT JUMPDEST PUSH2 0xDDC DUP2 PUSH2 0x338C JUMP JUMPDEST POP JUMP JUMPDEST PUSH1 0x0 DUP1 DUP7 DUP7 PUSH2 0xDEE DUP3 DUP3 PUSH2 0x33E3 JUMP JUMPDEST PUSH1 0x1 PUSH1 0x1 PUSH1 0x7F SHL SUB PUSH1 0x1 PUSH1 0x1 PUSH1 0x80 SHL SUB DUP9 AND GT ISZERO PUSH2 0xE1F JUMPI PUSH1 0x40 MLOAD PUSH4 0x8995290F PUSH1 0xE0 SHL DUP2 MSTORE PUSH1 0x4 ADD PUSH1 0x40 MLOAD DUP1 SWAP2 SUB SWAP1 REVERT JUMPDEST PUSH1 0x0 PUSH2 0xE2A DUP9 PUSH2 0x5562 JUMP JUMPDEST SWAP1 POP PUSH1 0x0 PUSH2 0xE3C CALLER DUP13 DUP13 DUP6 DUP13 DUP13 PUSH2 0x3465 JUMP JUMPDEST SWAP1 POP PUSH2 0xE46 PUSH2 0x226D JUMP JUMPDEST PUSH2 0xE4E PUSH2 0x292F JUMP JUMPDEST POP POP PUSH1 0x0 PUSH2 0xE5D CALLER DUP14 DUP14 PUSH2 0x35BA JUMP JUMPDEST SWAP1 POP PUSH2 0xE6B DUP2 DUP14 DUP14 DUP7 PUSH2 0x35E6 JUMP JUMPDEST SWAP1 SWAP8 POP SWAP6 POP PUSH3 0xFFFFFF DUP3 AND ISZERO PUSH2 0xEE1 JUMPI PUSH1 0x0 DUP1 DUP9 ISZERO PUSH2 0xEA6 JUMPI PUSH2 0xE97 DUP10 PUSH3 0xFFFFFF DUP7 AND PUSH3 0xF4240 PUSH2 0x3708 JUMP JUMPDEST SWAP2 POP PUSH2 0xEA3 DUP3 DUP11 PUSH2 0x5585 JUMP JUMPDEST SWAP9 POP JUMPDEST DUP8 ISZERO PUSH2 0xECE JUMPI PUSH2 0xEBF DUP9 PUSH3 0xFFFFFF DUP7 AND PUSH3 0xF4240 PUSH2 0x3708 JUMP JUMPDEST SWAP1 POP PUSH2 0xECB DUP2 DUP10 PUSH2 0x5585 JUMP JUMPDEST SWAP8 POP JUMPDEST PUSH2 0xEDE PUSH1 0x0 DUP1 PUSH1 0x0 DUP1 DUP7 DUP7 PUSH2 0x2C3E JUMP JUMPDEST POP POP JUMPDEST DUP7 DUP7 OR ISZERO PUSH2 0xF46 JUMPI PUSH1 0x3 DUP2 ADD SLOAD PUSH2 0xF02 SWAP1 DUP9 SWAP1 PUSH1 0x1 PUSH1 0x1 PUSH1 0x80 SHL SUB AND PUSH2 0x5598 JUMP JUMPDEST PUSH1 0x3 DUP3 ADD SLOAD PUSH2 0xF22 SWAP1 DUP9 SWAP1 PUSH1 0x1 PUSH1 0x80 SHL SWAP1 DIV PUSH1 0x1 PUSH1 0x1 PUSH1 0x80 SHL SUB AND PUSH2 0x5598 JUMP JUMPDEST PUSH1 0x1 PUSH1 0x1 PUSH1 0x80 SHL SUB SWAP2 DUP3 AND SWAP2 AND PUSH1 0x1 PUSH1 0x80 SHL MUL PUSH1 0x1 PUSH1 0x1 PUSH1 0x80 SHL SUB NOT AND OR PUSH1 0x3 DUP3 ADD SSTORE JUMPDEST POP PUSH1 0x1 PUSH1 0x1 PUSH1 0x80 SHL SUB DUP10 AND DUP7 OR DUP6 OR ISZERO PUSH2 0xFBD JUMPI PUSH1 0x40 DUP1 MLOAD PUSH1 0x1 PUSH1 0x1 PUSH1 0x80 SHL SUB DUP12 AND DUP2 MSTORE PUSH1 0x20 DUP2 ADD DUP9 SWAP1 MSTORE DUP1 DUP3 ADD DUP8 SWAP1 MSTORE PUSH3 0xFFFFFF DUP4 AND PUSH1 0x60 DUP3 ADD MSTORE SWAP1 MLOAD PUSH1 0x2 DUP13 DUP2 SIGNEXTEND SWAP3 SWAP1 DUP15 SWAP1 SIGNEXTEND SWAP2 CALLER SWAP2 PUSH32 0x932214D4A69C27C086643126ED97C32681DA179064C678836C173F99BD13CA01 SWAP2 SWAP1 DUP2 SWAP1 SUB PUSH1 0x80 ADD SWAP1 LOG4 JUMPDEST PUSH2 0xFC5 PUSH2 0x3002 JUMP JUMPDEST PUSH2 0xFD5 CALLER DUP13 DUP13 DUP6 DUP11 DUP11 DUP15 DUP15 PUSH2 0x37A1 JUMP JUMPDEST POP POP POP POP SWAP6 POP SWAP6 SWAP4 POP POP POP POP JUMP JUMPDEST PUSH1 0x2 SLOAD PUSH1 0x1 PUSH1 0xC8 SHL SWAP1 DIV PUSH1 0x10 AND ISZERO PUSH2 0x10C9 JUMPI PUSH1 0x6 SLOAD PUSH1 0x40 MLOAD PUSH4 0x46F05477 PUSH1 0xE1 SHL DUP1 DUP3 MSTORE CALLER PUSH1 0x4 DUP4 ADD DUP2 DUP2 MSTORE PUSH1 0x1 PUSH1 0x1 PUSH1 0xA0 SHL SUB DUP11 DUP2 AND PUSH1 0x24 DUP7 ADD MSTORE PUSH1 0x44 DUP6 ADD DUP11 SWAP1 MSTORE PUSH1 0x64 DUP6 ADD DUP10 SWAP1 MSTORE PUSH1 0xA0 PUSH1 0x84 DUP7 ADD SWAP1 DUP2 MSTORE PUSH1 0xA4 DUP7 ADD DUP9 SWAP1 MSTORE PUSH2 0x10C9 SWAP7 SWAP5 SWAP6 SWAP2 SWAP1 SWAP5 AND SWAP4 PUSH4 0x8DE0A8EE SWAP4 SWAP3 DUP13 SWAP3 DUP13 SWAP3 DUP13 SWAP3 DUP13 SWAP3 DUP13 SWAP3 SWAP1 PUSH1 0xC4 ADD DUP5 DUP5 DUP1 DUP3 DUP5 CALLDATACOPY PUSH1 0x0 DUP2 DUP5 ADD MSTORE PUSH1 0x1F NOT PUSH1 0x1F DUP3 ADD AND SWAP1 POP DUP1 DUP4 ADD SWAP3 POP POP POP SWAP8 POP POP POP POP POP POP POP POP PUSH1 0x20 PUSH1 0x40 MLOAD DUP1 DUP4 SUB DUP2 PUSH1 0x0 DUP8 GAS CALL ISZERO DUP1 ISZERO PUSH2 0x10A1 JUMPI RETURNDATASIZE PUSH1 0x0 DUP1 RETURNDATACOPY RETURNDATASIZE PUSH1 0x0 REVERT JUMPDEST POP POP POP POP PUSH1 0x40 MLOAD RETURNDATASIZE PUSH1 0x20 DUP2 LT ISZERO PUSH2 0x10B7 JUMPI PUSH1 0x0 DUP1 REVERT JUMPDEST POP MLOAD PUSH1 0x1 PUSH1 0x1 PUSH1 0xE0 SHL SUB NOT AND SWAP1 PUSH2 0x38A9 JUMP JUMPDEST PUSH2 0x10D1 PUSH2 0x226D JUMP JUMPDEST PUSH1 0x0 DUP1 PUSH1 0x0 DUP1 PUSH2 0x10DF PUSH2 0x292F JUMP JUMPDEST SWAP1 SWAP3 POP SWAP1 POP PUSH1 0x0 DUP9 ISZERO PUSH2 0x1128 JUMPI PUSH2 0x10FB DUP10 PUSH1 0x64 PUSH3 0xF4240 PUSH2 0x38E6 JUMP JUMPDEST SWAP1 POP PUSH2 0x1128 PUSH32 0x0 DUP12 DUP12 PUSH2 0x2B38 JUMP JUMPDEST PUSH1 0x0 DUP9 ISZERO PUSH2 0x116C JUMPI PUSH2 0x113F DUP10 PUSH1 0x64 PUSH3 0xF4240 PUSH2 0x38E6 JUMP JUMPDEST SWAP1 POP PUSH2 0x116C PUSH32 0x0 DUP13 DUP12 PUSH2 0x2B38 JUMP JUMPDEST PUSH2 0x1178 DUP3 DUP3 DUP11 DUP11 PUSH2 0x3966 JUMP JUMPDEST PUSH2 0x1180 PUSH2 0x2BA9 JUMP JUMPDEST SWAP6 POP DUP6 PUSH2 0x118D DUP4 DUP7 PUSH2 0x554F JUMP JUMPDEST GT ISZERO PUSH2 0x11AC JUMPI PUSH1 0x40 MLOAD PUSH4 0x36DE50FF PUSH1 0xE1 SHL DUP2 MSTORE PUSH1 0x4 ADD PUSH1 0x40 MLOAD DUP1 SWAP2 SUB SWAP1 REVERT JUMPDEST PUSH2 0x11B4 PUSH2 0x2F2D JUMP JUMPDEST SWAP5 POP DUP5 PUSH2 0x11C1 DUP3 DUP6 PUSH2 0x554F JUMP JUMPDEST GT ISZERO PUSH2 0x11E0 JUMPI PUSH1 0x40 MLOAD PUSH4 0xC998149F PUSH1 0xE0 SHL DUP2 MSTORE PUSH1 0x4 ADD PUSH1 0x40 MLOAD DUP1 SWAP2 SUB SWAP1 REVERT JUMPDEST PUSH1 0x2 SLOAD SWAP6 DUP5 SWAP1 SUB SWAP6 SWAP5 DUP4 SWAP1 SUB SWAP5 PUSH1 0x1 PUSH1 0xD0 SHL SWAP1 DIV PUSH2 0xFFFF AND DUP1 ISZERO PUSH2 0x1240 JUMPI PUSH1 0x0 DUP8 ISZERO PUSH2 0x1216 JUMPI PUSH2 0x1213 DUP9 DUP4 PUSH2 0x3E8 PUSH2 0x3708 JUMP JUMPDEST SWAP1 POP JUMPDEST PUSH1 0x0 DUP8 ISZERO PUSH2 0x122E JUMPI PUSH2 0x122B DUP9 DUP5 PUSH2 0x3E8 PUSH2 0x3708 JUMP JUMPDEST SWAP1 POP JUMPDEST PUSH2 0x123D DUP3 DUP3 DUP5 DUP5 PUSH1 0x0 DUP1 PUSH2 0x2C3E JUMP JUMPDEST POP POP JUMPDEST PUSH1 0x40 DUP1 MLOAD DUP13 DUP2 MSTORE PUSH1 0x20 DUP2 ADD DUP13 SWAP1 MSTORE DUP1 DUP3 ADD DUP10 SWAP1 MSTORE PUSH1 0x60 DUP2 ADD DUP9 SWAP1 MSTORE SWAP1 MLOAD PUSH1 0x1 PUSH1 0x1 PUSH1 0xA0 SHL SUB DUP15 AND SWAP2 CALLER SWAP2 PUSH32 0xBDBDB71D7860376BA52B25A5028BEEA23581364A40522F6BCFB86BB1F2DCA633 SWAP2 DUP2 SWAP1 SUB PUSH1 0x80 ADD SWAP1 LOG3 POP POP POP POP POP PUSH2 0x12A1 PUSH2 0x3002 JUMP JUMPDEST PUSH1 0x2 SLOAD PUSH1 0x1 PUSH1 0xC8 SHL SWAP1 DIV PUSH1 0x20 AND ISZERO PUSH2 0x138C JUMPI PUSH2 0x138C PUSH4 0x343D37FF PUSH1 0xE0 SHL PUSH1 0x6 PUSH1 0x0 SWAP1 SLOAD SWAP1 PUSH2 0x100 EXP SWAP1 DIV PUSH1 0x1 PUSH1 0x1 PUSH1 0xA0 SHL SUB AND PUSH1 0x1 PUSH1 0x1 PUSH1 0xA0 SHL SUB AND PUSH4 0x343D37FF CALLER DUP12 DUP12 DUP12 DUP10 DUP10 DUP14 DUP14 PUSH1 0x40 MLOAD DUP10 PUSH4 0xFFFFFFFF AND PUSH1 0xE0 SHL DUP2 MSTORE PUSH1 0x4 ADD DUP1 DUP10 PUSH1 0x1 PUSH1 0x1 PUSH1 0xA0 SHL SUB AND DUP2 MSTORE PUSH1 0x20 ADD DUP9 PUSH1 0x1 PUSH1 0x1 PUSH1 0xA0 SHL SUB AND DUP2 MSTORE PUSH1 0x20 ADD DUP8 DUP2 MSTORE PUSH1 0x20 ADD DUP7 DUP2 MSTORE PUSH1 0x20 ADD DUP6 DUP2 MSTORE PUSH1 0x20 ADD DUP5 DUP2 MSTORE PUSH1 0x20 ADD DUP1 PUSH1 0x20 ADD DUP3 DUP2 SUB DUP3 MSTORE DUP5 DUP5 DUP3 DUP2 DUP2 MSTORE PUSH1 0x20 ADD SWAP3 POP DUP1 DUP3 DUP5 CALLDATACOPY PUSH1 0x0 DUP2 DUP5 ADD MSTORE PUSH1 0x1F NOT PUSH1 0x1F DUP3 ADD AND SWAP1 POP DUP1 DUP4 ADD SWAP3 POP POP POP SWAP10 POP POP POP POP POP POP POP POP POP POP PUSH1 0x20 PUSH1 0x40 MLOAD DUP1 DUP4 SUB DUP2 PUSH1 0x0 DUP8 GAS CALL ISZERO DUP1 ISZERO PUSH2 0x10A1 JUMPI RETURNDATASIZE PUSH1 0x0 DUP1 RETURNDATACOPY RETURNDATASIZE PUSH1 0x0 REVERT JUMPDEST POP POP POP POP POP POP POP JUMP JUMPDEST PUSH1 0x0 DUP1 PUSH2 0x13A0 PUSH2 0x226D JUMP JUMPDEST PUSH1 0x0 PUSH2 0x13AD CALLER DUP9 DUP9 PUSH2 0x35BA JUMP JUMPDEST PUSH1 0x3 DUP2 ADD SLOAD SWAP1 SWAP2 POP PUSH1 0x1 PUSH1 0x1 PUSH1 0x80 SHL SUB DUP1 DUP3 AND SWAP2 PUSH1 0x1 PUSH1 0x80 SHL SWAP1 DIV DUP2 AND SWAP1 DUP8 AND DUP3 LT ISZERO PUSH2 0x13D8 JUMPI DUP2 SWAP7 POP JUMPDEST DUP1 PUSH1 0x1 PUSH1 0x1 PUSH1 0x80 SHL SUB AND DUP7 PUSH1 0x1 PUSH1 0x1 PUSH1 0x80 SHL SUB AND GT ISZERO PUSH2 0x13F6 JUMPI DUP1 SWAP6 POP JUMPDEST PUSH1 0x1 PUSH1 0x1 PUSH1 0x80 SHL SUB DUP8 DUP8 OR AND ISZERO PUSH2 0x153C JUMPI PUSH1 0x1 PUSH1 0x1 PUSH1 0x80 SHL SUB DUP8 DUP4 SUB DUP2 AND DUP8 DUP4 SUB DUP3 AND PUSH1 0x1 PUSH1 0x80 SHL MUL PUSH1 0x1 PUSH1 0x1 PUSH1 0x80 SHL SUB NOT AND OR PUSH1 0x3 DUP6 ADD SSTORE DUP8 SWAP6 POP DUP7 SWAP5 POP DUP6 AND ISZERO PUSH2 0x1470 JUMPI PUSH2 0x1470 PUSH32 0x0 DUP12 DUP8 PUSH1 0x1 PUSH1 0x1 PUSH1 0x80 SHL SUB AND PUSH2 0x2B38 JUMP JUMPDEST PUSH1 0x1 PUSH1 0x1 PUSH1 0x80 SHL SUB DUP5 AND ISZERO PUSH2 0x14B3 JUMPI PUSH2 0x14B3 PUSH32 0x0 DUP12 DUP7 PUSH1 0x1 PUSH1 0x1 PUSH1 0x80 SHL SUB AND PUSH2 0x2B38 JUMP JUMPDEST PUSH2 0x14DB DUP6 PUSH1 0x1 PUSH1 0x1 PUSH1 0x80 SHL SUB AND PUSH1 0x0 SUB DUP6 PUSH1 0x1 PUSH1 0x1 PUSH1 0x80 SHL SUB AND PUSH1 0x0 SUB PUSH1 0x0 DUP1 PUSH1 0x0 DUP1 PUSH2 0x2C3E JUMP JUMPDEST PUSH1 0x40 DUP1 MLOAD PUSH1 0x1 PUSH1 0x1 PUSH1 0xA0 SHL SUB DUP13 AND DUP2 MSTORE PUSH1 0x1 PUSH1 0x1 PUSH1 0x80 SHL SUB DUP1 DUP9 AND PUSH1 0x20 DUP4 ADD MSTORE DUP7 AND DUP2 DUP4 ADD MSTORE SWAP1 MLOAD PUSH1 0x2 DUP11 DUP2 SIGNEXTEND SWAP3 SWAP1 DUP13 SWAP1 SIGNEXTEND SWAP2 CALLER SWAP2 PUSH32 0x70935338E69775456A85DDEF226C395FB668B63FA0115F5F20610B388E6CA9C0 SWAP2 SWAP1 DUP2 SWAP1 SUB PUSH1 0x60 ADD SWAP1 LOG4 JUMPDEST PUSH2 0x1544 PUSH2 0x3002 JUMP JUMPDEST POP POP POP SWAP6 POP SWAP6 SWAP4 POP POP POP POP JUMP JUMPDEST PUSH1 0x2 SLOAD PUSH1 0x1 PUSH1 0xC8 SHL DUP2 DIV PUSH1 0x80 AND ISZERO ISZERO SWAP1 PUSH1 0x1 PUSH1 0xE0 SHL SWAP1 DIV PUSH1 0xFF AND PUSH2 0x1588 JUMPI PUSH1 0x40 MLOAD PUSH4 0x67984809 PUSH1 0xE1 SHL DUP2 MSTORE PUSH1 0x4 ADD PUSH1 0x40 MLOAD DUP1 SWAP2 SUB SWAP1 REVERT JUMPDEST PUSH1 0x6 SLOAD PUSH1 0x1 PUSH1 0x1 PUSH1 0xA0 SHL SUB AND CALLER SUB PUSH2 0x15BD JUMPI DUP1 PUSH2 0x15B8 JUMPI PUSH1 0x40 MLOAD PUSH4 0x3A4528EF PUSH1 0xE0 SHL DUP2 MSTORE PUSH1 0x4 ADD PUSH1 0x40 MLOAD DUP1 SWAP2 SUB SWAP1 REVERT JUMPDEST PUSH2 0x15E4 JUMP JUMPDEST DUP1 ISZERO PUSH2 0x15DC JUMPI PUSH1 0x40 MLOAD PUSH4 0x69CDC707 PUSH1 0xE1 SHL DUP2 MSTORE PUSH1 0x4 ADD PUSH1 0x40 MLOAD DUP1 SWAP2 SUB SWAP1 REVERT JUMPDEST PUSH2 0x15E4 PUSH2 0x32C6 JUMP JUMPDEST PUSH2 0x15ED DUP3 PUSH2 0x398F JUMP JUMPDEST POP POP JUMP JUMPDEST PUSH1 0x2 DUP1 SLOAD PUSH1 0x1 PUSH1 0x1 PUSH1 0xA0 SHL SUB DUP2 AND SWAP2 PUSH1 0x1 PUSH1 0xA0 SHL DUP3 DIV SWAP1 SIGNEXTEND SWAP1 PUSH2 0xFFFF PUSH1 0x1 PUSH1 0xB8 SHL DUP3 DIV AND SWAP1 PUSH1 0xFF PUSH1 0x1 PUSH1 0xC8 SHL DUP3 DIV DUP2 AND SWAP2 PUSH1 0x0 SWAP2 DUP3 SWAP2 DUP3 SWAP2 PUSH1 0x1 PUSH1 0xE0 SHL SWAP1 SWAP2 DIV AND DUP1 PUSH2 0x1650 JUMPI PUSH1 0x40 MLOAD PUSH4 0x67984809 PUSH1 0xE1 SHL DUP2 MSTORE PUSH1 0x4 ADD PUSH1 0x40 MLOAD DUP1 SWAP2 SUB SWAP1 REVERT JUMPDEST POP POP PUSH1 0x9 SLOAD SWAP6 SWAP7 SWAP5 SWAP6 SWAP4 SWAP5 SWAP3 SWAP4 PUSH1 0x1 PUSH1 0x1 PUSH1 0x80 SHL SUB PUSH1 0x1 PUSH1 0x30 SHL DUP3 DIV AND SWAP4 PUSH1 0x2 DUP3 DUP2 SIGNEXTEND SWAP5 POP PUSH4 0x1000000 SWAP1 SWAP3 DIV SWAP1 SWAP2 SIGNEXTEND SWAP2 POP JUMP JUMPDEST PUSH1 0x0 DUP1 PUSH1 0x0 DUP7 SLT ISZERO PUSH2 0x16A9 JUMPI PUSH1 0x40 MLOAD PUSH4 0x34CB3A01 PUSH1 0xE1 SHL DUP2 MSTORE PUSH1 0x4 ADD PUSH1 0x40 MLOAD DUP1 SWAP2 SUB SWAP1 REVERT JUMPDEST PUSH2 0x16B1 PUSH2 0x226D JUMP JUMPDEST PUSH1 0x0 DUP8 ISZERO PUSH2 0x170A JUMPI PUSH1 0x0 PUSH2 0x16C3 PUSH2 0x2BA9 JUMP JUMPDEST SWAP1 POP PUSH2 0x16D2 DUP9 PUSH1 0x0 DUP9 DUP9 PUSH2 0x2B48 JUMP JUMPDEST PUSH1 0x0 PUSH2 0x16DC PUSH2 0x2BA9 JUMP JUMPDEST SWAP1 POP PUSH2 0x16F0 PUSH2 0x16EB DUP4 DUP4 PUSH2 0x5585 JUMP JUMPDEST PUSH2 0x39DF JUMP JUMPDEST SWAP3 POP PUSH2 0x1703 DUP4 PUSH1 0x0 DUP1 PUSH1 0x0 DUP1 PUSH1 0x0 PUSH2 0x2C3E JUMP JUMPDEST POP POP PUSH2 0x1752 JUMP JUMPDEST PUSH1 0x0 PUSH2 0x1714 PUSH2 0x2F2D JUMP JUMPDEST SWAP1 POP PUSH2 0x1723 PUSH1 0x0 DUP10 DUP9 DUP9 PUSH2 0x2B48 JUMP JUMPDEST PUSH1 0x0 PUSH2 0x172D PUSH2 0x2F2D JUMP JUMPDEST SWAP1 POP PUSH2 0x173C PUSH2 0x16EB DUP4 DUP4 PUSH2 0x5585 JUMP JUMPDEST SWAP3 POP PUSH2 0x174F PUSH1 0x0 DUP5 PUSH1 0x0 DUP1 PUSH1 0x0 DUP1 PUSH2 0x2C3E JUMP JUMPDEST POP POP JUMPDEST DUP7 DUP2 EQ PUSH2 0x175D JUMPI DUP1 SWAP7 POP JUMPDEST POP DUP6 PUSH1 0x0 SUB PUSH2 0x177F JUMPI PUSH1 0x40 MLOAD PUSH4 0x3ED6D505 PUSH1 0xE2 SHL DUP2 MSTORE PUSH1 0x4 ADD PUSH1 0x40 MLOAD DUP1 SWAP2 SUB SWAP1 REVERT JUMPDEST PUSH2 0x1787 PUSH2 0x3002 JUMP JUMPDEST PUSH1 0x0 DUP1 PUSH2 0x179A DUP11 DUP11 DUP11 DUP11 PUSH1 0x1 DUP12 DUP12 PUSH2 0x2128 JUMP JUMPDEST SWAP2 POP SWAP2 POP PUSH2 0x17A6 PUSH2 0x226D JUMP JUMPDEST PUSH2 0x17AE PUSH2 0x292F JUMP JUMPDEST POP POP PUSH2 0x17B8 PUSH2 0x54F7 JUMP JUMPDEST PUSH2 0x17C0 PUSH2 0x5517 JUMP JUMPDEST PUSH2 0x17CD DUP5 DUP5 DUP14 DUP14 DUP14 PUSH2 0x22A6 JUMP JUMPDEST PUSH1 0x1 PUSH1 0x1 PUSH1 0x80 SHL SUB SWAP1 SWAP2 AND PUSH1 0x40 DUP9 ADD MSTORE PUSH1 0x2 SWAP2 SWAP1 SWAP2 SIGNEXTEND PUSH1 0x20 DUP8 ADD MSTORE PUSH1 0x1 PUSH1 0x1 PUSH1 0xA0 SHL SUB SWAP1 SWAP2 AND DUP6 MSTORE SWAP2 SWAP8 POP SWAP6 POP SWAP1 POP DUP11 ISZERO PUSH2 0x1897 JUMPI PUSH1 0x0 DUP6 SLT ISZERO PUSH2 0x1839 JUMPI PUSH2 0x1839 PUSH32 0x0 DUP14 DUP8 PUSH1 0x0 SUB PUSH2 0x2B38 JUMP JUMPDEST DUP6 DUP11 SUB DUP11 DUP8 EQ PUSH2 0x186E JUMPI PUSH2 0x186E PUSH32 0x0 DUP16 DUP4 PUSH2 0x2B38 JUMP JUMPDEST PUSH2 0x1891 PUSH2 0x187A DUP3 PUSH2 0x39DF JUMP JUMPDEST PUSH1 0x0 SUB DUP8 DUP5 PUSH1 0x0 ADD MLOAD PUSH1 0x0 DUP7 PUSH1 0x20 ADD MLOAD PUSH1 0x0 PUSH2 0x2C3E JUMP JUMPDEST POP PUSH2 0x1928 JUMP JUMPDEST PUSH1 0x0 DUP7 SLT ISZERO PUSH2 0x18CE JUMPI PUSH2 0x18CE PUSH32 0x0 DUP14 DUP9 PUSH1 0x0 SUB PUSH2 0x2B38 JUMP JUMPDEST DUP5 DUP11 SUB DUP11 DUP7 EQ PUSH2 0x1903 JUMPI PUSH2 0x1903 PUSH32 0x0 DUP16 DUP4 PUSH2 0x2B38 JUMP JUMPDEST PUSH2 0x1926 DUP8 PUSH2 0x1910 DUP4 PUSH2 0x39DF JUMP JUMPDEST PUSH1 0x0 SUB PUSH1 0x0 DUP6 PUSH1 0x0 ADD MLOAD PUSH1 0x0 DUP8 PUSH1 0x20 ADD MLOAD PUSH2 0x2C3E JUMP JUMPDEST POP JUMPDEST PUSH2 0x1944 DUP13 DUP8 DUP8 DUP6 PUSH1 0x0 ADD MLOAD DUP7 PUSH1 0x40 ADD MLOAD DUP8 PUSH1 0x20 ADD MLOAD DUP11 DUP11 PUSH2 0x2F7C JUMP JUMPDEST PUSH2 0x194C PUSH2 0x3002 JUMP JUMPDEST PUSH2 0x195C DUP13 DUP13 DUP13 DUP13 DUP11 DUP11 DUP15 DUP15 PUSH2 0x3017 JUMP JUMPDEST POP POP POP POP SWAP8 POP SWAP8 SWAP6 POP POP POP POP POP POP JUMP JUMPDEST PUSH1 0x0 DUP1 PUSH1 0x0 DUP8 DUP8 PUSH2 0x197D DUP3 DUP3 PUSH2 0x33E3 JUMP JUMPDEST DUP8 PUSH1 0x1 PUSH1 0x1 PUSH1 0x80 SHL SUB AND PUSH1 0x0 SUB PUSH2 0x19A7 JUMPI PUSH1 0x40 MLOAD PUSH4 0xE6ACE6DF PUSH1 0xE0 SHL DUP2 MSTORE PUSH1 0x4 ADD PUSH1 0x40 MLOAD DUP1 SWAP2 SUB SWAP1 REVERT JUMPDEST PUSH2 0x19C6 DUP12 DUP12 DUP12 PUSH2 0x19BF DUP13 PUSH1 0x1 PUSH1 0x1 PUSH1 0x80 SHL SUB AND PUSH2 0x39F3 JUMP JUMPDEST DUP12 DUP12 PUSH2 0x3465 JUMP JUMPDEST POP PUSH2 0x19CF PUSH2 0x226D JUMP JUMPDEST PUSH1 0x2 DUP1 SLOAD PUSH1 0x1 PUSH1 0xA0 SHL DUP2 DIV SWAP1 SWAP2 SIGNEXTEND SWAP1 PUSH1 0x1 PUSH1 0x1 PUSH1 0xA0 SHL SUB AND PUSH1 0x0 DUP2 SWAP1 SUB PUSH2 0x1A09 JUMPI PUSH1 0x40 MLOAD PUSH4 0x812EB655 PUSH1 0xE0 SHL DUP2 MSTORE PUSH1 0x4 ADD PUSH1 0x40 MLOAD DUP1 SWAP2 SUB SWAP1 REVERT JUMPDEST PUSH1 0x9 SLOAD PUSH1 0x1 PUSH1 0xB0 SHL SWAP1 DIV PUSH1 0x2 SWAP1 DUP2 SIGNEXTEND SWAP1 DUP2 SWAP1 DUP14 SWAP1 SIGNEXTEND DUP2 PUSH2 0x1A2B JUMPI PUSH2 0x1A2B PUSH2 0x55BF JUMP JUMPDEST SMOD DUP2 PUSH1 0x2 SIGNEXTEND DUP15 PUSH1 0x2 SIGNEXTEND DUP2 PUSH2 0x1A41 JUMPI PUSH2 0x1A41 PUSH2 0x55BF JUMP JUMPDEST SMOD OR PUSH1 0x2 SIGNEXTEND ISZERO PUSH2 0x1A64 JUMPI PUSH1 0x40 MLOAD PUSH4 0x5F6E14F3 PUSH1 0xE0 SHL DUP2 MSTORE PUSH1 0x4 ADD PUSH1 0x40 MLOAD DUP1 SWAP2 SUB SWAP1 REVERT JUMPDEST POP PUSH2 0x1A83 DUP13 DUP13 PUSH2 0x1A7C DUP14 PUSH1 0x1 PUSH1 0x1 PUSH1 0x80 SHL SUB AND PUSH2 0x39F3 JUMP JUMPDEST DUP6 DUP6 PUSH2 0x3A06 JUMP JUMPDEST POP SWAP1 SWAP8 POP SWAP6 POP PUSH1 0x0 SWAP2 POP DUP2 SWAP1 POP PUSH2 0x1A98 PUSH2 0x292F JUMP JUMPDEST SWAP2 POP SWAP2 POP PUSH2 0x1AA8 DUP8 DUP8 DUP12 DUP12 PUSH2 0x3AB5 JUMP JUMPDEST DUP7 ISZERO PUSH2 0x1AC6 JUMPI DUP2 PUSH2 0x1AB7 PUSH2 0x2BA9 JUMP JUMPDEST PUSH2 0x1AC1 SWAP2 SWAP1 PUSH2 0x5585 JUMP JUMPDEST PUSH2 0x1AC9 JUMP JUMPDEST PUSH1 0x0 JUMPDEST SWAP2 POP DUP6 ISZERO PUSH2 0x1AE9 JUMPI DUP1 PUSH2 0x1ADA PUSH2 0x2F2D JUMP JUMPDEST PUSH2 0x1AE4 SWAP2 SWAP1 PUSH2 0x5585 JUMP JUMPDEST PUSH2 0x1AEC JUMP JUMPDEST PUSH1 0x0 JUMPDEST SWAP1 POP DUP7 DUP3 LT ISZERO PUSH2 0x1B11 JUMPI PUSH2 0x1B0A DUP11 PUSH1 0x1 PUSH1 0x1 PUSH1 0x80 SHL SUB AND DUP4 DUP10 PUSH2 0x3708 JUMP JUMPDEST SWAP5 POP PUSH2 0x1B15 JUMP JUMPDEST DUP10 SWAP5 POP JUMPDEST DUP6 DUP2 LT ISZERO PUSH2 0x1B55 JUMPI PUSH1 0x0 PUSH2 0x1B33 DUP12 PUSH1 0x1 PUSH1 0x1 PUSH1 0x80 SHL SUB AND DUP4 DUP10 PUSH2 0x3708 JUMP JUMPDEST SWAP1 POP DUP6 PUSH1 0x1 PUSH1 0x1 PUSH1 0x80 SHL SUB AND DUP2 PUSH1 0x1 PUSH1 0x1 PUSH1 0x80 SHL SUB AND LT ISZERO PUSH2 0x1B53 JUMPI DUP1 SWAP6 POP JUMPDEST POP JUMPDEST DUP5 PUSH1 0x1 PUSH1 0x1 PUSH1 0x80 SHL SUB AND PUSH1 0x0 SUB PUSH2 0x1B7F JUMPI PUSH1 0x40 MLOAD PUSH4 0x2FAE8A9B PUSH1 0xE2 SHL DUP2 MSTORE PUSH1 0x4 ADD PUSH1 0x40 MLOAD DUP1 SWAP2 SUB SWAP1 REVERT JUMPDEST PUSH1 0x0 PUSH2 0x1B8C DUP15 DUP15 DUP15 PUSH2 0x35BA JUMP JUMPDEST SWAP1 POP PUSH2 0x1BAB DUP2 DUP15 DUP15 PUSH2 0x1BA6 DUP11 PUSH1 0x1 PUSH1 0x1 PUSH1 0x80 SHL SUB AND PUSH2 0x39F3 JUMP JUMPDEST PUSH2 0x35E6 JUMP JUMPDEST SWAP1 SWAP9 POP SWAP7 POP POP DUP7 ISZERO PUSH2 0x1C00 JUMPI DUP7 DUP3 GT ISZERO PUSH2 0x1BF1 JUMPI PUSH2 0x1BEC PUSH32 0x0 DUP16 DUP10 DUP6 SUB PUSH2 0x2B38 JUMP JUMPDEST PUSH2 0x1C00 JUMP JUMPDEST DUP7 DUP3 EQ PUSH2 0x1C00 JUMPI PUSH2 0x1C00 PUSH2 0x55D5 JUMP JUMPDEST DUP6 ISZERO PUSH2 0x1C4F JUMPI DUP6 DUP2 GT ISZERO PUSH2 0x1C40 JUMPI PUSH2 0x1C3B PUSH32 0x0 DUP16 DUP9 DUP5 SUB PUSH2 0x2B38 JUMP JUMPDEST PUSH2 0x1C4F JUMP JUMPDEST DUP6 DUP2 EQ PUSH2 0x1C4F JUMPI PUSH2 0x1C4F PUSH2 0x55D5 JUMP JUMPDEST PUSH2 0x1C5F DUP8 DUP8 PUSH1 0x0 DUP1 PUSH1 0x0 DUP1 PUSH2 0x2C3E JUMP JUMPDEST DUP11 PUSH1 0x2 SIGNEXTEND DUP13 PUSH1 0x2 SIGNEXTEND DUP15 PUSH1 0x1 PUSH1 0x1 PUSH1 0xA0 SHL SUB AND PUSH32 0x7A53080BA414158BE7EC69B987B5FB7D07DEE101FE85488F0853AE16239D0BDE CALLER DUP10 DUP13 DUP13 PUSH1 0x40 MLOAD DUP1 DUP6 PUSH1 0x1 PUSH1 0x1 PUSH1 0xA0 SHL SUB AND DUP2 MSTORE PUSH1 0x20 ADD DUP5 PUSH1 0x1 PUSH1 0x1 PUSH1 0x80 SHL SUB AND DUP2 MSTORE PUSH1 0x20 ADD DUP4 DUP2 MSTORE PUSH1 0x20 ADD DUP3 DUP2 MSTORE PUSH1 0x20 ADD SWAP5 POP POP POP POP POP PUSH1 0x40 MLOAD DUP1 SWAP2 SUB SWAP1 LOG4 PUSH2 0x1CDA PUSH2 0x3002 JUMP JUMPDEST PUSH2 0x1CFB DUP14 DUP14 DUP14 PUSH2 0x1CF2 DUP10 PUSH1 0x1 PUSH1 0x1 PUSH1 0x80 SHL SUB AND PUSH2 0x39F3 JUMP JUMPDEST DUP12 DUP12 DUP16 DUP16 PUSH2 0x37A1 JUMP JUMPDEST POP POP POP POP SWAP8 POP SWAP8 POP SWAP8 SWAP5 POP POP POP POP POP JUMP JUMPDEST PUSH2 0x1D14 PUSH2 0x329C JUMP JUMPDEST PUSH1 0x6 SLOAD PUSH1 0x1 PUSH1 0x1 PUSH1 0xA0 SHL SUB AND DUP1 PUSH2 0x1D3E JUMPI PUSH1 0x40 MLOAD PUSH4 0x9E727CE3 PUSH1 0xE0 SHL DUP2 MSTORE PUSH1 0x4 ADD PUSH1 0x40 MLOAD DUP1 SWAP2 SUB SWAP1 REVERT JUMPDEST CALLER PUSH1 0x1 PUSH1 0x1 PUSH1 0xA0 SHL SUB DUP3 AND EQ PUSH2 0x1D56 JUMPI PUSH2 0x1D56 PUSH2 0x32C6 JUMP JUMPDEST PUSH2 0x15ED DUP3 PUSH2 0x3ADE JUMP JUMPDEST PUSH2 0x1D67 PUSH2 0x329C JUMP JUMPDEST PUSH2 0x1D6F PUSH2 0x32C6 JUMP JUMPDEST PUSH2 0x1D79 PUSH1 0x0 PUSH2 0x3ADE JUMP JUMPDEST PUSH2 0xDDC DUP2 PUSH2 0x3B2C JUMP JUMPDEST PUSH2 0x1D8A PUSH2 0x329C JUMP JUMPDEST CALLER PUSH1 0x1 PUSH1 0x1 PUSH1 0xA0 SHL SUB PUSH32 0x0 AND EQ PUSH2 0x1DC2 JUMPI PUSH2 0x1DC2 PUSH2 0x32C6 JUMP JUMPDEST PUSH1 0x1 PUSH1 0x1 PUSH1 0xA0 SHL SUB DUP2 AND ISZERO DUP1 ISZERO PUSH2 0x1DE5 JUMPI POP PUSH1 0x2 SLOAD PUSH1 0x1 PUSH1 0xD0 SHL SWAP1 DIV PUSH2 0xFFFF AND ISZERO ISZERO JUMPDEST ISZERO PUSH2 0x1DF4 JUMPI PUSH2 0x1DF4 PUSH1 0x0 PUSH2 0x338C JUMP JUMPDEST PUSH2 0xDDC DUP2 PUSH2 0x3B77 JUMP JUMPDEST PUSH1 0x2 SLOAD PUSH1 0x1 PUSH1 0xB8 SHL DUP2 DIV PUSH2 0xFFFF AND SWAP1 PUSH1 0x1 PUSH1 0xC8 SHL SWAP1 DIV PUSH1 0xFF DUP2 AND SWAP1 PUSH1 0x80 AND ISZERO PUSH2 0x1E9D JUMPI PUSH1 0x6 PUSH1 0x0 SWAP1 SLOAD SWAP1 PUSH2 0x100 EXP SWAP1 DIV PUSH1 0x1 PUSH1 0x1 PUSH1 0xA0 SHL SUB AND PUSH1 0x1 PUSH1 0x1 PUSH1 0xA0 SHL SUB AND PUSH4 0xF70D9362 PUSH1 0x40 MLOAD DUP2 PUSH4 0xFFFFFFFF AND PUSH1 0xE0 SHL DUP2 MSTORE PUSH1 0x4 ADD PUSH1 0x20 PUSH1 0x40 MLOAD DUP1 DUP4 SUB DUP2 DUP7 GAS STATICCALL ISZERO DUP1 ISZERO PUSH2 0x1E73 JUMPI RETURNDATASIZE PUSH1 0x0 DUP1 RETURNDATACOPY RETURNDATASIZE PUSH1 0x0 REVERT JUMPDEST POP POP POP POP PUSH1 0x40 MLOAD RETURNDATASIZE PUSH1 0x1F NOT PUSH1 0x1F DUP3 ADD AND DUP3 ADD DUP1 PUSH1 0x40 MSTORE POP DUP2 ADD SWAP1 PUSH2 0x1E97 SWAP2 SWAP1 PUSH2 0x55FD JUMP JUMPDEST SWAP2 POP POP SWAP1 JUMP JUMPDEST POP SWAP1 JUMP JUMPDEST PUSH2 0x1EA9 PUSH2 0x329C JUMP JUMPDEST PUSH2 0x1EB1 PUSH2 0x32C6 JUMP JUMPDEST PUSH1 0x0 DUP2 PUSH1 0x2 SIGNEXTEND SGT ISZERO DUP1 PUSH2 0x1EC9 JUMPI POP PUSH2 0x1F4 PUSH1 0x2 DUP3 SWAP1 SIGNEXTEND SGT JUMPDEST DUP1 PUSH2 0x1EE3 JUMPI POP PUSH1 0x9 SLOAD PUSH1 0x2 DUP3 DUP2 SIGNEXTEND PUSH1 0x1 PUSH1 0xB0 SHL SWAP1 SWAP3 DIV SWAP1 SIGNEXTEND EQ JUMPDEST ISZERO PUSH2 0x1F01 JUMPI PUSH1 0x40 MLOAD PUSH4 0x2BF827D1 PUSH1 0xE2 SHL DUP2 MSTORE PUSH1 0x4 ADD PUSH1 0x40 MLOAD DUP1 SWAP2 SUB SWAP1 REVERT JUMPDEST PUSH2 0xDDC DUP2 PUSH2 0x3BC2 JUMP JUMPDEST PUSH1 0x0 PUSH2 0x1F15 DUP3 PUSH2 0x3C12 JUMP JUMPDEST PUSH1 0x2 SLOAD SWAP1 SWAP2 POP PUSH1 0x1 PUSH1 0x1 PUSH1 0xA0 SHL SUB AND ISZERO PUSH2 0x1F42 JUMPI PUSH1 0x40 MLOAD PUSH4 0x1499A6B7 PUSH1 0xE2 SHL DUP2 MSTORE PUSH1 0x4 ADD PUSH1 0x40 MLOAD DUP1 SWAP2 SUB SWAP1 REVERT JUMPDEST PUSH1 0x2 DUP1 SLOAD PUSH1 0x1 PUSH1 0x1 PUSH1 0xA0 SHL SUB DUP5 AND PUSH1 0x1 PUSH1 0x1 PUSH1 0xB8 SHL SUB NOT SWAP1 SWAP2 AND DUP2 OR PUSH1 0x1 PUSH1 0xA0 SHL PUSH3 0xFFFFFF DUP6 AND MUL OR DUP3 SSTORE PUSH1 0x40 DUP1 MLOAD SWAP2 DUP3 MSTORE SWAP2 DUP4 SWAP1 SIGNEXTEND PUSH1 0x20 DUP3 ADD MSTORE DUP2 MLOAD PUSH32 0x98636036CB66A9C19A37435EFC1E90142190214E8ABEB821BDBA3F2990DD4C95 SWAP3 SWAP2 DUP2 SWAP1 SUB SWAP1 SWAP2 ADD SWAP1 LOG1 PUSH1 0x6 SLOAD PUSH1 0x1 PUSH1 0x1 PUSH1 0xA0 SHL SUB AND ISZERO PUSH2 0x201B JUMPI PUSH1 0x6 SLOAD PUSH1 0x40 DUP1 MLOAD PUSH4 0x18DBF601 PUSH1 0xE2 SHL DUP1 DUP3 MSTORE CALLER PUSH1 0x4 DUP4 ADD MSTORE PUSH1 0x1 PUSH1 0x1 PUSH1 0xA0 SHL SUB DUP7 DUP2 AND PUSH1 0x24 DUP5 ADD MSTORE SWAP3 MLOAD PUSH2 0x201B SWAP5 SWAP2 SWAP4 SWAP1 SWAP2 AND SWAP2 PUSH4 0x636FD804 SWAP2 PUSH1 0x44 DUP1 DUP4 ADD SWAP3 PUSH1 0x20 SWAP3 SWAP2 SWAP1 DUP3 SWAP1 SUB ADD DUP2 PUSH1 0x0 DUP8 GAS CALL ISZERO DUP1 ISZERO PUSH2 0x10A1 JUMPI RETURNDATASIZE PUSH1 0x0 DUP1 RETURNDATACOPY RETURNDATASIZE PUSH1 0x0 REVERT JUMPDEST PUSH1 0x0 DUP1 PUSH1 0x0 PUSH2 0x2028 PUSH2 0x3EE4 JUMP JUMPDEST SWAP3 POP SWAP3 POP SWAP3 POP PUSH2 0x2037 DUP2 PUSH2 0x398F JUMP JUMPDEST PUSH2 0x2040 DUP3 PUSH2 0x3BC2 JUMP JUMPDEST PUSH2 0xFFFF DUP4 AND ISZERO DUP1 ISZERO SWAP1 PUSH2 0x205C JUMPI POP PUSH1 0x7 SLOAD PUSH1 0x1 PUSH1 0x1 PUSH1 0xA0 SHL SUB AND ISZERO JUMPDEST ISZERO PUSH2 0x207A JUMPI PUSH1 0x40 MLOAD PUSH4 0xA709B9AF PUSH1 0xE0 SHL DUP2 MSTORE PUSH1 0x4 ADD PUSH1 0x40 MLOAD DUP1 SWAP2 SUB SWAP1 REVERT JUMPDEST PUSH2 0x2083 DUP4 PUSH2 0x338C JUMP JUMPDEST PUSH1 0x2 SLOAD PUSH1 0x1 PUSH1 0xC8 SHL SWAP1 DIV PUSH1 0x40 AND ISZERO PUSH2 0x20FF JUMPI PUSH1 0x6 SLOAD PUSH1 0x40 DUP1 MLOAD PUSH4 0x416EB291 PUSH1 0xE1 SHL DUP1 DUP3 MSTORE CALLER PUSH1 0x4 DUP4 ADD MSTORE PUSH1 0x1 PUSH1 0x1 PUSH1 0xA0 SHL SUB DUP10 DUP2 AND PUSH1 0x24 DUP5 ADD MSTORE PUSH1 0x2 DUP10 SWAP1 SIGNEXTEND PUSH1 0x44 DUP5 ADD MSTORE SWAP3 MLOAD PUSH2 0x20FF SWAP5 SWAP2 SWAP4 SWAP1 SWAP2 AND SWAP2 PUSH4 0x82DD6522 SWAP2 PUSH1 0x64 DUP1 DUP4 ADD SWAP3 PUSH1 0x20 SWAP3 SWAP2 SWAP1 DUP3 SWAP1 SUB ADD DUP2 PUSH1 0x0 DUP8 GAS CALL ISZERO DUP1 ISZERO PUSH2 0x10A1 JUMPI RETURNDATASIZE PUSH1 0x0 DUP1 RETURNDATACOPY RETURNDATASIZE PUSH1 0x0 REVERT JUMPDEST POP POP POP POP POP JUMP JUMPDEST PUSH2 0x210E PUSH2 0x3120 JUMP JUMPDEST PUSH2 0x2116 PUSH2 0x226D JUMP JUMPDEST PUSH2 0x211E PUSH2 0x292F JUMP JUMPDEST POP POP PUSH2 0xD5E PUSH2 0x3002 JUMP JUMPDEST PUSH1 0x2 SLOAD PUSH1 0x0 SWAP1 DUP2 SWAP1 PUSH1 0x1 PUSH1 0xC8 SHL SWAP1 DIV PUSH1 0x1 AND ISZERO PUSH2 0x2261 JUMPI PUSH2 0x2147 PUSH2 0x3F76 JUMP JUMPDEST ISZERO PUSH2 0x2157 JUMPI POP PUSH1 0x0 SWAP1 POP DUP1 PUSH2 0x2261 JUMP JUMPDEST PUSH1 0x6 SLOAD PUSH1 0x40 MLOAD PUSH4 0x29C1CB7 PUSH1 0xE0 SHL DUP2 MSTORE CALLER PUSH1 0x4 DUP3 ADD DUP2 DUP2 MSTORE PUSH1 0x1 PUSH1 0x1 PUSH1 0xA0 SHL SUB DUP14 DUP2 AND PUSH1 0x24 DUP6 ADD MSTORE DUP13 ISZERO ISZERO PUSH1 0x44 DUP6 ADD MSTORE PUSH1 0x64 DUP5 ADD DUP13 SWAP1 MSTORE DUP11 DUP2 AND PUSH1 0x84 DUP6 ADD MSTORE DUP10 ISZERO ISZERO PUSH1 0xA4 DUP6 ADD MSTORE PUSH1 0xE0 PUSH1 0xC4 DUP6 ADD SWAP1 DUP2 MSTORE PUSH1 0xE4 DUP6 ADD DUP10 SWAP1 MSTORE PUSH1 0x0 SWAP6 SWAP2 SWAP1 SWAP2 AND SWAP4 PUSH4 0x29C1CB7 SWAP4 SWAP3 DUP16 SWAP3 DUP16 SWAP3 DUP16 SWAP3 DUP16 SWAP3 DUP16 SWAP3 DUP16 SWAP3 DUP16 SWAP3 SWAP1 SWAP2 PUSH2 0x104 ADD DUP5 DUP5 DUP1 DUP3 DUP5 CALLDATACOPY PUSH1 0x0 DUP2 DUP5 ADD MSTORE PUSH1 0x1F NOT PUSH1 0x1F DUP3 ADD AND SWAP1 POP DUP1 DUP4 ADD SWAP3 POP POP POP SWAP10 POP POP POP POP POP POP POP POP POP POP PUSH1 0x60 PUSH1 0x40 MLOAD DUP1 DUP4 SUB DUP2 PUSH1 0x0 DUP8 GAS CALL ISZERO DUP1 ISZERO PUSH2 0x2218 JUMPI RETURNDATASIZE PUSH1 0x0 DUP1 RETURNDATACOPY RETURNDATASIZE PUSH1 0x0 REVERT JUMPDEST POP POP POP POP PUSH1 0x40 MLOAD RETURNDATASIZE PUSH1 0x60 DUP2 LT ISZERO PUSH2 0x222E JUMPI PUSH1 0x0 DUP1 REVERT JUMPDEST POP DUP1 MLOAD PUSH1 0x20 DUP3 ADD MLOAD PUSH1 0x40 SWAP1 SWAP3 ADD MLOAD SWAP2 SWAP5 POP SWAP1 SWAP3 POP SWAP1 POP PUSH2 0x225F PUSH1 0x1 PUSH1 0x1 PUSH1 0xE0 SHL SUB NOT DUP3 AND PUSH4 0x29C1CB7 PUSH1 0xE0 SHL PUSH2 0x38A9 JUMP JUMPDEST POP JUMPDEST SWAP8 POP SWAP8 SWAP6 POP POP POP POP POP POP JUMP JUMPDEST PUSH1 0x2 SLOAD PUSH1 0x1 PUSH1 0xE0 SHL SWAP1 DIV PUSH1 0xFF AND PUSH2 0x2297 JUMPI PUSH1 0x40 MLOAD PUSH4 0x67984809 PUSH1 0xE1 SHL DUP2 MSTORE PUSH1 0x4 ADD PUSH1 0x40 MLOAD DUP1 SWAP2 SUB SWAP1 REVERT JUMPDEST PUSH1 0x2 DUP1 SLOAD PUSH1 0xFF PUSH1 0xE0 SHL NOT AND SWAP1 SSTORE JUMP JUMPDEST PUSH1 0x0 DUP1 PUSH1 0x0 DUP1 PUSH1 0x0 PUSH2 0x22B6 PUSH2 0x5517 JUMP JUMPDEST DUP8 PUSH1 0x0 SUB PUSH2 0x22D7 JUMPI PUSH1 0x40 MLOAD PUSH4 0x1E76E61 PUSH1 0xE6 SHL DUP2 MSTORE PUSH1 0x4 ADD PUSH1 0x40 MLOAD DUP1 SWAP2 SUB SWAP1 REVERT JUMPDEST PUSH1 0x1 PUSH1 0xFF SHL DUP9 SUB PUSH2 0x22FB JUMPI PUSH1 0x40 MLOAD PUSH4 0x34CB3A01 PUSH1 0xE1 SHL DUP2 MSTORE PUSH1 0x4 ADD PUSH1 0x40 MLOAD DUP1 SWAP2 SUB SWAP1 REVERT JUMPDEST PUSH1 0x40 DUP1 MLOAD PUSH2 0x160 DUP2 ADD DUP3 MSTORE PUSH1 0x0 PUSH1 0x20 DUP3 ADD DUP2 SWAP1 MSTORE PUSH1 0x60 DUP3 ADD DUP2 SWAP1 MSTORE PUSH1 0x80 DUP3 ADD DUP2 SWAP1 MSTORE PUSH1 0xA0 DUP3 ADD DUP2 SWAP1 MSTORE PUSH3 0xFFFFFF DUP14 AND PUSH2 0x140 DUP4 ADD MSTORE DUP1 DUP12 SGT PUSH1 0xC0 DUP4 ADD MSTORE SWAP2 DUP2 ADD DUP11 SWAP1 MSTORE PUSH1 0x9 SLOAD PUSH1 0x2 DUP2 DUP2 SIGNEXTEND PUSH2 0x120 DUP5 ADD MSTORE PUSH4 0x1000000 DUP3 DIV DUP2 SIGNEXTEND PUSH2 0x100 DUP5 ADD MSTORE DUP1 SLOAD PUSH2 0xFFFF PUSH1 0x1 PUSH1 0xD0 SHL DUP3 DIV DUP2 AND DUP6 MSTORE PUSH1 0x1 PUSH1 0xB8 SHL DUP3 DIV AND PUSH1 0xE0 DUP6 ADD MSTORE PUSH1 0x1 PUSH1 0x1 PUSH1 0xA0 SHL SUB DUP2 AND SWAP9 POP PUSH1 0x1 PUSH1 0xA0 SHL SWAP1 DIV SWAP1 SIGNEXTEND SWAP6 POP PUSH1 0x1 PUSH1 0x30 SHL SWAP1 DIV PUSH1 0x1 PUSH1 0x1 PUSH1 0x80 SHL SUB AND SWAP4 POP SWAP1 DUP6 SWAP1 SUB PUSH2 0x23C2 JUMPI PUSH1 0x40 MLOAD PUSH4 0x812EB655 PUSH1 0xE0 SHL DUP2 MSTORE PUSH1 0x4 ADD PUSH1 0x40 MLOAD DUP1 SWAP2 SUB SWAP1 REVERT JUMPDEST PUSH3 0xFFFFFF DUP13 AND ISZERO PUSH2 0x240A JUMPI PUSH2 0x23D7 DUP12 DUP14 PUSH2 0x5618 JUMP JUMPDEST PUSH3 0xFFFFFF AND PUSH1 0xE0 DUP3 ADD DUP2 SWAP1 MSTORE PUSH3 0xF4240 GT PUSH2 0x2405 JUMPI PUSH1 0x40 MLOAD PUSH4 0x15B2AFA9 PUSH1 0xE0 SHL DUP2 MSTORE PUSH1 0x4 ADD PUSH1 0x40 MLOAD DUP1 SWAP2 SUB SWAP1 REVERT JUMPDEST PUSH2 0x245C JUMP JUMPDEST PUSH3 0xFFFFFF DUP12 AND ISZERO PUSH2 0x245C JUMPI DUP11 DUP2 PUSH1 0xE0 ADD DUP2 DUP2 MLOAD PUSH2 0x2427 SWAP2 SWAP1 PUSH2 0x5618 JUMP JUMPDEST PUSH3 0xFFFFFF SWAP1 DUP2 AND SWAP1 SWAP2 MSTORE PUSH1 0xE0 DUP4 ADD MLOAD PUSH3 0xF4240 SWAP2 AND LT SWAP1 POP PUSH2 0x245C JUMPI PUSH1 0x40 MLOAD PUSH4 0x15B2AFA9 PUSH1 0xE0 SHL DUP2 MSTORE PUSH1 0x4 ADD PUSH1 0x40 MLOAD DUP1 SWAP2 SUB SWAP1 REVERT JUMPDEST DUP10 ISZERO PUSH2 0x24BC JUMPI DUP5 PUSH1 0x1 PUSH1 0x1 PUSH1 0xA0 SHL SUB AND DUP9 PUSH1 0x1 PUSH1 0x1 PUSH1 0xA0 SHL SUB AND LT ISZERO DUP1 PUSH2 0x2491 JUMPI POP PUSH5 0x1000276A3 PUSH1 0x1 PUSH1 0x1 PUSH1 0xA0 SHL SUB DUP10 AND GT ISZERO JUMPDEST ISZERO PUSH2 0x24AF JUMPI PUSH1 0x40 MLOAD PUSH4 0x16626723 PUSH1 0xE0 SHL DUP2 MSTORE PUSH1 0x4 ADD PUSH1 0x40 MLOAD DUP1 SWAP2 SUB SWAP1 REVERT JUMPDEST PUSH1 0x0 SLOAD PUSH1 0x80 DUP3 ADD MSTORE PUSH2 0x2521 JUMP JUMPDEST DUP5 PUSH1 0x1 PUSH1 0x1 PUSH1 0xA0 SHL SUB AND DUP9 PUSH1 0x1 PUSH1 0x1 PUSH1 0xA0 SHL SUB AND GT ISZERO DUP1 PUSH2 0x24FA JUMPI POP PUSH20 0xFFFD8963EFD1FC6A506488495D951D5263988D26 PUSH1 0x1 PUSH1 0x1 PUSH1 0xA0 SHL SUB DUP10 AND LT ISZERO JUMPDEST ISZERO PUSH2 0x2518 JUMPI PUSH1 0x40 MLOAD PUSH4 0x16626723 PUSH1 0xE0 SHL DUP2 MSTORE PUSH1 0x4 ADD PUSH1 0x40 MLOAD DUP1 SWAP2 SUB SWAP1 REVERT JUMPDEST PUSH1 0x1 SLOAD PUSH1 0x80 DUP3 ADD MSTORE JUMPDEST PUSH2 0x2553 PUSH1 0x40 MLOAD DUP1 PUSH1 0xA0 ADD PUSH1 0x40 MSTORE DUP1 PUSH1 0x0 DUP2 MSTORE PUSH1 0x20 ADD PUSH1 0x0 DUP2 MSTORE PUSH1 0x20 ADD PUSH1 0x0 DUP2 MSTORE PUSH1 0x20 ADD PUSH1 0x0 DUP2 MSTORE PUSH1 0x20 ADD PUSH1 0x0 DUP2 MSTORE POP SWAP1 JUMP JUMPDEST PUSH1 0x0 DUP12 PUSH2 0x2565 JUMPI DUP3 PUSH2 0x120 ADD MLOAD PUSH2 0x256C JUMP JUMPDEST DUP3 PUSH2 0x100 ADD MLOAD JUMPDEST PUSH1 0x1 PUSH1 0x1 PUSH1 0xA0 SHL SUB DUP9 AND DUP4 MSTORE SWAP1 POP PUSH2 0x2583 DUP2 PUSH2 0x3F87 JUMP JUMPDEST PUSH1 0x1 PUSH1 0x1 PUSH1 0xA0 SHL SUB SWAP1 DUP2 AND PUSH1 0x20 DUP5 ADD DUP2 SWAP1 MSTORE PUSH2 0x25C0 SWAP2 DUP15 SWAP2 DUP11 SWAP2 DUP15 AND GT DUP3 ISZERO ISZERO EQ PUSH2 0x25B2 JUMPI DUP5 PUSH1 0x20 ADD MLOAD PUSH2 0x25B4 JUMP JUMPDEST DUP13 JUMPDEST DUP9 DUP16 DUP9 PUSH1 0xE0 ADD MLOAD PUSH2 0x4262 JUMP JUMPDEST PUSH1 0x80 DUP7 ADD MSTORE PUSH1 0x60 DUP6 ADD MSTORE PUSH1 0x40 DUP5 ADD MSTORE PUSH1 0xC0 DUP5 ADD MLOAD SWAP1 SWAP8 POP ISZERO PUSH2 0x2618 JUMPI PUSH2 0x25EF DUP3 PUSH1 0x80 ADD MLOAD DUP4 PUSH1 0x40 ADD MLOAD ADD PUSH2 0x39DF JUMP JUMPDEST DUP12 SUB SWAP11 POP PUSH2 0x260E PUSH2 0x2603 DUP4 PUSH1 0x60 ADD MLOAD PUSH2 0x39DF JUMP JUMPDEST PUSH1 0x60 DUP6 ADD MLOAD SWAP1 PUSH2 0x4430 JUMP JUMPDEST PUSH1 0x60 DUP5 ADD MSTORE PUSH2 0x2650 JUMP JUMPDEST PUSH2 0x2625 DUP3 PUSH1 0x60 ADD MLOAD PUSH2 0x39DF JUMP JUMPDEST DUP12 ADD SWAP11 POP PUSH2 0x264A PUSH2 0x263F DUP4 PUSH1 0x80 ADD MLOAD DUP5 PUSH1 0x40 ADD MLOAD ADD PUSH2 0x39DF JUMP JUMPDEST PUSH1 0x60 DUP6 ADD MLOAD SWAP1 PUSH2 0x444C JUMP JUMPDEST PUSH1 0x60 DUP5 ADD MSTORE JUMPDEST PUSH1 0x0 DUP4 PUSH2 0x140 ADD MLOAD PUSH3 0xFFFFFF AND GT DUP1 ISZERO PUSH2 0x2673 JUMPI POP PUSH1 0x0 DUP4 PUSH1 0xE0 ADD MLOAD PUSH3 0xFFFFFF AND GT JUMPDEST ISZERO PUSH2 0x26B4 JUMPI PUSH1 0x0 PUSH2 0x269C DUP4 PUSH1 0x80 ADD MLOAD DUP6 PUSH2 0x140 ADD MLOAD PUSH3 0xFFFFFF AND DUP7 PUSH1 0xE0 ADD MLOAD PUSH3 0xFFFFFF AND PUSH2 0x3708 JUMP JUMPDEST PUSH1 0x80 DUP5 ADD DUP1 MLOAD DUP3 SWAP1 SUB SWAP1 MSTORE PUSH1 0x20 DUP7 ADD DUP1 MLOAD SWAP1 SWAP2 ADD SWAP1 MSTORE POP JUMPDEST DUP3 MLOAD ISZERO PUSH2 0x26F6 JUMPI DUP3 MLOAD PUSH1 0x80 DUP4 ADD MLOAD PUSH1 0x0 SWAP2 PUSH2 0x3E8 SWAP2 PUSH2 0x26D2 SWAP2 PUSH2 0x4462 JUMP JUMPDEST DUP2 PUSH2 0x26DF JUMPI PUSH2 0x26DF PUSH2 0x55BF JUMP JUMPDEST PUSH1 0x80 DUP6 ADD DUP1 MLOAD SWAP3 SWAP1 SWAP2 DIV SWAP2 DUP3 SWAP1 SUB SWAP1 MSTORE DUP6 MLOAD ADD DUP6 MSTORE POP JUMPDEST PUSH1 0x1 PUSH1 0x1 PUSH1 0x80 SHL SUB DUP6 AND ISZERO PUSH2 0x272D JUMPI PUSH2 0x2721 DUP3 PUSH1 0x80 ADD MLOAD PUSH1 0x1 PUSH1 0x80 SHL DUP8 PUSH1 0x1 PUSH1 0x1 PUSH1 0x80 SHL SUB AND PUSH2 0x3708 JUMP JUMPDEST PUSH1 0x80 DUP5 ADD DUP1 MLOAD SWAP1 SWAP2 ADD SWAP1 MSTORE JUMPDEST DUP2 PUSH1 0x20 ADD MLOAD DUP8 PUSH1 0x1 PUSH1 0x1 PUSH1 0xA0 SHL SUB AND SUB PUSH2 0x27F7 JUMPI DUP3 PUSH1 0x20 ADD MLOAD PUSH2 0x2768 JUMPI PUSH1 0x1 PUSH1 0x20 DUP5 ADD MSTORE DUP12 PUSH2 0x275E JUMPI PUSH1 0x0 SLOAD PUSH2 0x2762 JUMP JUMPDEST PUSH1 0x1 SLOAD JUMPDEST PUSH1 0xA0 DUP5 ADD MSTORE JUMPDEST PUSH1 0x0 DUP13 ISZERO PUSH2 0x27AF JUMPI PUSH1 0x80 DUP5 ADD MLOAD PUSH1 0xA0 DUP6 ADD MLOAD PUSH2 0x2789 SWAP2 PUSH1 0x3 SWAP2 DUP6 SWAP2 SWAP1 PUSH2 0x448C JUMP JUMPDEST POP PUSH1 0x2 SWAP1 DUP2 SIGNEXTEND PUSH2 0x100 DUP8 ADD MSTORE DUP4 SWAP1 SIGNEXTEND PUSH2 0x120 DUP7 ADD MSTORE PUSH1 0x0 NOT DUP4 ADD SWAP8 POP PUSH1 0x0 SUB SWAP1 POP PUSH2 0x27E5 JUMP JUMPDEST PUSH1 0xA0 DUP5 ADD MLOAD PUSH1 0x80 DUP6 ADD MLOAD PUSH2 0x27C8 SWAP2 PUSH1 0x3 SWAP2 DUP6 SWAP2 SWAP1 PUSH2 0x448C JUMP JUMPDEST PUSH1 0x2 SWAP1 DUP2 SIGNEXTEND PUSH2 0x120 DUP9 ADD MSTORE DUP5 SWAP1 SIGNEXTEND PUSH2 0x100 DUP8 ADD MSTORE POP SWAP2 SWAP7 POP DUP7 SWAP2 SWAP1 POP JUMPDEST PUSH2 0x27EF DUP7 DUP3 PUSH2 0x44D9 JUMP JUMPDEST SWAP6 POP POP PUSH2 0x2819 JUMP JUMPDEST DUP2 MLOAD PUSH1 0x1 PUSH1 0x1 PUSH1 0xA0 SHL SUB DUP9 AND EQ PUSH2 0x2819 JUMPI PUSH2 0x2811 DUP8 PUSH2 0x3C12 JUMP JUMPDEST SWAP6 POP POP PUSH2 0x2840 JUMP JUMPDEST POP DUP10 ISZERO DUP1 ISZERO SWAP1 PUSH2 0x283B JUMPI POP DUP9 PUSH1 0x1 PUSH1 0x1 PUSH1 0xA0 SHL SUB AND DUP7 PUSH1 0x1 PUSH1 0x1 PUSH1 0xA0 SHL SUB AND EQ ISZERO JUMPDEST PUSH2 0x2553 JUMPI JUMPDEST PUSH1 0x0 DUP11 DUP4 PUSH1 0x40 ADD MLOAD SUB SWAP1 POP DUP3 PUSH1 0xC0 ADD MLOAD ISZERO ISZERO DUP13 ISZERO ISZERO EQ PUSH2 0x2865 JUMPI DUP3 PUSH1 0x60 ADD MLOAD DUP2 PUSH2 0x286C JUMP JUMPDEST DUP1 DUP4 PUSH1 0x60 ADD MLOAD JUMPDEST PUSH1 0x2 DUP1 SLOAD PUSH1 0x1 PUSH1 0x1 PUSH1 0xB8 SHL SUB NOT AND PUSH1 0x1 PUSH1 0xA0 SHL PUSH3 0xFFFFFF DUP12 AND MUL PUSH1 0x1 PUSH1 0x1 PUSH1 0xA0 SHL SUB NOT AND OR PUSH1 0x1 PUSH1 0x1 PUSH1 0xA0 SHL SUB DUP12 AND OR SWAP1 SSTORE PUSH1 0x20 DUP6 ADD MLOAD SWAP2 SWAP11 POP SWAP9 POP ISZERO SWAP1 POP PUSH2 0x2904 JUMPI PUSH2 0x100 DUP3 ADD MLOAD PUSH2 0x120 DUP4 ADD MLOAD PUSH1 0x9 DUP1 SLOAD PUSH3 0xFFFFFF SWAP3 DUP4 AND PUSH6 0xFFFFFFFFFFFF NOT SWAP1 SWAP2 AND OR PUSH4 0x1000000 SWAP3 SWAP1 SWAP4 AND SWAP2 SWAP1 SWAP2 MUL SWAP2 SWAP1 SWAP2 OR PUSH1 0x1 PUSH1 0x30 SHL PUSH1 0x1 PUSH1 0xB0 SHL SUB NOT AND PUSH1 0x1 PUSH1 0x30 SHL PUSH1 0x1 PUSH1 0x1 PUSH1 0x80 SHL SUB DUP8 AND MUL OR SWAP1 SSTORE JUMPDEST DUP11 ISZERO PUSH2 0x2917 JUMPI PUSH1 0x80 DUP3 ADD MLOAD PUSH1 0x0 SSTORE PUSH2 0x2920 JUMP JUMPDEST PUSH1 0x80 DUP3 ADD MLOAD PUSH1 0x1 SSTORE JUMPDEST POP POP SWAP6 POP SWAP6 POP SWAP6 POP SWAP6 POP SWAP6 POP SWAP6 JUMP JUMPDEST PUSH1 0x0 DUP1 PUSH2 0x293A PUSH2 0x2BA9 JUMP JUMPDEST PUSH2 0x2942 PUSH2 0x2F2D JUMP JUMPDEST SWAP1 SWAP3 POP SWAP1 POP PUSH1 0x1 PUSH1 0x1 PUSH1 0x80 SHL SUB DUP3 GT DUP1 PUSH2 0x2962 JUMPI POP PUSH1 0x1 PUSH1 0x1 PUSH1 0x80 SHL SUB DUP2 GT JUMPDEST ISZERO PUSH2 0x2A13 JUMPI PUSH1 0x7 SLOAD PUSH1 0x1 PUSH1 0x1 PUSH1 0xA0 SHL SUB AND PUSH1 0x1 PUSH1 0x1 PUSH1 0x80 SHL SUB DUP4 GT ISZERO PUSH2 0x29C2 JUMPI PUSH2 0x29B7 PUSH32 0x0 DUP3 PUSH1 0x2 PUSH1 0x1 PUSH1 0x80 SHL SUB NOT DUP7 ADD PUSH2 0x2B38 JUMP JUMPDEST PUSH1 0x1 PUSH1 0x1 PUSH1 0x80 SHL SUB SWAP3 POP JUMPDEST PUSH1 0x1 PUSH1 0x1 PUSH1 0x80 SHL SUB DUP3 GT ISZERO PUSH2 0x2A11 JUMPI PUSH2 0x2A06 PUSH32 0x0 DUP3 PUSH1 0x2 PUSH1 0x1 PUSH1 0x80 SHL SUB NOT DUP6 ADD PUSH2 0x2B38 JUMP JUMPDEST PUSH1 0x1 PUSH1 0x1 PUSH1 0x80 SHL SUB SWAP2 POP JUMPDEST POP JUMPDEST PUSH1 0x9 SLOAD PUSH1 0x1 PUSH1 0x30 SHL SWAP1 DIV PUSH1 0x1 PUSH1 0x1 PUSH1 0x80 SHL SUB AND PUSH1 0x0 DUP2 SWAP1 SUB PUSH2 0x2A34 JUMPI POP SWAP1 SWAP2 JUMP JUMPDEST PUSH1 0xC SLOAD PUSH1 0x1 PUSH1 0x1 PUSH1 0x80 SHL SUB DUP1 DUP3 AND SWAP2 PUSH1 0x1 PUSH1 0x80 SHL SWAP1 DIV AND DUP2 DUP6 GT DUP2 DUP6 GT DUP2 DUP1 PUSH2 0x2A5A JUMPI POP DUP1 JUMPDEST ISZERO PUSH2 0x2B2F JUMPI DUP2 ISZERO PUSH2 0x2A92 JUMPI PUSH2 0x2A88 DUP5 PUSH1 0x1 PUSH1 0x1 PUSH1 0x80 SHL SUB AND DUP9 SUB PUSH1 0x1 PUSH1 0x80 SHL DUP8 PUSH1 0x1 PUSH1 0x1 PUSH1 0x80 SHL SUB AND PUSH2 0x3708 JUMP JUMPDEST PUSH1 0x0 DUP1 SLOAD SWAP1 SWAP2 ADD SWAP1 SSTORE JUMPDEST DUP1 ISZERO PUSH2 0x2AC5 JUMPI PUSH2 0x2ABB DUP4 PUSH1 0x1 PUSH1 0x1 PUSH1 0x80 SHL SUB AND DUP8 SUB PUSH1 0x1 PUSH1 0x80 SHL DUP8 PUSH1 0x1 PUSH1 0x1 PUSH1 0x80 SHL SUB AND PUSH2 0x3708 JUMP JUMPDEST PUSH1 0x1 DUP1 SLOAD SWAP1 SWAP2 ADD SWAP1 SSTORE JUMPDEST PUSH1 0x40 DUP1 MLOAD PUSH1 0x1 PUSH1 0x1 PUSH1 0x80 SHL SUB DUP1 DUP8 AND DUP11 SUB DUP3 MSTORE DUP6 AND DUP9 SUB PUSH1 0x20 DUP3 ADD MSTORE PUSH32 0xEF10EBB00F0DBC72AD4602E94ABBBDA6F3D40632714F70E9C8FA30D5D44289C9 SWAP2 ADD PUSH1 0x40 MLOAD DUP1 SWAP2 SUB SWAP1 LOG1 PUSH1 0x1 PUSH1 0x1 PUSH1 0x80 SHL SUB DUP1 DUP9 AND SWAP1 DUP8 AND PUSH1 0x1 PUSH1 0x80 SHL MUL PUSH1 0x1 PUSH1 0x1 PUSH1 0x80 SHL SUB NOT AND OR PUSH1 0xC SSTORE JUMPDEST POP POP POP POP POP SWAP1 SWAP2 JUMP JUMPDEST PUSH2 0x2B43 DUP4 DUP4 DUP4 PUSH2 0x4553 JUMP JUMPDEST POP POP POP JUMP JUMPDEST PUSH1 0x40 MLOAD PUSH4 0x1644AC7B PUSH1 0xE1 SHL DUP2 MSTORE CALLER SWAP1 PUSH4 0x2C8958F6 SWAP1 PUSH2 0x2B71 SWAP1 DUP8 SWAP1 DUP8 SWAP1 DUP8 SWAP1 DUP8 SWAP1 PUSH1 0x4 ADD PUSH2 0x565D JUMP JUMPDEST PUSH1 0x0 PUSH1 0x40 MLOAD DUP1 DUP4 SUB DUP2 PUSH1 0x0 DUP8 DUP1 EXTCODESIZE ISZERO DUP1 ISZERO PUSH2 0x2B8B JUMPI PUSH1 0x0 DUP1 REVERT JUMPDEST POP GAS CALL ISZERO DUP1 ISZERO PUSH2 0x2B9F JUMPI RETURNDATASIZE PUSH1 0x0 DUP1 RETURNDATACOPY RETURNDATASIZE PUSH1 0x0 REVERT JUMPDEST POP POP POP POP POP POP POP POP JUMP JUMPDEST PUSH1 0x40 MLOAD PUSH4 0x70A08231 PUSH1 0xE0 SHL DUP2 MSTORE PUSH1 0x0 SWAP1 PUSH1 0x1 PUSH1 0x1 PUSH1 0xA0 SHL SUB PUSH32 0x0 AND SWAP1 PUSH4 0x70A08231 SWAP1 PUSH2 0x2BF8 SWAP1 ADDRESS SWAP1 PUSH1 0x4 ADD PUSH2 0x567D JUMP JUMPDEST PUSH1 0x20 PUSH1 0x40 MLOAD DUP1 DUP4 SUB DUP2 DUP7 GAS STATICCALL ISZERO DUP1 ISZERO PUSH2 0x2C15 JUMPI RETURNDATASIZE PUSH1 0x0 DUP1 RETURNDATACOPY RETURNDATASIZE PUSH1 0x0 REVERT JUMPDEST POP POP POP POP PUSH1 0x40 MLOAD RETURNDATASIZE PUSH1 0x1F NOT PUSH1 0x1F DUP3 ADD AND DUP3 ADD DUP1 PUSH1 0x40 MSTORE POP DUP2 ADD SWAP1 PUSH2 0x2C39 SWAP2 SWAP1 PUSH2 0x5691 JUMP JUMPDEST SWAP1 POP SWAP1 JUMP JUMPDEST PUSH1 0x0 DUP5 GT DUP1 PUSH2 0x2C4D JUMPI POP PUSH1 0x0 DUP4 GT JUMPDEST DUP1 PUSH2 0x2C58 JUMPI POP PUSH1 0x0 DUP3 GT JUMPDEST DUP1 PUSH2 0x2C63 JUMPI POP PUSH1 0x0 DUP2 GT JUMPDEST ISZERO PUSH2 0x2EA1 JUMPI PUSH1 0x4 DUP1 SLOAD PUSH1 0x7 SWAP1 PUSH1 0x1 PUSH1 0xD0 SHL SWAP1 DIV PUSH4 0xFFFFFFFF AND PUSH1 0x0 DUP1 DUP1 DUP1 DUP1 PUSH2 0x2C8F DUP13 DUP13 DUP9 DUP11 DUP13 PUSH2 0x45BD JUMP JUMPDEST SWAP4 POP SWAP4 POP SWAP4 POP SWAP4 POP DUP1 DUP3 OR PUSH1 0x0 EQ PUSH2 0x2CD5 JUMPI PUSH2 0x2CAA DUP3 PUSH2 0x39DF JUMP JUMPDEST PUSH2 0x2CB4 SWAP1 DUP16 PUSH2 0x56AA JUMP JUMPDEST PUSH2 0x2CBD DUP3 PUSH2 0x39DF JUMP JUMPDEST PUSH2 0x2CC7 SWAP1 DUP16 PUSH2 0x56AA JUMP JUMPDEST SWAP1 SWAP15 POP SWAP13 POP PUSH1 0x1 SWAP5 POP PUSH2 0x2D1D JUMP JUMPDEST PUSH1 0x1 PUSH1 0x1 PUSH1 0x68 SHL SUB DUP5 DUP5 OR AND ISZERO PUSH2 0x2D1D JUMPI PUSH1 0x4 DUP1 SLOAD PUSH1 0x1 PUSH1 0x1 PUSH1 0xD0 SHL SUB NOT AND PUSH1 0x1 PUSH1 0x68 SHL PUSH1 0x1 PUSH1 0x1 PUSH1 0x68 SHL SUB DUP7 DUP2 AND SWAP2 SWAP1 SWAP2 MUL PUSH1 0x1 PUSH1 0x1 PUSH1 0x68 SHL SUB NOT AND SWAP2 SWAP1 SWAP2 OR SWAP1 DUP7 AND OR SWAP1 SSTORE JUMPDEST PUSH1 0x5 SWAP8 POP PUSH1 0x6 SWAP7 POP PUSH2 0x2D38 DUP11 DUP11 DUP9 PUSH4 0xFFFFFFFF AND DUP11 DUP13 PUSH2 0x45BD JUMP JUMPDEST SWAP3 SWAP7 POP SWAP1 SWAP5 POP SWAP3 POP SWAP1 POP DUP2 DUP2 OR ISZERO PUSH2 0x2E2B JUMPI PUSH2 0x2D53 DUP3 PUSH2 0x39DF JUMP JUMPDEST PUSH2 0x2D5D SWAP1 DUP16 PUSH2 0x56AA JUMP JUMPDEST PUSH2 0x2D66 DUP3 PUSH2 0x39DF JUMP JUMPDEST PUSH2 0x2D70 SWAP1 DUP16 PUSH2 0x56AA JUMP JUMPDEST DUP1 SWAP15 POP DUP2 SWAP16 POP POP POP PUSH1 0x1 SWAP5 POP PUSH2 0x2E26 PUSH4 0xAA6B14BB PUSH1 0xE0 SHL PUSH1 0x6 PUSH1 0x0 SWAP1 SLOAD SWAP1 PUSH2 0x100 EXP SWAP1 DIV PUSH1 0x1 PUSH1 0x1 PUSH1 0xA0 SHL SUB AND PUSH1 0x1 PUSH1 0x1 PUSH1 0xA0 SHL SUB AND PUSH4 0xAA6B14BB DUP6 DUP6 PUSH1 0x40 MLOAD DUP4 PUSH4 0xFFFFFFFF AND PUSH1 0xE0 SHL DUP2 MSTORE PUSH1 0x4 ADD PUSH2 0x2DD3 SWAP3 SWAP2 SWAP1 SWAP2 DUP3 MSTORE PUSH1 0x20 DUP3 ADD MSTORE PUSH1 0x40 ADD SWAP1 JUMP JUMPDEST PUSH1 0x20 PUSH1 0x40 MLOAD DUP1 DUP4 SUB DUP2 PUSH1 0x0 DUP8 GAS CALL ISZERO DUP1 ISZERO PUSH2 0x2DF2 JUMPI RETURNDATASIZE PUSH1 0x0 DUP1 RETURNDATACOPY RETURNDATASIZE PUSH1 0x0 REVERT JUMPDEST POP POP POP POP PUSH1 0x40 MLOAD RETURNDATASIZE PUSH1 0x1F NOT PUSH1 0x1F DUP3 ADD AND DUP3 ADD DUP1 PUSH1 0x40 MSTORE POP DUP2 ADD SWAP1 PUSH2 0x2E16 SWAP2 SWAP1 PUSH2 0x56CA JUMP JUMPDEST PUSH1 0x1 PUSH1 0x1 PUSH1 0xE0 SHL SUB NOT AND SWAP1 PUSH2 0x38A9 JUMP JUMPDEST PUSH2 0x2E73 JUMP JUMPDEST PUSH1 0x1 PUSH1 0x1 PUSH1 0x68 SHL SUB DUP5 DUP5 OR AND ISZERO PUSH2 0x2E73 JUMPI PUSH1 0x5 DUP1 SLOAD PUSH1 0x1 PUSH1 0x1 PUSH1 0xD0 SHL SUB NOT AND PUSH1 0x1 PUSH1 0x68 SHL PUSH1 0x1 PUSH1 0x1 PUSH1 0x68 SHL SUB DUP7 DUP2 AND SWAP2 SWAP1 SWAP2 MUL PUSH1 0x1 PUSH1 0x1 PUSH1 0x68 SHL SUB NOT AND SWAP2 SWAP1 SWAP2 OR SWAP1 DUP7 AND OR SWAP1 SSTORE JUMPDEST DUP5 ISZERO PUSH2 0x2E98 JUMPI PUSH1 0x4 DUP1 SLOAD PUSH4 0xFFFFFFFF PUSH1 0xD0 SHL NOT AND PUSH1 0x1 PUSH1 0xD0 SHL TIMESTAMP PUSH4 0xFFFFFFFF AND MUL OR SWAP1 SSTORE JUMPDEST POP POP POP POP POP POP POP POP JUMPDEST DUP6 DUP6 OR ISZERO PUSH2 0x2F25 JUMPI PUSH1 0xC SLOAD PUSH1 0x1 PUSH1 0x1 PUSH1 0x80 SHL SUB DUP1 DUP3 AND SWAP2 PUSH1 0x1 PUSH1 0x80 SHL SWAP1 DIV AND DUP8 ISZERO PUSH2 0x2EE4 JUMPI PUSH2 0x2ED8 PUSH2 0x2ED3 DUP10 DUP5 PUSH2 0x56F4 JUMP JUMPDEST PUSH2 0x46C9 JUMP JUMPDEST PUSH1 0x1 PUSH1 0x1 PUSH1 0x80 SHL SUB AND SWAP2 POP JUMPDEST DUP7 ISZERO PUSH2 0x2F03 JUMPI PUSH2 0x2EF7 PUSH2 0x2ED3 DUP9 DUP4 PUSH2 0x56F4 JUMP JUMPDEST PUSH1 0x1 PUSH1 0x1 PUSH1 0x80 SHL SUB AND SWAP1 POP JUMPDEST PUSH1 0x1 PUSH1 0x1 PUSH1 0x80 SHL SUB SWAP2 DUP3 AND SWAP2 AND PUSH1 0x1 PUSH1 0x80 SHL MUL PUSH1 0x1 PUSH1 0x1 PUSH1 0x80 SHL SUB NOT AND OR PUSH1 0xC SSTORE JUMPDEST POP POP POP POP POP POP JUMP JUMPDEST PUSH1 0x40 MLOAD PUSH4 0x70A08231 PUSH1 0xE0 SHL DUP2 MSTORE PUSH1 0x0 SWAP1 PUSH1 0x1 PUSH1 0x1 PUSH1 0xA0 SHL SUB PUSH32 0x0 AND SWAP1 PUSH4 0x70A08231 SWAP1 PUSH2 0x2BF8 SWAP1 ADDRESS SWAP1 PUSH1 0x4 ADD PUSH2 0x567D JUMP JUMPDEST PUSH1 0x40 DUP1 MLOAD DUP9 DUP2 MSTORE PUSH1 0x20 DUP2 ADD DUP9 SWAP1 MSTORE PUSH1 0x1 PUSH1 0x1 PUSH1 0xA0 SHL SUB DUP8 DUP2 AND DUP3 DUP5 ADD MSTORE PUSH1 0x1 PUSH1 0x1 PUSH1 0x80 SHL SUB DUP8 AND PUSH1 0x60 DUP4 ADD MSTORE PUSH1 0x2 DUP7 SWAP1 SIGNEXTEND PUSH1 0x80 DUP4 ADD MSTORE PUSH3 0xFFFFFF DUP1 DUP7 AND PUSH1 0xA0 DUP5 ADD MSTORE DUP5 AND PUSH1 0xC0 DUP4 ADD MSTORE SWAP2 MLOAD SWAP2 DUP11 AND SWAP2 CALLER SWAP2 PUSH32 0x121CB44EE54098B1A04743C487E7460D8DD429B27F88B1F4D4767396E1A59F79 SWAP2 SWAP1 DUP2 SWAP1 SUB PUSH1 0xE0 ADD SWAP1 LOG3 POP POP POP POP POP POP POP POP JUMP JUMPDEST PUSH1 0x2 DUP1 SLOAD PUSH1 0xFF PUSH1 0xE0 SHL NOT AND PUSH1 0x1 PUSH1 0xE0 SHL OR SWAP1 SSTORE JUMP JUMPDEST PUSH1 0x2 DUP1 SLOAD PUSH1 0x1 PUSH1 0xC8 SHL SWAP1 DIV AND ISZERO PUSH2 0x2B9F JUMPI PUSH2 0x3030 PUSH2 0x3F76 JUMP JUMPDEST PUSH2 0x2B9F JUMPI PUSH2 0x2B9F PUSH4 0x9CB5A963 PUSH1 0xE0 SHL PUSH1 0x6 PUSH1 0x0 SWAP1 SLOAD SWAP1 PUSH2 0x100 EXP SWAP1 DIV PUSH1 0x1 PUSH1 0x1 PUSH1 0xA0 SHL SUB AND PUSH1 0x1 PUSH1 0x1 PUSH1 0xA0 SHL SUB AND PUSH4 0x9CB5A963 CALLER DUP13 DUP13 DUP13 DUP13 DUP13 DUP13 DUP13 DUP13 PUSH1 0x40 MLOAD DUP11 PUSH4 0xFFFFFFFF AND PUSH1 0xE0 SHL DUP2 MSTORE PUSH1 0x4 ADD DUP1 DUP11 PUSH1 0x1 PUSH1 0x1 PUSH1 0xA0 SHL SUB AND DUP2 MSTORE PUSH1 0x20 ADD DUP10 PUSH1 0x1 PUSH1 0x1 PUSH1 0xA0 SHL SUB AND DUP2 MSTORE PUSH1 0x20 ADD DUP9 ISZERO ISZERO DUP2 MSTORE PUSH1 0x20 ADD DUP8 DUP2 MSTORE PUSH1 0x20 ADD DUP7 PUSH1 0x1 PUSH1 0x1 PUSH1 0xA0 SHL SUB AND DUP2 MSTORE PUSH1 0x20 ADD DUP6 DUP2 MSTORE PUSH1 0x20 ADD DUP5 DUP2 MSTORE PUSH1 0x20 ADD DUP1 PUSH1 0x20 ADD DUP3 DUP2 SUB DUP3 MSTORE DUP5 DUP5 DUP3 DUP2 DUP2 MSTORE PUSH1 0x20 ADD SWAP3 POP DUP1 DUP3 DUP5 CALLDATACOPY PUSH1 0x0 DUP2 DUP5 ADD MSTORE PUSH1 0x1F NOT PUSH1 0x1F DUP3 ADD AND SWAP1 POP DUP1 DUP4 ADD SWAP3 POP POP POP SWAP11 POP POP POP POP POP POP POP POP POP POP POP PUSH1 0x20 PUSH1 0x40 MLOAD DUP1 DUP4 SUB DUP2 PUSH1 0x0 DUP8 GAS CALL ISZERO DUP1 ISZERO PUSH2 0x10A1 JUMPI RETURNDATASIZE PUSH1 0x0 DUP1 RETURNDATACOPY RETURNDATASIZE PUSH1 0x0 REVERT JUMPDEST PUSH1 0x6 SLOAD PUSH1 0x1 PUSH1 0x1 PUSH1 0xA0 SHL SUB AND CALLER EQ PUSH2 0xD5E JUMPI PUSH1 0x40 MLOAD PUSH4 0x4994C269 PUSH1 0xE1 SHL DUP2 MSTORE PUSH1 0x4 ADD PUSH1 0x40 MLOAD DUP1 SWAP2 SUB SWAP1 REVERT JUMPDEST PUSH1 0x0 DUP1 PUSH2 0x3156 PUSH2 0x2BA9 JUMP JUMPDEST PUSH2 0x315E PUSH2 0x2F2D JUMP JUMPDEST PUSH1 0xC SLOAD SWAP2 SWAP4 POP SWAP2 POP PUSH1 0x1 PUSH1 0x1 PUSH1 0x80 SHL SUB DUP1 DUP3 AND SWAP2 PUSH1 0x1 PUSH1 0x80 SHL SWAP1 DIV AND DUP2 DUP5 GT DUP1 PUSH2 0x3190 JUMPI POP DUP1 PUSH1 0x1 PUSH1 0x1 PUSH1 0x80 SHL SUB AND DUP4 GT JUMPDEST ISZERO PUSH2 0x20FF JUMPI DUP2 PUSH1 0x1 PUSH1 0x1 PUSH1 0x80 SHL SUB AND DUP5 GT ISZERO PUSH2 0x31E3 JUMPI PUSH2 0x31E3 PUSH32 0x0 DUP7 PUSH2 0x31DE PUSH1 0x1 PUSH1 0x1 PUSH1 0x80 SHL SUB DUP7 AND DUP9 PUSH2 0x5585 JUMP JUMPDEST PUSH2 0x2B38 JUMP JUMPDEST DUP1 PUSH1 0x1 PUSH1 0x1 PUSH1 0x80 SHL SUB AND DUP4 GT ISZERO PUSH2 0x322C JUMPI PUSH2 0x322C PUSH32 0x0 DUP7 PUSH2 0x31DE PUSH1 0x1 PUSH1 0x1 PUSH1 0x80 SHL SUB DUP6 AND DUP8 PUSH2 0x5585 JUMP JUMPDEST PUSH1 0x1 PUSH1 0x1 PUSH1 0xA0 SHL SUB DUP6 AND PUSH32 0xB94331E4420F16B156F53C397A8ADCD09481283EE7830F7B688B22858E9DB80B PUSH2 0x326A PUSH1 0x1 PUSH1 0x1 PUSH1 0x80 SHL SUB DUP6 AND DUP8 PUSH2 0x5585 JUMP JUMPDEST PUSH2 0x327D PUSH1 0x1 PUSH1 0x1 PUSH1 0x80 SHL SUB DUP6 AND DUP8 PUSH2 0x5585 JUMP JUMPDEST PUSH1 0x40 DUP1 MLOAD SWAP3 DUP4 MSTORE PUSH1 0x20 DUP4 ADD SWAP2 SWAP1 SWAP2 MSTORE ADD PUSH1 0x40 MLOAD DUP1 SWAP2 SUB SWAP1 LOG2 POP POP POP POP POP JUMP JUMPDEST PUSH1 0x2 SLOAD PUSH1 0x1 PUSH1 0xE0 SHL SWAP1 DIV PUSH1 0xFF AND PUSH2 0xD5E JUMPI PUSH1 0x40 MLOAD PUSH4 0x67984809 PUSH1 0xE1 SHL DUP2 MSTORE PUSH1 0x4 ADD PUSH1 0x40 MLOAD DUP1 SWAP2 SUB SWAP1 REVERT JUMPDEST PUSH1 0x40 DUP1 MLOAD PUSH4 0xE8AE2B69 PUSH1 0xE0 SHL DUP2 MSTORE PUSH32 0xB73CE166EAD2F8E9ADD217713A7989E4EDFBA9625F71DFD2516204BB67AD3442 PUSH1 0x4 DUP3 ADD MSTORE CALLER PUSH1 0x24 DUP3 ADD MSTORE SWAP1 MLOAD PUSH1 0x1 PUSH1 0x1 PUSH1 0xA0 SHL SUB PUSH32 0x0 AND SWAP2 PUSH4 0xE8AE2B69 SWAP2 PUSH1 0x44 DUP1 DUP4 ADD SWAP3 PUSH1 0x20 SWAP3 SWAP2 SWAP1 DUP3 SWAP1 SUB ADD DUP2 DUP7 GAS STATICCALL ISZERO DUP1 ISZERO PUSH2 0x3357 JUMPI RETURNDATASIZE PUSH1 0x0 DUP1 RETURNDATACOPY RETURNDATASIZE PUSH1 0x0 REVERT JUMPDEST POP POP POP POP PUSH1 0x40 MLOAD RETURNDATASIZE PUSH1 0x20 DUP2 LT ISZERO PUSH2 0x336D JUMPI PUSH1 0x0 DUP1 REVERT JUMPDEST POP MLOAD PUSH2 0xD5E JUMPI PUSH1 0x40 MLOAD PUSH4 0x4994C269 PUSH1 0xE1 SHL DUP2 MSTORE PUSH1 0x4 ADD PUSH1 0x40 MLOAD DUP1 SWAP2 SUB SWAP1 REVERT JUMPDEST PUSH1 0x2 DUP1 SLOAD PUSH2 0xFFFF PUSH1 0xD0 SHL NOT AND PUSH1 0x1 PUSH1 0xD0 SHL PUSH2 0xFFFF DUP5 AND SWAP1 DUP2 MUL SWAP2 SWAP1 SWAP2 OR SWAP1 SWAP2 SSTORE PUSH1 0x40 MLOAD SWAP1 DUP2 MSTORE PUSH32 0x3647DCCC990D4941B0B05B32527EF493A98D6187B20639CA2F9743F3B55CA5E1 SWAP1 PUSH1 0x20 ADD JUMPDEST PUSH1 0x40 MLOAD DUP1 SWAP2 SUB SWAP1 LOG1 POP JUMP JUMPDEST PUSH2 0x33F0 PUSH3 0xD89E7 NOT PUSH2 0x571C JUMP JUMPDEST PUSH1 0x2 SIGNEXTEND DUP2 PUSH1 0x2 SIGNEXTEND SGT ISZERO PUSH2 0x3416 JUMPI PUSH1 0x40 MLOAD PUSH4 0x1445443D PUSH1 0xE0 SHL DUP2 MSTORE PUSH1 0x4 ADD PUSH1 0x40 MLOAD DUP1 SWAP2 SUB SWAP1 REVERT JUMPDEST DUP2 PUSH1 0x2 SIGNEXTEND DUP2 PUSH1 0x2 SIGNEXTEND SGT PUSH2 0x343C JUMPI PUSH1 0x40 MLOAD PUSH4 0xD9A841A7 PUSH1 0xE0 SHL DUP2 MSTORE PUSH1 0x4 ADD PUSH1 0x40 MLOAD DUP1 SWAP2 SUB SWAP1 REVERT JUMPDEST PUSH3 0xD89E7 NOT PUSH1 0x2 DUP4 SWAP1 SIGNEXTEND SLT ISZERO PUSH2 0x15ED JUMPI PUSH1 0x40 MLOAD PUSH4 0x1D1AC7F1 PUSH1 0xE2 SHL DUP2 MSTORE PUSH1 0x4 ADD PUSH1 0x40 MLOAD DUP1 SWAP2 SUB SWAP1 REVERT JUMPDEST PUSH1 0x2 SLOAD PUSH1 0x0 SWAP1 PUSH1 0x1 PUSH1 0xC8 SHL SWAP1 DIV PUSH1 0x4 AND ISZERO PUSH2 0x35B0 JUMPI PUSH2 0x3482 PUSH2 0x3F76 JUMP JUMPDEST ISZERO PUSH2 0x348F JUMPI POP PUSH1 0x0 PUSH2 0x35B0 JUMP JUMPDEST PUSH1 0x6 SLOAD PUSH1 0x40 MLOAD PUSH4 0x2F1208D9 PUSH1 0xE1 SHL DUP2 MSTORE CALLER PUSH1 0x4 DUP3 ADD DUP2 DUP2 MSTORE PUSH1 0x1 PUSH1 0x1 PUSH1 0xA0 SHL SUB DUP12 DUP2 AND PUSH1 0x24 DUP6 ADD MSTORE PUSH1 0x2 DUP12 DUP2 SIGNEXTEND PUSH1 0x44 DUP7 ADD MSTORE DUP11 SWAP1 SIGNEXTEND PUSH1 0x64 DUP6 ADD MSTORE PUSH1 0xF DUP10 SWAP1 SIGNEXTEND PUSH1 0x84 DUP6 ADD MSTORE PUSH1 0xC0 PUSH1 0xA4 DUP6 ADD SWAP1 DUP2 MSTORE PUSH1 0xC4 DUP6 ADD DUP9 SWAP1 MSTORE PUSH1 0x0 SWAP6 SWAP2 SWAP1 SWAP2 AND SWAP4 PUSH4 0x5E2411B2 SWAP4 SWAP3 DUP14 SWAP3 DUP14 SWAP3 DUP14 SWAP3 DUP14 SWAP3 DUP14 SWAP3 DUP14 SWAP3 SWAP2 SWAP1 PUSH1 0xE4 ADD DUP5 DUP5 DUP1 DUP3 DUP5 CALLDATACOPY PUSH1 0x0 DUP2 DUP5 ADD MSTORE PUSH1 0x1F NOT PUSH1 0x1F DUP3 ADD AND SWAP1 POP DUP1 DUP4 ADD SWAP3 POP POP POP SWAP9 POP POP POP POP POP POP POP POP POP PUSH1 0x40 DUP1 MLOAD DUP1 DUP4 SUB DUP2 PUSH1 0x0 DUP8 GAS CALL ISZERO DUP1 ISZERO PUSH2 0x3548 JUMPI RETURNDATASIZE PUSH1 0x0 DUP1 RETURNDATACOPY RETURNDATASIZE PUSH1 0x0 REVERT JUMPDEST POP POP POP POP PUSH1 0x40 MLOAD RETURNDATASIZE PUSH1 0x40 DUP2 LT ISZERO PUSH2 0x355E JUMPI PUSH1 0x0 DUP1 REVERT JUMPDEST POP DUP1 MLOAD PUSH1 0x20 SWAP1 SWAP2 ADD MLOAD SWAP3 POP SWAP1 POP PUSH3 0xF4240 PUSH3 0xFFFFFF DUP4 AND LT PUSH2 0x3593 JUMPI PUSH1 0x40 MLOAD PUSH4 0x15B2AFA9 PUSH1 0xE0 SHL DUP2 MSTORE PUSH1 0x4 ADD PUSH1 0x40 MLOAD DUP1 SWAP2 SUB SWAP1 REVERT JUMPDEST PUSH2 0x35AE PUSH1 0x1 PUSH1 0x1 PUSH1 0xE0 SHL SUB NOT DUP3 AND PUSH4 0x2F1208D9 PUSH1 0xE1 SHL PUSH2 0x38A9 JUMP JUMPDEST POP JUMPDEST SWAP7 SWAP6 POP POP POP POP POP POP JUMP JUMPDEST PUSH3 0xFFFFFF DUP2 DUP2 AND SWAP1 DUP4 AND PUSH1 0x18 DUP6 DUP2 SHL SWAP2 SWAP1 SWAP2 OR SWAP1 SHL OR PUSH1 0x0 SWAP1 DUP2 MSTORE PUSH1 0xB PUSH1 0x20 MSTORE PUSH1 0x40 SWAP1 KECCAK256 JUMPDEST SWAP4 SWAP3 POP POP POP JUMP JUMPDEST PUSH1 0x2 DUP1 SLOAD PUSH1 0x0 DUP1 SLOAD PUSH1 0x1 SLOAD SWAP2 SWAP4 DUP5 SWAP4 PUSH1 0x1 PUSH1 0x1 PUSH1 0xA0 SHL SUB DUP2 AND SWAP4 PUSH1 0x1 PUSH1 0xA0 SHL SWAP1 SWAP2 DIV SWAP1 SWAP2 SIGNEXTEND SWAP2 DUP5 SWAP2 DUP3 SWAP2 SWAP1 PUSH1 0xF DUP10 SWAP1 SIGNEXTEND ISZERO PUSH2 0x3642 JUMPI PUSH2 0x362C PUSH1 0x3 DUP13 DUP8 DUP13 DUP7 DUP7 PUSH1 0x0 PUSH2 0x46DF JUMP JUMPDEST SWAP4 POP PUSH2 0x363F PUSH1 0x3 DUP12 DUP8 DUP13 DUP7 DUP7 PUSH1 0x1 PUSH2 0x46DF JUMP JUMPDEST SWAP3 POP JUMPDEST PUSH1 0x0 DUP1 PUSH2 0x3654 PUSH1 0x3 DUP15 DUP15 DUP11 DUP9 DUP9 PUSH2 0x47D0 JUMP JUMPDEST SWAP2 POP SWAP2 POP PUSH2 0x3664 DUP15 DUP13 DUP5 DUP5 PUSH2 0x486D JUMP JUMPDEST POP POP POP POP DUP7 PUSH1 0xF SIGNEXTEND PUSH1 0x0 EQ PUSH2 0x36FB JUMPI DUP2 DUP1 PUSH2 0x367C JUMPI POP DUP1 JUMPDEST ISZERO PUSH2 0x3695 JUMPI PUSH2 0x3695 DUP10 DUP10 DUP5 DUP5 DUP8 PUSH1 0x0 DUP14 PUSH1 0xF SIGNEXTEND SLT PUSH2 0x4962 JUMP JUMPDEST PUSH1 0x0 PUSH2 0x36A4 DUP11 DUP11 DUP11 DUP8 DUP10 PUSH2 0x3A06 JUMP JUMPDEST SWAP2 SWAP9 POP SWAP7 POP SWAP1 POP PUSH1 0xF DUP2 SWAP1 SIGNEXTEND ISZERO PUSH2 0x36F9 JUMPI PUSH1 0x9 SLOAD PUSH2 0x36D2 SWAP1 PUSH1 0x1 PUSH1 0x30 SHL SWAP1 DIV PUSH1 0x1 PUSH1 0x1 PUSH1 0x80 SHL SUB AND DUP10 PUSH2 0x44D9 JUMP JUMPDEST PUSH1 0x9 PUSH1 0x6 PUSH2 0x100 EXP DUP2 SLOAD DUP2 PUSH1 0x1 PUSH1 0x1 PUSH1 0x80 SHL SUB MUL NOT AND SWAP1 DUP4 PUSH1 0x1 PUSH1 0x1 PUSH1 0x80 SHL SUB AND MUL OR SWAP1 SSTORE POP JUMPDEST POP JUMPDEST POP POP POP POP SWAP5 POP SWAP5 SWAP3 POP POP POP JUMP JUMPDEST PUSH1 0x0 DUP4 DUP4 MUL DUP2 PUSH1 0x0 NOT DUP6 DUP8 MULMOD DUP3 DUP2 LT DUP4 DUP3 SUB SUB SWAP2 POP POP DUP1 DUP5 GT PUSH2 0x372A JUMPI PUSH1 0x0 DUP1 REVERT JUMPDEST DUP1 PUSH1 0x0 SUB PUSH2 0x373D JUMPI POP DUP3 SWAP1 DIV SWAP1 POP PUSH2 0x35DF JUMP JUMPDEST DUP4 DUP6 DUP8 MULMOD PUSH1 0x0 DUP6 DUP2 SUB DUP7 AND SWAP6 DUP7 SWAP1 DIV SWAP6 PUSH1 0x2 PUSH1 0x3 DUP9 MUL DUP2 XOR DUP1 DUP10 MUL DUP3 SUB MUL DUP1 DUP10 MUL DUP3 SUB MUL DUP1 DUP10 MUL DUP3 SUB MUL DUP1 DUP10 MUL DUP3 SUB MUL DUP1 DUP10 MUL DUP3 SUB MUL DUP1 DUP10 MUL SWAP1 SWAP2 SUB MUL SWAP2 DUP2 SWAP1 SUB DUP2 SWAP1 DIV PUSH1 0x1 ADD DUP6 DUP5 GT SWAP1 SWAP5 SUB SWAP4 SWAP1 SWAP4 MUL SWAP2 SWAP1 SWAP4 SUB SWAP2 SWAP1 SWAP2 DIV OR MUL SWAP1 POP SWAP4 SWAP3 POP POP POP JUMP JUMPDEST PUSH2 0x37A9 PUSH2 0x3F76 JUMP JUMPDEST PUSH2 0x2B9F JUMPI PUSH1 0x2 SLOAD PUSH1 0x1 PUSH1 0xC8 SHL SWAP1 DIV PUSH1 0x8 AND ISZERO PUSH2 0x2B9F JUMPI PUSH2 0x2B9F PUSH4 0xD6852010 PUSH1 0xE0 SHL PUSH1 0x6 PUSH1 0x0 SWAP1 SLOAD SWAP1 PUSH2 0x100 EXP SWAP1 DIV PUSH1 0x1 PUSH1 0x1 PUSH1 0xA0 SHL SUB AND PUSH1 0x1 PUSH1 0x1 PUSH1 0xA0 SHL SUB AND PUSH4 0xD6852010 CALLER DUP13 DUP13 DUP13 DUP13 DUP13 DUP13 DUP13 DUP13 PUSH1 0x40 MLOAD DUP11 PUSH4 0xFFFFFFFF AND PUSH1 0xE0 SHL DUP2 MSTORE PUSH1 0x4 ADD DUP1 DUP11 PUSH1 0x1 PUSH1 0x1 PUSH1 0xA0 SHL SUB AND DUP2 MSTORE PUSH1 0x20 ADD DUP10 PUSH1 0x1 PUSH1 0x1 PUSH1 0xA0 SHL SUB AND DUP2 MSTORE PUSH1 0x20 ADD DUP9 PUSH1 0x2 SIGNEXTEND DUP2 MSTORE PUSH1 0x20 ADD DUP8 PUSH1 0x2 SIGNEXTEND DUP2 MSTORE PUSH1 0x20 ADD DUP7 PUSH1 0xF SIGNEXTEND DUP2 MSTORE PUSH1 0x20 ADD DUP6 DUP2 MSTORE PUSH1 0x20 ADD DUP5 DUP2 MSTORE PUSH1 0x20 ADD DUP1 PUSH1 0x20 ADD DUP3 DUP2 SUB DUP3 MSTORE DUP5 DUP5 DUP3 DUP2 DUP2 MSTORE PUSH1 0x20 ADD SWAP3 POP DUP1 DUP3 DUP5 CALLDATACOPY PUSH1 0x0 DUP2 DUP5 ADD MSTORE PUSH1 0x1F NOT PUSH1 0x1F DUP3 ADD AND SWAP1 POP DUP1 DUP4 ADD SWAP3 POP POP POP SWAP11 POP POP POP POP POP POP POP POP POP POP POP PUSH1 0x20 PUSH1 0x40 MLOAD DUP1 DUP4 SUB DUP2 PUSH1 0x0 DUP8 GAS CALL ISZERO DUP1 ISZERO PUSH2 0x10A1 JUMPI RETURNDATASIZE PUSH1 0x0 DUP1 RETURNDATACOPY RETURNDATASIZE PUSH1 0x0 REVERT JUMPDEST PUSH1 0x1 PUSH1 0x1 PUSH1 0xE0 SHL SUB NOT DUP3 DUP2 AND SWAP1 DUP3 AND EQ PUSH2 0x15ED JUMPI PUSH1 0x40 MLOAD PUSH4 0xD3F5153B PUSH1 0xE0 SHL DUP2 MSTORE PUSH1 0x1 PUSH1 0x1 PUSH1 0xE0 SHL SUB NOT DUP3 AND PUSH1 0x4 DUP3 ADD MSTORE PUSH1 0x24 ADD PUSH1 0x40 MLOAD DUP1 SWAP2 SUB SWAP1 REVERT JUMPDEST PUSH1 0x0 DUP4 ISZERO DUP1 PUSH2 0x3907 JUMPI POP POP DUP3 DUP3 MUL DUP3 DUP5 DUP3 DUP2 PUSH2 0x3904 JUMPI PUSH2 0x3904 PUSH2 0x55BF JUMP JUMPDEST DIV EQ JUMPDEST ISZERO PUSH2 0x3928 JUMPI PUSH1 0x0 DUP3 GT PUSH2 0x3919 JUMPI PUSH1 0x0 DUP1 REVERT JUMPDEST DUP2 DUP2 DIV SWAP1 DUP3 SWAP1 MOD ISZERO ISZERO ADD PUSH2 0x35DF JUMP JUMPDEST PUSH2 0x3933 DUP5 DUP5 DUP5 PUSH2 0x3708 JUMP JUMPDEST SWAP1 POP PUSH1 0x0 DUP3 DUP1 PUSH2 0x3945 JUMPI PUSH2 0x3945 PUSH2 0x55BF JUMP JUMPDEST DUP5 DUP7 MULMOD GT ISZERO PUSH2 0x35DF JUMPI PUSH1 0x0 NOT DUP2 LT PUSH2 0x395C JUMPI PUSH1 0x0 DUP1 REVERT JUMPDEST PUSH1 0x1 ADD SWAP4 SWAP3 POP POP POP JUMP JUMPDEST PUSH1 0x40 MLOAD PUSH4 0x2982C34F PUSH1 0xE2 SHL DUP2 MSTORE CALLER SWAP1 PUSH4 0xA60B0D3C SWAP1 PUSH2 0x2B71 SWAP1 DUP8 SWAP1 DUP8 SWAP1 DUP8 SWAP1 DUP8 SWAP1 PUSH1 0x4 ADD PUSH2 0x565D JUMP JUMPDEST PUSH1 0x2 DUP1 SLOAD PUSH2 0xFFFF PUSH1 0xB8 SHL NOT AND PUSH1 0x1 PUSH1 0xB8 SHL PUSH2 0xFFFF DUP5 AND SWAP1 DUP2 MUL SWAP2 SWAP1 SWAP2 OR SWAP1 SWAP2 SSTORE PUSH1 0x40 MLOAD SWAP1 DUP2 MSTORE PUSH32 0x598B9F043C813AA6BE3426CA60D1C65D17256312890BE5118DAB55B0775EBE2A SWAP1 PUSH1 0x20 ADD PUSH2 0x33D8 JUMP JUMPDEST DUP1 PUSH1 0x0 DUP2 SLT ISZERO PUSH2 0x39EE JUMPI PUSH1 0x0 DUP1 REVERT JUMPDEST SWAP2 SWAP1 POP JUMP JUMPDEST DUP1 PUSH1 0x0 PUSH1 0xF DUP3 SWAP1 SIGNEXTEND SLT ISZERO PUSH2 0x39EE JUMPI PUSH1 0x0 DUP1 REVERT JUMPDEST PUSH1 0x0 DUP1 PUSH1 0x0 DUP1 PUSH2 0x3A15 DUP10 PUSH2 0x3F87 JUMP JUMPDEST SWAP1 POP PUSH1 0x0 PUSH2 0x3A22 DUP10 PUSH2 0x3F87 JUMP JUMPDEST SWAP1 POP PUSH1 0x0 DUP1 DUP12 PUSH1 0x2 SIGNEXTEND DUP10 PUSH1 0x2 SIGNEXTEND SLT ISZERO PUSH2 0x3A47 JUMPI PUSH2 0x3A40 DUP5 DUP5 DUP13 PUSH2 0x4A4B JUMP JUMPDEST SWAP2 POP PUSH2 0x3A85 JUMP JUMPDEST DUP11 PUSH1 0x2 SIGNEXTEND DUP10 PUSH1 0x2 SIGNEXTEND SLT ISZERO PUSH2 0x3A77 JUMPI PUSH2 0x3A60 DUP9 DUP5 DUP13 PUSH2 0x4A4B JUMP JUMPDEST SWAP2 POP PUSH2 0x3A6D DUP5 DUP10 DUP13 PUSH2 0x4A8B JUMP JUMPDEST SWAP1 POP DUP10 SWAP5 POP PUSH2 0x3A85 JUMP JUMPDEST PUSH2 0x3A82 DUP5 DUP5 DUP13 PUSH2 0x4A8B JUMP JUMPDEST SWAP1 POP JUMPDEST PUSH1 0x0 DUP11 PUSH1 0xF SIGNEXTEND SLT PUSH2 0x3A97 JUMPI DUP2 DUP2 PUSH2 0x3AA0 JUMP JUMPDEST DUP2 PUSH1 0x0 SUB DUP2 PUSH1 0x0 SUB JUMPDEST SWAP1 SWAP14 SWAP1 SWAP13 POP SWAP5 SWAP11 POP SWAP4 SWAP9 POP POP POP POP POP POP POP POP POP JUMP JUMPDEST PUSH1 0x40 MLOAD PUSH4 0x3DD657C5 PUSH1 0xE0 SHL DUP2 MSTORE CALLER SWAP1 PUSH4 0x3DD657C5 SWAP1 PUSH2 0x2B71 SWAP1 DUP8 SWAP1 DUP8 SWAP1 DUP8 SWAP1 DUP8 SWAP1 PUSH1 0x4 ADD PUSH2 0x565D JUMP JUMPDEST PUSH1 0x2 DUP1 SLOAD PUSH1 0xFF PUSH1 0xC8 SHL NOT AND PUSH1 0x1 PUSH1 0xC8 SHL PUSH1 0xFF DUP5 AND SWAP1 DUP2 MUL SWAP2 SWAP1 SWAP2 OR SWAP1 SWAP2 SSTORE PUSH1 0x40 MLOAD SWAP1 DUP2 MSTORE PUSH32 0x3A6271B36C1B44BD6A0A0D56230602DC6919B7C17AF57254306FADF5FEE69DC3 SWAP1 PUSH1 0x20 ADD PUSH2 0x33D8 JUMP JUMPDEST PUSH1 0x6 DUP1 SLOAD PUSH1 0x1 PUSH1 0x1 PUSH1 0xA0 SHL SUB NOT AND PUSH1 0x1 PUSH1 0x1 PUSH1 0xA0 SHL SUB DUP4 AND OR SWAP1 SSTORE PUSH1 0x40 MLOAD PUSH32 0x27A3944EFF2135A57675F17E72501038982B73620D01F794C72E93D61A3932A2 SWAP1 PUSH2 0x33D8 SWAP1 DUP4 SWAP1 PUSH2 0x567D JUMP JUMPDEST PUSH1 0x7 DUP1 SLOAD PUSH1 0x1 PUSH1 0x1 PUSH1 0xA0 SHL SUB NOT AND PUSH1 0x1 PUSH1 0x1 PUSH1 0xA0 SHL SUB DUP4 AND OR SWAP1 SSTORE PUSH1 0x40 MLOAD PUSH32 0xB0B573C1F636E1F8BD9B415BA6C04D6DD49100BC25493FC6305B65EC0E581DF3 SWAP1 PUSH2 0x33D8 SWAP1 DUP4 SWAP1 PUSH2 0x567D JUMP JUMPDEST PUSH1 0x9 DUP1 SLOAD PUSH3 0xFFFFFF PUSH1 0xB0 SHL NOT AND PUSH1 0x1 PUSH1 0xB0 SHL PUSH3 0xFFFFFF DUP5 AND MUL OR SWAP1 SSTORE PUSH1 0x40 MLOAD PUSH1 0x2 DUP3 SWAP1 SIGNEXTEND DUP2 MSTORE PUSH32 0x1413B1D5D4C359E9A0DAA7909ECDA165F6E8C51FE2FF529D74B22A5A7C02645 SWAP1 PUSH1 0x20 ADD PUSH2 0x33D8 JUMP JUMPDEST PUSH1 0x0 PUSH5 0x1000276A3 PUSH1 0x1 PUSH1 0x1 PUSH1 0xA0 SHL SUB DUP4 AND LT DUP1 PUSH2 0x3C4D JUMPI POP PUSH20 0xFFFD8963EFD1FC6A506488495D951D5263988D26 PUSH1 0x1 PUSH1 0x1 PUSH1 0xA0 SHL SUB DUP4 AND LT ISZERO JUMPDEST ISZERO PUSH2 0x3C6B JUMPI PUSH1 0x40 MLOAD PUSH4 0x55CF1E23 PUSH1 0xE0 SHL DUP2 MSTORE PUSH1 0x4 ADD PUSH1 0x40 MLOAD DUP1 SWAP2 SUB SWAP1 REVERT JUMPDEST PUSH1 0x1 PUSH1 0x20 SHL PUSH1 0x1 PUSH1 0xC0 SHL SUB PUSH1 0x20 DUP4 SWAP1 SHL AND PUSH1 0x1 PUSH1 0x1 PUSH1 0x80 SHL SUB DUP2 GT PUSH1 0x7 SHL DUP2 DUP2 SHR PUSH1 0x1 PUSH1 0x1 PUSH1 0x40 SHL SUB DUP2 GT PUSH1 0x6 SHL SWAP1 DUP2 SHR PUSH4 0xFFFFFFFF DUP2 GT PUSH1 0x5 SHL SWAP1 DUP2 SHR PUSH2 0xFFFF DUP2 GT PUSH1 0x4 SHL SWAP1 DUP2 SHR PUSH1 0xFF DUP2 GT PUSH1 0x3 SWAP1 DUP2 SHL SWAP2 DUP3 SHR PUSH1 0xF DUP2 GT PUSH1 0x2 SHL SWAP1 DUP2 SHR SWAP2 DUP3 GT PUSH1 0x1 SWAP1 DUP2 SHL SWAP3 DUP4 SHR SWAP8 SWAP1 DUP9 GT SWAP7 OR SWAP1 SWAP5 OR SWAP1 SWAP3 OR OR SWAP1 SWAP2 OR OR OR PUSH1 0x80 DUP2 LT PUSH2 0x3CFD JUMPI PUSH1 0x7F DUP2 SUB DUP4 SWAP1 SHR SWAP2 POP PUSH2 0x3D07 JUMP JUMPDEST DUP1 PUSH1 0x7F SUB DUP4 SWAP1 SHL SWAP2 POP JUMPDEST SWAP1 DUP1 MUL PUSH1 0x7F DUP2 DUP2 SHR PUSH1 0xFF DUP4 DUP2 SHR SWAP2 SWAP1 SWAP2 SHR DUP1 MUL DUP1 DUP4 SHR DUP2 DUP4 SHR SHR DUP1 MUL DUP1 DUP5 SHR DUP2 DUP5 SHR SHR DUP1 MUL DUP1 DUP6 SHR DUP2 DUP6 SHR SHR DUP1 MUL DUP1 DUP7 SHR DUP2 DUP7 SHR SHR DUP1 MUL DUP1 DUP8 SHR DUP2 DUP8 SHR SHR DUP1 MUL DUP1 DUP9 SHR DUP2 DUP9 SHR SHR DUP1 MUL DUP1 DUP10 SHR DUP2 DUP10 SHR SHR DUP1 MUL DUP1 DUP11 SHR DUP2 DUP11 SHR SHR DUP1 MUL DUP1 DUP12 SHR DUP2 DUP12 SHR SHR DUP1 MUL DUP1 DUP13 SHR DUP2 DUP13 SHR SHR DUP1 MUL DUP1 DUP14 SHR DUP2 DUP14 SHR SHR DUP1 MUL DUP1 DUP15 SHR SWAP13 DUP2 SWAP1 SHR SWAP13 SWAP1 SWAP13 SHR DUP1 MUL SWAP13 DUP14 SWAP1 SHR SWAP15 SWAP14 PUSH1 0x7F NOT DUP16 ADD PUSH1 0x40 SHL PUSH1 0xC0 SWAP2 SWAP1 SWAP2 SHR PUSH1 0x1 PUSH1 0x3F SHL AND OR PUSH1 0xC1 SWAP12 SWAP1 SWAP12 SHR PUSH1 0x1 PUSH1 0x3E SHL AND SWAP11 SWAP1 SWAP11 OR PUSH1 0xC2 SWAP10 SWAP1 SWAP10 SHR PUSH1 0x1 PUSH1 0x3D SHL AND SWAP9 SWAP1 SWAP9 OR PUSH1 0xC3 SWAP8 SWAP1 SWAP8 SHR PUSH1 0x1 PUSH1 0x3C SHL AND SWAP7 SWAP1 SWAP7 OR PUSH1 0xC4 SWAP6 SWAP1 SWAP6 SHR PUSH1 0x1 PUSH1 0x3B SHL AND SWAP5 SWAP1 SWAP5 OR PUSH1 0xC5 SWAP4 SWAP1 SWAP4 SHR PUSH1 0x1 PUSH1 0x3A SHL AND SWAP3 SWAP1 SWAP3 OR PUSH1 0xC6 SWAP2 SWAP1 SWAP2 SHR PUSH1 0x1 PUSH1 0x39 SHL AND OR PUSH1 0xC7 SWAP2 SWAP1 SWAP2 SHR PUSH1 0x1 PUSH1 0x38 SHL AND OR PUSH1 0xC8 SWAP2 SWAP1 SWAP2 SHR PUSH1 0x1 PUSH1 0x37 SHL AND OR PUSH1 0xC9 SWAP2 SWAP1 SWAP2 SHR PUSH1 0x1 PUSH1 0x36 SHL AND OR PUSH1 0xCA SWAP2 SWAP1 SWAP2 SHR PUSH1 0x1 PUSH1 0x35 SHL AND OR PUSH1 0xCB SWAP2 SWAP1 SWAP2 SHR PUSH1 0x1 PUSH1 0x34 SHL AND OR PUSH1 0xCC SWAP2 SWAP1 SWAP2 SHR PUSH1 0x1 PUSH1 0x33 SHL AND OR PUSH1 0xCD SWAP2 SWAP1 SWAP2 SHR PUSH1 0x1 PUSH1 0x32 SHL AND OR PUSH10 0x3627A301D71055774C85 DUP2 MUL PUSH16 0x28F6481AB7F045A5AF012A19D003AA9 NOT DUP2 ADD PUSH1 0x80 SWAP1 DUP2 SAR SWAP1 PUSH16 0xDB2DF09E81959A81455E260799A0632F DUP4 ADD SWAP1 SAR PUSH1 0x2 DUP2 DUP2 SIGNEXTEND SWAP1 DUP4 SWAP1 SIGNEXTEND EQ PUSH2 0x3ED5 JUMPI DUP9 PUSH1 0x1 PUSH1 0x1 PUSH1 0xA0 SHL SUB AND PUSH2 0x3EBA DUP3 PUSH2 0x3F87 JUMP JUMPDEST PUSH1 0x1 PUSH1 0x1 PUSH1 0xA0 SHL SUB AND GT ISZERO PUSH2 0x3ECF JUMPI DUP2 PUSH2 0x3ED7 JUMP JUMPDEST DUP1 PUSH2 0x3ED7 JUMP JUMPDEST DUP2 JUMPDEST SWAP10 SWAP9 POP POP POP POP POP POP POP POP POP JUMP JUMPDEST PUSH1 0x0 DUP1 PUSH1 0x0 PUSH32 0x0 PUSH1 0x1 PUSH1 0x1 PUSH1 0xA0 SHL SUB AND PUSH4 0x25B355D6 PUSH1 0x40 MLOAD DUP2 PUSH4 0xFFFFFFFF AND PUSH1 0xE0 SHL DUP2 MSTORE PUSH1 0x4 ADD PUSH1 0x60 PUSH1 0x40 MLOAD DUP1 DUP4 SUB DUP2 DUP7 GAS STATICCALL ISZERO DUP1 ISZERO PUSH2 0x3F47 JUMPI RETURNDATASIZE PUSH1 0x0 DUP1 RETURNDATACOPY RETURNDATASIZE PUSH1 0x0 REVERT JUMPDEST POP POP POP POP PUSH1 0x40 MLOAD RETURNDATASIZE PUSH1 0x1F NOT PUSH1 0x1F DUP3 ADD AND DUP3 ADD DUP1 PUSH1 0x40 MSTORE POP DUP2 ADD SWAP1 PUSH2 0x3F6B SWAP2 SWAP1 PUSH2 0x5735 JUMP JUMPDEST SWAP3 POP SWAP3 POP SWAP3 POP SWAP1 SWAP2 SWAP3 JUMP JUMPDEST PUSH1 0x6 SLOAD PUSH1 0x1 PUSH1 0x1 PUSH1 0xA0 SHL SUB AND CALLER EQ SWAP1 JUMP JUMPDEST PUSH1 0x0 PUSH1 0x2 DUP3 SWAP1 SIGNEXTEND PUSH1 0x17 SAR PUSH3 0xFFFFFF DUP2 DUP5 ADD DUP3 XOR AND PUSH3 0xD89E8 DUP2 GT ISZERO PUSH2 0x3FBF JUMPI PUSH1 0x40 MLOAD PUSH4 0x3C10250F PUSH1 0xE0 SHL DUP2 MSTORE PUSH1 0x4 ADD PUSH1 0x40 MLOAD DUP1 SWAP2 SUB SWAP1 REVERT JUMPDEST PUSH1 0x1 PUSH1 0x80 SHL PUSH1 0x1 DUP3 AND ISZERO PUSH2 0x3FE0 JUMPI POP PUSH16 0xFFFCB933BD6FAD37AA2D162D1A594001 JUMPDEST PUSH1 0x2 DUP3 AND ISZERO PUSH2 0x3FFF JUMPI PUSH16 0xFFF97272373D413259A46990580E213A MUL PUSH1 0x80 SHR JUMPDEST PUSH1 0x4 DUP3 AND ISZERO PUSH2 0x401E JUMPI PUSH16 0xFFF2E50F5F656932EF12357CF3C7FDCC MUL PUSH1 0x80 SHR JUMPDEST PUSH1 0x8 DUP3 AND ISZERO PUSH2 0x403D JUMPI PUSH16 0xFFE5CACA7E10E4E61C3624EAA0941CD0 MUL PUSH1 0x80 SHR JUMPDEST PUSH1 0x10 DUP3 AND ISZERO PUSH2 0x405C JUMPI PUSH16 0xFFCB9843D60F6159C9DB58835C926644 MUL PUSH1 0x80 SHR JUMPDEST PUSH1 0x20 DUP3 AND ISZERO PUSH2 0x407B JUMPI PUSH16 0xFF973B41FA98C081472E6896DFB254C0 MUL PUSH1 0x80 SHR JUMPDEST PUSH1 0x40 DUP3 AND ISZERO PUSH2 0x409A JUMPI PUSH16 0xFF2EA16466C96A3843EC78B326B52861 MUL PUSH1 0x80 SHR JUMPDEST PUSH1 0x80 DUP3 AND ISZERO PUSH2 0x40B9 JUMPI PUSH16 0xFE5DEE046A99A2A811C461F1969C3053 MUL PUSH1 0x80 SHR JUMPDEST PUSH2 0x100 DUP3 AND ISZERO PUSH2 0x40D9 JUMPI PUSH16 0xFCBE86C7900A88AEDCFFC83B479AA3A4 MUL PUSH1 0x80 SHR JUMPDEST PUSH2 0x200 DUP3 AND ISZERO PUSH2 0x40F9 JUMPI PUSH16 0xF987A7253AC413176F2B074CF7815E54 MUL PUSH1 0x80 SHR JUMPDEST PUSH2 0x400 DUP3 AND ISZERO PUSH2 0x4119 JUMPI PUSH16 0xF3392B0822B70005940C7A398E4B70F3 MUL PUSH1 0x80 SHR JUMPDEST PUSH2 0x800 DUP3 AND ISZERO PUSH2 0x4139 JUMPI PUSH16 0xE7159475A2C29B7443B29C7FA6E889D9 MUL PUSH1 0x80 SHR JUMPDEST PUSH2 0x1000 DUP3 AND ISZERO PUSH2 0x4159 JUMPI PUSH16 0xD097F3BDFD2022B8845AD8F792AA5825 MUL PUSH1 0x80 SHR JUMPDEST PUSH2 0x2000 DUP3 AND ISZERO PUSH2 0x4179 JUMPI PUSH16 0xA9F746462D870FDF8A65DC1F90E061E5 MUL PUSH1 0x80 SHR JUMPDEST PUSH2 0x4000 DUP3 AND ISZERO PUSH2 0x4199 JUMPI PUSH16 0x70D869A156D2A1B890BB3DF62BAF32F7 MUL PUSH1 0x80 SHR JUMPDEST PUSH2 0x8000 DUP3 AND ISZERO PUSH2 0x41B9 JUMPI PUSH16 0x31BE135F97D08FD981231505542FCFA6 MUL PUSH1 0x80 SHR JUMPDEST PUSH3 0x10000 DUP3 AND ISZERO PUSH2 0x41DA JUMPI PUSH16 0x9AA508B5B7A84E1C677DE54F3E99BC9 MUL PUSH1 0x80 SHR JUMPDEST PUSH3 0x20000 DUP3 AND ISZERO PUSH2 0x41FA JUMPI PUSH15 0x5D6AF8DEDB81196699C329225EE604 MUL PUSH1 0x80 SHR JUMPDEST PUSH3 0x40000 DUP3 LT PUSH2 0x4240 JUMPI PUSH3 0x40000 DUP3 AND ISZERO PUSH2 0x4223 JUMPI PUSH14 0x2216E584F5FA1EA926041BEDFE98 MUL PUSH1 0x80 SHR JUMPDEST PUSH3 0x80000 DUP3 AND ISZERO PUSH2 0x4240 JUMPI PUSH12 0x48A170391F7DC42444E8FA2 MUL PUSH1 0x80 SHR JUMPDEST PUSH1 0x0 DUP6 PUSH1 0x2 SIGNEXTEND SGT ISZERO PUSH2 0x4251 JUMPI PUSH1 0x0 NOT DIV JUMPDEST PUSH4 0xFFFFFFFF ADD PUSH1 0x20 SHR SWAP5 SWAP4 POP POP POP POP JUMP JUMPDEST PUSH1 0x0 DUP1 PUSH1 0x0 DUP1 PUSH2 0x5531 DUP11 PUSH2 0x4278 JUMPI PUSH2 0x4ABB PUSH2 0x427C JUMP JUMPDEST PUSH2 0x4ACA JUMPDEST SWAP1 POP PUSH1 0x0 DUP8 SLT PUSH2 0x4350 JUMPI PUSH1 0x0 PUSH2 0x42A5 DUP9 DUP9 PUSH3 0xF4240 SUB PUSH3 0xFFFFFF AND PUSH3 0xF4240 PUSH3 0xFFFFFF AND PUSH2 0x3708 JUMP JUMPDEST SWAP1 POP PUSH2 0x42B6 DUP11 DUP13 DUP12 DUP6 PUSH4 0xFFFFFFFF AND JUMP JUMPDEST SWAP5 POP DUP5 DUP2 LT PUSH2 0x42E3 JUMPI DUP10 SWAP6 POP PUSH2 0x42DC DUP6 DUP9 PUSH3 0xFFFFFF AND DUP10 PUSH3 0xF4240 SUB PUSH3 0xFFFFFF AND PUSH2 0x38E6 JUMP JUMPDEST SWAP3 POP PUSH2 0x4329 JUMP JUMPDEST PUSH2 0x42EF DUP12 DUP11 DUP4 DUP16 PUSH2 0x4AD9 JUMP JUMPDEST SWAP6 POP DUP6 PUSH1 0x1 PUSH1 0x1 PUSH1 0xA0 SHL SUB AND DUP11 PUSH1 0x1 PUSH1 0x1 PUSH1 0xA0 SHL SUB AND SUB PUSH2 0x4312 JUMPI PUSH2 0x4312 PUSH2 0x55D5 JUMP JUMPDEST PUSH2 0x4321 DUP7 DUP13 DUP12 DUP6 PUSH4 0xFFFFFFFF AND JUMP JUMPDEST SWAP5 POP DUP5 DUP9 SUB SWAP3 POP JUMPDEST PUSH2 0x4348 DUP7 DUP13 DUP12 DUP16 PUSH2 0x433C JUMPI PUSH2 0x4AF2 PUSH2 0x4340 JUMP JUMPDEST PUSH2 0x4B01 JUMPDEST PUSH4 0xFFFFFFFF AND JUMP JUMPDEST SWAP4 POP POP PUSH2 0x4422 JUMP JUMPDEST PUSH2 0x5531 DUP12 PUSH2 0x4360 JUMPI PUSH2 0x4AF2 PUSH2 0x4364 JUMP JUMPDEST PUSH2 0x4B01 JUMPDEST SWAP1 POP PUSH2 0x4375 DUP11 DUP13 DUP12 DUP5 PUSH4 0xFFFFFFFF AND JUMP JUMPDEST SWAP4 POP DUP8 PUSH1 0x0 SUB SWAP8 POP PUSH1 0x0 DUP9 SLT ISZERO PUSH2 0x439F JUMPI PUSH1 0x40 MLOAD PUSH4 0x34CB3A01 PUSH1 0xE1 SHL DUP2 MSTORE PUSH1 0x4 ADD PUSH1 0x40 MLOAD DUP1 SWAP2 SUB SWAP1 REVERT JUMPDEST DUP4 DUP9 LT PUSH2 0x43AE JUMPI DUP10 SWAP6 POP PUSH2 0x43F3 JUMP JUMPDEST PUSH2 0x43BA DUP12 DUP11 DUP11 DUP16 PUSH2 0x4B10 JUMP JUMPDEST SWAP6 POP DUP6 PUSH1 0x1 PUSH1 0x1 PUSH1 0xA0 SHL SUB AND DUP11 PUSH1 0x1 PUSH1 0x1 PUSH1 0xA0 SHL SUB AND EQ PUSH2 0x43E7 JUMPI PUSH2 0x43E4 DUP7 DUP13 DUP12 DUP5 PUSH4 0xFFFFFFFF AND JUMP JUMPDEST SWAP4 POP JUMPDEST DUP8 DUP5 GT ISZERO PUSH2 0x43F3 JUMPI DUP8 SWAP4 POP JUMPDEST PUSH2 0x4402 DUP7 DUP13 DUP12 DUP6 PUSH4 0xFFFFFFFF AND JUMP JUMPDEST SWAP5 POP PUSH2 0x441E DUP6 DUP9 PUSH3 0xFFFFFF AND DUP10 PUSH3 0xF4240 SUB PUSH3 0xFFFFFF AND PUSH2 0x38E6 JUMP JUMPDEST SWAP3 POP POP JUMPDEST POP SWAP7 POP SWAP7 POP SWAP7 POP SWAP7 SWAP3 POP POP POP JUMP JUMPDEST DUP1 DUP3 SUB DUP3 DUP2 SGT ISZERO PUSH1 0x0 DUP4 SLT ISZERO EQ PUSH2 0x4446 JUMPI PUSH1 0x0 DUP1 REVERT JUMPDEST SWAP3 SWAP2 POP POP JUMP JUMPDEST DUP2 DUP2 ADD DUP3 DUP2 SLT ISZERO PUSH1 0x0 DUP4 SLT ISZERO EQ PUSH2 0x4446 JUMPI PUSH1 0x0 DUP1 REVERT JUMPDEST PUSH1 0x0 DUP3 ISZERO DUP1 PUSH2 0x4483 JUMPI POP POP DUP2 DUP2 MUL DUP2 DUP4 DUP3 DUP2 PUSH2 0x4480 JUMPI PUSH2 0x4480 PUSH2 0x55BF JUMP JUMPDEST DIV EQ JUMPDEST PUSH2 0x4446 JUMPI PUSH1 0x0 DUP1 REVERT JUMPDEST PUSH1 0x2 DUP4 DUP2 SIGNEXTEND PUSH1 0x0 SWAP1 DUP2 MSTORE PUSH1 0x20 DUP7 SWAP1 MSTORE PUSH1 0x40 SWAP1 KECCAK256 PUSH1 0x3 DUP2 ADD DUP1 SLOAD DUP3 DUP5 ADD DUP1 SLOAD DUP8 SUB SWAP1 SSTORE DUP5 SUB SWAP1 SSTORE PUSH1 0x1 ADD SLOAD PUSH1 0xF DUP2 SWAP1 SIGNEXTEND SWAP2 PUSH1 0x1 PUSH1 0x80 SHL DUP3 DIV DUP2 SIGNEXTEND SWAP2 PUSH1 0x1 PUSH1 0x98 SHL SWAP1 DIV SWAP1 SIGNEXTEND SWAP5 POP SWAP5 POP SWAP5 SWAP2 POP POP JUMP JUMPDEST PUSH1 0x0 DUP1 DUP3 PUSH1 0xF SIGNEXTEND SLT ISZERO PUSH2 0x451B JUMPI POP DUP1 DUP3 ADD PUSH1 0x1 PUSH1 0x1 PUSH1 0x80 SHL SUB DUP1 DUP5 AND SWAP1 DUP3 AND LT PUSH2 0x4516 JUMPI PUSH1 0x40 MLOAD PUSH4 0x2603EE9 PUSH1 0xE3 SHL DUP2 MSTORE PUSH1 0x4 ADD PUSH1 0x40 MLOAD DUP1 SWAP2 SUB SWAP1 REVERT JUMPDEST PUSH2 0x4446 JUMP JUMPDEST DUP3 PUSH1 0x1 PUSH1 0x1 PUSH1 0x80 SHL SUB AND DUP3 DUP5 ADD SWAP2 POP DUP2 PUSH1 0x1 PUSH1 0x1 PUSH1 0x80 SHL SUB AND LT ISZERO PUSH2 0x4446 JUMPI PUSH1 0x40 MLOAD PUSH4 0x4CBA0179 PUSH1 0xE1 SHL DUP2 MSTORE PUSH1 0x4 ADD PUSH1 0x40 MLOAD DUP1 SWAP2 SUB SWAP1 REVERT JUMPDEST PUSH1 0x0 PUSH1 0x40 MLOAD PUSH4 0xA9059CBB PUSH1 0xE0 SHL PUSH1 0x0 MSTORE PUSH1 0x1 PUSH1 0x1 PUSH1 0xA0 SHL SUB DUP5 AND PUSH1 0x4 MSTORE DUP3 PUSH1 0x24 MSTORE PUSH1 0x20 PUSH1 0x0 PUSH1 0x44 PUSH1 0x0 DUP1 DUP10 GAS CALL SWAP2 POP DUP2 RETURNDATASIZE ISZERO PUSH1 0x20 RETURNDATASIZE EQ PUSH1 0x1 PUSH1 0x0 MLOAD EQ AND OR AND SWAP2 POP DUP1 PUSH1 0x40 MSTORE POP DUP1 PUSH2 0x45B7 JUMPI PUSH1 0x40 MLOAD PUSH4 0x7232C81F PUSH1 0xE1 SHL DUP2 MSTORE PUSH1 0x4 ADD PUSH1 0x40 MLOAD DUP1 SWAP2 SUB SWAP1 REVERT JUMPDEST POP POP POP POP JUMP JUMPDEST PUSH1 0x0 DUP1 DUP1 DUP1 DUP9 DUP9 OR ISZERO PUSH2 0x466B JUMPI DUP5 SLOAD PUSH1 0x1 PUSH1 0x1 PUSH1 0x68 SHL SUB DUP1 DUP3 AND SWAP2 PUSH1 0x68 SHR AND PUSH2 0x45E6 DUP12 DUP4 PUSH2 0x554F JUMP JUMPDEST SWAP2 POP PUSH2 0x45F2 DUP11 DUP3 PUSH2 0x554F JUMP JUMPDEST SWAP1 POP PUSH2 0x7080 PUSH2 0x4607 DUP11 PUSH4 0xFFFFFFFF TIMESTAMP AND PUSH2 0x5585 JUMP JUMPDEST LT ISZERO DUP1 PUSH2 0x461A JUMPI POP PUSH1 0x1 PUSH1 0x1 PUSH1 0x68 SHL SUB DUP3 GT JUMPDEST DUP1 PUSH2 0x462B JUMPI POP PUSH1 0x1 PUSH1 0x1 PUSH1 0x68 SHL SUB DUP2 GT JUMPDEST ISZERO PUSH2 0x465A JUMPI DUP8 SLOAD PUSH1 0x0 DUP1 PUSH2 0x4640 DUP6 DUP6 DUP6 PUSH2 0x4B20 JUMP JUMPDEST PUSH1 0x0 DUP1 DUP14 SSTORE SWAP11 POP DUP11 SWAP10 POP SWAP1 SWAP8 POP SWAP6 POP PUSH2 0x46BD SWAP5 POP POP POP POP POP JUMP JUMPDEST SWAP1 SWAP5 POP SWAP3 POP PUSH1 0x0 SWAP2 POP DUP2 SWAP1 POP PUSH2 0x46BD JUMP JUMPDEST PUSH2 0x7080 PUSH2 0x467E DUP9 PUSH4 0xFFFFFFFF TIMESTAMP AND PUSH2 0x5585 JUMP JUMPDEST LT PUSH2 0x46B0 JUMPI DUP5 SLOAD PUSH1 0x1 PUSH1 0x1 PUSH1 0x68 SHL SUB DUP1 DUP3 AND SWAP2 PUSH1 0x68 SHR AND DUP1 DUP3 OR ISZERO PUSH2 0x46AD JUMPI DUP8 SLOAD PUSH1 0x0 DUP1 PUSH2 0x4640 DUP6 DUP6 DUP6 PUSH2 0x4B20 JUMP JUMPDEST POP POP JUMPDEST POP PUSH1 0x0 SWAP3 POP DUP3 SWAP2 POP DUP2 SWAP1 POP DUP1 JUMPDEST SWAP6 POP SWAP6 POP SWAP6 POP SWAP6 SWAP2 POP POP JUMP JUMPDEST DUP1 PUSH1 0x1 PUSH1 0x1 PUSH1 0x80 SHL SUB DUP2 AND DUP2 EQ PUSH2 0x39EE JUMPI PUSH1 0x0 DUP1 REVERT JUMPDEST PUSH1 0x2 DUP7 SWAP1 SIGNEXTEND PUSH1 0x0 SWAP1 DUP2 MSTORE PUSH1 0x20 DUP9 SWAP1 MSTORE PUSH1 0x40 DUP2 KECCAK256 DUP1 SLOAD DUP3 PUSH2 0x46FF DUP3 DUP10 PUSH2 0x44D9 JUMP JUMPDEST PUSH1 0x1 PUSH1 0x1 PUSH1 0x80 SHL SUB AND SWAP1 POP PUSH14 0x9745258E83DE0D0F4E400FCE799 DUP2 GT ISZERO PUSH2 0x4739 JUMPI PUSH1 0x40 MLOAD PUSH4 0x12DC1B25 PUSH1 0xE1 SHL DUP2 MSTORE PUSH1 0x4 ADD PUSH1 0x40 MLOAD DUP1 SWAP2 SUB SWAP1 REVERT JUMPDEST PUSH1 0x1 DUP4 ADD SLOAD PUSH1 0xF SIGNEXTEND DUP6 PUSH2 0x475D JUMPI DUP9 PUSH1 0xF SIGNEXTEND DUP2 PUSH1 0xF SIGNEXTEND PUSH2 0x4758 SWAP2 SWAP1 PUSH2 0x56F4 JUMP JUMPDEST PUSH2 0x476F JUMP JUMPDEST DUP9 PUSH1 0xF SIGNEXTEND DUP2 PUSH1 0xF SIGNEXTEND PUSH2 0x476F SWAP2 SWAP1 PUSH2 0x56AA JUMP JUMPDEST PUSH1 0x1 DUP6 ADD DUP1 SLOAD PUSH1 0x1 PUSH1 0x1 PUSH1 0x80 SHL SUB NOT AND PUSH1 0x1 PUSH1 0x1 PUSH1 0x80 SHL SUB SWAP3 SWAP1 SWAP3 AND SWAP2 SWAP1 SWAP2 OR SWAP1 SSTORE DUP2 DUP5 SSTORE DUP2 ISZERO SWAP5 POP PUSH1 0x0 DUP4 SWAP1 SUB PUSH2 0x47C1 JUMPI DUP5 ISZERO SWAP5 POP DUP10 PUSH1 0x2 SIGNEXTEND DUP12 PUSH1 0x2 SIGNEXTEND SGT PUSH2 0x47C1 JUMPI PUSH1 0x3 DUP5 ADD DUP8 SWAP1 SSTORE PUSH1 0x2 DUP5 ADD DUP9 SWAP1 SSTORE JUMPDEST POP POP POP POP SWAP8 SWAP7 POP POP POP POP POP POP POP JUMP JUMPDEST PUSH1 0x2 DUP6 DUP2 SIGNEXTEND PUSH1 0x0 SWAP1 DUP2 MSTORE PUSH1 0x20 DUP9 SWAP1 MSTORE PUSH1 0x40 DUP1 DUP3 KECCAK256 DUP8 DUP5 SIGNEXTEND DUP1 DUP5 MSTORE SWAP2 DUP4 KECCAK256 SWAP3 SWAP4 DUP5 SWAP4 SWAP2 SWAP3 SWAP1 DUP9 SWAP1 SIGNEXTEND SLT ISZERO PUSH2 0x4846 JUMPI DUP9 PUSH1 0x2 SIGNEXTEND DUP8 PUSH1 0x2 SIGNEXTEND SLT PUSH2 0x4821 JUMPI DUP2 PUSH1 0x2 ADD SLOAD DUP7 SUB SWAP4 POP DUP2 PUSH1 0x3 ADD SLOAD DUP6 SUB SWAP3 POP PUSH2 0x4830 JUMP JUMPDEST DUP2 PUSH1 0x2 ADD SLOAD SWAP4 POP DUP2 PUSH1 0x3 ADD SLOAD SWAP3 POP JUMPDEST PUSH1 0x2 DUP2 ADD SLOAD PUSH1 0x3 DUP3 ADD SLOAD SWAP5 SUB SWAP4 SWAP1 SWAP3 SUB SWAP2 PUSH2 0xD30 JUMP JUMPDEST DUP2 PUSH1 0x2 ADD SLOAD DUP2 PUSH1 0x2 ADD SLOAD SUB SWAP4 POP DUP2 PUSH1 0x3 ADD SLOAD DUP2 PUSH1 0x3 ADD SLOAD SUB SWAP3 POP POP POP SWAP7 POP SWAP7 SWAP5 POP POP POP POP POP JUMP JUMPDEST DUP4 SLOAD PUSH1 0xF DUP5 SWAP1 SIGNEXTEND PUSH1 0x0 SUB PUSH2 0x4897 JUMPI DUP1 PUSH1 0x1 PUSH1 0x1 PUSH1 0x80 SHL SUB AND PUSH1 0x0 SUB PUSH2 0x4892 JUMPI POP PUSH2 0x45B7 JUMP JUMPDEST PUSH2 0x48AD JUMP JUMPDEST PUSH2 0x48A1 DUP2 DUP6 PUSH2 0x44D9 JUMP JUMPDEST PUSH1 0x1 PUSH1 0x1 PUSH1 0x80 SHL SUB AND DUP6 SSTORE JUMPDEST PUSH1 0x1 DUP6 ADD SLOAD PUSH1 0x2 DUP7 ADD SLOAD PUSH1 0x0 DUP6 DUP4 EQ PUSH2 0x48E4 JUMPI PUSH1 0x1 DUP9 ADD DUP7 SWAP1 SSTORE PUSH2 0x48E1 DUP4 DUP8 SUB PUSH1 0x1 PUSH1 0x1 PUSH1 0x80 SHL SUB DUP7 AND PUSH1 0x1 PUSH1 0x80 SHL PUSH2 0x3708 JUMP JUMPDEST SWAP1 POP JUMPDEST PUSH1 0x0 DUP6 DUP4 EQ PUSH2 0x4911 JUMPI PUSH1 0x2 DUP10 ADD DUP7 SWAP1 SSTORE PUSH2 0x490E DUP4 DUP8 SUB PUSH1 0x1 PUSH1 0x1 PUSH1 0x80 SHL SUB DUP8 AND PUSH1 0x1 PUSH1 0x80 SHL PUSH2 0x3708 JUMP JUMPDEST SWAP1 POP JUMPDEST PUSH1 0x1 PUSH1 0x1 PUSH1 0x80 SHL SUB DUP3 DUP3 OR AND ISZERO PUSH2 0x4957 JUMPI PUSH1 0x3 DUP10 ADD DUP1 SLOAD PUSH1 0x1 PUSH1 0x80 SHL PUSH1 0x1 PUSH1 0x1 PUSH1 0x80 SHL SUB DUP1 DUP4 AND DUP7 ADD DUP2 AND PUSH1 0x1 PUSH1 0x1 PUSH1 0x80 SHL SUB NOT SWAP1 SWAP4 AND DUP4 OR DUP3 SWAP1 DIV DUP2 AND DUP6 ADD AND MUL OR SWAP1 SSTORE JUMPDEST POP POP POP POP POP POP POP POP POP JUMP JUMPDEST PUSH1 0x9 SLOAD PUSH4 0x1000000 DUP2 DIV PUSH1 0x2 SWAP1 DUP2 SIGNEXTEND SWAP2 SWAP1 DUP2 SWAP1 SIGNEXTEND SWAP1 PUSH1 0x1 PUSH1 0xC8 SHL SWAP1 DIV PUSH4 0xFFFFFFFF AND DUP3 DUP3 DUP3 DUP10 ISZERO PUSH2 0x49A3 JUMPI PUSH2 0x499B DUP13 DUP10 DUP4 DUP7 DUP7 DUP13 PUSH2 0x4B9A JUMP JUMPDEST SWAP2 SWAP5 POP SWAP3 POP SWAP1 POP JUMPDEST DUP9 ISZERO PUSH2 0x49BF JUMPI PUSH2 0x49B7 DUP12 DUP10 DUP4 DUP7 DUP7 DUP13 PUSH2 0x4B9A JUMP JUMPDEST SWAP2 SWAP5 POP SWAP3 POP SWAP1 POP JUMPDEST DUP3 PUSH1 0x2 SIGNEXTEND DUP7 PUSH1 0x2 SIGNEXTEND EQ ISZERO DUP1 PUSH2 0x49DA JUMPI POP DUP2 PUSH1 0x2 SIGNEXTEND DUP6 PUSH1 0x2 SIGNEXTEND EQ ISZERO JUMPDEST DUP1 PUSH2 0x49F1 JUMPI POP DUP4 PUSH4 0xFFFFFFFF AND DUP2 PUSH4 0xFFFFFFFF AND EQ ISZERO JUMPDEST ISZERO PUSH2 0x4A3D JUMPI PUSH1 0x9 DUP1 SLOAD PUSH3 0xFFFFFF DUP1 DUP7 AND PUSH4 0x1000000 MUL PUSH6 0xFFFFFFFFFFFF NOT PUSH4 0xFFFFFFFF DUP7 AND PUSH1 0x1 PUSH1 0xC8 SHL MUL AND PUSH6 0xFFFFFFFFFFFF PUSH4 0xFFFFFFFF PUSH1 0xC8 SHL ADD NOT SWAP1 SWAP4 AND SWAP3 SWAP1 SWAP3 OR SWAP1 DUP6 AND OR OR SWAP1 SSTORE JUMPDEST POP POP POP POP POP POP POP POP POP POP POP POP JUMP JUMPDEST PUSH1 0x0 DUP1 DUP3 PUSH1 0xF SIGNEXTEND SLT ISZERO PUSH2 0x4A73 JUMPI PUSH2 0x4A6B PUSH2 0x16EB DUP6 DUP6 DUP6 PUSH1 0x0 SUB PUSH1 0x0 PUSH2 0x4C8F JUMP JUMPDEST PUSH1 0x0 SUB PUSH2 0x4A83 JUMP JUMPDEST PUSH2 0x4A83 PUSH2 0x16EB DUP6 DUP6 DUP6 PUSH1 0x1 PUSH2 0x4C8F JUMP JUMPDEST SWAP5 SWAP4 POP POP POP POP JUMP JUMPDEST PUSH1 0x0 DUP1 DUP3 PUSH1 0xF SIGNEXTEND SLT ISZERO PUSH2 0x4AAB JUMPI PUSH2 0x4A6B PUSH2 0x16EB DUP6 DUP6 DUP6 PUSH1 0x0 SUB PUSH1 0x0 PUSH2 0x4D2A JUMP JUMPDEST PUSH2 0x4A83 PUSH2 0x16EB DUP6 DUP6 DUP6 PUSH1 0x1 PUSH2 0x4D2A JUMP JUMPDEST PUSH1 0x0 PUSH2 0x4A83 DUP4 DUP6 DUP5 PUSH1 0x1 PUSH2 0x4D2A JUMP JUMPDEST PUSH1 0x0 PUSH2 0x4A83 DUP5 DUP5 DUP5 PUSH1 0x1 PUSH2 0x4C8F JUMP JUMPDEST PUSH1 0x0 PUSH2 0x4AE9 DUP6 DUP6 DUP6 DUP6 PUSH1 0x1 PUSH2 0x4D91 JUMP JUMPDEST SWAP6 SWAP5 POP POP POP POP POP JUMP JUMPDEST PUSH1 0x0 PUSH2 0x4A83 DUP4 DUP6 DUP5 PUSH1 0x0 PUSH2 0x4C8F JUMP JUMPDEST PUSH1 0x0 PUSH2 0x4A83 DUP5 DUP5 DUP5 PUSH1 0x0 PUSH2 0x4D2A JUMP JUMPDEST PUSH1 0x0 PUSH2 0x4AE9 DUP6 DUP6 DUP6 DUP6 PUSH1 0x0 PUSH2 0x4D91 JUMP JUMPDEST PUSH1 0x0 DUP1 DUP1 DUP1 DUP7 ISZERO PUSH2 0x4B5A JUMPI PUSH2 0x4B56 PUSH32 0x0 DUP7 DUP10 PUSH2 0x2B38 JUMP JUMPDEST DUP7 SWAP2 POP JUMPDEST DUP6 ISZERO PUSH2 0x4B8E JUMPI PUSH2 0x4B8B PUSH32 0x0 DUP7 DUP9 PUSH2 0x2B38 JUMP JUMPDEST POP DUP5 JUMPDEST SWAP1 SWAP7 SWAP1 SWAP6 POP SWAP4 POP POP POP POP JUMP JUMPDEST PUSH1 0x0 DUP1 PUSH1 0x0 DUP4 ISZERO PUSH2 0x4BE4 JUMPI PUSH1 0x0 DUP1 PUSH2 0x4BB3 PUSH1 0x3 DUP13 PUSH2 0x4FAF JUMP JUMPDEST SWAP2 POP SWAP2 POP DUP11 PUSH1 0x2 SIGNEXTEND DUP9 PUSH1 0x2 SIGNEXTEND SUB PUSH2 0x4BCC JUMPI DUP2 SWAP8 POP PUSH2 0x4BDD JUMP JUMPDEST DUP11 PUSH1 0x2 SIGNEXTEND DUP8 PUSH1 0x2 SIGNEXTEND SUB PUSH2 0x4BDD JUMPI DUP1 SWAP7 POP JUMPDEST POP POP PUSH2 0x4C6D JUMP JUMPDEST PUSH1 0x0 DUP1 DUP11 PUSH1 0x2 SIGNEXTEND DUP9 PUSH1 0x2 SIGNEXTEND SLT DUP1 ISZERO PUSH2 0x4C01 JUMPI POP DUP11 PUSH1 0x2 SIGNEXTEND DUP8 PUSH1 0x2 SIGNEXTEND SGT JUMPDEST ISZERO PUSH2 0x4C2A JUMPI POP DUP7 SWAP1 POP DUP6 PUSH1 0x2 DUP11 DUP2 SIGNEXTEND SWAP1 DUP13 SWAP1 SIGNEXTEND SGT ISZERO PUSH2 0x4C22 JUMPI DUP11 SWAP7 POP PUSH2 0x4C5D JUMP JUMPDEST DUP11 SWAP8 POP PUSH2 0x4C5D JUMP JUMPDEST PUSH2 0x4C38 PUSH1 0x8 PUSH1 0xA DUP12 DUP15 PUSH2 0x5105 JUMP JUMPDEST PUSH1 0x2 DUP2 DUP2 SIGNEXTEND PUSH1 0x0 SWAP1 DUP2 MSTORE PUSH1 0x3 PUSH1 0x20 MSTORE PUSH1 0x40 SWAP1 KECCAK256 PUSH1 0x1 ADD SLOAD PUSH1 0x1 PUSH1 0x80 SHL SWAP1 DIV SWAP1 SIGNEXTEND SWAP3 POP SWAP1 POP JUMPDEST PUSH2 0x4C6A PUSH1 0x3 DUP13 DUP5 DUP5 PUSH2 0x51BA JUMP JUMPDEST POP POP JUMPDEST PUSH1 0x0 PUSH2 0x4C7D PUSH1 0x8 PUSH1 0xA DUP11 DUP14 PUSH2 0x52B0 JUMP JUMPDEST SWAP7 SWAP11 SWAP6 SWAP10 POP SWAP6 SWAP8 POP SWAP4 SWAP6 POP POP POP POP POP POP JUMP JUMPDEST PUSH1 0x0 PUSH1 0x1 PUSH1 0x1 PUSH1 0xA0 SHL SUB DUP6 DUP6 SUB DUP2 AND SWAP1 DUP6 AND DUP2 LT PUSH2 0x4CAC JUMPI PUSH1 0x0 DUP1 REVERT JUMPDEST PUSH1 0x1 PUSH1 0x60 SHL PUSH1 0x1 PUSH1 0xE0 SHL SUB PUSH1 0x60 DUP6 SWAP1 SHL AND DUP4 PUSH2 0x4CF3 JUMPI DUP7 PUSH1 0x1 PUSH1 0x1 PUSH1 0xA0 SHL SUB AND PUSH2 0x4CE0 DUP4 DUP4 DUP10 PUSH1 0x1 PUSH1 0x1 PUSH1 0xA0 SHL SUB AND PUSH2 0x3708 JUMP JUMPDEST DUP2 PUSH2 0x4CED JUMPI PUSH2 0x4CED PUSH2 0x55BF JUMP JUMPDEST DIV PUSH2 0x4D1F JUMP JUMPDEST PUSH2 0x4D1F PUSH2 0x4D0A DUP4 DUP4 DUP10 PUSH1 0x1 PUSH1 0x1 PUSH1 0xA0 SHL SUB AND PUSH2 0x38E6 JUMP JUMPDEST DUP9 PUSH1 0x1 PUSH1 0x1 PUSH1 0xA0 SHL SUB AND DUP1 DUP3 DIV SWAP2 MOD ISZERO ISZERO ADD SWAP1 JUMP JUMPDEST SWAP8 SWAP7 POP POP POP POP POP POP POP JUMP JUMPDEST PUSH1 0x0 DUP5 PUSH1 0x1 PUSH1 0x1 PUSH1 0xA0 SHL SUB AND DUP5 PUSH1 0x1 PUSH1 0x1 PUSH1 0xA0 SHL SUB AND LT ISZERO PUSH2 0x4D4B JUMPI PUSH1 0x0 DUP1 REVERT JUMPDEST PUSH1 0x1 PUSH1 0x1 PUSH1 0xA0 SHL SUB DUP6 DUP6 SUB AND DUP3 PUSH2 0x4D79 JUMPI PUSH2 0x4D74 DUP2 DUP6 PUSH1 0x1 PUSH1 0x1 PUSH1 0x80 SHL SUB AND PUSH1 0x1 PUSH1 0x60 SHL PUSH2 0x3708 JUMP JUMPDEST PUSH2 0x35B0 JUMP JUMPDEST PUSH2 0x35B0 DUP2 DUP6 PUSH1 0x1 PUSH1 0x1 PUSH1 0x80 SHL SUB AND PUSH1 0x1 PUSH1 0x60 SHL PUSH2 0x38E6 JUMP JUMPDEST PUSH1 0x0 DUP6 PUSH1 0x1 PUSH1 0x1 PUSH1 0xA0 SHL SUB AND PUSH1 0x0 SUB PUSH2 0x4DA9 JUMPI PUSH1 0x0 DUP1 REVERT JUMPDEST DUP5 PUSH1 0x1 PUSH1 0x1 PUSH1 0x80 SHL SUB AND PUSH1 0x0 SUB PUSH2 0x4DBF JUMPI PUSH1 0x0 DUP1 REVERT JUMPDEST DUP4 PUSH1 0x0 SUB PUSH2 0x4DCE JUMPI POP DUP5 PUSH2 0x4AE9 JUMP JUMPDEST DUP2 ISZERO ISZERO DUP4 ISZERO ISZERO SUB PUSH2 0x4ECA JUMPI PUSH1 0x1 PUSH1 0x60 SHL PUSH1 0x1 PUSH1 0xE0 SHL SUB PUSH1 0x60 DUP7 SWAP1 SHL AND DUP3 ISZERO PUSH2 0x4E78 JUMPI PUSH1 0x1 PUSH1 0x1 PUSH1 0xA0 SHL SUB DUP8 AND DUP6 DUP2 MUL SWAP1 DUP7 DUP3 DUP2 PUSH2 0x4E0D JUMPI PUSH2 0x4E0D PUSH2 0x55BF JUMP JUMPDEST DIV SUB PUSH2 0x4E3D JUMPI DUP2 DUP2 ADD DUP3 DUP2 LT PUSH2 0x4E3B JUMPI PUSH2 0x4E31 DUP4 DUP11 PUSH1 0x1 PUSH1 0x1 PUSH1 0xA0 SHL SUB AND DUP4 PUSH2 0x38E6 JUMP JUMPDEST SWAP4 POP POP POP POP PUSH2 0x4AE9 JUMP JUMPDEST POP JUMPDEST PUSH2 0x4E6F DUP3 PUSH2 0x4E64 DUP9 DUP12 PUSH1 0x1 PUSH1 0x1 PUSH1 0xA0 SHL SUB AND DUP7 DUP2 PUSH2 0x4E5D JUMPI PUSH2 0x4E5D PUSH2 0x55BF JUMP JUMPDEST DIV SWAP1 PUSH2 0x52F7 JUMP JUMPDEST DUP1 DUP3 DIV SWAP2 MOD ISZERO ISZERO ADD SWAP1 JUMP JUMPDEST SWAP3 POP POP POP PUSH2 0x4AE9 JUMP JUMPDEST PUSH1 0x1 PUSH1 0x1 PUSH1 0xA0 SHL SUB DUP8 AND DUP6 DUP2 MUL SWAP1 DUP7 DUP3 DUP2 PUSH2 0x4E95 JUMPI PUSH2 0x4E95 PUSH2 0x55BF JUMP JUMPDEST DIV EQ PUSH2 0x4EA0 JUMPI PUSH1 0x0 DUP1 REVERT JUMPDEST DUP1 DUP3 GT PUSH2 0x4EAC JUMPI PUSH1 0x0 DUP1 REVERT JUMPDEST PUSH2 0x4E6F PUSH2 0x4EC5 DUP4 DUP11 PUSH1 0x1 PUSH1 0x1 PUSH1 0xA0 SHL SUB AND DUP5 DUP7 SUB PUSH2 0x38E6 JUMP JUMPDEST PUSH2 0x5307 JUMP JUMPDEST DUP2 ISZERO PUSH2 0x4F37 JUMPI PUSH2 0x4F30 PUSH2 0x4EC5 PUSH1 0x1 PUSH1 0x1 PUSH1 0xA0 SHL SUB DUP7 GT ISZERO PUSH2 0x4F02 JUMPI PUSH2 0x4EFD DUP7 PUSH1 0x1 PUSH1 0x60 SHL DUP10 PUSH1 0x1 PUSH1 0x1 PUSH1 0x80 SHL SUB AND PUSH2 0x3708 JUMP JUMPDEST PUSH2 0x4F20 JUMP JUMPDEST PUSH1 0x1 PUSH1 0x1 PUSH1 0x80 SHL SUB DUP8 AND PUSH1 0x60 DUP8 SWAP1 SHL DUP2 PUSH2 0x4F1E JUMPI PUSH2 0x4F1E PUSH2 0x55BF JUMP JUMPDEST DIV JUMPDEST PUSH1 0x1 PUSH1 0x1 PUSH1 0xA0 SHL SUB DUP10 AND SWAP1 PUSH2 0x52F7 JUMP JUMPDEST SWAP1 POP PUSH2 0x4AE9 JUMP JUMPDEST PUSH1 0x0 PUSH1 0x1 PUSH1 0x1 PUSH1 0xA0 SHL SUB DUP6 GT ISZERO PUSH2 0x4F65 JUMPI PUSH2 0x4F60 DUP6 PUSH1 0x1 PUSH1 0x60 SHL DUP9 PUSH1 0x1 PUSH1 0x1 PUSH1 0x80 SHL SUB AND PUSH2 0x38E6 JUMP JUMPDEST PUSH2 0x4F82 JUMP JUMPDEST PUSH2 0x4F82 PUSH1 0x60 DUP7 SWAP1 SHL PUSH1 0x1 PUSH1 0x1 PUSH1 0x80 SHL SUB DUP9 AND DUP1 DUP3 DIV SWAP2 MOD ISZERO ISZERO ADD SWAP1 JUMP JUMPDEST SWAP1 POP DUP1 DUP8 PUSH1 0x1 PUSH1 0x1 PUSH1 0xA0 SHL SUB AND GT PUSH2 0x4F99 JUMPI PUSH1 0x0 DUP1 REVERT JUMPDEST PUSH1 0x1 PUSH1 0x1 PUSH1 0xA0 SHL SUB DUP8 AND SUB SWAP1 POP SWAP6 SWAP5 POP POP POP POP POP JUMP JUMPDEST PUSH1 0x2 DUP2 DUP2 SIGNEXTEND PUSH1 0x0 DUP2 DUP2 MSTORE PUSH1 0x20 DUP6 SWAP1 MSTORE PUSH1 0x40 DUP2 KECCAK256 PUSH1 0x1 DUP2 ADD DUP1 SLOAD DUP4 DUP4 SSTORE PUSH1 0x1 PUSH1 0x1 PUSH1 0xB0 SHL SUB NOT DUP2 AND SWAP1 SWAP2 SSTORE DUP2 DUP6 ADD DUP4 SWAP1 SSTORE PUSH1 0x3 SWAP1 SWAP2 ADD SWAP2 SWAP1 SWAP2 SSTORE PUSH1 0x1 PUSH1 0x80 SHL DUP2 DIV DUP4 SIGNEXTEND SWAP3 PUSH1 0x1 PUSH1 0x98 SHL SWAP1 SWAP2 DIV SWAP1 SIGNEXTEND SWAP1 PUSH3 0xD89E7 NOT EQ DUP1 PUSH2 0x501F JUMPI POP PUSH2 0x5016 PUSH3 0xD89E7 NOT PUSH2 0x571C JUMP JUMPDEST PUSH1 0x2 SIGNEXTEND DUP4 PUSH1 0x2 SIGNEXTEND EQ JUMPDEST ISZERO PUSH2 0x5078 JUMPI PUSH1 0x2 DUP4 SWAP1 SIGNEXTEND PUSH1 0x0 SWAP1 DUP2 MSTORE PUSH1 0x20 DUP6 SWAP1 MSTORE PUSH1 0x40 SWAP1 KECCAK256 PUSH1 0x1 ADD DUP1 SLOAD PUSH3 0xFFFFFF DUP1 DUP6 AND PUSH1 0x1 PUSH1 0x80 SHL MUL PUSH3 0xFFFFFF PUSH1 0x80 SHL NOT SWAP2 DUP6 AND PUSH1 0x1 PUSH1 0x98 SHL MUL SWAP2 SWAP1 SWAP2 AND PUSH6 0xFFFFFFFFFFFF PUSH1 0x80 SHL NOT SWAP1 SWAP3 AND SWAP2 SWAP1 SWAP2 OR OR SWAP1 SSTORE PUSH2 0x50FE JUMP JUMPDEST DUP1 PUSH1 0x2 SIGNEXTEND DUP3 PUSH1 0x2 SIGNEXTEND SUB PUSH2 0x509E JUMPI PUSH1 0x40 MLOAD PUSH4 0xD6E0949 PUSH1 0xE0 SHL DUP2 MSTORE PUSH1 0x4 ADD PUSH1 0x40 MLOAD DUP1 SWAP2 SUB SWAP1 REVERT JUMPDEST PUSH1 0x2 DUP3 DUP2 SIGNEXTEND PUSH1 0x0 SWAP1 DUP2 MSTORE PUSH1 0x20 DUP7 SWAP1 MSTORE PUSH1 0x40 DUP1 DUP3 KECCAK256 PUSH1 0x1 SWAP1 DUP2 ADD DUP1 SLOAD PUSH3 0xFFFFFF DUP1 DUP9 AND PUSH1 0x1 PUSH1 0x98 SHL MUL PUSH3 0xFFFFFF PUSH1 0x98 SHL NOT SWAP1 SWAP3 AND SWAP2 SWAP1 SWAP2 OR SWAP1 SWAP2 SSTORE SWAP4 DUP6 SWAP1 SIGNEXTEND DUP4 MSTORE SWAP2 KECCAK256 ADD DUP1 SLOAD SWAP2 DUP5 AND PUSH1 0x1 PUSH1 0x80 SHL MUL PUSH3 0xFFFFFF PUSH1 0x80 SHL NOT SWAP1 SWAP3 AND SWAP2 SWAP1 SWAP2 OR SWAP1 SSTORE JUMPDEST SWAP3 POP SWAP3 SWAP1 POP JUMP JUMPDEST PUSH1 0x1 SWAP1 DUP2 ADD SWAP1 PUSH1 0x0 SWAP1 PUSH1 0x8 DUP4 DUP2 SAR PUSH2 0xD8A ADD SWAP1 SHR SWAP1 DUP3 SWAP1 PUSH2 0xFFFF DUP4 AND SHL DUP6 AND PUSH4 0xFFFFFFFF AND ISZERO PUSH2 0x5168 JUMPI PUSH2 0x5139 DUP8 DUP6 PUSH2 0x531D JUMP JUMPDEST SWAP1 SWAP5 POP SWAP1 SWAP3 POP SWAP1 POP DUP1 ISZERO PUSH2 0x514E JUMPI POP POP PUSH2 0x4A83 JUMP JUMPDEST PUSH2 0x515F DUP7 PUSH2 0xD8B DUP5 ADD PUSH1 0x1 SIGNEXTEND PUSH2 0x531D JUMP JUMPDEST SWAP1 SWAP5 POP SWAP1 SWAP3 POP SWAP1 POP JUMPDEST DUP1 PUSH2 0x51AB JUMPI PUSH2 0x5186 DUP6 PUSH4 0xFFFFFFFF AND DUP4 PUSH1 0x1 ADD SWAP4 POP DUP4 PUSH1 0x1 SIGNEXTEND PUSH2 0x534E JUMP JUMPDEST SWAP1 SWAP4 POP SWAP1 POP DUP1 PUSH2 0x519E JUMPI POP PUSH3 0xD89E8 SWAP2 POP PUSH2 0x4A83 SWAP1 POP JUMP JUMPDEST PUSH2 0x51A8 DUP7 DUP5 PUSH2 0x5497 JUMP JUMPDEST SWAP3 POP JUMPDEST PUSH2 0x4D1F DUP8 PUSH2 0xD89 NOT DUP6 ADD PUSH2 0x5497 JUMP JUMPDEST PUSH1 0x2 DUP4 SWAP1 SIGNEXTEND PUSH3 0xD89E7 NOT EQ DUP1 PUSH2 0x51E1 JUMPI POP PUSH2 0x51D8 PUSH3 0xD89E7 NOT PUSH2 0x571C JUMP JUMPDEST PUSH1 0x2 SIGNEXTEND DUP4 PUSH1 0x2 SIGNEXTEND EQ JUMPDEST PUSH2 0x45B7 JUMPI DUP3 PUSH1 0x2 SIGNEXTEND DUP3 PUSH1 0x2 SIGNEXTEND SLT DUP1 ISZERO PUSH2 0x51FF JUMPI POP DUP3 PUSH1 0x2 SIGNEXTEND DUP2 PUSH1 0x2 SIGNEXTEND SGT JUMPDEST PUSH2 0x521C JUMPI PUSH1 0x40 MLOAD PUSH4 0xE45AC17D PUSH1 0xE0 SHL DUP2 MSTORE PUSH1 0x4 ADD PUSH1 0x40 MLOAD DUP1 SWAP2 SUB SWAP1 REVERT JUMPDEST PUSH1 0x2 DUP4 DUP2 SIGNEXTEND PUSH1 0x0 SWAP1 DUP2 MSTORE PUSH1 0x20 SWAP6 SWAP1 SWAP6 MSTORE PUSH1 0x40 DUP1 DUP7 KECCAK256 PUSH1 0x1 SWAP1 DUP2 ADD DUP1 SLOAD PUSH6 0xFFFFFFFFFFFF PUSH1 0x80 SHL NOT AND PUSH1 0x1 PUSH1 0x98 SHL PUSH3 0xFFFFFF DUP8 DUP2 AND DUP3 MUL PUSH3 0xFFFFFF PUSH1 0x80 SHL NOT SWAP1 DUP2 AND SWAP4 SWAP1 SWAP4 OR PUSH1 0x1 PUSH1 0x80 SHL DUP11 DUP4 AND DUP2 MUL SWAP2 SWAP1 SWAP2 OR SWAP1 SWAP5 SSTORE SWAP8 DUP7 SIGNEXTEND DUP11 MSTORE DUP5 DUP11 KECCAK256 DUP5 ADD DUP1 SLOAD PUSH3 0xFFFFFF PUSH1 0x98 SHL NOT AND SWAP9 SWAP1 SWAP10 AND SWAP1 DUP2 MUL SWAP8 SWAP1 SWAP8 OR SWAP1 SWAP8 SSTORE SWAP4 SWAP1 SWAP3 SIGNEXTEND DUP7 MSTORE SWAP1 SWAP5 KECCAK256 SWAP1 SWAP4 ADD DUP1 SLOAD SWAP1 SWAP3 AND SWAP3 MUL SWAP2 SWAP1 SWAP2 OR SWAP1 SSTORE JUMP JUMPDEST DUP2 PUSH1 0x0 DUP1 PUSH2 0x52BE DUP8 DUP6 PUSH2 0x54C3 JUMP JUMPDEST SWAP2 POP SWAP2 POP DUP2 ISZERO PUSH2 0x52ED JUMPI PUSH2 0x52D9 DUP7 PUSH2 0xD8A DUP4 ADD PUSH1 0x1 SIGNEXTEND PUSH2 0x54C3 JUMP JUMPDEST SWAP1 SWAP3 POP SWAP1 POP DUP2 ISZERO PUSH2 0x52ED JUMPI PUSH1 0x1 DUP2 SHL DUP4 XOR SWAP3 POP JUMPDEST POP POP SWAP5 SWAP4 POP POP POP POP JUMP JUMPDEST DUP1 DUP3 ADD DUP3 DUP2 LT ISZERO PUSH2 0x4446 JUMPI PUSH1 0x0 DUP1 REVERT JUMPDEST DUP1 PUSH1 0x1 PUSH1 0x1 PUSH1 0xA0 SHL SUB DUP2 AND DUP2 EQ PUSH2 0x39EE JUMPI PUSH1 0x0 DUP1 REVERT JUMPDEST PUSH1 0x8 DUP2 SWAP1 SAR PUSH1 0x1 DUP2 SWAP1 SIGNEXTEND PUSH1 0x0 SWAP1 DUP2 MSTORE PUSH1 0x20 DUP5 SWAP1 MSTORE PUSH1 0x40 DUP2 KECCAK256 SLOAD DUP2 SWAP1 PUSH2 0x5342 SWAP1 DUP6 PUSH2 0x534E JUMP JUMPDEST SWAP4 SWAP7 SWAP1 SWAP6 POP SWAP3 SWAP4 POP POP POP JUMP JUMPDEST PUSH1 0x0 DUP1 PUSH1 0xFF DUP4 AND DUP5 DUP2 SHR DUP1 DUP4 SUB PUSH2 0x536A JUMPI DUP5 PUSH1 0xFF OR SWAP4 POP PUSH2 0x548E JUMP JUMPDEST PUSH32 0x5555555555555555555555555555555555555555555555555555555555555555 PUSH1 0x0 DUP3 SWAP1 SUB DUP3 AND SWAP1 DUP2 AND ISZERO PUSH1 0x1 PUSH1 0x1 PUSH1 0x80 SHL SUB DUP3 AND ISZERO PUSH1 0x7 SHL OR PUSH1 0x1 PUSH1 0x1 PUSH1 0x40 SHL SUB PUSH1 0x1 PUSH1 0x80 SHL SUB PUSH1 0x1 PUSH1 0xC0 SHL SUB DUP3 AND ISZERO PUSH1 0x6 SHL OR PUSH28 0xFFFFFFFF00000000FFFFFFFF00000000FFFFFFFF00000000FFFFFFFF DUP3 AND ISZERO PUSH1 0x5 SHL OR PUSH30 0xFFFF0000FFFF0000FFFF0000FFFF0000FFFF0000FFFF0000FFFF0000FFFF DUP3 AND ISZERO PUSH1 0x4 SHL OR PUSH31 0xFF00FF00FF00FF00FF00FF00FF00FF00FF00FF00FF00FF00FF00FF00FF00FF DUP3 AND ISZERO PUSH1 0x3 SHL OR PUSH32 0xF0F0F0F0F0F0F0F0F0F0F0F0F0F0F0F0F0F0F0F0F0F0F0F0F0F0F0F0F0F0F0F DUP3 AND ISZERO PUSH1 0x2 SHL OR PUSH32 0x3333333333333333333333333333333333333333333333333333333333333333 SWAP1 SWAP2 AND ISZERO PUSH1 0x1 SHL OR PUSH1 0xFF AND DUP6 ADD SWAP4 POP PUSH1 0x1 SWAP3 POP JUMPDEST POP POP SWAP3 POP SWAP3 SWAP1 POP JUMP JUMPDEST PUSH1 0x1 DUP2 SWAP1 SIGNEXTEND PUSH1 0x0 SWAP1 DUP2 MSTORE PUSH1 0x20 DUP4 SWAP1 MSTORE PUSH1 0x40 SWAP1 KECCAK256 SLOAD PUSH1 0x8 DUP3 SWAP1 SHL SWAP1 PUSH2 0x54BB SWAP1 DUP3 PUSH2 0x534E JUMP JUMPDEST POP SWAP4 SWAP3 POP POP POP JUMP JUMPDEST PUSH1 0x8 DUP2 SWAP1 SAR PUSH1 0x1 DUP2 DUP2 SIGNEXTEND PUSH1 0x0 SWAP1 DUP2 MSTORE PUSH1 0x20 SWAP5 SWAP1 SWAP5 MSTORE PUSH1 0x40 SWAP1 SWAP4 KECCAK256 DUP1 SLOAD PUSH1 0xFF SWAP1 SWAP4 AND SWAP4 SWAP1 SWAP4 SHL DUP1 DUP4 XOR SWAP1 SWAP4 SSTORE SWAP2 DUP2 EQ SWAP1 ISZERO XOR SWAP2 JUMP JUMPDEST PUSH1 0x40 DUP1 MLOAD PUSH1 0x60 DUP2 ADD DUP3 MSTORE PUSH1 0x0 DUP1 DUP3 MSTORE PUSH1 0x20 DUP3 ADD DUP2 SWAP1 MSTORE SWAP2 DUP2 ADD SWAP2 SWAP1 SWAP2 MSTORE SWAP1 JUMP JUMPDEST PUSH1 0x40 MLOAD DUP1 PUSH1 0x40 ADD PUSH1 0x40 MSTORE DUP1 PUSH1 0x0 DUP2 MSTORE PUSH1 0x20 ADD PUSH1 0x0 DUP2 MSTORE POP SWAP1 JUMP JUMPDEST PUSH2 0xD5E PUSH2 0x5780 JUMP JUMPDEST PUSH4 0x4E487B71 PUSH1 0xE0 SHL PUSH1 0x0 MSTORE PUSH1 0x11 PUSH1 0x4 MSTORE PUSH1 0x24 PUSH1 0x0 REVERT JUMPDEST DUP1 DUP3 ADD DUP1 DUP3 GT ISZERO PUSH2 0x4446 JUMPI PUSH2 0x4446 PUSH2 0x5539 JUMP JUMPDEST PUSH1 0x0 PUSH1 0xF DUP3 SWAP1 SIGNEXTEND PUSH1 0x1 PUSH1 0x7F SHL DUP2 ADD PUSH2 0x557C JUMPI PUSH2 0x557C PUSH2 0x5539 JUMP JUMPDEST PUSH1 0x0 SUB SWAP3 SWAP2 POP POP JUMP JUMPDEST DUP2 DUP2 SUB DUP2 DUP2 GT ISZERO PUSH2 0x4446 JUMPI PUSH2 0x4446 PUSH2 0x5539 JUMP JUMPDEST PUSH1 0x1 PUSH1 0x1 PUSH1 0x80 SHL SUB DUP2 DUP2 AND DUP4 DUP3 AND ADD SWAP1 DUP1 DUP3 GT ISZERO PUSH2 0x55B8 JUMPI PUSH2 0x55B8 PUSH2 0x5539 JUMP JUMPDEST POP SWAP3 SWAP2 POP POP JUMP JUMPDEST PUSH4 0x4E487B71 PUSH1 0xE0 SHL PUSH1 0x0 MSTORE PUSH1 0x12 PUSH1 0x4 MSTORE PUSH1 0x24 PUSH1 0x0 REVERT JUMPDEST PUSH4 0x4E487B71 PUSH1 0xE0 SHL PUSH1 0x0 MSTORE PUSH1 0x1 PUSH1 0x4 MSTORE PUSH1 0x24 PUSH1 0x0 REVERT JUMPDEST DUP1 MLOAD PUSH2 0xFFFF DUP2 AND DUP2 EQ PUSH2 0x39EE JUMPI PUSH1 0x0 DUP1 REVERT JUMPDEST PUSH1 0x0 PUSH1 0x20 DUP3 DUP5 SUB SLT ISZERO PUSH2 0x560F JUMPI PUSH1 0x0 DUP1 REVERT JUMPDEST PUSH2 0x35DF DUP3 PUSH2 0x55EB JUMP JUMPDEST PUSH3 0xFFFFFF DUP2 DUP2 AND DUP4 DUP3 AND ADD SWAP1 DUP1 DUP3 GT ISZERO PUSH2 0x55B8 JUMPI PUSH2 0x55B8 PUSH2 0x5539 JUMP JUMPDEST DUP2 DUP4 MSTORE DUP2 DUP2 PUSH1 0x20 DUP6 ADD CALLDATACOPY POP PUSH1 0x0 DUP3 DUP3 ADD PUSH1 0x20 SWAP1 DUP2 ADD SWAP2 SWAP1 SWAP2 MSTORE PUSH1 0x1F SWAP1 SWAP2 ADD PUSH1 0x1F NOT AND SWAP1 SWAP2 ADD ADD SWAP1 JUMP JUMPDEST DUP5 DUP2 MSTORE DUP4 PUSH1 0x20 DUP3 ADD MSTORE PUSH1 0x60 PUSH1 0x40 DUP3 ADD MSTORE PUSH1 0x0 PUSH2 0x35B0 PUSH1 0x60 DUP4 ADD DUP5 DUP7 PUSH2 0x5634 JUMP JUMPDEST PUSH1 0x1 PUSH1 0x1 PUSH1 0xA0 SHL SUB SWAP2 SWAP1 SWAP2 AND DUP2 MSTORE PUSH1 0x20 ADD SWAP1 JUMP JUMPDEST PUSH1 0x0 PUSH1 0x20 DUP3 DUP5 SUB SLT ISZERO PUSH2 0x56A3 JUMPI PUSH1 0x0 DUP1 REVERT JUMPDEST POP MLOAD SWAP2 SWAP1 POP JUMP JUMPDEST DUP2 DUP2 SUB PUSH1 0x0 DUP4 SLT DUP1 ISZERO DUP4 DUP4 SGT AND DUP4 DUP4 SLT DUP3 AND OR ISZERO PUSH2 0x55B8 JUMPI PUSH2 0x55B8 PUSH2 0x5539 JUMP JUMPDEST PUSH1 0x0 PUSH1 0x20 DUP3 DUP5 SUB SLT ISZERO PUSH2 0x56DC JUMPI PUSH1 0x0 DUP1 REVERT JUMPDEST DUP2 MLOAD PUSH1 0x1 PUSH1 0x1 PUSH1 0xE0 SHL SUB NOT DUP2 AND DUP2 EQ PUSH2 0x35DF JUMPI PUSH1 0x0 DUP1 REVERT JUMPDEST DUP1 DUP3 ADD DUP3 DUP2 SLT PUSH1 0x0 DUP4 SLT DUP1 ISZERO DUP3 AND DUP3 ISZERO DUP3 AND OR ISZERO PUSH2 0x5714 JUMPI PUSH2 0x5714 PUSH2 0x5539 JUMP JUMPDEST POP POP SWAP3 SWAP2 POP POP JUMP JUMPDEST PUSH1 0x0 DUP2 PUSH1 0x2 SIGNEXTEND PUSH3 0x7FFFFF NOT DUP2 SUB PUSH2 0x557C JUMPI PUSH2 0x557C PUSH2 0x5539 JUMP JUMPDEST PUSH1 0x0 DUP1 PUSH1 0x0 PUSH1 0x60 DUP5 DUP7 SUB SLT ISZERO PUSH2 0x574A JUMPI PUSH1 0x0 DUP1 REVERT JUMPDEST PUSH2 0x5753 DUP5 PUSH2 0x55EB JUMP JUMPDEST SWAP3 POP PUSH1 0x20 DUP5 ADD MLOAD DUP1 PUSH1 0x2 SIGNEXTEND DUP2 EQ PUSH2 0x5769 JUMPI PUSH1 0x0 DUP1 REVERT JUMPDEST SWAP2 POP PUSH2 0x5777 PUSH1 0x40 DUP6 ADD PUSH2 0x55EB JUMP JUMPDEST SWAP1 POP SWAP3 POP SWAP3 POP SWAP3 JUMP JUMPDEST PUSH4 0x4E487B71 PUSH1 0xE0 SHL PUSH1 0x0 MSTORE PUSH1 0x51 PUSH1 0x4 MSTORE PUSH1 0x24 PUSH1 0x0 REVERT INVALID LOG1 PUSH5 0x736F6C6343 STOP ADDMOD EQ STOP EXP LOG1 PUSH5 0x736F6C6343 STOP ADDMOD EQ STOP EXP "},"methodIdentifiers":{"deploy(address,address,address,address)":"fd82b73a","getDeployParameters()":"04889e26"}}}}}