{
  "_format": "hh-sol-artifact-1",
  "contractName": "PoolTicksCounterTest",
  "sourceName": "contracts/test/PoolTicksCounterTest.sol",
  "abi": [
    {
      "inputs": [
        {
          "internalType": "contract IAlgebraPool",
          "name": "pool",
          "type": "address"
        },
        {
          "internalType": "int24",
          "name": "tickBefore",
          "type": "int24"
        },
        {
          "internalType": "int24",
          "name": "tickAfter",
          "type": "int24"
        }
      ],
      "name": "countInitializedTicksCrossed",
      "outputs": [
        {
          "internalType": "uint32",
          "name": "initializedTicksCrossed",
          "type": "uint32"
        }
      ],
      "stateMutability": "view",
      "type": "function"
    },
    {
      "inputs": [
        {
          "internalType": "int16",
          "name": "newValue",
          "type": "int16"
        }
      ],
      "name": "setTickSpacing",
      "outputs": [],
      "stateMutability": "nonpayable",
      "type": "function"
    },
    {
      "inputs": [
        {
          "internalType": "int16",
          "name": "index",
          "type": "int16"
        },
        {
          "internalType": "uint256",
          "name": "value",
          "type": "uint256"
        }
      ],
      "name": "setTickTableWord",
      "outputs": [],
      "stateMutability": "nonpayable",
      "type": "function"
    },
    {
      "inputs": [],
      "name": "tickSpacing",
      "outputs": [
        {
          "internalType": "int16",
          "name": "",
          "type": "int16"
        }
      ],
      "stateMutability": "view",
      "type": "function"
    },
    {
      "inputs": [
        {
          "internalType": "int16",
          "name": "",
          "type": "int16"
        }
      ],
      "name": "tickTable",
      "outputs": [
        {
          "internalType": "uint256",
          "name": "",
          "type": "uint256"
        }
      ],
      "stateMutability": "view",
      "type": "function"
    }
  ],
  "bytecode": "0x608060405234801561001057600080fd5b5061085b806100206000396000f3fe608060405234801561001057600080fd5b50600436106100675760003560e01c8063c677e3e011610050578063c677e3e0146100c0578063cbe5afde146100ee578063d0c93a7c1461013157600080fd5b80634c5b941c1461006c578063722e2e1014610099575b600080fd5b61007f61007a36600461062b565b610150565b60405163ffffffff90911681526020015b60405180910390f35b6100be6100a73660046106a6565b60019190910b600090815260208190526040902055565b005b6100e06100ce3660046106d0565b60006020819052908152604090205481565b604051908152602001610090565b6100be6100fc3660046106d0565b600180547fffffffffffffffffffffffffffffffffffffffffffffffffffffffffffff00001661ffff92909216919091179055565b6001805461013d910b81565b60405160019190910b8152602001610090565b600061017373ffffffffffffffffffffffffffffffffffffffff8516848461017b565b949350505050565b6000808080808080600289900b60081d816101986101008c6106f2565b905060028a900b60081d60006101b06101008d6106f2565b905060008160ff166001901b8f73ffffffffffffffffffffffffffffffffffffffff1663c677e3e0856040518263ffffffff1660e01b81526004016101fe919060019190910b815260200190565b602060405180830381865afa15801561021b573d6000803e3d6000fd5b505050506040513d601f19601f8201168201806040525081019061023f919061073b565b161180156102c657508d73ffffffffffffffffffffffffffffffffffffffff1663d0c93a7c6040518163ffffffff1660e01b8152600401602060405180830381865afa158015610293573d6000803e3d6000fd5b505050506040513d601f19601f820116820180604052508101906102b79190610754565b6102c1908d6106f2565b60020b155b80156102d757508b60020b8d60020b135b945060008360ff166001901b8f73ffffffffffffffffffffffffffffffffffffffff1663c677e3e0876040518263ffffffff1660e01b8152600401610325919060019190910b815260200190565b602060405180830381865afa158015610342573d6000803e3d6000fd5b505050506040513d601f19601f82011682018060405250810190610366919061073b565b161180156103ed57508d73ffffffffffffffffffffffffffffffffffffffff1663d0c93a7c6040518163ffffffff1660e01b8152600401602060405180830381865afa1580156103ba573d6000803e3d6000fd5b505050506040513d601f19601f820116820180604052508101906103de9190610754565b6103e8908e6106f2565b60020b155b80156103fe57508b60020b8d60020b125b95508160010b8460010b128061042a57508160010b8460010b14801561042a57508060ff168360ff1611155b156104405783995082975081985080965061044d565b8199508097508398508296505b50507fffffffffffffffffffffffffffffffffffffffffffffffffffffffffffffffff60ff87161b9150505b8560010b8760010b136105b1578560010b8760010b036104c85761049e8460ff6107a0565b7fffffffffffffffffffffffffffffffffffffffffffffffffffffffffffffffff60ff919091161c165b6040517fc677e3e0000000000000000000000000000000000000000000000000000000008152600188900b6004820152600090829073ffffffffffffffffffffffffffffffffffffffff8e169063c677e3e090602401602060405180830381865afa15801561053b573d6000803e3d6000fd5b505050506040513d601f19601f8201168201806040525081019061055f919061073b565b16905061056b816105e7565b6105799061ffff168a6107b9565b985087610585816107dd565b9850507fffffffffffffffffffffffffffffffffffffffffffffffffffffffffffffffff915050610479565b81156105c5576105c26001896107fd565b97505b82156105d9576105d66001896107fd565b97505b505050505050509392505050565b6000805b821561061357806105fb8161081a565b915061060a905060018461083b565b831692506105eb565b92915050565b8060020b811461062857600080fd5b50565b60008060006060848603121561064057600080fd5b833573ffffffffffffffffffffffffffffffffffffffff8116811461066457600080fd5b9250602084013561067481610619565b9150604084013561068481610619565b809150509250925092565b8035600181900b81146106a157600080fd5b919050565b600080604083850312156106b957600080fd5b6106c28361068f565b946020939093013593505050565b6000602082840312156106e257600080fd5b6106eb8261068f565b9392505050565b60008260020b8061072c577f4e487b7100000000000000000000000000000000000000000000000000000000600052601260045260246000fd5b808360020b0791505092915050565b60006020828403121561074d57600080fd5b5051919050565b60006020828403121561076657600080fd5b81516106eb81610619565b7f4e487b7100000000000000000000000000000000000000000000000000000000600052601160045260246000fd5b60ff828116828216039081111561061357610613610771565b63ffffffff8181168382160190808211156107d6576107d6610771565b5092915050565b60008160010b617fff81036107f4576107f4610771565b60010192915050565b63ffffffff8281168282160390808211156107d6576107d6610771565b600061ffff80831681810361083157610831610771565b6001019392505050565b818103818111156106135761061361077156fea164736f6c6343000814000a",
  "linkReferences": {},
  "deployedLinkReferences": {}
}