{
  "_format": "hh-sol-artifact-1",
  "contractName": "PathTest",
  "sourceName": "contracts/test/PathTest.sol",
  "abi": [
    {
      "inputs": [
        {
          "internalType": "bytes",
          "name": "path",
          "type": "bytes"
        }
      ],
      "name": "decodeFirstPool",
      "outputs": [
        {
          "internalType": "address",
          "name": "tokenA",
          "type": "address"
        },
        {
          "internalType": "address",
          "name": "deployer",
          "type": "address"
        },
        {
          "internalType": "address",
          "name": "tokenB",
          "type": "address"
        }
      ],
      "stateMutability": "pure",
      "type": "function"
    },
    {
      "inputs": [
        {
          "internalType": "bytes",
          "name": "path",
          "type": "bytes"
        }
      ],
      "name": "getFirstPool",
      "outputs": [
        {
          "internalType": "bytes",
          "name": "",
          "type": "bytes"
        }
      ],
      "stateMutability": "pure",
      "type": "function"
    },
    {
      "inputs": [
        {
          "internalType": "bytes",
          "name": "path",
          "type": "bytes"
        }
      ],
      "name": "getGasCostOfDecodeFirstPool",
      "outputs": [
        {
          "internalType": "uint256",
          "name": "",
          "type": "uint256"
        }
      ],
      "stateMutability": "view",
      "type": "function"
    },
    {
      "inputs": [
        {
          "internalType": "bytes",
          "name": "path",
          "type": "bytes"
        }
      ],
      "name": "hasMultiplePools",
      "outputs": [
        {
          "internalType": "bool",
          "name": "",
          "type": "bool"
        }
      ],
      "stateMutability": "pure",
      "type": "function"
    },
    {
      "inputs": [
        {
          "internalType": "bytes",
          "name": "path",
          "type": "bytes"
        }
      ],
      "name": "skipToken",
      "outputs": [
        {
          "internalType": "bytes",
          "name": "",
          "type": "bytes"
        }
      ],
      "stateMutability": "pure",
      "type": "function"
    }
  ],
  "bytecode": "0x608060405234801561001057600080fd5b50610620806100206000396000f3fe608060405234801561001057600080fd5b50600436106100675760003560e01c8063bf8b627b11610050578063bf8b627b146100b8578063d7c9ca0c146100cb578063eadc682a146100ec57600080fd5b80637db6e2461461006c5780639dc1c39114610095575b600080fd5b61007f61007a366004610483565b610136565b60405161008c9190610552565b60405180910390f35b6100a86100a3366004610483565b610147565b604051901515815260200161008c565b61007f6100c6366004610483565b610152565b6100de6100d9366004610483565b61015d565b60405190815260200161008c565b6100ff6100fa366004610483565b610181565b6040805173ffffffffffffffffffffffffffffffffffffffff9485168152928416602084015292169181019190915260600161008c565b60606101418261019c565b92915050565b6000610141826101c1565b6060610141826101f9565b6000805a905061016c83610220565b5050505a61017a90826105ed565b9392505050565b600080600061018f84610220565b9250925092509193909250565b6060610141600060146101af8180610600565b6101b99190610600565b84919061025a565b60006101ce601480610600565b60146101da8180610600565b6101e49190610600565b6101ee9190610600565b825110159050919050565b6060610141610209601480610600565b610214601480610600565b84516101b991906105ed565b6000808061022e84826103cb565b925061023b8460146103cb565b915061025261024b601480610600565b85906103cb565b929491935050565b60608182601f0110156102ce576040517f08c379a000000000000000000000000000000000000000000000000000000000815260206004820152600e60248201527f736c6963655f6f766572666c6f7700000000000000000000000000000000000060448201526064015b60405180910390fd5b8183018451101561033b576040517f08c379a000000000000000000000000000000000000000000000000000000000815260206004820152601160248201527f736c6963655f6f75744f66426f756e647300000000000000000000000000000060448201526064016102c5565b60608215801561035a57604051915060008252602082016040526103c2565b6040519150601f8416801560200281840101858101878315602002848b0101015b8183101561039357805183526020928301920161037b565b5050858452601f017fffffffffffffffffffffffffffffffffffffffffffffffffffffffffffffffe016604052505b50949350505050565b6000816014018351101561043b576040517f08c379a000000000000000000000000000000000000000000000000000000000815260206004820152601560248201527f746f416464726573735f6f75744f66426f756e6473000000000000000000000060448201526064016102c5565b5001602001516c01000000000000000000000000900490565b7f4e487b7100000000000000000000000000000000000000000000000000000000600052604160045260246000fd5b60006020828403121561049557600080fd5b813567ffffffffffffffff808211156104ad57600080fd5b818401915084601f8301126104c157600080fd5b8135818111156104d3576104d3610454565b604051601f82017fffffffffffffffffffffffffffffffffffffffffffffffffffffffffffffffe0908116603f0116810190838211818310171561051957610519610454565b8160405282815287602084870101111561053257600080fd5b826020860160208301376000928101602001929092525095945050505050565b600060208083528351808285015260005b8181101561057f57858101830151858201604001528201610563565b5060006040828601015260407fffffffffffffffffffffffffffffffffffffffffffffffffffffffffffffffe0601f8301168501019250505092915050565b7f4e487b7100000000000000000000000000000000000000000000000000000000600052601160045260246000fd5b81810381811115610141576101416105be565b80820180821115610141576101416105be56fea164736f6c6343000814000a",
  "linkReferences": {},
  "deployedLinkReferences": {}
}