{
  "_format": "hh-sol-artifact-1",
  "contractName": "PeripheryImmutableStateTest",
  "sourceName": "contracts/test/PeripheryImmutableStateTest.sol",
  "abi": [
    {
      "inputs": [
        {
          "internalType": "address",
          "name": "_factory",
          "type": "address"
        },
        {
          "internalType": "address",
          "name": "_WNativeToken",
          "type": "address"
        },
        {
          "internalType": "address",
          "name": "_poolDeployer",
          "type": "address"
        }
      ],
      "stateMutability": "nonpayable",
      "type": "constructor"
    },
    {
      "inputs": [],
      "name": "WNativeToken",
      "outputs": [
        {
          "internalType": "address",
          "name": "",
          "type": "address"
        }
      ],
      "stateMutability": "view",
      "type": "function"
    },
    {
      "inputs": [],
      "name": "factory",
      "outputs": [
        {
          "internalType": "address",
          "name": "",
          "type": "address"
        }
      ],
      "stateMutability": "view",
      "type": "function"
    },
    {
      "inputs": [],
      "name": "poolDeployer",
      "outputs": [
        {
          "internalType": "address",
          "name": "",
          "type": "address"
        }
      ],
      "stateMutability": "view",
      "type": "function"
    }
  ],
  "bytecode": "0x60e060405234801561001057600080fd5b506040516101bd3803806101bd83398101604081905261002f91610067565b6001600160a01b03928316608052821660a0521660c0526100aa565b80516001600160a01b038116811461006257600080fd5b919050565b60008060006060848603121561007c57600080fd5b6100858461004b565b92506100936020850161004b565b91506100a16040850161004b565b90509250925092565b60805160a05160c05160e96100d4600039600060940152600060450152600060ba015260e96000f3fe6080604052348015600f57600080fd5b5060043610603c5760003560e01c80633119049a1460415780638af3ac85146090578063c45a01551460b6575b600080fd5b60677f000000000000000000000000000000000000000000000000000000000000000081565b60405173ffffffffffffffffffffffffffffffffffffffff909116815260200160405180910390f35b60677f000000000000000000000000000000000000000000000000000000000000000081565b60677f00000000000000000000000000000000000000000000000000000000000000008156fea164736f6c6343000814000a",
  "linkReferences": {},
  "deployedLinkReferences": {}
}