{
  "_format": "hh-sol-artifact-1",
  "contractName": "TestAlgebraCallee",
  "sourceName": "contracts/test/TestAlgebraCallee.sol",
  "abi": [
    {
      "inputs": [
        {
          "internalType": "int256",
          "name": "amount0Delta",
          "type": "int256"
        },
        {
          "internalType": "int256",
          "name": "amount1Delta",
          "type": "int256"
        },
        {
          "internalType": "bytes",
          "name": "data",
          "type": "bytes"
        }
      ],
      "name": "algebraSwapCallback",
      "outputs": [],
      "stateMutability": "nonpayable",
      "type": "function"
    },
    {
      "inputs": [
        {
          "internalType": "address",
          "name": "pool",
          "type": "address"
        },
        {
          "internalType": "uint256",
          "name": "amount1Out",
          "type": "uint256"
        },
        {
          "internalType": "address",
          "name": "recipient",
          "type": "address"
        },
        {
          "internalType": "uint160",
          "name": "limitSqrtPrice",
          "type": "uint160"
        }
      ],
      "name": "swap0ForExact1",
      "outputs": [],
      "stateMutability": "nonpayable",
      "type": "function"
    },
    {
      "inputs": [
        {
          "internalType": "address",
          "name": "pool",
          "type": "address"
        },
        {
          "internalType": "uint256",
          "name": "amount0Out",
          "type": "uint256"
        },
        {
          "internalType": "address",
          "name": "recipient",
          "type": "address"
        },
        {
          "internalType": "uint160",
          "name": "limitSqrtPrice",
          "type": "uint160"
        }
      ],
      "name": "swap1ForExact0",
      "outputs": [],
      "stateMutability": "nonpayable",
      "type": "function"
    },
    {
      "inputs": [
        {
          "internalType": "address",
          "name": "pool",
          "type": "address"
        },
        {
          "internalType": "uint256",
          "name": "amount0In",
          "type": "uint256"
        },
        {
          "internalType": "address",
          "name": "recipient",
          "type": "address"
        },
        {
          "internalType": "uint160",
          "name": "limitSqrtPrice",
          "type": "uint160"
        }
      ],
      "name": "swapExact0For1",
      "outputs": [],
      "stateMutability": "nonpayable",
      "type": "function"
    },
    {
      "inputs": [
        {
          "internalType": "address",
          "name": "pool",
          "type": "address"
        },
        {
          "internalType": "uint256",
          "name": "amount1In",
          "type": "uint256"
        },
        {
          "internalType": "address",
          "name": "recipient",
          "type": "address"
        },
        {
          "internalType": "uint160",
          "name": "limitSqrtPrice",
          "type": "uint160"
        }
      ],
      "name": "swapExact1For0",
      "outputs": [],
      "stateMutability": "nonpayable",
      "type": "function"
    }
  ],
  "bytecode": "0x608060405234801561001057600080fd5b5061071c806100206000396000f3fe608060405234801561001057600080fd5b50600436106100675760003560e01c8063bac7bf7811610050578063bac7bf7814610094578063e2be9109146100a7578063f603482c146100ba57600080fd5b80632c8958f61461006c5780636dfc0ddb14610081575b600080fd5b61007f61007a36600461045c565b6100cd565b005b61007f61008f366004610501565b610325565b61007f6100a2366004610501565b6103cb565b61007f6100b5366004610501565b6103fc565b61007f6100c8366004610501565b610424565b60006100db82840184610554565b905060008513156101fc573373ffffffffffffffffffffffffffffffffffffffff16630dfe16816040518163ffffffff1660e01b8152600401602060405180830381865afa158015610131573d6000803e3d6000fd5b505050506040513d601f19601f820116820180604052508101906101559190610578565b6040517f23b872dd00000000000000000000000000000000000000000000000000000000815273ffffffffffffffffffffffffffffffffffffffff83811660048301523360248301526044820188905291909116906323b872dd906064016020604051808303816000875af11580156101d2573d6000803e3d6000fd5b505050506040513d601f19601f820116820180604052508101906101f69190610595565b5061031e565b6000841361020c5761020c6105b7565b3373ffffffffffffffffffffffffffffffffffffffff1663d21220a76040518163ffffffff1660e01b8152600401602060405180830381865afa158015610257573d6000803e3d6000fd5b505050506040513d601f19601f8201168201806040525081019061027b9190610578565b6040517f23b872dd00000000000000000000000000000000000000000000000000000000815273ffffffffffffffffffffffffffffffffffffffff83811660048301523360248301526044820187905291909116906323b872dd906064016020604051808303816000875af11580156102f8573d6000803e3d6000fd5b505050506040513d601f19601f8201168201806040525081019061031c9190610595565b505b5050505050565b8373ffffffffffffffffffffffffffffffffffffffff1663128acb0883600161034d87610448565b604080513360208201528791016040516020818303038152906040526040518663ffffffff1660e01b81526004016103899594939291906105e6565b60408051808303816000875af11580156103a7573d6000803e3d6000fd5b505050506040513d601f19601f8201168201806040525081019061031c919061068c565b8373ffffffffffffffffffffffffffffffffffffffff1663128acb088360016103f387610448565b61034d906106b0565b8373ffffffffffffffffffffffffffffffffffffffff1663128acb0883600061034d87610448565b8373ffffffffffffffffffffffffffffffffffffffff1663128acb088360006103f3875b80600081121561045757600080fd5b919050565b6000806000806060858703121561047257600080fd5b8435935060208501359250604085013567ffffffffffffffff8082111561049857600080fd5b818701915087601f8301126104ac57600080fd5b8135818111156104bb57600080fd5b8860208285010111156104cd57600080fd5b95989497505060200194505050565b73ffffffffffffffffffffffffffffffffffffffff811681146104fe57600080fd5b50565b6000806000806080858703121561051757600080fd5b8435610522816104dc565b9350602085013592506040850135610539816104dc565b91506060850135610549816104dc565b939692955090935050565b60006020828403121561056657600080fd5b8135610571816104dc565b9392505050565b60006020828403121561058a57600080fd5b8151610571816104dc565b6000602082840312156105a757600080fd5b8151801515811461057157600080fd5b7f4e487b7100000000000000000000000000000000000000000000000000000000600052600160045260246000fd5b600073ffffffffffffffffffffffffffffffffffffffff8088168352602087151581850152866040850152818616606085015260a06080850152845191508160a085015260005b828110156106495785810182015185820160c00152810161062d565b5050600060c0828501015260c07fffffffffffffffffffffffffffffffffffffffffffffffffffffffffffffffe0601f8301168401019150509695505050505050565b6000806040838503121561069f57600080fd5b505080516020909101519092909150565b60007f80000000000000000000000000000000000000000000000000000000000000008203610708577f4e487b7100000000000000000000000000000000000000000000000000000000600052601160045260246000fd5b506000039056fea164736f6c6343000814000a",
  "linkReferences": {},
  "deployedLinkReferences": {}
}