{
  "_format": "hh-sol-artifact-1",
  "contractName": "PoolMockEchidna",
  "sourceName": "contracts/test/echidna/PoolMockEchidna/PoolMockEchidna.sol",
  "abi": [
    {
      "inputs": [],
      "name": "alreadyInitialized",
      "type": "error"
    },
    {
      "inputs": [],
      "name": "arithmeticError",
      "type": "error"
    },
    {
      "inputs": [],
      "name": "bottomTickLowerThanMIN",
      "type": "error"
    },
    {
      "inputs": [],
      "name": "dynamicFeeActive",
      "type": "error"
    },
    {
      "inputs": [],
      "name": "dynamicFeeDisabled",
      "type": "error"
    },
    {
      "inputs": [],
      "name": "flashInsufficientPaid0",
      "type": "error"
    },
    {
      "inputs": [],
      "name": "flashInsufficientPaid1",
      "type": "error"
    },
    {
      "inputs": [],
      "name": "incorrectPluginFee",
      "type": "error"
    },
    {
      "inputs": [],
      "name": "insufficientInputAmount",
      "type": "error"
    },
    {
      "inputs": [],
      "name": "invalidAmountRequired",
      "type": "error"
    },
    {
      "inputs": [
        {
          "internalType": "bytes4",
          "name": "expectedSelector",
          "type": "bytes4"
        }
      ],
      "name": "invalidHookResponse",
      "type": "error"
    },
    {
      "inputs": [],
      "name": "invalidLimitSqrtPrice",
      "type": "error"
    },
    {
      "inputs": [],
      "name": "invalidNewCommunityFee",
      "type": "error"
    },
    {
      "inputs": [],
      "name": "invalidNewTickSpacing",
      "type": "error"
    },
    {
      "inputs": [],
      "name": "liquidityAdd",
      "type": "error"
    },
    {
      "inputs": [],
      "name": "liquidityOverflow",
      "type": "error"
    },
    {
      "inputs": [],
      "name": "liquiditySub",
      "type": "error"
    },
    {
      "inputs": [],
      "name": "locked",
      "type": "error"
    },
    {
      "inputs": [],
      "name": "notAllowed",
      "type": "error"
    },
    {
      "inputs": [],
      "name": "notInitialized",
      "type": "error"
    },
    {
      "inputs": [],
      "name": "pluginIsNotConnected",
      "type": "error"
    },
    {
      "inputs": [],
      "name": "priceOutOfRange",
      "type": "error"
    },
    {
      "inputs": [],
      "name": "tickInvalidLinks",
      "type": "error"
    },
    {
      "inputs": [],
      "name": "tickIsNotInitialized",
      "type": "error"
    },
    {
      "inputs": [],
      "name": "tickIsNotSpaced",
      "type": "error"
    },
    {
      "inputs": [],
      "name": "tickOutOfRange",
      "type": "error"
    },
    {
      "inputs": [],
      "name": "topTickAboveMAX",
      "type": "error"
    },
    {
      "inputs": [],
      "name": "topTickLowerOrEqBottomTick",
      "type": "error"
    },
    {
      "inputs": [],
      "name": "transferFailed",
      "type": "error"
    },
    {
      "inputs": [],
      "name": "zeroAmountRequired",
      "type": "error"
    },
    {
      "inputs": [],
      "name": "zeroLiquidityActual",
      "type": "error"
    },
    {
      "inputs": [],
      "name": "zeroLiquidityDesired",
      "type": "error"
    },
    {
      "anonymous": false,
      "inputs": [
        {
          "indexed": true,
          "internalType": "address",
          "name": "owner",
          "type": "address"
        },
        {
          "indexed": true,
          "internalType": "int24",
          "name": "bottomTick",
          "type": "int24"
        },
        {
          "indexed": true,
          "internalType": "int24",
          "name": "topTick",
          "type": "int24"
        },
        {
          "indexed": false,
          "internalType": "uint128",
          "name": "liquidityAmount",
          "type": "uint128"
        },
        {
          "indexed": false,
          "internalType": "uint256",
          "name": "amount0",
          "type": "uint256"
        },
        {
          "indexed": false,
          "internalType": "uint256",
          "name": "amount1",
          "type": "uint256"
        },
        {
          "indexed": false,
          "internalType": "uint24",
          "name": "pluginFee",
          "type": "uint24"
        }
      ],
      "name": "Burn",
      "type": "event"
    },
    {
      "anonymous": false,
      "inputs": [
        {
          "indexed": true,
          "internalType": "address",
          "name": "owner",
          "type": "address"
        },
        {
          "indexed": false,
          "internalType": "address",
          "name": "recipient",
          "type": "address"
        },
        {
          "indexed": true,
          "internalType": "int24",
          "name": "bottomTick",
          "type": "int24"
        },
        {
          "indexed": true,
          "internalType": "int24",
          "name": "topTick",
          "type": "int24"
        },
        {
          "indexed": false,
          "internalType": "uint128",
          "name": "amount0",
          "type": "uint128"
        },
        {
          "indexed": false,
          "internalType": "uint128",
          "name": "amount1",
          "type": "uint128"
        }
      ],
      "name": "Collect",
      "type": "event"
    },
    {
      "anonymous": false,
      "inputs": [
        {
          "indexed": false,
          "internalType": "uint16",
          "name": "communityFeeNew",
          "type": "uint16"
        }
      ],
      "name": "CommunityFee",
      "type": "event"
    },
    {
      "anonymous": false,
      "inputs": [
        {
          "indexed": false,
          "internalType": "address",
          "name": "newCommunityVault",
          "type": "address"
        }
      ],
      "name": "CommunityVault",
      "type": "event"
    },
    {
      "anonymous": false,
      "inputs": [
        {
          "indexed": false,
          "internalType": "uint256",
          "name": "amount0",
          "type": "uint256"
        },
        {
          "indexed": false,
          "internalType": "uint256",
          "name": "amount1",
          "type": "uint256"
        }
      ],
      "name": "ExcessTokens",
      "type": "event"
    },
    {
      "anonymous": false,
      "inputs": [
        {
          "indexed": false,
          "internalType": "uint16",
          "name": "fee",
          "type": "uint16"
        }
      ],
      "name": "Fee",
      "type": "event"
    },
    {
      "anonymous": false,
      "inputs": [
        {
          "indexed": true,
          "internalType": "address",
          "name": "sender",
          "type": "address"
        },
        {
          "indexed": true,
          "internalType": "address",
          "name": "recipient",
          "type": "address"
        },
        {
          "indexed": false,
          "internalType": "uint256",
          "name": "amount0",
          "type": "uint256"
        },
        {
          "indexed": false,
          "internalType": "uint256",
          "name": "amount1",
          "type": "uint256"
        },
        {
          "indexed": false,
          "internalType": "uint256",
          "name": "paid0",
          "type": "uint256"
        },
        {
          "indexed": false,
          "internalType": "uint256",
          "name": "paid1",
          "type": "uint256"
        }
      ],
      "name": "Flash",
      "type": "event"
    },
    {
      "anonymous": false,
      "inputs": [
        {
          "indexed": false,
          "internalType": "uint160",
          "name": "price",
          "type": "uint160"
        },
        {
          "indexed": false,
          "internalType": "int24",
          "name": "tick",
          "type": "int24"
        }
      ],
      "name": "Initialize",
      "type": "event"
    },
    {
      "anonymous": false,
      "inputs": [
        {
          "indexed": false,
          "internalType": "address",
          "name": "sender",
          "type": "address"
        },
        {
          "indexed": true,
          "internalType": "address",
          "name": "owner",
          "type": "address"
        },
        {
          "indexed": true,
          "internalType": "int24",
          "name": "bottomTick",
          "type": "int24"
        },
        {
          "indexed": true,
          "internalType": "int24",
          "name": "topTick",
          "type": "int24"
        },
        {
          "indexed": false,
          "internalType": "uint128",
          "name": "liquidityAmount",
          "type": "uint128"
        },
        {
          "indexed": false,
          "internalType": "uint256",
          "name": "amount0",
          "type": "uint256"
        },
        {
          "indexed": false,
          "internalType": "uint256",
          "name": "amount1",
          "type": "uint256"
        }
      ],
      "name": "Mint",
      "type": "event"
    },
    {
      "anonymous": false,
      "inputs": [
        {
          "indexed": false,
          "internalType": "address",
          "name": "newPluginAddress",
          "type": "address"
        }
      ],
      "name": "Plugin",
      "type": "event"
    },
    {
      "anonymous": false,
      "inputs": [
        {
          "indexed": false,
          "internalType": "uint8",
          "name": "newPluginConfig",
          "type": "uint8"
        }
      ],
      "name": "PluginConfig",
      "type": "event"
    },
    {
      "anonymous": false,
      "inputs": [
        {
          "indexed": true,
          "internalType": "address",
          "name": "to",
          "type": "address"
        },
        {
          "indexed": false,
          "internalType": "uint256",
          "name": "amount0",
          "type": "uint256"
        },
        {
          "indexed": false,
          "internalType": "uint256",
          "name": "amount1",
          "type": "uint256"
        }
      ],
      "name": "Skim",
      "type": "event"
    },
    {
      "anonymous": false,
      "inputs": [
        {
          "indexed": true,
          "internalType": "address",
          "name": "sender",
          "type": "address"
        },
        {
          "indexed": true,
          "internalType": "address",
          "name": "recipient",
          "type": "address"
        },
        {
          "indexed": false,
          "internalType": "int256",
          "name": "amount0",
          "type": "int256"
        },
        {
          "indexed": false,
          "internalType": "int256",
          "name": "amount1",
          "type": "int256"
        },
        {
          "indexed": false,
          "internalType": "uint160",
          "name": "price",
          "type": "uint160"
        },
        {
          "indexed": false,
          "internalType": "uint128",
          "name": "liquidity",
          "type": "uint128"
        },
        {
          "indexed": false,
          "internalType": "int24",
          "name": "tick",
          "type": "int24"
        },
        {
          "indexed": false,
          "internalType": "uint24",
          "name": "overrideFee",
          "type": "uint24"
        },
        {
          "indexed": false,
          "internalType": "uint24",
          "name": "pluginFee",
          "type": "uint24"
        }
      ],
      "name": "Swap",
      "type": "event"
    },
    {
      "anonymous": false,
      "inputs": [
        {
          "indexed": false,
          "internalType": "int24",
          "name": "newTickSpacing",
          "type": "int24"
        }
      ],
      "name": "TickSpacing",
      "type": "event"
    },
    {
      "inputs": [
        {
          "internalType": "int24",
          "name": "bottomTick",
          "type": "int24"
        },
        {
          "internalType": "int24",
          "name": "topTick",
          "type": "int24"
        },
        {
          "internalType": "uint128",
          "name": "amount",
          "type": "uint128"
        },
        {
          "internalType": "bytes",
          "name": "data",
          "type": "bytes"
        }
      ],
      "name": "burn",
      "outputs": [
        {
          "internalType": "uint256",
          "name": "amount0",
          "type": "uint256"
        },
        {
          "internalType": "uint256",
          "name": "amount1",
          "type": "uint256"
        }
      ],
      "stateMutability": "nonpayable",
      "type": "function"
    },
    {
      "inputs": [
        {
          "internalType": "uint128",
          "name": "liquidityDelta",
          "type": "uint128"
        }
      ],
      "name": "burnLastMintedPosition",
      "outputs": [],
      "stateMutability": "nonpayable",
      "type": "function"
    },
    {
      "inputs": [
        {
          "internalType": "address",
          "name": "recipient",
          "type": "address"
        },
        {
          "internalType": "int24",
          "name": "bottomTick",
          "type": "int24"
        },
        {
          "internalType": "int24",
          "name": "topTick",
          "type": "int24"
        },
        {
          "internalType": "uint128",
          "name": "amount0Requested",
          "type": "uint128"
        },
        {
          "internalType": "uint128",
          "name": "amount1Requested",
          "type": "uint128"
        }
      ],
      "name": "collect",
      "outputs": [
        {
          "internalType": "uint128",
          "name": "amount0",
          "type": "uint128"
        },
        {
          "internalType": "uint128",
          "name": "amount1",
          "type": "uint128"
        }
      ],
      "stateMutability": "nonpayable",
      "type": "function"
    },
    {
      "inputs": [
        {
          "internalType": "uint128",
          "name": "amount0Requested",
          "type": "uint128"
        },
        {
          "internalType": "uint128",
          "name": "amount1Requested",
          "type": "uint128"
        }
      ],
      "name": "collectLastMintedPosition",
      "outputs": [],
      "stateMutability": "nonpayable",
      "type": "function"
    },
    {
      "inputs": [],
      "name": "communityVault",
      "outputs": [
        {
          "internalType": "address",
          "name": "",
          "type": "address"
        }
      ],
      "stateMutability": "view",
      "type": "function"
    },
    {
      "inputs": [
        {
          "internalType": "uint256",
          "name": "amount0",
          "type": "uint256"
        },
        {
          "internalType": "uint256",
          "name": "amount1",
          "type": "uint256"
        }
      ],
      "name": "donate",
      "outputs": [],
      "stateMutability": "nonpayable",
      "type": "function"
    },
    {
      "inputs": [],
      "name": "factory",
      "outputs": [
        {
          "internalType": "address",
          "name": "",
          "type": "address"
        }
      ],
      "stateMutability": "view",
      "type": "function"
    },
    {
      "inputs": [],
      "name": "fee",
      "outputs": [
        {
          "internalType": "uint16",
          "name": "currentFee",
          "type": "uint16"
        }
      ],
      "stateMutability": "view",
      "type": "function"
    },
    {
      "inputs": [
        {
          "internalType": "address",
          "name": "recipient",
          "type": "address"
        },
        {
          "internalType": "uint256",
          "name": "amount0",
          "type": "uint256"
        },
        {
          "internalType": "uint256",
          "name": "amount1",
          "type": "uint256"
        },
        {
          "internalType": "bytes",
          "name": "data",
          "type": "bytes"
        }
      ],
      "name": "flash",
      "outputs": [],
      "stateMutability": "nonpayable",
      "type": "function"
    },
    {
      "inputs": [
        {
          "internalType": "address",
          "name": "recipient",
          "type": "address"
        },
        {
          "internalType": "uint256",
          "name": "amount0",
          "type": "uint256"
        },
        {
          "internalType": "uint256",
          "name": "amount1",
          "type": "uint256"
        }
      ],
      "name": "flashWrapped",
      "outputs": [],
      "stateMutability": "nonpayable",
      "type": "function"
    },
    {
      "inputs": [],
      "name": "getCommunityFeePending",
      "outputs": [
        {
          "internalType": "uint128",
          "name": "",
          "type": "uint128"
        },
        {
          "internalType": "uint128",
          "name": "",
          "type": "uint128"
        }
      ],
      "stateMutability": "view",
      "type": "function"
    },
    {
      "inputs": [],
      "name": "getPluginFeePending",
      "outputs": [
        {
          "internalType": "uint128",
          "name": "",
          "type": "uint128"
        },
        {
          "internalType": "uint128",
          "name": "",
          "type": "uint128"
        }
      ],
      "stateMutability": "view",
      "type": "function"
    },
    {
      "inputs": [],
      "name": "getReserves",
      "outputs": [
        {
          "internalType": "uint128",
          "name": "",
          "type": "uint128"
        },
        {
          "internalType": "uint128",
          "name": "",
          "type": "uint128"
        }
      ],
      "stateMutability": "view",
      "type": "function"
    },
    {
      "inputs": [],
      "name": "globalState",
      "outputs": [
        {
          "internalType": "uint160",
          "name": "price",
          "type": "uint160"
        },
        {
          "internalType": "int24",
          "name": "tick",
          "type": "int24"
        },
        {
          "internalType": "uint16",
          "name": "lastFee",
          "type": "uint16"
        },
        {
          "internalType": "uint8",
          "name": "pluginConfig",
          "type": "uint8"
        },
        {
          "internalType": "uint16",
          "name": "communityFee",
          "type": "uint16"
        },
        {
          "internalType": "bool",
          "name": "unlocked",
          "type": "bool"
        }
      ],
      "stateMutability": "view",
      "type": "function"
    },
    {
      "inputs": [
        {
          "internalType": "bytes32",
          "name": "",
          "type": "bytes32"
        },
        {
          "internalType": "address",
          "name": "",
          "type": "address"
        }
      ],
      "name": "hasRoleOrOwner",
      "outputs": [
        {
          "internalType": "bool",
          "name": "",
          "type": "bool"
        }
      ],
      "stateMutability": "pure",
      "type": "function"
    },
    {
      "inputs": [
        {
          "internalType": "uint160",
          "name": "initialPrice",
          "type": "uint160"
        }
      ],
      "name": "initialize",
      "outputs": [],
      "stateMutability": "nonpayable",
      "type": "function"
    },
    {
      "inputs": [],
      "name": "isUnlocked",
      "outputs": [
        {
          "internalType": "bool",
          "name": "unlocked",
          "type": "bool"
        }
      ],
      "stateMutability": "view",
      "type": "function"
    },
    {
      "inputs": [],
      "name": "lastFeeTransferTimestamp",
      "outputs": [
        {
          "internalType": "uint32",
          "name": "",
          "type": "uint32"
        }
      ],
      "stateMutability": "view",
      "type": "function"
    },
    {
      "inputs": [],
      "name": "liquidity",
      "outputs": [
        {
          "internalType": "uint128",
          "name": "",
          "type": "uint128"
        }
      ],
      "stateMutability": "view",
      "type": "function"
    },
    {
      "inputs": [],
      "name": "maxLiquidityPerTick",
      "outputs": [
        {
          "internalType": "uint128",
          "name": "",
          "type": "uint128"
        }
      ],
      "stateMutability": "view",
      "type": "function"
    },
    {
      "inputs": [
        {
          "internalType": "address",
          "name": "leftoversRecipient",
          "type": "address"
        },
        {
          "internalType": "address",
          "name": "recipient",
          "type": "address"
        },
        {
          "internalType": "int24",
          "name": "bottomTick",
          "type": "int24"
        },
        {
          "internalType": "int24",
          "name": "topTick",
          "type": "int24"
        },
        {
          "internalType": "uint128",
          "name": "liquidityDesired",
          "type": "uint128"
        },
        {
          "internalType": "bytes",
          "name": "data",
          "type": "bytes"
        }
      ],
      "name": "mint",
      "outputs": [
        {
          "internalType": "uint256",
          "name": "amount0",
          "type": "uint256"
        },
        {
          "internalType": "uint256",
          "name": "amount1",
          "type": "uint256"
        },
        {
          "internalType": "uint128",
          "name": "liquidityActual",
          "type": "uint128"
        }
      ],
      "stateMutability": "nonpayable",
      "type": "function"
    },
    {
      "inputs": [
        {
          "internalType": "int24",
          "name": "tickDelta",
          "type": "int24"
        },
        {
          "internalType": "uint128",
          "name": "liquidityDesired",
          "type": "uint128"
        },
        {
          "internalType": "uint256",
          "name": "pay0",
          "type": "uint256"
        },
        {
          "internalType": "uint256",
          "name": "pay1",
          "type": "uint256"
        }
      ],
      "name": "mintAroundCurrentTickWrapped",
      "outputs": [],
      "stateMutability": "nonpayable",
      "type": "function"
    },
    {
      "inputs": [
        {
          "internalType": "int24",
          "name": "bottomTick",
          "type": "int24"
        },
        {
          "internalType": "int24",
          "name": "topTick",
          "type": "int24"
        },
        {
          "internalType": "uint128",
          "name": "liquidityDesired",
          "type": "uint128"
        },
        {
          "internalType": "uint256",
          "name": "pay0",
          "type": "uint256"
        },
        {
          "internalType": "uint256",
          "name": "pay1",
          "type": "uint256"
        }
      ],
      "name": "mintWrapped",
      "outputs": [],
      "stateMutability": "nonpayable",
      "type": "function"
    },
    {
      "inputs": [],
      "name": "nextTickGlobal",
      "outputs": [
        {
          "internalType": "int24",
          "name": "",
          "type": "int24"
        }
      ],
      "stateMutability": "view",
      "type": "function"
    },
    {
      "inputs": [],
      "name": "plugin",
      "outputs": [
        {
          "internalType": "address",
          "name": "",
          "type": "address"
        }
      ],
      "stateMutability": "view",
      "type": "function"
    },
    {
      "inputs": [
        {
          "internalType": "bytes32",
          "name": "",
          "type": "bytes32"
        }
      ],
      "name": "positions",
      "outputs": [
        {
          "internalType": "uint256",
          "name": "liquidity",
          "type": "uint256"
        },
        {
          "internalType": "uint256",
          "name": "innerFeeGrowth0Token",
          "type": "uint256"
        },
        {
          "internalType": "uint256",
          "name": "innerFeeGrowth1Token",
          "type": "uint256"
        },
        {
          "internalType": "uint128",
          "name": "fees0",
          "type": "uint128"
        },
        {
          "internalType": "uint128",
          "name": "fees1",
          "type": "uint128"
        }
      ],
      "stateMutability": "view",
      "type": "function"
    },
    {
      "inputs": [],
      "name": "prevTickGlobal",
      "outputs": [
        {
          "internalType": "int24",
          "name": "",
          "type": "int24"
        }
      ],
      "stateMutability": "view",
      "type": "function"
    },
    {
      "inputs": [],
      "name": "safelyGetStateOfAMM",
      "outputs": [
        {
          "internalType": "uint160",
          "name": "sqrtPrice",
          "type": "uint160"
        },
        {
          "internalType": "int24",
          "name": "tick",
          "type": "int24"
        },
        {
          "internalType": "uint16",
          "name": "lastFee",
          "type": "uint16"
        },
        {
          "internalType": "uint8",
          "name": "pluginConfig",
          "type": "uint8"
        },
        {
          "internalType": "uint128",
          "name": "activeLiquidity",
          "type": "uint128"
        },
        {
          "internalType": "int24",
          "name": "nextTick",
          "type": "int24"
        },
        {
          "internalType": "int24",
          "name": "previousTick",
          "type": "int24"
        }
      ],
      "stateMutability": "view",
      "type": "function"
    },
    {
      "inputs": [
        {
          "internalType": "uint16",
          "name": "newCommunityFee",
          "type": "uint16"
        }
      ],
      "name": "setCommunityFee",
      "outputs": [],
      "stateMutability": "nonpayable",
      "type": "function"
    },
    {
      "inputs": [
        {
          "internalType": "address",
          "name": "newCommunityVault",
          "type": "address"
        }
      ],
      "name": "setCommunityVault",
      "outputs": [],
      "stateMutability": "nonpayable",
      "type": "function"
    },
    {
      "inputs": [
        {
          "internalType": "uint16",
          "name": "newFee",
          "type": "uint16"
        }
      ],
      "name": "setFee",
      "outputs": [],
      "stateMutability": "nonpayable",
      "type": "function"
    },
    {
      "inputs": [
        {
          "internalType": "address",
          "name": "newPluginAddress",
          "type": "address"
        }
      ],
      "name": "setPlugin",
      "outputs": [],
      "stateMutability": "nonpayable",
      "type": "function"
    },
    {
      "inputs": [
        {
          "internalType": "uint8",
          "name": "newConfig",
          "type": "uint8"
        }
      ],
      "name": "setPluginConfig",
      "outputs": [],
      "stateMutability": "nonpayable",
      "type": "function"
    },
    {
      "inputs": [
        {
          "internalType": "int24",
          "name": "newTickSpacing",
          "type": "int24"
        }
      ],
      "name": "setTickSpacing",
      "outputs": [],
      "stateMutability": "nonpayable",
      "type": "function"
    },
    {
      "inputs": [],
      "name": "skim",
      "outputs": [],
      "stateMutability": "nonpayable",
      "type": "function"
    },
    {
      "inputs": [
        {
          "internalType": "address",
          "name": "recipient",
          "type": "address"
        },
        {
          "internalType": "bool",
          "name": "zeroToOne",
          "type": "bool"
        },
        {
          "internalType": "int256",
          "name": "amountRequired",
          "type": "int256"
        },
        {
          "internalType": "uint160",
          "name": "limitSqrtPrice",
          "type": "uint160"
        },
        {
          "internalType": "bytes",
          "name": "data",
          "type": "bytes"
        }
      ],
      "name": "swap",
      "outputs": [
        {
          "internalType": "int256",
          "name": "amount0",
          "type": "int256"
        },
        {
          "internalType": "int256",
          "name": "amount1",
          "type": "int256"
        }
      ],
      "stateMutability": "nonpayable",
      "type": "function"
    },
    {
      "inputs": [
        {
          "internalType": "address",
          "name": "leftoversRecipient",
          "type": "address"
        },
        {
          "internalType": "address",
          "name": "recipient",
          "type": "address"
        },
        {
          "internalType": "bool",
          "name": "zeroToOne",
          "type": "bool"
        },
        {
          "internalType": "int256",
          "name": "amountToSell",
          "type": "int256"
        },
        {
          "internalType": "uint160",
          "name": "limitSqrtPrice",
          "type": "uint160"
        },
        {
          "internalType": "bytes",
          "name": "data",
          "type": "bytes"
        }
      ],
      "name": "swapWithPaymentInAdvance",
      "outputs": [
        {
          "internalType": "int256",
          "name": "amount0",
          "type": "int256"
        },
        {
          "internalType": "int256",
          "name": "amount1",
          "type": "int256"
        }
      ],
      "stateMutability": "nonpayable",
      "type": "function"
    },
    {
      "inputs": [
        {
          "internalType": "bool",
          "name": "zeroToOne",
          "type": "bool"
        },
        {
          "internalType": "int256",
          "name": "amountRequired",
          "type": "int256"
        },
        {
          "internalType": "uint160",
          "name": "limitSqrtPrice",
          "type": "uint160"
        },
        {
          "internalType": "uint256",
          "name": "pay0",
          "type": "uint256"
        },
        {
          "internalType": "uint256",
          "name": "pay1",
          "type": "uint256"
        }
      ],
      "name": "swapWithPaymentInAdvanceWrapped",
      "outputs": [],
      "stateMutability": "nonpayable",
      "type": "function"
    },
    {
      "inputs": [],
      "name": "sync",
      "outputs": [],
      "stateMutability": "nonpayable",
      "type": "function"
    },
    {
      "inputs": [],
      "name": "tickSpacing",
      "outputs": [
        {
          "internalType": "int24",
          "name": "",
          "type": "int24"
        }
      ],
      "stateMutability": "view",
      "type": "function"
    },
    {
      "inputs": [
        {
          "internalType": "int16",
          "name": "",
          "type": "int16"
        }
      ],
      "name": "tickTable",
      "outputs": [
        {
          "internalType": "uint256",
          "name": "",
          "type": "uint256"
        }
      ],
      "stateMutability": "view",
      "type": "function"
    },
    {
      "inputs": [],
      "name": "tickTreeRoot",
      "outputs": [
        {
          "internalType": "uint32",
          "name": "",
          "type": "uint32"
        }
      ],
      "stateMutability": "view",
      "type": "function"
    },
    {
      "inputs": [
        {
          "internalType": "int16",
          "name": "",
          "type": "int16"
        }
      ],
      "name": "tickTreeSecondLayer",
      "outputs": [
        {
          "internalType": "uint256",
          "name": "",
          "type": "uint256"
        }
      ],
      "stateMutability": "view",
      "type": "function"
    },
    {
      "inputs": [
        {
          "internalType": "int24",
          "name": "",
          "type": "int24"
        }
      ],
      "name": "ticks",
      "outputs": [
        {
          "internalType": "uint256",
          "name": "liquidityTotal",
          "type": "uint256"
        },
        {
          "internalType": "int128",
          "name": "liquidityDelta",
          "type": "int128"
        },
        {
          "internalType": "int24",
          "name": "prevTick",
          "type": "int24"
        },
        {
          "internalType": "int24",
          "name": "nextTick",
          "type": "int24"
        },
        {
          "internalType": "uint256",
          "name": "outerFeeGrowth0Token",
          "type": "uint256"
        },
        {
          "internalType": "uint256",
          "name": "outerFeeGrowth1Token",
          "type": "uint256"
        }
      ],
      "stateMutability": "view",
      "type": "function"
    },
    {
      "inputs": [],
      "name": "token0",
      "outputs": [
        {
          "internalType": "address",
          "name": "",
          "type": "address"
        }
      ],
      "stateMutability": "view",
      "type": "function"
    },
    {
      "inputs": [],
      "name": "token1",
      "outputs": [
        {
          "internalType": "address",
          "name": "",
          "type": "address"
        }
      ],
      "stateMutability": "view",
      "type": "function"
    },
    {
      "inputs": [],
      "name": "totalFeeGrowth0Token",
      "outputs": [
        {
          "internalType": "uint256",
          "name": "",
          "type": "uint256"
        }
      ],
      "stateMutability": "view",
      "type": "function"
    },
    {
      "inputs": [],
      "name": "totalFeeGrowth1Token",
      "outputs": [
        {
          "internalType": "uint256",
          "name": "",
          "type": "uint256"
        }
      ],
      "stateMutability": "view",
      "type": "function"
    }
  ],
  "bytecode": "0x60e06040523480156200001157600080fd5b50600260c052600160a052306080526000620d89e7196200003281620001e4565b6009805462ffffff93841663010000000265ffffffffffff1990911693909216929092171790556002805460ff60e01b1916600160e01b1790556001600160a01b03811615620000875762000087816200009a565b50620000946003620000ee565b62000215565b600680546001600160a01b0319166001600160a01b0383169081179091556040519081527f27a3944eff2135a57675f17e72501038982b73620d01f794c72e93d61a3932a29060200160405180910390a150565b620d89e719620000fe81620001e4565b620d89e7196000818152602085905260409020600101805465ffffffffffff60801b1916600160981b62ffffff9485160262ffffff60801b191617600160801b9490931693909302919091179091556200015881620001e4565b8260006200016a620d89e719620001e4565b60020b60020b81526020019081526020016000206001016010846000620d89e7196200019690620001e4565b60020b81526020810191909152604001600020600101805462ffffff948516600160981b0262ffffff60981b1990911617905581549383166101009190910a90810292021990921617905550565b60008160020b627fffff1981036200020c57634e487b7160e01b600052601160045260246000fd5b60000392915050565b60805160a05160c05161640f620002d86000396000818161078301528181610b62015281816110ee01528181611432015281816118990152818161196601528181611d6301528181612ecb015281816136f801526150390152600081816103b601528181610bee015281816110aa015281816113ef015281816118d10152818161192e01528181611d1401528181612e730152818161303b015281816136aa01526150040152600081816107020152818161210f015261380b015261640f6000f3fe608060405234801561001057600080fd5b50600436106103205760003560e01c80639e922180116101a7578063d8544cf3116100ee578063ef01df4f11610097578063f3a016ab11610071578063f3a016ab1461095e578063f637731d14610971578063fff6cae91461098457600080fd5b8063ef01df4f146108af578063f085a610146108c2578063f30dba93146108d557600080fd5b8063e76c01e4116100c8578063e76c01e414610800578063e8ae2b6914610893578063ecdecf42146108a657600080fd5b8063d8544cf3146107b2578063d8619037146107c5578063ddca3f43146107e557600080fd5b8063c5390e2d11610150578063d0c93a7c1161012a578063d0c93a7c1461076a578063d21220a71461077e578063d5c35a7e146107a557600080fd5b8063c5390e2d14610724578063c677e3e014610737578063cc1f97cf1461075757600080fd5b8063b563f74211610181578063b563f742146106d7578063bca57f81146106ea578063c45a0155146106fd57600080fd5b80639e92218014610671578063a1eded8714610684578063aafe29c0146106a057600080fd5b8063514ea4bf1161026b5780637bd78025116102145780639734b577116101ee5780639734b577146105ed57806397ce1c51146106005780639e4e02271461065e57600080fd5b80637bd78025146105a05780638380edb7146105bc5780638e005553146105da57600080fd5b80636378ae44116102455780636378ae441461055d57806370cf754a1461057457806377f8c3a91461058957600080fd5b8063514ea4bf146104a157806353e978681461051e578063578b9a361461053157600080fd5b80631a686502116102cd5780633b3bc70e116102a75780633b3bc70e14610468578063490e6cbc1461047b5780634f1eb3d81461048e57600080fd5b80631a686502146104185780631dd19cb41461044d578063240a875a1461045557600080fd5b80630cdd53f6116102fe5780630cdd53f61461039e5780630dfe1681146103b1578063128acb08146103f057600080fd5b8063050a4d21146103255780630606e855146103515780630902f1ac14610366575b600080fd5b600954610339906301000000900460020b81565b60405160029190910b81526020015b60405180910390f35b61036461035f366004615a58565b61098c565b005b600c546001600160801b0380821691600160801b9004165b604080516001600160801b03938416815292909116602083015201610348565b6103646103ac366004615aaf565b610a81565b6103d87f000000000000000000000000000000000000000000000000000000000000000081565b6040516001600160a01b039091168152602001610348565b6104036103fe366004615b38565b610ab5565b60408051928352602083019190915201610348565b60095461043590660100000000000090046001600160801b031681565b6040516001600160801b039091168152602001610348565b610364610cbc565b610364610463366004615bcb565b610cef565b610403610476366004615be8565b610d6e565b610364610489366004615c60565b610f8b565b61037e61049c366004615cad565b611343565b6104ea6104af366004615d1a565b600b602052600090815260409020805460018201546002830154600390930154919290916001600160801b0380821691600160801b90041685565b604080519586526020860194909452928401919091526001600160801b03908116606084015216608082015260a001610348565b6007546103d8906001600160a01b031681565b60095461054890600160c81b900463ffffffff1681565b60405163ffffffff9091168152602001610348565b61056660005481565b604051908152602001610348565b6104356d09745258e83de0d0f4e400fce79981565b60045461054890600160d01b900463ffffffff1681565b6004546001600160681b0380821691600160681b90041661037e565b600254600160e01b900460ff165b6040519015158152602001610348565b6103646105e8366004615bcb565b61150f565b6103646105fb366004615d33565b6115af565b610608611647565b604080516001600160a01b039098168852600296870b602089015261ffff9095169487019490945260ff90921660608601526001600160801b03166080850152820b60a0840152900b60c082015260e001610348565b61040361066c366004615d68565b6116dd565b61036461067f366004615dfe565b611a05565b6005546001600160681b0380821691600160681b90041661037e565b6106b36106ae366004615e1b565b611aba565b6040805193845260208401929092526001600160801b031690820152606001610348565b6103646106e5366004615e7d565b611e6c565b6103646106f8366004615ec1565b611fe0565b6103d87f000000000000000000000000000000000000000000000000000000000000000081565b610364610732366004615ee4565b612033565b610566610745366004615f1c565b60086020526000908152604090205481565b610364610765366004615f3f565b6120d9565b60095461033990600160b01b900460020b81565b6103d87f000000000000000000000000000000000000000000000000000000000000000081565b6009546103399060020b81565b6103646107c0366004615f3f565b6120fc565b6105666107d3366004615f1c565b600a6020526000908152604090205481565b6107ed612177565b60405161ffff9091168152602001610348565b6002805461084b916001600160a01b03821691600160a01b810490910b9061ffff600160b81b820481169160ff600160c81b8204811692600160d01b83041691600160e01b90041686565b604080516001600160a01b03909716875260029590950b602087015261ffff9384169486019490945260ff9091166060850152166080830152151560a082015260c001610348565b6105ca6108a1366004615f5c565b61221b565b61056660015481565b6006546103d8906001600160a01b031681565b6103646108d0366004615f8c565b612224565b6109276108e3366004615f8c565b60036020819052600091825260409091208054600182015460028084015493909401549193600f82900b93600160801b8304820b93600160981b90930490910b9186565b60408051968752600f9590950b6020870152600293840b94860194909452910b6060840152608083015260a082015260c001610348565b61036461096c366004615fa7565b61228d565b61036461097f366004615f3f565b612343565b610364612542565b60006040518060400160405280848152602001838152506040516020016109b39190615fd5565b60408051601f19818403018152908290526302abf8a760e61b82529150309063aafe29c0906109f090339084908b908b908b908990600401616032565b6060604051808303816000875af1158015610a0f573d6000803e3d6000fd5b505050506040513d601f19601f82011682018060405250810190610a33919061608b565b505060408051808201909152600288810b825287900b6020909101525050600f805462ffffff95861663010000000265ffffffffffff19909116959096169490941794909417909255505050565b81600d6000828254610a9391906160da565b9250508190555080600e6000828254610aac91906160da565b90915550505050565b600080600080610acb8a8a8a8a60008b8b612574565b91509150610ad76126be565b6040805160608101825260008082526020808301829052828401829052835180850190945281845283015290610b1084848d8d8d6126f7565b6001600160801b03909116604088015260029190910b60208701526001600160a01b03909116855291975095509050600080610b4a612e1f565b915091508c15610be0576000871215610b8b57610b8b7f00000000000000000000000000000000000000000000000000000000000000008f89600003613039565b610b9788888c8c6130ab565b600d54610ba489846160da565b1115610bc357604051633ed6d50560e21b815260040160405180910390fd5b610bdb8888856000015160008760200151600061314b565b610c67565b6000881215610c1757610c177f00000000000000000000000000000000000000000000000000000000000000008f8a600003613039565b610c2388888c8c6130ab565b600e54610c3088836160da565b1115610c4f57604051633ed6d50560e21b815260040160405180910390fd5b610c678888600086600001516000886020015161314b565b610c838e89898760000151886040015189602001518c8c61348e565b50505050610c9f6002805460ff60e01b1916600160e01b179055565b610caf8a8a8a8a88888c8c613514565b5050965096945050505050565b610cc4613623565b610ccc6126be565b610cd53361364e565b610ced6002805460ff60e01b1916600160e01b179055565b565b610cf761379b565b610cff6137c5565b6103e861ffff82161180610d22575060025461ffff828116600160d01b90920416145b80610d44575061ffff811615801590610d4457506007546001600160a01b0316155b15610d625760405163a709b9af60e01b815260040160405180910390fd5b610d6b8161388b565b50565b6000808686610d7d82826138fc565b6f7fffffffffffffffffffffffffffffff6001600160801b0388161115610db757604051638995290f60e01b815260040160405180910390fd5b6000610dc2886160ed565b90506000610dd4338c8c858c8c61397e565b9050610dde6126be565b610de6612e1f565b50506000610df5338d8d613ad8565b9050610e03818d8d86613b04565b909750955062ffffff821615610e79576000808815610e3e57610e2f8962ffffff8616620f4240613c29565b9150610e3b828a61611c565b98505b8715610e6657610e578862ffffff8616620f4240613c29565b9050610e63818961611c565b97505b610e76600080600080868661314b565b50505b86861715610ede576003810154610e9a9088906001600160801b031661612f565b6003820154610eba908890600160801b90046001600160801b031661612f565b6001600160801b039182169116600160801b026001600160801b0319161760038201555b506001600160801b0389168617851715610f5557604080516001600160801b038b1681526020810188905280820187905262ffffff83166060820152905160028c810b92908e900b9133917f932214d4a69c27c086643126ed97c32681da179064c678836c173f99bd13ca01919081900360800190a45b610f6d6002805460ff60e01b1916600160e01b179055565b610f7d338c8c858a8a8e8e613cc2565b505050509550959350505050565b600254600160c81b900460101615611071576006546040516346f0547760e11b80825233600483018181526001600160a01b038a81166024860152604485018a90526064850189905260a06084860190815260a486018890526110719694959190941693638de0a8ee93928c928c928c928c928c929060c401848480828437600081840152601f19601f8201169050808301925050509750505050505050506020604051808303816000875af1158015611049573d6000803e3d6000fd5b505050506040513d602081101561105f57600080fd5b50516001600160e01b03191690613dd0565b6110796126be565b600080600080611087612e1f565b9092509050600088156110d0576110a3896064620f4240613e0d565b90506110d07f00000000000000000000000000000000000000000000000000000000000000008b8b613039565b60008815611114576110e7896064620f4240613e0d565b90506111147f00000000000000000000000000000000000000000000000000000000000000008c8b613039565b61112082828a8a613e8d565b600d5495508561113083866160da565b111561114f576040516336de50ff60e11b815260040160405180910390fd5b600e5494508461115f82856160da565b111561117e5760405163c998149f60e01b815260040160405180910390fd5b60025495849003959483900394600160d01b900461ffff1680156111de57600087156111b4576111b188836103e8613c29565b90505b600087156111cc576111c988846103e8613c29565b90505b6111db8282848460008061314b565b50505b604080518c8152602081018c90528082018990526060810188905290516001600160a01b038e169133917fbdbdb71d7860376ba52b25a5028beea23581364a40522f6bcfb86bb1f2dca6339181900360800190a3505050505061124f6002805460ff60e01b1916600160e01b179055565b600254600160c81b90046020161561133a5761133a63343d37ff60e01b600660009054906101000a90046001600160a01b03166001600160a01b031663343d37ff338b8b8b89898d8d6040518963ffffffff1660e01b815260040180896001600160a01b03168152602001886001600160a01b03168152602001878152602001868152602001858152602001848152602001806020018281038252848482818152602001925080828437600081840152601f19601f82011690508083019250505099505050505050505050506020604051808303816000875af1158015611049573d6000803e3d6000fd5b50505050505050565b60008061134e6126be565b600061135b338888613ad8565b60038101549091506001600160801b0380821691600160801b90048116908716821015611386578196505b806001600160801b0316866001600160801b031611156113a4578095505b6001600160801b0387871716156114ea576001600160801b0387830381168783038216600160801b026001600160801b03191617600385015587955086945085161561141e5761141e7f00000000000000000000000000000000000000000000000000000000000000008b876001600160801b0316613039565b6001600160801b03841615611461576114617f00000000000000000000000000000000000000000000000000000000000000008b866001600160801b0316613039565b611489856001600160801b0316600003856001600160801b031660000360008060008061314b565b604080516001600160a01b038c1681526001600160801b038088166020830152861681830152905160028a810b92908c900b9133917f70935338e69775456a85ddef226c395fb668b63fa0115f5f20610b388e6ca9c0919081900360600190a45b6115026002805460ff60e01b1916600160e01b179055565b5050509550959350505050565b600254600160c81b8104608016151590600160e01b900460ff1661154657604051636798480960e11b815260040160405180910390fd5b6006546001600160a01b0316330361157b578061157657604051633a4528ef60e01b815260040160405180910390fd5b6115a2565b801561159a576040516369cdc70760e11b815260040160405180910390fd5b6115a26137c5565b6115ab82613eee565b5050565b60006040518060400160405280848152602001838152506040516020016115d69190615fd5565b60408051601f19818403018152908290526312439b2f60e21b82529150309063490e6cbc9061160f908790879087908790600401616156565b600060405180830381600087803b15801561162957600080fd5b505af115801561163d573d6000803e3d6000fd5b5050505050505050565b600280546001600160a01b03811691600160a01b8204900b9061ffff600160b81b8204169060ff600160c81b820481169160009182918291600160e01b90910416806116a657604051636798480960e11b815260040160405180910390fd5b505060095495969495939492936001600160801b03660100000000000082041693600282810b9450630100000090920490910b9150565b6000806000861215611702576040516334cb3a0160e11b815260040160405180910390fd5b61170a6126be565b6000871561176557600061171d600d5490565b905061172c88600088886130ab565b6000611737600d5490565b905061174b611746838361611c565b613f58565b925061175e83600080600080600061314b565b50506117af565b6000611770600e5490565b905061177f60008988886130ab565b600061178a600e5490565b9050611799611746838361611c565b92506117ac60008460008060008061314b565b50505b8681146117ba578096505b50856000036117dc57604051633ed6d50560e21b815260040160405180910390fd5b6117f46002805460ff60e01b1916600160e01b179055565b6000806118078a8a8a8a60018b8b612574565b915091506118136126be565b61181b612e1f565b5050604080516060810182526000808252602080830182905282840182905283518085019094528184528301529061185684848d8d8d6126f7565b6001600160801b03909116604088015260029190910b60208701526001600160a01b039091168552919750955090508a156119205760008512156118c2576118c27f00000000000000000000000000000000000000000000000000000000000000008d87600003613039565b858a038a87146118f7576118f77f00000000000000000000000000000000000000000000000000000000000000008f83613039565b61191a61190382613f58565b60000387846000015160008660200151600061314b565b506119b1565b6000861215611957576119577f00000000000000000000000000000000000000000000000000000000000000008d88600003613039565b848a038a861461198c5761198c7f00000000000000000000000000000000000000000000000000000000000000008f83613039565b6119af8761199983613f58565b600003600085600001516000876020015161314b565b505b6119cd8c87878560000151866040015187602001518a8a61348e565b6119e56002805460ff60e01b1916600160e01b179055565b6119f58c8c8c8c8a8a8e8e613514565b5050505097509795505050505050565b600f5463010000008104600290810b91900b03611a2157600080fd5b600f54604051631d9de38760e11b8152600282810b6004830152630100000090920490910b60248201526001600160801b038216604482015260806064820152600060848201523090633b3bc70e9060a40160408051808303816000875af1158015611a91573d6000803e3d6000fd5b505050506040513d601f19601f82011682018060405250810190611ab59190616184565b505050565b60008060008787611acb82826138fc565b876001600160801b0316600003611af55760405163e6ace6df60e01b815260040160405180910390fd5b611b148b8b8b611b0d8c6001600160801b0316613f6c565b8b8b61397e565b50611b1d6126be565b60028054600160a01b810490910b906001600160a01b03166000819003611b575760405163812eb65560e01b815260040160405180910390fd5b600954600160b01b9004600290810b9081908d900b81611b7957611b796161a8565b078160020b8e60020b81611b8f57611b8f6161a8565b071760020b15611bb257604051635f6e14f360e01b815260040160405180910390fd5b50611bd18c8c611bca8d6001600160801b0316613f6c565b8585613f7f565b50909750955060009150819050611be6612e1f565b91509150611bf687878b8b61402e565b8615611c155781611c06600d5490565b611c10919061611c565b611c18565b60005b91508515611c395780611c2a600e5490565b611c34919061611c565b611c3c565b60005b905086821015611c6157611c5a8a6001600160801b03168389613c29565b9450611c65565b8994505b85811015611ca5576000611c838b6001600160801b03168389613c29565b9050856001600160801b0316816001600160801b03161015611ca3578095505b505b846001600160801b0316600003611ccf57604051632fae8a9b60e21b815260040160405180910390fd5b6000611cdc8e8e8e613ad8565b9050611cfb818e8e611cf68a6001600160801b0316613f6c565b613b04565b9098509650508615611d505786821115611d4157611d3c7f00000000000000000000000000000000000000000000000000000000000000008f898503613039565b611d50565b868214611d5057611d506161be565b8515611d9f5785811115611d9057611d8b7f00000000000000000000000000000000000000000000000000000000000000008f888403613039565b611d9f565b858114611d9f57611d9f6161be565b611daf878760008060008061314b565b8a60020b8c60020b8e6001600160a01b03167f7a53080ba414158be7ec69b987b5fb7d07dee101fe85488f0853ae16239d0bde33898c8c60405180856001600160a01b03168152602001846001600160801b0316815260200183815260200182815260200194505050505060405180910390a4611e3a6002805460ff60e01b1916600160e01b179055565b611e5b8d8d8d611e52896001600160801b0316613f6c565b8b8b8f8f613cc2565b505050509750975097945050505050565b60008460020b1215611e8457611e81846161d4565b93505b611e91620d89e7196161d4565b611e9c9060026161ed565b60020b8460020b1315611ec457611eb6620d89e7196161d4565b611ec19060026161ed565b93505b60028054600160a01b9004900b6000611edd868361620d565b90506000611eeb8784616232565b90506000604051806040016040528087815260200186815250604051602001611f149190615fd5565b60408051601f19818403018152908290526302abf8a760e61b82529150309063aafe29c090611f519033908490889088908e908990600401616032565b6060604051808303816000875af1158015611f70573d6000803e3d6000fd5b505050506040513d601f19601f82011682018060405250810190611f94919061608b565b505060408051808201909152600285810b825284900b6020909101525050600f805462ffffff93841665ffffffffffff1990911617630100000093909216929092021790555050505050565b611fe861379b565b6006546001600160a01b03168061201257604051639e727ce360e01b815260040160405180910390fd5b336001600160a01b0382161461202a5761202a6137c5565b6115ab8261406d565b600060405180604001604052808481526020018381525060405160200161205a9190615fd5565b60408051601f1981840301815290829052639e4e022760e01b825291503090639e4e02279061209790839081908b908b908b908990600401616257565b60408051808303816000875af11580156120b5573d6000803e3d6000fd5b505050506040513d601f19601f8201168201806040525081019061163d9190616184565b6120e161379b565b6120e96137c5565b6120f3600061406d565b610d6b816140d6565b61210461379b565b336001600160a01b037f0000000000000000000000000000000000000000000000000000000000000000161461213c5761213c6137c5565b6001600160a01b03811615801561215f5750600254600160d01b900461ffff1615155b1561216e5761216e600061388b565b610d6b81614131565b600254600160b81b810461ffff1690600160c81b900460ff8116906080161561221757600660009054906101000a90046001600160a01b03166001600160a01b031663f70d93626040518163ffffffff1660e01b8152600401602060405180830381865afa1580156121ed573d6000803e3d6000fd5b505050506040513d601f19601f820116820180604052508101906122119190616299565b91505090565b5090565b60015b92915050565b61222c61379b565b6122346137c5565b60008160020b13158061224c57506101f4600282900b135b806122665750600954600282810b600160b01b909204900b145b1561228457604051632bf827d160e21b815260040160405180910390fd5b610d6b8161418c565b600f5463010000008104600290810b91900b036122a957600080fd5b600f546040516309e3d67b60e31b81523060048201819052600283810b6024840152630100000090930490920b60448201526001600160801b03808516606483015283166084820152634f1eb3d89060a40160408051808303816000875af1158015612319573d6000803e3d6000fd5b505050506040513d601f19601f8201168201806040525081019061233d91906162b6565b50505050565b600061234e826141f5565b6002549091506001600160a01b03161561237b57604051631499a6b760e21b815260040160405180910390fd5b600280546001600160a01b03841676ffffffffffffffffffffffffffffffffffffffffffffff199091168117600160a01b62ffffff851602178255604080519182529183900b602082015281517f98636036cb66a9c19a37435efc1e90142190214e8abeb821bdba3f2990dd4c95929181900390910190a16006546001600160a01b03161561246457600654604080516318dbf60160e21b8082523360048301526001600160a01b03868116602484015292516124649491939091169163636fd80491604480830192602092919082900301816000875af1158015611049573d6000803e3d6000fd5b60006001606461247381613eee565b61247c8261418c565b61ffff83161580159061249857506007546001600160a01b0316155b156124b65760405163a709b9af60e01b815260040160405180910390fd5b6124bf8361388b565b600254600160c81b90046040161561253b576006546040805163416eb29160e11b8082523360048301526001600160a01b038981166024840152600289900b6044840152925161253b949193909116916382dd652291606480830192602092919082900301816000875af1158015611049573d6000803e3d6000fd5b5050505050565b61254a613623565b6125526126be565b61255a612e1f565b5050610ced6002805460ff60e01b1916600160e01b179055565b6002546000908190600160c81b9004600116156126b2576006546001600160a01b031633036125a8575060009050806126b2565b60065460405163029c1cb760e01b815233600482018181526001600160a01b038d811660248501528c15156044850152606484018c90528a8116608485015289151560a485015260e060c4850190815260e48501899052600095919091169363029c1cb793928f928f928f928f928f928f928f92909161010401848480828437600081840152601f19601f82011690508083019250505099505050505050505050506060604051808303816000875af1158015612669573d6000803e3d6000fd5b505050506040513d606081101561267f57600080fd5b508051602082015160409092015191945090925090506126b06001600160e01b0319821663029c1cb760e01b613dd0565b505b97509795505050505050565b600254600160e01b900460ff166126e857604051636798480960e11b815260040160405180910390fd5b6002805460ff60e01b19169055565b600080600080600061271c604051806040016040528060008152602001600081525090565b8760000361273d576040516301e76e6160e61b815260040160405180910390fd5b600160ff1b8803612761576040516334cb3a0160e11b815260040160405180910390fd5b6040805161016081018252600060208201819052606082018190526080820181905260a0820181905262ffffff8d16610140830152808b1360c08301529181018a9052600954600281810b61012084015263010000008204810b610100840152805461ffff600160d01b820481168552600160b81b82041660e08501526001600160a01b0381169850600160a01b9004900b9550660100000000000090046001600160801b031693509085900361282b5760405163812eb65560e01b815260040160405180910390fd5b62ffffff8c1615612873576128408b8d6162e5565b62ffffff1660e08201819052620f42401161286e576040516315b2afa960e01b815260040160405180910390fd5b6128c5565b62ffffff8b16156128c5578a8160e00181815161289091906162e5565b62ffffff90811690915260e0830151620f424091161090506128c5576040516315b2afa960e01b815260040160405180910390fd5b891561292557846001600160a01b0316886001600160a01b03161015806128fa57506401000276a36001600160a01b03891611155b1561291857604051631662672360e01b815260040160405180910390fd5b600054608082015261298a565b846001600160a01b0316886001600160a01b0316111580612963575073fffd8963efd1fc6a506488495d951d5263988d266001600160a01b03891610155b1561298157604051631662672360e01b815260040160405180910390fd5b60015460808201525b6129bc6040518060a0016040528060008152602001600081526020016000815260200160008152602001600081525090565b60008b6129ce578261012001516129d5565b8261010001515b6001600160a01b038816835290506129ec81614508565b6001600160a01b0390811660208401819052612a29918e918a918e161182151514612a1b578460200151612a1d565b8c5b888f8860e001516147e3565b60808601526060850152604084015260c084015190975015612a8157612a588260800151836040015101613f58565b8b039a50612a77612a6c8360600151613f58565b6060850151906149b1565b6060840152612ab9565b612a8e8260600151613f58565b8b019a50612ab3612aa88360800151846040015101613f58565b6060850151906149c7565b60608401525b600083610140015162ffffff16118015612adc575060008360e0015162ffffff16115b15612b1d576000612b05836080015185610140015162ffffff168660e0015162ffffff16613c29565b60808401805182900390526020860180519091019052505b825115612b5f57825160808301516000916103e891612b3b916149dd565b81612b4857612b486161a8565b608085018051929091049182900390528551018552505b6001600160801b03851615612b9657612b8a8260800151600160801b876001600160801b0316613c29565b60808401805190910190525b8160200151876001600160a01b031603612cb2578260200151612bd157600160208401528b612bc757600054612bcb565b6001545b60a08401525b60008c15612c405750608083015160a0840151600283810b600081815260036020819052604082209081018054828601805490980390975595909403909455600190920154600160801b810490910b61010087015261012086019190915260001983019750600f0b9003612ca0565b5060a08301516080840151600283810b60008181526003602081905260409091209081018054828501805490970390965594909303909355600190910154600160981b810490910b6101208601526101008501919091529095508590600f0b5b612caa8682614a07565b955050612cd4565b81516001600160a01b03881614612cd457612ccc876141f5565b955050612cfb565b508915801590612cf65750886001600160a01b0316866001600160a01b031614155b6129bc575b60008a83604001510390508260c0015115158c151514612d2057826060015181612d27565b8083606001515b6002805476ffffffffffffffffffffffffffffffffffffffffffffff1916600160a01b62ffffff8b160273ffffffffffffffffffffffffffffffffffffffff1916176001600160a01b038b161790556020850151919a509850159050612df4576101008201516101208301516009805462ffffff92831665ffffffffffff199091161763010000009290931691909102919091177fffffffffffffffffffff00000000000000000000000000000000ffffffffffff1666010000000000006001600160801b038716021790555b8a15612e07576080820151600055612e10565b60808201516001555b50509550955095509550955095565b600080612e2b600d5490565b600e5490925090506001600160801b03821180612e4e57506001600160801b0381115b15612f11576007546001600160a01b03166001600160801b03831115612eb757612eac7f0000000000000000000000000000000000000000000000000000000000000000826ffffffffffffffffffffffffffffffffe198601613039565b6001600160801b0392505b6001600160801b03821115612f0f57612f047f0000000000000000000000000000000000000000000000000000000000000000826ffffffffffffffffffffffffffffffffe198501613039565b6001600160801b0391505b505b600954660100000000000090046001600160801b03166000819003612f3557509091565b600c546001600160801b0380821691600160801b9004168185118185118180612f5b5750805b15613030578115612f9357612f89846001600160801b03168803600160801b876001600160801b0316613c29565b6000805490910190555b8015612fc657612fbc836001600160801b03168703600160801b876001600160801b0316613c29565b6001805490910190555b604080516001600160801b038087168a0382528516880360208201527fef10ebb00f0dbc72ad4602e94abbbda6f3d40632714f70e9c8fa30d5d44289c9910160405180910390a16001600160801b03808816908716600160801b026001600160801b03191617600c555b50505050509091565b7f00000000000000000000000000000000000000000000000000000000000000006001600160a01b0316836001600160a01b03160361308f5780600d6000828254613084919061611c565b90915550611ab59050565b80600e60008282546130a1919061611c565b9091555050505050565b80156130ff5760006130bf8284018461635e565b90508060000151600d60008282546130d791906160da565b90915550506020810151600e80546000906130f39084906160da565b9091555061233d915050565b60008413156131255783600d600082825461311a91906160da565b9091555061233d9050565b600083131561233d5782600e600082825461314091906160da565b909155505050505050565b600084118061315a5750600083115b806131655750600082115b806131705750600081115b156134025760048054600790600160d01b900463ffffffff1660008080808061319c8c8c888a8c614a81565b93509350935093508082176000146131e2576131b782613f58565b6131c1908f61637a565b6131ca82613f58565b6131d4908f61637a565b909e509c5060019450613248565b6001600160681b03848417161561324857600480547fffffffffffff000000000000000000000000000000000000000000000000000016600160681b6001600160681b03868116919091026cffffffffffffffffffffffffff1916919091179086161790555b60059750600696506132638a8a8863ffffffff168a8c614a81565b92965090945092509050818117156133565761327e82613f58565b613288908f61637a565b61329182613f58565b61329b908f61637a565b809e50819f5050506001945061335163aa6b14bb60e01b600660009054906101000a90046001600160a01b03166001600160a01b031663aa6b14bb85856040518363ffffffff1660e01b81526004016132fe929190918252602082015260400190565b6020604051808303816000875af115801561331d573d6000803e3d6000fd5b505050506040513d601f19601f82011682018060405250810190613341919061639a565b6001600160e01b03191690613dd0565b6133bc565b6001600160681b0384841716156133bc57600580547fffffffffffff000000000000000000000000000000000000000000000000000016600160681b6001600160681b03868116919091026cffffffffffffffffffffffffff1916919091179086161790555b84156133f957600480547fffff00000000ffffffffffffffffffffffffffffffffffffffffffffffffffff16600160d01b4263ffffffff16021790555b50505050505050505b8585171561348657600c546001600160801b0380821691600160801b90041687156134455761343961343489846163c4565b614b8d565b6001600160801b031691505b86156134645761345861343488836163c4565b6001600160801b031690505b6001600160801b039182169116600160801b026001600160801b03191617600c555b505050505050565b60408051888152602081018890526001600160a01b03878116828401526001600160801b0387166060830152600286900b608083015262ffffff80861660a0840152841660c08301529151918a169133917f121cb44ee54098b1a04743c487e7460d8dd429b27f88b1f4d4767396e1a59f79919081900360e00190a35050505050505050565b60028054600160c81b9004161561163d576006546001600160a01b0316331461163d5761163d639cb5a96360e01b600660009054906101000a90046001600160a01b03166001600160a01b0316639cb5a963338c8c8c8c8c8c8c8c6040518a63ffffffff1660e01b8152600401808a6001600160a01b03168152602001896001600160a01b031681526020018815158152602001878152602001866001600160a01b03168152602001858152602001848152602001806020018281038252848482818152602001925080828437600081840152601f19601f8201169050808301925050509a50505050505050505050506020604051808303816000875af1158015611049573d6000803e3d6000fd5b6006546001600160a01b03163314610ced57604051634994c26960e11b815260040160405180910390fd5b60008061365a600d5490565b600e54600c5491935091506001600160801b0380821691600160801b9004168184118061368f5750806001600160801b031683115b1561253b57816001600160801b03168411156136e2576136e27f0000000000000000000000000000000000000000000000000000000000000000866136dd6001600160801b0386168861611c565b613039565b806001600160801b031683111561372b5761372b7f0000000000000000000000000000000000000000000000000000000000000000866136dd6001600160801b0385168761611c565b6001600160a01b0385167fb94331e4420f16b156f53c397a8adcd09481283ee7830f7b688b22858e9db80b6137696001600160801b0385168761611c565b61377c6001600160801b0385168761611c565b6040805192835260208301919091520160405180910390a25050505050565b600254600160e01b900460ff16610ced57604051636798480960e11b815260040160405180910390fd5b6040805163e8ae2b6960e01b81527fb73ce166ead2f8e9add217713a7989e4edfba9625f71dfd2516204bb67ad3442600482015233602482015290516001600160a01b037f0000000000000000000000000000000000000000000000000000000000000000169163e8ae2b699160448083019260209291908290030181865afa158015613856573d6000803e3d6000fd5b505050506040513d602081101561386c57600080fd5b5051610ced57604051634994c26960e11b815260040160405180910390fd5b600280547fffffffff0000ffffffffffffffffffffffffffffffffffffffffffffffffffff16600160d01b61ffff8416908102919091179091556040519081527f3647dccc990d4941b0b05b32527ef493a98d6187b20639ca2f9743f3b55ca5e1906020015b60405180910390a150565b613909620d89e7196161d4565b60020b8160020b131561392f57604051631445443d60e01b815260040160405180910390fd5b8160020b8160020b136139555760405163d9a841a760e01b815260040160405180910390fd5b620d89e719600283900b12156115ab57604051631d1ac7f160e21b815260040160405180910390fd5b600254600090600160c81b900460041615613ace576006546001600160a01b031633036139ad57506000613ace565b600654604051632f1208d960e11b815233600482018181526001600160a01b038b8116602485015260028b810b60448601528a900b6064850152600f89900b608485015260c060a4850190815260c485018890526000959190911693635e2411b293928d928d928d928d928d928d92919060e401848480828437600081840152601f19601f8201169050808301925050509850505050505050505060408051808303816000875af1158015613a66573d6000803e3d6000fd5b505050506040513d6040811015613a7c57600080fd5b50805160209091015192509050620f424062ffffff831610613ab1576040516315b2afa960e01b815260040160405180910390fd5b613acc6001600160e01b03198216632f1208d960e11b613dd0565b505b9695505050505050565b62ffffff818116908316601885811b91909117901b176000908152600b602052604090205b9392505050565b6002805460008054600154919384936001600160a01b03811693600160a01b90910490910b918491829190600f89900b15613b6057613b4a60038c878c86866000614ba3565b9350613b5d60038b878c86866001614ba3565b92505b600080613b7260038e8e8a8888614c94565b91509150613b828e8c8484614d31565b5050505086600f0b600014613c1c578180613b9a5750805b15613bb357613bb3898984848760008d600f0b12614e26565b6000613bc28a8a8a8789613f7f565b91985096509050600f81900b15613c1a57600954613bf390660100000000000090046001600160801b031689614a07565b600960066101000a8154816001600160801b0302191690836001600160801b031602179055505b505b5050505094509492505050565b60008383028160001985870982811083820303915050808411613c4b57600080fd5b80600003613c5e57508290049050613afd565b8385870960008581038616958690049560026003880281188089028203028089028203028089028203028089028203028089028203028089029091030291819003819004600101858411909403939093029190930391909104170290509392505050565b6006546001600160a01b0316331461163d57600254600160c81b90046008161561163d5761163d63d685201060e01b600660009054906101000a90046001600160a01b03166001600160a01b031663d6852010338c8c8c8c8c8c8c8c6040518a63ffffffff1660e01b8152600401808a6001600160a01b03168152602001896001600160a01b031681526020018860020b81526020018760020b815260200186600f0b8152602001858152602001848152602001806020018281038252848482818152602001925080828437600081840152601f19601f8201169050808301925050509a50505050505050505050506020604051808303816000875af1158015611049573d6000803e3d6000fd5b6001600160e01b0319828116908216146115ab5760405163d3f5153b60e01b81526001600160e01b03198216600482015260240160405180910390fd5b6000831580613e2e57505082820282848281613e2b57613e2b6161a8565b04145b15613e4f5760008211613e4057600080fd5b81810490829006151501613afd565b613e5a848484613c29565b905060008280613e6c57613e6c6161a8565b8486091115613afd576000198110613e8357600080fd5b6001019392505050565b6000613e9b8284018461635e565b8051909150613eab9086906160da565b600d6000828254613ebc91906160da565b90915550506020810151613ed19085906160da565b600e6000828254613ee291906160da565b90915550505050505050565b600280547fffffffffffffff0000ffffffffffffffffffffffffffffffffffffffffffffff16600160b81b61ffff8416908102919091179091556040519081527f598b9f043c813aa6be3426ca60d1c65d17256312890be5118dab55b0775ebe2a906020016138f1565b806000811215613f6757600080fd5b919050565b806000600f82900b1215613f6757600080fd5b600080600080613f8e89614508565b90506000613f9b89614508565b90506000808b60020b8960020b1215613fc057613fb984848c614f1f565b9150613ffe565b8a60020b8960020b1215613ff057613fd988848c614f1f565b9150613fe684898c614f5f565b9050899450613ffe565b613ffb84848c614f5f565b90505b60008a600f0b12614010578181614019565b81600003816000035b909d909c50949a509398505050505050505050565b80156140425760006130bf8284018461635e565b83600d600082825461405491906160da565b9250508190555082600e600082825461314091906160da565b600280547fffffffffffff00ffffffffffffffffffffffffffffffffffffffffffffffffff16600160c81b60ff8416908102919091179091556040519081527f3a6271b36c1b44bd6a0a0d56230602dc6919b7c17af57254306fadf5fee69dc3906020016138f1565b6006805473ffffffffffffffffffffffffffffffffffffffff19166001600160a01b0383169081179091556040519081527f27a3944eff2135a57675f17e72501038982b73620d01f794c72e93d61a3932a2906020016138f1565b6007805473ffffffffffffffffffffffffffffffffffffffff19166001600160a01b0383169081179091556040519081527fb0b573c1f636e1f8bd9b415ba6c04d6dd49100bc25493fc6305b65ec0e581df3906020016138f1565b600980547fffffffffffffff000000ffffffffffffffffffffffffffffffffffffffffffff16600160b01b62ffffff841602179055604051600282900b81527f01413b1d5d4c359e9a0daa7909ecda165f6e8c51fe2ff529d74b22a5a7c02645906020016138f1565b60006401000276a36001600160a01b0383161080614230575073fffd8963efd1fc6a506488495d951d5263988d266001600160a01b03831610155b1561424e576040516355cf1e2360e01b815260040160405180910390fd5b77ffffffffffffffffffffffffffffffffffffffff00000000602083901b166001600160801b03811160071b81811c67ffffffffffffffff811160061b90811c63ffffffff811160051b90811c61ffff811160041b90811c60ff8111600390811b91821c600f811160021b90811c918211600190811b92831c979088119617909417909217179091171717608081106142ef57607f810383901c91506142f9565b80607f0383901b91505b908002607f81811c60ff83811c9190911c800280831c81831c1c800280841c81841c1c800280851c81851c1c800280861c81861c1c800280871c81871c1c800280881c81881c1c800280891c81891c1c8002808a1c818a1c1c8002808b1c818b1c1c8002808c1c818c1c1c8002808d1c818d1c1c8002808e1c9c81901c9c909c1c80029c8d901c9e9d607f198f0160401b60c09190911c678000000000000000161760c19b909b1c674000000000000000169a909a1760c29990991c672000000000000000169890981760c39790971c671000000000000000169690961760c49590951c670800000000000000169490941760c59390931c670400000000000000169290921760c69190911c670200000000000000161760c79190911c670100000000000000161760c89190911c6680000000000000161760c99190911c6640000000000000161760ca9190911c6620000000000000161760cb9190911c6610000000000000161760cc9190911c6608000000000000161760cd9190911c66040000000000001617693627a301d71055774c8581026f028f6481ab7f045a5af012a19d003aa9198101608090811d906fdb2df09e81959a81455e260799a0632f8301901d600281810b9083900b146144f957886001600160a01b03166144de82614508565b6001600160a01b031611156144f357816144fb565b806144fb565b815b9998505050505050505050565b6000600282900b60171d62ffffff818401821816620d89e881111561454057604051633c10250f60e01b815260040160405180910390fd5b600160801b600182161561456157506ffffcb933bd6fad37aa2d162d1a5940015b6002821615614580576ffff97272373d413259a46990580e213a0260801c5b600482161561459f576ffff2e50f5f656932ef12357cf3c7fdcc0260801c5b60088216156145be576fffe5caca7e10e4e61c3624eaa0941cd00260801c5b60108216156145dd576fffcb9843d60f6159c9db58835c9266440260801c5b60208216156145fc576fff973b41fa98c081472e6896dfb254c00260801c5b604082161561461b576fff2ea16466c96a3843ec78b326b528610260801c5b608082161561463a576ffe5dee046a99a2a811c461f1969c30530260801c5b61010082161561465a576ffcbe86c7900a88aedcffc83b479aa3a40260801c5b61020082161561467a576ff987a7253ac413176f2b074cf7815e540260801c5b61040082161561469a576ff3392b0822b70005940c7a398e4b70f30260801c5b6108008216156146ba576fe7159475a2c29b7443b29c7fa6e889d90260801c5b6110008216156146da576fd097f3bdfd2022b8845ad8f792aa58250260801c5b6120008216156146fa576fa9f746462d870fdf8a65dc1f90e061e50260801c5b61400082161561471a576f70d869a156d2a1b890bb3df62baf32f70260801c5b61800082161561473a576f31be135f97d08fd981231505542fcfa60260801c5b6201000082161561475b576f09aa508b5b7a84e1c677de54f3e99bc90260801c5b6202000082161561477b576e5d6af8dedb81196699c329225ee6040260801c5b6204000082106147c157620400008216156147a4576d2216e584f5fa1ea926041bedfe980260801c5b620800008216156147c1576b048a170391f7dc42444e8fa20260801c5b60008560020b13156147d257600019045b63ffffffff0160201c949350505050565b600080600080615a298a6147f957614f8f6147fd565b614f9e5b9050600087126148d15760006148268888620f42400362ffffff16620f424062ffffff16613c29565b90506148378a8c8b8563ffffffff16565b94508481106148645789955061485d858862ffffff1689620f42400362ffffff16613e0d565b92506148aa565b6148708b8a838f614fad565b9550856001600160a01b03168a6001600160a01b031603614893576148936161be565b6148a2868c8b8563ffffffff16565b945084880392505b6148c9868c8b8f6148bd57614fc66148c1565b614fd55b63ffffffff16565b9350506149a3565b615a298b6148e157614fc66148e5565b614fd55b90506148f68a8c8b8463ffffffff16565b93508760000397506000881215614920576040516334cb3a0160e11b815260040160405180910390fd5b83881061492f57899550614974565b61493b8b8a8a8f614fe4565b9550856001600160a01b03168a6001600160a01b03161461496857614965868c8b8463ffffffff16565b93505b87841115614974578793505b614983868c8b8563ffffffff16565b945061499f858862ffffff1689620f42400362ffffff16613e0d565b9250505b509650965096509692505050565b8082038281131560008312151461221e57600080fd5b8181018281121560008312151461221e57600080fd5b60008215806149fe575050818102818382816149fb576149fb6161a8565b04145b61221e57600080fd5b60008082600f0b1215614a4957508082016001600160801b0380841690821610614a44576040516302603ee960e31b815260040160405180910390fd5b61221e565b826001600160801b03168284019150816001600160801b0316101561221e57604051634cba017960e11b815260040160405180910390fd5b600080808088881715614b2f5784546001600160681b038082169160681c16614aaa8b836160da565b9150614ab68a826160da565b9050617080614acb8a63ffffffff421661611c565b101580614ade57506001600160681b0382115b80614aef57506001600160681b0381115b15614b1e578754600080614b04858585614ff4565b6000808d559a508a99509097509550614b81945050505050565b909450925060009150819050614b81565b617080614b428863ffffffff421661611c565b10614b745784546001600160681b038082169160681c1680821715614b71578754600080614b04858585614ff4565b50505b5060009250829150819050805b95509550955095915050565b806001600160801b0381168114613f6757600080fd5b600286900b6000908152602088905260408120805482614bc38289614a07565b6001600160801b031690506d09745258e83de0d0f4e400fce799811115614bfd576040516312dc1b2560e11b815260040160405180910390fd5b6001830154600f0b85614c215788600f0b81600f0b614c1c91906163c4565b614c33565b88600f0b81600f0b614c33919061637a565b6001850180546001600160801b0319166001600160801b0392909216919091179055818455811594506000839003614c8557841594508960020b8b60020b13614c855760038401879055600284018890555b50505050979650505050505050565b600285810b60009081526020889052604080822087840b8084529183209293849391929088900b1215614d0a578860020b8760020b12614ce557816002015486039350816003015485039250614cf4565b81600201549350816003015492505b6002810154600382015494039390920391610caf565b81600201548160020154039350816003015481600301540392505050965096945050505050565b8354600f84900b600003614d5b57806001600160801b0316600003614d56575061233d565b614d71565b614d658185614a07565b6001600160801b031685555b600185015460028601546000858314614da85760018801869055614da58387036001600160801b038616600160801b613c29565b90505b6000858314614dd55760028901869055614dd28387036001600160801b038716600160801b613c29565b90505b6001600160801b038282171615614e1b57600389018054600160801b6001600160801b03808316860181166001600160801b031990931683178290048116850116021790555b505050505050505050565b60095463010000008104600290810b919081900b90600160c81b900463ffffffff168282828915614e6757614e5f8c898386868c61506e565b919450925090505b8815614e8357614e7b8b898386868c61506e565b919450925090505b8260020b8660020b141580614e9e57508160020b8560020b14155b80614eb557508363ffffffff168163ffffffff1614155b15614f11576009805462ffffff80861663010000000265ffffffffffff1963ffffffff8616600160c81b02167fffffff00000000ffffffffffffffffffffffffffffffffffffff00000000000090931692909217908516171790555b505050505050505050505050565b60008082600f0b1215614f4757614f3f6117468585856000036000615163565b600003614f57565b614f576117468585856001615163565b949350505050565b60008082600f0b1215614f7f57614f3f6117468585856000036000615210565b614f576117468585856001615210565b6000614f578385846001615210565b6000614f578484846001615163565b6000614fbd858585856001615277565b95945050505050565b6000614f578385846000615163565b6000614f578484846000615210565b6000614fbd858585856000615277565b6000808080861561502e5761502a7f00000000000000000000000000000000000000000000000000000000000000008689613039565b8691505b85156150625761505f7f00000000000000000000000000000000000000000000000000000000000000008688613039565b50845b90969095509350505050565b600080600083156150b85760008061508760038c6154a7565b915091508a60020b8860020b036150a0578197506150b1565b8a60020b8760020b036150b1578096505b5050615141565b6000808a60020b8860020b1280156150d557508a60020b8760020b135b156150fe57508690508560028a810b908c900b13156150f6578a9650615131565b8a9750615131565b61510c6008600a8b8e615615565b600281810b600090815260036020526040902060010154600160801b9004900b925090505b61513e60038c84846156ca565b50505b60006151516008600a8a8d6157c0565b969a9599509597509395505050505050565b60006001600160a01b038585038116908516811061518057600080fd5b7bffffffffffffffffffffffffffffffff000000000000000000000000606085901b16836151d957866001600160a01b03166151c68383896001600160a01b0316613c29565b816151d3576151d36161a8565b04615205565b6152056151f08383896001600160a01b0316613e0d565b886001600160a01b0316808204910615150190565b979650505050505050565b6000846001600160a01b0316846001600160a01b0316101561523157600080fd5b6001600160a01b03858503168261525f5761525a81856001600160801b0316600160601b613c29565b613ace565b613ace81856001600160801b0316600160601b613e0d565b6000856001600160a01b031660000361528f57600080fd5b846001600160801b03166000036152a557600080fd5b836000036152b4575084614fbd565b811515831515036153c2577bffffffffffffffffffffffffffffffff000000000000000000000000606086901b168215615370576001600160a01b03871685810290868281615305576153056161a8565b04036153355781810182811061533357615329838a6001600160a01b031683613e0d565b9350505050614fbd565b505b6153678261535c888b6001600160a01b03168681615355576153556161a8565b0490615858565b808204910615150190565b92505050614fbd565b6001600160a01b0387168581029086828161538d5761538d6161a8565b041461539857600080fd5b8082116153a457600080fd5b6153676153bd838a6001600160a01b0316848603613e0d565b615868565b811561542f576154286153bd6001600160a01b038611156153fa576153f586600160601b896001600160801b0316613c29565b615418565b6001600160801b038716606087901b81615416576154166161a8565b045b6001600160a01b03891690615858565b9050614fbd565b60006001600160a01b0385111561545d5761545885600160601b886001600160801b0316613e0d565b61547a565b61547a606086901b6001600160801b038816808204910615150190565b905080876001600160a01b03161161549157600080fd5b6001600160a01b03871603905095945050505050565b600281810b60008181526020859052604081206001810180548383557fffffffffffffffffffff000000000000000000000000000000000000000000008116909155818501839055600390910191909155600160801b8104830b92600160981b909104900b90620d89e719148061552f5750615526620d89e7196161d4565b60020b8360020b145b1561558857600283900b6000908152602085905260409020600101805462ffffff808516600160801b0262ffffff60801b19918516600160981b029190911665ffffffffffff60801b199092169190911717905561560e565b8060020b8260020b036155ae57604051630d6e094960e01b815260040160405180910390fd5b600282810b6000908152602086905260408082206001908101805462ffffff808816600160981b0262ffffff60981b19909216919091179091559385900b83529120018054918416600160801b0262ffffff60801b199092169190911790555b9250929050565b600190810190600090600883811d610d8a01901c90829061ffff83161b851663ffffffff161561567857615649878561587e565b9094509092509050801561565e575050614f57565b61566f86610d8b840160010b61587e565b90945090925090505b806156bb576156968563ffffffff168360010193508360010b6158af565b9093509050806156ae5750620d89e89150614f579050565b6156b886846159fd565b92505b61520587610d891985016159fd565b600283900b620d89e71914806156f157506156e8620d89e7196161d4565b60020b8360020b145b61233d578260020b8260020b12801561570f57508260020b8160020b135b61572c5760405163e45ac17d60e01b815260040160405180910390fd5b600283810b600090815260209590955260408086206001908101805465ffffffffffff60801b1916600160981b62ffffff878116820262ffffff60801b1990811693909317600160801b8a831681029190911790945597860b8a52848a208401805462ffffff60981b191698909916908102979097179097559390920b865290942090930180549092169202919091179055565b816000806157fd8785600881901d600181810b60009081526020949094526040909320805460ff9093169390931b80831890935591811490151891565b91509150811561584e57610d8a01600181810b60081d80820b6000908152602089905260409020805460ff9094169290921b80841890925582159190921481811893501461584e576001811b831892505b5050949350505050565b8082018281101561221e57600080fd5b806001600160a01b0381168114613f6757600080fd5b600881901d600181900b60009081526020849052604081205481906158a390856158af565b93969095509293505050565b60008060ff831684811c8083036158cb578460ff1793506159f4565b7f555555555555555555555555555555555555555555555555555555555555555560008290038216908116156001600160801b0382161560071b1777ffffffffffffffff0000000000000000ffffffffffffffff82161560061b177bffffffff00000000ffffffff00000000ffffffff00000000ffffffff82161560051b177dffff0000ffff0000ffff0000ffff0000ffff0000ffff0000ffff0000ffff82161560041b177eff00ff00ff00ff00ff00ff00ff00ff00ff00ff00ff00ff00ff00ff00ff00ff82161560031b177f0f0f0f0f0f0f0f0f0f0f0f0f0f0f0f0f0f0f0f0f0f0f0f0f0f0f0f0f0f0f0f0f82161560021b177f33333333333333333333333333333333333333333333333333333333333333339091161560011b1760ff1685019350600192505b50509250929050565b600181900b600090815260208390526040902054600882901b90615a2190826158af565b509392505050565b610ced6163ec565b8035600281900b8114613f6757600080fd5b6001600160801b0381168114610d6b57600080fd5b600080600080600060a08688031215615a7057600080fd5b615a7986615a31565b9450615a8760208701615a31565b93506040860135615a9781615a43565b94979396509394606081013594506080013592915050565b60008060408385031215615ac257600080fd5b50508035926020909101359150565b6001600160a01b0381168114610d6b57600080fd5b80358015158114613f6757600080fd5b60008083601f840112615b0857600080fd5b50813567ffffffffffffffff811115615b2057600080fd5b60208301915083602082850101111561560e57600080fd5b60008060008060008060a08789031215615b5157600080fd5b8635615b5c81615ad1565b9550615b6a60208801615ae6565b9450604087013593506060870135615b8181615ad1565b9250608087013567ffffffffffffffff811115615b9d57600080fd5b615ba989828a01615af6565b979a9699509497509295939492505050565b61ffff81168114610d6b57600080fd5b600060208284031215615bdd57600080fd5b8135613afd81615bbb565b600080600080600060808688031215615c0057600080fd5b615c0986615a31565b9450615c1760208701615a31565b93506040860135615c2781615a43565b9250606086013567ffffffffffffffff811115615c4357600080fd5b615c4f88828901615af6565b969995985093965092949392505050565b600080600080600060808688031215615c7857600080fd5b8535615c8381615ad1565b94506020860135935060408601359250606086013567ffffffffffffffff811115615c4357600080fd5b600080600080600060a08688031215615cc557600080fd5b8535615cd081615ad1565b9450615cde60208701615a31565b9350615cec60408701615a31565b92506060860135615cfc81615a43565b91506080860135615d0c81615a43565b809150509295509295909350565b600060208284031215615d2c57600080fd5b5035919050565b600080600060608486031215615d4857600080fd5b8335615d5381615ad1565b95602085013595506040909401359392505050565b600080600080600080600060c0888a031215615d8357600080fd5b8735615d8e81615ad1565b96506020880135615d9e81615ad1565b9550615dac60408901615ae6565b9450606088013593506080880135615dc381615ad1565b925060a088013567ffffffffffffffff811115615ddf57600080fd5b615deb8a828b01615af6565b989b979a50959850939692959293505050565b600060208284031215615e1057600080fd5b8135613afd81615a43565b600080600080600080600060c0888a031215615e3657600080fd5b8735615e4181615ad1565b96506020880135615e5181615ad1565b9550615e5f60408901615a31565b9450615e6d60608901615a31565b93506080880135615dc381615a43565b60008060008060808587031215615e9357600080fd5b615e9c85615a31565b93506020850135615eac81615a43565b93969395505050506040820135916060013590565b600060208284031215615ed357600080fd5b813560ff81168114613afd57600080fd5b600080600080600060a08688031215615efc57600080fd5b615f0586615ae6565b9450602086013593506040860135615a9781615ad1565b600060208284031215615f2e57600080fd5b81358060010b8114613afd57600080fd5b600060208284031215615f5157600080fd5b8135613afd81615ad1565b60008060408385031215615f6f57600080fd5b823591506020830135615f8181615ad1565b809150509250929050565b600060208284031215615f9e57600080fd5b613afd82615a31565b60008060408385031215615fba57600080fd5b8235615fc581615a43565b91506020830135615f8181615a43565b81518152602080830151908201526040810161221e565b6000815180845260005b8181101561601257602081850181015186830182015201615ff6565b506000602082860101526020601f19601f83011685010191505092915050565b60006001600160a01b0380891683528088166020840152508560020b60408301528460020b60608301526001600160801b038416608083015260c060a083015261607f60c0830184615fec565b98975050505050505050565b6000806000606084860312156160a057600080fd5b835192506020840151915060408401516160b981615a43565b809150509250925092565b634e487b7160e01b600052601160045260246000fd5b8082018082111561221e5761221e6160c4565b600081600f0b6f7fffffffffffffffffffffffffffffff198103616113576161136160c4565b60000392915050565b8181038181111561221e5761221e6160c4565b6001600160801b0381811683821601908082111561614f5761614f6160c4565b5092915050565b6001600160a01b0385168152836020820152826040820152608060608201526000613ace6080830184615fec565b6000806040838503121561619757600080fd5b505080516020909101519092909150565b634e487b7160e01b600052601260045260246000fd5b634e487b7160e01b600052600160045260246000fd5b60008160020b627fffff198103616113576161136160c4565b60008260020b8260020b028060020b915080821461614f5761614f6160c4565b600282810b9082900b03627fffff198112627fffff8213171561221e5761221e6160c4565b600281810b9083900b01627fffff8113627fffff198212171561221e5761221e6160c4565b60006001600160a01b0380891683528088166020840152861515604084015285606084015280851660808401525060c060a083015261607f60c0830184615fec565b6000602082840312156162ab57600080fd5b8151613afd81615bbb565b600080604083850312156162c957600080fd5b82516162d481615a43565b6020840151909250615f8181615a43565b62ffffff81811683821601908082111561614f5761614f6160c4565b60006040828403121561631357600080fd5b6040516040810181811067ffffffffffffffff8211171561634457634e487b7160e01b600052604160045260246000fd5b604052823581526020928301359281019290925250919050565b60006040828403121561637057600080fd5b613afd8383616301565b818103600083128015838313168383128216171561614f5761614f6160c4565b6000602082840312156163ac57600080fd5b81516001600160e01b031981168114613afd57600080fd5b80820182811260008312801582168215821617156163e4576163e46160c4565b505092915050565b634e487b7160e01b600052605160045260246000fdfea164736f6c6343000814000a",
  "linkReferences": {},
  "deployedLinkReferences": {}
}