{
  "_format": "hh-sol-artifact-1",
  "contractName": "Base64Test",
  "sourceName": "contracts/test/Base64Test.sol",
  "abi": [
    {
      "inputs": [
        {
          "internalType": "bytes",
          "name": "data",
          "type": "bytes"
        }
      ],
      "name": "encode",
      "outputs": [
        {
          "internalType": "string",
          "name": "",
          "type": "string"
        }
      ],
      "stateMutability": "pure",
      "type": "function"
    },
    {
      "inputs": [
        {
          "internalType": "bytes",
          "name": "data",
          "type": "bytes"
        }
      ],
      "name": "getGasCostOfEncode",
      "outputs": [
        {
          "internalType": "uint256",
          "name": "",
          "type": "uint256"
        }
      ],
      "stateMutability": "view",
      "type": "function"
    }
  ],
  "bytecode": "0x608060405234801561001057600080fd5b50610469806100206000396000f3fe608060405234801561001057600080fd5b50600436106100365760003560e01c806312496a1b1461003b57806374b86d1e14610064575b600080fd5b61004e61004936600461023a565b610085565b60405161005b9190610309565b60405180910390f35b61007761007236600461023a565b610096565b60405190815260200161005b565b6060610090826100b8565b92915050565b6000805a90506100a5836100b8565b505a6100b190826103a4565b9392505050565b606081516000036100d757505060408051602081019091526000815290565b600060405180606001604052806040815260200161041d604091399050600060038451600261010691906103b7565b61011091906103ca565b61011b906004610405565b67ffffffffffffffff8111156101335761013361020b565b6040519080825280601f01601f19166020018201604052801561015d576020820181803683370190505b509050600182016020820185865187015b808210156101c9576003820191508151603f8160121c168501518453600184019350603f81600c1c168501518453600184019350603f8160061c168501518453600184019350603f811685015184535060018301925061016e565b50506003865106600181146101e557600281146101f857610200565b603d6001830353603d6002830353610200565b603d60018303535b509195945050505050565b7f4e487b7100000000000000000000000000000000000000000000000000000000600052604160045260246000fd5b60006020828403121561024c57600080fd5b813567ffffffffffffffff8082111561026457600080fd5b818401915084601f83011261027857600080fd5b81358181111561028a5761028a61020b565b604051601f82017fffffffffffffffffffffffffffffffffffffffffffffffffffffffffffffffe0908116603f011681019083821181831017156102d0576102d061020b565b816040528281528760208487010111156102e957600080fd5b826020860160208301376000928101602001929092525095945050505050565b600060208083528351808285015260005b818110156103365785810183015185820160400152820161031a565b5060006040828601015260407fffffffffffffffffffffffffffffffffffffffffffffffffffffffffffffffe0601f8301168501019250505092915050565b7f4e487b7100000000000000000000000000000000000000000000000000000000600052601160045260246000fd5b8181038181111561009057610090610375565b8082018082111561009057610090610375565b600082610400577f4e487b7100000000000000000000000000000000000000000000000000000000600052601260045260246000fd5b500490565b80820281158282048414176100905761009061037556fe4142434445464748494a4b4c4d4e4f505152535455565758595a6162636465666768696a6b6c6d6e6f707172737475767778797a303132333435363738392b2fa164736f6c6343000814000a",
  "linkReferences": {},
  "deployedLinkReferences": {}
}