{
  "_format": "hh-sol-artifact-1",
  "contractName": "PositionValueTest",
  "sourceName": "contracts/test/PositionValueTest.sol",
  "abi": [
    {
      "inputs": [],
      "name": "tickOutOfRange",
      "type": "error"
    },
    {
      "inputs": [
        {
          "internalType": "contract INonfungiblePositionManager",
          "name": "nft",
          "type": "address"
        },
        {
          "internalType": "uint256",
          "name": "tokenId",
          "type": "uint256"
        }
      ],
      "name": "fees",
      "outputs": [
        {
          "internalType": "uint256",
          "name": "amount0",
          "type": "uint256"
        },
        {
          "internalType": "uint256",
          "name": "amount1",
          "type": "uint256"
        }
      ],
      "stateMutability": "view",
      "type": "function"
    },
    {
      "inputs": [
        {
          "internalType": "contract INonfungiblePositionManager",
          "name": "nft",
          "type": "address"
        },
        {
          "internalType": "uint256",
          "name": "tokenId",
          "type": "uint256"
        }
      ],
      "name": "feesGas",
      "outputs": [
        {
          "internalType": "uint256",
          "name": "",
          "type": "uint256"
        }
      ],
      "stateMutability": "view",
      "type": "function"
    },
    {
      "inputs": [
        {
          "internalType": "contract INonfungiblePositionManager",
          "name": "nft",
          "type": "address"
        },
        {
          "internalType": "uint256",
          "name": "tokenId",
          "type": "uint256"
        },
        {
          "internalType": "uint160",
          "name": "sqrtRatioX96",
          "type": "uint160"
        }
      ],
      "name": "principal",
      "outputs": [
        {
          "internalType": "uint256",
          "name": "amount0",
          "type": "uint256"
        },
        {
          "internalType": "uint256",
          "name": "amount1",
          "type": "uint256"
        }
      ],
      "stateMutability": "view",
      "type": "function"
    },
    {
      "inputs": [
        {
          "internalType": "contract INonfungiblePositionManager",
          "name": "nft",
          "type": "address"
        },
        {
          "internalType": "uint256",
          "name": "tokenId",
          "type": "uint256"
        },
        {
          "internalType": "uint160",
          "name": "sqrtRatioX96",
          "type": "uint160"
        }
      ],
      "name": "principalGas",
      "outputs": [
        {
          "internalType": "uint256",
          "name": "",
          "type": "uint256"
        }
      ],
      "stateMutability": "view",
      "type": "function"
    },
    {
      "inputs": [
        {
          "internalType": "contract INonfungiblePositionManager",
          "name": "nft",
          "type": "address"
        },
        {
          "internalType": "uint256",
          "name": "tokenId",
          "type": "uint256"
        },
        {
          "internalType": "uint160",
          "name": "sqrtRatioX96",
          "type": "uint160"
        }
      ],
      "name": "total",
      "outputs": [
        {
          "internalType": "uint256",
          "name": "amount0",
          "type": "uint256"
        },
        {
          "internalType": "uint256",
          "name": "amount1",
          "type": "uint256"
        }
      ],
      "stateMutability": "view",
      "type": "function"
    },
    {
      "inputs": [
        {
          "internalType": "contract INonfungiblePositionManager",
          "name": "nft",
          "type": "address"
        },
        {
          "internalType": "uint256",
          "name": "tokenId",
          "type": "uint256"
        },
        {
          "internalType": "uint160",
          "name": "sqrtRatioX96",
          "type": "uint160"
        }
      ],
      "name": "totalGas",
      "outputs": [
        {
          "internalType": "uint256",
          "name": "",
          "type": "uint256"
        }
      ],
      "stateMutability": "view",
      "type": "function"
    }
  ],
  "bytecode": "0x608060405234801561001057600080fd5b50611433806100206000396000f3fe608060405234801561001057600080fd5b50600436106100725760003560e01c80635b6dc092116100505780635b6dc092146100d857806390594f91146100eb578063ee4e9ba3146100fe57600080fd5b80632263539714610077578063263a5362146100a45780633803770c146100b7575b600080fd5b61008a6100853660046110dc565b610111565b604080519283526020830191909152015b60405180910390f35b61008a6100b236600461111e565b61012b565b6100ca6100c536600461111e565b610143565b60405190815260200161009b565b61008a6100e63660046110dc565b61016a565b6100ca6100f93660046110dc565b610178565b6100ca61010c3660046110dc565b6101a1565b60008061011f8585856101ae565b91509150935093915050565b600080610138848461025d565b915091509250929050565b6000805a9050610153848461025d565b50505a6101609082611179565b9150505b92915050565b60008061011f858585610273565b6000805a9050610189858585610273565b50505a6101969082611179565b9150505b9392505050565b6000805a90506101898585855b60008060008060008773ffffffffffffffffffffffffffffffffffffffff166399fbab88886040518263ffffffff1660e01b81526004016101f191815260200190565b61018060405180830381865afa15801561020f573d6000803e3d6000fd5b505050506040513d601f19601f8201168201806040525081019061023391906111ce565b50505050975097509750505050505061024e868484846102da565b94509450505050935093915050565b6000806101388461026e8686610307565b61047a565b60008060006102828686610307565b905060008061029f86846060015185608001518660a001516102da565b915091506000806102b08a8661047a565b90925090506102bf82856112ae565b6102c982856112ae565b965096505050505050935093915050565b6000806102f9866102ea87610601565b6102f387610601565b86610920565b915091505b94509492505050565b6040805161014081018252600080825260208201819052918101829052606081018290526080810182905260a0810182905260c0810182905260e0810182905261010081018290526101208101919091526000806000806000806000806000808c73ffffffffffffffffffffffffffffffffffffffff166399fbab888d6040518263ffffffff1660e01b81526004016103a291815260200190565b61018060405180830381865afa1580156103c0573d6000803e3d6000fd5b505050506040513d601f19601f820116820180604052508101906103e491906111ce565b604080516101408101825273ffffffffffffffffffffffffffffffffffffffff9b8c168152998b1660208b01529790991696880196909652600294850b60608801529290930b60808601526fffffffffffffffffffffffffffffffff90811660a086015260c085019290925260e08401529081166101008301529091166101208201529f9e505050505050505050505050505050565b6000806000806105726105638773ffffffffffffffffffffffffffffffffffffffff16633119049a6040518163ffffffff1660e01b8152600401602060405180830381865afa1580156104d1573d6000803e3d6000fd5b505050506040513d601f19601f820116820180604052508101906104f591906112c1565b6040518060600160405280896040015173ffffffffffffffffffffffffffffffffffffffff168152602001896000015173ffffffffffffffffffffffffffffffffffffffff168152602001896020015173ffffffffffffffffffffffffffffffffffffffff16815250610a09565b86606001518760800151610c42565b915091508461010001516105b48660c0015184038760a001516fffffffffffffffffffffffffffffffff16700100000000000000000000000000000000610e1d565b0193508461012001516105f58660e0015183038760a001516fffffffffffffffffffffffffffffffff16700100000000000000000000000000000000610e1d565b01925050509250929050565b6000600282900b60171d62ffffff818401821816620d89e8811115610652576040517f3c10250f00000000000000000000000000000000000000000000000000000000815260040160405180910390fd5b700100000000000000000000000000000000600182161561068057506ffffcb933bd6fad37aa2d162d1a5940015b600282161561069f576ffff97272373d413259a46990580e213a0260801c5b60048216156106be576ffff2e50f5f656932ef12357cf3c7fdcc0260801c5b60088216156106dd576fffe5caca7e10e4e61c3624eaa0941cd00260801c5b60108216156106fc576fffcb9843d60f6159c9db58835c9266440260801c5b602082161561071b576fff973b41fa98c081472e6896dfb254c00260801c5b604082161561073a576fff2ea16466c96a3843ec78b326b528610260801c5b6080821615610759576ffe5dee046a99a2a811c461f1969c30530260801c5b610100821615610779576ffcbe86c7900a88aedcffc83b479aa3a40260801c5b610200821615610799576ff987a7253ac413176f2b074cf7815e540260801c5b6104008216156107b9576ff3392b0822b70005940c7a398e4b70f30260801c5b6108008216156107d9576fe7159475a2c29b7443b29c7fa6e889d90260801c5b6110008216156107f9576fd097f3bdfd2022b8845ad8f792aa58250260801c5b612000821615610819576fa9f746462d870fdf8a65dc1f90e061e50260801c5b614000821615610839576f70d869a156d2a1b890bb3df62baf32f70260801c5b618000821615610859576f31be135f97d08fd981231505542fcfa60260801c5b6201000082161561087a576f09aa508b5b7a84e1c677de54f3e99bc90260801c5b6202000082161561089a576e5d6af8dedb81196699c329225ee6040260801c5b6204000082106108e057620400008216156108c3576d2216e584f5fa1ea926041bedfe980260801c5b620800008216156108e0576b048a170391f7dc42444e8fa20260801c5b60008560020b131561090f577fffffffffffffffffffffffffffffffffffffffffffffffffffffffffffffffff045b63ffffffff0160201c949350505050565b6000808373ffffffffffffffffffffffffffffffffffffffff168573ffffffffffffffffffffffffffffffffffffffff16111561095b579293925b8473ffffffffffffffffffffffffffffffffffffffff168673ffffffffffffffffffffffffffffffffffffffff16116109a057610999858585610ed4565b91506102fe565b8373ffffffffffffffffffffffffffffffffffffffff168673ffffffffffffffffffffffffffffffffffffffff1610156109f3576109df868585610ed4565b91506109ec858785610f8d565b90506102fe565b6109fe858585610f8d565b905094509492505050565b6000816040015173ffffffffffffffffffffffffffffffffffffffff16826020015173ffffffffffffffffffffffffffffffffffffffff1610610aac576040517f08c379a000000000000000000000000000000000000000000000000000000000815260206004820152601760248201527f496e76616c6964206f72646572206f6620746f6b656e73000000000000000000604482015260640160405180910390fd5b8151839073ffffffffffffffffffffffffffffffffffffffff1615610b255782516020808501516040808701519051610b1194930173ffffffffffffffffffffffffffffffffffffffff93841681529183166020830152909116604082015260600190565b604051602081830303815290604052610b6f565b6020808401516040808601519051610b5f930173ffffffffffffffffffffffffffffffffffffffff92831681529116602082015260400190565b6040516020818303038152906040525b8051602091820120604051610c0593927fb3fc09be5eb433d99b1ec89fd8435aaf5ffea75c1879e19028aa2414a14b3c8591017fff00000000000000000000000000000000000000000000000000000000000000815260609390931b7fffffffffffffffffffffffffffffffffffffffff0000000000000000000000001660018401526015830191909152603582015260550190565b604080517fffffffffffffffffffffffffffffffffffffffffffffffffffffffffffffffe081840301815291905280516020909101209392505050565b60008060008573ffffffffffffffffffffffffffffffffffffffff1663e76c01e46040518163ffffffff1660e01b815260040160c060405180830381865afa158015610c92573d6000803e3d6000fd5b505050506040513d601f19601f82011682018060405250810190610cb691906112f0565b50505050915050600080610cca8888611011565b91509150600080610cdb8a89611011565b915091508760020b8560020b1215610e05578860020b8560020b12610def5760008a73ffffffffffffffffffffffffffffffffffffffff16636378ae446040518163ffffffff1660e01b8152600401602060405180830381865afa158015610d47573d6000803e3d6000fd5b505050506040513d601f19601f82011682018060405250810190610d6b9190611377565b905060008b73ffffffffffffffffffffffffffffffffffffffff1663ecdecf426040518163ffffffff1660e01b8152600401602060405180830381865afa158015610dba573d6000803e3d6000fd5b505050506040513d601f19601f82011682018060405250810190610dde9190611377565b918690039850508390039550610df6565b8396508295505b81870396508086039550610e10565b838203965082810395505b5050505050935093915050565b6000838302817fffffffffffffffffffffffffffffffffffffffffffffffffffffffffffffffff85870982811083820303915050808411610e5d57600080fd5b80600003610e705750829004905061019a565b8385870960008581038616958690049560026003880281188089028203028089028203028089028203028089028203028089028203028089029091030291819003819004600101858411909403939093029190930391909104170290509392505050565b60008273ffffffffffffffffffffffffffffffffffffffff168473ffffffffffffffffffffffffffffffffffffffff161115610f0e579192915b8373ffffffffffffffffffffffffffffffffffffffff16610f77606060ff16846fffffffffffffffffffffffffffffffff16901b86860373ffffffffffffffffffffffffffffffffffffffff168673ffffffffffffffffffffffffffffffffffffffff16610e1d565b81610f8457610f84611390565b04949350505050565b60008273ffffffffffffffffffffffffffffffffffffffff168473ffffffffffffffffffffffffffffffffffffffff161115610fc7579192915b611009826fffffffffffffffffffffffffffffffff1685850373ffffffffffffffffffffffffffffffffffffffff166c01000000000000000000000000610e1d565b949350505050565b6040517ff30dba93000000000000000000000000000000000000000000000000000000008152600282900b6004820152600090819073ffffffffffffffffffffffffffffffffffffffff85169063f30dba939060240160c060405180830381865afa158015611084573d6000803e3d6000fd5b505050506040513d601f19601f820116820180604052508101906110a891906113bf565b90999098509650505050505050565b73ffffffffffffffffffffffffffffffffffffffff811681146110d957600080fd5b50565b6000806000606084860312156110f157600080fd5b83356110fc816110b7565b9250602084013591506040840135611113816110b7565b809150509250925092565b6000806040838503121561113157600080fd5b823561113c816110b7565b946020939093013593505050565b7f4e487b7100000000000000000000000000000000000000000000000000000000600052601160045260246000fd5b818103818111156101645761016461114a565b8051611197816110b7565b919050565b8051600281900b811461119757600080fd5b80516fffffffffffffffffffffffffffffffff8116811461119757600080fd5b6000806000806000806000806000806000806101808d8f0312156111f157600080fd5b8c516affffffffffffffffffffff8116811461120c57600080fd5b9b5061121a60208e0161118c565b9a5061122860408e0161118c565b995061123660608e0161118c565b985061124460808e0161118c565b975061125260a08e0161119c565b965061126060c08e0161119c565b955061126e60e08e016111ae565b94506101008d015193506101208d0151925061128d6101408e016111ae565b915061129c6101608e016111ae565b90509295989b509295989b509295989b565b808201808211156101645761016461114a565b6000602082840312156112d357600080fd5b815161019a816110b7565b805161ffff8116811461119757600080fd5b60008060008060008060c0878903121561130957600080fd5b8651611314816110b7565b95506113226020880161119c565b9450611330604088016112de565b9350606087015160ff8116811461134657600080fd5b9250611354608088016112de565b915060a0870151801515811461136957600080fd5b809150509295509295509295565b60006020828403121561138957600080fd5b5051919050565b7f4e487b7100000000000000000000000000000000000000000000000000000000600052601260045260246000fd5b60008060008060008060c087890312156113d857600080fd5b86519550602087015180600f0b81146113f057600080fd5b94506113fe6040880161119c565b935061140c6060880161119c565b92506080870151915060a08701519050929550929550929556fea164736f6c6343000814000a",
  "linkReferences": {},
  "deployedLinkReferences": {}
}