{
  "_format": "hh-sol-artifact-1",
  "contractName": "NonfungiblePositionManagerPositionsGasTest",
  "sourceName": "contracts/test/NonfungiblePositionManagerPositionsGasTest.sol",
  "abi": [
    {
      "inputs": [
        {
          "internalType": "contract INonfungiblePositionManager",
          "name": "_nonfungiblePositionManager",
          "type": "address"
        }
      ],
      "stateMutability": "nonpayable",
      "type": "constructor"
    },
    {
      "inputs": [
        {
          "internalType": "uint256",
          "name": "tokenId",
          "type": "uint256"
        }
      ],
      "name": "getGasCostOfPositions",
      "outputs": [
        {
          "internalType": "uint256",
          "name": "",
          "type": "uint256"
        }
      ],
      "stateMutability": "view",
      "type": "function"
    }
  ],
  "bytecode": "0x60a060405234801561001057600080fd5b5060405161035538038061035583398101604081905261002f91610040565b6001600160a01b0316608052610070565b60006020828403121561005257600080fd5b81516001600160a01b038116811461006957600080fd5b9392505050565b6080516102cb61008a6000396000608b01526102cb6000f3fe608060405234801561001057600080fd5b506004361061002b5760003560e01c8063994ea42c14610030575b600080fd5b61004361003e36600461012a565b610055565b60405190815260200160405180910390f35b6000805a6040517f99fbab88000000000000000000000000000000000000000000000000000000008152600481018590529091507f000000000000000000000000000000000000000000000000000000000000000073ffffffffffffffffffffffffffffffffffffffff16906399fbab889060240161018060405180830381865afa1580156100e8573d6000803e3d6000fd5b505050506040513d601f19601f8201168201806040525081019061010c919061019e565b5050505050505050505050505a610123908261027e565b9392505050565b60006020828403121561013c57600080fd5b5035919050565b805173ffffffffffffffffffffffffffffffffffffffff8116811461016757600080fd5b919050565b8051600281900b811461016757600080fd5b80516fffffffffffffffffffffffffffffffff8116811461016757600080fd5b6000806000806000806000806000806000806101808d8f0312156101c157600080fd5b8c516affffffffffffffffffffff811681146101dc57600080fd5b9b506101ea60208e01610143565b9a506101f860408e01610143565b995061020660608e01610143565b985061021460808e01610143565b975061022260a08e0161016c565b965061023060c08e0161016c565b955061023e60e08e0161017e565b94506101008d015193506101208d0151925061025d6101408e0161017e565b915061026c6101608e0161017e565b90509295989b509295989b509295989b565b818103818111156102b8577f4e487b7100000000000000000000000000000000000000000000000000000000600052601160045260246000fd5b9291505056fea164736f6c6343000814000a",
  "linkReferences": {},
  "deployedLinkReferences": {}
}