{
  "_format": "hh-sol-artifact-1",
  "contractName": "NFTDescriptorTest",
  "sourceName": "contracts/test/NFTDescriptorTest.sol",
  "abi": [
    {
      "inputs": [],
      "name": "tickOutOfRange",
      "type": "error"
    },
    {
      "inputs": [
        {
          "internalType": "address",
          "name": "_address",
          "type": "address"
        }
      ],
      "name": "addressToString",
      "outputs": [
        {
          "internalType": "string",
          "name": "",
          "type": "string"
        }
      ],
      "stateMutability": "pure",
      "type": "function"
    },
    {
      "inputs": [
        {
          "components": [
            {
              "internalType": "uint256",
              "name": "tokenId",
              "type": "uint256"
            },
            {
              "internalType": "address",
              "name": "quoteTokenAddress",
              "type": "address"
            },
            {
              "internalType": "address",
              "name": "baseTokenAddress",
              "type": "address"
            },
            {
              "internalType": "string",
              "name": "quoteTokenSymbol",
              "type": "string"
            },
            {
              "internalType": "string",
              "name": "baseTokenSymbol",
              "type": "string"
            },
            {
              "internalType": "uint8",
              "name": "quoteTokenDecimals",
              "type": "uint8"
            },
            {
              "internalType": "uint8",
              "name": "baseTokenDecimals",
              "type": "uint8"
            },
            {
              "internalType": "bool",
              "name": "flipRatio",
              "type": "bool"
            },
            {
              "internalType": "int24",
              "name": "tickLower",
              "type": "int24"
            },
            {
              "internalType": "int24",
              "name": "tickUpper",
              "type": "int24"
            },
            {
              "internalType": "int24",
              "name": "tickCurrent",
              "type": "int24"
            },
            {
              "internalType": "int24",
              "name": "tickSpacing",
              "type": "int24"
            },
            {
              "internalType": "address",
              "name": "poolAddress",
              "type": "address"
            }
          ],
          "internalType": "struct NFTDescriptor.ConstructTokenURIParams",
          "name": "params",
          "type": "tuple"
        }
      ],
      "name": "constructTokenURI",
      "outputs": [
        {
          "internalType": "string",
          "name": "",
          "type": "string"
        }
      ],
      "stateMutability": "pure",
      "type": "function"
    },
    {
      "inputs": [
        {
          "internalType": "uint24",
          "name": "fee",
          "type": "uint24"
        }
      ],
      "name": "feeToPercentString",
      "outputs": [
        {
          "internalType": "string",
          "name": "",
          "type": "string"
        }
      ],
      "stateMutability": "pure",
      "type": "function"
    },
    {
      "inputs": [
        {
          "internalType": "uint160",
          "name": "sqrtRatioX96",
          "type": "uint160"
        },
        {
          "internalType": "uint8",
          "name": "token0Decimals",
          "type": "uint8"
        },
        {
          "internalType": "uint8",
          "name": "token1Decimals",
          "type": "uint8"
        }
      ],
      "name": "fixedPointToDecimalString",
      "outputs": [
        {
          "internalType": "string",
          "name": "",
          "type": "string"
        }
      ],
      "stateMutability": "pure",
      "type": "function"
    },
    {
      "inputs": [
        {
          "components": [
            {
              "internalType": "uint256",
              "name": "tokenId",
              "type": "uint256"
            },
            {
              "internalType": "address",
              "name": "quoteTokenAddress",
              "type": "address"
            },
            {
              "internalType": "address",
              "name": "baseTokenAddress",
              "type": "address"
            },
            {
              "internalType": "string",
              "name": "quoteTokenSymbol",
              "type": "string"
            },
            {
              "internalType": "string",
              "name": "baseTokenSymbol",
              "type": "string"
            },
            {
              "internalType": "uint8",
              "name": "quoteTokenDecimals",
              "type": "uint8"
            },
            {
              "internalType": "uint8",
              "name": "baseTokenDecimals",
              "type": "uint8"
            },
            {
              "internalType": "bool",
              "name": "flipRatio",
              "type": "bool"
            },
            {
              "internalType": "int24",
              "name": "tickLower",
              "type": "int24"
            },
            {
              "internalType": "int24",
              "name": "tickUpper",
              "type": "int24"
            },
            {
              "internalType": "int24",
              "name": "tickCurrent",
              "type": "int24"
            },
            {
              "internalType": "int24",
              "name": "tickSpacing",
              "type": "int24"
            },
            {
              "internalType": "address",
              "name": "poolAddress",
              "type": "address"
            }
          ],
          "internalType": "struct NFTDescriptor.ConstructTokenURIParams",
          "name": "params",
          "type": "tuple"
        }
      ],
      "name": "generateSVGImage",
      "outputs": [
        {
          "internalType": "string",
          "name": "",
          "type": "string"
        }
      ],
      "stateMutability": "pure",
      "type": "function"
    },
    {
      "inputs": [
        {
          "components": [
            {
              "internalType": "uint256",
              "name": "tokenId",
              "type": "uint256"
            },
            {
              "internalType": "address",
              "name": "quoteTokenAddress",
              "type": "address"
            },
            {
              "internalType": "address",
              "name": "baseTokenAddress",
              "type": "address"
            },
            {
              "internalType": "string",
              "name": "quoteTokenSymbol",
              "type": "string"
            },
            {
              "internalType": "string",
              "name": "baseTokenSymbol",
              "type": "string"
            },
            {
              "internalType": "uint8",
              "name": "quoteTokenDecimals",
              "type": "uint8"
            },
            {
              "internalType": "uint8",
              "name": "baseTokenDecimals",
              "type": "uint8"
            },
            {
              "internalType": "bool",
              "name": "flipRatio",
              "type": "bool"
            },
            {
              "internalType": "int24",
              "name": "tickLower",
              "type": "int24"
            },
            {
              "internalType": "int24",
              "name": "tickUpper",
              "type": "int24"
            },
            {
              "internalType": "int24",
              "name": "tickCurrent",
              "type": "int24"
            },
            {
              "internalType": "int24",
              "name": "tickSpacing",
              "type": "int24"
            },
            {
              "internalType": "address",
              "name": "poolAddress",
              "type": "address"
            }
          ],
          "internalType": "struct NFTDescriptor.ConstructTokenURIParams",
          "name": "params",
          "type": "tuple"
        }
      ],
      "name": "getGasCostOfConstructTokenURI",
      "outputs": [
        {
          "internalType": "uint256",
          "name": "",
          "type": "uint256"
        }
      ],
      "stateMutability": "view",
      "type": "function"
    },
    {
      "inputs": [
        {
          "internalType": "uint256",
          "name": "tokenId",
          "type": "uint256"
        },
        {
          "internalType": "address",
          "name": "poolAddress",
          "type": "address"
        }
      ],
      "name": "isRare",
      "outputs": [
        {
          "internalType": "bool",
          "name": "",
          "type": "bool"
        }
      ],
      "stateMutability": "pure",
      "type": "function"
    },
    {
      "inputs": [
        {
          "internalType": "int24",
          "name": "tickLower",
          "type": "int24"
        },
        {
          "internalType": "int24",
          "name": "tickUpper",
          "type": "int24"
        }
      ],
      "name": "rangeLocation",
      "outputs": [
        {
          "internalType": "string",
          "name": "",
          "type": "string"
        },
        {
          "internalType": "string",
          "name": "",
          "type": "string"
        }
      ],
      "stateMutability": "pure",
      "type": "function"
    },
    {
      "inputs": [
        {
          "internalType": "address",
          "name": "token",
          "type": "address"
        },
        {
          "internalType": "uint256",
          "name": "offset",
          "type": "uint256"
        }
      ],
      "name": "sliceTokenHex",
      "outputs": [
        {
          "internalType": "uint256",
          "name": "",
          "type": "uint256"
        }
      ],
      "stateMutability": "pure",
      "type": "function"
    },
    {
      "inputs": [
        {
          "internalType": "int24",
          "name": "tick",
          "type": "int24"
        },
        {
          "internalType": "int24",
          "name": "tickSpacing",
          "type": "int24"
        },
        {
          "internalType": "uint8",
          "name": "token0Decimals",
          "type": "uint8"
        },
        {
          "internalType": "uint8",
          "name": "token1Decimals",
          "type": "uint8"
        },
        {
          "internalType": "bool",
          "name": "flipRatio",
          "type": "bool"
        }
      ],
      "name": "tickToDecimalString",
      "outputs": [
        {
          "internalType": "string",
          "name": "",
          "type": "string"
        }
      ],
      "stateMutability": "pure",
      "type": "function"
    },
    {
      "inputs": [
        {
          "internalType": "address",
          "name": "token",
          "type": "address"
        },
        {
          "internalType": "uint256",
          "name": "offset",
          "type": "uint256"
        }
      ],
      "name": "tokenToColorHex",
      "outputs": [
        {
          "internalType": "string",
          "name": "",
          "type": "string"
        }
      ],
      "stateMutability": "pure",
      "type": "function"
    }
  ],
  "bytecode": "0x608080604052346100175761578f90816200001d8239f35b600080fdfe608080604052600436101561001357600080fd5b60003560e01c9081631385f10014613929575080632fa2af10146138d45780633a0cdee21461382e57806343607fd6146137945780635e57966d146137705780639288c2181461371f578063d5c0bdd8146136d8578063d6986d45146136a5578063e490e1a91461011d578063e7386906146100e15763ea4d3bcd1461009857600080fd5b346100dc5760203660031901126100dc5760043562ffffff811681036100dc576100c46100d8916149df565b604051918291602083526020830190613a02565b0390f35b600080fd5b346100dc5760403660031901126100dc576024356001600160a01b03811681036100dc57610113602091600435615667565b6040519015158152f35b346100dc576003196020368201126100dc5767ffffffffffffffff600435116100dc576101a090600435360301126100dc576040516101a0810181811067ffffffffffffffff8211176132e257604052600435600401358152610184602460043501613a6b565b6020820152610197604460043501613a6b565b60408201526064600435013567ffffffffffffffff81116100dc576101c3906004369181350101613b59565b60608201526084600435013567ffffffffffffffff81116100dc576101ef906004369181350101613b59565b608082015261020260a460043501613a8f565b60a082015261021560c460043501613a8f565b60c082015261022860e460043501613a9d565b60e082015261023c61010460043501613a47565b61010082015261025161012460043501613a47565b61012082015261026661014460043501613a47565b61014082015261027b61016460043501613a47565b61016082015261029061018460043501613a6b565b6101808201526102ac6001600160a01b03602083015116614f78565b906102c36001600160a01b03604083015116614f78565b906102da6001600160a01b03602083015116614fd3565b6102f06001600160a01b03604084015116614fd3565b60ff61030760208501518286519160101c166149cc565b068061010281020461010214811517156133225761032e60ff6101026103339302046142d3565b614e35565b9160ff61034b60408601518287519160101c166149cc565b068061018081020461018014811517156133225761032e60ff6101806103729302046142e1565b9560ff61038a60208701518288519160201c166149cc565b068061010281020461010214811517156133225761032e60ff6101026103b19302046142d3565b9160ff6103c960408801518289519160201c166149cc565b068061018081020461018014811517156133225761032e60ff6101806103f09302046142e1565b60ff6104076020890151828a519160301c166149cc565b068061010281020461010214811517156133225761032e60ff61010261042e9302046142d3565b9060ff61044660408a0151828b519160301c166149cc565b0694856101808102046101801486151715613322577f203c616e696d6174652061646469746976653d2273756d2220617474726962759a61179f986109e79861049b61032e60ff6101806105de9c02046142e1565b96604080519e8f906104ac82613aaa565b8b82526020820152015260608d015260808c015260a08b015260c08a015260e08901526101008801526101208701526105d960aa60405180937f3c7376672077696474683d2732393027206865696768743d273530302720766960208301527f6577426f783d2730203020323930203530302720786d6c6e733d27687474703a60408301527f2f2f7777772e77332e6f72672f323030302f737667273e3c726563742077696460608301527f74683d27323930707827206865696768743d273530307078272066696c6c3d2760808301527f230000000000000000000000000000000000000000000000000000000000000060a08301526105b781518092602060a1860191016139df565b81016813979f1e17b9bb339f60b91b60a182015203608a810184520182613b1b565b61502b565b61072060206105d96022608089015160a08a0151848b0151906040519586936106956106888387016063907f3c7376672077696474683d2732393027206865696768743d273530302720766981527f6577426f783d2730203020323930203530302720786d6c6e733d27687474703a60208201527f2f2f7777772e77332e6f72672f323030302f737667273e3c636972636c652063604082015262783d2760e81b60608201520190565b91828151948592016139df565b65272063793d2760d01b828201526106b983518094602060068686010191016139df565b7f2720723d273132307078272066696c6c3d2723000000000000000000000000006006848484010101526106fb845180956020601987878701010191016139df565b0101016813979f1e17b9bb339f60b91b60198201526002828203018252030182613b1b565b61084860206105d9602260c08a015160e08b015160408c0151906040519586936107cb6106888387016063907f3c7376672077696474683d2732393027206865696768743d273530302720766981527f6577426f783d2730203020323930203530302720786d6c6e733d27687474703a60208201527f2f2f7777772e77332e6f72672f323030302f737667273e3c636972636c652063604082015262783d2760e81b60608201520190565b0165272063793d2760d01b81526107ec8251809360206006850191016139df565b017f2720723d273132307078272066696c6c3d27230000000000000000000000000060068201526108278251809360206019850191016139df565b016813979f1e17b9bb339f60b91b6019820152036002810184520182613b1b565b907f2220783d223070782220793d22307078222077696474683d223239307078222061097460206105d960226101008c01518c6060610120820151910151906040519586936109186106888387016063907f3c7376672077696474683d2732393027206865696768743d273530302720766981527f6577426f783d2730203020323930203530302720786d6c6e733d27687474703a60208201527f2f2f7777772e77332e6f72672f323030302f737667273e3c636972636c652063604082015262783d2760e81b60608201520190565b0165272063793d2760d01b81526109398251809360206006850191016139df565b017f2720723d273130307078272066696c6c3d27230000000000000000000000000060068201526108278251809360206019850191016139df565b9751926040519889957f3c7376672077696474683d2232393022206865696768743d223530302220766960208801527f6577426f783d2230203020323930203530302220786d6c6e733d22687474703a60408801527f2f2f7777772e77332e6f72672f323030302f737667220000000000000000000060608801527f20786d6c6e733a786c696e6b3d27687474703a2f2f7777772e77332e6f72672f60768801527f313939392f786c696e6b273e000000000000000000000000000000000000000060968801527f3c646566733e000000000000000000000000000000000000000000000000000060a28801527f3c66696c7465722069643d226631223e3c6665496d61676520726573756c743d60a88801527f2270302220786c696e6b3a687265663d22646174613a696d6167652f7376672b60c88801527f786d6c3b6261736536342c00000000000000000000000000000000000000000060e8880152610ae781518092602060f38b0191016139df565b8601917f222f3e3c6665496d61676520726573756c743d2270312220786c696e6b3a687260f38401527f65663d22646174613a696d6167652f7376672b786d6c3b6261736536342c0000806101138501527f222f3e3c6665496d61676520726573756c743d2270322220786c696e6b3a6872865196610b7088610131926020848a0191016139df565b87860101526101518685010152610b9481518092602061016f8988010191016139df565b631110179f60e11b838601820161016f8101919091527f3c6665496d61676520726573756c743d2270332220786c696e6b3a687265663d6101738201527f22646174613a696d6167652f7376672b786d6c3b6261736536342c0000000000610193820152825192610c109184916101ae909101906020016139df565b7f22202f3e3c6665426c656e64206d6f64653d226f7665726c61792220696e3d22838601820183016101ae8101919091527f70302220696e323d22703122202f3e3c6665426c656e64206d6f64653d2265786101ce8201527f636c7573696f6e2220696e323d22703222202f3e3c6665426c656e64206d6f646101ee8201527f653d226f7665726c61792220696e323d2270332220726573756c743d22626c6561020e8201527f6e644f757422202f3e3c6665476175737369616e426c7572200000000000000061022e8201527f696e3d22626c656e644f75742220737464446576696174696f6e3d22343222206102478201527f2f3e3c2f66696c7465723e203c636c6970506174682069643d22636f726e65726102678201527f73223e3c726563742077696474683d2232393022206865696768743d223530306102878201527f222072783d223432222072793d22343222202f3e3c2f636c6970506174683e006102a78201527f3c706174682069643d22746578742d706174682d612220643d224d34302031326102c68201527f20483235302041323820323820302030203120323738203430205634363020416102e68201527f32382032382030203020312032353020343838204834302041323820323820306103068201527f20302031203132203436302056343020413238203238203020302031203430206103268201527f3132207a22202f3e0000000000000000000000000000000000000000000000006103468201527f3c706174682069643d226d696e696d61702220643d224d32333420343434433261034e8201527f3334203435372e393439203234322e323120343633203235332034363322202f61036e8201527f3e0000000000000000000000000000000000000000000000000000000000000061038e82018190527f3c66696c7465722069643d22746f702d726567696f6e2d626c7572223e3c666561038f8301527f476175737369616e426c757220696e3d22536f757263654772617068696322206103af8301527f737464446576696174696f6e3d22323422202f3e3c2f66696c7465723e0000006103cf8301527f3c6c696e6561724772616469656e742069643d22677261642d7570222078313d6103ec8301527f2231222078323d2230222079313d2231222079323d2230223e3c73746f70206f61040c8301527f66667365743d22302e30222073746f702d636f6c6f723d22776869746522207361042c8301527f746f702d6f7061636974793d223122202f3e000000000000000000000000000061044c8301527f3c73746f70206f66667365743d222e39222073746f702d636f6c6f723d22776861045e8301527f697465222073746f702d6f7061636974793d223022202f3e3c2f6c696e65617261047e8301527f4772616469656e743e000000000000000000000000000000000000000000000061049e8301527f3c6c696e6561724772616469656e742069643d22677261642d646f776e2220786104a78301527f313d2230222078323d2231222079313d2230222079323d2231223e3c73746f706104c78301527f206f66667365743d22302e30222073746f702d636f6c6f723d227768697465226104e78301527f2073746f702d6f7061636974793d223122202f3e3c73746f70206f66667365746105078301527f3d22302e39222073746f702d636f6c6f723d227768697465222073746f702d6f6105278301527f7061636974793d223022202f3e3c2f6c696e6561724772616469656e743e00006105478301527f3c6d61736b2069643d22666164652d757022206d61736b436f6e74656e74556e6105658301527f6974733d226f626a656374426f756e64696e67426f78223e3c726563742077696105858301527f6474683d223122206865696768743d2231222066696c6c3d2275726c282367726105a58301527f61642d75702922202f3e3c2f6d61736b3e0000000000000000000000000000006105c58301527f3c6d61736b2069643d22666164652d646f776e22206d61736b436f6e74656e746105d68301527f556e6974733d226f626a656374426f756e64696e67426f78223e3c72656374206105f68301527f77696474683d223122206865696768743d2231222066696c6c3d2275726c28236106168301527f677261642d646f776e2922202f3e3c2f6d61736b3e00000000000000000000006106368301527f3c6d61736b2069643d226e6f6e6522206d61736b436f6e74656e74556e69747361064b8301527f3d226f626a656374426f756e64696e67426f78223e3c7265637420776964746861066b8301527f3d223122206865696768743d2231222066696c6c3d22776869746522202f3e3c61068b8301527f2f6d61736b3e00000000000000000000000000000000000000000000000000006106ab8301527f3c6c696e6561724772616469656e742069643d22677261642d73796d626f6c226106b18301527f3e3c73746f70206f66667365743d22302e37222073746f702d636f6c6f723d226106d18301527f7768697465222073746f702d6f7061636974793d223122202f3e3c73746f70206106f18301527f6f66667365743d222e3935222073746f702d636f6c6f723d22776869746522206107118301527f73746f702d6f7061636974793d223022202f3e3c2f6c696e65617247726164696107318301527f656e743e000000000000000000000000000000000000000000000000000000006107518301527f3c6d61736b2069643d22666164652d73796d626f6c22206d61736b436f6e74656107558301527f6e74556e6974733d227573657253706163654f6e557365223e3c7265637420776107758301527f696474683d22323930707822206865696768743d223230307078222066696c6c6107958301527f3d2275726c2823677261642d73796d626f6c2922202f3e3c2f6d61736b3e3c2f6107b58301527f646566733e0000000000000000000000000000000000000000000000000000006107d58301527f3c6720636c69702d706174683d2275726c2823636f726e65727329223e0000006107da8301527f3c726563742066696c6c3d2200000000000000000000000000000000000000006107f78301528751610803989197909590929091611512918791908b01906020016139df565b01010101928301527f6865696768743d22353030707822202f3e0000000000000000000000000000006108238301527f3c72656374207374796c653d2266696c7465723a2075726c28236631292220786108348301527f3d223070782220793d22307078222077696474683d22323930707822206865696108548301527f6768743d22353030707822202f3e0000000000000000000000000000000000006108748301527f203c67207374796c653d2266696c7465723a75726c2823746f702d726567696f6108828301527f6e2d626c7572293b207472616e73666f726d3a7363616c6528312e35293b20746108a28301527f72616e73666f726d2d6f726967696e3a63656e74657220746f703b223e0000006108c28301527f3c726563742066696c6c3d226e6f6e652220783d223070782220793d223070786108df8301527f222077696474683d22323930707822206865696768743d22353030707822202f6108ff83015261091f8201527f3c656c6c697073652063783d22353025222063793d22307078222072783d22316109208201527f38307078222072793d223132307078222066696c6c3d222330303022206f70616109408201527f636974793d22302e383522202f3e3c2f673e00000000000000000000000000006109608201527f3c7265637420783d22302220793d2230222077696474683d22323930222068656109728201527f696768743d22353030222072783d223432222072793d223432222066696c6c3d6109928201527f227267626128302c302c302c302922207374726f6b653d2272676261283235356109b28201527f2c3235352c3235352c302e322922202f3e3c2f673e00000000000000000000006109d2820152036109c7810185520183613b1b565b611e976104606117bb6001600160a01b03602085015116614d06565b6117d16001600160a01b03604086015116614d06565b90866001600160a01b036101808701511695606081015160808201519161010081015160020b9061012081015160020b61016082015160020b9061181e61014084015160020b8286614e0c565b9251938660806040519e8f9061183382613aaa565b8c82528d60208301526040820152886060820152015260a08d015260c08c015260e08b015260000b6101008a0152610120890152604051998a957f3c7465787420746578742d72656e646572696e673d226f7074696d697a65537060208801527f656564223e00000000000000000000000000000000000000000000000000000060408801527f3c74657874506174682073746172744f66667365743d222d313030252220666960458801527f6c6c3d2277686974652220666f6e742d66616d696c793d2227436f757269657260658801527f204e6577272c206d6f6e6f73706163652220666f6e742d73697a653d2231307060858801527f782220786c696e6b3a687265663d2223746578742d706174682d61223e00000060a588015264010714051160dd1b815161196d8160c28b01602086016139df565b88018160c282015285516119888160c7840160208a016139df565b81810160c781018690527f74654e616d653d2273746172744f6666736574222066726f6d3d22302522207460e78201527f6f3d22313030252220626567696e3d22307322206475723d22333073222072656101078201527f70656174436f756e743d22696e646566696e69746522202f3e000000000000006101278201527f3c2f74657874506174683e203c74657874506174682073746172744f666673656101408201527f743d223025222066696c6c3d2277686974652220666f6e742d66616d696c793d6101608201527f2227436f7572696572204e6577272c206d6f6e6f73706163652220666f6e742d6101808201527f73697a653d22313070782220786c696e6b3a687265663d2223746578742d70616101a08201527f74682d61223e00000000000000000000000000000000000000000000000000006101c082015284516101c695909391611ae39185918801906020016139df565b010191820152835190611b00826101cb96602088850191016139df565b01928301527f74654e616d653d2273746172744f6666736574222066726f6d3d2230252220746101eb8301527f6f3d22313030252220626567696e3d22307322206475723d223330732220726561020b8301527f70656174436f756e743d22696e646566696e69746522202f3e203c2f7465787461022b8301527f506174683e00000000000000000000000000000000000000000000000000000061024b8301527f3c74657874506174682073746172744f66667365743d22353025222066696c6c6102508301527f3d2277686974652220666f6e742d66616d696c793d2227436f7572696572204e6102708301527f6577272c206d6f6e6f73706163652220666f6e742d73697a653d2231307078226102908301527f20786c696e6b3a687265663d2223746578742d706174682d61223e00000000006102b083015264010714051160dd1b8451928160208701946102cb92611c6082858301896139df565b01918201528251958560208501976102d093611c7f828683018c6139df565b01928301527f74654e616d653d2273746172744f6666736574222066726f6d3d2230252220746102f08301527f6f3d22313030252220626567696e3d22307322206475723d22333073220000006103108301527f20726570656174436f756e743d22696e646566696e69746522202f3e3c2f746561032d8301527f7874506174683e3c74657874506174682073746172744f66667365743d222d3561034d8301527f3025222066696c6c3d2277686974652220666f6e742d66616d696c793d22274361036d8301527f6f7572696572204e6577272c206d6f6e6f73706163652220666f6e742d73697a61038d8301527f653d22313070782220786c696e6b3a687265663d2223746578742d706174682d6103ad8301527f61223e00000000000000000000000000000000000000000000000000000000006103cd8301525190611dcf826103d096878401906139df565b01928301525190611de7826103d595868401906139df565b01918201527f74654e616d653d2273746172744f6666736574222066726f6d3d2230252220746103f58201527f6f3d22313030252220626567696e3d22307322206475723d22333073222072656104158201527f70656174436f756e743d22696e646566696e69746522202f3e3c2f74657874506104358201527f6174683e3c2f746578743e00000000000000000000000000000000000000000061045582015203610440810186520184613b1b565b6060810151906120cf61016c6080830151936040519485917f3c67206d61736b3d2275726c2823666164652d73796d626f6c29223e3c72656360208401527f742066696c6c3d226e6f6e652220783d223070782220793d223070782220776960408401527f6474683d22323930707822206865696768743d22323030707822202f3e203c7460608401527f65787420793d22373070782220783d2233327078222066696c6c3d227768697460808401527f652220666f6e742d66616d696c793d2227436f7572696572204e6577272c206d60a08401527f6f6e6f73706163652220666f6e742d7765696768743d223230302220666f6e7460c08401527f2d73697a653d2233367078223e0000000000000000000000000000000000000060e0840152611fcd81518092602060ed870191016139df565b82017f2f0000000000000000000000000000000000000000000000000000000000000060ed82015261200982518093602060ee850191016139df565b6a1e17ba32bc3a1f1e17b39f60a91b910160ee8101919091527f3c7265637420783d2231362220793d223136222077696474683d22323538222060f98201527f6865696768743d22343638222072783d223236222072793d223236222066696c6101198201527f6c3d227267626128302c302c302c302922207374726f6b653d227267626128326101398201527f35352c3235352c3235352c302e322922202f3e0000000000000000000000000061015982015261014c91900390810185520183613b1b565b60a081015160020b9260c082015160020b60e083015160020b9061010084015160000b95600187146000146136245760405161210a81613ac7565b600881527f23666164652d75700000000000000000000000000000000000000000000000006020820152915b0391627fffff19808412627fffff85131761332257811561360e57600284900b14600019821416613322576127599260020b0560020b6004811315600014613435575060405161218581613ac7565b601a81527f4d312031433431203431203130352031303520313435203134350000000000006020820152955b6040516121bd81613ac7565b60028152602081017f373300000000000000000000000000000000000000000000000000000000000081526040516121f481613ac7565b6003815260208101937f313930000000000000000000000000000000000000000000000000000000000085526040519261222d84613ac7565b6003845260208401957f323137000000000000000000000000000000000000000000000000000000000087526040519661226688613ac7565b6003885260208801917f33333400000000000000000000000000000000000000000000000000000000008352600185146001860361342a575b156133565750505050916123f79391608d9360001914958660001461334f57835b87156133485782935b88156133405750965b156133385750905b6040519586936b1e31b4b931b6329031bc1e9160a11b6020860152612309815180926020602c890191016139df565b84019167383c111031bc9e9160c11b9283602c8201526123338251809360206034850191016139df565b017f70782220723d22347078222066696c6c3d22776869746522202f3e3c6369726360348201527f6c652063783d22000000000000000000000000000000000000000000000000006054820152612394825180936020605b850191016139df565b0190605b8201526123af8251809360206063850191016139df565b017f70782220723d2232347078222066696c6c3d226e6f6e6522207374726f6b653d606382015269113bb434ba329110179f60b11b608382015203606d810184520182613b1b565b905b6040519687917f3c67206d61736b3d2275726c28000000000000000000000000000000000000006020840152805161243881602d8601602085016139df565b61149160f11b848201602d8101919091527f207374796c653d227472616e73666f726d3a7472616e736c6174652837327078602f8201527f2c313839707829223e3c7265637420783d222d313670782220793d222d313670604f8201527f78222077696474683d22313830707822206865696768743d2231383070782220606f8201527f66696c6c3d226e6f6e6522202f3e3c7061746820643d22000000000000000000608f820152835191906124f790839060a601602087016139df565b8401017f22207374726f6b653d227267626128302c302c302c302e332922207374726f6b60a68201527f652d77696474683d2233327078222066696c6c3d226e6f6e6522207374726f6b60c68201527f652d6c696e656361703d22726f756e6422202f3e00000000000000000000000060e68201527f3c2f673e3c67206d61736b3d2275726c2800000000000000000000000000000060fa8201526125a782518093602061010b850191016139df565b61149160f11b81830161010b8101919091527f207374796c653d227472616e73666f726d3a7472616e736c617465283732707861010d8201527f2c313839707829223e000000000000000000000000000000000000000000000061012d8201527f3c7265637420783d222d313670782220793d222d31367078222077696474683d6101368201527f22313830707822206865696768743d223138307078222066696c6c3d226e6f6e6101568201527f6522202f3e0000000000000000000000000000000000000000000000000000006101768201527f3c7061746820643d22000000000000000000000000000000000000000000000061017b8201528351936126bb918591610184909101906020016139df565b01017f22207374726f6b653d2272676261283235352c3235352c3235352c31292220666101848201527f696c6c3d226e6f6e6522207374726f6b652d6c696e656361703d22726f756e646101a48201527f22202f3e3c2f673e0000000000000000000000000000000000000000000000006101c4820152825190612749826101cc95602087850191016139df565b01036101ac810187520185613b1b565b612767610120830151614e35565b9160a081015160020b9260c082015160020b9361278381615189565b61278c86615189565b835191600483018311613322578051600a81019485821161332257835199600a8b0191828c11613322576004916127c291615328565b979096600881019283910111613322576007918083029083820403613322576127ec600e91614e35565b94018091116133225780820290828204036133225761280c600e91614e35565b9b018092116133225780828102048203613322570261282a90614e35565b95604051998a977f203c67207374796c653d227472616e73666f726d3a7472616e736c61746528328060208b015260408a017f3970782c20333834707829223e0000000000000000000000000000000000000090527f3c726563742077696474683d22000000000000000000000000000000000000009485604d8c015280519081605a8d0191602001916128bd926139df565b7f707822206865696768743d2232367078222072783d22387078222072793d2238605a918c01918201527f7078222066696c6c3d227267626128302c302c302c302e362922202f3e000000607a820152609701947f3c7465787420783d22313270782220793d22313770782220666f6e742d66616d968787527f696c793d2227436f7572696572204e6577272c206d6f6e6f7370616365222066948560208901527f6f6e742d73697a653d2231327078222066696c6c3d227768697465223e3c7473968760408a01527f70616e2066696c6c3d2272676261283235352c3235352c3235352c302e36292298896060820152608081017f3e49443a203c2f747370616e3e00000000000000000000000000000000000000905281519182608d830191602001916129eb926139df565b01608d81016a1e17ba32bc3a1f1e17b39f60a91b905284609882015260b881017f3970782c20343134707829223e0000000000000000000000000000000000000090528360c58201528151918260d283019160200191612a4a926139df565b0160d201612aa290603d907f707822206865696768743d2232367078222072783d22387078222072793d223881527f7078222066696c6c3d227267626128302c302c302c302e362922202f3e00000060208201520190565b888152856020820152866040820152876060820152608081017f3e4d696e205469636b3a203c2f747370616e3e00000000000000000000000000905281519182609383019160200191612af4926139df565b0191609383016a1e17ba32bc3a1f1e17b39f60a91b9052609e83015260be82017f3970782c20343434707829223e00000000000000000000000000000000000000905260cb8201528151918260d883019160200191612b52926139df565b0160d801612baa90603d907f707822206865696768743d2232367078222072783d22387078222072793d223881527f7078222066696c6c3d227267626128302c302c302c302e362922202f3e00000060208201520190565b938452602084015260408301526060820152608081017f3e4d6178205469636b3a203c2f747370616e3e00000000000000000000000000905281519182609383019160200191612bf9926139df565b7f3c2f746578743e3c2f673e3c67207374796c653d227472616e73666f726d3a74609392909101918201527f72616e736c6174652832323670782c20343333707829223e000000000000000060b38201527f3c726563742077696474683d223336707822206865696768743d22333670782260cb8201527f2072783d22387078222072793d22387078222066696c6c3d226e6f6e6522207360eb8201527f74726f6b653d2272676261283235352c3235352c3235352c302e322922202f3e61010b8201527f3c70617468207374726f6b652d6c696e656361703d22726f756e642220643d2261012b8201527f4d38203943382e30303030342032322e393439342031362e323039392032382061014b8201527f3237203238222066696c6c3d226e6f6e6522207374726f6b653d22776869746561016b820152631110179f60e11b61018b8201527f3c636972636c65207374796c653d227472616e73666f726d3a7472616e736c6161018f8201527f74653364280000000000000000000000000000000000000000000000000000006101af82015281516101b492909190612da9908390858401906020016139df565b019081017f70782c200000000000000000000000000000000000000000000000000000000090528151906101b892828483019160200191612de9926139df565b019081017f70782c2030707829222063783d22307078222063793d223070782220723d223490526101d881017f7078222066696c6c3d227768697465222f3e3c2f673e000000000000000000009052036101ce810184526101ee01612e4e9084613b1b565b61012081015190604001516001600160a01b0316612e6b91615667565b156132f857604051947f3c67207374796c653d227472616e73666f726d3a7472616e736c61746528323260208701527f3670782c20333932707829223e3c726563742077696474683d2233367078222060408701527f6865696768743d2233367078222072783d22387078222072793d22387078222060608701527f66696c6c3d226e6f6e6522207374726f6b653d2272676261283235352c32353560808701527f2c3235352c302e322922202f3e0000000000000000000000000000000000000060a08701527f3c673e3c70617468207374796c653d227472616e73666f726d3a7472616e736c60ad8701527f617465283670782c367078292220643d224d313220304c31322e36353232203960cd8701527f2e35363538374c313820312e363037374c31332e373831392031302e3231383160ed8701527f4c32322e3339323320364c31342e34333431200000000000000000000000000061010d8701527f31312e333437384c32342031324c31342e343334312031322e363532324c32326101208701527f2e333932332031384c31332e373831392031332e373831394c31382032322e336101408701527f3932334c31322e363532322031342e343334314c31322032344c31312e3334376101608701527f382031342e343334314c362032322e33390000000000000000000000000000006101808701527f32334c31302e323138312031332e373831394c312e363037372031384c392e356101918701527f363538372031322e363532324c302031324c392e35363538372031312e3334376101b18701527f384c312e3630373720364c31302e323138312031302e323138314c3620312e366101d18701527f3037374c31312e3334373820392e35363538374c313220305a222066696c6c3d6101f187015269113bb434ba329110179f60b11b6102118701527f3c616e696d6174655472616e73666f726d206174747269627574654e616d653d61021b8701527f227472616e73666f726d2220747970653d22726f74617465222066726f6d3d2261023b8701527f302031382031382220746f3d2233363020313820313822206475723d2231307361025b8701527f2220726570656174436f756e743d22696e646566696e697465222f3e3c2f673e61027b8701527f3c2f673e0000000000000000000000000000000000000000000000000000000061029b87015261027f86526102a086019486861067ffffffffffffffff8711176132e25761328460206100c4966026966100d89a6132ad9a604052905b6040519586938561322b8187019a8b8151938492016139df565b850161323f825180938980850191016139df565b01613252825180938880850191016139df565b01613265825180938780850191016139df565b01613278825180938680850191016139df565b01038084520182613b1b565b604051958361329d8895518092602080890191016139df565b84019151809360208401906139df565b017f3c2f7376673e00000000000000000000000000000000000000000000000000006020820152036006810184520182613b1b565b634e487b7160e01b600052604160045260246000fd5b6100d8946132ad9461328460206100c49660269660405161331881613ae3565b6000815290613211565b634e487b7160e01b600052601160045260246000fd5b9050906122da565b9050966122d2565b81936122c9565b82936122c0565b6134249794509761340f91607e976133fb61339a9b602c60409a97989a519d8e809c6b1e31b4b931b6329031bc1e9160a11b9c8d60208401525193849201906139df565b8a016133bf67383c111031bc9e9160c11b9889602c84015251809360348401906139df565b01917f70782220723d22347078222066696c6c3d22776869746522202f3e000000000098896034850152604f840152518093605b8401906139df565b0192605b84015251809360638401906139df565b0190606382015203605e810184520182613b1b565b906123f9565b50600019851461229f565b6008811361347a575060405161344a81613ac7565b601981527f4d312031433333203439203937203131332031343520313435000000000000006020820152956121b1565b601081136134bf575060405161348f81613ac7565b601981527f4d312031433333203537203839203131332031343520313435000000000000006020820152956121b1565b6020811361350457506040516134d481613ac7565b601981527f4d312031433235203635203831203132312031343520313435000000000000006020820152956121b1565b60408113613549575060405161351981613ac7565b601981527f4d312031433137203733203733203132392031343520313435000000000000006020820152956121b1565b6080811361358e575060405161355e81613ac7565b601881527f4d312031433920383120363520313337203134352031343500000000000000006020820152956121b1565b610100126135d2576040516135a281613ac7565b601a81527f4d31203143312038392035372e352031343520313435203134350000000000006020820152956121b1565b6040516135de81613ac7565b601881527f4d312031433120393720343920313435203134352031343500000000000000006020820152956121b1565b634e487b7160e01b600052601260045260246000fd5b600019870361366a5760405161363981613ac7565b600a81527f23666164652d646f776e0000000000000000000000000000000000000000000060208201525b91612136565b60405161367681613ac7565b600581527f236e6f6e650000000000000000000000000000000000000000000000000000006020820152613664565b346100dc5760403660031901126100dc5760206136c0613a55565b60ff6001600160a01b0360405192166024351c168152f35b346100dc5760603660031901126100dc576004356001600160a01b03811681036100dc5760243560ff811681036100dc576100d8916100c491613719613a7f565b916142fc565b346100dc5760a03660031901126100dc57613738613a27565b613740613a37565b90613749613a7f565b60643560ff811681036100dc576084359182151583036100dc576100d8946100c494613e1b565b346100dc5760203660031901126100dc576100d86100c461378f613a55565b614d06565b346100dc576137c36137a5366139ac565b60005a916040518094819263c49917d760e01b835260048301613c55565b038173__$cea9be979eee3d87fb124d6cbb244bb0b5$__5af4908115613822576020926137f7926137ff575b505a90613d7b565b604051908152f35b61381b903d806000833e6138138183613b1b565b810190613ba0565b50836137ef565b6040513d6000823e3d90fd5b346100dc5760403660031901126100dc576001600160a01b0361384f613a55565b1660249081351c61385e6147e2565b90815190815b61387e57604051602080825281906100d890820186613a02565b600f811660108110156138bf576f181899199a1a9b1b9c1cb0b131b232b360811b901a6138af60001984018561482e565b5360041c90600019019081613864565b84634e487b7160e01b60005260326004526000fd5b346100dc5760403660031901126100dc5761391b6100d86139046138f6613a27565b6138fe613a37565b90615328565b604092919251938493604085526040850190613a02565b908382036020850152613a02565b346100dc576000818061395161393e366139ac565b63c49917d760e01b835260048301613c55565b038173__$cea9be979eee3d87fb124d6cbb244bb0b5$__5af48015613822576100d891600091613991575b50604051918291602083526020830190613a02565b6139a691503d806000833e6138138183613b1b565b8261397c565b600319906020818301126100dc576004359167ffffffffffffffff83116100dc57826101a0920301126100dc5760040190565b60005b8381106139f25750506000910152565b81810151838201526020016139e2565b90602091613a1b815180928185528580860191016139df565b601f01601f1916010190565b600435908160020b82036100dc57565b602435908160020b82036100dc57565b35908160020b82036100dc57565b600435906001600160a01b03821682036100dc57565b35906001600160a01b03821682036100dc57565b6044359060ff821682036100dc57565b359060ff821682036100dc57565b359081151582036100dc57565b610140810190811067ffffffffffffffff8211176132e257604052565b6040810190811067ffffffffffffffff8211176132e257604052565b6020810190811067ffffffffffffffff8211176132e257604052565b6060810190811067ffffffffffffffff8211176132e257604052565b90601f8019910116810190811067ffffffffffffffff8211176132e257604052565b67ffffffffffffffff81116132e257601f01601f191660200190565b81601f820112156100dc57803590613b7082613b3d565b92613b7e6040519485613b1b565b828452602083830101116100dc57816000926020809301838601378301015290565b6020818303126100dc5780519067ffffffffffffffff82116100dc570181601f820112156100dc578051613bd381613b3d565b92613be16040519485613b1b565b818452602082840101116100dc57613bff91602080850191016139df565b90565b9035601e19823603018112156100dc57016020813591019167ffffffffffffffff82116100dc5781360383136100dc57565b908060209392818452848401376000828201840152601f01601f1916010190565b6020815281356020820152613cbb6001600160a01b0380613c7860208601613a6b565b16604084015280613c8b60408601613a6b565b166060840152613d74613cda613ca46060870187613c02565b94906101a0958660808901526101c0880191613c34565b613cc86080880188613c02565b878303601f190160a089015290613c34565b9460ff613ce960a08301613a8f565b1660c086015260ff613cfd60c08301613a8f565b1660e0860152613d62613d50613d3e613d2c613d1b60e08601613a9d565b151561010090818b01528501613a47565b6101209060020b818a01528401613a47565b60020b61014090818901528301613a47565b60020b61016090818801528201613a47565b60020b90610180918287015201613a6b565b1691015290565b9190820391821161332257565b9060020b9060020b02908160020b91820361332257565b811561360e570490565b60405190613db682613ac7565b600382527f4d494e00000000000000000000000000000000000000000000000000000000006020830152565b60405190613def82613ac7565b600382527f4d415800000000000000000000000000000000000000000000000000000000006020830152565b9060029080820b92831561360e57613e398285620d89e71905613d88565b81840b9290840b8303613e65575050505050505015600014613e5d57613bff613da9565b613bff613de2565b613e7590620d89e8958605613d88565b830b8203613e9b5750505050505015600014613e9357613bff613de2565b613bff613da9565b8160171d830b809101830b189262ffffff84169081116142105763ffffffff93600160801b93600182166141f8575b81166141dc575b600481166141c0575b600881166141a4575b60108116614188575b6020811661416c575b60408116614150575b608091828216614135575b610100821661411a575b61020082166140ff575b61040082166140e4575b61080082166140c9575b61100082166140ae575b6120008216614093575b6140008216614078575b618000821661405d575b620100008216614042575b620200008216614028575b6204000080911015613fdb575b505050600012613fd2575b0160201c6001600160a01b0390811693613fa6575b50613bff926142fc565b831561360e57613bff937801000000000000000000000000000000000000000000000000041692613f9c565b60001904613f87565b811661400e575b6208000016613ff3575b8080613f7c565b6b048a170391f7dc42444e8fa26000929302901c9190613fec565b6d2216e584f5fa1ea926041bedfe98909302811c92613fe2565b936e5d6af8dedb81196699c329225ee60402821c93613f6f565b936f09aa508b5b7a84e1c677de54f3e99bc902821c93613f64565b936f31be135f97d08fd981231505542fcfa602821c93613f59565b936f70d869a156d2a1b890bb3df62baf32f702821c93613f4f565b936fa9f746462d870fdf8a65dc1f90e061e502821c93613f45565b936fd097f3bdfd2022b8845ad8f792aa582502821c93613f3b565b936fe7159475a2c29b7443b29c7fa6e889d902821c93613f31565b936ff3392b0822b70005940c7a398e4b70f302821c93613f27565b936ff987a7253ac413176f2b074cf7815e5402821c93613f1d565b936ffcbe86c7900a88aedcffc83b479aa3a402821c93613f13565b936ffe5dee046a99a2a811c461f1969c305302821c93613f09565b926fff2ea16466c96a3843ec78b326b528610260801c92613efe565b926fff973b41fa98c081472e6896dfb254c00260801c92613ef5565b926fffcb9843d60f6159c9db58835c9266440260801c92613eec565b926fffe5caca7e10e4e61c3624eaa0941cd00260801c92613ee3565b926ffff2e50f5f656932ef12357cf3c7fdcc0260801c92613eda565b926ffff97272373d413259a46990580e213a0260801c92613ed1565b6ffffcb933bd6fad37aa2d162d1a5940019450613eca565b60046040517f3c10250f000000000000000000000000000000000000000000000000000000008152fd5b60ff1660ff81146133225760010190565b60ff6000199116019060ff821161332257565b60ff6003199116019060ff821161332257565b60405190610100820182811067ffffffffffffffff8211176132e2576040528160e06000918281528260208201528260408201528260608201528260808201528260a08201528260c08201520152565b60ff60019116019060ff821161332257565b906010820180921161332257565b906064820180921161332257565b9190820180921161332257565b60ff91821693928216808503600080831280158884131688841290911617614621578082126145f35750945b851515806145e8575b156145d6576001928392909111156145a757614361906001600160a01b0361435a88851c6149be565b91166149cc565b941614614597575b6c010000000000000000000000006143818480614706565b93109283156145885761439390614792565b925b836000815b614574576143a8915061424b565b91849060009581851660058111614531575b5050600495600a878185061193049261450c575b620186a083146144fe575b6144ee575b6143e6614271565b938315614487578116602b03818111614472578181166007019682881161445d5782602087019816885260026080870152602b821161445d576001820180921161445d575081613bff969781614443931660a0880152511661424b565b1660408401525b825260c0820152600060e0820152614864565b601190634e487b7160e01b6000525260246000fd5b601187634e487b7160e01b6000525260246000fd5b9495613bff959091906009828216106144ca57816144a76144ba9261425e565b168060208801526005608088015261424b565b1660a0850152604084015261444a565b6144e3919250600660208701526005604087015261425e565b16606084015261444a565b926144f89061423a565b926143de565b5090600a90049060016143d9565b916001810180911161451e57916143ce565b602483601189634e487b7160e01b835252fd5b9192509060041901828111614560578216604d8111614560579061455891600a0a90613d9f565b9038806143ba565b602487634e487b7160e01b81526011600452fd5b61457f600a9161423a565b9104908161439a565b61459190614752565b92614395565b916145a1906146ae565b91614369565b6145c5906001600160a01b036145be88851c6149be565b9116613d9f565b94160361436957916145a190614635565b50506001600160a01b03169250614369565b506012861115614331565b7f80000000000000000000000000000000000000000000000000000000000000008214614621570394614328565b80634e487b7160e01b602492526011600452fd5b8060801b600160801b6000198184099082808310920390828203927003298b075b4b6a5240945790619b37fd4a92848411156100dc57146146a6577f1f514b8ee5362595de309a65c03ce543f7e851e1625ea646b8fe88b81023b92d940990828211900360ff1b910360011c170290565b509250500490565b7003298b075b4b6a5240945790619b37fd4a81810291600019828209918380841093039183830393600160801b93858511156100dc57146146fc570990828211900360801b910360801c1790565b5050505060801c90565b81810291906000198282099183808410930391838303936801000000000000000093858511156100dc5714614748570990828211900360c01b910360401c1790565b5050505060401c90565b620186a081810291600019828209918380841093039183830393600160801b93858511156100dc57146146fc570990828211900360801b910360801c1790565b72047bf19673df52e37f2410011d10000000000081810291600019828209918380841093039183830393600160801b93858511156100dc57146146fc570990828211900360801b910360801c1790565b604051906147ef82613ac7565b6006825260203681840137565b9061480682613b3d565b6148136040519182613b1b565b8281528092614824601f1991613b3d565b0190602036910137565b90815181101561483f570160200190565b634e487b7160e01b600052603260045260246000fd5b60001981146133225760010190565b9060ff614876816020850151166147fc565b9060e084015161499e575b60c084015161497a575b806080850151165b816148a38160a0880151166142c1565b168110156148c6578060306148bb6148c1938661482e565b53614855565b614893565b50915b83511561497357826060850151168015159081614963575b50614940575b600a7fff000000000000000000000000000000000000000000000000000000000000008186510660300160f81b166149356040870191868351169287600019850116905260001a918561482e565b5384510484526148c9565b602e61495d6040860185815116908660001983011690528461482e565b536148e7565b90508360408601511614386148e1565b9250905090565b81511561483f576030602083015381516001101561483f57602e602183015361488b565b81516000198101908111613322576149b86025918461482e565b53614881565b604d811161332257600a0a90565b8181029291811591840414171561332257565b62ffffff809116918215614cca57604051926060840184811067ffffffffffffffff8211176132e257604052808452602084019060009283835260408601938085525b858751168015614a9057845160ff919082169088908215614a6c57505050614a4c8186511661423a565b1684525b614a5a8551614855565b855285600a8189511604168752614a22565b600a900616614a7d575b5050614a50565b614a869061423a565b1684523880614a76565b50939294509450614a9f614271565b825190949060058110614c22575082516004614ac160ff928385511690613d7b565b10614c1a5780855b16845160041990818101908111614c065783614ae78187511661424b565b161115614bdd5750855b82845116614b068260808b01928084526142ef565b6000198101908111614bc95783614b61614b859897948c604089614b49614b7a9a82614b4381614b7f9f9c81614b669d1660a08a0152511661424b565b166142ef565b1691015284614b5a818851166142c1565b16906142ef565b6142ef565b1660208901525b60ff865191511690613d7b565b6149be565b90613d9f565b8352600160e084015251906004821115614bbb57600319820191821161462157509060ff80613bff93165b166060820152614864565b613bff92915060ff90614bb0565b602489634e487b7160e01b81526011600452fd5b855190810190811161456057614c019083614bfa8187511661424b565b1690613d7b565b614af1565b602488634e487b7160e01b81526011600452fd5b806001614ac9565b60050360058111614cb657600260808701526002810190818111614ca25760018101918211614ca25760ff80921660a08801526002828451160182811161456057829182614c719216906142ef565b1680602088015260011901818111614ca257614b859392614b7f92614b7a92166040890152600160c0890152614b6d565b602486634e487b7160e01b81526011600452fd5b602485634e487b7160e01b81526011600452fd5b915050604051614cd981613ac7565b600281527f3025000000000000000000000000000000000000000000000000000000000000602082015290565b6001600160a01b031660405190614d1c82613aff565b602a825260208201604036823782511561483f5760309053815160019081101561483f57607860218401536029905b808211614db9575050614d5b5790565b60646040517f08c379a000000000000000000000000000000000000000000000000000000000815260206004820152602060248201527f537472696e67733a20686578206c656e67746820696e73756666696369656e746044820152fd5b9091600f81166010811015614df7576f181899199a1a9b1b9c1cb0b131b232b360811b901a614de8848661482e565b5360041c916000190190614d4b565b60246000634e487b7160e01b81526032600452fd5b600292830b920b821215614e2257505060001990565b60020b1215614e3057600190565b600090565b806000917a184f03e93ff9f4daa797ed6e38ed64bf6a1f01000000000000000080821015614f6a575b506d04ee2d6d415b85acef810000000080831015614f5b575b50662386f26fc1000080831015614f4c575b506305f5e10080831015614f3d575b5061271080831015614f2e575b506064821015614f1e575b600a80921015614f14575b600190816021614ecc8287016147fc565b95860101905b614ede575b5050505090565b600019019083906f181899199a1a9b1b9c1cb0b131b232b360811b8282061a835304918215614f0f57919082614ed2565b614ed7565b9160010191614ebb565b9190606460029104910191614eb0565b60049193920491019138614ea5565b60089193920491019138614e98565b60109193920491019138614e89565b60209193920491019138614e77565b604093508104915038614e5e565b60881c614f836147e2565b90815190815b614f9257505090565b600f81166010811015614df7576f181899199a1a9b1b9c1cb0b131b232b360811b901a614fc360001984018561482e565b5360041c90600019019081614f89565b614fdb6147e2565b90815190815b614fea57505090565b600f81166010811015614df7576f181899199a1a9b1b9c1cb0b131b232b360811b901a61501b60001984018561482e565b5360041c90600019019081614fe1565b8051156151755760405161503e81613aff565b604081527f4142434445464748494a4b4c4d4e4f505152535455565758595a61626364656660208201527f6768696a6b6c6d6e6f707172737475767778797a303132333435363738392b2f604082015281516002928382018092116133225760038092047f3fffffffffffffffffffffffffffffffffffffffffffffffffffffffffffffff81168103613322576150d8908594951b6147fc565b936020850193829183518401925b838110615124575050505051068060011461511157600214615106575090565b603d90600019015390565b50603d9081600019820153600119015390565b85600491979293949701918251600190603f9082828260121c16880101518453828282600c1c16880101518385015382828260061c16880101518885015316850101518782015301959291906150e6565b5060405161518281613ae3565b6000815290565b60405161519581613ae3565b60008152908060020b600081126151e8575b5060206151bb62ffffff613bff9316614e35565b9260405193816151d486935180928680870191016139df565b8201613278825180938680850191016139df565b9150506000038060020b90810361332257613bff60206151bb62ffffff60405161521181613ac7565b600181527f2d000000000000000000000000000000000000000000000000000000000000008482015294935050506151a7565b6040519061525182613ac7565b600282527f32370000000000000000000000000000000000000000000000000000000000006020830152565b6040519061528a82613ac7565b600282527f32310000000000000000000000000000000000000000000000000000000000006020830152565b604051906152c382613ac7565b600282527f31380000000000000000000000000000000000000000000000000000000000006020830152565b604051906152fc82613ac7565b600182527f38000000000000000000000000000000000000000000000000000000000000006020830152565b600291820b90820b01627fffff198112627fffff82131761332257810b819005810b6201e8471981121561539a5750506153606152ef565b9060405161536d81613ac7565b600181527f3700000000000000000000000000000000000000000000000000000000000000602082015290565b620124f7198112156153ea5750506153b06152ef565b906040516153bd81613ac7565b600481527f31302e3500000000000000000000000000000000000000000000000000000000602082015290565b6161a7198112156154395750506153ff6152ef565b9060405161540c81613ac7565b600581527f31342e3235000000000000000000000000000000000000000000000000000000602082015290565b6113871981121561548357506040519061545282613ac7565b81527f3130000000000000000000000000000000000000000000000000000000000000602082015290613bff6152b6565b60008112156154cb57506040519061549a82613ac7565b81527f3131000000000000000000000000000000000000000000000000000000000000602082015290613bff61527d565b6113888112156155455750906040516154e381613ac7565b8281527f31330000000000000000000000000000000000000000000000000000000000006020820152916040519061551a82613ac7565b81527f3233000000000000000000000000000000000000000000000000000000000000602082015290565b6161a88112156155bf57509060405161555d81613ac7565b8281527f31350000000000000000000000000000000000000000000000000000000000006020820152916040519061559482613ac7565b81527f3235000000000000000000000000000000000000000000000000000000000000602082015290565b620124f881121561560d5750906155d46152b6565b91604051906155e282613ac7565b81527f3236000000000000000000000000000000000000000000000000000000000000602082015290565b6201e8481315615629575061562061527d565b90613bff615244565b6040519061563682613ac7565b81527f3234000000000000000000000000000000000000000000000000000000000000602082015290613bff615244565b9060405160208101918383526bffffffffffffffffffffffff199060601b1660408201526034815261569881613aff565b519020908060009160801c80615776575b508060401c80615769575b508060201c8061575c575b508060101c8061574f575b508060081c80615742575b508060041c80615735575b508060021c80615728575b5060011c615720575b8060011b9080820460021490151715613322576001018060011161332257801561360e57600019041190565b6001016156f4565b60029150910190386156eb565b60049150910190386156e0565b60089150910190386156d5565b60109150910190386156ca565b60209150910190386156bf565b60409150910190386156b4565b915050608090386156a956fea164736f6c6343000814000a",
  "linkReferences": {
    "contracts/libraries/NFTDescriptor.sol": {
      "NFTDescriptor": [
        {
          "length": 20,
          "start": 14308
        },
        {
          "length": 20,
          "start": 14706
        }
      ]
    }
  },
  "deployedLinkReferences": {
    "contracts/libraries/NFTDescriptor.sol": {
      "NFTDescriptor": [
        {
          "length": 20,
          "start": 14279
        },
        {
          "length": 20,
          "start": 14677
        }
      ]
    }
  }
}