{
  "_format": "hh-sol-artifact-1",
  "contractName": "MockPluginFactory",
  "sourceName": "contracts/test/MockPluginFactory.sol",
  "abi": [
    {
      "inputs": [
        {
          "internalType": "address",
          "name": "_algebraFactory",
          "type": "address"
        }
      ],
      "stateMutability": "nonpayable",
      "type": "constructor"
    },
    {
      "inputs": [
        {
          "internalType": "address",
          "name": "",
          "type": "address"
        },
        {
          "internalType": "address",
          "name": "",
          "type": "address"
        },
        {
          "internalType": "address",
          "name": "",
          "type": "address"
        }
      ],
      "name": "afterCreatePoolHook",
      "outputs": [],
      "stateMutability": "view",
      "type": "function"
    },
    {
      "inputs": [],
      "name": "algebraFactory",
      "outputs": [
        {
          "internalType": "address",
          "name": "",
          "type": "address"
        }
      ],
      "stateMutability": "view",
      "type": "function"
    },
    {
      "inputs": [
        {
          "internalType": "address",
          "name": "pool",
          "type": "address"
        },
        {
          "internalType": "address",
          "name": "",
          "type": "address"
        },
        {
          "internalType": "address",
          "name": "",
          "type": "address"
        },
        {
          "internalType": "address",
          "name": "",
          "type": "address"
        },
        {
          "internalType": "address",
          "name": "",
          "type": "address"
        },
        {
          "internalType": "bytes",
          "name": "",
          "type": "bytes"
        }
      ],
      "name": "beforeCreatePoolHook",
      "outputs": [
        {
          "internalType": "address",
          "name": "",
          "type": "address"
        }
      ],
      "stateMutability": "nonpayable",
      "type": "function"
    },
    {
      "inputs": [
        {
          "internalType": "address",
          "name": "poolAddress",
          "type": "address"
        }
      ],
      "name": "pluginByPool",
      "outputs": [
        {
          "internalType": "address",
          "name": "pluginAddress",
          "type": "address"
        }
      ],
      "stateMutability": "view",
      "type": "function"
    }
  ],
  "bytecode": "0x60a060405234801561001057600080fd5b50604051610d03380380610d0383398101604081905261002f91610040565b6001600160a01b0316608052610070565b60006020828403121561005257600080fd5b81516001600160a01b038116811461006957600080fd5b9392505050565b608051610c6b6100986000396000818160a70152818161011901526101700152610c6b6000f3fe608060405234801561001057600080fd5b506004361061004c5760003560e01c80631d0338d9146100515780638d5ef8d11461008d578063a7b64b04146100a2578063cdef16f6146100c9575b600080fd5b61006461005f3660046102f0565b6100ff565b60405173ffffffffffffffffffffffffffffffffffffffff909116815260200160405180910390f35b6100a061009b3660046103b6565b610158565b005b6100647f000000000000000000000000000000000000000000000000000000000000000081565b6100646100d73660046103f9565b60006020819052908152604090205473ffffffffffffffffffffffffffffffffffffffff1681565b60003373ffffffffffffffffffffffffffffffffffffffff7f0000000000000000000000000000000000000000000000000000000000000000161461014357600080fd5b61014c8861019f565b98975050505050505050565b3373ffffffffffffffffffffffffffffffffffffffff7f0000000000000000000000000000000000000000000000000000000000000000161461019a57600080fd5b505050565b73ffffffffffffffffffffffffffffffffffffffff81811660009081526020819052604081205490911615610234576040517f08c379a000000000000000000000000000000000000000000000000000000000815260206004820152600f60248201527f416c726561647920637265617465640000000000000000000000000000000000604482015260640160405180910390fd5b6000604051610242906102ba565b604051809103906000f08015801561025e573d6000803e3d6000fd5b5073ffffffffffffffffffffffffffffffffffffffff938416600090815260208190526040902080547fffffffffffffffffffffffff000000000000000000000000000000000000000016948216949094179093555090919050565b6108438061041c83390190565b803573ffffffffffffffffffffffffffffffffffffffff811681146102eb57600080fd5b919050565b600080600080600080600060c0888a03121561030b57600080fd5b610314886102c7565b9650610322602089016102c7565b9550610330604089016102c7565b945061033e606089016102c7565b935061034c608089016102c7565b925060a088013567ffffffffffffffff8082111561036957600080fd5b818a0191508a601f83011261037d57600080fd5b81358181111561038c57600080fd5b8b602082850101111561039e57600080fd5b60208301945080935050505092959891949750929550565b6000806000606084860312156103cb57600080fd5b6103d4846102c7565b92506103e2602085016102c7565b91506103f0604085016102c7565b90509250925092565b60006020828403121561040b57600080fd5b610414826102c7565b939250505056fe608060405234801561001057600080fd5b50610823806100206000396000f3fe608060405234801561001057600080fd5b50600436106100be5760003560e01c806382dd6522116100765780639cb5a9631161005b5780639cb5a963146102e4578063aa6b14bb14610320578063d68520101461035557600080fd5b806382dd6522146102755780638de0a8ee146102ab57600080fd5b80635e2411b2116100a75780635e2411b2146101b8578063636fd80414610231578063689ea3701461026657600080fd5b8063029c1cb7146100c3578063343d37ff1461014c575b600080fd5b6101036100d1366004610414565b7f029c1cb700000000000000000000000000000000000000000000000000000000600080985098509895505050505050565b604080517fffffffff00000000000000000000000000000000000000000000000000000000909416845262ffffff92831660208501529116908201526060015b60405180910390f35b61018761015a3660046104ba565b7f343d37ff0000000000000000000000000000000000000000000000000000000098975050505050505050565b6040517fffffffff000000000000000000000000000000000000000000000000000000009091168152602001610143565b6101f56101c636600461054d565b7f5e2411b200000000000000000000000000000000000000000000000000000000600097509795505050505050565b604080517fffffffff00000000000000000000000000000000000000000000000000000000909316835262ffffff909116602083015201610143565b61018761023f3660046105e8565b7f636fd8040000000000000000000000000000000000000000000000000000000092915050565b60405160008152602001610143565b610187610283366004610621565b7f82dd6522000000000000000000000000000000000000000000000000000000009392505050565b6101876102b9366004610668565b7f8de0a8ee000000000000000000000000000000000000000000000000000000009695505050505050565b6101876102f23660046106e4565b7f9cb5a963000000000000000000000000000000000000000000000000000000009998505050505050505050565b61018761032e366004610790565b7faa6b14bb0000000000000000000000000000000000000000000000000000000092915050565b6101876103633660046107b2565b7fd6852010000000000000000000000000000000000000000000000000000000009998505050505050505050565b73ffffffffffffffffffffffffffffffffffffffff811681146103b357600080fd5b50565b803580151581146103c657600080fd5b919050565b60008083601f8401126103dd57600080fd5b50813567ffffffffffffffff8111156103f557600080fd5b60208301915083602082850101111561040d57600080fd5b9250929050565b60008060008060008060008060e0898b03121561043057600080fd5b883561043b81610391565b9750602089013561044b81610391565b965061045960408a016103b6565b955060608901359450608089013561047081610391565b935061047e60a08a016103b6565b925060c089013567ffffffffffffffff81111561049a57600080fd5b6104a68b828c016103cb565b999c989b5096995094979396929594505050565b60008060008060008060008060e0898b0312156104d657600080fd5b88356104e181610391565b975060208901356104f181610391565b965060408901359550606089013594506080890135935060a0890135925060c089013567ffffffffffffffff81111561049a57600080fd5b8035600281900b81146103c657600080fd5b8035600f81900b81146103c657600080fd5b600080600080600080600060c0888a03121561056857600080fd5b873561057381610391565b9650602088013561058381610391565b955061059160408901610529565b945061059f60608901610529565b93506105ad6080890161053b565b925060a088013567ffffffffffffffff8111156105c957600080fd5b6105d58a828b016103cb565b989b979a50959850939692959293505050565b600080604083850312156105fb57600080fd5b823561060681610391565b9150602083013561061681610391565b809150509250929050565b60008060006060848603121561063657600080fd5b833561064181610391565b9250602084013561065181610391565b915061065f60408501610529565b90509250925092565b60008060008060008060a0878903121561068157600080fd5b863561068c81610391565b9550602087013561069c81610391565b94506040870135935060608701359250608087013567ffffffffffffffff8111156106c657600080fd5b6106d289828a016103cb565b979a9699509497509295939492505050565b60008060008060008060008060006101008a8c03121561070357600080fd5b893561070e81610391565b985060208a013561071e81610391565b975061072c60408b016103b6565b965060608a0135955060808a013561074381610391565b945060a08a0135935060c08a0135925060e08a013567ffffffffffffffff81111561076d57600080fd5b6107798c828d016103cb565b915080935050809150509295985092959850929598565b600080604083850312156107a357600080fd5b50508035926020909101359150565b60008060008060008060008060006101008a8c0312156107d157600080fd5b89356107dc81610391565b985060208a01356107ec81610391565b97506107fa60408b01610529565b965061080860608b01610529565b955061074360808b0161053b56fea164736f6c6343000814000aa164736f6c6343000814000a",
  "linkReferences": {},
  "deployedLinkReferences": {}
}