{
  "_format": "hh-sol-artifact-1",
  "contractName": "TestCallbackValidation",
  "sourceName": "contracts/test/TestCallbackValidation.sol",
  "abi": [
    {
      "inputs": [
        {
          "internalType": "address",
          "name": "factory",
          "type": "address"
        },
        {
          "internalType": "address",
          "name": "tokenA",
          "type": "address"
        },
        {
          "internalType": "address",
          "name": "tokenB",
          "type": "address"
        },
        {
          "internalType": "address",
          "name": "deployer",
          "type": "address"
        }
      ],
      "name": "verifyCallback",
      "outputs": [
        {
          "internalType": "contract IAlgebraPool",
          "name": "pool",
          "type": "address"
        }
      ],
      "stateMutability": "view",
      "type": "function"
    }
  ],
  "bytecode": "0x608060405234801561001057600080fd5b5061047e806100206000396000f3fe608060405234801561001057600080fd5b506004361061002b5760003560e01c806365682a6414610030575b600080fd5b61004361003e36600461041d565b61006c565b60405173ffffffffffffffffffffffffffffffffffffffff909116815260200160405180910390f35b600061007a85858585610083565b95945050505050565b600061007a85610094868686610099565b610127565b60408051606081018252600080825260208201819052918101919091528173ffffffffffffffffffffffffffffffffffffffff168373ffffffffffffffffffffffffffffffffffffffff1611156100ee579091905b506040805160608101825273ffffffffffffffffffffffffffffffffffffffff9485168152928416602084015292169181019190915290565b600061013383836101bf565b90503373ffffffffffffffffffffffffffffffffffffffff8216146101b9576040517f08c379a000000000000000000000000000000000000000000000000000000000815260206004820152601a60248201527f496e76616c69642063616c6c6572206f662063616c6c6261636b00000000000060448201526064015b60405180910390fd5b92915050565b6000816040015173ffffffffffffffffffffffffffffffffffffffff16826020015173ffffffffffffffffffffffffffffffffffffffff161061025e576040517f08c379a000000000000000000000000000000000000000000000000000000000815260206004820152601760248201527f496e76616c6964206f72646572206f6620746f6b656e7300000000000000000060448201526064016101b0565b8151839073ffffffffffffffffffffffffffffffffffffffff16156102d757825160208085015160408087015190516102c394930173ffffffffffffffffffffffffffffffffffffffff93841681529183166020830152909116604082015260600190565b604051602081830303815290604052610321565b6020808401516040808601519051610311930173ffffffffffffffffffffffffffffffffffffffff92831681529116602082015260400190565b6040516020818303038152906040525b80516020918201206040516103b793927fb3fc09be5eb433d99b1ec89fd8435aaf5ffea75c1879e19028aa2414a14b3c8591017fff00000000000000000000000000000000000000000000000000000000000000815260609390931b7fffffffffffffffffffffffffffffffffffffffff0000000000000000000000001660018401526015830191909152603582015260550190565b604080517fffffffffffffffffffffffffffffffffffffffffffffffffffffffffffffffe081840301815291905280516020909101209392505050565b803573ffffffffffffffffffffffffffffffffffffffff8116811461041857600080fd5b919050565b6000806000806080858703121561043357600080fd5b61043c856103f4565b935061044a602086016103f4565b9250610458604086016103f4565b9150610466606086016103f4565b90509295919450925056fea164736f6c6343000814000a",
  "linkReferences": {},
  "deployedLinkReferences": {}
}